:100000000C9471020C94AF160C9484160C9459162F
:100010000C942E160C9403160C94D8150C94AD1554
:100020000C9482150C94A2020C94A2020C94A202CD
:100030000C94A2020C94A2020C94A2020C94A202B0
:100040000C94A2020C94A2020C94A2020C94A202A0
:100050000C94A2020C94A2020C94A2020C943815E7
:100060000C94A2020C9404170C94DA160C94A202BD
:100070000C94A2020C94A2020C94A2020C94A20270
:100080000C94A2020C94A2020C94A2020C94A20260
:100090000C94A2020C94A2020C94A2020C94A20250
:1000A0000C94A2020C94A2020C94A2020C94A20240
:1000B0000C94A2020C94A2020C94A2020C94A20230
:1000C0000C94A2020C94A2020C94A2020C94A20220
:1000D0000C94A2020C94A2020C94A2020C94A20210
:1000E0000C94A2020C9461030C9453030C9490079B
:1000F0000C94840C0C9408060C9440040C94840713
:100100000C9475030C9487040C94FA050C94C50C9C
:100110000C9459030C944F030C94590C0C942E0519
:100120000C94BF230C9449030C94B4040C943E0328
:100130000C948D060C94D2040C942C0F0C94C804CF
:100140000C94A0040C948A070C9473040C949607E6
:100150000C947D040C944F040C94E20F0C94400614
:100160000C94AA050C94E10D0C9439040C945D0CCC
:100170000C945D030C9442030C9463040C943A17A2
:100180000C946B030C9434030C94D7050C94AA04C0
:100190000C9474030C94AA0C0C943A030C94590418
:1001A0000C946B040C94BE040C9467030C947903B8
:1001B0000C94E6050C946F030C9491040C94460384
:1001C0000C943A140C9445044E414E494E495459EE
:1001D000494E46CDCCCC3D0AD7233C17B7D1387712
:1001E000CC2B329595E6241FB14F0A000020410028
:1001F00000C84200401C4620BCBE4CCA1B0E5AAE72
:10020000C59D74494E5055542C302C434F4E464991
:10021000475552455F50414E454C5F5354415455EC
:10022000532C53595354454D2C535041445F564918
:10023000525455414C5F504F5745522C55495F54CD
:100240005950453D332C435553544F4D5F545950ED
:10025000453D504F57455200464F524547524F5526
:100260004E443D2346464646464600524F573D3192
:1002700000535041445F444953504C415900444954
:1002800053504C4159004F555450555400524F55FE
:100290005445544F3D4844475F454E430048494408
:1002A00044454E3D310055495F5354594C453D300E
:1002B0000055495F545950453D3200494E50555400
:1002C0000048494444454E3D3100535041445F4C41
:1002D0004544004C4544004F555450555400454E3C
:1002E000434F44455200494E505554004E4F5F44D1
:1002F0004953504C41595F434C4541523D310056A2
:1003000050535550504F52543D3100504147455382
:100310005550504F52543D3000495347454E455279
:1003200049433D31004F5054494F4E0043465420FD
:10033000373337204D4350005350414400000021D3
:1003400000240027002A002D0030003300010100A6
:1003500000040107010A0100002200250028002BEB
:10036000002E003100340002010000050108010BDD
:1003700001000020002300260029002C002F00325D
:10038000000001000003010601090105050505073C
:100390000508080808020202020A0A080804040400
:1003A000040101010101010101030303030303032C
:1003B00003040707070C0C0C0C0C0C0C0C020202BB
:1003C0000206060606060606060B0B0B0B0B0B0BAE
:1003D0000B0102102020080810204010204080024D
:1003E000010201080402010102040810204080807B
:1003F00040201008040201800402018040201008FF
:1004000004020108040201010204081020408001D6
:10041000020408102040807E306D79335B5F707F6E
:100420007B771F0D3D4F47000000000000000000DB
:1004300000000000000000000000000000000000BC
:10044000000000800180007E306D79335B5F707F3B
:100450007B00000000000000771F0D3D4F47003774
:100460000000000E00000067000000000000000017
:100470000000000000000800771F0D3D4F470037C7
:100480000000000E00151D670000000000000000C5
:100490000000000000000000000A0B02090C0D0E15
:1004A0000807030401000000000000000000000035
:1004B000000000000000000000000000000000003C
:1004C00000000012111000000000000000000000F9
:1004D00000000000000000000000000000003A17CB
:1004E000BF2311241FBECFEFD1E2DEBFCDBF00E09E
:1004F0000CBF2EE0A6EEB5E001C01D92AD3EB207E6
:10050000E1F715E0A0E0B2E0ECE0F5E500E00BBFBC
:1005100002C007900D92A63EB107D9F712E0C0E7DE
:10052000D2E000E006C021970109802FFE010E9461
:100530003928CF36D10780E00807A9F70E94D01DDF
:100540000C94742A0C940000AC011092300C909121
:10055000800E80917F0EFA01BF01641B750B209104
:10056000300C30813093300C931304C0921302C0CE
:100570001092300C3081311104C0921721F0CB0160
:1005800008953817D1F33196E7CF0F931F93CF9388
:10059000DF938091740E882309F446C0D0E0C0E058
:1005A000813029F482E08093740EC4E3DCE0809112
:1005B000750E882341F1209721F4C091790ED091D6
:1005C0007A0E8E01CE010E94A402892B29F4219675
:1005D000F80180818111F5CFF8018081882309F12C
:1005E000C8010E94A402F801E80FF91F8081882346
:1005F00011F010823196F0937A0EE093790E1093F9
:10060000780E0093770E8091770E9091780E892B5B
:1006100059F081E08093750EDF91CF911F910F917A
:10062000089510E000E0EBCF80E0F6CF81508231FA
:1006300008F05AC0E82FF0E08827EE5DFC4F8F4F9E
:100640000C9439284203460334033A033E037403EF
:1006500049034F03530359035D03610367036B03AE
:1006600074036F0375037903809180008F77809303
:1006700080000895809180008F7DF9CF8091800067
:10068000877FF5CF84B58F7784BD089584B58F7D3E
:10069000FBCF8091B0008F778093B0000895809158
:1006A000B0008F7DF9CF809190008F77809390007C
:1006B0000895809190008F7DF9CF80919000877F81
:1006C000F5CF8091A0008F778093A000089580914E
:1006D000A0008F7DF9CF8091A000877FF5CF80911A
:1006E00020018F77809320010895809120018F7DD4
:1006F000F9CF80912001877FF5CFCF93DF93282F0B
:1007000030E0F901E956FB4F8491F901EF52FC4FBB
:10071000D491F901E557FC4FC491CC23A1F081118C
:100720000E941603EC2FF0E0EE0FFF1FEF58FC4F76
:10073000A591B491EC91ED2381E090E009F480E083
:10074000DF91CF91089580E090E0FACF1F93CF938F
:10075000DF93282F30E0F901E956FB4F8491F9012E
:10076000EF52FC4FD491F901E557FC4FC491CC23D3
:10077000A9F0162F81110E941603EC2FF0E0EE0F66
:10078000FF1FE95AFC4FA591B4918FB7F894EC91F3
:10079000111108C0D095DE23DC938FBFDF91CF917C
:1007A0001F910895DE2BF8CFCF93DF9390E0FC01EB
:1007B000EF52FC4F249185579C4FFC018491882374
:1007C000D1F090E0880F991FFC01E35CFC4FA591EC
:1007D000B491FC01E95AFC4FC591D491623071F497
:1007E0009FB7F8943C91822F809583238C93E88166
:1007F0002E2B28839FBFDF91CF9108958FB7F89458
:10080000EC912E2B2C938FBFF6CFCF93DF93EC017F
:1008100061E082E00E94D403209731F460E082E03E
:10082000DF91CF910C94A603CF3FD10511F461E085
:10083000F6CFE9E9F4E0E491E150E23108F0B2C02A
:10084000F0E08827E95DFB4F8F4F0C94392839047D
:10085000400445044F045904D20463046B04730438
:100860007D0487049104A004AA04D204B404BE0445
:10087000C80484B5806884BDC7BDDF91CF91089559
:1008800084B5806284BDC8BDF8CF80918000806847
:1008900080938000D0938900C0938800EECF809130
:1008A0008000806280938000D0938B00C0938A0088
:1008B000E4CF80918000886080938000D0938D0089
:1008C000C0938C00DACF8091B00080688093B00034
:1008D000C093B300D2CF8091B00080628093B0000B
:1008E000C093B400CACF809190008068809390003C
:1008F000D0939900C0939800C0CF809190008062FF
:1009000080939000D0939B00C0939A00B6CF8091C3
:100910009000886080939000D0939D00C0939C00CD
:10092000ACCF8091A00080688093A0008091A0004F
:100930008F7B8093A000D093A900C093A8009DCF87
:100940008091A00080628093A000D093AB00C09300
:10095000AA0093CF8091A00088608093A000D093DC
:10096000AD00C093AC0089CF809120018068809356
:100970002001D0932901C09328017FCF80912001CD
:10098000806280932001D0932B01C0932A0175CF00
:1009900080912001886080932001D0932D01C09325
:1009A0002C016BCFC038D1050CF041CF37CF3FB70A
:1009B000F8948091FC059091FD05A091FE05B09101
:1009C000FF0526B5A89B05C02F3F19F00196A11D74
:1009D000B11D3FBFBA2FA92F982F8827BC01CD0189
:1009E000620F711D811D911D42E0660F771F881FE8
:1009F000991F4A95D1F708958F929F92AF92BF9217
:100A0000CF92DF92EF92FF924B015C010E94D704DC
:100A10006B017C010E94D7046C197D098E099F0926
:100A2000683E734081059105A8F321E0821A910880
:100A3000A108B10888EEC80E83E0D81EE11CF11CA5
:100A400081149104A104B10429F7FF90EF90DF9085
:100A5000CF90BF90AF909F908F9008950895DC0144
:100A6000ED91FC910190F081E02D1994EF92FF92AD
:100A70000F931F93CF93DF9320912B0C2223E9F048
:100A80008C0160917F0E80917C0E90917D0E0E9472
:100A90002F05E0907C0EF0907D0EE801FE01649140
:100AA000662359F0D701ED91FC910190F081E02D82
:100AB000C70119952196892B89F7DF91CF911F9155
:100AC0000F91FF90EF900895CF93DF9320912B0C1F
:100AD0002223D1F0EC0160917F0E80917C0E9091E9
:100AE0007D0E0E942F0580917C0E90917D0E4C8191
:100AF0005D8168817981DC01ED91FC910280F38157
:100B0000E02DDF91CF911994DF91CF910895CF938C
:100B1000DF9320912B0C2223D1F0EC0160917F0E0A
:100B200080917C0E90917D0E0E942F0580917C0E0D
:100B300090917D0E4C815D8168817981DC01ED9120
:100B4000FC910280F381E02DDF91CF911994DF9128
:100B5000CF910895AF92BF92CF92DF92EF92FF9222
:100B60000F931F93CF93DF936C017B018B01040FD5
:100B7000151FEB015E01AE18BF08C017D10759F071
:100B80006991D601ED91FC910190F081E02DC601B3
:100B90001995892B79F7C501DF91CF911F910F919D
:100BA000FF90EF90DF90CF90BF90AF900895FC0141
:100BB000538D448D252F30E0842F90E0821B930BC2
:100BC000541710F0CF96089501970895FC01918D68
:100BD000828D981761F0A28DAE0FBF2FB11D5D966B
:100BE0008C91928D9F5F9F73928F90E008958FEF0D
:100BF0009FEF0895FC01918D828D981731F0828DC1
:100C0000E80FF11D858D90E008958FEF9FEF089517
:100C1000FC01918D228D892F90E0805C9F4F821B7B
:100C200091098F73992708958EE89BE00E9408062A
:100C300021E0892B09F420E0822F0895FC01A48D86
:100C4000A80FB92FB11DA35ABF4F2C91848D90E0EE
:100C500001968F739927848FA689B7892C93A089D1
:100C6000B1898C91837080648C93938D848D98135B
:100C700006C00288F389E02D80818F7D80830895EE
:100C8000EF92FF920F931F93CF93DF93EC0181E0DC
:100C9000888F9B8D8C8D98131AC0E889F989808183
:100CA00085FF15C09FB7F894EE89FF896083E889B6
:100CB000F98980818370806480839FBF81E090E0A8
:100CC000DF91CF911F910F91FF90EF900895F62E35
:100CD0000B8D10E00F5F1F4F0F731127E02E8C8DCF
:100CE0008E110CC00FB607FCFACFE889F989808114
:100CF00085FFF5CFCE010E941E06F1CFEB8DEC0FE4
:100D0000FD2FF11DE35AFF4FF0829FB7F8940B8F30
:100D1000EA89FB8980818062CFCFCF93DF93EC019A
:100D2000888D8823B9F0AA89BB89E889F9898C91D3
:100D300085FD03C0808186FD0DC00FB607FCF7CF8F
:100D40008C9185FFF2CF808185FFEDCFCE010E948F
:100D50001E06E9CFDF91CF91089580E090E0892BC6
:100D600029F00E94140681110E94000080E090E0AA
:100D7000892B49F080E090E0892B29F00E94000047
:100D800081110E94000080E090E0892B49F080E012
:100D900090E0892B29F00E94000081110E94000040
:100DA00080E090E0892B49F080E090E0892B29F0E9
:100DB0000E94000081110C9400000895CF93DF93EE
:100DC000C8EDDAE060E088810E94A6032A968BE0F5
:100DD000C238D807B9F7DF91CF910895833171F107
:100DE00020F48231E9F180E008958431A9F0853161
:100DF000D1F77093EB056093EA0586E997E090934D
:100E0000050280930402809169008C7F8160809349
:100E10006900E89A81E008957093ED056093EC0510
:100E200080E997E090930702809306028091690021
:100E3000837F846080936900E99AECCF7093EF051B
:100E40006093EE058AE897E0909309028093080288
:100E5000809169008F7C806180936900EA9ADACF83
:100E60007093F1056093F00584E897E090930B028E
:100E700080930A02809169008F7380648093690077
:100E8000EB9AC8CFDC01ED91FD918081ED91FD9150
:100E90009081ED91FD916C9163708E2309F06460F7
:100EA0009F2309F06860EFE5F7E0E60FF11D659517
:100EB00065956D936D917D918D919D91099423C060
:100EC0001AC012C016C010C01EC009C014C013C082
:100ED00006C019C009C00DC007C00DC014C06250C3
:100EE0007040804090400BC0615070408040904006
:100EF00006C06E5F01C06F5F7F4F8F4F9F4F9E9305
:100F00008E937E936E9308958091F0059091F105F4
:100F10000C9442078091EE059091EF050C944207E6
:100F20008091EC059091ED050C9442078091EA05C3
:100F30009091EB050C9442078091E8059091E905AA
:100F40000C9442078091E6059091E7050C944207C6
:100F50000F931F93CF93DF93EC01062F142F62E0C2
:100F6000802F0E94D40362E0812F0E94D403802F3F
:100F700090E0FC01E557FC4FE491F0E0EE0FFF1F1D
:100F8000EF58FC4FA591B491B983A883FC01EF52AF
:100F9000FC4F24912C83812F90E0FC01E557FC4FFE
:100FA000E491F0E0EE0FFF1FEF58FC4F4591549194
:100FB0005B834A83FC01EF52FC4FE491ED831F8277
:100FC000188619861A868BE39FE10197F1F78C91B9
:100FD000282391E009F490E0DA018C91E82309F0EC
:100FE00092609E83BE01802F0E94EE068B87BE0119
:100FF000812F0E94EE069B85890F8B87DF91CF9111
:101000001F910F9108954F925F926F927F928F92EE
:101010009F92AF92BF92CF92DF92EF92FF920F9387
:101020001F93CF93DF931F921F92CDB7DEB78C0132
:1010300049832A83660F771FF801EA5AFF4FE08041
:10104000F180EE0CFF1CF801CF01801B910B8E1577
:101050009F0514F41192F8CF8981F801E60FF71F6C
:1010600081838A818083680184E5C80ED11C60E099
:10107000F60180810E94A6035801F2E5AF0EB11C73
:10108000480180E5880E911C1E141F040CF5E1E058
:10109000EE1AF108F801EE0DFF1D6080F501508099
:1010A000F401408088E0782E662D661F6627661F53
:1010B000842D0E94A603660C61E0852D0E94A60384
:1010C00060E0852D0E94A6037A947110EDCFDCCFED
:1010D00061E0F60180810F900F90DF91CF911F9119
:1010E0000F91FF90EF90DF90CF90BF90AF909F90C7
:1010F0008F907F906F905F904F900C94A603FC01AF
:10110000EA5AFF4F20813181121613064CF46031E8
:10111000710530F4262F4AE070E060E00C9403087B
:101120000895E42FDC01AA5ABF4F4D915C9114162B
:101130001506A4F40E2E000CFF0BE95EFB4FE491A4
:101140002111E068DC01A60FB71F5096EC9341E037
:10115000460F2E2F70E060E00C9403080895FC0108
:10116000EA5AFF4F0190F081E02D1E161F06ACF4E5
:10117000403198F4E42FF0E0E95EFB4FE491211157
:10118000E068DC01A60FB71F5096EC9341E0460FD4
:101190002E2F70E060E00C9403080895CF92DF9248
:1011A000EF92FF92CF93DF936B017C01DC01CB01C7
:1011B000825F984DAF4FBF4F8E3A9D4AA140B10517
:1011C00070F120E040E264E070E088E596E00E9483
:1011D000910820E040E263E070E088E596E00E943C
:1011E000910820E040E262E070E088E596E00E942D
:1011F000910820E040E261E070E088E596E00E941E
:10120000910820E040E270E060E088E596E0DF9140
:10121000CF91FF90EF90DF90CF900C949108C0E0B9
:10122000F7FE09C0F094E094D094C094C11CD11C86
:10123000E11CF11CC1E0C701B6012AE030E040E04A
:1012400050E00E941A28D62F20E04DE2C11167C05D
:1012500080E1C81687E2D806E104F1040CF45DC011
:10126000C701B60120E137E240E050E00E941A28B1
:10127000422F20E064E070E088E596E00E94AF082D
:10128000C701B60128EE33E040E050E00E941A2882
:10129000C9016AE070E00E94E42720E0482F63E083
:1012A00070E088E596E00E94AF08C701B60124E629
:1012B00030E040E050E00E941A28C9016AE070E086
:1012C0000E94E42720E0482F62E070E088E596E085
:1012D0000E94AF08C701B6012AE030E040E050E0CC
:1012E0000E941A28C9016AE070E00E94E42720E009
:1012F000482F61E070E088E596E00E94AF0820E0AA
:101300004D2F70E060E088E596E0DF91CF91FF908F
:10131000EF90DF90CF900C94AF0820E040E264E0C3
:1013200070E088E596E00E94910828EEC21623E05E
:10133000D206E104F1040CF0A3CF20E040E263E028
:1013400070E088E596E00E94910884E6C816D10412
:10135000E104F1040CF0A9CF20E040E262E070E08B
:1013600088E596E00E9491082AE0C216D104E104C3
:10137000F1040CF0AFCF20E040E261E070E088E5DE
:1013800096E00E949108BBCF1F93CF93DF93EC01AF
:10139000825F984D8E319E4458F120E040E267E034
:1013A00070E080E096E00E94910820E040E266E074
:1013B00070E080E096E00E94910820E040E265E065
:1013C00070E080E096E00E94910820E040E264E056
:1013D00070E080E096E00E94910820E040E263E047
:1013E00070E080E096E0DF91CF911F910C9491081E
:1013F00020E0D7FF04C0D195C195D10921E0CE01ED
:101400006AE070E00E94E427182F222309F449C003
:1014100020E04DE267E070E080E096E00E949108F5
:10142000C83E83E0D8070CF43FC0CE0168EE73E0FD
:101430000E94E427462F20E066E070E080E096E01E
:101440000E94AF08CE0164E670E00E94E427CB0161
:101450006AE070E00E94E42720E0482F65E070E039
:1014600080E096E00E94AF082AE030E0CE01B901AA
:101470000E94E427CB01B9010E94E42720E0482F15
:1014800064E070E080E096E00E94AF0820E0412F29
:1014900063E070E080E096E0DF91CF911F910C94C3
:1014A000AF0820E040E2B6CF20E040E266E070E026
:1014B00080E096E00E949108C436D1051CF620E039
:1014C00040E265E070E080E096E00E949108CA305A
:1014D000D10554F620E040E264E070E080E096E060
:1014E0000E949108D3CFCF93DF939C018E599F4FD9
:1014F0008A349440D0F020E040E267E070E088E574
:1015000096E00E94910820E040E266E070E088E505
:1015100096E00E94910820E040E265E070E088E5F6
:1015200096E0DF91CF910C94910840E037FF04C022
:1015300031952195310941E0EAE0F0E0C901BF01B0
:101540000E94E427C82FCB01BF010E94E427D82FB7
:101550004423D1F020E04DE267E070E088E596E0BA
:101560000E94910820E04D2F66E070E088E596E04B
:101570000E94AF0820E04C2F65E070E088E596E01F
:10158000DF91CF910C94AF08C90164E670E00E942E
:10159000E427462F20E067E070E088E596E00E94AF
:1015A000AF08E0CFCF93DF939C018E599F4F8A34D1
:1015B0009440D0F020E040E262E070E080E096E00D
:1015C0000E94910820E040E261E070E080E096E057
:1015D0000E94910820E040E270E060E080E096E048
:1015E000DF91CF910C94910840E037FF04C0319512
:1015F0002195310941E0EAE0F0E0C901BF010E9414
:10160000E427C82FCB01BF010E94E427D82F442331
:10161000D1F020E04DE262E070E080E096E00E94D0
:10162000910820E04D2F61E070E080E096E00E949C
:10163000AF0820E04C2F70E060E080E096E0DF91A2
:10164000CF910C94AF08C90164E670E00E94E427D2
:10165000462F20E062E070E080E096E00E94AF0854
:10166000E0CFCF93DF939C018E599F4F8A349440F3
:10167000D0F020E040E267E070E080EB96E00E946E
:10168000910820E040E266E070E080EB96E00E9486
:10169000910820E040E265E070E080EB96E0DF91A9
:1016A000CF910C94910840E037FF04C0319521950B
:1016B000310941E0EAE0F0E0C901BF010E94E427FE
:1016C000C82FCB01BF010E94E427D82F4423D1F0BB
:1016D00020E04DE267E070E080EB96E00E94910828
:1016E00020E04D2F66E070E080EB96E00E94AF08AE
:1016F00020E04C2F65E070E080EB96E0DF91CF9129
:101700000C94AF08C90164E670E00E94E427462FFC
:1017100020E067E070E080EB96E00E94AF08E0CF49
:10172000DF92EF92FF920F931F93CF93DF93FC0111
:10173000EA5AFF4F2081318162177307C4F47B019D
:101740008C01EB0183E0CC0FDD1F8A95E1F76096F9
:10175000C00FD11FDD24D394199220E04D2DB70185
:10176000C8010E940308D39489E0D812F5CFDF9115
:10177000CF911F910F91FF90EF90DF9008958F927E
:101780009F92AF92BF92CF92DF92EF92FF920F9310
:101790001F93CF93DF938C01D62EC72EEC01C05B35
:1017A000DF4F688379834C0182E5880E911CF40138
:1017B000518340835801F4E5AF0EB11CF50131832C
:1017C00020837801F6E5EF0EF11C81E090E0F7014F
:1017D0009183808361E08D2D0E94D40361E0F40148
:1017E00080810E94D40361E0F50180810E94D403CE
:1017F00061E0F50180810E94A603D882C982F801C8
:1018000070961192EC17FD07E1F7D0E0C0E0F70108
:1018100080819181C817D90754F520E04FE0BE01BF
:10182000C8010E940308F70180819181C817D90778
:1018300034F427E04BE0BE01C8010E94030820E019
:1018400049E0BE01C8010E940308BE01C8010E9410
:10185000900BF70180819181C817D90734F420E0FB
:101860004CE0BE01C8010E9403082196D0CFDF9151
:10187000CF911F910F91FF90EF90DF90CF90BF908D
:10188000AF909F908F9008950E94C502882359F0D1
:1018900081E08093750E8093760E8091770E909103
:1018A000780E0C9482251092760E60E070E0CB01E9
:1018B00008950E94440C0C94440CCF92DF92EF9256
:1018C000FF920E94440C6B010E94440C672B682B12
:1018D000692B81F08AE08C9DF0018D9DF00D112423
:1018E000E852F54F61E08081FF90EF90DF90CF905C
:1018F0000C94A6038AE08C9DF0018D9DF00D1124BF
:10190000E852F54F60E0EFCFCF92DF92EF92FF9277
:101910000E94440C6B017C0180E1C816D104E104F3
:10192000F10498F4B60180EB96E00E947F08B601BE
:1019300088E596E00E947F08B60180E096E00E946C
:101940007F08D0921102C0921002FF90EF90DF90BA
:10195000CF900895CF92DF92EF92FF920E94440CB5
:101960006B017C018FEFC816D104E104F10409F08A
:1019700038F4C6010E940504D0921302C0921202EC
:10198000FF90EF90DF90CF9008950E94440C672B5A
:10199000682B692BC1F470E060E080EB96E00E9458
:1019A000900B70E060E088E596E00E94900B70E09C
:1019B00060E080E096E00E94900B0E94DE0690E0DE
:1019C00080E00C9405048091120290911302F9CFEB
:1019D000FB0101900020E9F73197AF01461B570B3F
:1019E000DC01ED91FC910280F381E02D199480914E
:1019F0002B0C8823A1F060917E0E80917C0E90913B
:101A00007D0E0E942F058091330C882341F06CE2FB
:101A100072E080917C0E90917D0E0E94E80C1092F5
:101A2000320C10922B0C80E008958F929F92AF920F
:101A3000BF92EF92FF920F931F93CF93DF93CDB797
:101A4000DEB7A1970FB6F894DEBF0FBECDBF7C0105
:101A5000FA01CB0119A2223008F42AE08E010F5DB1
:101A60001F4F822E912CB12CA12CBF01A5019401F6
:101A70000E94F827F901CA016A300CF5605DD801AF
:101A80006E938D01232B242B252B79F790E080E09A
:101A9000109721F0BD01C7010E94E80CA1960FB676
:101AA000F894DEBF0FBECDBFDF91CF911F910F9194
:101AB000FF90EF90BF90AF909F908F900895695CDA
:101AC000DECF90912B0C911110C091E090932B0CD4
:101AD0009093320C482F50E070E060E02AE0809153
:101AE0007C0E90917D0E0C94150D0895CF92DF928F
:101AF000EF92FF92CF93DF9320912B0C222359F189
:101B00006C0160917F0E80917C0E90917D0E0E9401
:101B10002F05C0917C0ED0917D0E0D2C000CEE088F
:101B2000FF082AE0B701A601F7FE0CC06DE2CE0166
:101B30000E942F0544275527BA014C195D096E09EB
:101B40007F092AE0CE01DF91CF91FF90EF90DF90E7
:101B5000CF900C94150DDF91CF91FF90EF90DF9017
:101B6000CF900895CF93DF9320912B0C222391F0F7
:101B7000EC0160917F0E80917C0E90917D0E0E9411
:101B80002F05BE0180917C0E90917D0EDF91CF914B
:101B90000C94E80CDF91CF910895CF93DF9390914F
:101BA0002B0C91110AC0EB010E94610DCE010E9425
:101BB000B20DDF91CF910C94F70C80E0DF91CF91C3
:101BC00008956FE272E083E00C94CD0D0F931F93A4
:101BD000CF93DF93EC0188819981009759F02A8196
:101BE0003B812617370730F081E0DF91CF911F91BD
:101BF0000F9108958B016F5F7F4F0E947A290097A4
:101C000059F0998388831B830A832C813D81232B80
:101C100059F7FC011082E8CF80E0E7CFEF92FF9206
:101C20000F931F93CF93DF936115710541F480E00B
:101C3000DF91CF911F910F91FF90EF900895411583
:101C40005105B1F07B01EC010C811D81040F151FC2
:101C5000B8010E94E60D882351F3288139818C81D7
:101C60009D81B701820F931F0E946D2A1D830C83F3
:101C700081E0DECFCF93DF93EC01888199810097DB
:101C800011F00E94F128198218821D821C821B8289
:101C90001A82DF91CF910895CF93DF93EC01FB017E
:101CA00001900020E9F73197AF01461B570B0E94C6
:101CB0000E0E811103C0CE010E943A0ECE01DF91BB
:101CC000CF910895CF93DF93EC01FB0144815581BF
:101CD000608171810E940E0E811103C0CE010E94AD
:101CE0003A0ECE01DF91CF910895EF92FF920F93BC
:101CF0001F93CF93DF93EC017B018A01BA010E940D
:101D0000E60D81110BC0CE010E943A0ECE01DF918B
:101D1000CF911F910F91FF90EF9008951D830C8339
:101D2000B701888199810E946D2AF0CFEF92FF92CE
:101D30000F931F93CF93DF93CDB7DEB762970FB6A4
:101D4000F894DEBF0FBECDBF8C01CB01F80111822C
:101D5000108213821282158214824AE09E012F5F44
:101D60003F4F7901B9010E94CA25F7010190002077
:101D7000E9F73197AF014E195F09B701C8010E9419
:101D8000750E62960FB6F894DEBF0FBECDBFDF9121
:101D9000CF911F910F91FF90EF900895FB01DC010F
:101DA00011961C921E9213961C921E9212971596D3
:101DB0001C921E9214978617970749F060817181D3
:101DC0006115710521F0448155810C94750E0895BB
:101DD000FC01118210821382128215821482FB018F
:101DE00001900020E9F73197AF01461B570B0C9487
:101DF000750EFC0180819181009711F00C94F128FF
:101E000008950F931F93CF93DF9300D000D0CDB7E9
:101E1000DEB790912B0C91111DC08B010E94610DBA
:101E2000B801CE0101960E94CE0ECE0101960E940D
:101E30006405CE0101960E94F90E0E94F70C2696C9
:101E40000FB6F894DEBF0FBECDBFDF91CF911F91CB
:101E50000F91089580E0F3CF0F931F93CF93DF93FB
:101E600000D000D0CDB7DEB70E94C502882309F4A8
:101E700042C081E08093750E8093760E0091770EBC
:101E80001091780E6FE372E0C8010E94642A892BDA
:101E9000B9F581E08093F205609110027091110212
:101EA000CE0101960E94960EBE016F5F7F4F8BE0C0
:101EB0000E94010FCE0101960E94F90E609112025C
:101EC00070911302CE0101960E94960EBE016F5FC3
:101ED0007F4F8CE00E94010FCE0101960E94F90E07
:101EE00026960FB6F894DEBF0FBECDBFDF91CF911F
:101EF0001F910F9108951092760E10E000E0C2CF6E
:101F000065E472E0C8010E94642A892B39F06AE412
:101F100072E0C8010E94642A892BF9F41092F2053C
:101F200070E060E080EB96E00E94900B70E060E073
:101F300088E596E00E94900B70E060E080E096E01B
:101F40000E94900B0E94DE0660E082E00E94A603E1
:101F50001092130210921202C3CF65E572E0C8011D
:101F60000E94642A892B09F0BBCFD8CF0F931F930F
:101F7000CF93DF9300D000D0CDB7DEB720912B0CEC
:101F800021111EC08C0188E00E94610DB801CE01B4
:101F900001960E94CE0ECE0101960E948705CE01C9
:101FA00001960E94F90E0E94F70C26960FB6F8943F
:101FB000DEBF0FBECDBFDF91CF911F910F9108956E
:101FC00080E0F3CFCF92DF92EF92FF920F931F93B7
:101FD000CF93DF93CDB7DEB762970FB6F894DEBF2D
:101FE0000FBECDBF0E94C502882309F468C081E0FE
:101FF0008093750E8093760E0091770E1091780E77
:1020000069E572E0C8010E94642A892B09F05CC06E
:1020100080E00E94610D88E393E00E94360562E84B
:102020007BE0CE0101960E94CE0ECE0101960E9469
:102030006405CE0101960E94F90E8CE293E00E94A5
:10204000360582E090E00E94760D89E992E00E94D8
:10205000B20D6EE572E0CE0101960E94E80E68E8CE
:102060007BE0CE0101960E94620EBC01CE01079674
:102070000E94CE0ECE0107960E948705CE010796DC
:102080000E94F90ECE0101960E94F90E86E692E0BA
:102090000E94B20D8FE692E00E94B20D0E94F70CF2
:1020A00062960FB6F894DEBF0FBECDBFDF91CF9121
:1020B0001F910F91FF90EF90DF90CF9008951092B5
:1020C000760E10E000E09CCF6DE772E0C8010E9440
:1020D000642A892B09F07FC080E00E94610D87E8A7
:1020E00092E00E94B20D81E090E00E94760D0E9485
:1020F000F70C00E118E050EDE52E57E0F52ED80181
:102100008C910E947D036C01F80186859785892B4F
:10211000C1F161E972E0828593850E94642A892B6E
:1021200081F5C114D10409F043C0B701CE01019675
:102130000E94960EBE016F5F7F4FCE0107960E94F0
:10214000CE0E68E972E0CE0107960E944C0EBC01EB
:10215000CE010D960E94CE0ECE010D960E94B60FB6
:10216000CE010D960E94F90ECE0107960E94F90E3F
:10217000CE0101960E94F90ED8011996DC92CE92FA
:102180001897045E1F4FBFEFEB1AFB0AE6EEEE1640
:10219000E7E0FE0609F0B3CF80E00E94610D87E81A
:1021A00092E00E94B20D82E090E00E94760D76CF20
:1021B000F1E0CF16D10401F7B701CE0101960E94DC
:1021C000960EBE016F5F7F4FCE0107960E94CE0E26
:1021D0006BE972E0B8CF6EE972E0C8010E94642A30
:1021E000892B89F580E00E94610D83EA92E00E94CC
:1021F000B20D0E94440C6B017C0180912B0C882352
:1022000009F44CCF60917F0E80917C0E90917D0EF1
:102210000E942F0500917C0E10917D0E2AE0B701DF
:10222000A601F7FE0CC06DE2C8010E942F054427ED
:102230005527BA014C195D096E097F092AE0C801CA
:102240000E94150D2BCF65E572E0C8010E94642A3B
:10225000892B39F065E472E0C8010E94642A892B59
:10226000D9F470E060E080EB96E00E94900B70E0A3
:1022700060E088E596E00E94900B70E060E080E00E
:1022800096E00E94900B60E082E00E94A60310920C
:1022900013021092120204CF68EA72E0C8010E9491
:1022A000642A8C01892B09F0FBCE80E00E94610D2D
:1022B00085E293E00E94360589E193E00E943605AD
:1022C0008BE093E00E9436058FEF92E00E94360586
:1022D0008CEE92E00E9436050E94F70C38E1C32E86
:1022E00037E0D32E48EBE42E4BE0F42E80E00E9442
:1022F000610D86EE92E00E943605C7010E94760DC0
:10230000B601CE0101960E94CE0ECE0101960E942A
:102310006405CE0101960E94F90E8EED92E00E94B6
:102320003605B601665F7F4FCE0101960E94CE0E44
:10233000CE0101960E946405CE0101960E94F90E1D
:102340000E94F70CFFEFEF1AFF0A80E2C80ED11CC3
:10235000AEEBEA16ABE0FA0649F62AEDE22E2AE0E9
:10236000F22E80E00E94610D87ED92E00E9436051A
:10237000C8010E94760DB701CE0101960E94CE0ED3
:10238000CE0101960E946405CE0101960E94F90ECD
:1023900083ED92E00E9436058AEC92E00E943605B9
:1023A00081EC92E00E9436050E94F70C0F5F1F4FF0
:1023B000BAE0EB0EF11C0131110599F600E118E0CD
:1023C00090EDE92E97E0F92E80E00E94610D8BEBF5
:1023D00092E00E943605C7010E94760DB8016E5F3B
:1023E0007F4FCE0101960E94CE0ECE0101960E9433
:1023F0006405CE0101960E94F90EB801665F7F4F19
:10240000CE0101960E94CE0ECE0101960E94640577
:10241000CE0101960E94F90EB801605F7F4FCE0198
:1024200001960E94CE0ECE0101960E946405CE0157
:1024300001960E94F90EF80180819181C69721F0E2
:1024400081EB92E00E943605D8018D919C91C69750
:1024500021F086EA92E00E943605F801828D938D84
:10246000892B21F10688F789E02D80818823F1F0FE
:102470006FEA72E0CE0101960E94E80EB8016A5E32
:102480007F4FCE0101960E94620EBC01CE010796DD
:102490000E94CE0ECE0107960E948705CE010796B8
:1024A0000E94F90ECE0101960E94F90ED8018D917D
:1024B0009C91C69741F48DE992E00E9436058DE823
:1024C00092E00E9436050E94F70CBFEFEB1AFB0A60
:1024D000045E1F4FE6EEEE16E7E0FE0609F074CF4D
:1024E00008E71AE088EEE82E83E0F82E80E00E94EC
:1024F000610D86E892E00E943605C7010E94760DC4
:10250000B801CE0101960E94CE0ECE0101960E9426
:102510006405CE0101960E94F90E8EE792E00E94BA
:10252000360581E792E00E943605D80116966D9136
:102530007C91CE0107960E94960E64EB72E0CE016C
:1025400001960E94E80EBE01695F7F4FCE010196A1
:102550000E94620EBC01CE010D960E94CE0ECE01ED
:102560000D960E948705CE010D960E94F90ECE01B0
:1025700001960E94F90ECE0107960E94F90E8BE695
:1025800092E00E943605F80160857185CE010796BC
:102590000E94960E6CEB72E0CE0101960E94E80E4E
:1025A000BE01695F7F4FCE0101960E94620EBC01A1
:1025B000CE010D960E94CE0ECE010D960E9487058B
:1025C000CE010D960E94F90ECE0101960E94F90EE1
:1025D000CE0107960E94F90ED8011A966D917C9152
:1025E000CE0107960E94960E63EC72E0CE01019632
:1025F0000E94E80EBE01695F7F4FCE0101960E94E6
:10260000620EBC01CE010D960E94CE0ECE010D963B
:102610000E948705CE010D960E94F90ECE0101960B
:102620000E94F90ECE0107960E94F90E88E592E00D
:102630000E9436050E94F70CBFEFEB1AFB0A005F01
:102640001F4FEEEEEE16E3E0FE0609F04FCF80914D
:102650002B0C811108C00E94610D83E092E00E9462
:1026600036050E94F70C6BEC72E081E00E94CD0D04
:1026700065E273E081E00E94CD0D66E873E081E0E1
:102680000E94CD0D68EA72E080E00E94CD0D08CD79
:102690008F929F92AF92BF92CF92DF92EF92FF9272
:1026A000CF93DF936B017C010E945D274B01EB010F
:1026B000CB018E599F4F8934944020F48FEF8816B8
:1026C000980611F520E040E262E070E080EB96E0D1
:1026D0000E94910820E040E261E070E080EB96E02B
:1026E0000E94910820E040E270E060E080EB96E01C
:1026F000DF91CF91FF90EF90DF90CF90BF90AF90A0
:102700009F908F900C94910820E030E0A901C701C0
:10271000B6010E94932718160CF060C020E030E04C
:1027200040E251E4C701B6010E940C2687FF56C063
:10273000C701B6010E949827A70196010E940C26A6
:10274000882309F44BC020E030E048EC52E4C70194
:10275000B6010E9472260E9498270E945D279B0165
:10276000EAE0F0E0CB01BF010E94E427C82FCB01D3
:10277000BF010E94E427D82FC90164E670E00E94DF
:10278000E42721E0161617060CF5462F62E070E0EC
:1027900080EB96E00E94AF0820E04D2F61E070E0F2
:1027A00080EB96E00E94AF0820E04C2F70E060E0E4
:1027B00080EB96E0DF91CF91FF90EF90DF90CF908C
:1027C000BF90AF909F908F900C94AF0840E262E072
:1027D00070E080EB96E00E949108DECF20E0D7FF0A
:1027E00005C0CC27DD27C819D90921E0CE016AE050
:1027F00070E00E94E427F82E2223A1F020E04DE2B1
:1028000062E070E080EB96E00E949108CA30D1054A
:10281000CCF420E040E261E070E080EB96E00E94C2
:10282000910822C0C436D10514F1CE0164E670E0EF
:102830000E94E427462F20E062E070E080EB96E003
:102840000E94AF082AE030E0CE01B9010E94E427DF
:10285000CB01B9010E94E42720E0482F61E070E03D
:1028600080EB96E00E94AF0820E04F2D9FCF20E044
:1028700040E2C6CF8F929F92AF92BF92CF92DF92EB
:10288000EF92FF920E94440C4B015C010E94440CA9
:102890000E94440C6B017C010E94C502882371F1E7
:1028A00081E08093750E8093760E70E060E08091F9
:1028B000770E9091780E0E9406242AEE821623E06D
:1028C0009206A104B10409F479C0F4F428EE82164A
:1028D00023E09206A104B104E1F129EE821623E07F
:1028E0009206A104B10409F44FC0FF90EF90DF906D
:1028F000CF90BF90AF909F908F9008951092760EDA
:1029000060E070E0CB01D9CF2CEE821623E0920676
:10291000A104B10409F489C00CF46BC02DEE821639
:1029200023E09206A104B10401F722E0C216D1040B
:10293000E104F10409F094C00E945D27CB01FF90EF
:10294000EF90DF90CF90BF90AF909F908F900C94BE
:10295000D20A22E0C216D104E104F10469F40E9413
:102960005D27CB01FF90EF90DF90CF90BF90AF90AD
:102970009F908F900C94310BCD28CE28CF2809F052
:10298000B4CF8FEF9FEFEECF22E0C216D104E10467
:10299000F10451F4FF90EF90DF90CF90BF90AF9093
:1029A0009F908F900C944813CD28CE28CF2809F003
:1029B0009CCF60E070E080E89FEBECCF22E0C21695
:1029C000D104E104F10469F40E945D27CB01FF907A
:1029D000EF90DF90CF90BF90AF909F908F900C942E
:1029E000730ACD28CE28CF2809F07FCF8FEF9FEF35
:1029F000EECF22E0C216D104E104F10461F40E949A
:102A00005D27FF90EF90DF90CF90BF90AF909F90A9
:102A10008F900C94CE08CD28CE28CF2809F065CF12
:102A200061EF78ED8FEF9FEFECCF22E0C216D1047B
:102A3000E104F10469F40E945D27CB01FF90EF905F
:102A4000DF90CF90BF90AF909F908F900C94C4096F
:102A5000CD28CE28CF2809F048CF81EF98EDEECFD2
:102A6000CD28CE28CF2809F040CF8FEF9FEF67CF3A
:102A70001F920F920FB60F9211242F933F938F93B3
:102A80009F93AF93BF938091F8059091F905A09122
:102A9000FA05B091FB053091F70523E0230F2D37A0
:102AA00058F50196A11DB11D2093F7058093F805F7
:102AB0009093F905A093FA05B093FB058091FC056E
:102AC0009091FD05A091FE05B091FF050196A11D15
:102AD000B11D8093FC059093FD05A093FE05B09376
:102AE000FF05BF91AF919F918F913F912F910F90D3
:102AF0000FBE0F901F90189526E8230F0296A11D78
:102B0000B11DD2CF1F920F920FB60F9211240BB6A8
:102B10000F922F933F934F935F936F937F938F9376
:102B20009F93AF93BF93EF93FF93E0910E02F091C9
:102B30000F021995FF91EF91BF91AF919F918F91E6
:102B40007F916F915F914F913F912F910F900BBEAD
:102B50000F900FBE0F901F9018951F920F920FB6F7
:102B60000F9211240BB60F922F933F934F935F93C5
:102B70006F937F938F939F93AF93BF93EF93FF9345
:102B8000E0910C02F0910D021995FF91EF91BF9128
:102B9000AF919F918F917F916F915F914F913F91F5
:102BA0002F910F900BBE0F900FBE0F901F90189596
:102BB0001F920F920FB60F9211240BB60F922F9304
:102BC0003F934F935F936F937F938F939F93AF93B5
:102BD000BF93EF93FF93E0910202F09103021995E6
:102BE000FF91EF91BF91AF919F918F917F916F91E5
:102BF0005F914F913F912F910F900BBE0F900FBEA1
:102C00000F901F9018951F920F920FB60F921124DC
:102C10000BB60F922F933F934F935F936F937F93D6
:102C20008F939F93AF93BF93EF93FF93E091000235
:102C3000F09101021995FF91EF91BF91AF919F9192
:102C40008F917F916F915F914F913F912F910F9055
:102C50000BBE0F900FBE0F901F9018951F920F92F2
:102C60000FB60F9211240BB60F922F933F934F93F1
:102C70005F936F937F938F939F93AF93BF93EF93E4
:102C8000FF93E0910A02F0910B021995FF91EF91E9
:102C9000BF91AF919F918F917F916F915F914F9174
:102CA0003F912F910F900BBE0F900FBE0F901F9072
:102CB00018951F920F920FB60F9211240BB60F9218
:102CC0002F933F934F935F936F937F938F939F9334
:102CD000AF93BF93EF93FF93E0910802F091090245
:102CE0001995FF91EF91BF91AF919F918F917F9136
:102CF0006F915F914F913F912F910F900BBE0F906D
:102D00000FBE0F901F9018951F920F920FB60F9243
:102D100011240BB60F922F933F934F935F936F93B2
:102D20007F938F939F93AF93BF93EF93FF93E09124
:102D30000602F09107021995FF91EF91BF91AF91B3
:102D40009F918F917F916F915F914F913F912F91C3
:102D50000F900BBE0F900FBE0F901F9018951F92F3
:102D60000F920FB60F9211240BB60F922F933F9331
:102D70004F935F936F937F938F939F93AF93BF9383
:102D8000EF93FF93E0910402F09105021995FF91F2
:102D9000EF91BF91AF919F918F917F916F915F91D3
:102DA0004F913F912F910F900BBE0F900FBE0F9040
:102DB0001F9018951F920F920FB60F9211240BB609
:102DC0000F922F933F934F935F936F937F938F93C4
:102DD0009F93AF93BF93EF93FF938EE89BE00E9486
:102DE0001E06FF91EF91BF91AF919F918F917F91BF
:102DF0006F915F914F913F912F910F900BBE0F906C
:102E00000FBE0F901F9018951F920F920FB60F9242
:102E100011240BB60F922F938F939F93EF93FF93F1
:102E2000E0919E0BF0919F0B8081E091A40BF091BB
:102E3000A50B82FD1DC090818091A70B8F5F8F73C2
:102E40002091A80B821741F0E091A70BF0E0E25728
:102E5000F44F958F8093A70BFF91EF919F918F91E6
:102E60002F910F900BBE0F900FBE0F901F901895D3
:102E70008081F2CF2F923F924F925F926F927F921A
:102E80008F929F92AF92BF92CF92DF92EF92FF927A
:102E90000F931F93CF93DF931092910B1092900B8F
:102EA00088EE93E0A0E0B0E08093920B9093930BB8
:102EB000A093940BB093950B8EE192E090938F0BBF
:102EC00080938E0B85EC90E090939B0B80939A0BF4
:102ED00084EC90E090939D0B80939C0B80EC90E0B1
:102EE00090939F0B80939E0B81EC90E09093A10BAD
:102EF0008093A00B82EC90E09093A30B8093A20BA5
:102F000086EC90E09093A50B8093A40B1092A70BF6
:102F10001092A80B1092A90B1092AA0B1092820E7D
:102F20001092810E8EE89BE090937D0E80937C0E34
:102F30001092330C8CE280937F0E8BE380937E0E95
:102F40008FE28093800E80E480932E0C8FE3809339
:102F50002F0C10922D0C1092780E1092770E10926A
:102F60007A0E1092790E81E08093750EE3E8FEE010
:102F700087EE9EE0119211928E179F07D9F710925B
:102F8000320C62ED73E088E89BE00E94E80E63EF8C
:102F900073E082E89BE00E94E80E86E290E0909366
:102FA000D90A8093D80A6AE174E08AED9AE00E9417
:102FB000E80ECFEFDFEFD093E10AC093E00A8CE296
:102FC00090E09093E30A8093E20A65E274E084EE75
:102FD0009AE00E94E80ED093EB0AC093EA0A8DE2D1
:102FE00090E09093ED0A8093EC0A6CE274E08EEE30
:102FF0009AE00E94E80ED093F50AC093F40A8DE39C
:1030000090E09093F70A8093F60A66E374E088EF05
:103010009AE00E94E80ED093FF0AC093FE0A08E2ED
:1030200010E01093010B0093000B6FE374E082E05B
:103030009BE00E94E80ED093090BC093080B89E235
:1030400090E090930B0B80930A0B6AE474E08CE0A1
:103050009BE00E94E80ED093130BC093120B88E301
:1030600090E09093150B8093140B62E574E086E179
:103070009BE00E94E80ED0931D0BC0931C0B89E3CC
:1030800090E090931F0B80931E0B6BE574E080E241
:103090009BE00E94E80ED093270BC093260B83E49D
:1030A00090E09093290B8093280B66E674E08AE207
:1030B0009BE00E94E80ED093310BC093300B85E16A
:1030C00090E09093330B8093320B6EE674E084E3D0
:1030D0009BE00E94E80ED0933B0BC0933A0B87E134
:1030E00090E090933D0B80933C0B69E774E08EE396
:1030F0009BE00E94E80ED093450BC093440B85E003
:10310000C82ED12CD092470BC092460B60E874E0D9
:1031100088E49BE00E94E80ED0934F0BC0934E0BC7
:1031200086E090E09093510B8093500B69E874E037
:1031300082E59BE00E94E80ED093590BC093580B98
:103140008AE090E090935B0B80935A0B62E974E005
:103150008CE59BE00E94E80ED093630BC093620B5A
:1031600088E090E09093650B8093640B6BE974E0CA
:1031700086E69BE00E94E80ED0936D0BC0936C0B2B
:1031800088E190E090936F0B80936E0B64EA74E09B
:1031900080E79BE00E94E80ED093770BC093760BFC
:1031A0008FE390E09093790B8093780B60EB74E061
:1031B0008AE79BE00E94E80ED093810BC093800BBE
:1031C00067EB74E088E79AE00E94E80E93E0E92E4E
:1031D000F12CF0927F0AE0927E0A22E4222E312C1A
:1031E0003092810A2092800A1093830A0093820A07
:1031F00088248A94982C54018092840A9092850A9B
:10320000A092860AB092870A64EC74E088E89AE09B
:103210000E94E80E84E090E090938F0A80938E0ADB
:1032200089E590E09093910A8093900A1093930A15
:103230000093920A8092940A9092950AA092960A1C
:10324000B092970A61ED74E088E99AE00E94E80E76
:10325000F0929F0AE0929E0A3092A10A2092A00A60
:103260001093A30A0093A20A8092A40A9092A50A3E
:10327000A092A60AB092A70A6AED74E088EA9AE0E2
:103280000E94E80ED092AF0AC092AE0A8EE690E09D
:103290009093B10A8093B00A1093B30A0093B20AD4
:1032A00040EF442E48ED542E66246A94762C4092CA
:1032B000B40A5092B50A6092B60A7092B70A63EEE9
:1032C00074E088EB9AE00E94E80ED092BF0AC092A8
:1032D000BE0A8EE690E09093C10A8093C00A1093D4
:1032E000C30A0093C20A4092C40A5092C50A60926F
:1032F000C60A7092C70A6BEE74E088EC9AE00E94EE
:10330000E80EF092CF0AE092CE0A3092D10A2092D3
:10331000D00A1093D30A0093D20A8092D40A9092D2
:10332000D50AA092D60AB092D70A82E390E0909391
:1033300011088093100869EF74E082E198E00E9420
:10334000E80ED0931908C093180861E972E08AE189
:1033500098E00E94E80E6EE272E080E298E00E943F
:10336000E80E6AE174E086E298E00E94E80E8EE3DF
:1033700090E090932D0880932C0860E075E08EE239
:1033800098E00E94E80ED0933508C093340861E9B4
:1033900072E086E398E00E94E80E6EE272E08CE351
:1033A00098E00E94E80E60EB74E082E498E00E94EE
:1033B000E80E81E390E0909349088093480863E029
:1033C00075E08AE498E00E94E80ED0935108C0931B
:1033D00050086BE075E082E598E00E94E80E66E038
:1033E00075E088E598E00E94E80E65E274E08EE5FD
:1033F00098E00E94E80E8AE290E09093650880933E
:10340000640866E175E086E698E00E94E80ED093D5
:103410006D08C0936C086BE075E08EE698E00E9442
:10342000E80E66E075E084E798E00E94E80E6CE242
:1034300074E08AE798E00E94E80E80E490E09093C0
:103440008108809380086CE175E082E898E00E9432
:10345000E80ED0938908C09388086BE075E08AE88D
:1034600098E00E94E80E66E075E080E998E00E942E
:10347000E80E6EE272E086E998E00E94E80E8BE3C7
:1034800090E090939D0880939C086FE175E08EE931
:1034900098E00E94E80ED093A508C093A4086BE0C2
:1034A00075E086EA98E00E94E80E66E075E08CEA36
:1034B00098E00E94E80E6EE272E082EB98E00E94D3
:1034C000E80E8CE390E09093B9088093B80867E227
:1034D00075E08AEB98E00E94E80ED093C108C09393
:1034E000C0086BE075E082EC98E00E94E80E66E0B0
:1034F00075E088EC98E00E94E80E66E374E08EECDC
:1035000098E00E94E80E8BE290E09093D5088093BB
:10351000D4086CE275E086ED98E00E94E80ED09346
:10352000DD08C093DC086BE075E08EED98E00E944A
:10353000E80E66E075E084EE98E00E94E80E6FE326
:1035400074E08AEE98E00E94E80E83E390E09093A6
:10355000F1088093F00863E375E082EF98E00E9441
:10356000E80ED093F908C093F8086BE075E08AEF95
:1035700098E00E94E80E66E075E080E099E00E9425
:10358000E80E6AE474E086E099E00E94E80E87E3C2
:1035900090E090930D0980930C0967E375E08EE04D
:1035A00099E00E94E80ED0931509C09314096BE0CE
:1035B00075E086E199E00E94E80E66E075E08CE136
:1035C00099E00E94E80E62E574E082E299E00E94D0
:1035D000E80E8AE390E090932909809328096CE330
:1035E00075E08AE299E00E94E80ED0933109C09319
:1035F00030096BE075E082E399E00E94E80E66E036
:1036000075E088E399E00E94E80E6BE574E08EE3D4
:1036100099E00E94E80E85E490E09093450980933C
:10362000440963E475E086E499E00E94E80ED093D3
:103630004D09C0934C096BE075E08EE499E00E945F
:10364000E80E66E075E084E599E00E94E80E66E623
:1036500074E08AE599E00E94E80E84E190E090939E
:1036600061098093600967E475E082E699E00E9451
:10367000E80ED0936909C09368096BE075E08AE6AB
:1036800099E00E94E80E66E075E080E799E00E940C
:10369000E80E6EE674E086E799E00E94E80E87E0A7
:1036A00090E090937D0980937C096EE475E08EE74D
:1036B00099E00E94E80ED0938509C09384096BE0DD
:1036C00075E086E899E00E94E80E66E075E08CE817
:1036D00099E00E94E80E6EE272E082E999E00E94B1
:1036E000E80E86E190E0909399098093980966E549
:1036F00075E08AE999E00E94E80ED093A109C09391
:10370000A0096BE075E082EA99E00E94E80E66E0AD
:1037100075E088EA99E00E94E80E69E774E08EEAB5
:1037200099E00E94E80EF092B509E092B40969E5CB
:1037300075E086EB99E00E94E80ED093BD09C09336
:10374000BC096BE075E08EEB99E00E94E80E66E044
:1037500075E084EC99E00E94E80E60E874E08AEC81
:1037600099E00E94E80E84E090E09093D109809364
:10377000D0096EE575E082ED99E00E94E80ED093E5
:10378000D909C093D8096BE075E08AED99E00E94F1
:10379000E80E66E075E080EE99E00E94E80E69E8C8
:1037A00074E086EE99E00E94E80E8BE090E0909342
:1037B000ED098093EC0963E675E08EEE99E00E94D6
:1037C000E80ED093F509C093F4096BE075E086EF3D
:1037D00099E00E94E80E66E075E08CEF99E00E94A7
:1037E000E80E62E974E082E09AE00E94E80E89E067
:1037F00090E09093090A8093080A68E675E08AE0F1
:103800009AE00E94E80ED093110AC093100A6BE070
:1038100075E082E19AE00E94E80E66E075E088E1DA
:103820009AE00E94E80E6BE974E08EE19AE00E9453
:10383000E80E89E190E09093250A8093240A6DE6D2
:1038400075E086E29AE00E94E80ED0932D0AC093BC
:103850002C0A61E972E08EE29AE00E94E80E6EE2C4
:1038600072E084E39AE00E94E80E6EE272E08AE37E
:103870009AE00E94E80E8BE190E09093410A8093D9
:10388000400A67E775E082E49AE00E94E80ED09370
:10389000490AC093480A61E972E08AE49AE00E940A
:1038A000E80E6EE272E080E59AE00E94E80E64EABB
:1038B00074E086E59AE00E94E80E86E390E090933B
:1038C0005D0A80935C0A6FE775E08EE59AE00E94DE
:1038D000E80ED093650AC093640A6BE075E086E653
:1038E0009AE00E94E80E66E075E08CE69AE00E949D
:1038F000E80E6EE272E082E79AE00E94E80E45E38D
:1039000064E384E098E00E94A80747E265E288EF5C
:1039100097E00E94A80741E260E28CEE97E00E94E7
:10392000A8074FE06EE080EE97E00E94A8074CE009
:103930006DE084ED97E00E94A8074DE16AE188EC14
:1039400097E00E94A8078CE0E4E0F8E0A8E0B7E088
:1039500001900D928A95E1F784E390E0909315072A
:103960008093140785E390E09093170780931607E0
:1039700064E875E088E197E00E94E80E59E1C52E01
:103980005CEFD52EEE24EA94FE2CC0921E07D09256
:103990001F07E0922007F092210760E975E082E2BC
:1039A00097E00E94E80E8CE0E8EFF7E0A8E2B7E0CD
:1039B00001900D928A95E1F785E290E090933507AA
:1039C0008093340787E290E090933707809336071F
:1039D0006DE975E088E397E00E94E80EC0923E072B
:1039E000D0923F07E0924007F092410760E975E00E
:1039F00082E497E00E94E80E8CE0ECEEF7E0A8E4A9
:103A0000B7E001900D928A95E1F780E290E0909303
:103A100055078093540781E290E090935707809375
:103A2000560769EA75E088E597E00E94E80EC092C3
:103A30005E07D0925F07E0926007F092610760E94D
:103A400075E082E697E00E94E80E8CE0E0EEF7E099
:103A5000A8E6B7E001900D928A95E1F78EE090E03C
:103A600090937507809374078FE090E090937707A9
:103A70008093760761EB75E088E797E00E94E80E97
:103A8000C0927E07D0927F07E0928007F092810774
:103A900060E975E082E897E00E94E80E8CE0E4EDD2
:103AA000F7E0A8E8B7E001900D928A95E1F78DE084
:103AB00090E090939507809394078CE090E090932A
:103AC00097078093960769EB75E088E997E00E9475
:103AD000E80EC0929E07D0929F07E092A007F09256
:103AE000A10760E975E082EA97E00E94E80E8CE0A9
:103AF000E8ECF7E0A8EAB7E001900D928A95E1F7CB
:103B00008AE190E09093B5078093B4078DE190E04F
:103B10009093B7078093B60760EC75E088EB97E069
:103B20000E94E80EC092BE07D092BF07E092C00785
:103B3000F092C10760E975E082EC97E00E94E80E20
:103B40002FE230E040E350E06EE270E080EB96E080
:103B50000E94BF0B24E230E043E250E062E270E0FA
:103B600088E596E00E94BF0B2EE130E04CE150E08A
:103B70006FE170E080E096E0DF91CF911F910F91AF
:103B8000FF90EF90DF90CF90BF90AF909F908F907D
:103B90007F906F905F904F903F902F900C94BF0B51
:103BA000CF93DF93CDB7DEB762970FB6F894DEBF41
:103BB0000FBECDBF789484B5826084BD84B581602A
:103BC00084BD85B5826085BD85B5816085BD8091E8
:103BD0006E00816080936E00109281008091810060
:103BE0008260809381008091810081608093810058
:103BF000809180008160809380008091B10084601A
:103C00008093B1008091B00081608093B00080917A
:103C100091008260809391008091910081608093F7
:103C20009100809190008160809390008091A1002C
:103C300082608093A1008091A10081608093A100A7
:103C40008091A00081608093A0008091210182601A
:103C500080932101809121018160809321018091D5
:103C6000200181608093200180917A00846080939C
:103C70007A0080917A00826080937A0080917A0045
:103C8000816080937A0080917A00806880937A00C6
:103C90001092C100E0919E0BF0919F0B82E0808317
:103CA000E0919A0BF0919B0B1082E0919C0BF091AC
:103CB0009D0B80E180831092A60BE091A20BF09106
:103CC000A30B86E08083E091A00BF091A10B808193
:103CD00080618083E091A00BF091A10B80818860CE
:103CE0008083E091A00BF091A10B8081806880839C
:103CF000E091A00BF091A10B80818F7D808378E70C
:103D0000E72E7AE0F72E00E118E062E0D8018C910E
:103D10000E94D403045E1F4FE016F106B1F762E87B
:103D2000E62E6BE0F62E08ED1AE061E0F8018081E6
:103D30000E94D40361E0D8018C910E94A60362E343
:103D400070E080E090E00E94FC0460E0F801808177
:103D50000E94A603065F1F4FE016F10631F761E0EF
:103D600082E00E94D4036091120282E00E94A603C6
:103D700080910607909107071816190644F421E070
:103D80004CE070E060E080EB96E00E9403088091D8
:103D9000AE069091AF061816190644F421E04CE0E7
:103DA00070E060E088E596E00E9403088091560686
:103DB000909157061816190644F421E04CE070E083
:103DC00060E080E096E00E940308E0901002F0902E
:103DD0001102B70180EB96E00E947F08B70188E5E9
:103DE00096E00E947F08B70180E096E00E947F087D
:103DF00088E793E00E94310B88E793E00E94D20AA3
:103E000060E070E08EE594E40E94481388E793E058
:103E10000E94730A88E49DED0E94C40968E37BE573
:103E200081E090E00E94CE0864EF71E080E090E0D5
:103E30000E94FC0470E060E080EB96E00E94900B32
:103E400070E060E088E596E00E94900B70E060E032
:103E500080E096E00E94900B6DEC75E083E00E949C
:103E6000CD0D82EE9FE09093840E8093830E8CE2C2
:103E70009FE09093880E8093870E81EE9DE0909353
:103E80008A0E8093890E89E59CE090938E0E809334
:103E90008D0E8DE59CE09093900E80938F0E8AE3BB
:103EA00094E19093920E8093910E84E89CE090931D
:103EB0009A0E8093990E8AEA9CE090939C0E8093D0
:103EC0009B0E85EC9CE090939E0E80939D0E222489
:103ED0002A94312C50E8452E512C38E0E32E37E05F
:103EE000F32ED12CC12CD7011B968C91823008F077
:103EF00065C0F894C7010E944207F7018781908549
:103F0000A185B285789422E0B595A7959795879578
:103F10002A95D1F746895789608D718D48175907C1
:103F20006A077B070CF050C3868B978BA08FB18FED
:103F30008091F205882349F1B6016854744FCE018F
:103F40000D960E94960EBE01635F7F4FCE010796CD
:103F50000E94CE0E68E972E0CE0107960E944C0ED8
:103F6000BC01CE0101960E94CE0ECE0101960E94A8
:103F7000B60FCE0101960E94F90ECE0107960E945F
:103F8000F90ECE010D960E94F90EF4E0CF16D10481
:103F900009F0DEC280E40E947D03892B09F0E8C3AA
:103FA000809112029091130240968F3F910509F083
:103FB0003CF4909313028093120206C0F8949DCFB4
:103FC0003092130220921202A0901202B0901302BB
:103FD000C5010E9405048091F205882309F4C8C335
:103FE000B501CE0101960E94960EBE016F5F7F4F14
:103FF0008CE00E94010FCE0101960E94F90E8FEF16
:10400000C81AD80A90E2E90EF11CA6E0CA16D1043B
:1040100009F069CF2FB7F8948091F8059091F905D0
:10402000A091FA05B091FB052FBF4091F305509187
:10403000F4056091F5057091F605841B950BA60BB0
:10404000B70B85369105A105B10508F4DEC1809155
:10405000F205882309F44EC060E1C62E68E0D62E32
:1040600070EDE72E77E0F72EF60180810E947D0348
:104070005C01D60118968D919C91A816B90671F134
:10408000A114B10409F004C3B701CE0101960E9446
:10409000960EBE016F5F7F4FCE0107960E94CE0E37
:1040A00068E972E0CE0107960E944C0EBC01CE0179
:1040B0000D960E94CE0ECE010D960E94B60FCE0137
:1040C0000D960E94F90ECE0107960E94F90ECE01C0
:1040D00001960E94F90EF601B186A086FCE1CF0E92
:1040E000D11C2FEFE21AF20A86EEE81687E0F806F6
:1040F00009F0BACF80E40E947D03892B09F0E3C068
:1041000084E00E947D03892B09F0DDC088E793E0FD
:104110000E94310B80910607909107071816190627
:104120005CF495E09093C20625E043E070E060E027
:1041300080EB96E00E94030820E040E361E070E03D
:1041400080EB96E00E94910820E044E370E060E09C
:1041500080EB96E00E94910820E046E467E070E082
:1041600088E596E00E9491088091AE069091AF0696
:10417000181619065CF48DE180936E062DE147E078
:1041800070E060E088E596E00E9403088091AE064A
:104190009091AF06181619065CF4A5E0A0936D0681
:1041A00025E046E070E060E088E596E00E940308C4
:1041B00020E045E364E070E088E596E00E94910825
:1041C00020E040E563E070E088E596E00E94910819
:1041D00020E041E462E070E088E596E00E9491080A
:1041E00020E044E461E070E088E596E00E949108F8
:1041F00020E040E270E060E088E596E00E949108EF
:1042000020E041E367E070E080E096E00E949108E2
:1042100020E04CE466E070E080E096E00E949108C7
:1042200020E042E365E070E080E096E00E949108C3
:1042300020E040E564E070E080E096E00E949108B4
:1042400020E040E263E070E080E096E00E949108A8
:1042500088E793E00E94D20A58EDE52E5AE0F52E49
:1042600061E0F70180810E94A60368E270E080E0CF
:1042700090E00E94FC04FAE0EF0EF11CE016F1065B
:1042800079F768EB7BE080E090E00E94FC0488E72F
:1042900093E00E94310B88E793E00E94D20A60E02D
:1042A00070E08EE594E40E94481388E793E00E9452
:1042B000730A88E49DED0E94C40968E37BE581E010
:1042C00090E00E94CE0880E40E947D03892B91F546
:1042D00089E00E947D03892B69F570E060E080EB46
:1042E00096E00E94900B70E060E088E596E00E9406
:1042F000900B70E060E080E096E00E94900B48ED4B
:10430000E42E4AE0F42E60E0D7018C910E94A603CF
:1043100068E270E080E090E00E94FC04BAE0EB0EFE
:10432000F11CE016F10679F764EF71E080E090E0AF
:104330000E94FC0480E40E947D03892B39F583E010
:104340000E947D03892B11F55092130240921202B4
:1043500080E890E00E9405048091F205882381F0B6
:1043600060E870E0CE0101960E94960EBE016F5F7C
:104370007F4F8CE00E94010FCE0101960E94F90E42
:1043800064EF71E080E090E00E94FC0480E40E9411
:104390007D03892B39F58BE00E947D03892B11F574
:1043A000109213021092120290E080E00E94050425
:1043B0008091F205882381F070E060E0CE010196E3
:1043C0000E94960EBE016F5F7F4F8CE00E94010F2E
:1043D000CE0101960E94F90E64EF71E080E090E05A
:1043E0000E94FC042FB7F8948091F8059091F9058C
:1043F000A091FA05B091FB052FBF8093F305909330
:10440000F405A093F505B093F6058091320C811167
:10441000A5C180917C0E90917D0EDC01ED91FC9107
:104420000084F185E02D1995892B09F497C18091BD
:104430007C0E90917D0EDC01ED91FC910084F18564
:10444000E02D1995A12C32E0B32E8115924064F431
:1044500080917C0E90917D0EDC01ED91FC910084A9
:10446000F185E02D19955C01E0907C0EF0907D0EB9
:1044700024E7822E2CE0922E3401D12CC12CAC14D6
:10448000BD0409F019C1F12CE12CAE14BF0409F4EC
:10449000BCCFD4019D914D011092740E3091800ECD
:1044A0002091310C9093310C931304C0921302C0ED
:1044B0001092310C80912D0CE82FF0E040917E0E8F
:1044C000E55DF34F941330C1321709F42DC1118605
:1044D000882329F0B1E0B093740E1092310C109241
:1044E0002D0C1092780E1092770E10927A0E109278
:1044F000790EE1E0E093750ED090740EF1E0DF12DA
:1045000029C10E94C502882309F418C1D092750EF2
:10451000D092760E8091770E9091780E0E9464254D
:1045200080932C0C823308F00EC12091760E22234A
:1045300009F409C1FC01FF27EE0FFF1FED57F14FF2
:104540000190F081E02D309709F4FDC0199502C16A
:1045500025E0C216D10409F052CD80E40E947D030B
:10456000892B09F057CD809110029091110201968C
:104570008031910534F59093110280931002A09040
:104580001002B0901102B50180EB96E00E947F0806
:10459000B50188E596E00E947F08B50180E096E0CD
:1045A0000E947F088091F205882309F433CDB5017C
:1045B000CE0101960E94960EBE016F5F7F4F8BE089
:1045C00018CD8FE090E0D7CF84179507A607B707DF
:1045D0000CF015CD868B978BA08FB18F8091F20553
:1045E000882349F1B6016854744FCE010D960E949C
:1045F000960EBE01635F7F4FCE0107960E94CE0EDE
:1046000062EE75E0CE0107960E944C0EBC01CE0111
:1046100001960E94CE0ECE0101960E94B60FCE01E9
:1046200001960E94F90ECE0107960E94F90ECE0166
:104630000D960E94F90EF4E0CF16D10491F480E4B7
:104640000E947D03892B09F093C080911202909102
:104650001302409797FFADCC1092130210921202F2
:10466000B3CC25E0C216D10409F0C9CC80E40E9485
:104670007D03892B09F0CECC80911002909111021C
:10468000019797FF78CF109211021092100277CF06
:10469000B1E0AB16B10409F01ECDB701CE01019611
:1046A0000E94960EBE016F5F7F4FCE0107960E945B
:1046B000CE0E6BE972E0F6CC2FB7F8948091F80536
:1046C0009091F905A091FA05B091FB052FBFF70174
:1046D00080879187A287B387D701ED91FC910284EF
:1046E000F385E02DC701199597FF3BC02FB7F894CC
:1046F0008091F8059091F905A091FA05B091FB051C
:104700002FBFF7014085518562857385841B950B0A
:10471000A60BB70B44815581668177818417950775
:10472000A607B707C8F2AFCE91878F5F80932D0C95
:1047300090912F0C891708F0D2CEDECE1092760E13
:1047400090E080E0EDCEE091810EF091820E309706
:1047500009F0FCCE2FEFE21AF20A97CE0E94AD06C6
:10476000BCCBD3018D933D01BFEFCB1ADB0A87CEC3
:1047700085E0C82ED12CE0E2EE0EF11CB4CBCF9335
:10478000DF93C8ECD7E0A097CE014A960E94F90EBD
:10479000CE0140960E94F90E87E0C830D80799F7FD
:1047A000C8E7DAE06C97CE0146960E94F90ECE017A
:1047B00040960E94F90ECE010A960E94F90ECE0193
:1047C00002960E94F90E88E0C031D80759F7C8ED6B
:1047D000DAE06097CE010E94F90E8AE0C837D80768
:1047E000C1F7C2E8DBE02A97CE0102960E94F90EDB
:1047F0008AE0C83DD807B9F782E89BE00E94F90E2D
:1048000088E89BE0DF91CF910C94F90E8F929F92F4
:10481000AF92BF92CF92DF92EF92FF920F931F93CE
:10482000CF93DF935C017B016115710519F0DB010A
:104830008D939C9385010F5F1F4FF501D0818D2FC4
:1048400090E00E94A9256C01892BB9F5DD32B9F5FC
:104850000F5F1F4FD5011196DC91C1E05801F1E0C7
:10486000AF1AB10843E050E060ED71E0C5010E946D
:10487000B225892B69F5680182E0C80ED11C45E09C
:1048800050E06BEC71E0C6010E94B225892B21F447
:10489000680197E0C90ED11CE114F10419F0D701A9
:1048A000CD92DC9260E070E080E89FEFC111FFC024
:1048B00060E070E080E89FE7FAC05801BBCFDB32D0
:1048C00029F485010E5F1F4FF501D181C0E0C6CFED
:1048D00043E050E068EC71E0C5010E94B225892BED
:1048E000E9F0F80110E000E020E030E0A9015F010C
:1048F000B0ED8B2E8D0E89E08815C8F19C2E689442
:1049000091F88C2F8870C2FF16C0811102C00F5F12
:104910001F4F3196D501DC91C92DE9CFE114F10487
:1049200029F00E5F1F4FF7011183008360E070E0F4
:1049300080EC9FE7BCC0882311F001501109A5E06D
:10494000B0E00E9443279B01AC01220F331F441F9C
:10495000551F280D311D411D511D283999E9390771
:10496000490799E15907A8F2C6609C2ED2CFAEEF55
:104970008A1206C0C3FD3CC09C2E689493F8C9CF30
:10498000DF7DD534A9F580818D3239F4C061DF0136
:104990001296818162E070E006C0DF018B32C1F3C4
:1049A000119661E070E080535D01A61AB70A8A3063
:1049B000F8F4E0E8CE16ECE0DE065CF4B601660F33
:1049C000771F660F771FC60ED71ECC0CDD1CC80ED6
:1049D000D11C5D01FFEFAF1ABF0A8C9180538A3062
:1049E000A8F1C4FF03C0D194C194D1080C0D1D1DC2
:1049F000C1FF09C0E114F10431F081E0A81AB10847
:104A0000D701AD92BC92CA01B9010E941126C370B0
:104A1000C33009F490584B015C0120E030E0A9015B
:104A20000E940C26882309F440C0CFEFD1E017FF85
:104A300005C0119501951109C7EED1E06E01B8E1ED
:104A4000CB1AD10880E2E82EF12C0FC0D501B1CFEE
:104A5000FE0125913591459154910E191F09C5010B
:104A6000B4010E9472264B015C01D501C4010E15F0
:104A70001F0574F72497F594E794CC16DD06A9F783
:104A80008A2F880F8B2F881F8F3F49F020E030E05E
:104A9000A901C501B4010E940C26811106C082E261
:104AA00090E09093E80E8093E70EC501B401DF918A
:104AB000CF911F910F91FF90EF90DF90CF90BF901B
:104AC000AF909F908F900895FC0188279927E894D4
:104AD00021912032E9F3293010F02E30C8F32B3227
:104AE00041F02D3239F4689404C00E94EA25820F07
:104AF000911D219120532A30C0F31EF49095819589
:104B00009F4F08951F93FC0199278827BC01E894C3
:104B100011911032E9F3193010F01E30C8F31B3236
:104B200051F01D3249F4689406C00E94D525610FEA
:104B3000711D811D911D119110531A30B0F33EF477
:104B400090958095709561957F4F8F4F9F4F1F91E6
:104B5000089591110C94DF26803219F08950855008
:104B6000C8F70895FB01DC014150504088F08D9159
:104B700081341CF08B350CF4805E659161341CF03F
:104B80006B350CF4605E861B611171F3990B08950F
:104B9000881BFCCFBB274A3031F4992322F4BDE2B5
:104BA000909581959F4F0C94F325592F482F372FBF
:104BB000262F660F771F881F991F660F771F881F84
:104BC000991F620F731F841F951F660F771F881F21
:104BD000991F08957AE0979F902D879F802D910DC2
:104BE00011240895BB27FB015527AA27880F991F79
:104BF000AA1FA41710F0A41B83955051B9F7A05D0C
:104C0000AA3308F0A95DA193009779F7B111B19388
:104C10001192CB010C94E2260E944E2608F481E00A
:104C20000895E89409C097FB3EF49095809570959F
:104C300061957F4F8F4F9F4F9923A9F0F92F96E9E8
:104C4000BB279395F695879577956795B795F1115D
:104C5000F8CFFAF4BB0F11F460FF1BC06F5F7F4FFA
:104C60008F4F9F4F16C0882311F096E911C077230C
:104C700021F09EE8872F762F05C0662371F096E815
:104C8000862F70E060E02AF09A95660F771F881FE4
:104C9000DAF7880F9695879597F90895990F000888
:104CA000550FAA0BE0E8FEEF16161706E807F907FE
:104CB000C0F012161306E407F50798F0621B730B99
:104CC000840B950B39F40A2661F0232B242B252B1A
:104CD00021F408950A2609F4A140A6958FEF811DBD
:104CE000811D08950E9485260C9409270E94FB26A9
:104CF00038F00E94022720F0952311F00C94F22640
:104D00000C94F82611240C943D270E941A2770F366
:104D1000959FC1F3950F50E0551F629FF001729F60
:104D2000BB27F00DB11D639FAA27F00DB11DAA1F6F
:104D3000649F6627B00DA11D661F829F2227B00DBC
:104D4000A11D621F739FB00DA11D621F839FA00D47
:104D5000611D221F749F3327A00D611D231F849F97
:104D6000600D211D822F762F6A2F11249F575040EE
:104D70009AF0F1F088234AF0EE0FFF1FBB1F661F69
:104D8000771F881F91505040A9F79E3F510580F032
:104D90000C94F2260C943D275F3FE4F3983ED4F345
:104DA000869577956795B795F795E7959F5FC1F7D6
:104DB000FE2B880F911D9695879597F90895992751
:104DC00088270895DC01FC01672F71917723E1F7B3
:104DD000329704C07C916D9370836291AE17BF07C8
:104DE000C8F3089597F99F6780E870E060E0089540
:104DF0009FEF80EC089500240A94161617061806F3
:104E00000906089500240A941216130614060506CE
:104E10000895092E0394000C11F4882352F0BB0F5F
:104E200040F4BF2B11F460FF04C06F5F7F4F8F4FC2
:104E30009F4F089557FD9058440F551F59F05F3FFD
:104E400071F04795880F97FB991F61F09F3F79F0AC
:104E500087950895121613061406551FF2CF46952E
:104E6000F1DF08C0161617061806991FF1CF8695B0
:104E70007105610508940895E894BB276627772794
:104E8000CB0197F908950E944E27A59F900DB49FDE
:104E9000900DA49F800D911D11240895A29FB00133
:104EA000B39FC001A39F700D811D1124911DB29F5E
:104EB000700D811D1124911D08950E94642768942E
:104EC000B1110C943D2708950E94222788F09F5726
:104ED00098F0B92F9927B751B0F0E1F0660F771F1E
:104EE000881F991F1AF0BA95C9F714C0B13091F014
:104EF0000E943C27B1E008950C943C27672F782F3F
:104F00008827B85F39F0B93FCCF3869577956795D8
:104F1000B395D9F73EF490958095709561957F4F44
:104F20008F4F9F4F08950E944E2608F48FEF0895EB
:104F30000E94CC2730F09F3710F40C943D270C943E
:104F4000A3270C94BE27882371F4772321F098506F
:104F5000872B762F07C0662311F499270DC0905137
:104F6000862B70E060E02AF09A95660F771F881F05
:104F7000DAF7880F9695879597F908959F3F31F056
:104F8000915020F4879577956795B795880F911D77
:104F90009695879597F908950E942227A0F0BEE77D
:104FA000B91788F4BB279F3860F41616B11D672F18
:104FB000782F8827985FF7CF869577956795B11DED
:104FC00093959639C8F3089597FB072E16F400942D
:104FD00007D077FD09D00E94412807FC05D03EF498
:104FE000909581959F4F0895709561957F4F089595
:104FF000A1E21A2EAA1BBB1BFD010DC0AA1FBB1FDD
:10500000EE1FFF1FA217B307E407F50720F0A21B4E
:10501000B30BE40BF50B661F771F881F991F1A94BB
:1050200069F760957095809590959B01AC01BD01E5
:10503000CF010895052E97FB1EF400940E9431289D
:1050400057FD07D00E94F82707FC03D04EF40C94BC
:10505000312850954095309521953F4F4F4F5F4FE8
:10506000089590958095709561957F4F8F4F9F4FD4
:105070000895EE0FFF1F881F8BBF0790F691E02D5C
:105080001994AA1BBB1B51E107C0AA1FBB1FA6177F
:10509000B70710F0A61BB70B881F991F5A95A9F7E1
:1050A00080959095BC01CD0108950F931F93CF93E8
:1050B000DF938230910510F482E090E0E091EB0EF6
:1050C000F091EC0E30E020E0B0E0A0E0309799F4F1
:1050D0002115310509F44AC0281B390B243031054C
:1050E000D8F58A819B816115710589F1FB01938354
:1050F0008283FE0111C040815181028113814817D2
:105100005907E0F04817590799F4109761F0129683
:105110000C93129713961C933296CF01DF91CF9187
:105120001F910F9108950093EB0E1093EC0EF4CFA6
:105130002115310551F04217530738F0A901DB0161
:105140009A01BD01DF01F801C1CFEF01F9CF9093C2
:10515000EC0E8093EB0ECDCFFE01E20FF31F819397
:1051600091932250310939832883D7CF2091E90EBA
:105170003091EA0E232B41F4209116023091170250
:105180003093EA0E2093E90E20911402309115021B
:105190002115310541F42DB73EB7409118025091C9
:1051A0001902241B350BE091E90EF091EA0EE2178B
:1051B000F307A0F42E1B3F0B2817390778F0AC013A
:1051C0004E5F5F4F2417350748F04E0F5F1F509317
:1051D000EA0E4093E90E819391939FCFF0E0E0E0D7
:1051E0009CCFCF93DF930097E9F0FC0132971382B5
:1051F0001282A091EB0EB091EC0EED0130E020E0B8
:105200001097A1F420813181820F931F2091E90E24
:105210003091EA0E2817390709F061C0F093EA0EC1
:10522000E093E90EDF91CF910895EA01CE17DF07F1
:10523000E8F54A815B819E0141155105B1F7E9010D
:10524000FB83EA8349915991C40FD51FEC17FD07E1
:1052500061F4808191810296840F951FE901998301
:105260008883828193819B838A83F0E0E0E01296B9
:105270008D919C9113970097B9F52D913C911197C1
:10528000CD010296820F931F2091E90E3091EA0E14
:105290002817390739F6309751F51092EC0E109215
:1052A000EB0EB093EA0EA093E90EBCCFD383C2837A
:1052B00040815181840F951FC817D90761F44E5F53
:1052C0005F4F88819981480F591F518340838A819C
:1052D0009B81938382832115310509F0B0CFF09330
:1052E000EC0EE093EB0E9ECFFD01DC01C0CF1382EC
:1052F0001282D7CF4F925F926F927F928F929F923E
:10530000AF92BF92CF92DF92EF92FF920F931F93D3
:10531000CF93DF938C01009799F4CB01DF91CF916C
:105320001F910F91FF90EF90DF90CF90BF90AF90C3
:105330009F908F907F906F905F904F900C94552826
:10534000FC01E60FF71F9C0122503109E217F30719
:1053500008F4AEC0D901CD91DC911197C617D707DB
:1053600020F1C530D10578F0CE0104978617970754
:1053700050F0C61BD70B2297C193D1936D937C93AA
:10538000CF010E94F128C801DF91CF911F910F91A9
:10539000FF90EF90DF90CF90BF90AF909F908F9055
:1053A0007F906F905F904F9008955B01AC1ABD0A9B
:1053B0004C018C0E9D1EA091EB0EB091EC0E512C69
:1053C000412CF12CE12C109731F58091E90E909150
:1053D000EA0E8815990509F05CC04616570608F0D4
:1053E00058C08091140290911502009741F48DB736
:1053F0009EB74091180250911902841B950BE81733
:10540000F90708F055C0F093EA0EE093E90EF901B0
:1054100071836083B8CF8D919C91119712966C9097
:10542000129713967C901397A815B90559F56C013E
:1054300042E0C40ED11CCA14DB0420F1AC014A19AD
:105440005B09DA011296159780F0628273825183AC
:105450004083D9016D937C93E114F10471F0D7017D
:105460001396FC93EE9312978ECF22968C0F9D1F6E
:10547000F90191838083F301EFCFF093EC0EE09379
:10548000EB0E81CF4816590608F42C017D01D3019B
:105490009ACFCB010E9455287C01009749F0AE01BC
:1054A000B8010E945B2AC8010E94F12887016BCFD6
:1054B00010E000E068CFFB01DC0102C001900D921A
:1054C00041505040D8F70895FB01DC018D910190C7
:1054D00080190110D9F3990B0895FB01DC010190AB
:1054E0000D920020E1F7089512E0C0E7D2E000E05D
:1054F00006C0802FFE010E9439282196011DC13768
:0C550000D10780E00807A9F7F894FFCF5E
:10550C002E052E052E052E052E052E052E052E05F7
:10551C00080080000000ED0E800000000000400636
:10552C00AA05D7058D060806E605FA050D0A0055ED
:10553C004E4B4E4F574E20434F4D4D414E44005312
:10554C00544152540053544F5000444953434F4E0E
:10555C004E45435400454E4400494E495400415574
:10556C0054484F523D005649443D314C3250005046
:10557C0049443D4346543733374D43500053434120
:10558C004E53544154450053544154455343414E9A
:10559C0000535749544348002C31002C30005049DB
:1055AC004E4700504F4E4700434F4E464947004C24
:1055BC0045443D004C454E4754483D0057494454E2
:1055CC00483D004845494748543D004144442C312E
:1055DC00312C444953504C41595F4252492C553857
:1055EC002C52572C446973706C6179732042726928
:1055FC006768746E6573732C4D43502064696769DA
:10560C007473206272696768746E65737320667256
:10561C006F6D203020746F2031352C50455253491A
:10562C0053543D31004144442C31322C4241434BC4
:10563C004C494748545F4252492C55382C52572CF0
:10564C004261636B6C696768742042726967687445
:10565C006E6573732C4D4350206261636B6C69678C
:10566C006874206272696768746E65737320667201
:10567C006F6D203020746F203235352C50455253CD
:10568C004953543D31004144442C31332C5649523A
:10569C005455414C5F504F5745522C55382C52574E
:1056AC002C5669727475616C20506F7765722C4D35
:1056BC004350207669727475616C20706F776572D7
:1056CC002030206F7220312C504552534953543D99
:1056DC003100333630623831326566313064333301
:1056EC0065353435376565376234313238343533A6
:1056FC003666007B38343637366633642D64646422
:10570C00662D343863342D616234632D3833396639
:10571C0032343262363365307D0046444C45465453
:10572C005F4C4544004E315F4C4544005350454559
:10573C00445F4C454400564E41565F4C4544004C2A
:10574C00564C4348475F4C4544004844475F4C45E2
:10575C0044004C4E41565F4C454400564F524C4F02
:10576C00435F4C4544004150505F4C454400414C14
:10577C0054484C445F4C45440056535F4C454400E0
:10578C00434D44415F4C454400434D44425F4C45BE
:10579C004400435753415F4C454400435753425FC9
:1057AC004C454400464452494748545F4C454400DC
:1057BC0041545F4C4544004352534C4546545F445E
:1057CC00495350004941534D4143485F444953505C
:1057DC00004844475F4449535000414C545F44498E
:1057EC0053500056535F444953500043525352494F
:1057FC004748545F444953500046444C4546540076
:10580C004154004E3100535041445F50555348426F
:10581C005554544F4E00535045454400434F00538C
:10582C005044494E545600564E4156004C564C432B
:10583C00484700484447004C4E415600564F524C86
:10584C004F430041505000414C54484C4400414C93
:10585C0054494E545600565300434D444100434D59
:10586C004442004357534100435753420044495369
:10587C00454E47414745004644524947485400422B
:10588C00414E4B004352534C4546545F454E4300EA
:10589C00535041445F454E434F4445520049415398
:1058AC004D4143485F454E43004844475F454E4396
:1058BC0000414C545F454E430056535F454E4300E8
:1058CC0043525352494748545F454E430041545448
:1058DC00414348494E472043414C4C4241434B5372
:0658EC0021002C2D31000B
:00000001FF
