:100000000C9421020C944A140C941F140C94F413B5
:100010000C94C9130C949E130C9473130C944813F2
:100020000C941D130C9452020C9452020C94520224
:100030000C9452020C9452020C9452020C945202F0
:100040000C9452020C9452020C9452020C945202E0
:100050000C9452020C9452020C9452020C94D3123F
:100060000C9452020C949F140C9475140C9452022C
:100070000C9452020C9452020C9452020C945202B0
:100080000C9452020C9452020C9452020C945202A0
:100090000C9452020C9452020C9452020C94520290
:1000A0000C9452020C9452020C9452020C94520280
:1000B0000C9452020C9452020C9452020C94520270
:1000C0000C9452020C9452020C9452020C94520260
:1000D0000C9452020C9452020C9452020C94520250
:1000E0000C9452020C9478040C94F0030C94F602D5
:1000F0000C94DE040C94B8050C9424030C94640452
:100100000C9496050C941F0D0C942A070C940D0367
:100110000C94D5140C94AA050C943D060C94370449
:100120000C94F2020C9417030C9430070C941B04EB
:100130000C9482040C94FF030C945A040C9409034D
:100140000C9423040C946E040C94F40B0C9425036F
:100150000C947E0F0C9436070C94E9030C94FF0268
:100160000C94EE020C94F0050C94F80B0C9408100F
:100170000C94DF200C94EA020C9411030C942903D4
:100180000C94F5030C94E4020C9450040C94F902C2
:100190000C942D040C941F030C9413040C9424074A
:1001A0000C941B030C941F0C0C94F90C0C9403037B
:1001B0000C94330E0C9441040C9487050C945A054E
:1001C0000C940904464F524547524F554E443D2327
:1001D00046464646464600524F573D310053504131
:1001E000445F444953504C415900444953504C4199
:1001F00059004F555450555400524F555445544F83
:100200003D4844475F454E430048494444454E3DC0
:10021000310055495F5354594C453D300055495FB5
:10022000545950453D3200494E50555400484944B8
:1002300044454E3D3100535041445F4C4544004CD1
:100240004544004F555450555400454E434F444586
:100250005200494E505554004E4F5F444953504C44
:1002600041595F434C4541523D3100504147455350
:100270005550504F52543D3000495347454E45521A
:1002800049433D31004F5054494F4E00434654209E
:10029000373337204D435000535041440000002174
:1002A00000240027002A002D003000330001010047
:1002B00000040107010A0100002200250028002B8C
:1002C000002E003100340002010000050108010B7E
:1002D00001000020002300260029002C002F0032FE
:1002E00000000100000301060109010505050507DD
:1002F0000508080808020202020A0A0808040404A1
:1003000004010101010101010103030303030303CC
:1003100003040707070C0C0C0C0C0C0C0C0202025B
:100320000206060606060606060B0B0B0B0B0B0B4E
:100330000B010210202008081020401020408002ED
:10034000010201080402010102040810204080801B
:10035000402010080402018004020180402010089F
:100360000402010804020101020408102040800177
:10037000020408102040807E306D79335B5F707F0F
:100380007B771F0D3D4F470000000000000000007C
:10039000000000000000000000000000000000005D
:1003A000000000800180007E306D79335B5F707FDC
:1003B0007B00000000000000771F0D3D4F47003715
:1003C0000000000E000000670000000000000000B8
:1003D0000000000000000800771F0D3D4F47003768
:1003E0000000000E00151D67000000000000000066
:1003F0000000000000000000000A0B02090C0D0EB6
:1004000008070304010000000000000000000000D5
:1004100000000000000000000000000000000000DC
:100420000000001211100000000000000000000099
:100430000000000000000000000000000000D514D3
:10044000DF2011241FBECFEFD1E2DEBFCDBF00E021
:100450000CBF2EE0AEE4B5E001C01D92AF34B20790
:10046000E1F715E0A0E0B2E0EEEBF8E400E00BBF4E
:1004700002C007900D92AE34B107D9F712E0C0E286
:10048000D2E000E006C021970109802FFE010E9402
:100490001222CF31D10780E00807A9F70E94671B1D
:1004A0000C944D240C940000AC011092940B90918C
:1004B000E40D8091E30DFA01BF01641B750B2091DF
:1004C000940B30813093940B931304C0921302C0A9
:1004D0001092940B3081311104C0921721F0CB019E
:1004E00008953817D1F33196E7CF0F931F93CF9329
:1004F000DF938091D80D882309F446C0D0E0C0E096
:10050000813029F482E08093D80DC8E9DBE0809146
:10051000D90D882341F1209721F4C091DD0DD091B0
:10052000DE0D8E01CE010E945402892B29F4219602
:10053000F80180818111F5CFF8018081882309F1CC
:10054000C8010E945402F801E80FF91F8081882336
:1005500011F010823196F093DE0DE093DD0D1093D3
:10056000DC0D0093DB0D8091DB0D9091DC0D892B70
:1005700059F081E08093D90DDF91CF911F910F91B8
:10058000089510E000E0EBCF80E0F6CF815082319B
:1005900008F05AC0E82FF0E08827EE52FD4F8F4F49
:1005A0000C941222F202F602E402EA02EE022403A2
:1005B000F902FF02030309030D03110317031B03D1
:1005C00024031F0325032903809180008F778093E4
:1005D00080000895809180008F7DF9CF8091800008
:1005E000877FF5CF84B58F7784BD089584B58F7DDF
:1005F000FBCF8091B0008F778093B00008958091F9
:10060000B0008F7DF9CF809190008F77809390001C
:100610000895809190008F7DF9CF80919000877F21
:10062000F5CF8091A0008F778093A00008958091EE
:10063000A0008F7DF9CF8091A000877FF5CF8091BA
:1006400020018F77809320010895809120018F7D74
:10065000F9CF80912001877FF5CFCF93DF93282FAB
:1006600030E0F901E950FC4F8491F901EF5CFC4F57
:10067000D491F901E551FD4FC491CC23A1F0811132
:100680000E94C602EC2FF0E0EE0FFF1FEF52FD4F6D
:10069000A591B491EC91ED2381E090E009F480E024
:1006A000DF91CF91089580E090E0FACF1F93CF9330
:1006B000DF93282F30E0F901E950FC4F8491F901D4
:1006C000EF5CFC4FD491F901E551FD4FC491CC236F
:1006D000A9F0162F81110E94C602EC2FF0E0EE0F58
:1006E000FF1FE954FD4FA591B4918FB7F894EC9199
:1006F000111108C0D095DE23DC938FBFDF91CF911D
:100700001F910895DE2BF8CFCF93DF9390E0FC018B
:10071000EF5CFC4F249185519D4FFC01849188230F
:10072000D1F090E0880F991FFC01E356FD4FA59191
:10073000B491FC01E954FD4FC591D491623071F43C
:100740009FB7F8943C91822F809583238C93E88106
:100750002E2B28839FBFDF91CF9108958FB7F894F8
:10076000EC912E2B2C938FBFF6CFCF93DF93EC0120
:1007700061E082E00E948403209731F460E082E02F
:10078000DF91CF910C945603CF3FD10511F461E076
:10079000F6CFE9EFF3E0E491E150E23108F0B2C0C6
:1007A000F0E08827E952FC4F8F4F0C941222E903A6
:1007B000F003F503FF030904820413041B0423045C
:1007C0002D043704410450045A04820464046E0466
:1007D000780484B5806884BDC7BDDF91CF9108954A
:1007E00084B5806284BDC8BDF8CF809180008068E8
:1007F00080938000D0938900C0938800EECF8091D1
:100800008000806280938000D0938B00C0938A0028
:10081000E4CF80918000886080938000D0938D0029
:10082000C0938C00DACF8091B00080688093B000D4
:10083000C093B300D2CF8091B00080628093B000AB
:10084000C093B400CACF80919000806880939000DC
:10085000D0939900C0939800C0CF8091900080629F
:1008600080939000D0939B00C0939A00B6CF809164
:100870009000886080939000D0939D00C0939C006E
:10088000ACCF8091A00080688093A0008091A000F0
:100890008F7B8093A000D093A900C093A8009DCF28
:1008A0008091A00080628093A000D093AB00C093A1
:1008B000AA0093CF8091A00088608093A000D0937D
:1008C000AD00C093AC0089CF8091200180688093F7
:1008D0002001D0932901C09328017FCF809120016E
:1008E000806280932001D0932B01C0932A0175CFA1
:1008F00080912001886080932001D0932D01C093C6
:100900002C016BCFC038D1050CF041CF37CF3FB7AA
:10091000F8948091600590916105A0916205B09175
:10092000630526B5A89B05C02F3F19F00196A11DB0
:10093000B11D3FBFBA2FA92F982F8827BC01CD0129
:10094000620F711D811D911D42E0660F771F881F88
:10095000991F4A95D1F708958F929F92AF92BF92B7
:10096000CF92DF92EF92FF924B015C010E948704CD
:100970006B017C010E9487046C197D098E099F0917
:10098000683E734081059105A8F321E0821A910821
:10099000A108B10888EEC80E83E0D81EE11CF11C46
:1009A00081149104A104B10429F7FF90EF90DF9026
:1009B000CF90BF90AF909F908F9008950895DC01E5
:1009C000ED91FC910190F081E02D1994EF92FF924E
:1009D0000F931F93CF93DF9320918F0B2223E9F086
:1009E0008C016091E30D8091E00D9091E10D0E94EA
:1009F000DF04E090E00DF090E10DE801FE0164916C
:100A0000662359F0D701ED91FC910190F081E02D22
:100A1000C70119952196892B89F7DF91CF911F91F5
:100A20000F91FF90EF900895CF93DF9320918F0B5C
:100A30002223D1F0EC016091E30D8091E00D9091C3
:100A4000E10D0E94DF048091E00D9091E10D4C8159
:100A50005D8168817981DC01ED91FC910280F381F7
:100A6000E02DDF91CF911994DF91CF910895CF932D
:100A7000DF9320918F0B2223D1F0EC016091E30DE5
:100A80008091E00D9091E10D0E94DF048091E00DD6
:100A90009091E10D4C815D8168817981DC01ED915E
:100AA000FC910280F381E02DDF91CF911994DF91C9
:100AB000CF910895AF92BF92CF92DF92EF92FF92C3
:100AC0000F931F93CF93DF936C017B018B01040F76
:100AD000151FEB015E01AE18BF08C017D10759F012
:100AE0006991D601ED91FC910190F081E02DC60154
:100AF0001995892B79F7C501DF91CF911F910F913E
:100B0000FF90EF90DF90CF90BF90AF900895FC01E1
:100B1000538D448D252F30E0842F90E0821B930B62
:100B2000541710F0CF96089501970895FC01918D08
:100B3000828D981761F0A28DAE0FBF2FB11D5D960B
:100B40008C91928D9F5F9F73928F90E008958FEFAD
:100B50009FEF0895FC01918D828D981731F0828D61
:100B6000E80FF11D858D90E008958FEF9FEF0895B8
:100B7000FC01918D228D892F90E0805C9F4F821B1C
:100B800091098F739927089582EF9AE00E94B80522
:100B900021E0892B09F420E0822F0895FC01A48D27
:100BA000A80FB92FB11DA35ABF4F2C91848D90E08F
:100BB00001968F739927848FA689B7892C93A08972
:100BC000B1898C91837080648C93938D848D9813FC
:100BD00006C00288F389E02D80818F7D808308958F
:100BE000EF92FF920F931F93CF93DF93EC0181E07D
:100BF000888F9B8D8C8D98131AC0E889F989808124
:100C000085FF15C09FB7F894EE89FF896083E88956
:100C1000F98980818370806480839FBF81E090E048
:100C2000DF91CF911F910F91FF90EF900895F62ED5
:100C30000B8D10E00F5F1F4F0F731127E02E8C8D6F
:100C40008E110CC00FB607FCFACFE889F9898081B4
:100C500085FFF5CFCE010E94CE05F1CFEB8DEC0FD5
:100C6000FD2FF11DE35AFF4FF0829FB7F8940B8FD1
:100C7000EA89FB8980818062CFCFCF93DF93EC013B
:100C8000888D8823B9F0AA89BB89E889F9898C9174
:100C900085FD03C0808186FD0DC00FB607FCF7CF30
:100CA0008C9185FFF2CF808185FFEDCFCE010E9430
:100CB000CE05E9CFDF91CF91089580E090E0892BB8
:100CC00029F00E94C40581110E94000080E090E09C
:100CD000892B49F080E090E0892B29F00E940000E8
:100CE00081110E94000080E090E0892B49F080E0B3
:100CF00090E0892B29F00E94000081110E940000E1
:100D000080E090E0892B49F080E090E0892B29F089
:100D10000E94000081110C9400000895833171F14C
:100D200020F48231E9F180E008958431A9F0853121
:100D3000D1F7709353056093520586E397E0909343
:100D4000050280930402809169008C7F816080930A
:100D50006900E89A81E00895709355056093540501
:100D600080E397E0909307028093060280916900E8
:100D7000837F846080936900E99AECCF7093570574
:100D8000609356058AE297E09093090280930802E7
:100D9000809169008F7C806180936900EA9ADACF44
:100DA000709359056093580584E297E090930B0285
:100DB00080930A02809169008F7380648093690038
:100DC000EB9AC8CFDC01ED91FD918081ED91FD9111
:100DD0009081ED91FD916C9163708E2309F06460B8
:100DE0009F2309F06860EFEFF6E0E60FF11D6595CF
:100DF00065956D936D917D918D919D91099423C021
:100E00001AC012C016C010C01EC009C014C013C042
:100E100006C019C009C00DC007C00DC014C0625083
:100E20007040804090400BC06150704080409040C6
:100E300006C06E5F01C06F5F7F4F8F4F9F4F9E93C5
:100E40008E937E936E9308958091580590915905E5
:100E50000C94E20680915605909157050C94E20699
:100E600080915405909155050C94E20680915205AD
:100E7000909153050C94E206809150059091510594
:100E80000C94E20680914E0590914F050C94E20679
:100E90000F931F93CF93DF93EC01062F142F62E083
:100EA000802F0E94840362E0812F0E948403802FA0
:100EB00090E0FC01E551FD4FE491F0E0EE0FFF1FE3
:100EC000EF52FD4FA591B491B983A883FC01EF5C6B
:100ED000FC4F24912C83812F90E0FC01E551FD4FC4
:100EE000E491F0E0EE0FFF1FEF52FD4F459154915A
:100EF0005B834A83FC01EF5CFC4FE491ED831F822E
:100F0000188619861A868BE39FE10197F1F78C9179
:100F1000282391E009F490E0DA018C91E82309F0AC
:100F200092609E83BE01802F0E948E068B87BE0139
:100F3000812F0E948E069B85890F8B87DF91CF9131
:100F40001F910F9108954F925F926F927F928F92AF
:100F50009F92AF92BF92CF92DF92EF92FF920F9348
:100F60001F93CF93DF931F921F92CDB7DEB78C01F3
:100F700049832A83660F771FF801EA5AFF4FE08002
:100F8000F180EE0CFF1CF801CF01801B910B8E1538
:100F90009F0514F41192F8CF8981F801E60FF71F2D
:100FA00081838A818083680184E5C80ED11C60E05A
:100FB000F60180810E9456035801F2E5AF0EB11C84
:100FC000480180E5880E911C1E141F040CF5E1E019
:100FD000EE1AF108F801EE0DFF1D6080F50150805A
:100FE000F401408088E0782E662D661F6627661F14
:100FF000842D0E945603660C61E0852D0E945603E5
:1010000060E0852D0E9456037A947110EDCFDCCFFD
:1010100061E0F60180810F900F90DF91CF911F91D9
:101020000F91FF90EF90DF90CF90BF90AF909F9087
:101030008F907F906F905F904F900C945603FC01BF
:10104000EA5AFF4F20813181121613064CF46031A9
:10105000710530F4262F4AE070E060E00C94A3079D
:101060000895DC01AA5ABF4F2D913C911216130628
:1010700084F4E42F440FFF0BE958FC4F2491FC014A
:10108000E60FF71F208B41E0460F70E060E00C9404
:10109000A3070895FC01EA5AFF4F208131811216FF
:1010A00013068CF4403178F4E42FF0E0E958FC4F5B
:1010B0002491FC01E60FF71F208B41E0460F70E002
:1010C00060E00C94A30708958F929F92AF92BF9215
:1010D000CF92DF92EF92FF920F931F93CF93DF9304
:1010E0006B017C01DC01CB01825F984DAF4FBF4F9C
:1010F0008E3A9D4AA140B10578F140E264E070E08B
:101100008CEB95E00E94310840E263E070E08CEBEC
:1011100095E00E94310840E262E070E08CEB95E0DF
:101120000E94310840E261E070E08CEB95E00E94A3
:10113000310840E270E060E08CEB95E0DF91CF9108
:101140001F910F91FF90EF90DF90CF90BF90AF90E5
:101150009F908F900C94310810E0F7FE09C0F09436
:10116000E094D094C094C11CD11CE11CF11C11E08E
:10117000E601C701B6012AE030E040E050E00E94FD
:10118000F321062F4DE211116FC080E1C81687E2EE
:10119000D8060CF468C0C701B60120E137E240E090
:1011A00050E00E94F321422F64E070E08CEB95E068
:1011B0000E944A08C701B60128EE33E040E050E043
:1011C0000E94F321CA01B9012AE030E040E050E07A
:1011D0000E94F321462F63E070E08CEB95E00E94C3
:1011E0004A08C701B60124E630E040E050E00E9422
:1011F000F321CA01B9012AE030E040E050E00E944A
:10120000F321462F62E070E08CEB95E00E944A08E3
:101210008AE0882E912CA12CB12CC701B601A50122
:1012200094010E94F321CA01B901A50194010E9411
:10123000F321462F61E070E08CEB95E00E944A08B4
:10124000402F70E060E08CEB95E0DF91CF911F9133
:101250000F91FF90EF90DF90CF90BF90AF909F9055
:101260008F900C944A0840E264E070E08CEB95E0CB
:101270000E943108C83E23E0D2070CF09BCF40E229
:1012800063E070E08CEB95E00E943108C436D10534
:101290000CF0A7CF40E262E070E08CEB95E00E949A
:1012A00031082A970CF0B4CF40E261E070E08CEB9B
:1012B00095E00E943108C4CF1F93CF93DF93EC01D8
:1012C000825F984D8E319E4430F140E267E070E0DD
:1012D00084E695E00E94310840E266E070E084E632
:1012E00095E00E94310840E265E070E084E695E018
:1012F0000E94310840E264E070E084E695E00E94DC
:10130000310840E263E070E084E695E0DF91CF9140
:101310001F910C94310820E0D7FF04C0D195C195EE
:10132000D10921E0CE016AE070E00E94BD21182FB2
:101330004DE2211101C040E267E070E084E695E0F3
:101340000E943108C83E83E0D807C4F1CE0168EEA0
:1013500073E00E94BD21462F66E070E084E695E0D0
:101360000E944A08CE0164E670E00E94BD21CB01D4
:101370006AE070E00E94BD21482F65E070E084E6DD
:1013800095E00E944A082AE030E0CE01B9010E94AF
:10139000BD21CB01B9010E94BD21482F64E070E05E
:1013A00084E695E00E944A08412F63E070E084E6FD
:1013B00095E0DF91CF911F910C944A0840E266E0DE
:1013C00070E084E695E00E943108C436D10554F6F9
:1013D00040E265E070E084E695E00E943108CA30A2
:1013E000D1058CF640E264E070E084E695E00E946E
:1013F0003108DACFCF93DF93EC01C83E83E0D80702
:10140000B8F040E267E070E08CEB95E00E943108B4
:1014100040E266E070E08CEB95E00E94310840E22B
:1014200065E070E08CEB95E0DF91CF910C94310892
:10143000CE0164E670E00E94BD21462F67E070E0B7
:101440008CEB95E00E944A082AE030E0CE01B90119
:101450000E94BD21C82FCB01B9010E94BD21482F98
:1014600066E070E08CEB95E00E944A084C2F65E046
:1014700070E08CEB95E0DF91CF910C944A081F93BC
:10148000CF93DF93EC01C83E83E0D807C0F040E281
:1014900062E070E084E196E00E94310840E261E0A1
:1014A00070E084E196E00E94310840E270E060E084
:1014B00084E196E0DF91CF911F910C943108CE0129
:1014C0006AE070E00E94BD21182FC436D1053CF1BE
:1014D000CE0164E670E00E94BD21462F62E070E01C
:1014E00084E196E00E944A082AE030E0CE01B9018A
:1014F0000E94BD21CB01B9010E94BD21482F61E0AE
:1015000070E084E196E00E944A08412F70E060E0BC
:1015100084E196E0DF91CF911F910C944A0840E25C
:1015200062E070E084E196E00E943108CA30D105A3
:10153000DCF640E261E070E084E196E00E94310870
:10154000E4CFCF93DF93EC01C83E83E0D807B8F037
:1015500040E262E070E084E695E00E94310840E2FB
:1015600061E070E084E695E00E94310840E270E0BE
:1015700060E084E695E0DF91CF910C943108CE01D4
:1015800064E670E00E94BD21462F62E070E084E6D0
:1015900095E00E944A082AE030E0CE01B9010E949D
:1015A000BD21C82FCB01B9010E94BD21482F61E0A8
:1015B00070E084E695E00E944A084C2F70E060E0FD
:1015C00084E695E0DF91CF910C944A08CF93DF93A6
:1015D000EC01C83E83E0D807B8F040E267E070E075
:1015E00084E196E00E94310840E266E070E084E128
:1015F00096E00E94310840E265E070E084E196E008
:10160000DF91CF910C943108CE0164E670E00E9426
:10161000BD21462F67E070E084E196E00E944A0811
:101620002AE030E0CE01B9010E94BD21C82FCB01D4
:10163000B9010E94BD21482F66E070E084E196E088
:101640000E944A084C2F65E070E084E196E0DF914B
:10165000CF910C944A08DF92EF92FF920F931F9361
:10166000CF93DF93FC01EA5AFF4F2081318162174B
:101670007307C4F47B018C01EB0183E0CC0FDD1F09
:101680008A95E1F76096C00FD11FDD24D39419929B
:1016900020E04D2DB701C8010E94A307D39489E033
:1016A000D812F5CFDF91CF911F910F91FF90EF905E
:1016B000DF9008958F929F92AF92BF92CF92DF9268
:1016C000EF92FF920F931F93CF93DF938C01D62E4F
:1016D000C72EEC01C05BDF4F688379834C0182E544
:1016E000880E911CF401518340835801F4E5AF0E3C
:1016F000B11CF501318320837801F6E5EF0EF11C72
:1017000081E090E0F7019183808361E08D2D0E945C
:10171000840361E0F40180810E94840361E0F501AB
:1017200080810E94840361E0F50180810E9456035C
:10173000D882C982F80170961192EC17FD07E1F783
:10174000D0E0C0E0F70180819181C817D90754F536
:1017500020E04FE0BE01C8010E94A307F70180818D
:101760009181C817D90734F427E04BE0BE01C801C6
:101770000E94A30720E049E0BE01C8010E94A30720
:10178000BE01C8010E942B0BF70180819181C8170F
:10179000D90734F420E04CE0BE01C8010E94A30741
:1017A0002196D0CFDF91CF911F910F91FF90EF90B5
:1017B000DF90CF90BF90AF909F908F9008950E9440
:1017C0007502882359F081E08093D90D8093DA0D5A
:1017D0008091DB0D9091DC0D0C9444211092DA0D78
:1017E00060E070E0CB0108950E94DF0B0C94DF0BEA
:1017F000CF92DF92EF92FF920E94DF0B6B010E946B
:10180000DF0B672B682B692B81F08AE08C9DF00140
:101810008D9DF00D1124E45CF54F61E08081FF9017
:10182000EF90DF90CF900C9456038AE08C9DF001EE
:101830008D9DF00D1124E45CF54F60E0EFCF8F92A9
:101840009F92AF92BF92CF92DF92EF92FF920E944F
:10185000DF0B4B015C010E94DF0B0E94DF0B6B0171
:101860007C010E94DF0BDC01CB012AEE821623E013
:101870009206A104B10409F46AC0C4F428EE8216E9
:1018800023E09206A104B10499F129EE821623E027
:101890009206A104B10409F442C0FF90EF90DF90DA
:1018A000CF90BF90AF909F908F9008952CEE8216AE
:1018B00023E09206A104B10409F47BC00CF45FC0DC
:1018C0002DEE821623E09206A104B10431F722E046
:1018D000C216D104E104F10409F083C0FF90EF9037
:1018E000DF90CF90BF90AF909F908F900C94A10A03
:1018F00022E0C216D104E104F10451F4FF90EF900C
:10190000DF90CF90BF90AF909F908F900C94E60A9D
:10191000CD28CE28CF2809F68FEF9FEFEFCF22E01A
:10192000C216D104E104F10451F4FF90EF90DF906E
:10193000CF90BF90AF909F908F900C943F0ACD288E
:10194000CE28CF2809F0A9CF8FEF9FEFEECF22E06E
:10195000C216D104E104F10451F4FF90EF90DF903E
:10196000CF90BF90AF909F908F900C94FA09CD28A4
:10197000CE28CF2809F091CF8FEF9FEFEECFCD018A
:1019800022E0C216D104E104F10449F0CD28CE28AA
:10199000CF2809F082CF61EF78ED8FEF9FEFFF90B6
:1019A000EF90DF90CF90BF90AF909F908F900C946E
:1019B000640822E0C216D104E104F10451F4FF905E
:1019C000EF90DF90CF90BF90AF909F908F900C944E
:1019D0005C09CD28CE28CF2809F05FCF81EF98EDA4
:1019E000EECFCD28CE28CF2809F057CF8FEF9FEF2D
:1019F00075CFCF92DF92EF92FF920E94DF0B6B01C7
:101A00007C0180E1C816D104E104F10498F4B60128
:101A100084E196E00E941F08B6018CEB95E00E94DD
:101A20001F08B60184E695E00E941F08D0921102BB
:101A3000C0921002FF90EF90DF90CF900895CF9268
:101A4000DF92EF92FF920E94DF0B6B017C018FEF20
:101A5000C816D104E104F10409F038F4C6010E946B
:101A6000B503D0921302C0921202FF90EF90DF9064
:101A7000CF900895FB0101900020E9F73197AF0165
:101A8000461B570BDC01ED91FC910280F381E02DA8
:101A9000199480918F0B8823A1F06091E20D8091C1
:101AA000E00D9091E10D0E94DF048091970B882357
:101AB00041F06CE272E08091E00D9091E10D0E94A6
:101AC0003A0D1092960B10928F0B80E008958F9232
:101AD0009F92AF92BF92EF92FF920F931F93CF937B
:101AE000DF93CDB7DEB7A1970FB6F894DEBF0FBE78
:101AF000CDBF7C01FA01CB0119A2223008F42AE003
:101B00008E010F5D1F4F822E912CB12CA12CBF0195
:101B1000A50194010E94D121F901CA016A300CF596
:101B2000605DD8016E938D01232B242B252B79F733
:101B300090E080E0109721F0BD01C7010E943A0DAE
:101B4000A1960FB6F894DEBF0FBECDBFDF91CF9147
:101B50001F910F91FF90EF90BF90AF909F908F904B
:101B60000895695CDECF90918F0B911110C091E0C8
:101B700090938F0B9093960B482F50E070E060E0AD
:101B80002AE08091E00D9091E10D0C94670D08958D
:101B9000CF92DF92EF92FF92CF93DF9320918F0B42
:101BA000222359F16C016091E30D8091E00D909139
:101BB000E10D0E94DF04C091E00DD091E10D0D2CEC
:101BC000000CEE08FF082AE0B701A601F7FE0CC0E2
:101BD0006DE2CE010E94DF0444275527BA014C195B
:101BE0005D096E097F092AE0CE01DF91CF91FF9058
:101BF000EF90DF90CF900C94670DDF91CF91FF9025
:101C0000EF90DF90CF900895CF93DF9320918F0BCB
:101C1000222391F0EC016091E30D8091E00D909111
:101C2000E10D0E94DF04BE018091E00D9091E10D75
:101C3000DF91CF910C943A0DDF91CF910895CF931E
:101C4000DF9390918F0B91110AC0EB010E94B30DAD
:101C5000CE010E94040EDF91CF910C94490D80E0DB
:101C6000DF91CF9108956FE272E083E00C941F0E34
:101C70000F931F93CF93DF93EC0188819981009795
:101C800059F02A813B812617370730F081E0DF9138
:101C9000CF911F910F9108958B016F5F7F4F0E942D
:101CA0005323009759F0998388831B830A832C81DF
:101CB0003D81232B59F7FC011082E8CF80E0E7CF6C
:101CC000EF92FF920F931F93CF93DF9361157105EE
:101CD00041F480E0DF91CF911F910F91FF90EF9041
:101CE000089541155105B1F07B01EC010C811D8176
:101CF000040F151FB8010E94380E882351F3288164
:101D000039818C819D81B701820F931F0E944624E7
:101D10001D830C8381E0DECFCF93DF93EC018881BC
:101D20009981009711F00E94CA22198218821D829F
:101D30001C821B821A82DF91CF910895CF93DF938B
:101D4000EC01FB0101900020E9F73197AF01461B40
:101D5000570B0E94600E811103C0CE010E948C0EB1
:101D6000CE01DF91CF910895CF93DF93EC01FB017A
:101D700044815581608171810E94600E811103C090
:101D8000CE010E948C0ECE01DF91CF910895EF928B
:101D9000FF920F931F93CF93DF93EC017B018A0196
:101DA000BA010E94380E81110BC0CE010E948C0E28
:101DB000CE01DF91CF911F910F91FF90EF90089589
:101DC0001D830C83B701888199810E944624F0CF3E
:101DD000EF92FF920F931F93CF93DF93CDB7DEB7B0
:101DE00062970FB6F894DEBF0FBECDBF8C01CB015A
:101DF000F8011182108213821282158214824AE045
:101E00009E012F5F3F4F7901B9010E946B21F701BD
:101E100001900020E9F73197AF014E195F09B70132
:101E2000C8010E94C70E62960FB6F894DEBF0FBEBF
:101E3000CDBFDF91CF911F910F91FF90EF9008954B
:101E4000FB01DC0111961C921E9213961C921E92AD
:101E5000129715961C921E9214978617970749F0B1
:101E6000608171816115710521F0448155810C9467
:101E7000C70E0895FC01118210821382128215820E
:101E80001482FB0101900020E9F73197AF01461B56
:101E9000570B0C94C70EFC0180819181009711F0C3
:101EA0000C94CA2208950F931F93CF93DF9300D011
:101EB00000D0CDB7DEB790918F0B91111DC08B0173
:101EC0000E94B30DB801CE0101960E94200FCE01F1
:101ED00001960E941405CE0101960E944B0F0E94AC
:101EE000490D26960FB6F894DEBF0FBECDBFDF9129
:101EF000CF911F910F91089580E0F3CF0F931F931F
:101F0000CF93DF9300D000D0CDB7DEB70E9475022B
:101F1000882309F442C081E08093D90D8093DA0DC3
:101F20000091DB0D1091DC0D6FE372E0C8010E949F
:101F30003D24892BB9F581E080935A056091100208
:101F400070911102CE0101960E94E80EBE016F5FF2
:101F50007F4F8BE00E94530FCE0101960E944B0FE2
:101F60006091120270911302CE0101960E94E80E58
:101F7000BE016F5F7F4F8CE00E94530FCE01019630
:101F80000E944B0F26960FB6F894DEBF0FBECDBF52
:101F9000DF91CF911F910F9108951092DA0D10E00B
:101FA00000E0C2CF65E472E0C8010E943D24892BA5
:101FB00049F710925A05E6CF0F931F93CF93DF9303
:101FC00000D000D0CDB7DEB720918F0B21111EC0FD
:101FD0008C0188E00E94B30DB801CE0101960E94E9
:101FE000200FCE0101960E943705CE0101960E9476
:101FF0004B0F0E94490D26960FB6F894DEBF0FBE18
:10200000CDBFDF91CF911F910F91089580E0F3CF65
:10201000CF92DF92EF92FF920F931F93CF93DF93B4
:10202000CDB7DEB762970FB6F894DEBF0FBECDBF57
:102030000E947502882309F460C081E08093D90D65
:102040008093DA0D0091DB0D1091DC0D69E472E0F4
:10205000C8010E943D24892B09F054C080E00E94F1
:10206000B30D88E992E00E94E60466EE7AE0CE01C4
:1020700001960E94200FCE0101960E941405CE0108
:1020800001960E944B0F8CE892E00E94E60482E0E9
:1020900090E00E94C80D84E495E00E94040E6EE476
:1020A00072E0CE0101960E943A0F6CEE7AE0CE010A
:1020B00001960E94B40EBC01CE0107960E94200F2B
:1020C000CE0107960E943705CE0107960E944B0F5E
:1020D000CE0101960E944B0F0E94490D62960FB6E9
:1020E000F894DEBF0FBECDBFDF91CF911F910F914E
:1020F000FF90EF90DF90CF9008951092DA0D10E0EE
:1021000000E0A4CF66E572E0C8010E943D24892B5F
:1021100041F480E00E94B30D80E692E00E94040E3C
:10212000DBCF6AE672E0C8010E943D24892B81F56D
:1021300080E00E94B30D8FE692E00E94040E0E94A0
:10214000DF0B6B017C0180918F0B882329F260915A
:10215000E30D8091E00D9091E10D0E94DF0400916C
:10216000E00D1091E10D2AE0B701A601F7FE0CC0C9
:102170006DE2C8010E94DF0444275527BA014C19BB
:102180005D096E097F092AE0C8010E94670DA4CF8E
:1021900065E472E0C8010E943D24892BD9F470E007
:1021A00060E084E196E00E942B0B70E060E08CEB35
:1021B00095E00E942B0B70E060E084E695E00E94C1
:1021C0002B0B60E082E00E945603109213021092E3
:1021D000120284CF64E772E0C8010E943D248C01A2
:1021E000892B09F07BCF80E00E94B30D85E892E057
:1021F0000E94E60489E792E00E94E6048BE692E002
:102200000E94E60488E592E00E94E6040E94490DDF
:102210003CE7C32E36E0D32E48EBE42E4BE0F42E01
:1022200080E00E94B30D82E592E00E94E604C701BF
:102230000E94C80DB601CE0101960E94200FCE016A
:1022400001960E941405CE0101960E944B0F8AE46C
:1022500092E00E94E604B601665F7F4FCE010196D0
:102260000E94200FCE0101960E941405CE01019616
:102270000E944B0F0E94490D8FEFE81AF80AA0E266
:10228000CA0ED11CBEEBEB16BBE0FB0649F62EE3F3
:10229000E22E2AE0F22E80E00E94B30D83E492E069
:1022A0000E94E604C8010E94C80DB701CE01019644
:1022B0000E94200FCE0101960E941405CE010196C6
:1022C0000E944B0F8FE392E00E94E60486E392E0C7
:1022D0000E94E6048DE292E00E94E6040E94490D0D
:1022E0000F5F1F4FEAE0EE0EF11C0131110599F668
:1022F00004E717E090EDE92E97E0F92E80E00E94C8
:10230000B30D87E292E00E94E604C7010E94C80D67
:10231000B8016E5F7F4FCE0101960E94200FCE0163
:1023200001960E941405CE0101960E944B0FB80140
:10233000665F7F4FCE0101960E94200FCE0101966D
:102340000E941405CE0101960E944B0FB801605FF8
:102350007F4FCE0101960E94200FCE0101960E9470
:102360001405CE0101960E944B0FD8018D919C91CE
:10237000C69721F08DE192E00E94E604F801808189
:102380009181C69721F082E192E00E94E604D80193
:102390005A968D919C915B97892B21F15696ED91E0
:1023A000FC9180818823F1F06BE772E0CE01019609
:1023B0000E943A0FB8016A5E7F4FCE0101960E94DB
:1023C000B40EBC01CE0107960E94200FCE010796E5
:1023D0000E943705CE0107960E944B0FCE01019651
:1023E0000E944B0FF80180819181C69741F489E0EA
:1023F00092E00E94E60489EF91E00E94E6040E94C8
:10240000490DFFEFEF1AFF0A045E1F4F86EEE81634
:1024100087E0F80609F072CF0CED19E088EEE82E9F
:1024200083E0F82E80E00E94B30D82EF91E00E94DD
:10243000E604C7010E94C80DB801CE0101960E94B2
:10244000200FCE0101960E941405CE0101960E9434
:102450004B0F8AEE91E00E94E6048DED91E00E9420
:10246000E604D80116966D917C91CE0107960E94E4
:10247000E80E60E872E0CE0101960E943A0FBE01BC
:10248000695F7F4FCE0101960E94B40EBC01CE0160
:102490000D960E94200FCE010D960E943705CE01A9
:1024A0000D960E944B0FCE0101960E944B0FCE015C
:1024B00007960E944B0F87ED91E00E94E604F80119
:1024C00060857185CE0107960E94E80E68E872E08B
:1024D000CE0101960E943A0FBE01695F7F4FCE0187
:1024E00001960E94B40EBC01CE010D960E94200FF1
:1024F000CE010D960E943705CE010D960E944B0F1E
:10250000CE0101960E944B0FCE0107960E944B0F01
:10251000D8011A966D917C91CE0107960E94E80E23
:102520006FE872E0CE0101960E943A0FBE01695F2A
:102530007F4FCE0101960E94B40EBC01CE010D96D4
:102540000E94200FCE010D960E943705CE010D96F8
:102550000E944B0FCE0101960E944B0FCE010796B1
:102560000E944B0F84EC91E00E94E6040E94490D0A
:10257000BFEFEB1AFB0A005F1F4FEEEEEE16E3E033
:10258000FE0609F04FCF64E772E080E00E941F0E64
:1025900067E972E081E00E941F0E64EE72E081E064
:1025A0000E941F0E9BCD1F920F920FB60F92112407
:1025B0002F933F938F939F93AF93BF9380915C052D
:1025C00090915D05A0915E05B0915F0530915B052E
:1025D00023E0230F2D3758F50196A11DB11D20933F
:1025E0005B0580935C0590935D05A0935E05B093B9
:1025F0005F058091600590916105A0916205B091A1
:1026000063050196A11DB11D80936005909361053E
:10261000A0936205B0936305BF91AF919F918F9195
:102620003F912F910F900FBE0F901F90189526E8A5
:10263000230F0296A11DB11DD2CF1F920F920FB68C
:102640000F9211240BB60F922F933F934F935F93EA
:102650006F937F938F939F93AF93BF93EF93FF936A
:10266000E0910E02F0910F021995FF91EF91BF9149
:10267000AF919F918F917F916F915F914F913F911A
:102680002F910F900BBE0F900FBE0F901F901895BB
:102690001F920F920FB60F9211240BB60F922F9329
:1026A0003F934F935F936F937F938F939F93AF93DA
:1026B000BF93EF93FF93E0910C02F0910D021995F7
:1026C000FF91EF91BF91AF919F918F917F916F910A
:1026D0005F914F913F912F910F900BBE0F900FBEC6
:1026E0000F901F9018951F920F920FB60F92112402
:1026F0000BB60F922F933F934F935F936F937F93FC
:102700008F939F93AF93BF93EF93FF93E091020258
:10271000F09103021995FF91EF91BF91AF919F91B5
:102720008F917F916F915F914F913F912F910F907A
:102730000BBE0F900FBE0F901F9018951F920F9217
:102740000FB60F9211240BB60F922F933F934F9316
:102750005F936F937F938F939F93AF93BF93EF9309
:10276000FF93E0910002F09101021995FF91EF9122
:10277000BF91AF919F918F917F916F915F914F9199
:102780003F912F910F900BBE0F900FBE0F901F9097
:1027900018951F920F920FB60F9211240BB60F923D
:1027A0002F933F934F935F936F937F938F939F9359
:1027B000AF93BF93EF93FF93E0910A02F0910B0266
:1027C0001995FF91EF91BF91AF919F918F917F915B
:1027D0006F915F914F913F912F910F900BBE0F9092
:1027E0000FBE0F901F9018951F920F920FB60F9269
:1027F00011240BB60F922F933F934F935F936F93D8
:102800007F938F939F93AF93BF93EF93FF93E09149
:102810000802F09109021995FF91EF91BF91AF91D4
:102820009F918F917F916F915F914F913F912F91E8
:102830000F900BBE0F900FBE0F901F9018951F9218
:102840000F920FB60F9211240BB60F922F933F9356
:102850004F935F936F937F938F939F93AF93BF93A8
:10286000EF93FF93E0910602F09107021995FF9113
:10287000EF91BF91AF919F918F917F916F915F91F8
:102880004F913F912F910F900BBE0F900FBE0F9065
:102890001F9018951F920F920FB60F9211240BB62E
:1028A0000F922F933F934F935F936F937F938F93E9
:1028B0009F93AF93BF93EF93FF93E0910402F09146
:1028C00005021995FF91EF91BF91AF919F918F9163
:1028D0007F916F915F914F913F912F910F900BBE20
:1028E0000F900FBE0F901F9018951F920F920FB66A
:1028F0000F9211240BB60F922F933F934F935F9338
:102900006F937F938F939F93AF93BF93EF93FF93B7
:1029100082EF9AE00E94CE05FF91EF91BF91AF91B7
:102920009F918F917F916F915F914F913F912F91E7
:102930000F900BBE0F900FBE0F901F9018951F9217
:102940000F920FB60F9211240BB60F922F938F9305
:102950009F93EF93FF93E091020BF091030B808123
:10296000E091080BF091090B82FD1DC090818091D0
:102970000B0B8F5F8F7320910C0B821741F0E0914E
:102980000B0BF0E0EE50F54F958F80930B0BFF9102
:10299000EF919F918F912F910F900BBE0F900FBED3
:1029A0000F901F9018958081F2CF2F923F924F92F7
:1029B0005F926F927F928F929F92AF92BF92CF92CF
:1029C000DF92EF92FF920F931F93CF93DF931092BA
:1029D000F50A1092F40A88EE93E0A0E0B0E080934C
:1029E000F60A9093F70AA093F80AB093F90A8EE1D9
:1029F00092E09093F30A8093F20A85EC90E0909332
:102A0000FF0A8093FE0A84EC90E09093010B809380
:102A1000000B80EC90E09093030B8093020B81EC11
:102A200090E09093050B8093040B82EC90E09093E0
:102A3000070B8093060B86EC90E09093090B809334
:102A4000080B10920B0B10920C0B10920D0B1092A6
:102A50000E0B1092E60D1092E50D82EF9AE0909326
:102A6000E10D8093E00D1092970B8CE28093E30DC3
:102A70008BE38093E20D8FE28093E40D80E48093FA
:102A8000920B8FE38093930B1092910B1092DC0DBD
:102A90001092DB0D1092DE0D1092DD0D81E080931F
:102AA000D90DE7EEFDE08BE49EE0119211928E17B6
:102AB0009F07D9F71092960B6CE273E08CEE9AE0C8
:102AC0000E943A0F6DE473E086EE9AE00E943A0F9E
:102AD00086E290E090933D0A80933C0A64E773E0BD
:102AE0008EE39AE00E943A0FCFEFDFEFD093450AD2
:102AF000C093440A8CE290E09093470A8093460A80
:102B00006FE773E088E49AE00E943A0FD0934F0A8F
:102B1000C0934E0A8DE290E09093510A8093500A40
:102B200066E873E082E59AE00E943A0FD093590A72
:102B3000C093580A8DE390E090935B0A80935A0A01
:102B400060E973E08CE59AE00E943A0FD093630A43
:102B5000C093620A08E210E01093650A0093640AC9
:102B600069E973E086E69AE00E943A0FD0936D0A15
:102B7000C0936C0A89E290E090936F0A80936E0A8A
:102B800064EA73E080E79AE00E943A0FD093770AF4
:102B9000C093760A88E390E09093790A8093780A4C
:102BA0006CEA73E08AE79AE00E943A0FD093810AB8
:102BB000C093800A89E390E09093830A8093820A0D
:102BC00065EB73E084E89AE00E943A0FD0938B0A99
:102BD000C0938A0A83E490E090938D0A80938C0AD4
:102BE00060EC73E08EE89AE00E943A0FD093950A69
:102BF000C093940A85E190E09093970A8093960A97
:102C000068EC73E088E99AE00E943A0FD0939F0A3B
:102C1000C0939E0A87E190E09093A10A8093A00A56
:102C200063ED73E082EA9AE00E943A0FD093A90A1A
:102C3000C093A80A85E0282E312C3092AB0A20924E
:102C4000AA0A6AED73E08CEA9AE00E943A0FD093E8
:102C5000B30AC093B20A86E090E09093B50A8093DD
:102C6000B40A63EE73E086EB9AE00E943A0FD093C9
:102C7000BD0AC093BC0A8AE090E09093BF0A80939B
:102C8000BE0A6CEE73E080EC9AE00E943A0FD0939B
:102C9000C70AC093C60A88E090E09093C90A80935F
:102CA000C80A65EF73E08AEC9AE00E943A0FD0936D
:102CB000D10AC093D00A88E190E09093D30A809320
:102CC000D20A6EEF73E084ED9AE00E943A0FD0933F
:102CD000DB0AC093DA0A8FE390E09093DD0A8093D9
:102CE000DC0A6AE074E08EED9AE00E943A0FD0931D
:102CF000E50AC093E40A61E174E08CED99E00E947A
:102D00003A0F93E0E92EF12CF092E309E092E20908
:102D100022E4C22ED12CD092E509C092E40910938E
:102D2000E7090093E60988248A94982C540180923C
:102D3000E8099092E909A092EA09B092EB096EE1E4
:102D400074E08CEE99E00E943A0FF092F309E09261
:102D5000F209D092F509C092F4091093F709009393
:102D6000F6098092F8099092F909A092FA09B092B6
:102D7000FB096BE274E08CEF99E00E943A0FF0924D
:102D8000030AE092020AD092050AC092040A109344
:102D9000070A0093060A8092080A9092090AA092F4
:102DA0000A0AB0920B0A64E374E08CE09AE00E9495
:102DB0003A0F3092130A2092120A8EE690E0909316
:102DC000150A8093140A1093170A0093160A40EF0D
:102DD000442E48ED542E66246A94762C4092180AAC
:102DE0005092190A60921A0A70921B0A6DE374E0FD
:102DF0008CE19AE00E943A0F3092230A2092220A34
:102E00008EE690E09093250A8093240A1093270A77
:102E10000093260A4092280A5092290A60922A0AB0
:102E200070922B0A65E474E08CE29AE00E943A0FFB
:102E3000F092330AE092320AD092350AC092340AF4
:102E40001093370A0093360A8092380A9092390A12
:102E5000A0923A0AB0923B0A82E390E09093750701
:102E60008093740763E574E086E797E00E943A0F69
:102E7000D0937D07C0937C076AE574E08EE797E006
:102E80000E943A0F6EE272E084E897E00E943A0FE7
:102E900064E773E08AE897E00E943A0F8EE390E0DF
:102EA000909391078093900761E674E082E997E040
:102EB0000E943A0FD0939907C09398076AE574E08F
:102EC0008AE997E00E943A0F6EE272E080EA97E0AA
:102ED0000E943A0F6AE074E086EA97E00E943A0F97
:102EE00081E390E09093AD078093AC0764E674E0D3
:102EF0008EEA97E00E943A0FD093B507C093B407CB
:102F00006CE674E086EB97E00E943A0F67E674E0A7
:102F10008CEB97E00E943A0F6FE773E082EC97E04A
:102F20000E943A0F8AE290E09093C9078093C80705
:102F300067E774E08AEC97E00E943A0FD093D107DC
:102F4000C093D0076CE674E082ED97E00E943A0FE0
:102F500067E674E088ED97E00E943A0F66E873E058
:102F60008EED97E00E943A0F80E490E09093E507A1
:102F70008093E4076DE774E086EE97E00E943A0FD5
:102F8000D093ED07C093EC076CE674E08EEE97E00B
:102F90000E943A0F67E674E084EF97E00E943A0FD0
:102FA0006EE272E08AEF97E00E943A0F8BE390E0C6
:102FB000909301088093000860E874E082E098E054
:102FC0000E943A0FD0930908C09308086CE674E099
:102FD0008AE098E00E943A0F67E674E080E198E0AA
:102FE0000E943A0F6EE272E086E198E00E943A0F8A
:102FF0008CE390E090931D0880931C0868E874E0CF
:103000008EE198E00E943A0FD0932508C0932408DF
:103010006CE674E086E298E00E943A0F67E674E09E
:103020008CE298E00E943A0F60E973E082E398E056
:103030000E943A0F8BE290E0909339088093380811
:103040006DE874E08AE398E00E943A0FD09341085B
:10305000C09340086CE674E082E498E00E943A0F66
:1030600067E674E088E498E00E943A0F69E973E04B
:103070008EE498E00E943A0F83E390E09093550825
:103080008093540864E974E086E598E00E943A0F62
:10309000D0935D08C0935C086CE674E08EE598E020
:1030A0000E943A0F67E674E084E698E00E943A0FC7
:1030B00064EA73E08AE698E00E943A0F87E390E0C2
:1030C000909371088093700868E974E082E798E053
:1030D0000E943A0FD0937908C09378086CE674E0A8
:1030E0008AE798E00E943A0F67E674E080E898E08B
:1030F0000E943A0F6CEA73E086E898E00E943A0F6B
:103100008AE390E090938D0880938C086DE974E0D9
:103110008EE898E00E943A0FD0939508C0939408E7
:103120006CE674E086E998E00E943A0F67E674E086
:103130008CE998E00E943A0F65EB73E082EA98E030
:103140000E943A0F85E490E09093A9088093A80824
:1031500064EA74E08AEA98E00E943A0FD093B108DA
:10316000C093B0086CE674E082EB98E00E943A0FDE
:1031700067E674E088EB98E00E943A0F60EC73E039
:103180008EEB98E00E943A0F84E190E09093C5089E
:103190008093C40868EA74E086EC98E00E943A0FD5
:1031A000D093CD08C093CC086CE674E08EEC98E028
:1031B0000E943A0F67E674E084ED98E00E943A0FAF
:1031C00068EC73E08AED98E00E943A0F87E090E0A7
:1031D0009093E1088093E0086FEA74E082EE98E053
:1031E0000E943A0FD093E908C093E8086CE674E0B7
:1031F0008AEE98E00E943A0F67E674E080EF98E06C
:103200000E943A0F6EE272E086EF98E00E943A0F59
:1032100086E190E09093FD088093FC0867EB74E0F2
:103220008EEF98E00E943A0FD0930509C0930409ED
:103230006CE674E086E099E00E943A0F67E674E07D
:103240008CE099E00E943A0F63ED73E082E199E02F
:103250000E943A0FF0921909E09218096AEB74E0A3
:103260008AE199E00E943A0FD0932109C093200986
:103270006CE674E082E299E00E943A0F67E674E03F
:1032800088E299E00E943A0F6AED73E08EE299E0DD
:103290000E943A0F84E090E09093350980933409BE
:1032A0006FEB74E086E399E00E943A0FD0933D09FA
:1032B000C0933C096CE674E08EE399E00E943A0FFB
:1032C00067E674E084E499E00E943A0F63EE73E0ED
:1032D0008AE499E00E943A0F8BE090E090935109C4
:1032E0008093500964EC74E082E599E00E943A0F03
:1032F000D0935909C09358096CE674E08AE599E0C7
:103300000E943A0F67E674E080E699E00E943A0F67
:103310006CEE73E086E699E00E943A0F89E090E057
:1033200090936D0980936C0969EC74E08EE699E0E6
:103330000E943A0FD0937509C09374096CE674E04B
:1033400086E799E00E943A0F67E674E08CE799E01F
:103350000E943A0F65EF73E082E899E00E943A0F0D
:1033600089E190E090938909809388096EEC74E07C
:103370008AE899E00E943A0FD0939109C09390098E
:103380006AE574E082E999E00E943A0F6EE272E029
:1033900088E999E00E943A0F6EE272E08EE999E0C6
:1033A0000E943A0F8BE190E09093A5098093A409C5
:1033B00068ED74E086EA99E00E943A0FD093AD0977
:1033C000C093AC096AE574E08EEA99E00E943A0F76
:1033D0006EE272E084EB99E00E943A0F6EEF73E0C8
:1033E0008AEB99E00E943A0F86E390E09093C1093E
:1033F0008093C00960EE74E082EC99E00E943A0F7D
:10340000D093C909C093C8096CE674E08AEC99E0CE
:103410000E943A0F67E674E080ED99E00E943A0F4F
:103420006EE272E086ED99E00E943A0F45E364E3B4
:1034300088E697E00E94480747E265E28CE597E05E
:103440000E94480741E260E280E597E00E94480759
:103450004FE06EE084E497E00E9448074CE06DE0A6
:1034600088E397E00E9448074DE16AE18CE297E02B
:103470000E9448078CE0E8E6F7E0ACE6B6E0019091
:103480000D928A95E1F784E390E09093790680931A
:10349000780685E390E090937B0680937A0665EE4C
:1034A00074E08CE796E00E943A0F59E1C52E5CEF7C
:1034B000D52EEE24EA94FE2CC0928206D09283068A
:1034C000E0928406F092850661EF74E086E896E06B
:1034D0000E943A0F8CE0ECE5F7E0ACE8B6E0019032
:1034E0000D928A95E1F785E290E09093990680939A
:1034F000980687E290E090939B0680939A066EEF81
:1035000074E08CE996E00E943A0FC092A206D09235
:10351000A306E092A406F092A50661EF74E086EAA5
:1035200096E00E943A0F8CE0E0E5F7E0ACEAB6E006
:1035300001900D928A95E1F780E290E09093B906B0
:103540008093B80681E290E09093BB068093BA0620
:103550006AE075E08CEB96E00E943A0FC092C206DA
:10356000D092C306E092C406F092C50661EF74E003
:1035700086EC96E00E943A0F8CE0E4E4F7E0ACECD5
:10358000B6E001900D928A95E1F78EE090E090937D
:10359000D9068093D8068FE090E09093DB06809365
:1035A000DA0662E175E08CED96E00E943A0FC09277
:1035B000E206D092E306E092E406F092E50661EFBF
:1035C00074E086EE96E00E943A0F8CE0E8E3F7E0C4
:1035D000ACEEB6E001900D928A95E1F78DE090E0B7
:1035E0009093F9068093F8068CE090E09093FB06A8
:1035F0008093FA066AE175E08CEF96E00E943A0F3C
:10360000C0920207D0920307E0920407F0920507E8
:1036100061EF74E086E097E00E943A0F8CE0ECE204
:10362000F7E0ACE0B7E001900D928A95E1F78AE10E
:1036300090E090931907809318078DE190E09093A4
:103640001B0780931A0761E275E08CE197E00E9406
:103650003A0FC0922207D0922307E0922407F092FB
:10366000250761EF74E086E297E00E943A0F2FE2AF
:1036700030E040E350E06EE270E084E196E00E94CA
:103680005A0B24E230E043E250E062E270E08CEB5F
:1036900095E00E945A0B2EE130E04CE150E06FE1E2
:1036A00070E084E695E0DF91CF911F910F91FF903C
:1036B000EF90DF90CF90BF90AF909F908F907F90D2
:1036C0006F905F904F903F902F900C945A0BCF9338
:1036D000DF93CDB7DEB762970FB6F894DEBF0FBEAB
:1036E000CDBF789484B5826084BD84B5816084BD8B
:1036F00085B5826085BD85B5816085BD80916E0090
:10370000816080936E0010928100809181008260C0
:1037100080938100809181008160809381008091FD
:1037200080008160809380008091B10084608093EC
:10373000B1008091B00081608093B00080919100D1
:1037400082608093910080919100816080939100CC
:10375000809190008160809390008091A1008260B0
:103760008093A1008091A10081608093A10080914D
:10377000A00081608093A0008091210182608093ED
:10378000210180912101816080932101809120019C
:1037900081608093200180917A00846080937A0018
:1037A00080917A00826080937A0080917A008160B3
:1037B00080937A0080917A00806880937A001092DA
:1037C000C100E091020BF091030B82E08083E09155
:1037D000FE0AF091FF0A1082E091000BF091010BBC
:1037E00080E1808310920A0BE091060BF091070BA9
:1037F00086E08083E091040BF091050B808180616D
:103800008083E091040BF091050B808188608083B8
:10381000E091040BF091050B808180688083E0913A
:10382000040BF091050B80818F7D808304E717E006
:1038300062E0D8018C910E948403045E1F4FB9E0BE
:103840000C3D1B07A9F70CE31AE0F6EEEF2EFAE0A9
:10385000FF2E61E0F80180810E94840361E0D801BD
:103860008C910E94560362E370E080E090E00E9439
:10387000AC0460E0F80180810E945603065F1F4F90
:10388000E016F10631F761E082E00E948403609166
:10389000120282E00E94560380916A0690916B06A4
:1038A0001816190644F421E04CE070E060E084E171
:1038B00096E00E94A30780911206909113061816B5
:1038C000190644F421E04CE070E060E08CEB95E0F8
:1038D0000E94A3078091BA059091BB05181619069E
:1038E00044F421E04CE070E060E084E695E00E9462
:1038F000A3070091100210911102B80184E196E033
:103900000E941F08B8018CEB95E00E941F08B801C7
:1039100084E695E00E941F0888E793E00E94E60A8B
:1039200088E793E00E94A10A88E793E00E943F0A9B
:1039300088E793E00E94FA0988E49DED0E945C0903
:1039400068E37BE581E090E00E94640864EF71E049
:1039500080E090E00E94AC0470E060E084E196E0DA
:103960000E942B0B70E060E08CEB95E00E942B0B2B
:1039700070E060E084E695E00E942B0B6EE275E05B
:1039800083E00E941F0E88E090E19093E80D809301
:10399000E70D8EE79FE09093EC0D8093EB0D83E3B2
:1039A0009EE09093EE0D8093ED0D84EF9BE090935D
:1039B000F20D8093F10D88EF9BE09093F40D8093CE
:1039C000F30D8FE19CE09093F60D8093F50D89EF58
:1039D0009CE09093FE0D8093FD0D8FE19DE0909310
:1039E000000E8093FF0D6FE0262E312C44244A9464
:1039F000512CE0E86E2E712C80915A05882309F431
:103A00004BC054E7E52E57E0F52E00ED17E0D70147
:103A10008C910E942D036C01F70180859185C81659
:103A2000D90681F1C114D10409F0A5C0B801CE01B5
:103A300001960E94E80EBE016F5F7F4FCE01079690
:103A40000E94200F63E475E0CE0107960E949E0E4F
:103A5000BC01CE010D960E94200FCE010D960E9452
:103A6000DC0FCE010D960E944B0FCE0107960E94EF
:103A70004B0FCE0101960E944B0FD7011996DC9295
:103A8000CE921897BCE1EB0EF11C0F5F1F4F063E64
:103A9000E7E01E0709F0BBCF0CE616E0F12CE12CA5
:103AA000D8011B968C91823008F079C0F894C80137
:103AB0000E94E206F80187819085A185B2857894FD
:103AC00042E0B595A795979587954A95D1F7468990
:103AD0005789608D718D481759076A077B070CF06D
:103AE000A9C2868B978BA08FB18F80915A058823AE
:103AF00049F1B7016854744FCE010D960E94E80E4B
:103B0000BE01635F7F4FCE0107960E94200F63E4E2
:103B100075E0CE0107960E949E0EBC01CE01019673
:103B20000E94200FCE0101960E94DC0FCE0101966B
:103B30000E944B0FCE0107960E944B0FCE010D96AF
:103B40000E944B0FF4E0EF16F10409F035C280E457
:103B50000E942D03892B09F02CC3809112029091B1
:103B6000130240968F3F910509F0DCF49093130205
:103B7000809312021AC0F1E0CF16D10409F07DCF74
:103B8000B801CE0101960E94E80EBE016F5F7F4F23
:103B9000CE0107960E94200F66E475E055CFF89499
:103BA00089CF5092130240921202C0901202D0901C
:103BB0001302C6010E94B50380915A05882309F4B7
:103BC000F8C2B601CE0101960E94E80EBE016F5FF9
:103BD0007F4F8CE00E94530FCE0101960E944B0F45
:103BE0008FEFE81AF80A005E1F4FA6E0EA16F1040C
:103BF00009F056CF80E40E942D03892B09F0BFC045
:103C000084E00E942D03892B09F0B9C088E793E076
:103C10000E94E60A80916A0690916B0618161906B2
:103C20005CF4B5E0B093260625E043E070E060E088
:103C300084E196E00E94A30740E361E070E084E144
:103C400096E00E94310841E370E060E084E196E094
:103C50000E94310846E467E070E08CEB95E00E943A
:103C600031088091120690911306181619065CF41B
:103C70008DE18093D2052DE147E070E060E08CEBB0
:103C800095E00E94A30780911206909113061816E2
:103C900019065CF4E5E0E093D10525E046E070E02C
:103CA00060E08CEB95E00E94A30745E364E070E0E0
:103CB0008CEB95E00E94310840E563E070E08CEB0E
:103CC00095E00E94310841E462E070E08CEB95E001
:103CD0000E94310844E461E070E08CEB95E00E94C2
:103CE000310840E270E060E08CEB95E00E94310822
:103CF00041E367E070E084E695E00E9431084CE41F
:103D000066E070E084E695E00E94310842E365E0F9
:103D100070E084E695E00E94310840E564E070E0E0
:103D200084E695E00E94310840E263E070E084E6BA
:103D300095E00E94310888E793E00E94A10A68EBB1
:103D40007BE080E090E00E94AC0488E793E00E9472
:103D5000E60A88E793E00E94A10A88E793E00E94C0
:103D60003F0A88E793E00E94FA0988E49DED0E94EB
:103D70005C0968E37BE581E090E00E94640880E4F0
:103D80000E942D03892BE9F489E00E942D03892BE1
:103D9000C1F470E060E084E196E00E942B0B70E0DB
:103DA00060E08CEB95E00E942B0B70E060E084E615
:103DB00095E00E942B0B64EF71E080E090E00E94A0
:103DC000AC0480E40E942D03892B39F583E00E9426
:103DD0002D03892B11F5709213026092120280E874
:103DE00090E00E94B50380915A05882381F060E835
:103DF00070E0CE0101960E94E80EBE016F5F7F4F1A
:103E00008CE00E94530FCE0101960E944B0F64EF8D
:103E100071E080E090E00E94AC0480E40E942D03F9
:103E2000892B39F58BE00E942D03892B11F5109217
:103E300013021092120290E080E00E94B50380917C
:103E40005A05882381F070E060E0CE0101960E945F
:103E5000E80EBE016F5F7F4F8CE00E94530FCE01D2
:103E600001960E944B0F64EF71E080E090E00E94A9
:103E7000AC048091960B811192C18091E00D9091DC
:103E8000E10DDC01ED91FC910084F185E02D1995A7
:103E9000892B09F484C18091E00D9091E10DDC0142
:103EA000ED91FC910084F185E02D1995C12C32E053
:103EB000D32E8115924064F48091E00D9091E10D34
:103EC000DC01ED91FC910084F185E02D19956C01E8
:103ED0000091E00D1091E10D28ED822E2BE0922E45
:103EE0005401F12CE12CCE14DF0409F007C110E0DD
:103EF00000E0C016D10609F4BCCFD4019D914D015C
:103F00001092D80D3091E40D2091950B9093950B64
:103F1000931304C0921302C01092950B8091910BE1
:103F2000E82FF0E04091E20DE157F44F94131EC1E9
:103F3000321709F41BC11186882329F0B1E0B09330
:103F4000D80D1092950B1092910B1092DC0D1092DF
:103F5000DB0D1092DE0D1092DD0DE1E0E093D90D46
:103F6000F090D80DF1E0FF1217C10E94750288236E
:103F700009F406C1F092D90DF092DA0D8091DB0DB3
:103F80009091DC0D0E9426218093900B823308F0E3
:103F9000FCC02091DA0D222309F4F7C0FC01FF27B1
:103FA000EE0FFF1FE951F24F0190F081E02D3097A5
:103FB00009F4EBC01995F0C025E0E216F10409F010
:103FC0000FCE80E40E942D03892B09F013CE80913F
:103FD0001002909111020196803191052CF490937A
:103FE00011028093100204C030921102209210023C
:103FF000C0901002D0901102B60184E196E00E94B8
:104000001F08B6018CEB95E00E941F08B60184E6FC
:1040100095E00E941F0880915A05882309F4EACD93
:10402000B601CE0101960E94E80EBE016F5F7F4F80
:104030008BE0D0CD84179507A607B7070CF0D0CD3D
:10404000868B978BA08FB18F80915A05882349F179
:10405000B7016854744FCE010D960E94E80EBE0160
:10406000635F7F4FCE0107960E94200F69E475E0E1
:10407000CE0107960E949E0EBC01CE0101960E94C1
:10408000200FCE0101960E94DC0FCE0101960E9406
:104090004B0FCE0107960E944B0FCE010D960E944A
:1040A0004B0FF4E0EF16F10491F480E40E942D032D
:1040B000892B09F07EC080911202909113024097E3
:1040C00097FF54CD10921302109212026ECD25E08C
:1040D000E216F10409F084CD80E40E942D03892BBF
:1040E00009F088CD8091100290911102019797FFFD
:1040F00076CF10921102109210027ACF2FB7F89457
:1041000080915C0590915D05A0915E05B0915F0581
:104110002FBFF80180879187A287B387D801ED91DF
:10412000FC910284F385E02DC801199597FF3AC0F0
:104130002FB7F89480915C0590915D05A0915E0584
:10414000B0915F052FBFF801408551856285738569
:10415000841B950BA60BB70B448155816681778133
:1041600084179507A607B707C8F2C1CE91878F5F5E
:104170008093910B9091930B891708F0E4CEF0CEC9
:104180001092DA0D90E080E0FFCEE091E50DF09125
:10419000E60D309709F00ECF0F5F1F4FAACE0E9499
:1041A0005D062ACCD5018D935D01BFEFEB1AFB0AAA
:1041B0009ACE85E0E82EF12C005E1F4F71CCCF9394
:1041C000DF93CCE2D7E0A097CE014A960E944B0F36
:1041D000CE0140960E944B0F86E0CC36D80799F767
:1041E000CCEDD9E06C97CE0146960E944B0FCE01E4
:1041F00040960E944B0FCE010A960E944B0FCE01B3
:1042000002960E944B0F87E0C437D80759F7CCE3DA
:10421000DAE06097CE010E944B0F89E0CC3DD807D1
:10422000C1F7C6EEDAE02A97CE0102960E944B0F44
:104230008AE0CC33D807B9F786EE9AE00E944B0F9C
:104240008CEE9AE0DF91CF910C944B0FFC01882704
:104250009927E89421912032E9F3293010F02E308B
:10426000C8F32B3241F02D3239F4689404C00E9417
:104270008B21820F911D219120532A30C0F31EF40F
:10428000909581959F4F08951F93FC01992788274A
:10429000BC01E89411911032E9F3193010F01E308E
:1042A000C8F31B3251F01D3249F4689406C00E94D5
:1042B0007621610F711D811D911D119110531A30CE
:1042C000B0F33EF490958095709561957F4F8F4F38
:1042D0009F4F1F910895BB274A3031F4992322F450
:1042E000BDE2909581959F4F0C949421592F482FB2
:1042F000372F262F660F771F881F991F660F771F8E
:10430000881F991F620F731F841F951F660F771FE9
:10431000881F991F08957AE0979F902D879F802D81
:10432000910D11240895BB27FB015527AA27880F5B
:10433000991FAA1FA41710F0A41B83955051B9F719
:10434000A05DAA3308F0A95DA193009779F7B11198
:10435000B1931192CB010C94AD21DC01FC01672FCC
:1043600071917723E1F7329704C07C916D9370834C
:104370006291AE17BF07C8F3089597FB072E16F496
:10438000009407D077FD09D00E941A2207FC05D0BF
:104390003EF4909581959F4F0895709561957F4F5C
:1043A0000895A1E21A2EAA1BBB1BFD010DC0AA1F76
:1043B000BB1FEE1FFF1FA217B307E407F50720F08E
:1043C000A21BB30BE40BF50B661F771F881F991F09
:1043D0001A9469F760957095809590959B01AC0152
:1043E000BD01CF010895052E97FB1EF400940E9495
:1043F0000A2257FD07D00E94D12107FC03D04EF4BA
:104400000C940A2250954095309521953F4F4F4F7F
:104410005F4F089590958095709561957F4F8F4F70
:104420009F4F0895EE0FFF1F881F8BBF0790F691D7
:10443000E02D1994AA1BBB1B51E107C0AA1FBB1F8B
:10444000A617B70710F0A61BB70B881F991F5A9520
:10445000A9F780959095BC01CD0108950F931F9306
:10446000CF93DF938230910510F482E090E0E091E9
:104470004D0EF0914E0E30E020E0B0E0A0E030971D
:1044800099F42115310509F44AC0281B390B243051
:104490003105D8F58A819B816115710589F1FB0190
:1044A00093838283FE0111C0408151810281138177
:1044B00048175907E0F04817590799F4109761F029
:1044C00012960C93129713961C933296CF01DF919C
:1044D000CF911F910F91089500934D0E10934E0EA2
:1044E000F4CF2115310551F04217530738F0A901D7
:1044F000DB019A01BD01DF01F801C1CFEF01F9CF66
:1045000090934E0E80934D0ECDCFFE01E20FF31F20
:10451000819391932250310939832883D7CF2091F9
:104520004B0E30914C0E232B41F42091160230910A
:10453000170230934C0E20934B0E209114023091B1
:1045400015022115310541F42DB73EB740911802EF
:1045500050911902241B350BE0914B0EF0914C0E3B
:10456000E217F307A0F42E1B3F0B2817390778F04A
:10457000AC014E5F5F4F2417350748F04E0F5F1FA9
:1045800050934C0E40934B0E819391939FCFF0E04C
:10459000E0E09CCFCF93DF930097E9F0FC013297E6
:1045A00013821282A0914D0EB0914E0EED0130E0BB
:1045B00020E01097A1F420813181820F931F209178
:1045C0004B0E30914C0E2817390709F061C0F0935B
:1045D0004C0EE0934B0EDF91CF910895EA01CE1778
:1045E000DF07E8F54A815B819E0141155105B1F76E
:1045F000E901FB83EA8349915991C40FD51FEC1758
:10460000FD0761F4808191810296840F951FE90175
:1046100099838883828193819B838A83F0E0E0E0A1
:1046200012968D919C9113970097B9F52D913C911D
:104630001197CD010296820F931F20914B0E30915E
:104640004C0E2817390739F6309751F510924E0E57
:1046500010924D0EB0934C0EA0934B0EBCCFD38353
:10466000C28340815181840F951FC817D90761F417
:104670004E5F5F4F88819981480F591F5183408356
:104680008A819B81938382832115310509F0B0CF04
:10469000F0934E0EE0934D0E9ECFFD01DC01C0CF96
:1046A00013821282D7CF4F925F926F927F928F9236
:1046B0009F92AF92BF92CF92DF92EF92FF920F93B1
:1046C0001F93CF93DF938C01009799F4CB01DF9177
:1046D000CF911F910F91FF90EF90DF90CF90BF90FF
:1046E000AF909F908F907F906F905F904F900C94C1
:1046F0002E22FC01E60FF71F9C0122503109E21720
:10470000F30708F4AEC0D901CD91DC911197C6171B
:10471000D70720F1C530D10578F0CE010497861770
:10472000970750F0C61BD70B2297C193D1936D9377
:104730007C93CF010E94CA22C801DF91CF911F91C3
:104740000F91FF90EF90DF90CF90BF90AF909F9030
:104750008F907F906F905F904F9008955B01AC1A9F
:10476000BD0A4C018C0E9D1EA0914D0EB0914E0EB7
:10477000512C412CF12CE12C109731F580914B0EEE
:1047800090914C0E8815990509F05CC046165706A5
:1047900008F058C08091140290911502009741F4DE
:1047A0008DB79EB74091180250911902841B950B4A
:1047B000E817F90708F055C0F0934C0EE0934B0E44
:1047C000F90171836083B8CF8D919C9111971296F6
:1047D0006C90129713967C901397A815B90559F50C
:1047E0006C0142E0C40ED11CCA14DB0420F1AC0100
:1047F0004A195B09DA011296159780F0628273827A
:1048000051834083D9016D937C93E114F10471F0DD
:10481000D7011396FC93EE9312978ECF22968C0FAE
:104820009D1FF90191838083F301EFCFF0934E0E2A
:10483000E0934D0E81CF4816590608F42C017D01F6
:10484000D3019ACFCB010E942E227C01009749F020
:10485000AE01B8010E943424C8010E94CA22870117
:104860006BCF10E000E068CFFB01DC0102C00190DB
:104870000D9241505040D8F70895FB01DC018D9115
:10488000019080190110D9F3990B0895FB01DC0107
:1048900001900D920020E1F7089512E0C0E2D2E00D
:1048A00000E006C0802FFE010E9412222196011D09
:0E48B000C132D10780E00807A9F7F894FFCFC6
:1048BE00DE04DE04DE04DE04DE04DE04DE04DE04DA
:1048CE000800800000004F0E800000000000F00580
:1048DE005A0587053D06B8059605AA050D0A005529
:1048EE004E4B4E4F574E20434F4D4D414E4400536D
:1048FE005441525400454E4400494E4954004155CE
:10490E0054484F523D005343414E53544154450079
:10491E0053544154455343414E0050494E47005065
:10492E004F4E4700434F4E464947004C45443D00CD
:10493E004C454E4754483D0057494454483D004865
:10494E0045494748543D004144442C31312C44499B
:10495E0053504C5F4252492C55382C52572C4469B7
:10496E0073706C6179732C4D4350207365676D6560
:10497E006E7473206469736C6179732062726967F7
:10498E0068746E6573732066726F6D203020746F5D
:10499E00203135004144442C31322C42434B4C548F
:1049AE005F4252492C55382C52572C4261636B6C26
:1049BE00696768742C4D4350206261636B6C696744
:1049CE006874206272696768746E657373206672AC
:1049DE006F6D203020746F203235350033363062E3
:1049EE003831326566313064333365353435376589
:1049FE00653762343132383435333666007B3834BD
:104A0E003637366633642D646464662D3438633409
:104A1E002D616234632D3833396632343262363367
:104A2E0065307D0046444C4546545F4C4544004E2F
:104A3E00315F4C45440053504545445F4C4544005E
:104A4E00564E41565F4C4544004C564C4348475FCA
:104A5E004C4544004844475F4C4544004C4E41563B
:104A6E005F4C454400564F524C4F435F4C454400FB
:104A7E004150505F4C454400414C54484C445F4CAF
:104A8E0045440056535F4C454400434D44415F4CF2
:104A9E00454400434D44425F4C4544004357534107
:104AAE005F4C454400435753425F4C4544004644D7
:104ABE0052494748545F4C45440041545F4C45446D
:104ACE00004352534C4546545F44495350004941AC
:104ADE00534D4143485F44495350004844475F4457
:104AEE0049535000414C545F444953500056535F54
:104AFE00444953500043525352494748545F444926
:104B0E0053500046444C454654005357495443486D
:104B1E00004154004E3100535041445F50555348AC
:104B2E00425554544F4E00535045454400434F0098
:104B3E00535044494E545600564E4156004C564C16
:104B4E0043484700484447004C4E415600564F528A
:104B5E004C4F430041505000414C54484C4400418E
:104B6E004C54494E545600565300434D4441004355
:104B7E004D4442004357534100435753420044496A
:104B8E0053454E4741474500464452494748540015
:104B9E0042414E4B004352534C4546545F454E43A3
:104BAE0000535041445F454E434F444552004941E6
:104BBE00534D4143485F454E43004844475F454E81
:104BCE004300414C545F454E430056535F454E43A0
:104BDE000043525352494748545F454E4300415497
:104BEE0054414348494E472043414C4C4241434B6C
:0E4BFE005321002C31002C30002C2D310000F2
:00000001FF
