:100000000C943E020C947E150C9453150C942815F8
:100010000C94FD140C94D2140C94A7140C947C141E
:100020000C9451140C946F020C946F020C946F0298
:100030000C946F020C946F020C946F020C946F027C
:100040000C946F020C946F020C946F020C946F026C
:100050000C946F020C946F020C946F020C940714B2
:100060000C946F020C94D3150C94A9150C946F0288
:100070000C946F020C946F020C946F020C946F023C
:100080000C946F020C946F020C946F020C946F022C
:100090000C946F020C946F020C946F020C946F021C
:1000A0000C946F020C946F020C946F020C946F020C
:1000B0000C946F020C946F020C946F020C946F02FC
:1000C0000C946F020C946F020C946F020C946F02EC
:1000D0000C946F020C946F020C946F020C946F02DC
:1000E0000C946F020C9495040C940D040C9413035F
:1000F0000C94FB040C94D5050C9441030C948104DE
:100100000C94B3050C9447070C942A030C9409161D
:100110000C94410C0C94C7050C945A060C9454048E
:100120000C940F030C9434030C944D070C94380476
:100130000C949F040C941C040C9477040C942603D8
:100140000C9440040C948B040C9442030C945307BD
:100150000C94500F0C9406040C94670C0C941C0324
:100160000C940B030C940D060C9454220C9407036E
:100170000C942E030C9409130C9446030C94120453
:100180000C9401030C946D040C9416030C944A0413
:100190000C94C60E0C943C030C9430040C94410750
:1001A0000C9438030C9420030C94160C0C945E04ED
:1001B0000C94A4050C941A0C0C9477050C9426044A
:1001C0000C947B0D4E414E494E495459494E46CDF3
:1001D000CCCC3D0AD7233C17B7D13877CC2B3295FE
:1001E00095E6241FB14F0A000020410000C84200DC
:1001F000401C4620BCBE4CCA1B0E5AAEC59D744660
:100200004F524547524F554E443D2346464646467B
:100210004600524F573D3100535041445F444953CB
:10022000504C415900444953504C4159004F55548A
:1002300050555400524F555445544F3D4844475F24
:10024000454E430048494444454E3D310055495FC1
:100250005354594C453D300055495F545950453D24
:100260003200494E5055540048494444454E3D31B2
:1002700000535041445F4C4544004C4544004F55A9
:100280005450555400454E434F44455200494E503A
:100290005554004E4F5F444953504C41595F434CB5
:1002A0004541523D310050414745535550504F5202
:1002B000543D3000495347454E455249433D310076
:1002C0004F5054494F4E0043465420373337204D4A
:1002D00043500053504144000000210024002700F7
:1002E0002A002D0030003300010100000401070145
:1002F0000A0100002200250028002B002E003100FA
:10030000340002010000050108010B01000020007B
:100310002300260029002C002F00320000010000DD
:100320000301060109010505050507050808080878
:10033000020202020A0A080804040404010101017D
:100340000101010103030303030303030407070778
:100350000C0C0C0C0C0C0C0C02020202060606061D
:10036000060606060B0B0B0B0B0B0B0B01021020EA
:1003700020080810204010204080020102010804DB
:10038000020101020408102040808040201008046F
:1003900002018004020180402010080402010804C8
:1003A000020101020408102040800102040810200C
:1003B00040807E306D79335B5F707F7B771F0D3DB2
:1003C0004F47000000000000000000000000000097
:1003D000000000000000000000000000000080019C
:1003E00080007E306D79335B5F707F7B00000000A2
:1003F000000000771F0D3D4F4700370000000E0042
:100400000000670000000000000000000000000085
:10041000000800771F0D3D4F4700370000000E0019
:10042000151D670000000000000000000000000033
:10043000000000000A0B02090C0D0E08070304015E
:1004400000000000000000000000000000000000AC
:100450000000000000000000000000000000121179
:10046000100000000000000000000000000000007C
:1004700000000000000000000916542211241FBED5
:10048000CFEFD1E2DEBFCDBF00E00CBF2EE0AEE487
:10049000B5E001C01D92A535B207E1F715E0A0E077
:1004A000B2E0E6E3F2E500E00BBF02C007900D9278
:1004B000AE34B107D9F712E0CDE3D2E000E006C0D8
:1004C00021970109802FFE010E94CE26CC33D1074F
:1004D00080E00807A9F70E949F1C0C9409290C943E
:1004E0000000AC011092980B9091E80D8091E70DFF
:1004F000FA01BF01641B750B2091980B308130937A
:10050000980B931304C0921302C01092980B308181
:10051000311104C0921721F0CB0108953817D1F39F
:100520003196E7CF0F931F93CF93DF938091DC0D2C
:10053000882309F446C0D0E0C0E0813029F482E08D
:100540008093DC0DCCE9DBE08091DD0D882341F167
:10055000209721F4C091E10DD091E20D8E01CE01E2
:100560000E947102892B29F42196F8018081811162
:10057000F5CFF8018081882309F1C8010E9471023A
:10058000F801E80FF91F8081882311F0108231965D
:10059000F093E20DE093E10D1093E00D0093DF0D79
:1005A0008091DF0D9091E00D892B59F081E08093CF
:1005B000DD0DDF91CF911F910F91089510E000E0C4
:1005C000EBCF80E0F6CF8150823108F05AC0E82F9F
:1005D000F0E08827E151FD4F8F4F0C94CE260F039A
:1005E0001303010307030B03410316031C0320033A
:1005F00026032A032E033403380341033C0342033A
:100600004603809180008F778093800008958091C9
:1006100080008F7DF9CF80918000877FF5CF84B5F2
:100620008F7784BD089584B58F7DFBCF8091B00016
:100630008F778093B00008958091B0008F7DF9CFBF
:10064000809190008F778093900008958091900022
:100650008F7DF9CF80919000877FF5CF8091A000AA
:100660008F778093A00008958091A0008F7DF9CFAF
:100670008091A000877FF5CF809120018F778093B4
:1006800020010895809120018F7DF9CF8091200174
:10069000877FF5CFCF93DF93282F30E0F901EE5C11
:1006A000FB4F8491F901E459FC4FD491F901EA5DC3
:1006B000FC4FC491CC23A1F081110E94E302EC2FE6
:1006C000F0E0EE0FFF1FE45FFC4FA591B491EC91B9
:1006D000ED2381E090E009F480E0DF91CF9108956F
:1006E00080E090E0FACF1F93CF93DF93282F30E084
:1006F000F901EE5CFB4F8491F901E459FC4FD49170
:10070000F901EA5DFC4FC491CC23A9F0162F8111A9
:100710000E94E302EC2FF0E0EE0FFF1FEE50FD4FC2
:10072000A591B4918FB7F894EC91111108C0D095B0
:10073000DE23DC938FBFDF91CF911F910895DE2BD5
:10074000F8CFCF93DF9390E0FC01E459FC4F249164
:100750008A5D9C4FFC0184918823D1F090E0880F42
:10076000991FFC01E852FD4FA591B491FC01EE5098
:10077000FD4FC591D491623071F49FB7F8943C91CC
:10078000822F809583238C93E8812E2B28839FBF13
:10079000DF91CF9108958FB7F894EC912E2B2C9385
:1007A0008FBFF6CFCF93DF93EC0161E082E00E9430
:1007B000A103209731F460E082E0DF91CF910C94A7
:1007C0007303CF3FD10511F461E0F6CFE4E3F4E029
:1007D000E491E150E23108F0B2C0F0E08827EC503B
:1007E000FC4F8F4F0C94CE2606040D0412041C04FB
:1007F00026049F043004380440044A0454045E0470
:100800006D0477049F0481048B04950484B580688B
:1008100084BDC7BDDF91CF91089584B5806284BD4A
:10082000C8BDF8CF80918000806880938000D0930D
:100830008900C0938800EECF809180008062809311
:100840008000D0938B00C0938A00E4CF8091800019
:10085000886080938000D0938D00C0938C00DACFA5
:100860008091B00080688093B000C093B300D2CF75
:100870008091B00080628093B000C093B400CACF72
:1008800080919000806880939000D0939900C093ED
:100890009800C0CF80919000806280939000D093A8
:1008A0009B00C0939A00B6CF80919000886080939F
:1008B0009000D0939D00C0939C00ACCF8091A0008D
:1008C00080688093A0008091A0008F7B8093A0001F
:1008D000D093A900C093A8009DCF8091A000806212
:1008E0008093A000D093AB00C093AA0093CF8091D7
:1008F000A00088608093A000D093AD00C093AC00AE
:1009000089CF80912001806880932001D0932901B4
:10091000C09328017FCF80912001806280932001C5
:10092000D0932B01C0932A0175CF8091200188605C
:1009300080932001D0932D01C0932C016BCFC03840
:10094000D1050CF041CF37CF3FB7F89480916405C3
:1009500090916505A0916605B091670526B5A89BA5
:1009600005C02F3F19F00196A11DB11D3FBFBA2F41
:10097000A92F982F8827BC01CD01620F711D811D01
:10098000911D42E0660F771F881F991F4A95D1F786
:1009900008958F929F92AF92BF92CF92DF92EF9283
:1009A000FF924B015C010E94A4046B017C010E9438
:1009B000A4046C197D098E099F09683E7340810566
:1009C0009105A8F321E0821A9108A108B10888EEE8
:1009D000C80E83E0D81EE11CF11C81149104A1040F
:1009E000B10429F7FF90EF90DF90CF90BF90AF90C8
:1009F0009F908F9008950895DC01ED91FC910190F6
:100A0000F081E02D1994EF92FF920F931F93CF93F3
:100A1000DF932091930B2223E9F08C016091E70D85
:100A20008091E40D9091E50D0E94FC04E090E40DAE
:100A3000F090E50DE801FE016491662359F0D701BD
:100A4000ED91FC910190F081E02DC701199521965F
:100A5000892B89F7DF91CF911F910F91FF90EF9034
:100A60000895CF93DF932091930B2223D1F0EC01D3
:100A70006091E70D8091E40D9091E50D0E94FC04DA
:100A80008091E40D9091E50D4C815D8168817981C3
:100A9000DC01ED91FC910280F381E02DDF91CF919B
:100AA0001994DF91CF910895CF93DF932091930B09
:100AB0002223D1F0EC016091E70D8091E40D90913B
:100AC000E50D0E94FC048091E40D9091E50D4C81B0
:100AD0005D8168817981DC01ED91FC910280F38177
:100AE000E02DDF91CF911994DF91CF910895AF92CE
:100AF000BF92CF92DF92EF92FF920F931F93CF930B
:100B0000DF936C017B018B01040F151FEB015E016C
:100B1000AE18BF08C017D10759F06991D601ED9101
:100B2000FC910190F081E02DC6011995892B79F790
:100B3000C501DF91CF911F910F91FF90EF90DF9052
:100B4000CF90BF90AF900895FC01538D448D252F19
:100B500030E0842F90E0821B930B541710F0CF9657
:100B6000089501970895FC01918D828D981761F089
:100B7000A28DAE0FBF2FB11D5D968C91928D9F5FA0
:100B80009F73928F90E008958FEF9FEF0895FC017F
:100B9000918D828D981731F0828DE80FF11D858D32
:100BA00090E008958FEF9FEF0895FC01918D228DC5
:100BB000892F90E0805C9F4F821B91098F7399274A
:100BC000089586EF9AE00E94D50521E0892B09F46B
:100BD00020E0822F0895FC01A48DA80FB92FB11D2C
:100BE000A35ABF4F2C91848D90E001968F73992763
:100BF000848FA689B7892C93A089B1898C91837041
:100C000080648C93938D848D981306C00288F38939
:100C1000E02D80818F7D80830895EF92FF920F9366
:100C20001F93CF93DF93EC0181E0888F9B8D8C8D98
:100C300098131AC0E889F989808185FF15C09FB78C
:100C4000F894EE89FF896083E889F989808183704F
:100C5000806480839FBF81E090E0DF91CF911F91FE
:100C60000F91FF90EF900895F62E0B8D10E00F5F1F
:100C70001F4F0F731127E02E8C8D8E110CC00FB6F5
:100C800007FCFACFE889F989808185FFF5CFCE018D
:100C90000E94EB05F1CFEB8DEC0FFD2FF11DE35A18
:100CA000FF4FF0829FB7F8940B8FEA89FB89808110
:100CB0008062CFCFCF93DF93EC01888D8823B9F08A
:100CC000AA89BB89E889F9898C9185FD03C0808157
:100CD00086FD0DC00FB607FCF7CF8C9185FFF2CFD4
:100CE000808185FFEDCFCE010E94EB05E9CFDF913A
:100CF000CF91089580E090E0892B29F00E94E105D2
:100D000081110E94000080E090E0892B49F080E092
:100D100090E0892B29F00E94000081110E940000C0
:100D200080E090E0892B49F080E090E0892B29F069
:100D30000E94000081110E94000080E090E0892B59
:100D400049F080E090E0892B29F00E940000811199
:100D50000C9400000895833171F120F48231E9F19F
:100D600080E008958431A9F08531D1F7709353055F
:100D70006093520583E597E0909305028093040207
:100D8000809169008C7F816080936900E89A81E09E
:100D9000089570935505609354058DE497E0909302
:100DA00007028093060280916900837F84608093AC
:100DB0006900E99AECCF709357056093560587E474
:100DC00097E09093090280930802809169008F7CDC
:100DD000806180936900EA9ADACF70935905609335
:100DE000580581E497E090930B0280930A0280916A
:100DF00069008F73806480936900EB9AC8CFDC012F
:100E0000ED91FD918081ED91FD919081ED91FD91AC
:100E10006C9163708E2309F064609F2309F0686011
:100E2000ECE1F7E0E60FF11D659565956D936D9129
:100E30007D918D919D91099423C01AC012C016C056
:100E400010C01EC009C014C013C006C019C009C01C
:100E50000DC007C00DC014C062507040804090406B
:100E60000BC0615070408040904006C06E5F01C072
:100E70006F5F7F4F8F4F9F4F9E938E937E936E93A6
:100E8000089580915805909159050C94FF06809122
:100E90005605909157050C94FF068091540590914A
:100EA00055050C94FF0680915205909153050C94C2
:100EB000FF0680915005909151050C94FF0680919A
:100EC0004E0590914F050C94FF060F931F93CF93FF
:100ED000DF93EC01062F142F62E0802F0E94A10304
:100EE00062E0812F0E94A103802F90E0FC01EA5D67
:100EF000FC4FE491F0E0EE0FFF1FE45FFC4FA59183
:100F0000B491B983A883FC01E459FC4F24912C834C
:100F1000812F90E0FC01EA5DFC4FE491F0E0EE0FE0
:100F2000FF1FE45FFC4F459154915B834A83FC01B2
:100F3000E459FC4FE491ED831F82188619861A86C6
:100F40008BE39FE10197F1F78C91282391E009F45D
:100F500090E0DA018C91E82309F092609E83BE0153
:100F6000802F0E94AB068B87BE01812F0E94AB06AB
:100F70009B85890F8B87DF91CF911F910F910895EA
:100F80004F925F926F927F928F929F92AF92BF9299
:100F9000CF92DF92EF92FF920F931F93CF93DF9345
:100FA0001F921F92CDB7DEB78C0149832A83660F4B
:100FB000771FF801EA5AFF4FE080F180EE0CFF1C2A
:100FC000F801CF01801B910B8E159F0514F411922F
:100FD000F8CF8981F801E60FF71F81838A8180832A
:100FE000680184E5C80ED11C60E0F60180810E9492
:100FF00073035801F2E5AF0EB11C480180E5880E7D
:10100000911C1E141F040CF5E1E0EE1AF108F80122
:10101000EE0DFF1D6080F5015080F401408088E0F6
:10102000782E662D661F6627661F842D0E94730327
:10103000660C61E0852D0E94730360E0852D0E949F
:1010400073037A947110EDCFDCCF61E0F6018081FB
:101050000F900F90DF91CF911F910F91FF90EF9024
:10106000DF90CF90BF90AF909F908F907F906F90C8
:101070005F904F900C947303FC01EA5AFF4F20815C
:101080003181121613064CF46031710530F4262FAD
:101090004AE070E060E00C94C0070895E42FDC01A2
:1010A000AA5ABF4F4D915C9114161506A4F40E2E4A
:1010B000000CFF0BEE54FC4FE4912111E068DC01C1
:1010C000A60FB71F5096EC9341E0460F2E2F70E00D
:1010D00060E00C94C0070895FC01EA5AFF4F0190AC
:1010E000F081E02D1E161F06ACF4403198F4E42F79
:1010F000F0E0EE54FC4FE4912111E068DC01A60F12
:10110000B71F5096EC9341E0460F2E2F70E060E041
:101110000C94C0070895CF92DF92EF92FF92CF9385
:10112000DF936B017C01DC01CB01825F984DAF4FF7
:10113000BF4F8E3A9D4AA140B10570F120E040E2D8
:1011400064E070E080EC95E00E944E0820E040E210
:1011500063E070E080EC95E00E944E0820E040E201
:1011600062E070E080EC95E00E944E0820E040E2F2
:1011700061E070E080EC95E00E944E0820E040E2E3
:1011800070E060E080EC95E0DF91CF91FF90EF9010
:10119000DF90CF900C944E08C0E0F7FE09C0F094A9
:1011A000E094D094C094C11CD11CE11CF11CC1E09E
:1011B000C701B6012AE030E040E050E00E94AF26CF
:1011C000D62F20E04DE2C11167C080E1C81687E24A
:1011D000D806E104F1040CF45DC0C701B60120E1BA
:1011E00037E240E050E00E94AF26422F20E064E06A
:1011F00070E080EC95E00E946C08C701B60128EE13
:1012000033E040E050E00E94AF26C9016AE070E0A0
:101210000E94792620E0482F63E070E080EC95E0A2
:101220000E946C08C701B60124E630E040E050E0BF
:101230000E94AF26C9016AE070E00E94792620E092
:10124000482F62E070E080EC95E00E946C08C701D6
:10125000B6012AE030E040E050E00E94AF26C9012C
:101260006AE070E00E94792620E0482F61E070E09B
:1012700080EC95E00E946C0820E04D2F70E060E06B
:1012800080EC95E0DF91CF91FF90EF90DF90CF90D1
:101290000C946C0820E040E264E070E080EC95E0A3
:1012A0000E944E0828EEC21623E0D206E104F104A3
:1012B0000CF0A3CF20E040E263E070E080EC95E02A
:1012C0000E944E0884E6C816D104E104F1040CF033
:1012D000A9CF20E040E262E070E080EC95E00E945F
:1012E0004E082AE0C216D104E104F1040CF0AFCF9D
:1012F00020E040E261E070E080EC95E00E944E0862
:10130000BBCF1F93CF93DF93EC01825F984D8E315B
:101310009E4458F120E040E267E070E088E695E006
:101320000E944E0820E040E266E070E088E695E02A
:101330000E944E0820E040E265E070E088E695E01B
:101340000E944E0820E040E264E070E088E695E00C
:101350000E944E0820E040E263E070E088E695E0FD
:10136000DF91CF911F910C944E0820E0D7FF04C06D
:10137000D195C195D10921E0CE016AE070E00E94CB
:101380007926182F222309F449C020E04DE267E0B6
:1013900070E088E695E00E944E08C83E83E0D807DA
:1013A0000CF43FC0CE0168EE73E00E947926462F10
:1013B00020E066E070E088E695E00E946C08CE01CF
:1013C00064E670E00E947926CB016AE070E00E943A
:1013D000792620E0482F65E070E088E695E00E94DD
:1013E0006C082AE030E0CE01B9010E947926CB01D9
:1013F000B9010E94792620E0482F64E070E088E679
:1014000095E00E946C0820E0412F63E070E088E6E0
:1014100095E0DF91CF911F910C946C0820E040E2A1
:10142000B6CF20E040E266E070E088E695E00E94FA
:101430004E08C436D1051CF620E040E265E070E0BD
:1014400088E695E00E944E08CA30D10554F620E0A7
:1014500040E264E070E088E695E00E944E08D3CF59
:10146000CF93DF939C018E599F4F8A349440D0F0E4
:1014700020E040E267E070E080EC95E00E944E08DA
:1014800020E040E266E070E080EC95E00E944E08CB
:1014900020E040E265E070E080EC95E0DF91CF91E4
:1014A0000C944E0840E037FF04C031952195310976
:1014B00041E0EAE0F0E0C901BF010E947926C82FAF
:1014C000CB01BF010E947926D82F4423D1F020E020
:1014D0004DE267E070E080EC95E00E944E0820E06D
:1014E0004D2F66E070E080EC95E00E946C0820E0F3
:1014F0004C2F65E070E080EC95E0DF91CF910C948B
:101500006C08C90164E670E00E947926462F20E04D
:1015100067E070E080EC95E00E946C08E0CFCF932C
:10152000DF939C018E599F4F8A349440D0F020E085
:1015300040E262E070E088E695E00E944E0820E01C
:1015400040E261E070E088E695E00E944E0820E00D
:1015500040E270E060E088E695E0DF91CF910C9486
:101560004E0840E037FF04C031952195310941E034
:10157000EAE0F0E0C901BF010E947926C82FCB0143
:10158000BF010E947926D82F4423D1F020E04DE2FC
:1015900062E070E088E695E00E944E0820E04D2F62
:1015A00061E070E088E695E00E946C0820E04C2F36
:1015B00070E060E088E695E0DF91CF910C946C08D4
:1015C000C90164E670E00E947926462F20E062E0BF
:1015D00070E088E695E00E946C08E0CFCF93DF933F
:1015E0009C018E599F4F8A349440D0F020E040E215
:1015F00067E070E088E196E00E944E0820E040E25B
:1016000066E070E088E196E00E944E0820E040E24B
:1016100065E070E088E196E0DF91CF910C944E0890
:1016200040E037FF04C031952195310941E0EAE0FF
:10163000F0E0C901BF010E947926C82FCB01BF018C
:101640000E947926D82F4423D1F020E04DE267E0B4
:1016500070E088E196E00E944E0820E04D2F66E0A1
:1016600070E088E196E00E946C0820E04C2F65E075
:1016700070E088E196E0DF91CF910C946C08C9018D
:1016800064E670E00E947926462F20E067E070E073
:1016900088E196E00E946C08E0CFDF92EF92FF9223
:1016A0000F931F93CF93DF93FC01EA5AFF4F2081E2
:1016B000318162177307C4F47B018C01EB0183E075
:1016C000CC0FDD1F8A95E1F76096C00FD11FDD2496
:1016D000D394199220E04D2DB701C8010E94C00794
:1016E000D39489E0D812F5CFDF91CF911F910F915C
:1016F000FF90EF90DF9008958F929F92AF92BF92EC
:10170000CF92DF92EF92FF920F931F93CF93DF93CD
:101710008C01D62EC72EEC01C05BDF4F6883798326
:101720004C0182E5880E911CF401518340835801DD
:10173000F4E5AF0EB11CF501318320837801F6E5A5
:10174000EF0EF11C81E090E0F7019183808361E06E
:101750008D2D0E94A10361E0F40180810E94A1030C
:1017600061E0F50180810E94A10361E0F5018081C3
:101770000E947303D882C982F80170961192EC1707
:10178000FD07E1F7D0E0C0E0F70180819181C81743
:10179000D90754F520E04FE0BE01C8010E94C00700
:1017A000F70180819181C817D90734F427E04BE015
:1017B000BE01C8010E94C00720E049E0BE01C80187
:1017C0000E94C007BE01C8010E944D0BF701808135
:1017D0009181C817D90734F420E04CE0BE01C8015C
:1017E0000E94C0072196D0CFDF91CF911F910F911A
:1017F000FF90EF90DF90CF90BF90AF909F908F9031
:1018000008950E949202882359F081E08093DD0DB3
:101810008093DE0D8091DF0D9091E00D0C941724E4
:101820001092DE0D60E070E0CB0108950E94010C83
:101830000C94010CCF92DF92EF92FF920E94010C68
:101840006B010E94010C672B682B692B81F08AE0E9
:101850008C9DF0018D9DF00D1124E05CF54F61E051
:101860008081FF90EF90DF90CF900C9473038AE01B
:101870008C9DF0018D9DF00D1124E05CF54F60E032
:10188000EFCFCF92DF92EF92FF920E94010C6B019B
:101890007C0180E1C816D104E104F10498F4B6019A
:1018A00088E196E00E943C08B60180EC95E00E9439
:1018B0003C08B60188E695E00E943C08D0921102EF
:1018C000C0921002FF90EF90DF90CF900895CF92DA
:1018D000DF92EF92FF920E94010C6B017C018FEF6F
:1018E000C816D104E104F10409F038F4C6010E94DD
:1018F000D203D0921302C0921202FF90EF90DF90B9
:10190000CF900895FB0101900020E9F73197AF01D6
:10191000461B570BDC01ED91FC910280F381E02D19
:1019200019948091930B8823A1F06091E60D80912A
:10193000E40D9091E50D0E94FC0480919B0B88239F
:1019400041F06CE272E08091E40D9091E50D0E940F
:10195000820C10929A0B1092930B80E008958F9254
:101960009F92AF92BF92EF92FF920F931F93CF93EC
:10197000DF93CDB7DEB7A1970FB6F894DEBF0FBEE9
:10198000CDBF7C01FA01CB0119A2223008F42AE074
:101990008E010F5D1F4F822E912CB12CA12CBF0107
:1019A000A50194010E948D26F901CA016A300CF547
:1019B000605DD8016E938D01232B242B252B79F7A5
:1019C00090E080E0109721F0BD01C7010E94820CD9
:1019D000A1960FB6F894DEBF0FBECDBFDF91CF91B9
:1019E0001F910F91FF90EF90BF90AF909F908F90BD
:1019F0000895695CDECF9091930B911110C091E036
:101A00009093930B90939A0B482F50E070E060E016
:101A10002AE08091E40D9091E50D0C94AF0C0895AF
:101A2000CF92DF92EF92FF92CF93DF932091930BAF
:101A3000222359F16C016091E70D8091E40D9091A2
:101A4000E50D0E94FC04C091E40DD091E50D0D2C34
:101A5000000CEE08FF082AE0B701A601F7FE0CC053
:101A60006DE2CE010E94FC0444275527BA014C19AF
:101A70005D096E097F092AE0CE01DF91CF91FF90C9
:101A8000EF90DF90CF900C94AF0CDF91CF91FF904F
:101A9000EF90DF90CF900895CF93DF932091930B39
:101AA000222391F0EC016091E70D8091E40D90917B
:101AB000E50D0E94FC04BE018091E40D9091E50DBE
:101AC000DF91CF910C94820CDF91CF910895CF9349
:101AD000DF939091930B91110AC0EB010E94FB0CD4
:101AE000CE010E944C0DDF91CF910C94910C80E0BF
:101AF000DF91CF9108956FE272E083E00C94670D5F
:101B00000F931F93CF93DF93EC0188819981009706
:101B100059F02A813B812617370730F081E0DF91A9
:101B2000CF911F910F9108958B016F5F7F4F0E949E
:101B30000F28009759F0998388831B830A832C818F
:101B40003D81232B59F7FC011082E8CF80E0E7CFDD
:101B5000EF92FF920F931F93CF93DF93611571055F
:101B600041F480E0DF91CF911F910F91FF90EF90B2
:101B7000089541155105B1F07B01EC010C811D81E7
:101B8000040F151FB8010E94800D882351F328818E
:101B900039818C819D81B701820F931F0E94022998
:101BA0001D830C8381E0DECFCF93DF93EC0188812E
:101BB0009981009711F00E948627198218821D8250
:101BC0001C821B821A82DF91CF910895CF93DF93FD
:101BD000EC01FB0101900020E9F73197AF01461BB2
:101BE000570B0E94A80D811103C0CE010E94D40D95
:101BF000CE01DF91CF910895CF93DF93EC01FB01EC
:101C000044815581608171810E94A80D811103C0BA
:101C1000CE010E94D40DCE01DF91CF910895EF92B5
:101C2000FF920F931F93CF93DF93EC017B018A0107
:101C3000BA010E94800D81110BC0CE010E94D40D0B
:101C4000CE01DF91CF911F910F91FF90EF900895FA
:101C50001D830C83B701888199810E940229F0CFEE
:101C6000EF92FF920F931F93CF93DF93CDB7DEB721
:101C700062970FB6F894DEBF0FBECDBF8C01CB01CB
:101C8000F8011182108213821282158214824AE0B6
:101C90009E012F5F3F4F7901B9010E945F24F70138
:101CA00001900020E9F73197AF014E195F09B701A4
:101CB000C8010E940F0E62960FB6F894DEBF0FBEE9
:101CC000CDBFDF91CF911F910F91FF90EF900895BD
:101CD000FB01DC0111961C921E9213961C921E921F
:101CE000129715961C921E9214978617970749F023
:101CF000608171816115710521F0448155810C94D9
:101D00000F0E0895FC011182108213821282158237
:101D10001482FB0101900020E9F73197AF01461BC7
:101D2000570B0C940F0EFC0180819181009711F0EC
:101D30000C94862708950F931F93CF93DF9300D0C1
:101D400000D0CDB7DEB79091930B91111DC08B01E0
:101D50000E94FB0CB801CE0101960E94680ECE01D4
:101D600001960E943105CE0101960E94930E0E94B9
:101D7000910C26960FB6F894DEBF0FBECDBFDF9153
:101D8000CF911F910F91089580E0F3CF0F931F9390
:101D9000CF93DF9300D000D0CDB7DEB70E94920280
:101DA000882309F442C081E08093DD0D8093DE0D2D
:101DB0000091DF0D1091E00D6FE372E0C8010E9409
:101DC000F928892BB9F581E080935A0560911002BA
:101DD00070911102CE0101960E94300EBE016F5F1C
:101DE0007F4F8BE00E949B0ECE0101960E94930EC6
:101DF0006091120270911302CE0101960E94300E82
:101E0000BE016F5F7F4F8CE00E949B0ECE0101965A
:101E10000E94930E26960FB6F894DEBF0FBECDBF7C
:101E2000DF91CF911F910F9108951092DE0D10E078
:101E300000E0C2CF65E472E0C8010E94F928892B56
:101E400049F710925A05E6CF0F931F93CF93DF9374
:101E500000D000D0CDB7DEB72091930B21111EC06A
:101E60008C0188E00E94FB0CB801CE0101960E9413
:101E7000680ECE0101960E945405CE0101960E9483
:101E8000930E0E94910C26960FB6F894DEBF0FBEFB
:101E9000CDBFDF91CF911F910F91089580E0F3CFD7
:101EA000CF92DF92EF92FF920F931F93CF93DF9326
:101EB000CDB7DEB762970FB6F894DEBF0FBECDBFC9
:101EC0000E949202882309F460C081E08093DD0DB6
:101ED0008093DE0D0091DF0D1091E00D69E472E05A
:101EE000C8010E94F928892B09F054C080E00E94A3
:101EF000FB0C83ED92E00E9403056AEE7AE0CE01CE
:101F000001960E94680ECE0101960E943105CE0115
:101F100001960E94930E87EC92E00E94030582E0F6
:101F200090E00E94100D84E495E00E944C0D6EE458
:101F300072E0CE0101960E94820E60EF7AE0CE013F
:101F400001960E94FC0DBC01CE0107960E94680E0E
:101F5000CE0107960E945405CE0107960E94930E6B
:101F6000CE0101960E94930E0E94910C62960FB6CC
:101F7000F894DEBF0FBECDBFDF91CF911F910F91BF
:101F8000FF90EF90DF90CF9008951092DE0D10E05B
:101F900000E0A4CF66E572E0C8010E94F928892B11
:101FA00041F480E00E94FB0C80E692E00E944C0D20
:101FB000DBCF6AE672E0C8010E94F928892B81F51F
:101FC00080E00E94FB0C8FE692E00E944C0D0E9484
:101FD000010C6B017C018091930B882329F26091A5
:101FE000E70D8091E40D9091E50D0E94FC040091B5
:101FF000E40D1091E50D2AE0B701A601F7FE0CC033
:102000006DE2C8010E94FC0444275527BA014C190F
:102010005D096E097F092AE0C8010E94AF0CA4CFB8
:1020200065E472E0C8010E94F928892BD9F470E0B8
:1020300060E088E196E00E944D0B70E060E080EC8B
:1020400095E00E944D0B70E060E088E695E00E940C
:102050004D0B60E082E00E94730310921302109215
:10206000120284CF64E772E0C8010E94F9288C0153
:10207000892B09F07BCF80E00E94FB0C80EC92E082
:102080000E94030584EB92E00E94030586EA92E039
:102090000E94030583E992E00E9403050E94910CCF
:1020A00030E8C32E36E0D32E48EBE42E4BE0F42E7E
:1020B00080E00E94FB0C8DE892E00E940305C701BE
:1020C0000E94100DB601CE0101960E94680ECE014D
:1020D00001960E943105CE0101960E94930E85E87B
:1020E00092E00E940305B601665F7F4FCE01019624
:1020F0000E94680ECE0101960E943105CE01019624
:102100000E94930E0E94910C8FEFE81AF80AA0E249
:10211000CA0ED11CBEEBEB16BBE0FB0649F622E46F
:10212000E22E2AE0F22E80E00E94FB0C8EE792E085
:102130000E940305C8010E94100DB701CE0101964F
:102140000E94680ECE0101960E943105CE010196D3
:102150000E94930E8AE792E00E94030581E792E0D5
:102160000E94030588E692E00E9403050E94910CFC
:102170000F5F1F4FEAE0EE0EF11C0131110599F6D9
:1021800008E717E090EDE92E97E0F92E80E00E9435
:10219000FB0C82E692E00E940305C7010E94100D2D
:1021A000B8016E5F7F4FCE0101960E94680ECE018E
:1021B00001960E943105CE0101960E94930EB8014E
:1021C000665F7F4FCE0101960E94680ECE01019698
:1021D0000E943105CE0101960E94930EB801605F06
:1021E0007F4FCE0101960E94680ECE0101960E949B
:1021F0003105CE0101960E94930ED8018D919C91DC
:10220000C69721F088E592E00E940305F8018081DD
:102210009181C69721F08DE492E00E940305D801D8
:102220005A968D919C915B97892B21F15696ED9151
:10223000FC9180818823F1F06BE772E0CE0101967A
:102240000E94820EB8016A5E7F4FCE0101960E9405
:10225000FC0DBC01CE0107960E94680ECE010796C8
:102260000E945405CE0107960E94930ECE0101965E
:102270000E94930EF80180819181C69741F484E415
:1022800092E00E94030584E392E00E9403050E940D
:10229000910CFFEFEF1AFF0A045E1F4F86EEE8165F
:1022A00087E0F80609F072CF00EE19E088EEE82E1C
:1022B00083E0F82E80E00E94FB0C8DE292E00E9409
:1022C0000305C7010E94100DB801CE0101960E94BE
:1022D000680ECE0101960E943105CE0101960E9442
:1022E000930E85E292E00E94030588E192E00E944D
:1022F0000305D80116966D917C91CE0107960E9438
:10230000300E60E872E0CE0101960E94820EBE019E
:10231000695F7F4FCE0101960E94FC0DBC01CE018A
:102320000D960E94680ECE010D960E945405CE01B6
:102330000D960E94930ECE0101960E94930ECE013F
:1023400007960E94930E82E192E00E940305F80135
:1023500060857185CE0107960E94300E68E872E0B4
:10236000CE0101960E94820EBE01695F7F4FCE01B1
:1023700001960E94FC0DBC01CE010D960E94680ED4
:10238000CE010D960E945405CE010D960E94930E2B
:10239000CE0101960E94930ECE0107960E94930EE5
:1023A000D8011A966D917C91CE0107960E94300E4D
:1023B0006FE872E0CE0101960E94820EBE01695F55
:1023C0007F4FCE0101960E94FC0DBC01CE010D96FF
:1023D0000E94680ECE010D960E945405CE010D9606
:1023E0000E94930ECE0101960E94930ECE01079695
:1023F0000E94930E8FEF91E00E9403050E94910CC2
:10240000BFEFEB1AFB0A005F1F4FEEEEEE16E3E0A4
:10241000FE0609F04FCF67E972E081E00E94670D88
:1024200064EE72E081E00E94670D64E772E080E094
:102430000E94670D9BCD8F929F92AF92BF92CF92D9
:10244000DF92EF92FF92CF93DF936B017C010E94AA
:10245000F2254B01EB01CB018E599F4F89349440FB
:1024600010F120E040E262E070E088E196E00E9436
:102470004E0820E040E261E070E088E196E00E94D2
:102480004E0820E040E270E060E088E196E0DF91F5
:10249000CF91FF90EF90DF90CF90BF90AF909F9043
:1024A0008F900C944E0820E030E0A901C701B601DE
:1024B0000E94282618160CF060C020E030E040E2B0
:1024C00051E4C701B6010E94A12487FF56C0C7018D
:1024D000B6010E942D26A70196010E94A1248823FF
:1024E00009F44BC020E030E048EC52E4C701B601EB
:1024F0000E9407250E942D260E94F2259B01EAE0FA
:10250000F0E0CB01BF010E947926C82FCB01BF01AB
:102510000E947926D82FC90164E670E00E947926CE
:1025200021E0161617060CF5462F62E070E088E1F0
:1025300096E00E946C0820E04D2F61E070E088E199
:1025400096E00E946C0820E04C2F70E060E088E18B
:1025500096E0DF91CF91FF90EF90DF90CF90BF900A
:10256000AF909F908F900C946C0840E262E070E016
:1025700088E196E00E944E08DECF20E0D7FF05C03C
:10258000CC27DD27C819D90921E0CE016AE070E027
:102590000E947926F82E2223A1F020E04DE262E08D
:1025A00070E088E196E00E944E08CA30D105CCF474
:1025B00020E040E261E070E088E196E00E944E0891
:1025C00022C0C436D10514F1CE0164E670E00E9449
:1025D0007926462F20E062E070E088E196E00E94D4
:1025E0006C082AE030E0CE01B9010E947926CB01C7
:1025F000B9010E94792620E0482F61E070E088E16F
:1026000096E00E946C0820E04F2D9FCF20E040E232
:10261000C6CF8F929F92AF92BF92CF92DF92EF92EE
:10262000FF920E94010C4B015C010E94010C0E9470
:10263000010C6B017C010E949202882371F181E000
:102640008093DD0D8093DE0D70E060E08091DF0D02
:102650009091E00D0E949B222AEE821623E09206C2
:10266000A104B10409F479C0F4F428EE821623E041
:102670009206A104B104E1F129EE821623E092064C
:10268000A104B10409F44FC0FF90EF90DF90CF9008
:10269000BF90AF909F908F9008951092DE0D60E0F4
:1026A00070E0CB01D9CF2CEE821623E09206A10474
:1026B000B10409F489C00CF46BC02DEE821623E03E
:1026C0009206A104B10401F722E0C216D104E1048C
:1026D000F10409F094C00E94F225CB01FF90EF9025
:1026E000DF90CF90BF90AF909F908F900C948F0A07
:1026F00022E0C216D104E104F10469F40E94F2253B
:10270000CB01FF90EF90DF90CF90BF90AF909F9064
:102710008F900C94EE0ACD28CE28CF2809F0B4CFA4
:102720008FEF9FEFEECF22E0C216D104E104F10457
:1027300051F4FF90EF90DF90CF90BF90AF909F90BB
:102740008F900C941B12CD28CE28CF2809F09CCF57
:1027500060E070E080E89FEBECCF22E0C216D1048D
:10276000E104F10469F40E94F225CB01FF90EF909F
:10277000DF90CF90BF90AF909F908F900C94300AD5
:10278000CD28CE28CF2809F07FCF8FEF9FEFEECF57
:1027900022E0C216D104E104F10461F40E94F225A2
:1027A000FF90EF90DF90CF90BF90AF909F908F9071
:1027B0000C948B08CD28CE28CF2809F065CF61EF87
:1027C00078ED8FEF9FEFECCF22E0C216D104E10449
:1027D000F10469F40E94F225CB01FF90EF90DF90A5
:1027E000CF90BF90AF909F908F900C948109CD288F
:1027F000CE28CF2809F048CF81EF98EDEECFCD2835
:10280000CE28CF2809F040CF8FEF9FEF67CF1F92E0
:102810000F920FB60F9211242F933F938F939F9394
:10282000AF93BF938091600590916105A09162057F
:10283000B091630530915F0523E0230F2D3758F5E4
:102840000196A11DB11D20935F05809360059093B3
:102850006105A0936205B093630580916405909132
:102860006505A0916605B09167050196A11DB11D92
:102870008093640590936505A0936605B093670502
:10288000BF91AF919F918F913F912F910F900FBE6C
:102890000F901F90189526E8230F0296A11DB11DD9
:1028A000D2CF1F920F920FB60F9211240BB60F9238
:1028B0002F933F934F935F936F937F938F939F9348
:1028C000AF93BF93EF93FF93E0910E02F0910F024D
:1028D0001995FF91EF91BF91AF919F918F917F914A
:1028E0006F915F914F913F912F910F900BBE0F9081
:1028F0000FBE0F901F9018951F920F920FB60F9258
:1029000011240BB60F922F933F934F935F936F93C6
:102910007F938F939F93AF93BF93EF93FF93E09138
:102920000C02F0910D021995FF91EF91BF91AF91BB
:102930009F918F917F916F915F914F913F912F91D7
:102940000F900BBE0F900FBE0F901F9018951F9207
:102950000F920FB60F9211240BB60F922F933F9345
:102960004F935F936F937F938F939F93AF93BF9397
:10297000EF93FF93E0910202F09103021995FF910A
:10298000EF91BF91AF919F918F917F916F915F91E7
:102990004F913F912F910F900BBE0F900FBE0F9054
:1029A0001F9018951F920F920FB60F9211240BB61D
:1029B0000F922F933F934F935F936F937F938F93D8
:1029C0009F93AF93BF93EF93FF93E0910002F09139
:1029D00001021995FF91EF91BF91AF919F918F9156
:1029E0007F916F915F914F913F912F910F900BBE0F
:1029F0000F900FBE0F901F9018951F920F920FB659
:102A00000F9211240BB60F922F933F934F935F9326
:102A10006F937F938F939F93AF93BF93EF93FF93A6
:102A2000E0910A02F0910B021995FF91EF91BF918D
:102A3000AF919F918F917F916F915F914F913F9156
:102A40002F910F900BBE0F900FBE0F901F901895F7
:102A50001F920F920FB60F9211240BB60F922F9365
:102A60003F934F935F936F937F938F939F93AF9316
:102A7000BF93EF93FF93E0910802F091090219953B
:102A8000FF91EF91BF91AF919F918F917F916F9146
:102A90005F914F913F912F910F900BBE0F900FBE02
:102AA0000F901F9018951F920F920FB60F9211243E
:102AB0000BB60F922F933F934F935F936F937F9338
:102AC0008F939F93AF93BF93EF93FF93E091060291
:102AD000F09107021995FF91EF91BF91AF919F91EE
:102AE0008F917F916F915F914F913F912F910F90B7
:102AF0000BBE0F900FBE0F901F9018951F920F9254
:102B00000FB60F9211240BB60F922F933F934F9352
:102B10005F936F937F938F939F93AF93BF93EF9345
:102B2000FF93E0910402F09105021995FF91EF9156
:102B3000BF91AF919F918F917F916F915F914F91D5
:102B40003F912F910F900BBE0F900FBE0F901F90D3
:102B500018951F920F920FB60F9211240BB60F9279
:102B60002F933F934F935F936F937F938F939F9395
:102B7000AF93BF93EF93FF9386EF9AE00E94EB052C
:102B8000FF91EF91BF91AF919F918F917F916F9145
:102B90005F914F913F912F910F900BBE0F900FBE01
:102BA0000F901F9018951F920F920FB60F9211243D
:102BB0000BB60F922F938F939F93EF93FF93E09118
:102BC000060BF091070B8081E0910C0BF0910D0B3F
:102BD00082FD1DC0908180910F0B8F5F8F732091BC
:102BE000100B821741F0E0910F0BF0E0EA50F54F27
:102BF000958F80930F0BFF91EF919F918F912F9164
:102C00000F900BBE0F900FBE0F901F9018958081F4
:102C1000F2CF2F923F924F925F926F927F928F925C
:102C20009F92AF92BF92CF92DF92EF92FF920F935B
:102C30001F93CF93DF931092F90A1092F80A88EE4F
:102C400093E0A0E0B0E08093FA0A9093FB0AA0938F
:102C5000FC0AB093FD0A8EE192E09093F70A80930C
:102C6000F60A85EC90E09093030B8093020B84ECC2
:102C700090E09093050B8093040B80EC90E0909390
:102C8000070B8093060B81EC90E09093090B8093E7
:102C9000080B82EC90E090930B0B80930A0B86EC70
:102CA00090E090930D0B80930C0B10920F0B1092F1
:102CB000100B1092110B1092120B1092EA0D109241
:102CC000E90D86EF9AE09093E50D8093E40D109264
:102CD0009B0B8CE28093E70D8BE38093E60D8FE2F4
:102CE0008093E80D80E48093960B8FE38093970B9D
:102CF0001092950B1092E00D1092DF0D1092E20DE4
:102D00001092E10D81E08093DD0DEBEEFDE08FE4AC
:102D10009EE0119211928E179F07D9F710929A0B8D
:102D20006CE273E080EF9AE00E94820E6DE473E043
:102D30008AEE9AE00E94820E86E290E09093410A29
:102D40008093400A64E773E082E49AE00E94820E76
:102D5000CFEFDFEFD093490AC093480A8CE290E0AE
:102D600090934B0A80934A0A6FE773E08CE49AE0F1
:102D70000E94820ED093530AC093520A8DE290E0D3
:102D80009093550A8093540A66E873E086E59AE0CA
:102D90000E94820ED0935D0AC0935C0A8DE390E09E
:102DA00090935F0A80935E0A60E973E080E69AE0A0
:102DB0000E94820ED093670AC093660A08E210E070
:102DC0001093690A0093680A69E973E08AE69AE059
:102DD0000E94820ED093710AC093700A89E290E03B
:102DE0009093730A8093720A64EA73E084E79AE02E
:102DF0000E94820ED0937B0AC0937A0A88E390E007
:102E000090937D0A80937C0A6CEA73E08EE79AE0E7
:102E10000E94820ED093850AC093840A89E390E0D1
:102E20009093870A8093860A65EB73E088E89AE0BE
:102E30000E94820ED0938F0AC0938E0A83E490E0A2
:102E40009093910A8093900A60EC73E082E99AE093
:102E50000E94820ED093990AC093980A85E190E06F
:102E600090939B0A80939A0A68EC73E08CE99AE04D
:102E70000E94820ED093A30AC093A20A87E190E039
:102E80009093A50A8093A40A63ED73E086EA9AE022
:102E90000E94820ED093AD0AC093AC0A85E0C82E82
:102EA000D12CD092AF0AC092AE0A6AED73E080EBEB
:102EB0009AE00E94820ED093B70AC093B60A86E0C9
:102EC00090E09093B90A8093B80A63EE73E08AEBBE
:102ED0009AE00E94820ED093C10AC093C00A8AE091
:102EE00090E09093C30A8093C20A6CEE73E084EC86
:102EF0009AE00E94820ED093CB0AC093CA0A88E05F
:102F000090E09093CD0A8093CC0A65EF73E08EEC4D
:102F10009AE00E94820ED093D50AC093D40A88E129
:102F200090E09093D70A8093D60A6EEF73E088ED15
:102F30009AE00E94820ED093DF0AC093DE0A8FE3EC
:102F400090E09093E10A8093E00A6AE074E082EEF8
:102F50009AE00E94820ED093E90AC093E80A61E1E8
:102F600074E080EE99E00E94820E93E0E92EF12C4D
:102F7000F092E709E092E60922E4222E312C309209
:102F8000E9092092E8091093EB090093EA098824E3
:102F90008A94982C54018092EC099092ED09A092A9
:102FA000EE09B092EF096EE174E080EF99E00E94C3
:102FB000820E84E090E09093F7098093F60989E50A
:102FC00090E09093F9098093F8091093FB0900931E
:102FD000FA098092FC099092FD09A092FE09B09234
:102FE000FF096BE274E080E09AE00E94820EF092AA
:102FF000070AE092060A3092090A2092080A109302
:103000000B0A00930A0A80920C0A90920D0AA09271
:103010000E0AB0920F0A64E374E080E19AE00E9425
:10302000820ED092170AC092160A8EE690E0909314
:10303000190A8093180A10931B0A00931A0A40EF8A
:10304000442E48ED542E66246A94762C40921C0A35
:1030500050921D0A60921E0A70921F0A6DE374E07E
:1030600080E29AE00E94820ED092270AC092260A3D
:103070008EE690E09093290A8093280A10932B0AF9
:1030800000932A0A40922C0A50922D0A60922E0A2E
:1030900070922F0A65E474E080E39AE00E94820E49
:1030A000F092370AE092360A3092390A2092380AB2
:1030B00010933B0A00933A0A80923C0A90923D0A90
:1030C000A0923E0AB0923F0A82E390E09093790783
:1030D0008093780763E574E08AE797E00E94820EA8
:1030E000D0938107C09380076AE574E082E897E097
:1030F0000E94820E6EE272E088E897E00E94820EE3
:1031000064E773E08EE897E00E94820E8EE390E021
:10311000909395078093940761E674E086E997E0C1
:103120000E94820ED0939D07C0939C076AE574E0CD
:103130008EE997E00E94820E6EE272E084EA97E0E8
:103140000E94820E6AE074E08AEA97E00E94820E92
:1031500081E390E09093B1078093B00764E674E058
:1031600082EB97E00E94820ED093B907C093B80714
:103170006CE674E08AEB97E00E94820E67E674E0EA
:1031800080EC97E00E94820E6FE773E086EC97E098
:103190000E94820E8AE290E09093CD078093CC0744
:1031A00067E774E08EEC97E00E94820ED093D5071B
:1031B000C093D4076CE674E086ED97E00E94820E1F
:1031C00067E674E08CED97E00E94820E66E873E09B
:1031D00082EE97E00E94820E80E490E09093E907EF
:1031E0008093E8076DE774E08AEE97E00E94820E14
:1031F000D093F107C093F0076CE674E082EF97E09C
:103200000E94820E67E674E088EF97E00E94820ECB
:103210006EE272E08EEF97E00E94820E8BE390E008
:10322000909305088093040860E874E086E098E0D5
:103230000E94820ED0930D08C0930C086CE674E0D7
:103240008EE098E00E94820E67E674E084E198E0E8
:103250000E94820E6EE272E08AE198E00E94820E85
:103260008CE390E0909321088093200868E874E054
:1032700082E298E00E94820ED0932908C093280829
:103280006CE674E08AE298E00E94820E67E674E0E1
:1032900080E398E00E94820E60E973E086E398E0A4
:1032A0000E94820E8BE290E090933D0880933C0850
:1032B0006DE874E08EE398E00E94820ED09345089A
:1032C000C09344086CE674E086E498E00E94820EA5
:1032D00067E674E08CE498E00E94820E69E973E08E
:1032E00082E598E00E94820E83E390E09093590873
:1032F0008093580864E974E08AE598E00E94820EA1
:10330000D0936108C09360086CE674E082E698E0B0
:103310000E94820E67E674E088E698E00E94820EC2
:1033200064EA73E08EE698E00E94820E87E390E004
:10333000909375088093740868E974E086E798E0D4
:103340000E94820ED0937D08C0937C086CE674E0E6
:103350008EE798E00E94820E67E674E084E898E0C9
:103360000E94820E6CEA73E08AE898E00E94820E66
:103370008AE390E090939108809390086DE974E05F
:1033800082E998E00E94820ED0939908C093980831
:103390006CE674E08AE998E00E94820E67E674E0C9
:1033A00080EA98E00E94820E65EB73E086EA98E07E
:1033B0000E94820E85E490E09093AD088093AC0863
:1033C00064EA74E08EEA98E00E94820ED093B50819
:1033D000C093B4086CE674E086EB98E00E94820E1D
:1033E00067E674E08CEB98E00E94820E60EC73E07C
:1033F00082EC98E00E94820E84E190E09093C908EC
:103400008093C80868EA74E08AEC98E00E94820E13
:10341000D093D108C093D0086CE674E082ED98E0B8
:103420000E94820E67E674E088ED98E00E94820EAA
:1034300068EC73E08EED98E00E94820E87E090E0E9
:103440009093E5088093E4086FEA74E086EE98E0D4
:103450000E94820ED093ED08C093EC086CE674E0F5
:103460008EEE98E00E94820E67E674E084EF98E0AA
:103470000E94820E6EE272E08AEF98E00E94820E55
:1034800086E190E0909301098093000967EB74E076
:1034900082E099E00E94820ED0930909C093080946
:1034A0006CE674E08AE099E00E94820E67E674E0C0
:1034B00080E199E00E94820E63ED73E086E199E07D
:1034C0000E94820EF0921D09E0921C096AEB74E0E2
:1034D0008EE199E00E94820ED0932509C0932409C1
:1034E0006CE674E086E299E00E94820E67E674E082
:1034F0008CE299E00E94820E6AED73E082E399E02B
:103500000E94820E84E090E09093390980933809FC
:103510006FEB74E08AE399E00E94820ED093410938
:10352000C09340096CE674E082E499E00E94820E48
:1035300067E674E088E499E00E94820E63EE73E02F
:103540008EE499E00E94820E8BE090E09093550902
:103550008093540964EC74E086E599E00E94820E41
:10356000D0935D09C0935C096CE674E08EE599E048
:103570000E94820E67E674E084E699E00E94820E63
:103580006CEE73E08AE699E00E94820E89E090E09A
:10359000909371098093700969EC74E082E799E077
:1035A0000E94820ED0937909C09378096CE674E08A
:1035B0008AE799E00E94820E67E674E080E899E06D
:1035C0000E94820E65EF73E086E899E00E94820E09
:1035D00089E190E090938D0980938C096EEC74E002
:1035E0008EE899E00E94820ED0939509C0939409C9
:1035F0006AE574E086E999E00E94820E6EE272E06C
:103600008CE999E00E94820E6EE272E082EA99E013
:103610000E94820E8BE190E09093A9098093A80903
:1036200068ED74E08AEA99E00E94820ED093B109B5
:10363000C093B0096AE574E082EB99E00E94820EC3
:103640006EE272E088EB99E00E94820E6EEF73E00A
:103650008EEB99E00E94820E86E390E09093C5097C
:103660008093C40960EE74E086EC99E00E94820EBB
:10367000D093CD09C093CC096CE674E08EEC99E050
:103680000E94820E67E674E084ED99E00E94820E4B
:103690006EE272E08AED99E00E94820E45E364E3F7
:1036A0008CE697E00E94650747E265E280E697E0D6
:1036B0000E94650741E260E284E597E00E946507A9
:1036C0004FE06EE088E497E00E9465074CE06DE013
:1036D0008CE397E00E9465074DE16AE180E397E0A3
:1036E0000E9465078CE0ECE6F7E0A0E7B6E0019009
:1036F0000D928A95E1F784E390E090937D068093A4
:103700007C0685E390E090937F0680937E0665EECD
:1037100074E080E896E00E94820E59E1C52E5CEFCD
:10372000D52EEE24EA94FE2CC0928606D09287060F
:10373000E0928806F092890661EF74E08AE896E0EC
:103740000E94820E8CE0E0E6F7E0A0E9B6E001908E
:103750000D928A95E1F785E290E090939D06809323
:103760009C0687E290E090939F0680939E066EEF02
:1037700074E080EA96E00E94820EC092A606D09283
:10378000A706E092A806F092A90661EF74E08AEA23
:1037900096E00E94820E8CE0E4E5F7E0A0EBB6E054
:1037A00001900D928A95E1F780E290E09093BD063A
:1037B0008093BC0681E290E09093BF068093BE06A2
:1037C0006AE075E080EC96E00E94820EC092C60628
:1037D000D092C706E092C806F092C90661EF74E085
:1037E0008AEC96E00E94820E8CE0E8E4F7E0A0ED1F
:1037F000B6E001900D928A95E1F78EE090E090930B
:10380000DD068093DC068FE090E09093DF068093E6
:10381000DE0662E175E080EE96E00E94820EC092C4
:10382000E606D092E706E092E806F092E90661EF3C
:1038300074E08AEE96E00E94820E8CE0ECE3F7E002
:10384000A0EFB6E001900D928A95E1F78DE090E04F
:103850009093FD068093FC068CE090E09093FF0629
:103860008093FE066AE175E080E097E00E94820E98
:10387000C0920607D0920707E0920807F092090766
:1038800061EF74E08AE097E00E94820E8CE0E0E352
:10389000F7E0A0E1B7E001900D928A95E1F78AE1A7
:1038A00090E090931D0780931C078DE190E090932A
:1038B0001F0780931E0761E275E080E297E00E9497
:1038C000820EC0922607D0922707E0922807F09236
:1038D000290761EF74E08AE297E00E94820E2FE2EE
:1038E00030E040E350E06EE270E088E196E00E9454
:1038F0007C0B24E230E043E250E062E270E080ECD6
:1039000095E00E947C0B2EE130E04CE150E06FE14D
:1039100070E088E695E0DF91CF911F910F91FF90C5
:10392000EF90DF90CF90BF90AF909F908F907F905F
:103930006F905F904F903F902F900C947C0BCF93A3
:10394000DF93CDB7DEB762970FB6F894DEBF0FBE38
:10395000CDBF789484B5826084BD84B5816084BD18
:1039600085B5826085BD85B5816085BD80916E001D
:10397000816080936E00109281008091810082604E
:10398000809381008091810081608093810080918B
:1039900080008160809380008091B100846080937A
:1039A000B1008091B00081608093B000809191005F
:1039B000826080939100809191008160809391005A
:1039C000809190008160809390008091A10082603E
:1039D0008093A1008091A10081608093A1008091DB
:1039E000A00081608093A00080912101826080937B
:1039F000210180912101816080932101809120012A
:103A000081608093200180917A00846080937A00A5
:103A100080917A00826080937A0080917A00816040
:103A200080937A0080917A00806880937A00109267
:103A3000C100E091060BF091070B82E08083E091DA
:103A4000020BF091030B1082E091040BF091050B37
:103A500080E1808310920E0BE0910A0BF0910B0B2A
:103A600086E08083E091080BF091090B80818061F2
:103A70008083E091080BF091090B8081886080833E
:103A8000E091080BF091090B808180688083E091C0
:103A9000080BF091090B80818F7D808308E717E088
:103AA00062E0D8018C910E94A103045E1F4FB9E02F
:103AB000003E1B07A9F700E41AE061E0F8018081ED
:103AC0000E94A10361E0D8018C910E94730362E31C
:103AD00070E080E090E00E94C90460E0F80180811D
:103AE0000E947303065F1F4FFAE00A3E1F0729F783
:103AF00061E082E00E94A1036091120282E00E94D4
:103B0000730380916E0690916F061816190644F49F
:103B100021E04CE070E060E088E196E00E94C007A0
:103B200080911606909117061816190644F421E0A4
:103B30004CE070E060E080EC95E00E94C00780916E
:103B4000BE059091BF051816190644F421E04CE01B
:103B500070E060E088E695E00E94C00700911002E6
:103B600010911102B80188E196E00E943C08B8016A
:103B700080EC95E00E943C08B80188E695E00E9440
:103B80003C0888E793E00E94EE0A88E793E00E94F1
:103B90008F0A60E070E08EE594E40E941B1288E7D3
:103BA00093E00E94300A88E49DED0E94810968E359
:103BB0007BE581E090E00E948B0864EF71E080E09B
:103BC00090E00E94C90470E060E088E196E00E9405
:103BD0004D0B70E060E080EC95E00E944D0B70E0D2
:103BE00060E088E695E00E944D0B6EE275E083E0B0
:103BF0000E94670D80E59FE09093EC0D8093EB0DA4
:103C000086EC9EE09093F00D8093EF0D8BE79DE0A6
:103C10009093F20D8093F10D86E19CE09093F60D68
:103C20008093F50D8AE19CE09093F80D8093F70D59
:103C300089E093E19093FA0D8093F90D81E49CE083
:103C40009093020E8093010E87E69CE09093040E01
:103C50008093030E6FE0262E312C44244A94512C7D
:103C6000E0E86E2E712C00E716E0F12CE12CD80173
:103C70001B968C91823008F065C0F894C8010E94B0
:103C8000FF06F80187819085A185B285789452E07E
:103C9000B595A795979587955A95D1F746895789F0
:103CA000608D718D481759076A077B070CF023C395
:103CB000868B978BA08FB18F80915A05882349F10D
:103CC000B7016854744FCE010D960E94300EBE01AC
:103CD000635F7F4FCE0107960E94680E63E475E034
:103CE000CE0107960E94E60DBC01CE0101960E940E
:103CF000680ECE0101960E94240FCE0101960E940B
:103D0000930ECE0107960E94930ECE010D960E944F
:103D1000930EF4E0EF16F10409F0AFC280E40E94C4
:103D20004A03892B09F0BAC38091120290911302C1
:103D300040968F3F910509F03CF4909313028093D5
:103D4000120206C0F8949DCF5092130240921202C4
:103D5000C0901202D0901302C6010E94D20380913B
:103D60005A05882309F49AC3B601CE0101960E9430
:103D7000300EBE016F5F7F4F8CE00E949B0ECE0124
:103D800001960E94930E8FEFE81AF80A005E1F4F0B
:103D9000A6E0EA16F10409F06ACF2FB7F8948091F3
:103DA000600590916105A0916205B09163052FBFF8
:103DB00040915B0550915C0560915D0570915E05D9
:103DC000841B950BA60BB70B85369105A105B10594
:103DD00008F4B0C180915A05882309F44AC048E725
:103DE000E42E47E0F42E00ED17E0F70180810E94F9
:103DF0004A036C01D70118968D919C91C816D9067B
:103E000071F1C114D10409F0DAC2B801CE010196F2
:103E10000E94300EBE016F5F7F4FCE0107960E9459
:103E2000680E63E475E0CE0107960E94E60DBC01C2
:103E3000CE010D960E94680ECE010D960E94240FB1
:103E4000CE010D960E94930ECE0107960E94930E0E
:103E5000CE0101960E94930EF701D186C086FCE147
:103E6000EF0EF11C0F5F1F4F063E27E0120709F00F
:103E7000BCCF80E40E944A03892B09F0CEC084E0C5
:103E80000E944A03892B09F0C8C088E793E00E948A
:103E9000EE0A80916E0690916F06181619065CF472
:103EA00085E080932A0625E043E070E060E088E149
:103EB00096E00E94C00720E040E361E070E088E106
:103EC00096E00E944E0820E043E370E060E088E165
:103ED00096E00E944E0820E046E467E070E080EC47
:103EE00095E00E944E0880911606909117061816CC
:103EF00019065CF48DE18093D6052DE147E070E072
:103F000060E080EC95E00E94C007809116069091D9
:103F10001706181619065CF4A5E0A093D50525E050
:103F200046E070E060E080EC95E00E94C00720E091
:103F300045E364E070E080EC95E00E944E0820E0EC
:103F400040E563E070E080EC95E00E944E0820E0E0
:103F500041E462E070E080EC95E00E944E0820E0D1
:103F600044E461E070E080EC95E00E944E0820E0BF
:103F700040E270E060E080EC95E00E944E0820E0B6
:103F800041E367E070E088E695E00E944E0820E09B
:103F90004CE466E070E088E695E00E944E0820E080
:103FA00042E365E070E088E695E00E944E0820E07C
:103FB00040E564E070E088E695E00E944E0820E06D
:103FC00040E263E070E088E695E00E944E0888E7F2
:103FD00093E00E948F0A68EB7BE080E090E00E9413
:103FE000C90488E793E00E94EE0A88E793E00E9404
:103FF0008F0A60E070E08EE594E40E941B1288E76F
:1040000093E00E94300A88E49DED0E94810968E3F4
:104010007BE581E090E00E948B0880E40E944A03E7
:10402000892BE9F489E00E944A03892BC1F470E0EE
:1040300060E088E196E00E944D0B70E060E080EC6B
:1040400095E00E944D0B70E060E088E695E00E94EC
:104050004D0B64EF71E080E090E00E94C90480E4C1
:104060000E944A03892B39F583E00E944A03892B79
:1040700011F5709213026092120280E890E00E94A3
:10408000D20380915A05882381F060E870E0CE0168
:1040900001960E94300EBE016F5F7F4F8CE00E9440
:1040A0009B0ECE0101960E94930E64EF71E080E0BA
:1040B00090E00E94C90480E40E944A03892B39F5EC
:1040C0008BE00E944A03892B11F510921302109283
:1040D000120290E080E00E94D20380915A0588236A
:1040E00081F070E060E0CE0101960E94300EBE01CA
:1040F0006F5F7F4F8CE00E949B0ECE0101960E9465
:10410000930E64EF71E080E090E00E94C9042FB745
:10411000F8948091600590916105A0916205B0913D
:1041200063052FBF80935B0590935C05A0935D05AD
:10413000B0935E0580919A0B8111A6C18091E40D28
:104140009091E50DDC01ED91FC910084F185E02D6D
:104150001995892B09F498C18091E40D9091E50D92
:10416000DC01ED91FC910084F185E02D1995C12CC5
:1041700032E0D32E8115924064F48091E40D909149
:10418000E50DDC01ED91FC910084F185E02D1995A0
:104190006C010091E40D1091E50D2CED822E2BE0C9
:1041A000922E5401F12CE12CCE14DF0409F01BC136
:1041B00010E000E0C016D10609F4BCCFD4019D91F7
:1041C0004D011092DC0D3091E80D2091990B9093E8
:1041D000990B931304C0921302C01092990B809113
:1041E000950BE82FF0E04091E60DED56F44F941357
:1041F00032C1321709F42FC11186882329F0B1E0AA
:10420000B093DC0D1092990B1092950B1092E00D6B
:104210001092DF0D1092E20D1092E10DE1E0E093BB
:10422000DD0DF090DC0DF1E0FF122BC10E94920237
:10423000882309F41AC1F092DD0DF092DE0D809111
:10424000DF0D9091E00D0E94F9238093940B82334F
:1042500008F010C12091DE0D222309F40BC1FC01EE
:10426000FF27EE0FFF1FE551F24F0190F081E02D87
:10427000309709F4FFC0199504C125E0E216F10456
:1042800009F081CD80E40E944A03892B09F085CD95
:1042900080911002909111020196803191052CF4C9
:1042A000909311028093100204C030921102209268
:1042B0001002C0901002D0901102B60188E196E081
:1042C0000E943C08B60180EC95E00E943C08B601D3
:1042D00088E695E00E943C0880915A05882309F4FD
:1042E0005CCDB601CE0101960E94300EBE016F5F1B
:1042F0007F4F8BE042CD84179507A607B7070CF0D8
:1043000042CD868B978BA08FB18F80915A058823E1
:1043100049F1B7016854744FCE010D960E94300EDA
:10432000BE01635F7F4FCE0107960E94680E66E470
:1043300075E0CE0107960E94E60DBC01CE01019604
:104340000E94680ECE0101960E94240FCE010196B4
:104350000E94930ECE0107960E94930ECE010D96F9
:104360000E94930EF4E0EF16F10491F480E40E94B1
:104370004A03892B09F092C0809112029091130296
:10438000409797FFDACC1092130210921202E0CC01
:1043900025E0E216F10409F0F6CC80E40E944A031D
:1043A000892B09F0FACC80911002909111020197AB
:1043B00097FF76CF10921102109210027ACFB1E0DF
:1043C000CB16D10409F048CDB801CE0101960E9468
:1043D000300EBE016F5F7F4FCE0107960E94680EC0
:1043E0006AE475E020CD2FB7F89480916005909134
:1043F0006105A0916205B09163052FBFF801808728
:104400009187A287B387D801ED91FC910284F3854F
:10441000E02DC801199597FF3AC02FB7F894809105
:10442000600590916105A0916205B09163052FBF71
:10443000F8014085518562857385841B950BA60B19
:10444000B70B448155816681778184179507A6074C
:10445000B707C8F2ADCE91878F5F8093950B90918F
:10446000970B891708F0D0CEDCCE1092DE0D90E0CD
:1044700080E0EBCEE091E90DF091EA0D309709F084
:10448000FACE0F5F1F4F96CE0E947A06ECCBD50175
:104490008D935D01BFEFEB1AFB0A86CE85E0E82E17
:1044A000F12C005E1F4FE3CBCF93DF93C0E3D7E047
:1044B000A097CE014A960E94930ECE0140960E948C
:1044C000930E86E0C037D80799F7C0EED9E06C9715
:1044D000CE0146960E94930ECE0140960E94930E06
:1044E000CE010A960E94930ECE0102960E94930E70
:1044F00087E0C837D80759F7C0E4DAE06097CE0103
:104500000E94930E89E0C03ED807C1F7CAEEDAE0F8
:104510002A97CE0102960E94930E8AE0C034D807F3
:10452000B9F78AEE9AE00E94930E80EF9AE0DF914D
:10453000CF910C94930E8F929F92AF92BF92CF9295
:10454000DF92EF92FF920F931F93CF93DF935C0163
:104550007B016115710519F0DB018D939C93850139
:104560000F5F1F4FF501D0818D2F90E00E943E24F8
:104570006C01892BB9F5DD32B9F50F5F1F4FD501FD
:104580001196DC91C1E05801F1E0AF1AB10843E0A7
:1045900050E06CEC71E0C5010E944724892B69F55D
:1045A000680182E0C80ED11C45E050E067EC71E084
:1045B000C6010E944724892B21F4680197E0C90EA7
:1045C000D11CE114F10419F0D701CD92DC9260E026
:1045D00070E080E89FEFC111FFC060E070E080E80C
:1045E0009FE7FAC05801BBCFDB3229F485010E5F8B
:1045F0001F4FF501D181C0E0C6CF43E050E064EC2D
:1046000071E0C5010E944724892BE9F0F80110E010
:1046100000E020E030E0A9015F01B0ED8B2E8D0EAF
:1046200089E08815C8F19C2E689491F88C2F8870C9
:10463000C2FF16C0811102C00F5F1F4F3196D50116
:10464000DC91C92DE9CFE114F10429F00E5F1F4F71
:10465000F7011183008360E070E080EC9FE7BCC04D
:10466000882311F001501109A5E0B0E00E94D8257F
:104670009B01AC01220F331F441F551F280D311D14
:10468000411D511D283999E93907490799E1590711
:10469000A8F2C6609C2ED2CFAEEF8A1206C0C3FD30
:1046A0003CC09C2E689493F8C9CFDF7DD534A9F522
:1046B00080818D3239F4C061DF011296818162E020
:1046C00070E006C0DF018B32C1F3119661E070E04B
:1046D00080535D01A61AB70A8A30F8F4E0E8CE16D6
:1046E000ECE0DE065CF4B601660F771F660F771FFD
:1046F000C60ED71ECC0CDD1CC80ED11C5D01FFEF11
:10470000AF1ABF0A8C9180538A30A8F1C4FF03C04E
:10471000D194C194D1080C0D1D1DC1FF09C0E11435
:10472000F10431F081E0A81AB108D701AD92BC9232
:10473000CA01B9010E94A624C370C33009F490587D
:104740004B015C0120E030E0A9010E94A1248823F4
:1047500009F440C0CBEFD1E017FF05C011950195DA
:104760001109C3EED1E06E01B8E1CB1AD10880E2A5
:10477000E82EF12C0FC0D501B1CFFE012591359166
:10478000459154910E191F09C501B4010E940725D6
:104790004B015C01D501C4010E151F0574F7249768
:1047A000F594E794CC16DD06A9F78A2F880F8B2F96
:1047B000881F8F3F49F020E030E0A901C501B40116
:1047C0000E94A124811106C082E290E09093500ED5
:1047D00080934F0EC501B401DF91CF911F910F91CE
:1047E000FF90EF90DF90CF90BF90AF909F908F9011
:1047F0000895FC0188279927E89421912032E9F354
:10480000293010F02E30C8F32B3241F02D3239F41C
:10481000689404C00E947F24820F911D219120532F
:104820002A30C0F31EF4909581959F4F08951F93F1
:10483000FC0199278827BC01E89411911032E9F313
:10484000193010F01E30C8F31B3251F01D3249F4FC
:10485000689406C00E946A24610F711D811D911D1C
:10486000119110531A30B0F33EF4909580957095E5
:1048700061957F4F8F4F9F4F1F91089591110C9419
:104880007425803219F089508550C8F70895FB01CE
:10489000DC014150504088F08D9181341CF08B3503
:1048A0000CF4805E659161341CF06B350CF4605E35
:1048B000861B611171F3990B0895881BFCCFBB27F0
:1048C0004A3031F4992322F4BDE2909581959F4FAF
:1048D0000C948824592F482F372F262F660F771FC7
:1048E000881F991F660F771F881F991F620F731FFC
:1048F000841F951F660F771F881F991F08957AE000
:10490000979F902D879F802D910D11240895BB278F
:10491000FB015527AA27880F991FAA1FA41710F07B
:10492000A41B83955051B9F7A05DAA3308F0A95D87
:10493000A193009779F7B111B1931192CB010C9427
:1049400077250E94E32408F481E00895E89409C0E3
:1049500097FB3EF490958095709561957F4F8F4FB2
:104960009F4F9923A9F0F92F96E9BB279395F695C8
:10497000879577956795B795F111F8CFFAF4BB0F46
:1049800011F460FF1BC06F5F7F4F8F4F9F4F16C0AA
:10499000882311F096E911C0772321F09EE8872F34
:1049A000762F05C0662371F096E8862F70E060E0F0
:1049B0002AF09A95660F771F881FDAF7880F969569
:1049C000879597F90895990F0008550FAA0BE0E80D
:1049D000FEEF16161706E807F907C0F012161306C1
:1049E000E407F50798F0621B730B840B950B39F401
:1049F0000A2661F0232B242B252B21F408950A2667
:104A000009F4A140A6958FEF811D811D08950E9494
:104A10001A250C949E250E94902538F00E94972517
:104A200020F0952311F00C9487250C948D251124EA
:104A30000C94D2250E94AF2570F3959FC1F3950F7A
:104A400050E0551F629FF001729FBB27F00DB11D12
:104A5000639FAA27F00DB11DAA1F649F6627B00DA2
:104A6000A11D661F829F2227B00DA11D621F739F8B
:104A7000B00DA11D621F839FA00D611D221F749F99
:104A80003327A00D611D231F849F600D211D822FE0
:104A9000762F6A2F11249F5750409AF0F1F0882307
:104AA0004AF0EE0FFF1FBB1F661F771F881F915034
:104AB0005040A9F79E3F510580F00C9487250C9437
:104AC000D2255F3FE4F3983ED4F3869577956795BA
:104AD000B795F795E7959F5FC1F7FE2B880F911D5E
:104AE0009695879597F90895992788270895DC0169
:104AF000FC01672F71917723E1F7329704C07C9115
:104B00006D9370836291AE17BF07C8F3089597F94C
:104B10009F6780E870E060E008959FEF80EC089563
:104B200000240A941616170618060906089500248C
:104B30000A9412161306140605060895092E039406
:104B4000000C11F4882352F0BB0F40F4BF2B11F47A
:104B500060FF04C06F5F7F4F8F4F9F4F089557FDD9
:104B60009058440F551F59F05F3F71F04795880FDB
:104B700097FB991F61F09F3F79F087950895121672
:104B800013061406551FF2CF4695F1DF08C016161E
:104B900017061806991FF1CF8695710561050894CF
:104BA0000895E894BB2766277727CB0197F90895E6
:104BB0000E94E325A59F900DB49F900DA49F800DAA
:104BC000911D11240895A29FB001B39FC001A39F1E
:104BD000700D811D1124911DB29F700D811D112436
:104BE000911D08950E94F9256894B1110C94D22565
:104BF00008950E94B72588F09F5798F0B92F9927FC
:104C0000B751B0F0E1F0660F771F881F991F1AF0B7
:104C1000BA95C9F714C0B13091F00E94D125B1E026
:104C200008950C94D125672F782F8827B85F39F025
:104C3000B93FCCF3869577956795B395D9F73EF450
:104C400090958095709561957F4F8F4F9F4F0895F8
:104C50000E94E32408F48FEF08950E94612630F04B
:104C60009F3710F40C94D2250C9438260C945326BC
:104C7000882371F4772321F09850872B762F07C073
:104C8000662311F499270DC09051862B70E060E0E7
:104C90002AF09A95660F771F881FDAF7880F969586
:104CA000879597F908959F3F31F0915020F48795AB
:104CB00077956795B795880F911D9695879597F984
:104CC00008950E94B725A0F0BEE7B91788F4BB2766
:104CD0009F3860F41616B11D672F782F8827985FCC
:104CE000F7CF869577956795B11D93959639C8F35B
:104CF000089597FB072E16F4009407D077FD09D08E
:104D00000E94D62607FC05D03EF4909581959F4FD2
:104D10000895709561957F4F0895A1E21A2EAA1B00
:104D2000BB1BFD010DC0AA1FBB1FEE1FFF1FA2175B
:104D3000B307E407F50720F0A21BB30BE40BF50B58
:104D4000661F771F881F991F1A9469F760957095E1
:104D5000809590959B01AC01BD01CF010895052E72
:104D600097FB1EF400940E94C62657FD07D00E94B0
:104D70008D2607FC03D04EF40C94C6265095409522
:104D8000309521953F4F4F4F5F4F089590958095F7
:104D9000709561957F4F8F4F9F4F0895EE0FFF1FC6
:104DA000881F8BBF0790F691E02D1994AA1BBB1B9F
:104DB00051E107C0AA1FBB1FA617B70710F0A61B1B
:104DC000B70B881F991F5A95A9F780959095BC013C
:104DD000CD0108950F931F93CF93DF9382309105F8
:104DE00010F482E090E0E091530EF091540E30E028
:104DF00020E0B0E0A0E0309799F42115310509F4E6
:104E00004AC0281B390B24303105D8F58A819B8193
:104E10006115710589F1FB0193838283FE0111C045
:104E2000408151810281138148175907E0F04817EA
:104E3000590799F4109761F012960C9312971396F4
:104E40001C933296CF01DF91CF911F910F9108955E
:104E50000093530E1093540EF4CF2115310551F0E9
:104E60004217530738F0A901DB019A01BD01DF01A8
:104E7000F801C1CFEF01F9CF9093540E8093530EF8
:104E8000CDCFFE01E20FF31F8193919322503109A0
:104E900039832883D7CF2091510E3091520E232B86
:104EA00041F420911602309117023093520E209354
:104EB000510E20911402309115022115310541F453
:104EC0002DB73EB74091180250911902241B350BA3
:104ED000E091510EF091520EE217F307A0F42E1B51
:104EE0003F0B2817390778F0AC014E5F5F4F24174E
:104EF000350748F04E0F5F1F5093520E4093510EEE
:104F0000819391939FCFF0E0E0E09CCFCF93DF932C
:104F10000097E9F0FC01329713821282A091530EA0
:104F2000B091540EED0130E020E01097A1F4208103
:104F30003181820F931F2091510E3091520E28170C
:104F4000390709F061C0F093520EE093510EDF91E2
:104F5000CF910895EA01CE17DF07E8F54A815B811A
:104F60009E0141155105B1F7E901FB83EA8349919F
:104F70005991C40FD51FEC17FD0761F48081918111
:104F80000296840F951FE90199838883828193811A
:104F90009B838A83F0E0E0E012968D919C911397B9
:104FA0000097B9F52D913C911197CD010296820F92
:104FB000931F2091510E3091520E2817390739F660
:104FC000309751F51092540E1092530EB093520E2A
:104FD000A093510EBCCFD383C28340815181840FF3
:104FE000951FC817D90761F44E5F5F4F888199817B
:104FF000480F591F518340838A819B819383828309
:105000002115310509F0B0CFF093540EE093530E03
:105010009ECFFD01DC01C0CF13821282D7CF4F9209
:105020005F926F927F928F929F92AF92BF92CF9238
:10503000DF92EF92FF920F931F93CF93DF938C0138
:10504000009799F4CB01DF91CF911F910F91FF90C1
:10505000EF90DF90CF90BF90AF909F908F907F9018
:105060006F905F904F900C94EA26FC01E60FF71FBB
:105070009C0122503109E217F30708F4AEC0D901B0
:10508000CD91DC911197C617D70720F1C530D10516
:1050900078F0CE0104978617970750F0C61BD70B00
:1050A0002297C193D1936D937C93CF010E94862761
:1050B000C801DF91CF911F910F91FF90EF90DF908A
:1050C000CF90BF90AF909F908F907F906F905F90A8
:1050D0004F9008955B01AC1ABD0A4C018C0E9D1EC9
:1050E000A091530EB091540E512C412CF12CE12C77
:1050F000109731F58091510E9091520E88159905B7
:1051000009F05CC04616570608F058C0809114029A
:1051100090911502009741F48DB79EB74091180207
:1051200050911902841B950BE817F90708F055C038
:10513000F093520EE093510EF90171836083B8CF62
:105140008D919C91119712966C90129713967C906A
:105150001397A815B90559F56C0142E0C40ED11C8E
:10516000CA14DB0420F1AC014A195B09DA0112967A
:10517000159780F06282738251834083D9016D93C9
:105180007C93E114F10471F0D7011396FC93EE9334
:1051900012978ECF22968C0F9D1FF90191838083E9
:1051A000F301EFCFF093540EE093530E81CF4816E6
:1051B000590608F42C017D01D3019ACFCB010E943E
:1051C000EA267C01009749F0AE01B8010E94F02860
:1051D000C8010E94862787016BCF10E000E068CFEE
:1051E000FB01DC0102C001900D9241505040D8F704
:1051F0000895FB01DC018D91019080190110D9F314
:10520000990B0895FB01DC0101900D920020E1F75C
:10521000089512E0CDE3D2E000E006C0802FFE0149
:105220000E94CE262196011DCE33D10780E00807CB
:06523000A9F7F894FFCF7E
:10523600FB04FB04FB04FB04FB04FB04FB04FB0470
:10524600080080000000550E8000000000000D06DA
:105256007705A4055A06D505B305C7050D0A0055F9
:105266004E4B4E4F574E20434F4D4D414E440053EB
:105276005441525400454E4400494E49540041554C
:1052860054484F523D005343414E535441544500F8
:1052960053544154455343414E0050494E470050E4
:1052A6004F4E4700434F4E464947004C45443D004C
:1052B6004C454E4754483D0057494454483D0048E4
:1052C60045494748543D004144442C31312C44491A
:1052D60053504C5F4252492C55382C52572C446936
:1052E60073706C6179732C4D4350207365676D65DF
:1052F6006E7473206469736C617973206272696776
:1053060068746E6573732066726F6D203020746FDB
:10531600203135004144442C31322C42434B4C540D
:105326005F4252492C55382C52572C4261636B6CA4
:10533600696768742C4D4350206261636B6C6967C2
:105346006874206272696768746E6573732066722A
:105356006F6D203020746F20323535003336306261
:105366003831326566313064333365353435376507
:10537600653762343132383435333666007B38343B
:105386003637366633642D646464662D3438633488
:105396002D616234632D38333966323432623633E6
:1053A60065307D0046444C4546545F4C4544004EAE
:1053B600315F4C45440053504545445F4C454400DD
:1053C600564E41565F4C4544004C564C4348475F49
:1053D6004C4544004844475F4C4544004C4E4156BA
:1053E6005F4C454400564F524C4F435F4C4544007A
:1053F6004150505F4C454400414C54484C445F4C2E
:1054060045440056535F4C454400434D44415F4C70
:10541600454400434D44425F4C4544004357534185
:105426005F4C454400435753425F4C454400464455
:1054360052494748545F4C45440041545F4C4544EB
:10544600004352534C4546545F444953500049412A
:10545600534D4143485F44495350004844475F44D5
:1054660049535000414C545F444953500056535FD2
:10547600444953500043525352494748545F4449A4
:1054860053500046444C45465400535749544348EC
:10549600004154004E3100535041445F505553482B
:1054A600425554544F4E00535045454400434F0017
:1054B600535044494E545600564E4156004C564C95
:1054C60043484700484447004C4E415600564F5209
:1054D6004C4F430041505000414C54484C4400410D
:1054E6004C54494E545600565300434D44410043D4
:1054F6004D444200435753410043575342004449E9
:1055060053454E4741474500464452494748540093
:1055160042414E4B004352534C4546545F454E4321
:1055260000535041445F454E434F44455200494164
:10553600534D4143485F454E43004844475F454EFF
:105546004300414C545F454E430056535F454E431E
:105556000043525352494748545F454E4300415415
:1055660054414348494E472043414C4C4241434BEA
:0E5576005321002C31002C2D31002C30000070
:00000001FF
