:100000000C943E020C94C6140C949B140C94701423
:100010000C9445140C941A140C94EF130C94C41300
:100020000C9499130C946F020C946F020C946F0251
:100030000C946F020C946F020C946F020C946F027C
:100040000C946F020C946F020C946F020C946F026C
:100050000C946F020C946F020C946F020C944F136B
:100060000C946F020C941B150C94F1140C946F02F9
:100070000C946F020C946F020C946F020C946F023C
:100080000C946F020C946F020C946F020C946F022C
:100090000C946F020C946F020C946F020C946F021C
:1000A0000C946F020C946F020C946F020C946F020C
:1000B0000C946F020C946F020C946F020C946F02FC
:1000C0000C946F020C946F020C946F020C946F02EC
:1000D0000C946F020C946F020C946F020C946F02DC
:1000E0000C946F020C940D060C944A040C945A065E
:1000F0000C9401030C940D040C943C030C941C030D
:100100000C948B040C9438040C94870F0C942A03E1
:100110000C94B3050C9430040C94780C0C94530795
:100120000C944D0C0C941C040C940F030C94470776
:100130000C9452120C9451150C9495040C94810457
:100140000C945B210C9454040C94B20D0C94770421
:100150000C9426040C9477050C9441030C949F0492
:100160000C9426030C944D070C94D5050C942E0387
:100170000C9413030C9407030C940B030C94FB04D2
:100180000C946D040C949E0C0C94510C0C9438033C
:100190000C9420030C9412040C9441070C94340327
:1001A0000C9416030C9440040C94FD0E0C94A405BE
:1001B0000C94C7050C9442030C9446030C945E0403
:1001C0000C9406044E414E494E495459494E46CD71
:1001D000CCCC3D0AD7233C17B7D13877CC2B3295FE
:1001E00095E6241FB14F0A000020410000C84200DC
:1001F000401C4620BCBE4CCA1B0E5AAEC59D744660
:100200004F524547524F554E443D2346464646467B
:100210004600524F573D3100535041445F444953CB
:10022000504C415900444953504C4159004F55548A
:1002300050555400524F555445544F3D4844475F24
:10024000454E430048494444454E3D310055495FC1
:100250005354594C453D300055495F545950453D24
:100260003200494E5055540048494444454E3D31B2
:1002700000535041445F4C4544004C4544004F55A9
:100280005450555400454E434F44455200494E503A
:100290005554004E4F5F444953504C41595F434CB5
:1002A0004541523D310050414745535550504F5202
:1002B000543D3000495347454E455249433D310076
:1002C0004F5054494F4E0043465420373337204D4A
:1002D00043500053504144000000210024002700F7
:1002E0002A002D0030003300010100000401070145
:1002F0000A0100002200250028002B002E003100FA
:10030000340002010000050108010B01000020007B
:100310002300260029002C002F00320000010000DD
:100320000301060109010505050507050808080878
:10033000020202020A0A080804040404010101017D
:100340000101010103030303030303030407070778
:100350000C0C0C0C0C0C0C0C02020202060606061D
:10036000060606060B0B0B0B0B0B0B0B01021020EA
:1003700020080810204010204080020102010804DB
:10038000020101020408102040808040201008046F
:1003900002018004020180402010080402010804C8
:1003A000020101020408102040800102040810200C
:1003B00040807E306D79335B5F707F7B771F0D3DB2
:1003C0004F47000000000000000000000000000097
:1003D000000000000000000000000000000080019C
:1003E00080007E306D79335B5F707F7B00000000A2
:1003F000000000771F0D3D4F4700370000000E0042
:100400000000670000000000000000000000000085
:10041000000800771F0D3D4F4700370000000E0019
:10042000151D670000000000000000000000000033
:10043000000000000A0B02090C0D0E08070304015E
:1004400000000000000000000000000000000000AC
:100450000000000000000000000000000000121179
:10046000100000000000000000000000000000007C
:10047000000000000000000051155B2111241FBE88
:10048000CFEFD1E2DEBFCDBF00E00CBF2EE0AEE487
:10049000B5E001C01D92A135B207E1F715E0A0E07B
:1004A000B2E0E2E5F0E500E00BBF02C007900D927C
:1004B000AE34B107D9F712E0CDE3D2E000E006C0D8
:1004C00021970109802FFE010E94DC25CC33D10742
:1004D00080E00807A9F70E94E31B0C9417280C94EE
:1004E0000000AC011092940B9091E40D8091E30D0B
:1004F000FA01BF01641B750B2091940B308130937E
:10050000940B931304C0921302C01092940B308189
:10051000311104C0921721F0CB0108953817D1F39F
:100520003196E7CF0F931F93CF93DF938091D80D30
:10053000882309F446C0D0E0C0E0813029F482E08D
:100540008093D80DC8E9DBE08091D90D882341F173
:10055000209721F4C091DD0DD091DE0D8E01CE01EA
:100560000E947102892B29F42196F8018081811162
:10057000F5CFF8018081882309F1C8010E9471023A
:10058000F801E80FF91F8081882311F0108231965D
:10059000F093DE0DE093DD0D1093DC0D0093DB0D89
:1005A0008091DB0D9091DC0D892B59F081E08093D7
:1005B000D90DDF91CF911F910F91089510E000E0C8
:1005C000EBCF80E0F6CF8150823108F05AC0E82F9F
:1005D000F0E08827E151FD4F8F4F0C94DC250F038D
:1005E0001303010307030B03410316031C0320033A
:1005F00026032A032E033403380341033C0342033A
:100600004603809180008F778093800008958091C9
:1006100080008F7DF9CF80918000877FF5CF84B5F2
:100620008F7784BD089584B58F7DFBCF8091B00016
:100630008F778093B00008958091B0008F7DF9CFBF
:10064000809190008F778093900008958091900022
:100650008F7DF9CF80919000877FF5CF8091A000AA
:100660008F778093A00008958091A0008F7DF9CFAF
:100670008091A000877FF5CF809120018F778093B4
:1006800020010895809120018F7DF9CF8091200174
:10069000877FF5CFCF93DF93282F30E0F901EE5C11
:1006A000FB4F8491F901E459FC4FD491F901EA5DC3
:1006B000FC4FC491CC23A1F081110E94E302EC2FE6
:1006C000F0E0EE0FFF1FE45FFC4FA591B491EC91B9
:1006D000ED2381E090E009F480E0DF91CF9108956F
:1006E00080E090E0FACF1F93CF93DF93282F30E084
:1006F000F901EE5CFB4F8491F901E459FC4FD49170
:10070000F901EA5DFC4FC491CC23A9F0162F8111A9
:100710000E94E302EC2FF0E0EE0FFF1FEE50FD4FC2
:10072000A591B4918FB7F894EC91111108C0D095B0
:10073000DE23DC938FBFDF91CF911F910895DE2BD5
:10074000F8CFCF93DF9390E0FC01E459FC4F249164
:100750008A5D9C4FFC0184918823D1F090E0880F42
:10076000991FFC01E852FD4FA591B491FC01EE5098
:10077000FD4FC591D491623071F49FB7F8943C91CC
:10078000822F809583238C93E8812E2B28839FBF13
:10079000DF91CF9108958FB7F894EC912E2B2C9385
:1007A0008FBFF6CFCF93DF93EC0161E082E00E9430
:1007B000A103209731F460E082E0DF91CF910C94A7
:1007C0007303CF3FD10511F461E0F6CFE4E3F4E029
:1007D000E491E150E23108F0B2C0F0E08827EC503B
:1007E000FC4F8F4F0C94DC2506040D0412041C04EE
:1007F00026049F043004380440044A0454045E0470
:100800006D0477049F0481048B04950484B580688B
:1008100084BDC7BDDF91CF91089584B5806284BD4A
:10082000C8BDF8CF80918000806880938000D0930D
:100830008900C0938800EECF809180008062809311
:100840008000D0938B00C0938A00E4CF8091800019
:10085000886080938000D0938D00C0938C00DACFA5
:100860008091B00080688093B000C093B300D2CF75
:100870008091B00080628093B000C093B400CACF72
:1008800080919000806880939000D0939900C093ED
:100890009800C0CF80919000806280939000D093A8
:1008A0009B00C0939A00B6CF80919000886080939F
:1008B0009000D0939D00C0939C00ACCF8091A0008D
:1008C00080688093A0008091A0008F7B8093A0001F
:1008D000D093A900C093A8009DCF8091A000806212
:1008E0008093A000D093AB00C093AA0093CF8091D7
:1008F000A00088608093A000D093AD00C093AC00AE
:1009000089CF80912001806880932001D0932901B4
:10091000C09328017FCF80912001806280932001C5
:10092000D0932B01C0932A0175CF8091200188605C
:1009300080932001D0932D01C0932C016BCFC03840
:10094000D1050CF041CF37CF3FB7F89480916005C7
:1009500090916105A0916205B091630526B5A89BB1
:1009600005C02F3F19F00196A11DB11D3FBFBA2F41
:10097000A92F982F8827BC01CD01620F711D811D01
:10098000911D42E0660F771F881F991F4A95D1F786
:1009900008958F929F92AF92BF92CF92DF92EF9283
:1009A000FF924B015C010E94A4046B017C010E9438
:1009B000A4046C197D098E099F09683E7340810566
:1009C0009105A8F321E0821A9108A108B10888EEE8
:1009D000C80E83E0D81EE11CF11C81149104A1040F
:1009E000B10429F7FF90EF90DF90CF90BF90AF90C8
:1009F0009F908F9008950895DC01ED91FC910190F6
:100A0000F081E02D1994EF92FF920F931F93CF93F3
:100A1000DF9320918F0B2223E9F08C016091E30D8D
:100A20008091E00D9091E10D0E94FC04E090E00DBA
:100A3000F090E10DE801FE016491662359F0D701C1
:100A4000ED91FC910190F081E02DC701199521965F
:100A5000892B89F7DF91CF911F910F91FF90EF9034
:100A60000895CF93DF9320918F0B2223D1F0EC01D7
:100A70006091E30D8091E00D9091E10D0E94FC04E6
:100A80008091E00D9091E10D4C815D8168817981CB
:100A9000DC01ED91FC910280F381E02DDF91CF919B
:100AA0001994DF91CF910895CF93DF9320918F0B0D
:100AB0002223D1F0EC016091E30D8091E00D909143
:100AC000E10D0E94FC048091E00D9091E10D4C81BC
:100AD0005D8168817981DC01ED91FC910280F38177
:100AE000E02DDF91CF911994DF91CF910895AF92CE
:100AF000BF92CF92DF92EF92FF920F931F93CF930B
:100B0000DF936C017B018B01040F151FEB015E016C
:100B1000AE18BF08C017D10759F06991D601ED9101
:100B2000FC910190F081E02DC6011995892B79F790
:100B3000C501DF91CF911F910F91FF90EF90DF9052
:100B4000CF90BF90AF900895FC01538D448D252F19
:100B500030E0842F90E0821B930B541710F0CF9657
:100B6000089501970895FC01918D828D981761F089
:100B7000A28DAE0FBF2FB11D5D968C91928D9F5FA0
:100B80009F73928F90E008958FEF9FEF0895FC017F
:100B9000918D828D981731F0828DE80FF11D858D32
:100BA00090E008958FEF9FEF0895FC01918D228DC5
:100BB000892F90E0805C9F4F821B91098F7399274A
:100BC000089582EF9AE00E94D50521E0892B09F46F
:100BD00020E0822F0895FC01A48DA80FB92FB11D2C
:100BE000A35ABF4F2C91848D90E001968F73992763
:100BF000848FA689B7892C93A089B1898C91837041
:100C000080648C93938D848D981306C00288F38939
:100C1000E02D80818F7D80830895EF92FF920F9366
:100C20001F93CF93DF93EC0181E0888F9B8D8C8D98
:100C300098131AC0E889F989808185FF15C09FB78C
:100C4000F894EE89FF896083E889F989808183704F
:100C5000806480839FBF81E090E0DF91CF911F91FE
:100C60000F91FF90EF900895F62E0B8D10E00F5F1F
:100C70001F4F0F731127E02E8C8D8E110CC00FB6F5
:100C800007FCFACFE889F989808185FFF5CFCE018D
:100C90000E94EB05F1CFEB8DEC0FFD2FF11DE35A18
:100CA000FF4FF0829FB7F8940B8FEA89FB89808110
:100CB0008062CFCFCF93DF93EC01888D8823B9F08A
:100CC000AA89BB89E889F9898C9185FD03C0808157
:100CD00086FD0DC00FB607FCF7CF8C9185FFF2CFD4
:100CE000808185FFEDCFCE010E94EB05E9CFDF913A
:100CF000CF91089580E090E0892B29F00E94E105D2
:100D000081110E94000080E090E0892B49F080E092
:100D100090E0892B29F00E94000081110E940000C0
:100D200080E090E0892B49F080E090E0892B29F069
:100D30000E94000081110E94000080E090E0892B59
:100D400049F080E090E0892B29F00E940000811199
:100D50000C9400000895833171F120F48231E9F19F
:100D600080E008958431A9F08531D1F7709353055F
:100D70006093520583E597E0909305028093040207
:100D8000809169008C7F816080936900E89A81E09E
:100D9000089570935505609354058DE497E0909302
:100DA00007028093060280916900837F84608093AC
:100DB0006900E99AECCF709357056093560587E474
:100DC00097E09093090280930802809169008F7CDC
:100DD000806180936900EA9ADACF70935905609335
:100DE000580581E497E090930B0280930A0280916A
:100DF00069008F73806480936900EB9AC8CFDC012F
:100E0000ED91FD918081ED91FD919081ED91FD91AC
:100E10006C9163708E2309F064609F2309F0686011
:100E2000ECE1F7E0E60FF11D659565956D936D9129
:100E30007D918D919D91099423C01AC012C016C056
:100E400010C01EC009C014C013C006C019C009C01C
:100E50000DC007C00DC014C062507040804090406B
:100E60000BC0615070408040904006C06E5F01C072
:100E70006F5F7F4F8F4F9F4F9E938E937E936E93A6
:100E8000089580915805909159050C94FF06809122
:100E90005605909157050C94FF068091540590914A
:100EA00055050C94FF0680915205909153050C94C2
:100EB000FF0680915005909151050C94FF0680919A
:100EC0004E0590914F050C94FF060F931F93CF93FF
:100ED000DF93EC01062F142F62E0802F0E94A10304
:100EE00062E0812F0E94A103802F90E0FC01EA5D67
:100EF000FC4FE491F0E0EE0FFF1FE45FFC4FA59183
:100F0000B491B983A883FC01E459FC4F24912C834C
:100F1000812F90E0FC01EA5DFC4FE491F0E0EE0FE0
:100F2000FF1FE45FFC4F459154915B834A83FC01B2
:100F3000E459FC4FE491ED831F82188619861A86C6
:100F40008BE39FE10197F1F78C91282391E009F45D
:100F500090E0DA018C91E82309F092609E83BE0153
:100F6000802F0E94AB068B87BE01812F0E94AB06AB
:100F70009B85890F8B87DF91CF911F910F910895EA
:100F80004F925F926F927F928F929F92AF92BF9299
:100F9000CF92DF92EF92FF920F931F93CF93DF9345
:100FA0001F921F92CDB7DEB78C0149832A83660F4B
:100FB000771FF801EA5AFF4FE080F180EE0CFF1C2A
:100FC000F801CF01801B910B8E159F0514F411922F
:100FD000F8CF8981F801E60FF71F81838A8180832A
:100FE000680184E5C80ED11C60E0F60180810E9492
:100FF00073035801F2E5AF0EB11C480180E5880E7D
:10100000911C1E141F040CF5E1E0EE1AF108F80122
:10101000EE0DFF1D6080F5015080F401408088E0F6
:10102000782E662D661F6627661F842D0E94730327
:10103000660C61E0852D0E94730360E0852D0E949F
:1010400073037A947110EDCFDCCF61E0F6018081FB
:101050000F900F90DF91CF911F910F91FF90EF9024
:10106000DF90CF90BF90AF909F908F907F906F90C8
:101070005F904F900C947303FC01EA5AFF4F20815C
:101080003181121613064CF46031710530F4262FAD
:101090004AE070E060E00C94C0070895DC01AA5AB1
:1010A000BF4F2D913C911216130684F4E42F440F88
:1010B000FF0BEE54FC4F2491FC01E60FF71F208B31
:1010C00041E0460F70E060E00C94C0070895FC0119
:1010D000EA5AFF4F20813181121613068CF44031F9
:1010E00078F4E42FF0E0EE54FC4F2491FC01E60F7D
:1010F000F71F208B41E0460F70E060E00C94C007C2
:1011000008954F925F926F927F928F929F92AF92CB
:10111000BF92CF92DF92EF92FF92CF93DF9300D0F6
:101120001F921F92CDB7DEB76B017C0120E030E04B
:10113000A9010E94A82387FFAFC0F7FAF094F7F83F
:10114000F09481E08D8320E030E040E251E4C7017B
:10115000B6010E94F92469837A838B839C8320E003
:1011600030E040E251E40E94F9244B015C0120E0B0
:1011700030E040E251E40E94F9242B013C018D81D2
:101180004DE281118CC020E03CE34CE156E4C70104
:10119000B6010E94A12518160CF080C020E030E0B6
:1011A00040E251E4C301B2010E94F9240E946B2580
:1011B000462F64E070E08CEB95E00E94670820E029
:1011C00030EC49E754E4C701B6010E94A125181686
:1011D0000CF06CC0C301B2010E946B25CB016AE028
:1011E00070E00E94A625482F63E070E08CEB95E04C
:1011F0000E94670820E030E046EC52E4C701B601E7
:101200000E94A12518160CF059C0C501B4010E9416
:101210006B25CB016AE070E00E94A625482F62E0B2
:1012200070E08CEB95E00E94670820E030E040E140
:1012300051E4C701B6010E94A12518160CF046C062
:1012400069817A818B819C810E946B25CB016AE048
:1012500070E00E94A625482F61E070E08CEB95E0DD
:101260000E94670840E070E060E08CEB95E00F9032
:101270000F900F900F900F90DF91CF91FF90EF9014
:10128000DF90CF90BF90AF909F908F907F906F90A6
:101290005F904F900C9467081D8255CF40E264E048
:1012A00070E08CEB95E00E944E0889CF40E263E04D
:1012B00070E08CEB95E00E944E089CCF40E262E02B
:1012C00070E08CEB95E00E944E08AFCF40E261E009
:1012D00070E08CEB95E00E944E08C4CFCF92DF9275
:1012E000EF92FF926B017C0120E03CE34CE156EC75
:1012F0000E94A823181654F420E83FE443EC57E476
:10130000C701B6010E94A12518163CF540E264E031
:1013100070E08CEB95E00E944E0840E263E070E0E4
:101320008CEB95E00E944E0840E262E070E08CEBAE
:1013300095E00E944E0840E261E070E08CEB95E0A1
:101340000E944E0840E270E060E08CEB95E0FF9078
:10135000EF90DF90CF900C944E08C701B601FF903C
:10136000EF90DF90CF900C9481081F93CF93DF9381
:10137000EC01825F984D8E319E4430F140E267E08F
:1013800070E084E695E00E944E0840E266E070E07E
:1013900084E695E00E944E0840E265E070E084E655
:1013A00095E00E944E0840E264E070E084E695E03B
:1013B0000E944E0840E263E070E084E695E0DF9131
:1013C000CF911F910C944E0820E0D7FF04C0D19517
:1013D000C195D10921E0CE016AE070E00E94A62506
:1013E000182F4DE2211101C040E267E070E084E671
:1013F00095E00E944E08C83E83E0D807C4F1CE01B4
:1014000068EE73E00E94A625462F66E070E084E651
:1014100095E00E946708CE0164E670E00E94A62570
:10142000CB016AE070E00E94A625482F65E070E0DD
:1014300084E695E00E9467082AE030E0CE01B90119
:101440000E94A625CB01B9010E94A625482F64E081
:1014500070E084E695E00E946708412F63E070E049
:1014600084E695E0DF91CF911F910C94670840E2EC
:1014700066E070E084E695E00E944E08C436D1052F
:1014800054F640E265E070E084E695E00E944E0884
:10149000CA30D1058CF640E264E070E084E695E065
:1014A0000E944E08DACFCF93DF93EC01C83E83E071
:1014B000D807B8F040E267E070E08CEB95E00E945E
:1014C0004E0840E266E070E08CEB95E00E944E082A
:1014D00040E265E070E08CEB95E0DF91CF910C94F9
:1014E0004E08CE0164E670E00E94A625462F67E014
:1014F00070E08CEB95E00E9467082AE030E0CE01B6
:10150000B9010E94A625C82FCB01B9010E94A625CA
:10151000482F66E070E08CEB95E00E9467084C2F46
:1015200065E070E08CEB95E0DF91CF910C9467085B
:101530001F93CF93DF93EC01C83E83E0D807C0F040
:1015400040E262E070E084E196E00E944E0840E2F2
:1015500061E070E084E196E00E944E0840E270E0B5
:1015600060E084E196E0DF91CF911F910C944E08EA
:10157000CE016AE070E00E94A625182FC436D1057E
:101580003CF1CE0164E670E00E94A625462F62E0A1
:1015900070E084E196E00E9467082AE030E0CE0126
:1015A000B9010E94A625CB01B9010E94A625482FAA
:1015B00061E070E084E196E00E946708412F70E0EE
:1015C00060E084E196E0DF91CF911F910C94670871
:1015D00040E262E070E084E196E00E944E08CA308A
:1015E000D105DCF640E261E070E084E196E00E9423
:1015F0004E08E4CFCF93DF93EC01C83E83E0D807D9
:10160000B8F040E262E070E084E695E00E944E08A7
:1016100040E261E070E084E695E00E944E0840E21E
:1016200070E060E084E695E0DF91CF910C944E0885
:10163000CE0164E670E00E94A625462F62E070E0CD
:1016400084E695E00E9467082AE030E0CE01B90107
:101650000E94A625C82FCB01B9010E94A625482FBC
:1016600061E070E084E695E00E9467084C2F70E02E
:1016700060E084E695E0DF91CF910C946708CF930A
:10168000DF93EC01C83E83E0D807B8F040E267E0A2
:1016900070E084E196E00E944E0840E266E070E06F
:1016A00084E196E00E944E0840E265E070E084E14B
:1016B00096E0DF91CF910C944E08CE0164E670E085
:1016C0000E94A625462F67E070E084E196E00E9424
:1016D00067082AE030E0CE01B9010E94A625C82F94
:1016E000CB01B9010E94A625482F66E070E084E195
:1016F00096E00E9467084C2F65E070E084E196E078
:10170000DF91CF910C946708DF92EF92FF920F93D5
:101710001F93CF93DF93FC01EA5AFF4F2081318161
:1017200062177307C4F47B018C01EB0183E0CC0FDB
:10173000DD1F8A95E1F76096C00FD11FDD24D39499
:10174000199220E04D2DB701C8010E94C007D39423
:1017500089E0D812F5CFDF91CF911F910F91FF90C3
:10176000EF90DF9008958F929F92AF92BF92CF92A9
:10177000DF92EF92FF920F931F93CF93DF938C0131
:10178000D62EC72EEC01C05BDF4F688379834C01F6
:1017900082E5880E911CF401518340835801F4E5E1
:1017A000AF0EB11CF501318320837801F6E5EF0E11
:1017B000F11C81E090E0F7019183808361E08D2D41
:1017C0000E94A10361E0F40180810E94A10361E015
:1017D000F50180810E94A10361E0F50180810E94F2
:1017E0007303D882C982F80170961192EC17FD0735
:1017F000E1F7D0E0C0E0F70180819181C817D907F7
:1018000054F520E04FE0BE01C8010E94C007F70177
:1018100080819181C817D90734F427E04BE0BE01DD
:10182000C8010E94C00720E049E0BE01C8010E9433
:10183000C007BE01C8010E94840BF701808191811D
:10184000C817D90734F420E04CE0BE01C8010E945B
:10185000C0072196D0CFDF91CF911F910F91FF90BC
:10186000EF90DF90CF90BF90AF909F908F900895B2
:101870000E949202882359F081E08093D90D8093D1
:10188000DA0D8091DB0D9091DC0D0C941E231092EB
:10189000DA0D60E070E0CB0108950E94380C0C94E2
:1018A000380CCF92DF92EF92FF920E94380C6B01BE
:1018B0000E94380C672B682B692B81F08AE08C9D85
:1018C000F0018D9DF00D1124E45CF54F61E0808105
:1018D000FF90EF90DF90CF900C9473038AE08C9D83
:1018E000F0018D9DF00D1124E45CF54F60E0EFCF29
:1018F000CF92DF92EF92FF920E94380C6B017C0135
:1019000080E1C816D104E104F10498F4B60184E141
:1019100096E00E943C08B6018CEB95E00E943C08E2
:10192000B60184E695E00E943C08D0921102C09274
:101930001002FF90EF90DF90CF900895CF92DF924A
:10194000EF92FF920E94380C6B017C018FEFC8165A
:10195000D104E104F10409F038F4C6010E94D20375
:10196000D0921302C0921202FF90EF90DF90CF90BE
:101970000895FB0101900020E9F73197AF01461B64
:10198000570BDC01ED91FC910280F381E02D19945D
:1019900080918F0B8823A1F06091E20D8091E00D82
:1019A0009091E10D0E94FC048091970B882341F0F7
:1019B0006CE272E08091E00D9091E10D0E94B90C13
:1019C0001092960B10928F0B80E008958F929F9249
:1019D000AF92BF92EF92FF920F931F93CF93DF933B
:1019E000CDB7DEB7A1970FB6F894DEBF0FBECDBF5F
:1019F0007C01FA01CB0119A2223008F42AE08E0101
:101A00000F5D1F4F822E912CB12CA12CBF01A5017F
:101A100094010E94BA25F901CA016A300CF5605D93
:101A2000D8016E938D01232B242B252B79F790E081
:101A300080E0109721F0BD01C7010E94B90CA1966A
:101A40000FB6F894DEBF0FBECDBFDF91CF911F91CF
:101A50000F91FF90EF90BF90AF909F908F9008955F
:101A6000695CDECF90918F0B911110C091E0909343
:101A70008F0B9093960B482F50E070E060E02AE0C7
:101A80008091E00D9091E10D0C94E60C0895CF92B9
:101A9000DF92EF92FF92CF93DF9320918F0B22235F
:101AA00059F16C016091E30D8091E00D9091E10D91
:101AB0000E94FC04C091E00DD091E10D0D2C000CB2
:101AC000EE08FF082AE0B701A601F7FE0CC06DE2A0
:101AD000CE010E94FC0444275527BA014C195D0928
:101AE0006E097F092AE0CE01DF91CF91FF90EF9040
:101AF000DF90CF900C94E60CDF91CF91FF90EF90A8
:101B0000DF90CF900895CF93DF9320918F0B222306
:101B100091F0EC016091E30D8091E00D9091E10D69
:101B20000E94FC04BE018091E00D9091E10DDF91D7
:101B3000CF910C94B90CDF91CF910895CF93DF939F
:101B400090918F0B91110AC0EB010E94320DCE01D2
:101B50000E94830DDF91CF910C94C80C80E0DF913F
:101B6000CF9108956FE272E083E00C949E0D0F9385
:101B70001F93CF93DF93EC0188819981009759F0EF
:101B80002A813B812617370730F081E0DF91CF9122
:101B90001F910F9108958B016F5F7F4F0E941D274A
:101BA000009759F0998388831B830A832C813D8198
:101BB000232B59F7FC011082E8CF80E0E7CFEF92AA
:101BC000FF920F931F93CF93DF936115710541F43B
:101BD00080E0DF91CF911F910F91FF90EF900895DA
:101BE00041155105B1F07B01EC010C811D81040F01
:101BF000151FB8010E94B70D882351F32881398140
:101C00008C819D81B701820F931F0E9410281D8334
:101C10000C8381E0DECFCF93DF93EC018881998143
:101C2000009711F00E949426198218821D821C824E
:101C30001B821A82DF91CF910895CF93DF93EC013D
:101C4000FB0101900020E9F73197AF01461B570BCC
:101C50000E94DF0D811103C0CE010E940B0ECE0148
:101C6000DF91CF910895CF93DF93EC01FB01448185
:101C70005581608171810E94DF0D811103C0CE0109
:101C80000E940B0ECE01DF91CF910895EF92FF924B
:101C90000F931F93CF93DF93EC017B018A01BA016D
:101CA0000E94B70D81110BC0CE010E940B0ECE0118
:101CB000DF91CF911F910F91FF90EF9008951D83B9
:101CC0000C83B701888199810E941028F0CFEF9290
:101CD000FF920F931F93CF93DF93CDB7DEB7629739
:101CE0000FB6F894DEBF0FBECDBF8C01CB01F8015B
:101CF0001182108213821282158214824AE09E01A0
:101D00002F5F3F4F7901B9010E946623F7010190CF
:101D10000020E9F73197AF014E195F09B701C801FB
:101D20000E94460E62960FB6F894DEBF0FBECDBF7E
:101D3000DF91CF911F910F91FF90EF900895FB01DC
:101D4000DC0111961C921E9213961C921E92129701
:101D500015961C921E9214978617970749F060817A
:101D600071816115710521F0448155810C94460EF5
:101D70000895FC011182108213821282158214824E
:101D8000FB0101900020E9F73197AF01461B570B8B
:101D90000C94460EFC0180819181009711F00C9407
:101DA000942608950F931F93CF93DF9300D000D014
:101DB000CDB7DEB790918F0B91111DC08B010E94A2
:101DC000320DB801CE0101960E949F0ECE01019600
:101DD0000E943105CE0101960E94CA0E0E94C80CD5
:101DE00026960FB6F894DEBF0FBECDBFDF91CF9120
:101DF0001F910F91089580E0F3CF0F931F93CF931E
:101E0000DF9300D000D0CDB7DEB70E9492028823C6
:101E100009F442C081E08093D90D8093DA0D0091DE
:101E2000DB0D1091DC0D6FE372E0C8010E94072802
:101E3000892BB9F581E080935A0560911002709169
:101E40001102CE0101960E94670EBE016F5F7F4FA7
:101E50008BE00E94D20ECE0101960E94CA0E6091C4
:101E6000120270911302CE0101960E94670EBE010C
:101E70006F5F7F4F8CE00E94D20ECE0101960E94D0
:101E8000CA0E26960FB6F894DEBF0FBECDBFDF9107
:101E9000CF911F910F9108951092DA0D10E000E09C
:101EA000C2CF65E472E0C8010E940728892B49F778
:101EB00010925A05E6CF0F931F93CF93DF9300D074
:101EC00000D0CDB7DEB720918F0B21111EC08C0141
:101ED00088E00E94320DB801CE0101960E949F0E4B
:101EE000CE0101960E945405CE0101960E94CA0EB1
:101EF0000E94C80C26960FB6F894DEBF0FBECDBF69
:101F0000DF91CF911F910F91089580E0F3CFCF9291
:101F1000DF92EF92FF920F931F93CF93DF93CDB792
:101F2000DEB762970FB6F894DEBF0FBECDBF0E943A
:101F30009202882309F460C081E08093D90D8093D8
:101F4000DA0D0091DB0D1091DC0D69E472E0C8013F
:101F50000E940728892B09F054C080E00E94320DAE
:101F600083ED92E00E94030566EE7AE0CE010196D1
:101F70000E949F0ECE0101960E943105CE0101966E
:101F80000E94CA0E87EC92E00E94030582E090E076
:101F90000E94470D84E495E00E94830D6EE472E098
:101FA000CE0101960E94B90E6CEE7AE0CE01019648
:101FB0000E94330EBC01CE0107960E949F0ECE01F7
:101FC00007960E945405CE0107960E94CA0ECE01C4
:101FD00001960E94CA0E0E94C80C62960FB6F89431
:101FE000DEBF0FBECDBFDF91CF911F910F91FF904C
:101FF000EF90DF90CF9008951092DA0D10E000E09E
:10200000A4CF66E572E0C8010E940728892B41F43D
:1020100080E00E94320D80E692E00E94830DDBCFCB
:102020006AE672E0C8010E940728892B81F580E0EA
:102030000E94320D8FE692E00E94830D0E94380CC0
:102040006B017C0180918F0B882329F26091E30D55
:102050008091E00D9091E10D0E94FC040091E00D53
:102060001091E10D2AE0B701A601F7FE0CC06DE268
:10207000C8010E94FC0444275527BA014C195D0988
:102080006E097F092AE0C8010E94E60CA4CF65E42E
:1020900072E0C8010E940728892BD9F470E060E043
:1020A00084E196E00E94840B70E060E08CEB95E0A8
:1020B0000E94840B70E060E084E695E00E94840B4F
:1020C00060E082E00E9473031092130210921202E9
:1020D00084CF64E772E0C8010E9407288C01892B35
:1020E00009F07BCF80E00E94320D80EC92E00E94EC
:1020F000030584EB92E00E94030586EA92E00E94C9
:10210000030583E992E00E9403050E94C80C3CE7A6
:10211000C32E36E0D32E48EBE42E4BE0F42E80E0C5
:102120000E94320D8DE892E00E940305C7010E94D3
:10213000470DB601CE0101960E949F0ECE01019679
:102140000E943105CE0101960E94CA0E85E892E0F8
:102150000E940305B601665F7F4FCE0101960E9483
:102160009F0ECE0101960E943105CE0101960E947C
:10217000CA0E0E94C80C8FEFE81AF80AA0E2CA0E35
:10218000D11CBEEBEB16BBE0FB0649F62EE3E22EBC
:102190002AE0F22E80E00E94320D8EE792E00E944B
:1021A0000305C8010E94470DB701CE0101960E94A8
:1021B0009F0ECE0101960E943105CE0101960E942C
:1021C000CA0E8AE792E00E94030581E792E00E942E
:1021D000030588E692E00E9403050E94C80C0F5F89
:1021E0001F4FEAE0EE0EF11C0131110599F604E7EC
:1021F00017E090EDE92E97E0F92E80E00E94320D75
:1022000082E692E00E940305C7010E94470DB801D3
:102210006E5F7F4FCE0101960E949F0ECE01019608
:102220000E943105CE0101960E94CA0EB801665F78
:102230007F4FCE0101960E949F0ECE0101960E9413
:102240003105CE0101960E94CA0EB801605F7F4F32
:10225000CE0101960E949F0ECE0101960E9431058B
:10226000CE0101960E94CA0ED8018D919C91C6970D
:1022700021F088E592E00E940305F80180819181B8
:10228000C69721F08DE492E00E940305D8015A968A
:102290008D919C915B97892B21F15696ED91FC9144
:1022A00080818823F1F06BE772E0CE0101960E94F5
:1022B000B90EB8016A5E7F4FCE0101960E94330EBF
:1022C000BC01CE0107960E949F0ECE0107960E9488
:1022D0005405CE0107960E94CA0ECE0101960E94B7
:1022E000CA0EF80180819181C69741F484E492E09E
:1022F0000E94030584E392E00E9403050E94C80C3B
:10230000FFEFEF1AFF0A045E1F4F86EEE81687E024
:10231000F80609F072CF0CED19E088EEE82E83E0A4
:10232000F82E80E00E94320D8DE292E00E940305BB
:10233000C7010E94470DB801CE0101960E949F0E71
:10234000CE0101960E943105CE0101960E94CA0E6F
:1023500085E292E00E94030588E192E00E94030575
:10236000D80116966D917C91CE0107960E94670E5A
:1023700060E872E0CE0101960E94B90EBE01695F6D
:102380007F4FCE0101960E94330EBC01CE010D9607
:102390000E949F0ECE010D960E945405CE010D960F
:1023A0000E94CA0ECE0101960E94CA0ECE01079667
:1023B0000E94CA0E82E192E00E940305F801608546
:1023C0007185CE0107960E94670E68E872E0CE0123
:1023D00001960E94B90EBE01695F7F4FCE01019642
:1023E0000E94330EBC01CE010D960E949F0ECE01BD
:1023F0000D960E945405CE010D960E94CA0ECE0184
:1024000001960E94CA0ECE0107960E94CA0ED801FC
:102410001A966D917C91CE0107960E94670E6FE827
:1024200072E0CE0101960E94B90EBE01695F7F4F36
:10243000CE0101960E94330EBC01CE010D960E9482
:102440009F0ECE010D960E945405CE010D960E945E
:10245000CA0ECE0101960E94CA0ECE0107960E94B6
:10246000CA0E8FEF91E00E9403050E94C80CBFEFD7
:10247000EB1AFB0A005F1F4FEEEEEE16E3E0FE06DE
:1024800009F04FCF64E772E080E00E949E0D67E99B
:1024900072E081E00E949E0D64EE72E081E00E9495
:1024A0009E0D9BCD8F929F92AF92BF92CF92DF9263
:1024B000EF92FF920E94380C4B015C010E94380C95
:1024C0000E94380C6B017C010E949202882371F1FA
:1024D00081E08093D90D8093DA0D70E060E0809107
:1024E000DB0D9091DC0D0E94A2212AEE821623E0E2
:1024F0009206A104B10409F47AC0F4F428EE82161D
:1025000023E09206A104B104E1F129EE821623E052
:102510009206A104B10409F44FC0FF90EF90DF9040
:10252000CF90BF90AF909F908F9008951092DA0D4A
:1025300060E070E0CB01D9CF2CEE821623E092064A
:10254000A104B10409F488C00CF46CC02DEE82160D
:1025500023E09206A104B10401F722E0C216D104DF
:10256000E104F10409F093C00E946B25CB01FF90B8
:10257000EF90DF90CF90BF90AF909F908F900C9492
:10258000FA0A22E0C216D104E104F10469F40E94BF
:102590006B25CB01FF90EF90DF90CF90BF90AF9075
:1025A0009F908F900C943F0BCD28CE28CF2809F018
:1025B000B4CF8FEF9FEFEECF22E0C216D104E1043B
:1025C000F10469F40E946B25CB01FF90EF90DF903E
:1025D000CF90BF90AF909F908F900C94980ACD2889
:1025E000CE28CF2809F099CF8FEF9FEFEECF22E0D2
:1025F000C216D104E104F10469F40E946B25CB01F9
:10260000FF90EF90DF90CF90BF90AF909F908F9012
:102610000C94530ACD28CE28CF2809F07ECF8FEF17
:102620009FEFEECF22E0C216D104E104F10451F491
:10263000FF90EF90DF90CF90BF90AF909F908F90E2
:102640000C946E09CD28CE28CF2809F066CF60E023
:102650007CE38CE196ECECCF22E0C216D104E104DD
:10266000F10469F40E946B25CB01FF90EF90DF909D
:10267000CF90BF90AF909F908F900C94B509CD28CC
:10268000CE28CF2809F049CF81EF98EDEECFCD28A5
:10269000CE28CF2809F041CF8FEF9FEF68CF1F9250
:1026A0000F920FB60F9211242F933F938F939F9306
:1026B000AF93BF9380915C0590915D05A0915E05FD
:1026C000B0915F0530915B0523E0230F2D3758F55E
:1026D0000196A11DB11D20935B0580935C0590932D
:1026E0005D05A0935E05B0935F05809160059091B4
:1026F0006105A0916205B09163050196A11DB11D10
:102700008093600590936105A0936205B093630583
:10271000BF91AF919F918F913F912F910F900FBEDD
:102720000F901F90189526E8230F0296A11DB11D4A
:10273000D2CF1F920F920FB60F9211240BB60F92A9
:102740002F933F934F935F936F937F938F939F93B9
:10275000AF93BF93EF93FF93E0910E02F0910F02BE
:102760001995FF91EF91BF91AF919F918F917F91BB
:102770006F915F914F913F912F910F900BBE0F90F2
:102780000FBE0F901F9018951F920F920FB60F92C9
:1027900011240BB60F922F933F934F935F936F9338
:1027A0007F938F939F93AF93BF93EF93FF93E091AA
:1027B0000C02F0910D021995FF91EF91BF91AF912D
:1027C0009F918F917F916F915F914F913F912F9149
:1027D0000F900BBE0F900FBE0F901F9018951F9279
:1027E0000F920FB60F9211240BB60F922F933F93B7
:1027F0004F935F936F937F938F939F93AF93BF9309
:10280000EF93FF93E0910202F09103021995FF917B
:10281000EF91BF91AF919F918F917F916F915F9158
:102820004F913F912F910F900BBE0F900FBE0F90C5
:102830001F9018951F920F920FB60F9211240BB68E
:102840000F922F933F934F935F936F937F938F9349
:102850009F93AF93BF93EF93FF93E0910002F091AA
:1028600001021995FF91EF91BF91AF919F918F91C7
:102870007F916F915F914F913F912F910F900BBE80
:102880000F900FBE0F901F9018951F920F920FB6CA
:102890000F9211240BB60F922F933F934F935F9398
:1028A0006F937F938F939F93AF93BF93EF93FF9318
:1028B000E0910A02F0910B021995FF91EF91BF91FF
:1028C000AF919F918F917F916F915F914F913F91C8
:1028D0002F910F900BBE0F900FBE0F901F90189569
:1028E0001F920F920FB60F9211240BB60F922F93D7
:1028F0003F934F935F936F937F938F939F93AF9388
:10290000BF93EF93FF93E0910802F09109021995AC
:10291000FF91EF91BF91AF919F918F917F916F91B7
:102920005F914F913F912F910F900BBE0F900FBE73
:102930000F901F9018951F920F920FB60F921124AF
:102940000BB60F922F933F934F935F936F937F93A9
:102950008F939F93AF93BF93EF93FF93E091060202
:10296000F09107021995FF91EF91BF91AF919F915F
:102970008F917F916F915F914F913F912F910F9028
:102980000BBE0F900FBE0F901F9018951F920F92C5
:102990000FB60F9211240BB60F922F933F934F93C4
:1029A0005F936F937F938F939F93AF93BF93EF93B7
:1029B000FF93E0910402F09105021995FF91EF91C8
:1029C000BF91AF919F918F917F916F915F914F9147
:1029D0003F912F910F900BBE0F900FBE0F901F9045
:1029E00018951F920F920FB60F9211240BB60F92EB
:1029F0002F933F934F935F936F937F938F939F9307
:102A0000AF93BF93EF93FF9382EF9AE00E94EB05A1
:102A1000FF91EF91BF91AF919F918F917F916F91B6
:102A20005F914F913F912F910F900BBE0F900FBE72
:102A30000F901F9018951F920F920FB60F921124AE
:102A40000BB60F922F938F939F93EF93FF93E09189
:102A5000020BF091030B8081E091080BF091090BC0
:102A600082FD1DC0908180910B0B8F5F8F73209131
:102A70000C0B821741F0E0910B0BF0E0EE50F54F9C
:102A8000958F80930B0BFF91EF919F918F912F91D9
:102A90000F900BBE0F900FBE0F901F901895808166
:102AA000F2CF2F923F924F925F926F927F928F92CE
:102AB0009F92AF92BF92CF92DF92EF92FF920F93CD
:102AC0001F93CF93DF931092F50A1092F40A88EEC9
:102AD00093E0A0E0B0E08093F60A9093F70AA09309
:102AE000F80AB093F90A8EE192E09093F30A80938A
:102AF000F20A85EC90E09093FF0A8093FE0A84EC42
:102B000090E09093010B8093000B80EC90E0909309
:102B1000030B8093020B81EC90E09093050B809364
:102B2000040B82EC90E09093070B8093060B86ECED
:102B300090E09093090B8093080B10920B0B10926E
:102B40000C0B10920D0B10920E0B1092E60D1092C2
:102B5000E50D82EF9AE09093E10D8093E00D1092E5
:102B6000970B8CE28093E30D8BE38093E20D8FE271
:102B70008093E40D80E48093920B8FE38093930B1A
:102B80001092910B1092DC0D1092DB0D1092DE0D65
:102B90001092DD0D81E08093D90DE7EEFDE08BE42E
:102BA0009EE0119211928E179F07D9F71092960B03
:102BB0006CE273E08CEE9AE00E94B90E6DE473E073
:102BC00086EE9AE00E94B90E86E290E090933D0A6C
:102BD00080933C0A64E773E08EE39AE00E94B90EAA
:102BE000CFEFDFEFD093450AC093440A8CE290E028
:102BF0009093470A8093460A6FE773E088E49AE06F
:102C00000E94B90ED0934F0AC0934E0A8DE290E015
:102C10009093510A8093500A66E873E082E59AE047
:102C20000E94B90ED093590AC093580A8DE390E0E0
:102C300090935B0A80935A0A60E973E08CE59AE00E
:102C40000E94B90ED093630AC093620A08E210E0B2
:102C50001093650A0093640A69E973E086E69AE0D6
:102C60000E94B90ED0936D0AC0936C0A89E290E07D
:102C700090936F0A80936E0A64EA73E080E79AE0AB
:102C80000E94B90ED093770AC093760A88E390E049
:102C90009093790A8093780A6CEA73E08AE79AE065
:102CA0000E94B90ED093810AC093800A89E390E014
:102CB0009093830A8093820A65EB73E084E89AE03C
:102CC0000E94B90ED0938B0AC0938A0A83E490E0E5
:102CD00090938D0A80938C0A60EC73E08EE89AE002
:102CE0000E94B90ED093950AC093940A85E190E0B2
:102CF0009093970A8093960A68EC73E088E99AE0CB
:102D00000E94B90ED0939F0AC0939E0A87E190E07B
:102D10009093A10A8093A00A63ED73E082EA9AE09F
:102D20000E94B90ED093A90AC093A80A85E0282E64
:102D3000312C3092AB0A2092AA0A6AED73E08CEA39
:102D40009AE00E94B90ED093B30AC093B20A86E00B
:102D500090E09093B50A8093B40A63EE73E086EB3B
:102D60009AE00E94B90ED093BD0AC093BC0A8AE0D3
:102D700090E09093BF0A8093BE0A6CEE73E080EC03
:102D80009AE00E94B90ED093C70AC093C60A88E0A1
:102D900090E09093C90A8093C80A65EF73E08AECCB
:102DA0009AE00E94B90ED093D10AC093D00A88E16C
:102DB00090E09093D30A8093D20A6EEF73E084ED93
:102DC0009AE00E94B90ED093DB0AC093DA0A8FE32F
:102DD00090E09093DD0A8093DC0A6AE074E08EED67
:102DE0009AE00E94B90ED093E50AC093E40A61E12B
:102DF00074E08CED99E00E94B90E93E0E92EF12C7D
:102E0000F092E309E092E20922E4C22ED12CD092A2
:102E1000E509C092E4091093E7090093E6098824C4
:102E20008A94982C54018092E8099092E909A09222
:102E3000EA09B092EB096EE174E08CEE99E00E9431
:102E4000B90EF092F309E092F209D092F509C0921E
:102E5000F4091093F7090093F6098092F80990920B
:102E6000F909A092FA09B092FB096BE274E08CEFC9
:102E700099E00E94B90EF092030AE092020AD09201
:102E8000050AC092040A1093070A0093060A80926A
:102E9000080A9092090AA0920A0AB0920B0A64E307
:102EA00074E08CE09AE00E94B90E3092130A2092EE
:102EB000120A8EE690E09093150A8093140A1093FC
:102EC000170A0093160A40EF442E48ED542E66244C
:102ED0006A94762C4092180A5092190A60921A0A43
:102EE00070921B0A6DE374E08CE19AE00E94B90EC7
:102EF0003092230A2092220A8EE690E09093250ACF
:102F00008093240A1093270A0093260A4092280AE5
:102F10005092290A60922A0A70922B0A65E474E0A2
:102F20008CE29AE00E94B90EF092330AE092320AE3
:102F3000D092350AC092340A1093370A0093360AA9
:102F40008092380A9092390AA0923A0AB0923B0ACB
:102F500082E390E0909375078093740763E574E0D3
:102F600086E797E00E94B90ED0937D07C0937C0757
:102F70006AE574E08EE797E00E94B90E6EE272E0B7
:102F800084E897E00E94B90E64E773E08AE897E06E
:102F90000E94B90E8EE390E0909391078093900782
:102FA00061E674E082E997E00E94B90ED093990738
:102FB000C09398076AE574E08AE997E00E94B90E29
:102FC0006EE272E080EA97E00E94B90E6AE074E077
:102FD00086EA97E00E94B90E81E390E09093AD07F6
:102FE0008093AC0764E674E08EEA97E00E94B90E25
:102FF000D093B507C093B4076CE674E086EB97E016
:103000000E94B90E67E674E08CEB97E00E94B90E5F
:103010006FE773E082EC97E00E94B90E8AE290E0DD
:103020009093C9078093C80767E774E08AEC97E03C
:103030000E94B90ED093D107C093D0076CE674E01C
:1030400082ED97E00E94B90E67E674E088ED97E0A4
:103050000E94B90E66E873E08EED97E00E94B90E0B
:1030600080E490E09093E5078093E4076DE774E0D7
:1030700086EE97E00E94B90ED093ED07C093EC075F
:103080006CE674E08EEE97E00E94B90E67E674E09D
:1030900084EF97E00E94B90E6EE272E08AEF97E04B
:1030A0000E94B90E8BE390E0909301088093000892
:1030B00060E874E082E098E00E94B90ED0930908BD
:1030C000C09308086CE674E08AE098E00E94B90EAC
:1030D00067E674E080E198E00E94B90E6EE272E06B
:1030E00086E198E00E94B90E8CE390E090931D0871
:1030F00080931C0868E874E08EE198E00E94B90EA5
:10310000D0932508C09324086CE674E086E298E02A
:103110000E94B90E67E674E08CE298E00E94B90E56
:1031200060E973E082E398E00E94B90E8BE290E0E0
:1031300090933908809338086DE874E08AE398E04A
:103140000E94B90ED0934108C09340086CE674E029
:1031500082E498E00E94B90E67E674E088E498E0A3
:103160000E94B90E69E973E08EE498E00E94B90EFE
:1031700083E390E0909355088093540864E974E0E9
:1031800086E598E00E94B90ED0935D08C0935C0874
:103190006CE674E08EE598E00E94B90E67E674E094
:1031A00084E698E00E94B90E64EA73E08AE698E04B
:1031B0000E94B90E87E390E09093710880937008A5
:1031C00068E974E082E798E00E94B90ED09379082C
:1031D000C09378086CE674E08AE798E00E94B90E24
:1031E00067E674E080E898E00E94B90E6CEA73E04C
:1031F00086E898E00E94B90E8AE390E090938D08EB
:1032000080938C086DE974E08EE898E00E94B90E16
:10321000D0939508C09394086CE674E086E998E032
:103220000E94B90E67E674E08CE998E00E94B90E3E
:1032300065EB73E082EA98E00E94B90E85E490E0C5
:103240009093A9088093A80864EA74E08AEA98E059
:103250000E94B90ED093B108C093B0086CE674E038
:1032600082EB98E00E94B90E67E674E088EB98E084
:103270000E94B90E60EC73E08EEB98E00E94B90EEC
:1032800084E190E09093C5088093C40868EA74E0F4
:1032900086EC98E00E94B90ED093CD08C093CC087C
:1032A0006CE674E08EEC98E00E94B90E67E674E07C
:1032B00084ED98E00E94B90E68EC73E08AED98E026
:1032C0000E94B90E87E090E09093E1088093E008B7
:1032D0006FEA74E082EE98E00E94B90ED093E9089C
:1032E000C093E8086CE674E08AEE98E00E94B90E9C
:1032F00067E674E080EF98E00E94B90E6EE272E03B
:1033000086EF98E00E94B90E86E190E09093FD0868
:103310008093FC0867EB74E08EEF98E00E94B90E92
:10332000D0930509C09304096CE674E086E099E047
:103330000E94B90E67E674E08CE099E00E94B90E35
:1033400063ED73E082E199E00E94B90EF0921909F1
:10335000E09218096AEB74E08AE199E00E94B90EE4
:10336000D0932109C09320096CE674E082E299E0D1
:103370000E94B90E67E674E088E299E00E94B90EF7
:103380006AED73E08EE299E00E94B90E84E090E06D
:1033900090933509809334096FEB74E086E399E0EC
:1033A0000E94B90ED0933D09C0933C096CE674E0CD
:1033B0008EE399E00E94B90E67E674E084E499E038
:1033C0000E94B90E63EE73E08AE499E00E94B90EA0
:1033D0008BE090E0909351098093500964EC74E085
:1033E00082E599E00E94B90ED0935909C09358091B
:1033F0006CE674E08AE599E00E94B90E67E674E035
:1034000080E699E00E94B90E6CEE73E086E699E0E2
:103410000E94B90E89E090E090936D0980936C0949
:1034200069EC74E08EE699E00E94B90ED0937509BC
:10343000C09374096CE674E086E799E00E94B90EC7
:1034400067E674E08CE799E00E94B90E65EF73E0DF
:1034500082E899E00E94B90E89E190E09093890991
:10346000809388096EEC74E08AE899E00E94B90EB6
:10347000D0939109C09390096AE574E082E999E0DC
:103480000E94B90E6EE272E088E999E00E94B90EDE
:103490006EE272E08EE999E00E94B90E8BE190E055
:1034A0009093A5098093A40968ED74E086EA99E0F9
:1034B0000E94B90ED093AD09C093AC096AE574E0DF
:1034C0008EEA99E00E94B90E6EE272E084EB99E018
:1034D0000E94B90E6EEF73E08AEB99E00E94B90E7C
:1034E00086E390E09093C1098093C00960EE74E098
:1034F00082EC99E00E94B90ED093C909C093C80923
:103500006CE674E08AEC99E00E94B90E67E674E01C
:1035100080ED99E00E94B90E6EE272E086ED99E0CE
:103520000E94B90E45E364E388E697E00E946507D0
:1035300047E265E28CE597E00E94650741E260E2C0
:1035400080E597E00E9465074FE06EE084E497E035
:103550000E9465074CE06DE088E397E00E946507F4
:103560004DE16AE18CE297E00E9465078CE0E8E6B5
:10357000F7E0ACE6B6E001900D928A95E1F784E3BE
:1035800090E0909379068093780685E390E090939D
:103590007B0680937A0665EE74E08CE796E00E94E5
:1035A000B90E59E1C52E5CEFD52EEE24EA94FE2C1F
:1035B000C0928206D0928306E0928406F09285063D
:1035C00061EF74E086E896E00E94B90E8CE0ECE5CD
:1035D000F7E0ACE8B6E001900D928A95E1F785E25C
:1035E00090E0909399068093980687E290E09093FC
:1035F0009B0680939A066EEF74E08CE996E00E9439
:10360000B90EC092A206D092A306E092A406F09250
:10361000A50661EF74E086EA96E00E94B90E8CE0A0
:10362000E0E5F7E0ACEAB6E001900D928A95E1F7AB
:1036300080E290E09093B9068093B80681E290E032
:103640009093BB068093BA066AE075E08CEB96E037
:103650000E94B90EC092C206D092C306E092C40680
:10366000F092C50661EF74E086EC96E00E94B90E18
:103670008CE0E4E4F7E0ACECB6E001900D928A95C2
:10368000E1F78EE090E09093D9068093D8068FE022
:1036900090E09093DB068093DA0662E175E08CEDB2
:1036A00096E00E94B90EC092E206D092E306E09244
:1036B000E406F092E50661EF74E086EE96E00E9483
:1036C000B90E8CE0E8E3F7E0ACEEB6E001900D92C5
:1036D0008A95E1F78DE090E09093F9068093F806E3
:1036E0008CE090E09093FB068093FA066AE175E027
:1036F0008CEF96E00E94B90EC0920207D0920307A9
:10370000E0920407F092050761EF74E086E097E02D
:103710000E94B90E8CE0ECE2F7E0ACE0B7E001907B
:103720000D928A95E1F78AE190E0909319078093D2
:1037300018078DE190E090931B0780931A0761E2D0
:1037400075E08CE197E00E94B90EC0922207D092FA
:103750002307E0922407F092250761EF74E086E2E8
:1037600097E00E94B90E2FE230E040E350E06EE2B5
:1037700070E084E196E00E94B30B24E230E043E283
:1037800050E062E270E08CEB95E00E94B30B2EE11A
:1037900030E04CE150E06FE170E084E695E0DF91CD
:1037A000CF911F910F91FF90EF90DF90CF90BF903E
:1037B000AF909F908F907F906F905F904F903F90D1
:1037C0002F900C94B30BCF93DF93CDB7DEB76297F6
:1037D0000FB6F894DEBF0FBECDBF789484B582607B
:1037E00084BD84B5816084BD85B5826085BD85B5A5
:1037F000816085BD80916E00816080936E00109223
:10380000810080918100826080938100809181009D
:10381000816080938100809180008160809380002E
:103820008091B10084608093B1008091B00081608C
:103830008093B0008091910082608093910080918C
:1038400091008160809391008091900081608093CD
:1038500090008091A10082608093A1008091A100DE
:1038600081608093A1008091A00081608093A0007E
:1038700080912101826080932101809121018160EA
:1038800080932101809120018160809320018091AB
:103890007A00846080937A0080917A0082608093BD
:1038A0007A0080917A00816080937A0080917A001A
:1038B000806880937A001092C100E091020BF09131
:1038C000030B82E08083E091FE0AF091FF0A1082F0
:1038D000E091000BF091010B80E1808310920A0BC4
:1038E000E091060BF091070B86E08083E091040BDA
:1038F000F091050B808180618083E091040BF09151
:10390000050B808188608083E091040BF091050BAA
:10391000808180688083E091040BF091050B8081A9
:103920008F7D808304E717E062E0D8018C910E94CC
:10393000A103045E1F4FB9E00C3D1B07A9F70CE380
:103940001AE0F6EEEF2EFAE0FF2E61E0F80180813A
:103950000E94A10361E0D8018C910E94730362E38D
:1039600070E080E090E00E94C90460E0F80180818E
:103970000E947303065F1F4FE016F10631F761E006
:1039800082E00E94A1036091120282E00E94730310
:1039900080916A0690916B061816190644F421E08E
:1039A0004CE070E060E084E196E00E94C007809106
:1039B0001206909113061816190644F421E04CE003
:1039C00070E060E08CEB95E00E94C0078091BA0542
:1039D0009091BB051816190644F421E04CE070E004
:1039E00060E084E695E00E94C0070091100210910B
:1039F0001102B80184E196E00E943C08B8018CEB0A
:103A000095E00E943C08B80184E695E00E943C08DD
:103A100088E793E00E943F0B88E793E00E94FA0A50
:103A200088E793E00E94980A88E793E00E94530A8F
:103A300088E49DED0E94B50960E07CE98DEA97E499
:103A40000E94810864EF71E080E090E00E94C90468
:103A500070E060E084E196E00E94840B70E060E03A
:103A60008CEB95E00E94840B70E060E084E695E0CA
:103A70000E94840B6EE275E083E00E949E0D87E851
:103A80009FE09093E80D8093E70D8DEF9EE090937B
:103A9000EC0D8093EB0D82EB9DE09093EE0D809307
:103AA000ED0D8DE49CE09093F20D8093F10D81E596
:103AB0009CE09093F40D8093F30D82E592E1909356
:103AC000F60D8093F50D88E79CE09093FE0D8093B2
:103AD000FD0D8EE99CE09093000E8093FF0D6FE04A
:103AE000262E312C44244A94512CE0E86E2E712C61
:103AF00080915A05882309F44BC054E7E52E57E01E
:103B0000F52E00ED17E0D7018C910E944A036C015D
:103B1000F70180859185C816D90681F1C114D104B9
:103B200009F0A5C0B801CE0101960E94670EBE0142
:103B30006F5F7F4FCE0107960E949F0E63E475E092
:103B4000CE0107960E941D0EBC01CE010D960E946B
:103B50009F0ECE010D960E945B0FCE010D960E9426
:103B6000CA0ECE0107960E94CA0ECE0101960E948F
:103B7000CA0ED7011996DC92CE921897BCE1EB0ED3
:103B8000F11C0F5F1F4F063EE7E01E0709F0BBCF99
:103B90000CE616E0F12CE12CD8011B968C918230BA
:103BA00008F079C0F894C8010E94FF06F8018781E7
:103BB0009085A185B285789442E0B595A7959795B3
:103BC00087954A95D1F746895789608D718D481739
:103BD00059076A077B070CF0A9C2868B978BA08FC9
:103BE000B18F80915A05882349F1B7016854744F09
:103BF000CE010D960E94670EBE01635F7F4FCE011E
:103C000007960E949F0E63E475E0CE0107960E941E
:103C10001D0EBC01CE0101960E949F0ECE010196A1
:103C20000E945B0FCE0101960E94CA0ECE0107963C
:103C30000E94CA0ECE010D960E94CA0EF4E0EF1645
:103C4000F10409F035C280E40E944A03892B09F08F
:103C50002CC3809112029091130240968F3F9105E0
:103C600009F0DCF490931302809312021AC0F1E081
:103C7000CF16D10409F07DCFB801CE0101960E9484
:103C8000670EBE016F5F7F4FCE0107960E949F0EA9
:103C900066E475E055CFF89489CF509213024092B4
:103CA0001202C0901202D0901302C6010E94D203E9
:103CB00080915A05882309F4F8C2B601CE01019615
:103CC0000E94670EBE016F5F7F4F8CE00E94D20E94
:103CD000CE0101960E94CA0E8FEFE81AF80A005E24
:103CE0001F4FA6E0EA16F10409F056CF80E40E94C7
:103CF0004A03892B09F0BFC084E00E944A03892B44
:103D000009F0B9C088E793E00E943F0B80916A06F2
:103D100090916B06181619065CF4B5E0B093260670
:103D200025E043E070E060E084E196E00E94C00797
:103D300040E361E070E084E196E00E944E0842E3D7
:103D400070E060E084E196E00E944E0846E467E09F
:103D500070E08CEB95E00E944E08809112069091E5
:103D60001306181619065CF48DE18093D2052DE137
:103D700047E070E060E08CEB95E00E94C007809126
:103D8000120690911306181619065CF4E5E0E0930C
:103D9000D10525E046E070E060E08CEB95E00E9404
:103DA000C00745E364E070E08CEB95E00E944E08AC
:103DB00040E563E070E08CEB95E00E944E0841E442
:103DC00062E070E08CEB95E00E944E0844E461E014
:103DD00070E08CEB95E00E944E0840E270E060E0FD
:103DE0008CEB95E00E944E0841E367E070E084E6CA
:103DF00095E00E944E084CE466E070E084E695E0B1
:103E00000E944E0842E365E070E084E695E00E947F
:103E10004E0840E564E070E084E695E00E944E08BC
:103E200040E263E070E084E695E00E944E0888E797
:103E300093E00E94FA0A68EB7BE080E090E00E9449
:103E4000C90488E793E00E943F0B88E793E00E9453
:103E5000FA0A88E793E00E94980A88E793E00E94B4
:103E6000530A88E49DED0E94B50960E07CE98DEA83
:103E700097E40E94810880E40E944A03892BE9F4B8
:103E800089E00E944A03892BC1F470E060E084E17C
:103E900096E00E94840B70E060E08CEB95E00E945D
:103EA000840B70E060E084E695E00E94840B64EF90
:103EB00071E080E090E00E94C90480E40E944A031F
:103EC000892B39F583E00E944A03892B11F5709202
:103ED00013026092120280E890E00E94D203809167
:103EE0005A05882381F060E870E0CE0101960E94B7
:103EF000670EBE016F5F7F4F8CE00E94D20ECE0135
:103F000001960E94CA0E64EF71E080E090E00E948A
:103F1000C90480E40E944A03892B39F58BE00E9492
:103F20004A03892B11F5109213021092120290E0AD
:103F300080E00E94D20380915A05882381F070E0CE
:103F400060E0CE0101960E94670EBE016F5F7F4F59
:103F50008CE00E94D20ECE0101960E94CA0E64EF40
:103F600071E080E090E00E94C9048091960B81117D
:103F700092C18091E00D9091E10DDC01ED91FC91F9
:103F80000084F185E02D1995892B09F484C1809175
:103F9000E00D9091E10DDC01ED91FC910084F18543
:103FA000E02D1995C12C32E0D32E8115924064F496
:103FB0008091E00D9091E10DDC01ED91FC91008488
:103FC000F185E02D19956C010091E00D1091E10D46
:103FD00028ED822E2BE0922E5401F12CE12CCE14F0
:103FE000DF0409F007C110E000E0C016D10609F4B3
:103FF000BCCFD4019D914D011092D80D3091E40DAC
:104000002091950B9093950B931304C0921302C0CB
:104010001092950B8091910BE82FF0E04091E20D0A
:10402000E157F44F94131EC1321709F41BC11186D6
:10403000882329F0B1E0B093D80D1092950B10921F
:10404000910B1092DC0D1092DB0D1092DE0D109290
:10405000DD0DE1E0E093D90DF090D80DF1E0FF1215
:1040600017C10E949202882309F406C1F092D90D6B
:10407000F092DA0D8091DB0D9091DC0D0E9400230F
:104080008093900B823308F0FCC02091DA0D22233C
:1040900009F4F7C0FC01FF27EE0FFF1FE951F24FB3
:1040A0000190F081E02D309709F4EBC01995F0C034
:1040B00025E0E216F10409F00FCE80E40E944A03E5
:1040C000892B09F013CE8091100290911102019674
:1040D000803191052CF4909311028093100204C05A
:1040E0003092110220921002C0901002D090110262
:1040F000B60184E196E00E943C08B6018CEB95E0A5
:104100000E943C08B60184E695E00E943C0880913C
:104110005A05882309F4EACDB601CE0101960E9422
:10412000670EBE016F5F7F4F8BE0D0CD8417950780
:10413000A607B7070CF0D0CD868B978BA08FB18FD9
:1041400080915A05882349F1B7016854744FCE0114
:104150000D960E94670EBE01635F7F4FCE010796EA
:104160000E949F0E69E475E0CE0107960E941D0E25
:10417000BC01CE0101960E949F0ECE0101960E94C5
:104180005B0FCE0101960E94CA0ECE0107960E94D7
:10419000CA0ECE010D960E94CA0EF4E0EF16F1048D
:1041A00091F480E40E944A03892B09F07EC080913B
:1041B000120290911302409797FF54CD1092130270
:1041C000109212026ECD25E0E216F10409F084CDC2
:1041D00080E40E944A03892B09F088CD8091100267
:1041E00090911102019797FF76CF109211021092D1
:1041F00010027ACF2FB7F89480915C0590915D05FD
:10420000A0915E05B0915F052FBFF801808791876F
:10421000A287B387D801ED91FC910284F385E02D4C
:10422000C801199597FF3AC02FB7F89480915C05A3
:1042300090915D05A0915E05B0915F052FBFF801DB
:104240004085518562857385841B950BA60BB70B42
:10425000448155816681778184179507A607B70742
:10426000C8F2C1CE91878F5F8093910B9091930B91
:10427000891708F0E4CEF0CE1092DA0D90E080E0DD
:10428000FFCEE091E50DF091E60D309709F00ECFED
:104290000F5F1F4FAACE0E947A062ACCD5018D93BC
:1042A0005D01BFEFEB1AFB0A9ACE85E0E82EF12CF8
:1042B000005E1F4F71CCCF93DF93CCE2D7E0A09785
:1042C000CE014A960E94CA0ECE0140960E94CA0EA6
:1042D00086E0CC36D80799F7CCEDD9E06C97CE01C3
:1042E00046960E94CA0ECE0140960E94CA0ECE018A
:1042F0000A960E94CA0ECE0102960E94CA0E87E05C
:10430000C437D80759F7CCE3DAE06097CE010E94B2
:10431000CA0E89E0CC3DD807C1F7C6EEDAE02A978D
:10432000CE0102960E94CA0E8AE0CC33D807B9F7B4
:1043300086EE9AE00E94CA0E8CEE9AE0DF91CF9151
:104340000C94CA0E8F929F92AF92BF92CF92DF923F
:10435000EF92FF920F931F93CF93DF935C017B014A
:104360006115710519F0DB018D939C9385010F5F39
:104370001F4FF501D0818D2F90E00E9445236C01E5
:10438000892BB9F5DD32B9F50F5F1F4FD5011196B5
:10439000DC91C1E05801F1E0AF1AB10843E050E010
:1043A0006CEC71E0C5010E944E23892B69F5680110
:1043B00082E0C80ED11C45E050E067EC71E0C60118
:1043C0000E944E23892B21F4680197E0C90ED11C6D
:1043D000E114F10419F0D701CD92DC9260E070E0B5
:1043E00080E89FEFC111FFC060E070E080E89FE7C8
:1043F000FAC05801BBCFDB3229F485010E5F1F4F95
:10440000F501D181C0E0C6CF43E050E064EC71E03B
:10441000C5010E944E23892BE9F0F80110E000E06D
:1044200020E030E0A9015F01B0ED8B2E8D0E89E018
:104430008815C8F19C2E689491F88C2F8870C2FF63
:1044400016C0811102C00F5F1F4F3196D501DC915C
:10445000C92DE9CFE114F10429F00E5F1F4FF701D8
:104460001183008360E070E080EC9FE7BCC088238C
:1044700011F001501109A5E0B0E00E94DF249B017A
:10448000AC01220F331F441F551F280D311D411D44
:10449000511D283999E93907490799E15907A8F2C7
:1044A000C6609C2ED2CFAEEF8A1206C0C3FD3CC0C0
:1044B0009C2E689493F8C9CFDF7DD534A9F580810F
:1044C0008D3239F4C061DF011296818162E070E0C3
:1044D00006C0DF018B32C1F3119661E070E08053BA
:1044E0005D01A61AB70A8A30F8F4E0E8CE16ECE0CF
:1044F000DE065CF4B601660F771F660F771FC60EE7
:10450000D71ECC0CDD1CC80ED11C5D01FFEFAF1A0D
:10451000BF0A8C9180538A30A8F1C4FF03C0D194A4
:10452000C194D1080C0D1D1DC1FF09C0E114F10497
:1045300031F081E0A81AB108D701AD92BC92CA014E
:10454000B9010E94AD23C370C33009F490584B01E8
:104550005C0120E030E0A9010E94A823882309F42F
:1045600040C0CBEFD1E017FF05C0119501951109AF
:10457000C3EED1E06E01B8E1CB1AD10880E2E82E9B
:10458000F12C0FC0D501B1CFFE0125913591459198
:1045900054910E191F09C501B4010E940E244B014C
:1045A0005C01D501C4010E151F0574F72497F5941D
:1045B000E794CC16DD06A9F78A2F880F8B2F881F6A
:1045C0008F3F49F020E030E0A901C501B4010E940D
:1045D000A823811106C082E290E090934C0E809354
:1045E0004B0EC501B401DF91CF911F910F91FF9048
:1045F000EF90DF90CF90BF90AF909F908F900895F5
:10460000FC0188279927E89421912032E9F3293089
:1046100010F02E30C8F32B3241F02D3239F468946B
:1046200004C00E948623820F911D219120532A30BD
:10463000C0F31EF4909581959F4F08951F93FC0140
:1046400099278827BC01E89411911032E9F31930B9
:1046500010F01E30C8F31B3251F01D3249F468943B
:1046600006C00E947123610F711D811D911D119162
:1046700010531A30B0F33EF4909580957095619583
:104680007F4F8F4F9F4F1F91089591110C947B2462
:10469000803219F089508550C8F70895FB01DC017C
:1046A0004150504088F08D9181341CF08B350CF4D2
:1046B000805E659161341CF06B350CF4605E861B86
:1046C000611171F3990B0895881BFCCFBB274A3009
:1046D00031F4992322F4BDE2909581959F4F0C947B
:1046E0008F23592F482F372F262F660F771F881FAC
:1046F000991F660F771F881F991F620F731F841FF2
:10470000951F660F771F881F991F08957AE0979F5E
:10471000902D879F802D910D11240895BB27FB01BB
:104720005527AA27880F991FAA1FA41710F0A41BAA
:1047300083955051B9F7A05DAA3308F0A95DA19304
:10474000009779F7B111B1931192CB010C947E24AB
:104750000E94EA2308F481E00895E89409C097FBD9
:104760003EF490958095709561957F4F8F4F9F4F48
:104770009923A9F0F92F96E9BB279395F69587958C
:1047800077956795B795F111F8CFFAF4BB0F11F44F
:1047900060FF1BC06F5F7F4F8F4F9F4F16C08823F6
:1047A00011F096E911C0772321F09EE8872F762F2C
:1047B00005C0662371F096E8862F70E060E02AF06D
:1047C0009A95660F771F881FDAF7880F9695879559
:1047D00097F90895990F0008550FAA0BE0E8FEEF2E
:1047E00016161706E807F907C0F012161306E407B5
:1047F000F50798F0621B730B840B950B39F40A26AE
:1048000061F0232B242B252B21F408950A2609F48B
:10481000A140A6958FEF811D811D08950E9421243E
:104820000C94A5240E94972438F00E949E2420F026
:10483000952311F00C948E240C94942411240C9440
:10484000D9240E94B62470F3959FC1F3950F50E0D0
:10485000551F629FF001729FBB27F00DB11D639F32
:10486000AA27F00DB11DAA1F649F6627B00DA11DD8
:10487000661F829F2227B00DA11D621F739FB00D7E
:10488000A11D621F839FA00D611D221F749F3327EE
:10489000A00D611D231F849F600D211D822F762F87
:1048A0006A2F11249F5750409AF0F1F088234AF064
:1048B000EE0FFF1FBB1F661F771F881F91505040D0
:1048C000A9F79E3F510580F00C948E240C94D924B6
:1048D0005F3FE4F3983ED4F3869577956795B79557
:1048E000F795E7959F5FC1F7FE2B880F911D969571
:1048F000879597F90895992788270895DC01FC0189
:10490000672F71917723E1F7329704C07C916D9303
:1049100070836291AE17BF07C8F3089597F99F6738
:1049200080E870E060E008959FEF80EC0895002437
:104930000A941616170618060906089500240A9404
:1049400012161306140605060895092E0394000C8A
:1049500011F4882352F0BB0F40F4BF2B11F460FF19
:1049600004C06F5F7F4F8F4F9F4F089557FD905842
:10497000440F551F59F05F3F71F04795880F97FB23
:10498000991F61F09F3F79F08795089512161306DD
:104990001406551FF2CF4695F1DF08C0161617060C
:1049A0001806991FF1CF8695710561050894089541
:1049B000E894BB2766277727CB0197F908950E94D3
:1049C000EA24A59F900DB49F900DA49F800D911D8A
:1049D00011240895A29FB001B39FC001A39F700D41
:1049E000811D1124911DB29F700D811D1124911DF7
:1049F00008950E940D250C94A5240E949E2458F031
:104A00000E94972440F029F45F3F29F00C948E24F3
:104A100051110C94D9240C9494240E94B62468F368
:104A20009923B1F3552391F3951B550BBB27AA2767
:104A300062177307840738F09F5F5F4F220F331FA1
:104A4000441FAA1FA9F335D00E2E3AF0E0E832D069
:104A500091505040E695001CCAF72BD0FE2F29D06C
:104A6000660F771F881FBB1F261737074807AB073E
:104A7000B0E809F0BB0B802DBF01FF2793585F4FB3
:104A80003AF09E3F510578F00C948E240C94D92472
:104A90005F3FE4F3983ED4F3869577956795B79595
:104AA000F7959F5FC9F7880F911D9695879597F9A0
:104AB0000895E1E0660F771F881FBB1F6217730719
:104AC0008407BA0720F0621B730B840BBA0BEE1F2E
:104AD00088F7E09508950E9472256894B1110C94AE
:104AE000D92408950E94BE2488F09F5798F0B92FCA
:104AF0009927B751B0F0E1F0660F771F881F991F13
:104B00001AF0BA95C9F714C0B13091F00E94D824B8
:104B1000B1E008950C94D824672F782F8827B85FC8
:104B200039F0B93FCCF3869577956795B395D9F76A
:104B30003EF490958095709561957F4F8F4F9F4F74
:104B400008950E94EA2308F48FEF089597FB072E3B
:104B500016F4009407D077FD09D00E94E42507FCE5
:104B600005D03EF4909581959F4F0895709561957D
:104B70007F4F0895A1E21A2EAA1BBB1BFD010DC099
:104B8000AA1FBB1FEE1FFF1FA217B307E407F507FD
:104B900020F0A21BB30BE40BF50B661F771F881FD9
:104BA000991F1A9469F760957095809590959B016F
:104BB000AC01BD01CF010895EE0FFF1F881F8BBF11
:104BC0000790F691E02D1994AA1BBB1B51E107C079
:104BD000AA1FBB1FA617B70710F0A61BB70B881F8D
:104BE000991F5A95A9F780959095BC01CD0108951C
:104BF0000F931F93CF93DF938230910510F482E0DF
:104C000090E0E0914F0EF091500E30E020E0B0E0E7
:104C1000A0E0309799F42115310509F44AC0281B0A
:104C2000390B24303105D8F58A819B8161157105D6
:104C300089F1FB0193838283FE0111C04081518180
:104C40000281138148175907E0F04817590799F472
:104C5000109761F012960C93129713961C9332964C
:104C6000CF01DF91CF911F910F91089500934F0EC7
:104C70001093500EF4CF2115310551F04217530710
:104C800038F0A901DB019A01BD01DF01F801C1CFB4
:104C9000EF01F9CF9093500E80934F0ECDCFFE01D0
:104CA000E20FF31F819391932250310939832883B6
:104CB000D7CF20914D0E30914E0E232B41F42091F1
:104CC00016023091170230934E0E20934D0E209114
:104CD0001402309115022115310541F42DB73EB76C
:104CE0004091180250911902241B350BE0914D0E92
:104CF000F0914E0EE217F307A0F42E1B3F0B28177E
:104D0000390778F0AC014E5F5F4F2417350748F044
:104D10004E0F5F1F50934E0E40934D0E8193919313
:104D20009FCFF0E0E0E09CCFCF93DF930097E9F0D6
:104D3000FC01329713821282A0914F0EB091500E57
:104D4000ED0130E020E01097A1F420813181820F45
:104D5000931F20914D0E30914E0E2817390709F000
:104D600061C0F0934E0EE0934D0EDF91CF91089508
:104D7000EA01CE17DF07E8F54A815B819E01411504
:104D80005105B1F7E901FB83EA8349915991C40FB9
:104D9000D51FEC17FD0761F4808191810296840F85
:104DA000951FE90199838883828193819B838A83FC
:104DB000F0E0E0E012968D919C9113970097B9F581
:104DC0002D913C911197CD010296820F931F209156
:104DD0004D0E30914E0E2817390739F6309751F5A0
:104DE0001092500E10924F0EB0934E0EA0934D0E97
:104DF000BCCFD383C28340815181840F951FC817D4
:104E0000D90761F44E5F5F4F88819981480F591F20
:104E1000518340838A819B8193838283211531054D
:104E200009F0B0CFF093500EE0934F0E9ECFFD01EE
:104E3000DC01C0CF13821282D7CF4F925F926F9264
:104E40007F928F929F92AF92BF92CF92DF92EF921A
:104E5000FF920F931F93CF93DF938C01009799F4E8
:104E6000CB01DF91CF911F910F91FF90EF90DF90D9
:104E7000CF90BF90AF909F908F907F906F905F90FA
:104E80004F900C94F825FC01E60FF71F9C0122506F
:104E90003109E217F30708F4AEC0D901CD91DC91D6
:104EA0001197C617D70720F1C530D10578F0CE018C
:104EB00004978617970750F0C61BD70B2297C1930C
:104EC000D1936D937C93CF010E949426C801DF910A
:104ED000CF911F910F91FF90EF90DF90CF90BF90F7
:104EE000AF909F908F907F906F905F904F900895BC
:104EF0005B01AC1ABD0A4C018C0E9D1EA0914F0E99
:104F0000B091500E512C412CF12CE12C109731F521
:104F100080914D0E90914E0E8815990509F05CC058
:104F20004616570608F058C0809114029091150259
:104F3000009741F48DB79EB7409118025091190225
:104F4000841B950BE817F90708F055C0F0934E0E37
:104F5000E0934D0EF90171836083B8CF8D919C91E0
:104F6000119712966C90129713967C901397A81530
:104F7000B90559F56C0142E0C40ED11CCA14DB041A
:104F800020F1AC014A195B09DA011296159780F0FD
:104F90006282738251834083D9016D937C93E114C3
:104FA000F10471F0D7011396FC93EE9312978ECF14
:104FB00022968C0F9D1FF90191838083F301EFCF1F
:104FC000F093500EE0934F0E81CF4816590608F427
:104FD0002C017D01D3019ACFCB010E94F8257C01E1
:104FE000009749F0AE01B8010E94FE27C8010E9457
:104FF000942687016BCF10E000E068CFFB01DC0155
:1050000002C001900D9241505040D8F70895FB0125
:10501000DC018D91019080190110D9F3990B08954D
:10502000FB01DC0101900D920020E1F7089512E0F0
:10503000CDE3D2E000E006C0802FFE010E94DC2517
:105040002196011DCE33D10780E00807A9F7F89417
:02505000FFCF90
:10505200FB04FB04FB04FB04FB04FB04FB04FB0456
:10506200080080000000510E8000000000000D06C4
:105072007705A4055A06D505B305C7050D0A0055DF
:105082004E4B4E4F574E20434F4D4D414E440053D1
:105092005441525400454E4400494E495400415532
:1050A20054484F523D005343414E535441544500DE
:1050B20053544154455343414E0050494E470050CA
:1050C2004F4E4700434F4E464947004C45443D0032
:1050D2004C454E4754483D0057494454483D0048CA
:1050E20045494748543D004144442C31312C444900
:1050F20053504C5F4252492C55382C52572C44691C
:1051020073706C6179732C4D4350207365676D65C4
:105112006E7473206469736C61797320627269675B
:1051220068746E6573732066726F6D203020746FC1
:10513200203135004144442C31322C42434B4C54F3
:105142005F4252492C55382C52572C4261636B6C8A
:10515200696768742C4D4350206261636B6C6967A8
:105162006874206272696768746E65737320667210
:105172006F6D203020746F20323535003336306247
:1051820038313265663130643333653534353765ED
:10519200653762343132383435333666007B383421
:1051A2003637366633642D646464662D343863346E
:1051B2002D616234632D38333966323432623633CC
:1051C20065307D0046444C4546545F4C4544004E94
:1051D200315F4C45440053504545445F4C454400C3
:1051E200564E41565F4C4544004C564C4348475F2F
:1051F2004C4544004844475F4C4544004C4E4156A0
:105202005F4C454400564F524C4F435F4C4544005F
:105212004150505F4C454400414C54484C445F4C13
:1052220045440056535F4C454400434D44415F4C56
:10523200454400434D44425F4C454400435753416B
:105242005F4C454400435753425F4C45440046443B
:1052520052494748545F4C45440041545F4C4544D1
:10526200004352534C4546545F4449535000494110
:10527200534D4143485F44495350004844475F44BB
:1052820049535000414C545F444953500056535FB8
:10529200444953500043525352494748545F44498A
:1052A20053500046444C45465400535749544348D2
:1052B200004154004E3100535041445F5055534811
:1052C200425554544F4E00535045454400434F00FD
:1052D200535044494E545600564E4156004C564C7B
:1052E20043484700484447004C4E415600564F52EF
:1052F2004C4F430041505000414C54484C440041F3
:105302004C54494E545600565300434D44410043B9
:105312004D444200435753410043575342004449CE
:1053220053454E4741474500464452494748540079
:1053320042414E4B004352534C4546545F454E4307
:1053420000535041445F454E434F4445520049414A
:10535200534D4143485F454E43004844475F454EE5
:105362004300414C545F454E430056535F454E4304
:105372000043525352494748545F454E43004154FB
:1053820054414348494E472043414C4C4241434BD0
:0E5392005321002C31002C30002C2D31000056
:00000001FF
