:100000000C9471020C9469160C943E160C94131601
:100010000C94E8150C94BD150C9492150C9467156E
:100020000C943C150C94A2020C94A2020C94A20213
:100030000C94A2020C94A2020C94A2020C94A202B0
:100040000C94A2020C94A2020C94A2020C94A202A0
:100050000C94A2020C94A2020C94A2020C94F2142E
:100060000C94A2020C94BE160C9494160C94A2024A
:100070000C94A2020C94A2020C94A2020C94A20270
:100080000C94A2020C94A2020C94A2020C94A20260
:100090000C94A2020C94A2020C94A2020C94A20250
:1000A0000C94A2020C94A2020C94A2020C94A20240
:1000B0000C94A2020C94A2020C94A2020C94A20230
:1000C0000C94A2020C94A2020C94A2020C94A20220
:1000D0000C94A2020C94A2020C94A2020C94A20210
:1000E0000C94A2020C9461030C9453030C9490079B
:1000F0000C94B20F0C9440040C94B10D0C94750345
:100100000C94290C0C9487040C9459030C94950CB2
:100110000C9406060C944F030C94C8230C944903CA
:100120000C94B4040C943E030C942D0C0C94D20447
:100130000C94540C0C94C8040C94E3050C94A00487
:100140000C9473040C9496070C947D040C944F0447
:100150000C9499060C9414060C94A2070C947A0C37
:100160000C943A050C944C060C9439040C945D03E1
:100170000C9442030C9463040C94F4160C946B03DB
:100180000C9434030C94B6050C94FC0E0C94AA0445
:100190000C9474030C943A030C9459040C94F205D7
:1001A0000C946B040C94F4130C94BE040C9467032D
:1001B0000C9479030C949C070C946F030C94910499
:1001C0000C9446030C9445044E414E494E495459F3
:1001D000494E46CDCCCC3D0AD7233C17B7D1387712
:1001E000CC2B329595E6241FB14F0A000020410028
:1001F00000C84200401C4620BCBE4CCA1B0E5AAE72
:10020000C59D74494E5055542C302C434F4E464991
:10021000475552455F50414E454C5F5354415455EC
:10022000532C53595354454D2C535041445F564918
:10023000525455414C5F504F5745522C55495F54CD
:100240005950453D332C435553544F4D5F545950ED
:10025000453D504F57455200464F524547524F5526
:100260004E443D2346464646464600524F573D3192
:1002700000535041445F444953504C415900444954
:1002800053504C4159004F555450555400524F55FE
:100290005445544F3D4844475F454E430048494408
:1002A00044454E3D310055495F5354594C453D300E
:1002B0000055495F545950453D3200494E50555400
:1002C0000048494444454E3D3100535041445F4C41
:1002D0004544004C4544004F555450555400454E3C
:1002E000434F44455200494E505554004E4F5F44D1
:1002F0004953504C41595F434C4541523D310056A2
:1003000050535550504F52543D3100504147455382
:100310005550504F52543D3000495347454E455279
:1003200049433D31004F5054494F4E0043465420FD
:10033000373337204D4350005350414400000021D3
:1003400000240027002A002D0030003300010100A6
:1003500000040107010A0100002200250028002BEB
:10036000002E003100340002010000050108010BDD
:1003700001000020002300260029002C002F00325D
:10038000000001000003010601090105050505073C
:100390000508080808020202020A0A080804040400
:1003A000040101010101010101030303030303032C
:1003B00003040707070C0C0C0C0C0C0C0C020202BB
:1003C0000206060606060606060B0B0B0B0B0B0BAE
:1003D0000B0102102020080810204010204080024D
:1003E000010201080402010102040810204080807B
:1003F00040201008040201800402018040201008FF
:1004000004020108040201010204081020408001D6
:10041000020408102040807E306D79335B5F707F6E
:100420007B771F0D3D4F47000000000000000000DB
:1004300000000000000000000000000000000000BC
:10044000000000800180007E306D79335B5F707F3B
:100450007B00000000000000771F0D3D4F47003774
:100460000000000E00000067000000000000000017
:100470000000000000000800771F0D3D4F470037C7
:100480000000000E00151D670000000000000000C5
:100490000000000000000000000A0B02090C0D0E15
:1004A0000807030401000000000000000000000035
:1004B000000000000000000000000000000000003C
:1004C00000000012111000000000000000000000F9
:1004D0000000000000000000000000000000F41612
:1004E000C82311241FBECFEFD1E2DEBFCDBF00E095
:1004F0000CBF2EE0A6EEB5E001C01D92A13FB207F1
:10050000E1F715E0A0E0B2E0EEE1F5E500E00BBFB9
:1005100002C007900D92A63EB107D9F712E0C0E7DE
:10052000D2E000E006C021970109802FFE010E9461
:100530004228CF36D10780E00807A9F70E948A1D1C
:100540000C947D2A0C940000AC011092340C909114
:10055000840E8091830EFA01BF01641B750B2091FC
:10056000340C30813093340C931304C0921302C0C6
:100570001092340C3081311104C0921721F0CB015C
:1005800008953817D1F33196E7CF0F931F93CF9388
:10059000DF938091780E882309F446C0D0E0C0E054
:1005A000813029F482E08093780EC8E3DCE080910A
:1005B000790E882341F1209721F4C0917D0ED091CE
:1005C0007E0E8E01CE010E94A402892B29F4219671
:1005D000F80180818111F5CFF8018081882309F12C
:1005E000C8010E94A402F801E80FF91F8081882346
:1005F00011F010823196F0937E0EE0937D0E1093F1
:100600007C0E00937B0E80917B0E90917C0E892B4B
:1006100059F081E08093790EDF91CF911F910F9176
:10062000089510E000E0EBCF80E0F6CF81508231FA
:1006300008F05AC0E82FF0E08827EE5DFC4F8F4F9E
:100640000C9442284203460334033A033E037403E6
:1006500049034F03530359035D03610367036B03AE
:1006600074036F0375037903809180008F77809303
:1006700080000895809180008F7DF9CF8091800067
:10068000877FF5CF84B58F7784BD089584B58F7D3E
:10069000FBCF8091B0008F778093B0000895809158
:1006A000B0008F7DF9CF809190008F77809390007C
:1006B0000895809190008F7DF9CF80919000877F81
:1006C000F5CF8091A0008F778093A000089580914E
:1006D000A0008F7DF9CF8091A000877FF5CF80911A
:1006E00020018F77809320010895809120018F7DD4
:1006F000F9CF80912001877FF5CFCF93DF93282F0B
:1007000030E0F901E956FB4F8491F901EF52FC4FBB
:10071000D491F901E557FC4FC491CC23A1F081118C
:100720000E941603EC2FF0E0EE0FFF1FEF58FC4F76
:10073000A591B491EC91ED2381E090E009F480E083
:10074000DF91CF91089580E090E0FACF1F93CF938F
:10075000DF93282F30E0F901E956FB4F8491F9012E
:10076000EF52FC4FD491F901E557FC4FC491CC23D3
:10077000A9F0162F81110E941603EC2FF0E0EE0F66
:10078000FF1FE95AFC4FA591B4918FB7F894EC91F3
:10079000111108C0D095DE23DC938FBFDF91CF917C
:1007A0001F910895DE2BF8CFCF93DF9390E0FC01EB
:1007B000EF52FC4F249185579C4FFC018491882374
:1007C000D1F090E0880F991FFC01E35CFC4FA591EC
:1007D000B491FC01E95AFC4FC591D491623071F497
:1007E0009FB7F8943C91822F809583238C93E88166
:1007F0002E2B28839FBFDF91CF9108958FB7F89458
:10080000EC912E2B2C938FBFF6CFCF93DF93EC017F
:1008100061E082E00E94D403209731F460E082E03E
:10082000DF91CF910C94A603CF3FD10511F461E085
:10083000F6CFE9E9F4E0E491E150E23108F0B2C02A
:10084000F0E08827E95DFB4F8F4F0C944228390474
:10085000400445044F045904D20463046B04730438
:100860007D0487049104A004AA04D204B404BE0445
:10087000C80484B5806884BDC7BDDF91CF91089559
:1008800084B5806284BDC8BDF8CF80918000806847
:1008900080938000D0938900C0938800EECF809130
:1008A0008000806280938000D0938B00C0938A0088
:1008B000E4CF80918000886080938000D0938D0089
:1008C000C0938C00DACF8091B00080688093B00034
:1008D000C093B300D2CF8091B00080628093B0000B
:1008E000C093B400CACF809190008068809390003C
:1008F000D0939900C0939800C0CF809190008062FF
:1009000080939000D0939B00C0939A00B6CF8091C3
:100910009000886080939000D0939D00C0939C00CD
:10092000ACCF8091A00080688093A0008091A0004F
:100930008F7B8093A000D093A900C093A8009DCF87
:100940008091A00080628093A000D093AB00C09300
:10095000AA0093CF8091A00088608093A000D093DC
:10096000AD00C093AC0089CF809120018068809356
:100970002001D0932901C09328017FCF80912001CD
:10098000806280932001D0932B01C0932A0175CF00
:1009900080912001886080932001D0932D01C09325
:1009A0002C016BCFC038D1050CF041CF37CF3FB70A
:1009B000F8948091000690910106A0910206B091F2
:1009C000030626B5A89B05C02F3F19F00196A11D6F
:1009D000B11D3FBFBA2FA92F982F8827BC01CD0189
:1009E000620F711D811D911D42E0660F771F881FE8
:1009F000991F4A95D1F708958F929F92AF92BF9217
:100A0000CF92DF92EF92FF924B015C010E94D704DC
:100A10006B017C010E94D7046C197D098E099F0926
:100A2000683E734081059105A8F321E0821A910880
:100A3000A108B10888EEC80E83E0D81EE11CF11CA5
:100A400081149104A104B10429F7FF90EF90DF9085
:100A5000CF90BF90AF909F908F9008952FB7F8944C
:100A60006091FC057091FD058091FE059091FF0558
:100A70002FBF08950895DC01ED91FC910190F08164
:100A8000E02D1994EF92FF920F931F93CF93DF9372
:100A900020912F0C2223E9F08C016091830E80912C
:100AA000800E9091810E0E943B05E090800EF090A8
:100AB000810EE801FE016491662359F0D701ED91A2
:100AC000FC910190F081E02DC70119952196892BA9
:100AD00089F7DF91CF911F910F91FF90EF900895CB
:100AE000CF93DF9320912F0C2223D1F0EC01609162
:100AF000830E8091800E9091810E0E943B05809123
:100B0000800E9091810E4C815D8168817981DC013C
:100B1000ED91FC910280F381E02DDF91CF9119944A
:100B2000DF91CF910895CF93DF9320912F0C222353
:100B3000D1F0EC016091830E8091800E9091810E36
:100B40000E943B058091800E9091810E4C815D81C9
:100B500068817981DC01ED91FC910280F381E02DC7
:100B6000DF91CF911994DF91CF910895AF92BF9209
:100B7000CF92DF92EF92FF920F931F93CF93DF9369
:100B80006C017B018B01040F151FEB015E01AE1898
:100B9000BF08C017D10759F06991D601ED91FC91BA
:100BA0000190F081E02DC6011995892B79F7C501D7
:100BB000DF91CF911F910F91FF90EF90DF90CF9039
:100BC000BF90AF900895FC01538D448D252F30E0E8
:100BD000842F90E0821B930B541710F0CF9608954A
:100BE00001970895FC01918D828D981761F0A28D77
:100BF000AE0FBF2FB11D5D968C91928D9F5F9F733D
:100C0000928F90E008958FEF9FEF0895FC01918DF2
:100C1000828D981731F0828DE80FF11D858D90E05F
:100C200008958FEF9FEF0895FC01918D228D892FFC
:100C300090E0805C9F4F821B91098F7399270895E4
:100C400082E99BE00E94140621E0892B09F420E050
:100C5000822F0895FC01A48DA80FB92FB11DA35AAE
:100C6000BF4F2C91848D90E001968F739927848FCC
:100C7000A689B7892C93A089B1898C9183708064EF
:100C80008C93938D848D981306C00288F389E02D90
:100C900080818F7D80830895EF92FF920F931F9341
:100CA000CF93DF93EC0181E0888F9B8D8C8D98131F
:100CB0001AC0E889F989808185FF15C09FB7F8942B
:100CC000EE89FF896083E889F98980818370806477
:100CD00080839FBF81E090E0DF91CF911F910F91C2
:100CE000FF90EF900895F62E0B8D10E00F5F1F4FD1
:100CF0000F731127E02E8C8D8E110CC00FB607FCE0
:100D0000FACFE889F989808185FFF5CFCE010E946D
:100D10002A06F1CFEB8DEC0FFD2FF11DE35AFF4FAB
:100D2000F0829FB7F8940B8FEA89FB8980818062FB
:100D3000CFCFCF93DF93EC01888D8823B9F0AA89B8
:100D4000BB89E889F9898C9185FD03C0808186FD86
:100D50000DC00FB607FCF7CF8C9185FFF2CF8081D5
:100D600085FFEDCFCE010E942A06E9CFDF91CF911A
:100D7000089580E090E0892B29F00E9420068111DF
:100D80000E94000080E090E0892B49F080E090E034
:100D9000892B29F00E94000081110E94000080E050
:100DA00090E0892B49F080E090E0892B29F00E94A7
:100DB000000081110E94000080E090E0892B49F042
:100DC00080E090E0892B29F00E94000081110C94B2
:100DD00000000895CF93DF93CCEDDAE060E08881E6
:100DE0000E94A6032A968BE0C638D807B9F7DF9190
:100DF000CF910895833171F120F48231E9F180E0DF
:100E000008958431A9F08531D1F77093EB05609393
:100E1000EA0582EA97E090930502809304028091AC
:100E200069008C7F816080936900E89A81E0089571
:100E30007093ED056093EC058CE997E090930702C1
:100E40008093060280916900837F846080936900AB
:100E5000E99AECCF7093EF056093EE0586E997E091
:100E60009093090280930802809169008F7C8061D1
:100E700080936900EA9ADACF7093F1056093F005E8
:100E800080E997E090930B0280930A0280916900B9
:100E90008F73806480936900EB9AC8CFDC01ED9179
:100EA000FD918081ED91FD919081ED91FD916C918D
:100EB00063708E2309F064609F2309F06860EBE69D
:100EC000F7E0E60FF11D659565956D936D917D9148
:100ED0008D919D91099423C01AC012C016C010C0F4
:100EE0001EC009C014C013C006C019C009C00DC07F
:100EF00007C00DC014C062507040804090400BC0CD
:100F0000615070408040904006C06E5F01C06F5FCE
:100F10007F4F8F4F9F4F9E938E937E936E93089536
:100F20008091F0059091F1050C944E078091EE05AB
:100F30009091EF050C944E078091EC059091ED0592
:100F40000C944E078091EA059091EB050C944E07A6
:100F50008091E8059091E9050C944E078091E60593
:100F60009091E7050C944E070F931F93CF93DF9357
:100F7000EC01062F142F62E0802F0E94D40362E060
:100F8000812F0E94D403802F90E0FC01E557FC4F95
:100F9000E491F0E0EE0FFF1FEF58FC4FA591B491E4
:100FA000B983A883FC01EF52FC4F24912C83812F3D
:100FB00090E0FC01E557FC4FE491F0E0EE0FFF1FDD
:100FC000EF58FC4F459154915B834A83FC01EF52EB
:100FD000FC4FE491ED831F82188619861A868BE3F5
:100FE0009FE10197F1F78C91282391E009F490E0BB
:100FF000DA018C91E82309F092609E83BE01802F74
:101000000E94FA068B87BE01812F0E94FA069B85FB
:10101000890F8B87DF91CF911F910F9108954F9288
:101020005F926F927F928F929F92AF92BF92CF9278
:10103000DF92EF92FF920F931F93CF93DF931F9254
:101040001F92CDB7DEB78C0149832A83660F771FC5
:10105000F801EA5AFF4FE080F180EE0CFF1CF80126
:10106000CF01801B910B8E159F0514F41192F8CFC0
:101070008981F801E60FF71F81838A8180836801E7
:1010800084E5C80ED11C60E0F60180810E94A603B1
:101090005801F2E5AF0EB11C480180E5880E911CA5
:1010A0001E141F040CF5E1E0EE1AF108F801EE0D34
:1010B000FF1D6080F5015080F401408088E0782EAB
:1010C000662D661F6627661F842D0E94A603660C88
:1010D00061E0852D0E94A60360E0852D0E94A60395
:1010E0007A947110EDCFDCCF61E0F60180810F9032
:1010F0000F90DF91CF911F910F91FF90EF90DF90B4
:10110000CF90BF90AF909F908F907F906F905F90A7
:101110004F900C94A603FC01EA5AFF4F20813181C5
:10112000121613064CF46031710530F4262F4AE094
:1011300070E060E00C940F080895E42FDC01AA5AD7
:10114000BF4F4D915C9114161506A4F40E2E000CA1
:10115000FF0BE95EFB4FE4912111E068DC01A60F73
:10116000B71F5096EC9341E0460F2E2F70E060E0E1
:101170000C940F080895FC01EA5AFF4F0190F0818A
:10118000E02D1E161F06ACF4403198F4E42FF0E079
:10119000E95EFB4FE4912111E068DC01A60FB71F67
:1011A0005096EC9341E0460F2E2F70E060E00C94D7
:1011B0000F080895CF92DF92EF92FF92CF93DF93C3
:1011C0006B017C01DC01CB01825F984DAF4FBF4FBB
:1011D0008E3A9D4AA140B10570F120E040E264E002
:1011E00070E08CE596E00E949D0820E040E263E01C
:1011F00070E08CE596E00E949D0820E040E262E00D
:1012000070E08CE596E00E949D0820E040E261E0FD
:1012100070E08CE596E00E949D0820E040E270E0DE
:1012200060E08CE596E0DF91CF91FF90EF90DF904A
:10123000CF900C949D08C0E0F7FE09C0F094E094B4
:10124000D094C094C11CD11CE11CF11CC1E0C701A9
:10125000B6012AE030E040E050E00E942328D62F7B
:1012600020E04DE2C11167C080E1C81687E2D806D0
:10127000E104F1040CF45DC0C701B60120E137E2DE
:1012800040E050E00E942328422F20E064E070E01C
:101290008CE596E00E94BB08C701B60128EE33E05A
:1012A00040E050E00E942328C9016AE070E00E94FB
:1012B000ED2720E0482F63E070E08CE596E00E9487
:1012C000BB08C701B60124E630E040E050E00E94D0
:1012D0002328C9016AE070E00E94ED2720E0482F32
:1012E00062E070E08CE596E00E94BB08C701B601A1
:1012F0002AE030E040E050E00E942328C9016AE083
:1013000070E00E94ED2720E0482F61E070E08CE55E
:1013100096E00E94BB0820E04D2F70E060E08CE575
:1013200096E0DF91CF91FF90EF90DF90CF900C94FB
:10133000BB0820E040E264E070E08CE596E00E94AB
:101340009D0828EEC21623E0D206E104F1040CF059
:10135000A3CF20E040E263E070E08CE596E00E94DD
:101360009D0884E6C816D104E104F1040CF0A9CF6D
:1013700020E040E262E070E08CE596E00E949D088B
:101380002AE0C216D104E104F1040CF0AFCF20E052
:1013900040E261E070E08CE596E00E949D08BBCFE2
:1013A0001F93CF93DF93EC01825F984D8E319E4463
:1013B00058F120E040E267E070E084E096E00E94AF
:1013C0009D0820E040E266E070E084E096E00E9444
:1013D0009D0820E040E265E070E084E096E00E9435
:1013E0009D0820E040E264E070E084E096E00E9426
:1013F0009D0820E040E263E070E084E096E0DF9149
:10140000CF911F910C949D0820E0D7FF04C0D19587
:10141000C195D10921E0CE016AE070E00E94ED277C
:10142000182F222309F449C020E04DE267E070E064
:1014300084E096E00E949D08C83E83E0D8070CF443
:101440003FC0CE0168EE73E00E94ED27462F20E0FA
:1014500066E070E084E096E00E94BB08CE0164E69E
:1014600070E00E94ED27CB016AE070E00E94ED275A
:1014700020E0482F65E070E084E096E00E94BB0821
:101480002AE030E0CE01B9010E94ED27CB01B9017D
:101490000E94ED2720E0482F64E070E084E096E0B1
:1014A0000E94BB0820E0412F63E070E084E096E0FA
:1014B000DF91CF911F910C94BB0820E040E2B6CFA2
:1014C00020E040E266E070E084E096E00E949D0843
:1014D000C436D1051CF620E040E265E070E084E00F
:1014E00096E00E949D08CA30D10554F620E040E203
:1014F00064E070E084E096E00E949D08D3CFCF9333
:10150000DF93EC01C83E83E0D807D0F020E040E252
:1015100067E070E08CE596E00E949D0820E040E2E4
:1015200066E070E08CE596E00E949D0820E040E2D5
:1015300065E070E08CE596E0DF91CF910C949D081A
:10154000CE0164E670E00E94ED27462F20E067E0C0
:1015500070E08CE596E00E94BB082AE030E0CE0106
:10156000B9010E94ED27C82FCB01B9010E94ED27D8
:1015700020E0482F66E070E08CE596E00E94BB0812
:1015800020E04C2F65E070E08CE596E0DF91CF9194
:101590000C94BB08CF93DF93EC01C83E83E0D807DF
:1015A000D0F020E040E262E070E084E096E00E944B
:1015B0009D0820E040E261E070E084E096E00E9457
:1015C0009D0820E040E270E060E084E096E0DF917A
:1015D000CF910C949D08CE0164E670E00E94ED2747
:1015E000462F20E062E070E084E096E00E94BB08B5
:1015F0002AE030E0CE01B9010E94ED27C82FCB01CF
:10160000B9010E94ED2720E0482F61E070E084E0FE
:1016100096E00E94BB0820E04C2F70E060E084E080
:1016200096E0DF91CF910C94BB08CF93DF93EC0150
:10163000C83E83E0D807D0F020E040E267E070E0E9
:1016400084EB96E00E949D0820E040E266E070E0B6
:1016500084EB96E00E949D0820E040E265E070E0A7
:1016600084EB96E0DF91CF910C949D08CE0164E667
:1016700070E00E94ED27462F20E067E070E084EBE9
:1016800096E00E94BB082AE030E0CE01B9010E943A
:10169000ED27C82FCB01B9010E94ED2720E0482F8C
:1016A00066E070E084EB96E00E94BB0820E04C2FDF
:1016B00065E070E084EB96E0DF91CF910C94BB087D
:1016C000DF92EF92FF920F931F93CF93DF93FC0172
:1016D000EA5AFF4F2081318162177307C4F47B01FE
:1016E0008C01EB0183E0CC0FDD1F8A95E1F760965A
:1016F000C00FD11FDD24D394199220E04D2DB701E6
:10170000C8010E940F08D39489E0D812F5CFDF9169
:10171000CF911F910F91FF90EF90DF9008958F92DE
:101720009F92AF92BF92CF92DF92EF92FF920F9370
:101730001F93CF93DF938C01D62EC72EEC01C05B95
:10174000DF4F688379834C0182E5880E911CF40198
:10175000518340835801F4E5AF0EB11CF50131838C
:1017600020837801F6E5EF0EF11C81E090E0F701AF
:101770009183808361E08D2D0E94D40361E0F401A8
:1017800080810E94D40361E0F50180810E94D4032E
:1017900061E0F50180810E94A603D882C982F80128
:1017A00070961192EC17FD07E1F7D0E0C0E0F70169
:1017B00080819181C817D90754F520E04FE0BE0120
:1017C000C8010E940F08F70180819181C817D907CD
:1017D00034F427E04BE0BE01C8010E940F0820E06E
:1017E00049E0BE01C8010E940F08BE01C8010E9465
:1017F000600BF70180819181C817D90734F420E08C
:101800004CE0BE01C8010E940F082196D0CFDF91A5
:10181000CF911F910F91FF90EF90DF90CF90BF90ED
:10182000AF909F908F9008950E94C502882359F031
:1018300081E08093790E80937A0E80917B0E909157
:101840007C0E0C948B2510927A0E60E070E0CB0138
:1018500008950E94140C0C94140CCF92DF92EF9216
:10186000FF920E94140C6B010E94140C672B682BD2
:10187000692B81F08AE08C9DF0018D9DF00D112483
:10188000E452F54F61E08081FF90EF90DF90CF90C0
:101890000C94A6038AE08C9DF0018D9DF00D11241F
:1018A000E452F54F60E0EFCFCF92DF92EF92FF92DC
:1018B0000E94140C6B017C0180E1C816D104E10484
:1018C000F10498F4B60184EB96E00E948B08B6010F
:1018D0008CE596E00E948B08B60184E096E00E94B9
:1018E0008B08D0921102C0921002FF90EF90DF900F
:1018F000CF900895CF92DF92EF92FF920E94140C46
:101900006B017C018FEFC816D104E104F10409F0EA
:1019100038F4C6010E940504D0921302C09212024C
:10192000FF90EF90DF90CF9008950E94140C672BEA
:10193000682B692BC1F470E060E084EB96E00E94B4
:10194000600B70E060E08CE596E00E94600B70E058
:1019500060E084E096E00E94600B0E94EA0690E05E
:1019600080E00C9405048091120290911302F9CF4B
:10197000FB0101900020E9F73197AF01461B570B9F
:10198000DC01ED91FC910280F381E02D19948091AE
:101990002F0C8823A1F06091820E8091800E90918F
:1019A000810E0E943B058091370C882341F06CE248
:1019B00072E08091800E9091810E0E94B80C10927E
:1019C000360C10922F0C80E008958F929F92AF9268
:1019D000BF92EF92FF920F931F93CF93DF93CDB7F8
:1019E000DEB7A1970FB6F894DEBF0FBECDBF7C0166
:1019F000FA01CB0119A2223008F42AE08E010F5D12
:101A00001F4F822E912CB12CA12CBF01A501940156
:101A10000E940128F901CA016A300CF5605DD80105
:101A20006E938D01232B242B252B79F790E080E0FA
:101A3000109721F0BD01C7010E94B80CA1960FB606
:101A4000F894DEBF0FBECDBFDF91CF911F910F91F4
:101A5000FF90EF90BF90AF909F908F900895695C3A
:101A6000DECF90912F0C911110C091E090932F0C2C
:101A70009093360C482F50E070E060E02AE08091AF
:101A8000800E9091810E0C94E50C0895CF92DF9218
:101A9000EF92FF92CF93DF9320912F0C222359F1E5
:101AA0006C016091830E8091800E9091810E0E9456
:101AB0003B05C091800ED091810E0D2C000CEE08DC
:101AC000FF082AE0B701A601F7FE0CC06DE2CE01C7
:101AD0000E943B0544275527BA014C195D096E0940
:101AE0007F092AE0CE01DF91CF91FF90EF90DF9048
:101AF000CF900C94E50CDF91CF91FF90EF90DF90A9
:101B0000CF900895CF93DF9320912F0C222391F053
:101B1000EC016091830E8091800E9091810E0E9465
:101B20003B05BE018091800E9091810EDF91CF9197
:101B30000C94B80CDF91CF910895CF93DF939091DF
:101B40002F0C91110AC0EB010E94310DCE010E94B1
:101B5000820DDF91CF910C94C70C80E0DF91CF9183
:101B600008956FE272E083E00C949D0D0F931F9334
:101B7000CF93DF93EC0188819981009759F02A81F6
:101B80003B812617370730F081E0DF91CF911F911D
:101B90000F9108958B016F5F7F4F0E9483290097FB
:101BA00059F0998388831B830A832C813D81232BE1
:101BB00059F7FC011082E8CF80E0E7CFEF92FF9267
:101BC0000F931F93CF93DF936115710541F480E06C
:101BD000DF91CF911F910F91FF90EF9008954115E4
:101BE0005105B1F07B01EC010C811D81040F151F23
:101BF000B8010E94B60D882351F3288139818C8168
:101C00009D81B701820F931F0E94762A1D830C834A
:101C100081E0DECFCF93DF93EC018881998100973B
:101C200011F00E94FA28198218821D821C821B82E0
:101C30001A82DF91CF910895CF93DF93EC01FB01DE
:101C400001900020E9F73197AF01461B570B0E9426
:101C5000DE0D811103C0CE010E940A0ECE01DF917C
:101C6000CF910895CF93DF93EC01FB01448155811F
:101C7000608171810E94DE0D811103C0CE010E943E
:101C80000A0ECE01DF91CF910895EF92FF920F934C
:101C90001F93CF93DF93EC017B018A01BA010E946D
:101CA000B60D81110BC0CE010E940A0ECE01DF914C
:101CB000CF911F910F91FF90EF9008951D830C839A
:101CC000B701888199810E94762AF0CFEF92FF9226
:101CD0000F931F93CF93DF93CDB7DEB762970FB605
:101CE000F894DEBF0FBECDBF8C01CB01F80111828D
:101CF000108213821282158214824AE09E012F5FA5
:101D00003F4F7901B9010E94D325F70101900020CE
:101D1000E9F73197AF014E195F09B701C8010E9479
:101D2000450E62960FB6F894DEBF0FBECDBFDF91B1
:101D3000CF911F910F91FF90EF900895FB01DC016F
:101D400011961C921E9213961C921E921297159633
:101D50001C921E9214978617970749F06081718133
:101D60006115710521F0448155810C94450E08954B
:101D7000FC01118210821382128215821482FB01EF
:101D800001900020E9F73197AF01461B570B0C94E7
:101D9000450EFC0180819181009711F00C94FA2886
:101DA00008950F931F93CF93DF9300D000D0CDB74A
:101DB000DEB790912F0C91111DC08B010E94310D47
:101DC000B801CE0101960E949E0ECE0101960E949E
:101DD0007005CE0101960E94C90E0E94C70C26967E
:101DE0000FB6F894DEBF0FBECDBFDF91CF911F912C
:101DF0000F91089580E0F3CF0F931F93CF93DF935C
:101E000000D000D0CDB7DEB70E94C502882309F408
:101E100042C081E08093790E80937A0E00917B0E10
:101E200010917C0E6FE372E0C8010E946D2A892B2D
:101E3000B9F581E08093F205609110027091110272
:101E4000CE0101960E94660EBE016F5F7F4F8BE050
:101E50000E94D10ECE0101960E94C90E609112021D
:101E600070911302CE0101960E94660EBE016F5F53
:101E70007F4F8CE00E94D10ECE0101960E94C90EC8
:101E800026960FB6F894DEBF0FBECDBFDF91CF917F
:101E90001F910F91089510927A0E10E000E0C2CFCA
:101EA00065E472E0C8010E946D2A892B39F06AE46A
:101EB00072E0C8010E946D2A892BF9F41092F20594
:101EC00070E060E084EB96E00E94600B70E060E000
:101ED0008CE596E00E94600B70E060E084E096E0A4
:101EE0000E94600B0E94EA0660E082E00E94A60366
:101EF0001092130210921202C3CF65E572E0C8017E
:101F00000E946D2A892B09F0BBCFD8CF0F931F9366
:101F1000CF93DF9300D000D0CDB7DEB720912F0C48
:101F200021111EC08C0188E00E94310DB801CE0144
:101F300001960E949E0ECE0101960E949305CE014D
:101F400001960E94C90E0E94C70C26960FB6F894FF
:101F5000DEBF0FBECDBFDF91CF911F910F910895CE
:101F600080E0F3CFCF92DF92EF92FF920F931F9317
:101F7000CF93DF93CDB7DEB762970FB6F894DEBF8D
:101F80000FBECDBF0E94C502882309F468C081E05E
:101F90008093790E80937A0E00917B0E10917C0EC7
:101FA00069E572E0C8010E946D2A892B09F05CC0C6
:101FB00080E00E94310D88E393E00E94420566E8CC
:101FC0007BE0CE0101960E949E0ECE0101960E94FA
:101FD0007005CE0101960E94C90E8CE293E00E942A
:101FE000420582E090E00E94460D89E992E00E945D
:101FF000820D6EE572E0CE0101960E94B80E6CE88B
:102000007BE0CE0101960E94320EBC01CE01079604
:102010000E949E0ECE0107960E949305CE01079660
:102020000E94C90ECE0101960E94C90E86E692E07A
:102030000E94820D8FE692E00E94820D0E94C70CE2
:1020400062960FB6F894DEBF0FBECDBFDF91CF9181
:102050001F910F91FF90EF90DF90CF900895109215
:102060007A0E10E000E09CCF6DE772E0C8010E949C
:102070006D2A892B09F07FC080E00E94310D87E82E
:1020800092E00E94820D81E090E00E94460D0E9445
:10209000C70C04E118E050EDE52E57E0F52ED8010D
:1020A0008C910E947D036C01F80186859785892BB0
:1020B000C1F161E972E0828593850E946D2A892BC6
:1020C00081F5C114D10409F043C0B701CE010196D6
:1020D0000E94660EBE016F5F7F4FCE0107960E9481
:1020E0009E0E68E972E0CE0107960E941C0EBC01AC
:1020F000CE010D960E949E0ECE010D960E94860F77
:10210000CE010D960E94C90ECE0107960E94C90EFF
:10211000CE0101960E94C90ED8011996DC92CE928A
:102120001897045E1F4FBFEFEB1AFB0AE6EEEE16A0
:10213000E7E0FE0609F0B3CF80E00E94310D87E8AA
:1021400092E00E94820D82E090E00E94460D76CFE0
:10215000F1E0CF16D10401F7B701CE0101960E943C
:10216000660EBE016F5F7F4FCE0107960E949E0EE6
:102170006BE972E0B8CF6EE972E0C8010E946D2A87
:10218000892BD9F50E942E056093F3057093F40511
:102190008093F5059093F60580E00E94310D83EA67
:1021A00092E00E94820D0E94140C6B017C018091D0
:1021B0002F0C882309F442CF6091830E8091800E0A
:1021C0009091810E0E943B050091800E1091810E2E
:1021D0002AE0B701A601F7FE0CC06DE2C8010E941B
:1021E0003B0544275527BA014C195D096E097F0943
:1021F0002AE0C8010E94E50C21CF65E572E0C80124
:102200000E946D2A892B39F065E472E0C8010E94B2
:102210006D2A892BD9F470E060E084EB96E00E948F
:10222000600B70E060E08CE596E00E94600B70E06F
:1022300060E084E096E00E94600B60E082E00E9433
:10224000A6031092130210921202FACE68EA72E00C
:10225000C8010E946D2A8C01892B09F0F1CE80E023
:102260000E94310D85E293E00E94420589E193E0EE
:102270000E9442058BE093E00E9442058FEF92E0BE
:102280000E9442058CEE92E00E9442050E94C70C1B
:102290003CE1C32E37E0D32E48EBE42E4BE0F42E86
:1022A00080E00E94310D86EE92E00E944205C70157
:1022B0000E94460DB601CE0101960E949E0ECE01EF
:1022C00001960E947005CE0101960E94C90E8EED06
:1022D00092E00E944205B601665F7F4FCE010196F3
:1022E0000E949E0ECE0101960E947005CE010196BD
:1022F0000E94C90E0E94C70CFFEFEF1AFF0A80E28E
:10230000C80ED11CAEEBEA16ABE0FA0649F62EED8C
:10231000E22E2AE0F22E80E00E94310D87ED92E05D
:102320000E944205C8010E94460DB701CE010196E8
:102330000E949E0ECE0101960E947005CE0101966C
:102340000E94C90E83ED92E00E9442058AEC92E061
:102350000E94420581EC92E00E9442050E94C70C57
:102360000F5F1F4FBAE0EB0EF11C0131110599F61A
:1023700004E118E090EDE92E97E0F92E80E00E944C
:10238000310D8BEB92E00E944205C7010E94460D81
:10239000B8016E5F7F4FCE0101960E949E0ECE0166
:1023A00001960E947005CE0101960E94C90EB801E7
:1023B000665F7F4FCE0101960E949E0ECE01019670
:1023C0000E947005CE0101960E94C90EB801605F9F
:1023D0007F4FCE0101960E949E0ECE0101960E9473
:1023E0007005CE0101960E94C90EF801808191818D
:1023F000C69721F081EB92E00E944205D8018D91B1
:102400009C91C69721F086EA92E00E944205F8016D
:10241000828D938D892B21F10688F789E02D8081AB
:102420008823F1F06FEA72E0CE0101960E94B80EA7
:10243000B8016A5E7F4FCE0101960E94320EBC0148
:10244000CE0107960E949E0ECE0107960E9493052C
:10245000CE0107960E94C90ECE0101960E94C90EB8
:10246000D8018D919C91C69741F48DE992E00E942C
:1024700042058DE892E00E9442050E94C70CBFEF22
:10248000EB1AFB0A045E1F4FE6EEEE16E7E0FE06CF
:1024900009F074CF0CE71AE088EEE82E83E0F82EFE
:1024A00080E00E94310D86E892E00E944205C7015B
:1024B0000E94460DB801CE0101960E949E0ECE01EB
:1024C00001960E947005CE0101960E94C90E8EE70A
:1024D00092E00E94420581E792E00E944205D80105
:1024E00016966D917C91CE0107960E94660E64EB64
:1024F00072E0CE0101960E94B80EBE01695F7F4F67
:10250000CE0101960E94320EBC01CE010D960E94B2
:102510009E0ECE010D960E949305CE010D960E944F
:10252000C90ECE0101960E94C90ECE0107960E94E7
:10253000C90E8BE692E00E944205F8016085718524
:10254000CE0107960E94660E6CEB72E0CE010196FA
:102550000E94B80EBE01695F7F4FCE0101960E94B6
:10256000320EBC01CE010D960E949E0ECE010D963C
:102570000E949305CE010D960E94C90ECE010196D0
:102580000E94C90ECE0107960E94C90ED8011A9664
:102590006D917C91CE0107960E94660E63EC72E00D
:1025A000CE0101960E94B80EBE01695F7F4FCE0139
:1025B00001960E94320EBC01CE010D960E949E0E25
:1025C000CE010D960E949305CE010D960E94C90E74
:1025D000CE0101960E94C90ECE0107960E94C90E37
:1025E00088E592E00E9442050E94C70CBFEFEB1AFB
:1025F000FB0A005F1F4FEEEEEE16E3E0FE0609F069
:102600004FCF80912F0C811108C00E94310D83E0C3
:1026100092E00E9442050E94C70C6BEC72E081E0E0
:102620000E949D0D65E273E081E00E949D0D66E8C9
:1026300073E081E00E949D0D68EA72E080E00E94F4
:102640009D0DFECCCF92DF92EF92FF92CF93DF935E
:102650006B017C010E946627EB01C73E83E0D8072F
:10266000F0F020E040E262E070E084EB96E00E944F
:102670009D0820E040E261E070E084EB96E00E947B
:102680009D0820E040E270E060E084EB96E0DF919E
:10269000CF91FF90EF90DF90CF900C949D0820E0B9
:1026A00030E0A901C701B6010E949C2718160CF062
:1026B0005CC020E030E040E251E4C701B6010E9476
:1026C000152687FF52C0C701B6010E94A127A701A6
:1026D00096010E941526882309F447C020E030E0C7
:1026E00048EC52E4C701B6010E947B260E94A12754
:1026F0000E9466279B01EAE0F0E0CB01BF010E9447
:10270000ED27C82FCB01BF010E94ED27D82FC901AB
:1027100064E670E00E94ED2721E016161706ECF43F
:10272000462F62E070E084EB96E00E94BB0820E058
:102730004D2F61E070E084EB96E00E94BB0820E042
:102740004C2F70E060E084EB96E0DF91CF91FF903A
:10275000EF90DF90CF900C94BB0840E262E070E015
:1027600084EB96E00E949D08E2CFCE016AE070E023
:102770000E94ED27F82EC436D10514F1CE0164E68F
:1027800070E00E94ED27462F20E062E070E084EBCD
:1027900096E00E94BB082AE030E0CE01B9010E9419
:1027A000ED27CB01B9010E94ED2720E0482F61E021
:1027B00070E084EB96E00E94BB0820E04F2DC1CF73
:1027C00020E040E262E070E084EB96E00E949D0829
:1027D000CA30D10504F720E040E261E070E084EB0C
:1027E00096E00E949D08E9CF8F929F92AF92BF9290
:1027F000CF92DF92EF92FF920E94140C4B015C018A
:102800000E94140C0E94140C6B017C010E94C502F2
:10281000882371F181E08093790E80937A0E70E0C5
:1028200060E080917B0E90917C0E0E940F242AEE36
:10283000821623E09206A104B10409F479C0F4F4ED
:1028400028EE821623E09206A104B104E1F129EEFC
:10285000821623E09206A104B10409F44FC0FF9050
:10286000EF90DF90CF90BF90AF909F908F900895A2
:1028700010927A0E60E070E0CB01D9CF2CEE821678
:1028800023E09206A104B10409F489C00CF46BC0E2
:102890002DEE821623E09206A104B10401F722E096
:1028A000C216D104E104F10409F094C00E94662725
:1028B000CB01FF90EF90DF90CF90BF90AF909F90B3
:1028C0008F900C94CA0A22E0C216D104E104F104EC
:1028D00069F40E946627CB01FF90EF90DF90CF90C4
:1028E000BF90AF909F908F900C94150BCD28CE2861
:1028F000CF2809F0B4CF8FEF9FEFEECF22E0C216C2
:10290000D104E104F10451F4FF90EF90DF90CF90F7
:10291000BF90AF909F908F900C942213CD28CE281B
:10292000CF2809F09CCF60E070E080E89FEBECCF0F
:1029300022E0C216D104E104F10469F40E94662782
:10294000CB01FF90EF90DF90CF90BF90AF909F9022
:102950008F900C947F0ACD28CE28CF2809F07FCF06
:102960008FEF9FEFEECF22E0C216D104E104F10415
:1029700061F40E946627FF90EF90DF90CF90BF90A8
:10298000AF909F908F900C94DA08CD28CE28CF2856
:1029900009F065CF61EF78ED8FEF9FEFECCF22E08C
:1029A000C216D104E104F10469F40E946627CB0148
:1029B000FF90EF90DF90CF90BF90AF909F908F905F
:1029C0000C94D009CD28CE28CF2809F048CF81EF2C
:1029D00098EDEECFCD28CE28CF2809F040CF8FEF4D
:1029E0009FEF67CF1F920F920FB60F9211242F9374
:1029F0003F938F939F93AF93BF938091FC059091EA
:102A0000FD05A091FE05B091FF053091FB0523E087
:102A1000230F2D3758F50196A11DB11D2093FB05FD
:102A20008093FC059093FD05A093FE05B093FF05F0
:102A30008091000690910106A0910206B0910306D4
:102A40000196A11DB11D8093000690930106A093ED
:102A50000206B0930306BF91AF919F918F913F9172
:102A60002F910F900FBE0F901F90189526E8230FFF
:102A70000296A11DB11DD2CF1F920F920FB60F92D9
:102A800011240BB60F922F933F934F935F936F9345
:102A90007F938F939F93AF93BF93EF93FF93E091B7
:102AA0000E02F0910F021995FF91EF91BF91AF9136
:102AB0009F918F917F916F915F914F913F912F9156
:102AC0000F900BBE0F900FBE0F901F9018951F9286
:102AD0000F920FB60F9211240BB60F922F933F93C4
:102AE0004F935F936F937F938F939F93AF93BF9316
:102AF000EF93FF93E0910C02F0910D021995FF9175
:102B0000EF91BF91AF919F918F917F916F915F9165
:102B10004F913F912F910F900BBE0F900FBE0F90D2
:102B20001F9018951F920F920FB60F9211240BB69B
:102B30000F922F933F934F935F936F937F938F9356
:102B40009F93AF93BF93EF93FF93E0910202F091B5
:102B500003021995FF91EF91BF91AF919F918F91D2
:102B60007F916F915F914F913F912F910F900BBE8D
:102B70000F900FBE0F901F9018951F920F920FB6D7
:102B80000F9211240BB60F922F933F934F935F93A5
:102B90006F937F938F939F93AF93BF93EF93FF9325
:102BA000E0910002F09101021995FF91EF91BF9120
:102BB000AF919F918F917F916F915F914F913F91D5
:102BC0002F910F900BBE0F900FBE0F901F90189576
:102BD0001F920F920FB60F9211240BB60F922F93E4
:102BE0003F934F935F936F937F938F939F93AF9395
:102BF000BF93EF93FF93E0910A02F0910B021995B6
:102C0000FF91EF91BF91AF919F918F917F916F91C4
:102C10005F914F913F912F910F900BBE0F900FBE80
:102C20000F901F9018951F920F920FB60F921124BC
:102C30000BB60F922F933F934F935F936F937F93B6
:102C40008F939F93AF93BF93EF93FF93E09108020D
:102C5000F09109021995FF91EF91BF91AF919F916A
:102C60008F917F916F915F914F913F912F910F9035
:102C70000BBE0F900FBE0F901F9018951F920F92D2
:102C80000FB60F9211240BB60F922F933F934F93D1
:102C90005F936F937F938F939F93AF93BF93EF93C4
:102CA000FF93E0910602F09107021995FF91EF91D1
:102CB000BF91AF919F918F917F916F915F914F9154
:102CC0003F912F910F900BBE0F900FBE0F901F9052
:102CD00018951F920F920FB60F9211240BB60F92F8
:102CE0002F933F934F935F936F937F938F939F9314
:102CF000AF93BF93EF93FF93E0910402F09105022D
:102D00001995FF91EF91BF91AF919F918F917F9115
:102D10006F915F914F913F912F910F900BBE0F904C
:102D20000FBE0F901F9018951F920F920FB60F9223
:102D300011240BB60F922F933F934F935F936F9392
:102D40007F938F939F93AF93BF93EF93FF9382E90A
:102D50009BE00E942A06FF91EF91BF91AF919F9156
:102D60008F917F916F915F914F913F912F910F9034
:102D70000BBE0F900FBE0F901F9018951F920F92D1
:102D80000FB60F9211240BB60F922F938F939F9330
:102D9000EF93FF93E091A20BF091A30B8081E09160
:102DA000A80BF091A90B82FD1DC090818091AB0B07
:102DB0008F5F8F732091AC0B821741F0E091AB0BCA
:102DC000F0E0EE56F44F958F8093AB0BFF91EF91AF
:102DD0009F918F912F910F900BBE0F900FBE0F9070
:102DE0001F9018958081F2CF2F923F924F925F9261
:102DF0006F927F928F929F92AF92BF92CF92DF920B
:102E0000EF92FF920F931F93CF93DF931092950B46
:102E10001092940B88EE93E0A0E0B0E08093960BC4
:102E20009093970BA093980BB093990B8EE192E03F
:102E30009093930B8093920B85EC90E090939F0B73
:102E400080939E0B84EC90E09093A10B8093A00B59
:102E500080EC90E09093A30B8093A20B81EC90E028
:102E60009093A50B8093A40B82EC90E09093A70B1A
:102E70008093A60B86EC90E09093A90B8093A80B0F
:102E80001092AB0B1092AC0B1092AD0B1092AE0BDC
:102E90001092860E1092850E82E99BE09093810E2F
:102EA0008093800E1092370C8CE28093830E8BE31C
:102EB0008093820E8FE28093840E80E48093320CA4
:102EC0008FE38093330C1092310C10927C0E109291
:102ED0007B0E10927E0E10927D0E81E08093790E13
:102EE000E7E8FEE08BEE9EE0119211928E179F07AD
:102EF000D9F71092360C62ED73E08CE89BE00E94EB
:102F0000B80E63EF73E086E89BE00E94B80E86E29D
:102F100090E09093DD0A8093DC0A6AE174E08EED24
:102F20009AE00E94B80ECFEFDFEFD093E50AC0938E
:102F3000E40A8CE290E09093E70A8093E60A65E267
:102F400074E088EE9AE00E94B80ED093EF0AC09326
:102F5000EE0A8DE290E09093F10A8093F00A6CE221
:102F600074E082EF9AE00E94B80ED093F90AC09301
:102F7000F80A8DE390E09093FB0A8093FA0A66E3E7
:102F800074E08CEF9AE00E94B80ED093030BC093CC
:102F9000020B08E210E01093050B0093040B6FE3A3
:102FA00074E086E09BE00E94B80ED0930D0BC093B6
:102FB0000C0B89E290E090930F0B80930E0B6AE468
:102FC00074E080E19BE00E94B80ED093170BC09391
:102FD000160B88E390E09093190B8093180B62E531
:102FE00074E08AE19BE00E94B80ED093210BC0935D
:102FF000200B89E390E09093230B8093220B6BE5E9
:1030000074E084E29BE00E94B80ED0932B0BC09337
:103010002A0B83E490E090932D0B80932C0B66E6B3
:1030200074E08EE29BE00E94B80ED093350BC09303
:10303000340B85E190E09093370B8093360B6EE66E
:1030400074E088E39BE00E94B80ED0933F0BC093DE
:103050003E0B87E190E09093410B8093400B69E732
:1030600074E082E49BE00E94B80ED093490BC093B9
:10307000480B85E0C82ED12CD0924B0BC0924A0B46
:1030800060E874E08CE49BE00E94B80ED093530B90
:10309000C093520B86E090E09093550B8093540BB5
:1030A00069E874E086E59BE00E94B80ED0935D0B62
:1030B000C0935C0B8AE090E090935F0B80935E0B73
:1030C00062E974E080E69BE00E94B80ED093670B43
:1030D000C093660B88E090E09093690B8093680B37
:1030E0006BE974E08AE69BE00E94B80ED093710B06
:1030F000C093700B88E190E09093730B8093720BF8
:1031000064EA74E084E79BE00E94B80ED0937B0BE6
:10311000C0937A0B8FE390E090937D0B80937C0BB0
:1031200060EB74E08EE79BE00E94B80ED093850BB5
:10313000C093840B67EB74E08CE79AE00E94B80EB2
:1031400093E0E92EF12CF092830AE092820A22E4C5
:10315000222E312C3092850A2092840A1093870AFD
:103160000093860A88248A94982C54018092880AB5
:103170009092890AA0928A0AB0928B0A64EC74E059
:103180008CE89AE00E94B80E84E090E09093930A55
:103190008093920A89E590E09093950A8093940A2F
:1031A0001093970A0093960A8092980A9092990A2F
:1031B000A0929A0AB0929B0A61ED74E08CE99AE0C1
:1031C0000E94B80EF092A30AE092A20A3092A50AD9
:1031D0002092A40A1093A70A0093A60A8092A80A34
:1031E0009092A90AA092AA0AB092AB0A6AED74E082
:1031F0008CEA9AE00E94B80ED092B30AC092B20A4A
:103200008EE690E09093B50A8093B40A1093B70AC3
:103210000093B60A40EF442E48ED542E66246A947B
:10322000762C4092B80A5092B90A6092BA0A70920B
:10323000BB0A63EE74E08CEB9AE00E94B80ED09269
:10324000C30AC092C20A8EE690E09093C50A8093AA
:10325000C40A1093C70A0093C60A4092C80A509243
:10326000C90A6092CA0A7092CB0A6BEE74E08CECC9
:103270009AE00E94B80EF092D30AE092D20A3092FD
:10328000D50A2092D40A1093D70A0093D60A8092C6
:10329000D80A9092D90AA092DA0AB092DB0A82E3A5
:1032A00090E0909315088093140869EF74E086E12C
:1032B00098E00E94B80ED0931D08C0931C0861E9E5
:1032C00072E08EE198E00E94B80E6EE272E084E255
:1032D00098E00E94B80E6AE174E08AE298E00E94E9
:1032E000B80E8EE390E0909331088093300860E050
:1032F00075E082E398E00E94B80ED0933908C0933D
:10330000380861E972E08AE398E00E94B80E6EE244
:1033100072E080E498E00E94B80E60EB74E086E40E
:1033200098E00E94B80E81E390E090934D0880935E
:103330004C0863E075E08EE498E00E94B80ED093EC
:103340005508C09354086BE075E086E598E00E944C
:10335000B80E66E075E08CE598E00E94B80E65E274
:1033600074E082E698E00E94B80E8AE290E09093C2
:1033700069088093680866E175E08AE698E00E9433
:10338000B80ED0937108C09370086BE075E082E7C7
:1033900098E00E94B80E66E075E088E798E00E9429
:1033A000B80E6CE274E08EE798E00E94B80E80E4FC
:1033B00090E090938508809384086CE175E086E83E
:1033C00098E00E94B80ED0938D08C0938C086BE0F3
:1033D00075E08EE898E00E94B80E66E075E084E93A
:1033E00098E00E94B80E6EE272E08AE998E00E94CE
:1033F000B80E8BE390E09093A1088093A0086FE152
:1034000075E082EA98E00E94B80ED093A908C093B4
:10341000A8086BE075E08AEA98E00E94B80E66E0C2
:1034200075E080EB98E00E94B80E6EE272E086EBE9
:1034300098E00E94B80E8CE390E09093BD088093D2
:10344000BC0867E275E08EEB98E00E94B80ED0935E
:10345000C508C093C4086BE075E086EC98E00E9454
:10346000B80E66E075E08CEC98E00E94B80E66E35A
:1034700074E082ED98E00E94B80E8BE290E09093A9
:10348000D9088093D8086CE275E08AED98E00E9434
:10349000B80ED093E108C093E0086BE075E082EECF
:1034A00098E00E94B80E66E075E088EE98E00E9411
:1034B000B80E6FE374E08EEE98E00E94B80E83E3DE
:1034C00090E09093F5088093F40863E375E086EF4D
:1034D00098E00E94B80ED093FD08C093FC086BE002
:1034E00075E08EEF98E00E94B80E66E075E084E02B
:1034F00099E00E94B80E6AE474E08AE099E00E94C4
:10350000B80E87E390E0909311098093100967E368
:1035100075E082E199E00E94B80ED0931909C0933A
:1035200018096BE075E08AE199E00E94B80E66E048
:1035300075E080E299E00E94B80E62E574E086E2F0
:1035400099E00E94B80E8AE390E090932D09809351
:103550002C096CE375E08EE299E00E94B80ED093DE
:103560003509C09334096BE075E086E399E00E9469
:10357000B80E66E075E08CE399E00E94B80E6BE54A
:1035800074E082E499E00E94B80E85E490E09093A4
:1035900049098093480963E475E08AE499E00E9450
:1035A000B80ED0935109C09350096BE075E082E5E5
:1035B00099E00E94B80E66E075E088E599E00E9407
:1035C000B80E66E674E08EE599E00E94B80E84E1DC
:1035D00090E0909365098093640967E475E086E65E
:1035E00099E00E94B80ED0936D09C0936C096BE00E
:1035F00075E08EE699E00E94B80E66E075E084E71B
:1036000099E00E94B80E6EE674E08AE799E00E94A5
:10361000B80E87E090E090938109809380096EE472
:1036200075E082E899E00E94B80ED0938909C093B2
:1036300088096BE075E08AE899E00E94B80E66E0C0
:1036400075E080E999E00E94B80E6EE272E086E9CA
:1036500099E00E94B80E86E190E090939D098093D6
:103660009C0966E575E08EE999E00E94B80ED0935A
:10367000A509C093A4096BE075E086EA99E00E9471
:10368000B80E66E075E08CEA99E00E94B80E69E732
:1036900074E082EB99E00E94B80EF092B909E092D2
:1036A000B80969E575E08AEB99E00E94B80ED093FD
:1036B000C109C093C0096BE075E082EC99E00E94FB
:1036C000B80E66E075E088EC99E00E94B80E60E8FC
:1036D00074E08EEC99E00E94B80E84E090E0909344
:1036E000D5098093D4096EE575E086ED99E00E94D6
:1036F000B80ED093DD09C093DC096BE075E08EED68
:1037000099E00E94B80E66E075E084EE99E00E94B0
:10371000B80E69E874E08AEE99E00E94B80E8BE07A
:1037200090E09093F1098093F00963E675E082EFF1
:1037300099E00E94B80ED093F909C093F8096BE0A4
:1037400075E08AEF99E00E94B80E66E075E080E0CF
:103750009AE00E94B80E62E974E086E09AE00E9466
:10376000B80E89E090E090930D0A80930C0A68E609
:1037700075E08EE09AE00E94B80ED093150AC093CF
:10378000140A6BE075E086E19AE00E94B80E66E0EC
:1037900075E08CE19AE00E94B80E6BE974E082E279
:1037A0009AE00E94B80E89E190E09093290A8093F4
:1037B000280A6DE675E08AE29AE00E94B80ED0937E
:1037C000310AC093300A61E972E082E39AE00E9414
:1037D000B80E6EE272E088E39AE00E94B80E6EE2E4
:1037E00072E08EE39AE00E94B80E8BE190E0909335
:1037F000450A8093440A67E775E086E49AE00E94F0
:10380000B80ED0934D0AC0934C0A61E972E08EE481
:103810009AE00E94B80E6EE272E084E59AE00E949F
:10382000B80E64EA74E08AE59AE00E94B80E86E376
:1038300090E09093610A8093600A6FE775E082E6FA
:103840009AE00E94B80ED093690AC093680A6BE0B0
:1038500075E08AE69AE00E94B80E66E075E080E7BF
:103860009AE00E94B80E6EE272E086E79AE00E944B
:10387000B80E45E364E388E098E00E94B40747E2AD
:1038800065E28CEF97E00E94B40741E260E280EFCE
:1038900097E00E94B4074FE06EE084EE97E00E944C
:1038A000B4074CE06DE088ED97E00E94B4074DE16D
:1038B0006AE18CEC97E00E94B4078CE0E8E0F8E065
:1038C000ACE0B7E001900D928A95E1F784E390E0D7
:1038D000909319078093180785E390E090931B0756
:1038E00080931A0764E875E08CE197E00E94B80EB7
:1038F00059E1C52E5CEFD52EEE24EA94FE2CC09241
:103900002207D0922307E0922407F092250760E96E
:1039100075E086E297E00E94B80E8CE0ECEFF7E0ED
:10392000ACE2B7E001900D928A95E1F785E290E074
:10393000909339078093380787E290E090933B0794
:1039400080933A076DE975E08CE397E00E94B80E2A
:10395000C0924207D0924307E0924407F092450795
:1039600060E975E086E497E00E94B80E8CE0E0EF35
:10397000F7E0ACE4B7E001900D928A95E1F780E2C0
:1039800090E0909359078093580781E290E09093DC
:103990005B0780935A0769EA75E08CE597E00E941F
:1039A000B80EC0926207D0926307E0926407F0926B
:1039B000650760E975E086E697E00E94B80E8CE046
:1039C000E4EEF7E0ACE6B7E001900D928A95E1F7FE
:1039D0008EE090E090937907809378078FE090E0F5
:1039E00090937B0780937A0761EB75E08CE797E013
:1039F0000E94B80EC0928207D0928307E09284079B
:103A0000F092850760E975E086E897E00E94B80EBD
:103A10008CE0E8EDF7E0ACE8B7E001900D928A9514
:103A2000E1F78DE090E090939907809398078CE000
:103A300090E090939B0780939A0769EB75E08CE97F
:103A400097E00E94B80EC092A207D092A307E0921E
:103A5000A407F092A50760E975E086EA97E00E9466
:103A6000B80E8CE0ECECF7E0ACEAB7E001900D9218
:103A70008A95E1F78AE190E09093B9078093B807BF
:103A80008DE190E09093BB078093BA0760EC75E0FE
:103A90008CEB97E00E94B80EC092C207D092C30789
:103AA000E092C407F092C50760E975E086EC97E004
:103AB0000E94B80E2FE230E040E350E06EE270E08A
:103AC00084EB96E00E948F0B24E230E043E250E06A
:103AD00062E270E08CE596E00E948F0B2EE130E010
:103AE0004CE150E06FE170E084E096E0DF91CF912F
:103AF0001F910F91FF90EF90DF90CF90BF90AF900C
:103B00009F908F907F906F905F904F903F902F90FD
:103B10000C948F0BCF93DF93CDB7DEB762970FB6C0
:103B2000F894DEBF0FBECDBF789484B5826084BDAB
:103B300084B5816084BD85B5826085BD85B58160B1
:103B400085BD80916E00816080936E00109281002F
:103B500080918100826080938100809181008160EA
:103B600080938100809180008160809380008091AB
:103B7000B10084608093B1008091B0008160809337
:103B8000B0008091910082608093910080919100BB
:103B9000816080939100809190008160809390007B
:103BA0008091A10082608093A1008091A10081603A
:103BB0008093A1008091A00081608093A0008091FB
:103BC0002101826080932101809121018160809395
:103BD00021018091200181608093200180917A00F1
:103BE000846080937A0080917A00826080937A006A
:103BF00080917A00816080937A0080917A00806859
:103C000080937A001092C1000E942E056093F30504
:103C10007093F4058093F5059093F6056093F7058E
:103C20007093F8058093F9059093FA056CE7E62EFA
:103C30006AE0F62E04E118E062E0D8018C910E945F
:103C4000D403045E1F4FE016F106B1F70CED1AE045
:103C500061E0F80180810E94D40361E0D8018C9179
:103C60000E94A60362E370E080E090E00E94FC0402
:103C700060E0F80180810E94A603065F1F4FFBE011
:103C800006381F0729F761E082E00E94D4036091A3
:103C9000120282E00E94A60380910A0790910B070E
:103CA0001816190644F421E04CE070E060E084EB63
:103CB00096E00E940F088091B2069091B306181604
:103CC000190644F421E04CE070E060E08CE596E0F9
:103CD0000E940F0880915A0690915B0618161906EB
:103CE00044F421E04CE070E060E084E096E00E9463
:103CF0000F08E0901002F0901102B70184EB96E0FB
:103D00000E948B08B7018CE596E00E948B08B701F2
:103D100084E096E00E948B0888E793E00E94150BF0
:103D200088E793E00E94CA0A60E070E08EE594E4C0
:103D30000E94221388E793E00E947F0A88E49DEDA9
:103D40000E94D00968E37BE581E090E00E94DA08F8
:103D500064EF71E080E090E00E94FC0470E060E0BD
:103D600084EB96E00E94600B70E060E08CE596E0EA
:103D70000E94600B70E060E084E096E00E94600BBF
:103D8000E091A20BF091A30B82E08083E0919E0B67
:103D9000F0919F0B1082E091A00BF091A10B80E1BC
:103DA00080831092AA0BE091A60BF091A70B86E0FE
:103DB0008083E091A40BF091A50B808180618083CA
:103DC000E091A40BF091A50B808188608083E09145
:103DD000A40BF091A50B808180688083E091A40BF7
:103DE000F091A50B80818F7D80836DEC75E083E081
:103DF0000E949D0D82EB9FE09093880E8093870E2A
:103E00008CEF9EE090938C0E80938B0E81EB9DE067
:103E100090938E0E80938D0E89E29CE09093920E8B
:103E20008093910E8DE29CE09093940E8093930E7C
:103E300084EF93E19093960E8093950E84E59CE039
:103E400090939E0E80939D0E8AE79CE09093A00E27
:103E500080939F0E85E99CE09093A20E8093A10E23
:103E600022242A94312C50E8452E512C3CE0E32E9C
:103E700037E0F32ED12CC12CD7011B968C918230C8
:103E800008F065C0F894C7010E944E07F7018781CA
:103E90009085A185B285789422E0B595A7959795F0
:103EA00087952A95D1F746895789608D718D481776
:103EB00059076A077B070CF0A2C3868B978BA08FEC
:103EC000B18F8091F205882349F1B6016854744F8F
:103ED000CE010D960E94660EBE01635F7F4FCE013C
:103EE00007960E949E0E68E972E0CE0107960E9436
:103EF0001C0EBC01CE0101960E949E0ECE010196C1
:103F00000E94860FCE0101960E94C90ECE0107962F
:103F10000E94C90ECE010D960E94C90EF4E0CF1684
:103F2000D10409F030C380E40E947D03892B09F09D
:103F300028C4809112029091130240968F3F910500
:103F400009F03CF4909313028093120206C0F89497
:103F50009DCF3092130220921202A0901202B090D4
:103F60001302C5010E9405048091F205882309F41B
:103F700008C4B501CE0101960E94660EBE016F5FB6
:103F80007F4F8CE00E94D10ECE0101960E94C90E97
:103F90008FEFC81AD80A90E2E90EF11CA6E0CA1603
:103FA000D10409F069CF0E942E05C090F705D0908A
:103FB000F805E090F905F090FA056C197D098E0975
:103FC0009F09653671058105910508F404C2809149
:103FD000F205882309F44EC074E1C72E78E0D72E8D
:103FE000E0EDEE2EE7E0FE2EF60180810E947D03DB
:103FF0005C01D60118968D919C91A816B90671F1B5
:10400000A114B10409F05FC3B701CE0101960E946B
:10401000660EBE016F5F7F4FCE0107960E949E0E17
:1040200068E972E0CE0107960E941C0EBC01CE0129
:104030000D960E949E0ECE010D960E94860FCE0117
:104040000D960E94C90ECE0107960E94C90ECE01A0
:1040500001960E94C90EF601B186A086FCE1CF0E42
:10406000D11C2FEFE21AF20A86EEE81687E0F80676
:1040700009F0BACF81E30E947D03892B51F58AE2D2
:104080000E947D03892B29F565E0E62EF12C61E085
:104090008CE20E94A60361E08DE20E94A60364E622
:1040A00070E080E090E00E94FC0460E08CE20E94FE
:1040B000A60360E08DE20E94A60364E670E080E063
:1040C00090E00E94FC0491E0E91AF10801F70C94D9
:1040D000000080E40E947D03892B09F0E3C084E0A6
:1040E0000E947D03892B09F0DDC088E793E00E94E0
:1040F000150B80910A0790910B07181619065CF4AE
:10410000A5E0A093C60625E043E070E060E084EB04
:1041100096E00E940F0820E040E361E070E084EB4D
:1041200096E00E949D0820E047E370E060E084EBA9
:1041300096E00E949D0820E046E467E070E08CE590
:1041400096E00E949D088091B2069091B3061816E1
:1041500019065CF48DE1809372062DE147E070E072
:1041600060E08CE596E00E940F088091B206909185
:10417000B306181619065CF4B5E0B093710625E095
:1041800046E070E060E08CE596E00E940F0820E0D9
:1041900045E364E070E08CE596E00E949D0820E035
:1041A00040E563E070E08CE596E00E949D0820E029
:1041B00041E462E070E08CE596E00E949D0820E01A
:1041C00044E461E070E08CE596E00E949D0820E008
:1041D00040E270E060E08CE596E00E949D0820E0FF
:1041E00041E367E070E084E096E00E949D0820E0F3
:1041F0004CE466E070E084E096E00E949D0820E0D8
:1042000042E365E070E084E096E00E949D0820E0D3
:1042100040E564E070E084E096E00E949D0820E0C4
:1042200040E263E070E084E096E00E949D0888E749
:1042300093E00E94CA0A5CEDE52E5AE0F52E61E09B
:10424000F70180810E94A60368E270E080E090E0C0
:104250000E94FC04FAE0EF0EF11C0E151F0579F721
:1042600068EB7BE080E090E00E94FC0488E793E04C
:104270000E94150B88E793E00E94CA0A60E070E094
:104280008EE594E40E94221388E793E00E947F0A5F
:1042900088E49DED0E94D00968E37BE581E090E031
:1042A0000E94DA0880E40E947D03892B91F589E061
:1042B0000E947D03892B69F570E060E084EB96E055
:1042C0000E94600B70E060E08CE596E00E94600B5D
:1042D00070E060E084E096E00E94600B4CEDE42E1C
:1042E0004AE0F42E60E0D7018C910E94A60368E2B8
:1042F00070E080E090E00E94FC04BAE0EB0EF11C5C
:104300000E151F0579F764EF71E080E090E00E94E0
:10431000FC0480E40E947D03892B39F583E00E9430
:104320007D03892B11F5509213024092120280E80E
:1043300090E00E9405048091F205882381F060E8F6
:1043400070E0CE0101960E94660EBE016F5F7F4F46
:104350008CE00E94D10ECE0101960E94C90E64EF3E
:1043600071E080E090E00E94FC0480E40E947D0304
:10437000892B39F58BE00E947D03892B11F5109272
:1043800013021092120290E080E00E9405048091D6
:10439000F205882381F070E060E0CE0101960E9472
:1043A000660EBE016F5F7F4F8CE00E94D10ECE0182
:1043B00001960E94C90E64EF71E080E090E00E94D7
:1043C000FC040E942E056093F7057093F805809316
:1043D000F9059093FA050E942E05C090F305D09040
:1043E000F405E090F505F090F6056C197D098E094D
:1043F0009F09613E73498440910510F170E060E0CF
:1044000084EB96E00E94600B70E060E08CE596E043
:104410000E94600B70E060E084E096E00E94600B18
:104420000E94EA0660E082E00E94A6030E942E0538
:104430006093F3057093F4058093F5059093F6056A
:104440008091360C811193C18091800E9091810EE4
:10445000DC01ED91FC910084F185E02D1995892B0B
:1044600009F485C18091800E9091810EDC01ED915F
:10447000FC910084F185E02D1995A12C32E0B32E3A
:104480008115924064F48091800E9091810EDC0140
:10449000ED91FC910084F185E02D19955C01E0908F
:1044A000800EF090810E28E7822E2CE0922E3401AF
:1044B000D12CC12CAC14BD0409F019C1F12CE12C94
:1044C000AE14BF0409F4BCCFD4019D914D011092EC
:1044D000780E3091840E2091350C9093350C931307
:1044E00004C0921302C01092350C8091310CE82F59
:1044F000F0E04091820EE15DF34F94131EC132173C
:1045000009F41BC11186882329F0B1E0B093780E1D
:104510001092350C1092310C10927C0E10927B0E82
:1045200010927E0E10927D0EE1E0E093790ED09015
:10453000780EF1E0DF1217C10E94C502882309F44A
:1045400006C1D092790ED0927A0E80917B0E909116
:104550007C0E0E946D258093300C823308F0FCC0E5
:1045600020917A0E222309F4F7C0FC01FF27EE0FF9
:10457000FF1FE957F14F0190F081E02D309709F4CA
:10458000EBC01995F0C025E0C216D10409F000CDAA
:1045900080E40E947D03892B09F005CD80911002F3
:1045A0009091110201968031910534F5909311029A
:1045B00080931002A0901002B0901102B50184EB1C
:1045C00096E00E948B08B5018CE596E00E948B086E
:1045D000B50184E096E00E948B088091F205882363
:1045E00009F4E1CCB501CE0101960E94660EBE0130
:1045F0006F5F7F4F8BE0C6CC8FE090E0D7CF841702
:104600009507A607B7070CF0C3CC868B978BA08FB6
:10461000B18F8091F205882349F1B6016854744F37
:10462000CE010D960E94660EBE01635F7F4FCE01E4
:1046300007960E949E0E62EE75E0CE0107960E94DC
:104640001C0EBC01CE0101960E949E0ECE01019669
:104650000E94860FCE0101960E94C90ECE010796D8
:104660000E94C90ECE010D960E94C90EF4E0CF162D
:10467000D10491F480E40E947D03892B09F081C06C
:104680008091120290911302409797FF5BCC109299
:1046900013021092120261CC25E0C216D10409F077
:1046A00077CC80E40E947D03892B09F07CCC80913B
:1046B000100290911102019797FF78CF109211028A
:1046C0001092100277CFB1E0AB16B10409F0C3CC61
:1046D000B701CE0101960E94660EBE016F5F7F4F4B
:1046E000CE0107960E949E0E6BE972E09BCC0E9461
:1046F0002E05F7016087718782879387D701ED9137
:10470000FC910284F385E02DC701199597FF32C013
:104710000E942E05F7012085318542855385621B55
:10472000730B840B950B2481358146815781621769
:1047300073078407950710F3C1CE91878F5F80932D
:10474000310C9091330C891708F0E4CEF0CE109222
:104750007A0E90E080E0FFCEE091850EF091860E1B
:10476000309709F00ECF2FEFE21AF20AA9CE0E947D
:10477000B9067CCBD3018D933D01BFEFCB1ADB0A89
:1047800099CE85E0C82ED12CE0E2EE0EF11C74CB60
:10479000CF93DF93CCECD7E0A097CE014A960E944E
:1047A000C90ECE0140960E94C90E87E0CC30D807D2
:1047B00099F7CCE7DAE06C97CE0146960E94C90ED5
:1047C000CE0140960E94C90ECE010A960E94C90EE3
:1047D000CE0102960E94C90E88E0C431D80759F76D
:1047E000CCEDDAE06097CE010E94C90E8AE0CC37AA
:1047F000D807C1F7C6E8DBE02A97CE0102960E94EF
:10480000C90E8AE0CC3DD807B9F786E89BE00E9444
:10481000C90E8CE89BE0DF91CF910C94C90E8F926A
:104820009F92AF92BF92CF92DF92EF92FF920F933F
:104830001F93CF93DF935C017B016115710519F024
:10484000DB018D939C9385010F5F1F4FF501D08194
:104850008D2F90E00E94B2256C01892BB9F5DD32D5
:10486000B9F50F5F1F4FD5011196DC91C1E05801DA
:10487000F1E0AF1AB10843E050E060ED71E0C5012E
:104880000E94BB25892B69F5680182E0C80ED11C06
:1048900045E050E06BEC71E0C6010E94BB25892B1E
:1048A00021F4680197E0C90ED11CE114F10419F05C
:1048B000D701CD92DC9260E070E080E89FEFC111FB
:1048C000FFC060E070E080E89FE7FAC05801BBCF0E
:1048D000DB3229F485010E5F1F4FF501D181C0E065
:1048E000C6CF43E050E068EC71E0C5010E94BB25F3
:1048F000892BE9F0F80110E000E020E030E0A901A8
:104900005F01B0ED8B2E8D0E89E08815C8F19C2ECD
:10491000689491F88C2F8870C2FF16C0811102C074
:104920000F5F1F4F3196D501DC91C92DE9CFE114FE
:10493000F10429F00E5F1F4FF7011183008360E03F
:1049400070E080EC9FE7BCC0882311F00150110992
:10495000A5E0B0E00E944C279B01AC01220F331F61
:10496000441F551F280D311D411D511D283999E93E
:104970003907490799E15907A8F2C6609C2ED2CFA2
:10498000AEEF8A1206C0C3FD3CC09C2E689493F81B
:10499000C9CFDF7DD534A9F580818D3239F4C0616E
:1049A000DF011296818162E070E006C0DF018B3288
:1049B000C1F3119661E070E080535D01A61AB70A59
:1049C0008A30F8F4E0E8CE16ECE0DE065CF4B601DE
:1049D000660F771F660F771FC60ED71ECC0CDD1C27
:1049E000C80ED11C5D01FFEFAF1ABF0A8C91805336
:1049F0008A30A8F1C4FF03C0D194C194D1080C0D32
:104A00001D1DC1FF09C0E114F10431F081E0A81AB5
:104A1000B108D701AD92BC92CA01B9010E941A2611
:104A2000C370C33009F490584B015C0120E030E0C2
:104A3000A9010E941526882309F440C0CFEFD1E0D8
:104A400017FF05C0119501951109C7EED1E06E0160
:104A5000B8E1CB1AD10880E2E82EF12C0FC0D501C5
:104A6000B1CFFE0125913591459154910E191F0941
:104A7000C501B4010E947B264B015C01D501C40134
:104A80000E151F0574F72497F594E794CC16DD06F0
:104A9000A9F78A2F880F8B2F881F8F3F49F020E0BE
:104AA00030E0A901C501B4010E941526811106C09C
:104AB00082E290E09093EC0E8093EB0EC501B4017E
:104AC000DF91CF911F910F91FF90EF90DF90CF90EA
:104AD000BF90AF909F908F900895FC0188279927F1
:104AE000E89421912032E9F3293010F02E30C8F3F8
:104AF0002B3241F02D3239F4689404C00E94F32522
:104B0000820F911D219120532A30C0F31EF49095FD
:104B100081959F4F08951F93FC0199278827BC0119
:104B2000E89411911032E9F3193010F01E30C8F3F7
:104B30001B3251F01D3249F4689406C00E94DE25F4
:104B4000610F711D811D911D119110531A30B0F329
:104B50003EF490958095709561957F4F8F4F9F4F54
:104B60001F91089591110C94E826803219F0895014
:104B70008550C8F70895FB01DC014150504088F092
:104B80008D9181341CF08B350CF4805E659161341D
:104B90001CF06B350CF4605E861B611171F3990B90
:104BA0000895881BFCCFBB274A3031F4992322F4A7
:104BB000BDE2909581959F4F0C94FC25592F482F6D
:104BC000372F262F660F771F881F991F660F771FB5
:104BD000881F991F620F731F841F951F660F771F11
:104BE000881F991F08957AE0979F902D879F802DA9
:104BF000910D11240895BB27FB015527AA27880F83
:104C0000991FAA1FA41710F0A41B83955051B9F740
:104C1000A05DAA3308F0A95DA193009779F7B111BF
:104C2000B1931192CB010C94EB260E94572608F405
:104C300081E00895E89409C097FB3EF49095809533
:104C4000709561957F4F8F4F9F4F9923A9F0F92F52
:104C500096E9BB279395F695879577956795B795D0
:104C6000F111F8CFFAF4BB0F11F460FF1BC06F5FB6
:104C70007F4F8F4F9F4F16C0882311F096E911C0C8
:104C8000772321F09EE8872F762F05C0662371F0E9
:104C900096E8862F70E060E02AF09A95660F771FFD
:104CA000881FDAF7880F9695879597F90895990FD9
:104CB0000008550FAA0BE0E8FEEF16161706E807E6
:104CC000F907C0F012161306E407F50798F0621B07
:104CD000730B840B950B39F40A2661F0232B242BDC
:104CE000252B21F408950A2609F4A140A6958FEFFB
:104CF000811D811D08950E948E260C9412270E940A
:104D0000042738F00E940B2720F0952311F00C9413
:104D1000FB260C94012711240C9446270E9423277C
:104D200070F3959FC1F3950F50E0551F629FF001FE
:104D3000729FBB27F00DB11D639FAA27F00DB11D17
:104D4000AA1F649F6627B00DA11D661F829F2227A0
:104D5000B00DA11D621F739FB00DA11D621F839F27
:104D6000A00D611D221F749F3327A00D611D231FFD
:104D7000849F600D211D822F762F6A2F11249F574B
:104D800050409AF0F1F088234AF0EE0FFF1FBB1F4E
:104D9000661F771F881F91505040A9F79E3F51050D
:104DA00080F00C94FB260C9446275F3FE4F3983E7A
:104DB000D4F3869577956795B795F795E7959F5FB7
:104DC000C1F7FE2B880F911D9695879597F9089549
:104DD000992788270895DC01FC01672F71917723BB
:104DE000E1F7329704C07C916D9370836291AE17A6
:104DF000BF07C8F3089597F99F6780E870E060E007
:104E000008959FEF80EC089500240A941616170663
:104E100018060906089500240A94121613061406AB
:104E200005060895092E0394000C11F4882352F00E
:104E3000BB0F40F4BF2B11F460FF04C06F5F7F4FC6
:104E40008F4F9F4F089557FD9058440F551F59F0AD
:104E50005F3F71F04795880F97FB991F61F09F3F67
:104E600079F087950895121613061406551FF2CF90
:104E70004695F1DF08C0161617061806991FF1CFE0
:104E800086957105610508940895E894BB27662707
:104E90007727CB0197F908950E945727A59F900D7A
:104EA000B49F900DA49F800D911D11240895A29F81
:104EB000B001B39FC001A39F700D811D1124911DEE
:104EC000B29F700D811D1124911D08950E946D27C0
:104ED0006894B1110C94462708950E942B2788F0FE
:104EE0009F5798F0B92F9927B751B0F0E1F0660FAE
:104EF000771F881F991F1AF0BA95C9F714C0B130EF
:104F000091F00E944527B1E008950C944527672F42
:104F1000782F8827B85F39F0B93FCCF3869577951D
:104F20006795B395D9F73EF4909580957095619506
:104F30007F4F8F4F9F4F08950E94572608F48FEFA1
:104F400008950E94D52730F09F3710F40C9446271F
:104F50000C94AC270C94C727882371F4772321F095
:104F60009850872B762F07C0662311F499270DC020
:104F70009051862B70E060E02AF09A95660F771FBB
:104F8000881FDAF7880F9695879597F908959F3FC0
:104F900031F0915020F4879577956795B795880FF4
:104FA000911D9695879597F908950E942B27A0F05B
:104FB000BEE7B91788F4BB279F3860F41616B11DF9
:104FC000672F782F8827985FF7CF86957795679515
:104FD000B11D93959639C8F3089597FB072E16F4E3
:104FE000009407D077FD09D00E944A2807FC05D01D
:104FF0003EF4909581959F4F0895709561957F4FF0
:105000000895A1E21A2EAA1BBB1BFD010DC0AA1F09
:10501000BB1FEE1FFF1FA217B307E407F50720F021
:10502000A21BB30BE40BF50B661F771F881F991F9C
:105030001A9469F760957095809590959B01AC01E5
:10504000BD01CF010895052E97FB1EF400940E9428
:105050003A2857FD07D00E94012807FC03D04EF4E0
:105060000C943A2850954095309521953F4F4F4FDD
:105070005F4F089590958095709561957F4F8F4F04
:105080009F4F0895EE0FFF1F881F8BBF0790F6916B
:10509000E02D1994AA1BBB1B51E107C0AA1FBB1F1F
:1050A000A617B70710F0A61BB70B881F991F5A95B4
:1050B000A9F780959095BC01CD0108950F931F939A
:1050C000CF93DF938230910510F482E090E0E0917D
:1050D000EF0EF091F00E30E020E0B0E0A0E030976D
:1050E00099F42115310509F44AC0281B390B2430E5
:1050F0003105D8F58A819B816115710589F1FB0124
:1051000093838283FE0111C040815181028113810A
:1051100048175907E0F04817590799F4109761F0BC
:1051200012960C93129713961C933296CF01DF912F
:10513000CF911F910F9108950093EF0E1093F00EF1
:10514000F4CF2115310551F04217530738F0A9016A
:10515000DB019A01BD01DF01F801C1CFEF01F9CFF9
:105160009093F00E8093EF0ECDCFFE01E20FF31F70
:10517000819391932250310939832883D7CF20918D
:10518000ED0E3091EE0E232B41F42091160230915A
:1051900017023093EE0E2093ED0E20911402309101
:1051A00015022115310541F42DB73EB74091180283
:1051B00050911902241B350BE091ED0EF091EE0E8B
:1051C000E217F307A0F42E1B3F0B2817390778F0DE
:1051D000AC014E5F5F4F2417350748F04E0F5F1F3D
:1051E0005093EE0E4093ED0E819391939FCFF0E09C
:1051F000E0E09CCFCF93DF930097E9F0FC0132977A
:1052000013821282A091EF0EB091F00EED0130E00A
:1052100020E01097A1F420813181820F931F20910B
:10522000ED0E3091EE0E2817390709F061C0F093AA
:10523000EE0EE093ED0EDF91CF910895EA01CE17C7
:10524000DF07E8F54A815B819E0141155105B1F701
:10525000E901FB83EA8349915991C40FD51FEC17EB
:10526000FD0761F4808191810296840F951FE90109
:1052700099838883828193819B838A83F0E0E0E035
:1052800012968D919C9113970097B9F52D913C91B1
:105290001197CD010296820F931F2091ED0E309150
:1052A000EE0E2817390739F6309751F51092F00EA7
:1052B0001092EF0EB093EE0EA093ED0EBCCFD38301
:1052C000C28340815181840F951FC817D90761F4AB
:1052D0004E5F5F4F88819981480F591F51834083EA
:1052E0008A819B81938382832115310509F0B0CF98
:1052F000F093F00EE093EF0E9ECFFD01DC01C0CFE6
:1053000013821282D7CF4F925F926F927F928F92C9
:105310009F92AF92BF92CF92DF92EF92FF920F9344
:105320001F93CF93DF938C01009799F4CB01DF910A
:10533000CF911F910F91FF90EF90DF90CF90BF9092
:10534000AF909F908F907F906F905F904F900C9454
:105350005E28FC01E60FF71F9C0122503109E2177D
:10536000F30708F4AEC0D901CD91DC911197C617AF
:10537000D70720F1C530D10578F0CE010497861704
:10538000970750F0C61BD70B2297C193D1936D930B
:105390007C93CF010E94FA28C801DF91CF911F9121
:1053A0000F91FF90EF90DF90CF90BF90AF909F90C4
:1053B0008F907F906F905F904F9008955B01AC1A33
:1053C000BD0A4C018C0E9D1EA091EF0EB091F00E07
:1053D000512C412CF12CE12C109731F58091ED0EE0
:1053E0009091EE0E8815990509F05CC04616570697
:1053F00008F058C08091140290911502009741F472
:105400008DB79EB74091180250911902841B950BDD
:10541000E817F90708F055C0F093EE0EE093ED0E93
:10542000F90171836083B8CF8D919C911197129689
:105430006C90129713967C901397A815B90559F59F
:105440006C0142E0C40ED11CCA14DB0420F1AC0193
:105450004A195B09DA011296159780F0628273820D
:1054600051834083D9016D937C93E114F10471F071
:10547000D7011396FC93EE9312978ECF22968C0F42
:105480009D1FF90191838083F301EFCFF093F00E1C
:10549000E093EF0E81CF4816590608F42C017D01E8
:1054A000D3019ACFCB010E945E287C01009749F07E
:1054B000AE01B8010E94642AC8010E94FA2887013F
:1054C0006BCF10E000E068CFFB01DC0102C001906F
:1054D0000D9241505040D8F70895FB01DC018D91A9
:1054E000019080190110D9F3990B0895FB01DC019B
:1054F00001900D920020E1F7089512E0C0E7D2E09C
:1055000000E006C0802FFE010E9442282196011D66
:0E551000C137D10780E00807A9F7F894FFCF54
:10551E003A053A053A053A053A053A053A053A0585
:10552E00080080000000F10E8000000000004C0614
:10553E00B605E30599061406F20506060D0A005592
:10554E004E4B4E4F574E20434F4D4D414E44005300
:10555E00544152540053544F5000444953434F4EFC
:10556E004E45435400454E4400494E495400415562
:10557E0054484F523D005649443D314C3250005034
:10558E0049443D4346543733374D4350005343410E
:10559E004E53544154450053544154455343414E88
:1055AE0000535749544348002C31002C30005049C9
:1055BE004E4700504F4E4700434F4E464947004C12
:1055CE0045443D004C454E4754483D0057494454D0
:1055DE00483D004845494748543D004144442C311C
:1055EE00312C444953504C41595F4252492C553845
:1055FE002C52572C446973706C6179732042726916
:10560E006768746E6573732C4D43502064696769C7
:10561E007473206272696768746E65737320667244
:10562E006F6D203020746F2031352C504552534908
:10563E0053543D31004144442C31322C4241434BB2
:10564E004C494748545F4252492C55382C52572CDE
:10565E004261636B6C696768742042726967687433
:10566E006E6573732C4D4350206261636B6C69677A
:10567E006874206272696768746E657373206672EF
:10568E006F6D203020746F203235352C50455253BB
:10569E004953543D31004144442C31332C56495228
:1056AE005455414C5F504F5745522C55382C52573C
:1056BE002C5669727475616C20506F7765722C4D23
:1056CE004350207669727475616C20706F776572C5
:1056DE002030206F7220312C504552534953543D87
:1056EE0031003336306238313265663130643333EF
:1056FE006535343537656537623431323834353394
:10570E003666007B38343637366633642D6464640F
:10571E00662D343863342D616234632D3833396627
:10572E0032343262363365307D0046444C45465441
:10573E005F4C4544004E315F4C4544005350454547
:10574E00445F4C454400564E41565F4C4544004C18
:10575E00564C4348475F4C4544004844475F4C45D0
:10576E0044004C4E41565F4C454400564F524C4FF0
:10577E00435F4C4544004150505F4C454400414C02
:10578E0054484C445F4C45440056535F4C454400CE
:10579E00434D44415F4C454400434D44425F4C45AC
:1057AE004400435753415F4C454400435753425FB7
:1057BE004C454400464452494748545F4C454400CA
:1057CE0041545F4C4544004352534C4546545F444C
:1057DE00495350004941534D4143485F444953504A
:1057EE00004844475F4449535000414C545F44497C
:1057FE0053500056535F444953500043525352493D
:10580E004748545F444953500046444C4546540063
:10581E004154004E3100535041445F50555348425D
:10582E005554544F4E00535045454400434F00537A
:10583E005044494E545600564E4156004C564C4319
:10584E00484700484447004C4E415600564F524C74
:10585E004F430041505000414C54484C4400414C81
:10586E0054494E545600565300434D444100434D47
:10587E004442004357534100435753420044495357
:10588E00454E474147450046445249474854004219
:10589E00414E4B004352534C4546545F454E4300D8
:1058AE00535041445F454E434F4445520049415386
:1058BE004D4143485F454E43004844475F454E4384
:1058CE0000414C545F454E430056535F454E4300D6
:1058DE0043525352494748545F454E430041545436
:1058EE00414348494E472043414C4C4241434B5360
:0658FE0021002C2D3100F9
:00000001FF
