:100000000C94F4020C9438170C940D170C94E2160F
:100010000C94B7160C948C160C9461160C9436162E
:100020000C940B160C9425030C9425030C942503B7
:100030000C9425030C9425030C9425030C942503A0
:100040000C9425030C9425030C9425030C94250390
:100050000C9425030C9425030C9425030C94C115D2
:100060000C9425030C948D170C9463170C942503A2
:100070000C9425030C9425030C9425030C94250360
:100080000C9425030C9425030C9425030C94250350
:100090000C9425030C9425030C9425030C94250340
:1000A0000C9425030C9425030C9425030C94250330
:1000B0000C9425030C9425030C9425030C94250320
:1000C0000C9425030C9425030C9425030C94250310
:1000D0000C9425030C9425030C9425030C94250300
:1000E0000C9425030C94E4030C94D6030C9413088D
:1000F0000C9435100C94C3040C94340E0C94F80337
:100100000C94C3140C94AC0C0C940A050C94DC03F2
:100110000C94180D0C9489060C94D2030C9497241B
:100120000C94CC030C9437050C94C1030C94B00CC4
:100130000C9455050C94D70C0C944B050C94660646
:100140000C9423050C94F6040C9419080C940005E7
:100150000C94D2040C941C070C9497060C9425085C
:100160000C94FD0C0C94BD050C94CF060C94BC04AF
:100170000C94E0030C94C5030C94E6040C94C31790
:100180000C94EE030C94B7030C9439060C947F0F77
:100190000C942D050C94F7030C94BD030C94DC0413
:1001A0000C9475060C94EE040C9441050C94EA032F
:1001B0000C94FC030C941F080C94F2030C9414058B
:1001C0000C94C9030C94C8044E414E494E495459ED
:1001D000494E46CDCCCC3D0AD7233C17B7D1387712
:1001E000CC2B329595E6241FB14F0A000020410028
:1001F00000C84200401C4620BCBE4CCA1B0E5AAE72
:10020000C59D7400407A10F35A00A0724E18090080
:1002100010A5D4E80000E87648170000E40B54026B
:100220000000CA9A3B000000E1F5050000809698A6
:1002300000000040420F000000A0860100000010F6
:100240002700000000E80300000000640000000038
:10025000000A00000000000100000000002C76D819
:1002600088DC674F0823DFC1DFAE59E1B1B796E5FF
:10027000E3E453C63AE651997696E8E6C28426EB63
:10028000898C9B62ED407C6FFCEFBC9C9F40F2BA76
:10029000A56FA5F490055A2AF75C936B6CF9676D0E
:1002A000C11BFCE0E40D47FEF520E6B500D0ED9063
:1002B0002E0300943577050080841E080000204E30
:1002C0000A000000C80C333333330F986E128311C9
:1002D00041EF8D2114893BE65516CFFEE6DB18D1A0
:1002E000844B381BF77C1D901DA4BBE42420328472
:1002F000725E228100C9F124ECA1E53D27636469A7
:100300006E6F70737578585B00494E5055542C30A1
:100310002C434F4E4649475552455F50414E454C40
:100320005F5354415455532C53595354454D2C53FA
:100330005041445F5649525455414C5F504F5745C8
:10034000522C55495F545950453D332C4355535415
:100350004F4D5F545950453D504F57455200464F01
:10036000524547524F554E443D2346464646464623
:1003700000524F573D3100535041445F4449535060
:100380004C415900444953504C4159004F55545029
:10039000555400524F555445544F3D4844475F45CE
:1003A0004E430048494444454E3D310055495F5352
:1003B00054594C453D300055495F545950453D32E4
:1003C00000494E5055540048494444454E3D310083
:1003D000535041445F4C4544004C4544004F5554F4
:1003E00050555400454E434F44455200494E5055D8
:1003F00054004E4F5F444953504C41595F434C4564
:1004000041523D31005650535550504F52543D319A
:100410000050414745535550504F52543D300049CC
:100420005347454E455249433D31004F5054494F83
:100430004E0043465420373337204D43500053502D
:1004400041440000002100240027002A002D003034
:1004500000330001010000040107010A010000222D
:1004600000250028002B002E00310034000201007E
:1004700000050108010B01000020002300260029CF
:10048000002C002F003200000100000301060109CA
:100490000105050505070508080808020202020A09
:1004A0000A08080404040401010101010101010317
:1004B00003030303030303040707070C0C0C0C0CD2
:1004C0000C0C0C0202020206060606060606060BC5
:1004D0000B0B0B0B0B0B0B0102102020080810203C
:1004E00040102040800201020108040201010204C0
:1004F000081020408080402010080402018004027F
:1005000001804020100804020108040201010204D5
:10051000081020408001020408102040807E306DC9
:1005200079335B5F707F7B771F0D3D4F4700000085
:1005300000000000000000000000000000000000BB
:10054000000000000000000000800180007E306D8F
:1005500079335B5F707F7B00000000000000771F35
:100560000D3D4F4700370000000E000000670000FF
:100570000000000000000000000000000800771FDD
:100580000D3D4F4700370000000E00151D670000AD
:100590000000000000000000000000000000000A51
:1005A0000B02090C0D0E08070304010000000000F7
:1005B000000000000000000000000000000000003B
:1005C00000000000000000000012111000000000F8
:1005D000000000000000000000000000000000001B
:1005E00000000000C317972411241FBECFEFD1E2F3
:1005F000DEBFCDBF00E00CBF2EE0AAEEB5E001C02B
:100600001D92A53FB207E1F715E0A0E0B2E0E2E2FB
:10061000F2E600E00BBF02C007900D92AA3EB107C0
:10062000D9F712E0C3EFD2E000E006C0219701093C
:10063000802FFE010E94802BC23FD10780E0080777
:10064000A9F70E94591E0C94FF300C940000AC01D5
:100650001092380C9091880E8091870EFA01BF019C
:10066000641B750B2091380C30813093380C931338
:1006700004C0921302C01092380C3081311104C0B2
:10068000921721F0CB0108953817D1F33196E7CFB7
:100690000F931F93CF93DF9380917C0E882309F4EF
:1006A00046C0D0E0C0E0813029F482E080937C0E27
:1006B000CCE3DCE080917D0E882341F1209721F48A
:1006C000C091810ED091820E8E01CE010E9427032F
:1006D000892B29F42196F80180818111F5CFF80149
:1006E0008081882309F1C8010E942703F801E80FDF
:1006F000F91F8081882311F010823196F093820EC9
:10070000E093810E1093800E00937F0E80917F0EF8
:100710009091800E892B59F081E080937D0EDF91BE
:10072000CF911F910F91089510E000E0EBCF80E092
:10073000F6CF8150823108F05AC0E82FF0E08827C8
:10074000EB55FC4F8F4F0C94802BC503C903B703A7
:10075000BD03C103F703CC03D203D603DC03E003DC
:10076000E403EA03EE03F703F203F803FC038091CA
:1007700080008F77809380000895809180008F7D26
:10078000F9CF80918000877FF5CF84B58F7784BDC6
:10079000089584B58F7DFBCF8091B0008F778093D3
:1007A000B00008958091B0008F7DF9CF80919000C6
:1007B0008F77809390000895809190008F7DF9CF7E
:1007C00080919000877FF5CF8091A0008F778093F4
:1007D000A00008958091A0008F7DF9CF8091A000A6
:1007E000877FF5CF809120018F7780932001089536
:1007F000809120018F7DF9CF80912001877FF5CFF7
:10080000CF93DF93282F30E0F901E356FA4F84911C
:10081000F901E952FB4FD491F901EF56FB4FC49116
:10082000CC23A1F081110E949903EC2FF0E0EE0F90
:10083000FF1FE958FB4FA591B491EC91ED2381E0A6
:1008400090E009F480E0DF91CF91089580E090E09E
:10085000FACF1F93CF93DF93282F30E0F901E356AF
:10086000FA4F8491F901E952FB4FD491F901EF5607
:10087000FB4FC491CC23A9F0162F81110E9499033C
:10088000EC2FF0E0EE0FFF1FE35AFB4FA591B49160
:100890008FB7F894EC91111108C0D095DE23DC934A
:1008A0008FBFDF91CF911F910895DE2BF8CFCF93AB
:1008B000DF9390E0FC01E952FB4F24918F569B4F50
:1008C000FC0184918823D1F090E0880F991FFC01EE
:1008D000ED5BFB4FA591B491FC01E35AFB4FC59131
:1008E000D491623071F49FB7F8943C91822F809537
:1008F00083238C93E8812E2B28839FBFDF91CF9198
:1009000008958FB7F894EC912E2B2C938FBFF6CFD0
:10091000CF93DF93EC0161E082E00E9457042097BF
:1009200031F460E082E0DF91CF910C942904CF3F55
:10093000D10511F461E0F6CFEFE9F5E0E491E15083
:10094000E23108F0B2C0F0E08827E655FB4F8F4F48
:100950000C94802BBC04C304C804D204DC045505E9
:10096000E604EE04F60400050A05140523052D052A
:100970005505370541054B0584B5806884BDC7BD65
:10098000DF91CF91089584B5806284BDC8BDF8CF52
:1009900080918000806880938000D0938900C0930C
:1009A0008800EECF80918000806280938000D09399
:1009B0008B00C0938A00E4CF809180008860809390
:1009C0008000D0938D00C0938C00DACF8091B0006E
:1009D00080688093B000C093B300D2CF8091B00004
:1009E00080628093B000C093B400CACF8091900021
:1009F000806880939000D0939900C0939800C0CFF6
:100A000080919000806280939000D0939B00C0936F
:100A10009A00B6CF80919000886080939000D09328
:100A20009D00C0939C00ACCF8091A0008068809313
:100A3000A0008091A0008F7B8093A000D093A9009C
:100A4000C093A8009DCF8091A00080628093A000F9
:100A5000D093AB00C093AA0093CF8091A000886090
:100A60008093A000D093AD00C093AC0089CF80915B
:100A70002001806880932001D0932901C093280130
:100A80007FCF80912001806280932001D0932B0141
:100A9000C0932A0175CF8091200188608093200146
:100AA000D0932D01C0932C016BCFC038D1050CF031
:100AB00041CF37CF3FB7F894809104069091050657
:100AC000A0910606B091070626B5A89B05C02F3F4A
:100AD00019F00196A11DB11D3FBFBA2FA92F982F64
:100AE0008827BC01CD01620F711D811D911D42E05F
:100AF000660F771F881F991F4A95D1F708958F9227
:100B00009F92AF92BF92CF92DF92EF92FF924B01F2
:100B10005C010E945A056B017C010E945A056C1908
:100B20007D098E099F09683E734081059105A8F3F0
:100B300021E0821A9108A108B10888EEC80E83E06E
:100B4000D81EE11CF11C81149104A104B10429F701
:100B5000FF90EF90DF90CF90BF90AF909F908F90DD
:100B600008952FB7F8946091000670910106809166
:100B70000206909103062FBF08950895DC01ED91C0
:100B8000FC910190F081E02D1994EF92FF920F9368
:100B90001F93CF93DF932091330C2223E9F08C0134
:100BA0006091870E8091840E9091850E0E94BE0503
:100BB000E090840EF090850EE801FE0164916623BA
:100BC00059F0D701ED91FC910190F081E02DC70122
:100BD00019952196892B89F7DF91CF911F910F915C
:100BE000FF90EF900895CF93DF932091330C222351
:100BF000D1F0EC016091870E8091840E9091850E6A
:100C00000E94BE058091840E9091850E4C815D817D
:100C100068817981DC01ED91FC910280F381E02D06
:100C2000DF91CF911994DF91CF910895CF93DF9306
:100C30002091330C2223D1F0EC016091870E80913A
:100C4000840E9091850E0E94BE058091840E909135
:100C5000850E4C815D8168817981DC01ED91FC918B
:100C60000280F381E02DDF91CF911994DF91CF9134
:100C70000895AF92BF92CF92DF92EF92FF920F93BF
:100C80001F93CF93DF936C017B018B01040F151F22
:100C9000EB015E01AE18BF08C017D10759F069918A
:100CA000D601ED91FC910190F081E02DC6011995DE
:100CB000892B79F7C501DF91CF911F910F91FF909B
:100CC000EF90DF90CF90BF90AF900895FC01538DCF
:100CD000448D252F30E0842F90E0821B930B541716
:100CE00010F0CF96089501970895FC01918D828DA3
:100CF000981761F0A28DAE0FBF2FB11D5D968C913C
:100D0000928D9F5F9F73928F90E008958FEF9FEF7A
:100D10000895FC01918D828D981731F0828DE80F36
:100D2000F11D858D90E008958FEF9FEF0895FC01F0
:100D3000918D228D892F90E0805C9F4F821B9109BD
:100D40008F739927089586E99BE00E94970621E01A
:100D5000892B09F420E0822F0895FC01A48DA80FAF
:100D6000B92FB11DA35ABF4F2C91848D90E00196ED
:100D70008F739927848FA689B7892C93A089B1890D
:100D80008C91837080648C93938D848D981306C0AE
:100D90000288F389E02D80818F7D80830895EF9212
:100DA000FF920F931F93CF93DF93EC0181E0888F25
:100DB0009B8D8C8D98131AC0E889F989808185FFF5
:100DC00015C09FB7F894EE89FF896083E889F98997
:100DD00080818370806480839FBF81E090E0DF9199
:100DE000CF911F910F91FF90EF900895F62E0B8DEC
:100DF00010E00F5F1F4F0F731127E02E8C8D8E11A7
:100E00000CC00FB607FCFACFE889F989808185FF0D
:100E1000F5CFCE010E94AD06F1CFEB8DEC0FFD2F8B
:100E2000F11DE35AFF4FF0829FB7F8940B8FEA89C8
:100E3000FB8980818062CFCFCF93DF93EC01888DD7
:100E40008823B9F0AA89BB89E889F9898C9185FD45
:100E500003C0808186FD0DC00FB607FCF7CF8C91D3
:100E600085FFF2CF808185FFEDCFCE010E94AD06D8
:100E7000E9CFDF91CF91089580E090E0892B29F0B0
:100E80000E94A30681110E94000080E090E0892B5F
:100E900049F080E090E0892B29F00E940000811148
:100EA0000E94000080E090E0892B49F080E090E013
:100EB000892B29F00E94000081110E94000080E02F
:100EC00090E0892B49F080E090E0892B29F00E9486
:100ED000000081110C9400000895CF93DF93C0EEC1
:100EE000DAE060E088810E9429042A968BE0CA3803
:100EF000D807B9F7DF91CF910895833171F120F4CC
:100F00008231E9F180E008958431A9F08531D1F78B
:100F10007093EF056093EE0585E298E090930502EB
:100F200080930402809169008C7F816080936900C6
:100F3000E89A81E008957093F1056093F0058FE1E0
:100F400098E0909307028093060280916900837F66
:100F5000846080936900E99AECCF7093F305609305
:100F6000F20589E198E0909309028093080280914C
:100F700069008F7C806180936900EA9ADACF709370
:100F8000F5056093F40583E198E090930B0280935C
:100F90000A02809169008F73806480936900EB9AE4
:100FA000C8CFDC01ED91FD918081ED91FD919081A3
:100FB000ED91FD916C9163708E2309F064609F2325
:100FC00009F06860EEEEF7E0E60FF11D65956595B6
:100FD0006D936D917D918D919D91099423C01AC05F
:100FE00012C016C010C01EC009C014C013C006C075
:100FF00019C009C00DC007C00DC014C062507040B8
:10100000804090400BC0615070408040904006C0CE
:101010006E5F01C06F5F7F4F8F4F9F4F9E938E9388
:101020007E936E9308958091F4059091F5050C944C
:10103000D1078091F2059091F3050C94D10780912E
:10104000F0059091F1050C94D1078091EE059091F7
:10105000EF050C94D1078091EC059091ED050C946F
:10106000D1078091EA059091EB050C94D1070F937D
:101070001F93CF93DF93EC01062F142F62E0802F94
:101080000E94570462E0812F0E945704802F90E055
:10109000FC01EF56FB4FE491F0E0EE0FFF1FE95823
:1010A000FB4FA591B491B983A883FC01E952FB4F92
:1010B00024912C83812F90E0FC01EF56FB4FE491AB
:1010C000F0E0EE0FFF1FE958FB4F459154915B8311
:1010D0004A83FC01E952FB4FE491ED831F8218869D
:1010E00019861A868BE39FE10197F1F78C912823EB
:1010F00091E009F490E0DA018C91E82309F0926024
:101100009E83BE01802F0E947D078B87BE01812FA9
:101110000E947D079B85890F8B87DF91CF911F915F
:101120000F9108954F925F926F927F928F929F924C
:10113000AF92BF92CF92DF92EF92FF920F931F93E5
:10114000CF93DF931F921F92CDB7DEB78C014983F7
:101150002A83660F771FF801EA5AFF4FE080F1807B
:10116000EE0CFF1CF801CF01801B910B8E159F0523
:1011700014F41192F8CF8981F801E60FF71F8183EB
:101180008A818083680184E5C80ED11C60E0F60185
:1011900080810E9429045801F2E5AF0EB11C48017C
:1011A00080E5880E911C1E141F040CF5E1E0EE1A78
:1011B000F108F801EE0DFF1D6080F5015080F4018B
:1011C000408088E0782E662D661F6627661F842D76
:1011D0000E942904660C61E0852D0E94290460E0CC
:1011E000852D0E9429047A947110EDCFDCCF61E047
:1011F000F60180810F900F90DF91CF911F910F9199
:10120000FF90EF90DF90CF90BF90AF909F908F9026
:101210007F906F905F904F900C942904FC01EA5AE4
:10122000FF4F20813181121613064CF46031710595
:1012300030F4262F4AE070E060E00C9492080895A4
:10124000E42FDC01AA5ABF4F4D915C91141615068C
:10125000A4F40E2E000CFF0BE35EFA4FE491211173
:10126000E068DC01A60FB71F5096EC9341E0460FF3
:101270002E2F70E060E00C9492080895FC01EA5A69
:10128000FF4F0190F081E02D1E161F06ACF4403197
:1012900098F4E42FF0E0E35EFA4FE4912111E06866
:1012A000DC01A60FB71F5096EC9341E0460F2E2F9E
:1012B00070E060E00C9492080895CF92DF92EF9274
:1012C000FF92CF93DF936B017C01DC01CB01825F46
:1012D000984DAF4FBF4F8E3A9D4AA140B10570F176
:1012E00020E040E264E070E080E696E00E942009A1
:1012F00020E040E263E070E080E696E00E94200992
:1013000020E040E262E070E080E696E00E94200982
:1013100020E040E261E070E080E696E00E94200973
:1013200020E040E270E060E080E696E0DF91CF915F
:10133000FF90EF90DF90CF900C942009C0E0F7FE73
:1013400009C0F094E094D094C094C11CD11CE11C5D
:10135000F11CC1E0C701B6012AE030E040E050E0F6
:101360000E94612BD62F20E04DE2C11167C080E1C1
:10137000C81687E2D806E104F1040CF45DC0C70189
:10138000B60120E137E240E050E00E94612B422F9D
:1013900020E064E070E080E696E00E943E09C7012C
:1013A000B60128EE33E040E050E00E94612BC90115
:1013B0006AE070E00E942B2B20E0482F63E070E091
:1013C00080E696E00E943E09C701B60124E630E0BF
:1013D00040E050E00E94612BC9016AE070E00E9489
:1013E0002B2B20E0482F62E070E080E696E00E9420
:1013F0003E09C701B6012AE030E040E050E00E941B
:10140000612BC9016AE070E00E942B2B20E0482F7D
:1014100061E070E080E696E00E943E0920E04D2FFA
:1014200070E060E080E696E0DF91CF91FF90EF9072
:10143000DF90CF900C943E0920E040E264E070E041
:1014400080E696E00E94200928EEC21623E0D2062C
:10145000E104F1040CF0A3CF20E040E263E070E08F
:1014600080E696E00E94200984E6C816D104E104D3
:10147000F1040CF0A9CF20E040E262E070E080E6E9
:1014800096E00E9420092AE0C216D104E104F1048A
:101490000CF0AFCF20E040E261E070E080E696E043
:1014A0000E942009BBCF1F93CF93DF93EC01825F93
:1014B000984D8E319E4458F120E040E267E070E0A4
:1014C00088E096E00E94200920E040E266E070E0BB
:1014D00088E096E00E94200920E040E265E070E0AC
:1014E00088E096E00E94200920E040E264E070E09D
:1014F00088E096E00E94200920E040E263E070E08E
:1015000088E096E0DF91CF911F910C94200920E0B4
:10151000D7FF04C0D195C195D10921E0CE016AE081
:1015200070E00E942B2B182F222309F449C020E0E1
:101530004DE267E070E088E096E00E942009C83E36
:1015400083E0D8070CF43FC0CE0168EE73E00E9440
:101550002B2B462F20E066E070E088E096E00E94AA
:101560003E09CE0164E670E00E942B2BCB016AE0BD
:1015700070E00E942B2B20E0482F65E070E088E0AF
:1015800096E00E943E092AE030E0CE01B9010E94B7
:101590002B2BCB01B9010E942B2B20E0482F64E0BC
:1015A00070E088E096E00E943E0920E0412F63E071
:1015B00070E088E096E0DF91CF911F910C943E0996
:1015C00020E040E2B6CF20E040E266E070E088E054
:1015D00096E00E942009C436D1051CF620E040E2C6
:1015E00065E070E088E096E00E942009CA30D105ED
:1015F00054F620E040E264E070E088E096E00E946B
:101600002009D3CFCF93DF93EC01C83E83E0D80706
:10161000D0F020E040E267E070E080E696E00E94D3
:10162000200920E040E266E070E080E696E00E945B
:10163000200920E040E265E070E080E696E0DF917E
:10164000CF910C942009CE0164E670E00E942B2B10
:10165000462F20E067E070E080E696E00E943E09B9
:101660002AE030E0CE01B9010E942B2BC82FCB011C
:10167000B9010E942B2B20E0482F66E070E080E645
:1016800096E00E943E0920E04C2F65E070E080E685
:1016900096E0DF91CF910C943E09CF93DF93EC015C
:1016A000C83E83E0D807D0F020E040E262E070E07E
:1016B00088E096E00E94200920E040E261E070E0CE
:1016C00088E096E00E94200920E040E270E060E0BF
:1016D00088E096E0DF91CF910C942009CE0164E67A
:1016E00070E00E942B2B462F20E062E070E088E043
:1016F00096E00E943E092AE030E0CE01B9010E9446
:101700002B2BC82FCB01B9010E942B2B20E0482F97
:1017100061E070E088E096E00E943E0920E04C2FF6
:1017200070E060E088E096E0DF91CF910C943E0994
:10173000CF93DF93EC01C83E83E0D807D0F020E0E0
:1017400040E267E070E088EB96E00E94200920E02C
:1017500040E266E070E088EB96E00E94200920E01D
:1017600040E265E070E088EB96E0DF91CF910C9469
:101770002009CE0164E670E00E942B2B462F20E06A
:1017800067E070E088EB96E00E943E092AE030E0D6
:10179000CE01B9010E942B2BC82FCB01B9010E94A9
:1017A0002B2B20E0482F66E070E088EB96E00E944B
:1017B0003E0920E04C2F65E070E088EB96E0DF9179
:1017C000CF910C943E09DF92EF92FF920F931F93FB
:1017D000CF93DF93FC01EA5AFF4F208131816217DA
:1017E0007307C4F47B018C01EB0183E0CC0FDD1F98
:1017F0008A95E1F76096C00FD11FDD24D39419922A
:1018000020E04D2DB701C8010E949208D39489E0D1
:10181000D812F5CFDF91CF911F910F91FF90EF90EC
:10182000DF9008958F929F92AF92BF92CF92DF92F6
:10183000EF92FF920F931F93CF93DF938C01D62EDD
:10184000C72EEC01C05BDF4F688379834C0182E5D2
:10185000880E911CF401518340835801F4E5AF0ECA
:10186000B11CF501318320837801F6E5EF0EF11C00
:1018700081E090E0F7019183808361E08D2D0E94EB
:10188000570461E0F40180810E94570461E0F50192
:1018900080810E94570461E0F50180810E94290443
:1018A000D882C982F80170961192EC17FD07E1F712
:1018B000D0E0C0E0F70180819181C817D90754F5C5
:1018C00020E04FE0BE01C8010E949208F70180812C
:1018D0009181C817D90734F427E04BE0BE01C80155
:1018E0000E94920820E049E0BE01C8010E949208CF
:1018F000BE01C8010E94E30BF70180819181C817E6
:10190000D90734F420E04CE0BE01C8010E949208DF
:101910002196D0CFDF91CF911F910F91FF90EF9043
:10192000DF90CF90BF90AF909F908F9008950E94CE
:101930004803882359F081E080937D0E80937E0ECA
:1019400080917F0E9091800E0C94782610927E0EDE
:1019500060E070E0CB0108950E94970C0C94970C06
:10196000CF92DF92EF92FF920E94970C6B010E9440
:10197000970C672B682B692B81F08AE08C9DF00116
:101980008D9DF00D1124E052F54F61E08081FF90B4
:10199000EF90DF90CF900C9429048AE08C9DF001A9
:1019A0008D9DF00D1124E052F54F60E0EFCFCF9206
:1019B000DF92EF92FF920E94970C6B017C0180E115
:1019C000C816D104E104F10498F4B60188EB96E05E
:1019D0000E940E09B60180E696E00E940E09B6014B
:1019E00088E096E00E940E09D0921102C092100287
:1019F000FF90EF90DF90CF900895CF92DF92EF921B
:101A0000FF920E94970C6B017C018FEFC816D104E6
:101A1000E104F10409F038F4C6010E948804D09270
:101A20001302C0921202FF90EF90DF90CF900895C2
:101A30000E94970C672B682B692BC1F470E060E063
:101A400088EB96E00E94E30B70E060E080E696E0B1
:101A50000E94E30B70E060E088E096E00E94E30BF8
:101A60000E946D0790E080E00C948804809112023F
:101A700090911302F9CFFB0101900020E9F7319713
:101A8000AF01461B570BDC01ED91FC910280F38105
:101A9000E02D19948091330C8823A1F06091860E7B
:101AA0008091840E9091850E0E94BE0580913B0C22
:101AB000882341F06CE272E08091840E9091850E53
:101AC0000E943B0D10923A0C1092330C80E0089566
:101AD0008F929F92AF92BF92EF92FF920F931F93BC
:101AE000CF93DF93CDB7DEB7A1970FB6F894DEBFE3
:101AF0000FBECDBF7C01FA01CB0119A2223008F440
:101B00002AE08E010F5D1F4F822E912CB12CA12C4B
:101B1000BF01A50194010E943F2BF901CA016A305F
:101B20000CF5605DD8016E938D01232B242B252BA2
:101B300079F790E080E0109721F0BD01C7010E9485
:101B40003B0DA1960FB6F894DEBF0FBECDBFDF915F
:101B5000CF911F910F91FF90EF90BF90AF909F900A
:101B60008F900895695CDECF9091330C911110C075
:101B700091E09093330C90933A0C482F50E070E032
:101B800060E02AE08091840E9091850E0C94680D9F
:101B90000895CF92DF92EF92FF92CF93DF9320913F
:101BA000330C222359F16C016091870E8091840ED1
:101BB0009091850E0E94BE05C091840ED091850E35
:101BC0000D2C000CEE08FF082AE0B701A601F7FE75
:101BD0000CC06DE2CE010E94BE0544275527BA0114
:101BE0004C195D096E097F092AE0CE01DF91CF9182
:101BF000FF90EF90DF90CF900C94680DDF91CF9124
:101C0000FF90EF90DF90CF900895CF93DF932091D6
:101C1000330C222391F0EC016091870E8091840EA9
:101C20009091850E0E94BE05BE018091840E909118
:101C3000850EDF91CF910C943B0DDF91CF910895EC
:101C4000CF93DF939091330C91110AC0EB010E9466
:101C5000B40DCE010E94050EDF91CF910C944A0D78
:101C600080E0DF91CF9108956FE272E083E00C9401
:101C7000200E0F931F93CF93DF93EC0188819981FE
:101C8000009759F02A813B812617370730F081E011
:101C9000DF91CF911F910F9108958B016F5F7F4F5F
:101CA0000E94C12C009759F0998388831B830A8373
:101CB0002C813D81232B59F7FC011082E8CF80E075
:101CC000E7CFEF92FF920F931F93CF93DF936115AE
:101CD000710541F480E0DF91CF911F910F91FF904A
:101CE000EF90089541155105B1F07B01EC010C8195
:101CF0001D81040F151FB8010E94390E882351F36E
:101D0000288139818C819D81B701820F931F0E94A8
:101D1000B42D1D830C8381E0DECFCF93DF93EC01E4
:101D200088819981009711F00E94382C19821882BD
:101D30001D821C821B821A82DF91CF910895CF935E
:101D4000DF93EC01FB0101900020E9F73197AF012F
:101D5000461B570B0E94610E811103C0CE010E94E9
:101D60008D0ECE01DF91CF910895CF93DF93EC01DB
:101D7000FB0144815581608171810E94610E811156
:101D800003C0CE010E948D0ECE01DF91CF91089548
:101D9000EF92FF920F931F93CF93DF93EC017B01A0
:101DA0008A01BA010E94390E81110BC0CE010E9436
:101DB0008D0ECE01DF91CF911F910F91FF90EF908B
:101DC00008951D830C83B701888199810E94B42DE9
:101DD000F0CFEF92FF920F931F93CF93DF93CDB786
:101DE000DEB762970FB6F894DEBF0FBECDBF8C0191
:101DF000CB01F801118210821382128215821482A3
:101E00004AE09E012F5F3F4F7901B9010E94C02631
:101E1000F70101900020E9F73197AF014E195F09F2
:101E2000B701C8010E94C80E62960FB6F894DEBFD3
:101E30000FBECDBFDF91CF911F910F91FF90EF901B
:101E40000895FB01DC0111961C921E9213961C92C0
:101E50001E92129715961C921E921497861797073A
:101E600049F0608171816115710521F044815581CE
:101E70000C94C80E0895FC01118210821382128204
:101E800015821482FB0101900020E9F73197AF0120
:101E9000461B570B0C94C80EFC0180819181009762
:101EA00011F00C94382C08950F931F93CF93DF9368
:101EB00000D000D0CDB7DEB79091330C91111DC08A
:101EC0008B010E94B40DB801CE0101960E94210F32
:101ED000CE0101960E94F305CE0101960E944C0F9F
:101EE0000E944A0D26960FB6F894DEBF0FBECDBFF6
:101EF000DF91CF911F910F91089580E0F3CF0F9361
:101F00001F93CF93DF9300D000D0CDB7DEB70E94F0
:101F10004803882309F442C081E080937D0E8093BA
:101F20007E0E00917F0E1091800E6FE372E0C8016B
:101F30000E94AB2D892BB9F581E08093F605609165
:101F4000100270911102CE0101960E94E90EBE01AD
:101F50006F5F7F4F8BE00E94540FCE0101960E946D
:101F60004C0F6091120270911302CE0101960E94F3
:101F7000E90EBE016F5F7F4F8CE00E94540FCE01CF
:101F800001960E944C0F26960FB6F894DEBF0FBE46
:101F9000CDBFDF91CF911F910F91089510927E0ECA
:101FA00010E000E0C2CF65E472E0C8010E94AB2DF2
:101FB000892B39F06AE472E0C8010E94AB2D892BAD
:101FC000F9F41092F60570E060E088EB96E00E946C
:101FD000E30B70E060E080E696E00E94E30B70E0C7
:101FE00060E088E096E00E94E30B0E946D0760E0ED
:101FF00082E00E9429041092130210921202C3CFB1
:1020000065E572E0C8010E94AB2D892B09F0BBCFBA
:10201000D8CF0F931F93CF93DF9300D000D0CDB7CD
:10202000DEB72091330C21111EC08C0188E00E9484
:10203000B40DB801CE0101960E94210FCE01019688
:102040000E941606CE0101960E944C0F0E944A0D76
:1020500026960FB6F894DEBF0FBECDBFDF91CF91AD
:102060001F910F91089580E0F3CFCF92DF92EF920E
:10207000FF920F931F93CF93DF93CDB7DEB7629795
:102080000FB6F894DEBF0FBECDBF0E944803882371
:1020900009F468C081E080937D0E80937E0E0091EC
:1020A0007F0E1091800E69E572E0C8010E94AB2D91
:1020B000892B09F05CC080E00E94B40D8EE394E0AF
:1020C0000E94C5056AE87BE0CE0101960E94210FBF
:1020D000CE0101960E94F305CE0101960E944C0F9D
:1020E00082E394E00E94C50582E090E00E94C90D61
:1020F00089E992E00E94050E6EE572E0CE0101963C
:102100000E943B0F60E97BE0CE0101960E94B50E74
:10211000BC01CE0107960E94210FCE0107960E94B6
:102120001606CE0107960E944C0FCE0101960E9422
:102130004C0F86E692E00E94050E8FE692E00E9428
:10214000050E0E944A0D62960FB6F894DEBF0FBED0
:10215000CDBFDF91CF911F910F91FF90EF90DF9056
:10216000CF90089510927E0E10E000E09CCF6DE7B6
:1021700072E0C8010E94AB2D892B09F07FC080E07E
:102180000E94B40D87E892E00E94050E81E090E085
:102190000E94C90D0E944A0D08E118E050EDE52E9D
:1021A00057E0F52ED8018C910E9400046C01F801D3
:1021B00086859785892BC1F161E972E082859385D7
:1021C0000E94AB2D892B81F5C114D10409F043C0C5
:1021D000B701CE0101960E94E90EBE016F5F7F4FED
:1021E000CE0107960E94210F68E972E0CE010796A2
:1021F0000E949F0EBC01CE010D960E94210FCE01C0
:102200000D960E940910CE010D960E944C0FCE0132
:1022100007960E944C0FCE0101960E944C0FD801E8
:102220001996DC92CE921897045E1F4FBFEFEB1AFF
:10223000FB0AE6EEEE16E7E0FE0609F0B3CF80E01B
:102240000E94B40D87E892E00E94050E82E090E0C3
:102250000E94C90D76CFF1E0CF16D10401F7B70186
:10226000CE0101960E94E90EBE016F5F7F4FCE0145
:1022700007960E94210F6BE972E0B8CF6EE972E019
:10228000C8010E94AB2D892BD9F50E94B10560933E
:10229000F7057093F8058093F9059093FA0580E0AF
:1022A0000E94B40D83EA92E00E94050E0E94970CF2
:1022B0006B017C018091330C882309F442CF60913B
:1022C000870E8091840E9091850E0E94BE0500912C
:1022D000840E1091850E2AE0B701A601F7FE0CC00E
:1022E0006DE2C8010E94BE0544275527BA014C196A
:1022F0005D096E097F092AE0C8010E94680D21CF9F
:1023000065E572E0C8010E94AB2D892B39F065E4C8
:1023100072E0C8010E94AB2D892BD9F470E060E017
:1023200088EB96E00E94E30B70E060E080E696E0C8
:102330000E94E30B70E060E088E096E00E94E30B0F
:1023400060E082E00E9429041092130210921202AF
:10235000FACE68EA72E0C8010E94AB2D8C01892B8D
:1023600009F0F1CE80E00E94B40D8BE294E00E946F
:10237000C5058FE194E00E94C50581E194E00E94CB
:10238000C50585E094E00E94C50582EF93E00E94B8
:10239000C5050E944A0D30E2C32E37E0D32E48EB2C
:1023A000E42E4BE0F42E80E00E94B40D8CEE93E01E
:1023B0000E94C505C7010E94C90DB601CE01019654
:1023C0000E94210FCE0101960E94F305CE010196D5
:1023D0000E944C0F84EE93E00E94C505B601665F33
:1023E0007F4FCE0101960E94210FCE0101960E94DF
:1023F000F305CE0101960E944C0F0E944A0DFFEF9B
:10240000EF1AFF0A80E2C80ED11CAEEBEA16ABE071
:10241000FA0649F622EEE22E2AE0F22E80E00E9431
:10242000B40D8DED93E00E94C505C8010E94C90D51
:10243000B701CE0101960E94210FCE0101960E94A4
:10244000F305CE0101960E944C0F89ED93E00E94A6
:10245000C50580ED93E00E94C50587EC93E00E94DE
:10246000C5050E944A0D0F5F1F4FBAE0EB0EF11C2D
:102470000131110599F608E118E090EDE92E97E099
:10248000F92E80E00E94B40D81EC93E00E94C50516
:10249000C7010E94C90DB8016E5F7F4FCE01019642
:1024A0000E94210FCE0101960E94F305CE010196F4
:1024B0000E944C0FB801665F7F4FCE0101960E94CB
:1024C000210FCE0101960E94F305CE0101960E94D4
:1024D0004C0FB801605F7F4FCE0101960E94210F23
:1024E000CE0101960E94F305CE0101960E944C0F89
:1024F000F80180819181C69721F087EB93E00E94DB
:10250000C505D8018D919C91C69721F08CEA93E086
:102510000E94C505F801828D938D892B21F10688D3
:10252000F789E02D80818823F1F06FEA72E0CE0117
:1025300001960E943B0FB8016A5E7F4FCE01019663
:102540000E94B50EBC01CE0107960E94210FCE015C
:1025500007960E941606CE0107960E944C0FCE01E8
:1025600001960E944C0FD8018D919C91C69741F421
:1025700083EA93E00E94C50583E993E00E94C505C4
:102580000E944A0DBFEFEB1AFB0A045E1F4FE6EEF6
:10259000EE16E7E0FE0609F074CF00E81AE088EED8
:1025A000E82E83E0F82E80E00E94B40D8CE893E0E2
:1025B0000E94C505C7010E94C90DB801CE01019650
:1025C0000E94210FCE0101960E94F305CE010196D3
:1025D0000E944C0F84E893E00E94C50587E793E0D2
:1025E0000E94C505D80116966D917C91CE01079683
:1025F0000E94E90E64EB72E0CE0101960E943B0F4F
:10260000BE01695F7F4FCE0101960E94B50EBC01ED
:10261000CE010D960E94210FCE010D960E94160646
:10262000CE010D960E944C0FCE0101960E944C0FD8
:10263000CE0107960E944C0F81E793E00E94C505EA
:10264000F80160857185CE0107960E94E90E6CEB5A
:1026500072E0CE0101960E943B0FBE01695F7F4F81
:10266000CE0101960E94B50EBC01CE010D960E94CE
:10267000210FCE010D960E941606CE010D960E94E6
:102680004C0FCE0101960E944C0FCE0107960E947E
:102690004C0FD8011A966D917C91CE0107960E943D
:1026A000E90E63EC72E0CE0101960E943B0FBE0181
:1026B000695F7F4FCE0101960E94B50EBC01CE012D
:1026C0000D960E94210FCE010D960E941606CE0196
:1026D0000D960E944C0FCE0101960E944C0FCE0128
:1026E00007960E944C0F8EE593E00E94C5050E945C
:1026F0004A0DBFEFEB1AFB0A005F1F4FEEEEEE161E
:10270000E3E0FE0609F04FCF8091330C811108C041
:102710000E94B40D89E093E00E94C5050E944A0D15
:102720006BEC72E081E00E94200E65E273E081E0D4
:102730000E94200E66E873E081E00E94200E68EAA5
:1027400072E080E00E94200EFECCCF92DF92EF92EA
:10275000FF920F931F93CF93DF93CDB7DEB7A79769
:102760000FB6F894DEBF0FBECDBF6B017C010E9497
:10277000A42A8B01673E734038F120E040E262E01A
:1027800070E088EB96E00E94200920E040E261E0E2
:1027900070E088EB96E00E94200920E040E270E0C3
:1027A00060E088EB96E00E942009A7960FB6F894A7
:1027B000DEBF0FBECDBFDF91CF911F910F91FF9074
:1027C000EF90DF90CF90089520E030E0A901C7019D
:1027D000B6010E94DA2A18160CF090C020E030E012
:1027E00040E251E4C701B6010E94022787FF86C07C
:1027F000C701B6010E94DF2AA70196010E940227A5
:10280000882309F47BC01BA21AA21DA21CA21FA22E
:102810001EA220E030E048EC52E4C701B6010E945D
:1028200068279E012F5F3F4F7901890122E044E034
:102830000E94DE24009709F454C0FC01019000209E
:10284000E9F73197AF01481B590BBC01CE018296C5
:102850000E94C80EFF92EF9282ED93E09F938F93B8
:102860008BA18F938AA18F930E94BB2D29813A81DE
:10287000EAE0F0E0C901BF010E942B2B182FCB0129
:10288000BF010E942B2B082FC90164E670E00E9453
:102890002B2B7A8369830F900F900F900F900F90DE
:1028A0000F9021E0161617060CF5462F62E070E037
:1028B00088EB96E00E943E0920E0402F61E070E046
:1028C00088EB96E00E943E0920E0412F70E060E036
:1028D00088EB96E00E943E09CE0182960E944C0F42
:1028E00064CFCE0182960E948D0EB4CF40E262E0AA
:1028F00070E088EB96E00E942009DECFC8016AE014
:1029000070E00E942B2BF82E0436110544F1C8010B
:1029100064E670E00E942B2B462F20E062E070E01E
:1029200088EB96E00E943E092AE030E0C801B90138
:102930000E942B2BCB01B9010E942B2B20E0482FAA
:1029400061E070E088EB96E00E943E0920E04F2DA8
:1029500070E060E088EB96E00E943E0926CF20E020
:1029600040E262E070E088EB96E00E9420090A30C5
:102970001105D4F620E040E261E070E088EB96E0DB
:102980000E942009E3CF8F929F92AF92BF92CF9285
:10299000DF92EF92FF920E94970C4B015C010E9424
:1029A000970C0E94970C6B017C010E9448038823BE
:1029B00071F181E080937D0E80937E0E70E060E087
:1029C00080917F0E9091800E0E94FC242AEE821648
:1029D00023E09206A104B10409F479C0F4F428EECE
:1029E000821623E09206A104B104E1F129EE8216D9
:1029F00023E09206A104B10409F44FC0FF90EF90C8
:102A0000DF90CF90BF90AF909F908F9008951092DD
:102A10007E0E60E070E0CB01D9CF2CEE821623E071
:102A20009206A104B10409F489C00CF46BC02DEE28
:102A3000821623E09206A104B10401F722E0C21637
:102A4000D104E104F10409F094C00E94A42ACB014E
:102A5000FF90EF90DF90CF90BF90AF909F908F90BE
:102A60000C944D0B22E0C216D104E104F10469F488
:102A70000E94A42ACB01FF90EF90DF90CF90BF90EF
:102A8000AF909F908F900C94980BCD28CE28CF2894
:102A900009F0B4CF8FEF9FEFEECF22E0C216D10442
:102AA000E104F10451F4FF90EF90DF90CF90BF90DC
:102AB000AF909F908F900C94A513CD28CE28CF284F
:102AC00009F09CCF60E070E080E89FEBECCF22E063
:102AD000C216D104E104F10469F40E94A42ACB01D6
:102AE000FF90EF90DF90CF90BF90AF909F908F902E
:102AF0000C94020BCD28CE28CF2809F07FCF8FEF82
:102B00009FEFEECF22E0C216D104E104F10461F49C
:102B10000E94A42AFF90EF90DF90CF90BF90AF90DB
:102B20009F908F900C945D09CD28CE28CF2809F076
:102B300065CF61EF78ED8FEF9FEFECCF22E0C2160B
:102B4000D104E104F10469F40E94A42ACB01FF90AE
:102B5000EF90DF90CF90BF90AF909F908F900C94AC
:102B6000530ACD28CE28CF2809F048CF81EF98ED21
:102B7000EECFCD28CE28CF2809F040CF8FEF9FEFA2
:102B800067CF1F920F920FB60F9211242F933F938E
:102B90008F939F93AF93BF9380910006909101060E
:102BA000A0910206B09103063091FF0523E0230FA8
:102BB0002D3758F50196A11DB11D2093FF05809377
:102BC000000690930106A0930206B093030680913D
:102BD000040690910506A0910606B091070601969D
:102BE000A11DB11D8093040690930506A0930606CF
:102BF000B0930706BF91AF919F918F913F912F9115
:102C00000F900FBE0F901F90189526E8230F029685
:102C1000A11DB11DD2CF1F920F920FB60F9211249A
:102C20000BB60F922F933F934F935F936F937F93C6
:102C30008F939F93AF93BF93EF93FF93E0910E0217
:102C4000F0910F021995FF91EF91BF91AF919F9174
:102C50008F917F916F915F914F913F912F910F9045
:102C60000BBE0F900FBE0F901F9018951F920F92E2
:102C70000FB60F9211240BB60F922F933F934F93E1
:102C80005F936F937F938F939F93AF93BF93EF93D4
:102C9000FF93E0910C02F0910D021995FF91EF91D5
:102CA000BF91AF919F918F917F916F915F914F9164
:102CB0003F912F910F900BBE0F900FBE0F901F9062
:102CC00018951F920F920FB60F9211240BB60F9208
:102CD0002F933F934F935F936F937F938F939F9324
:102CE000AF93BF93EF93FF93E0910202F091030241
:102CF0001995FF91EF91BF91AF919F918F917F9126
:102D00006F915F914F913F912F910F900BBE0F905C
:102D10000FBE0F901F9018951F920F920FB60F9233
:102D200011240BB60F922F933F934F935F936F93A2
:102D30007F938F939F93AF93BF93EF93FF93E09114
:102D40000002F09101021995FF91EF91BF91AF91AF
:102D50009F918F917F916F915F914F913F912F91B3
:102D60000F900BBE0F900FBE0F901F9018951F92E3
:102D70000F920FB60F9211240BB60F922F933F9321
:102D80004F935F936F937F938F939F93AF93BF9373
:102D9000EF93FF93E0910A02F0910B021995FF91D6
:102DA000EF91BF91AF919F918F917F916F915F91C3
:102DB0004F913F912F910F900BBE0F900FBE0F9030
:102DC0001F9018951F920F920FB60F9211240BB6F9
:102DD0000F922F933F934F935F936F937F938F93B4
:102DE0009F93AF93BF93EF93FF93E0910802F0910D
:102DF00009021995FF91EF91BF91AF919F918F912A
:102E00007F916F915F914F913F912F910F900BBEEA
:102E10000F900FBE0F901F9018951F920F920FB634
:102E20000F9211240BB60F922F933F934F935F9302
:102E30006F937F938F939F93AF93BF93EF93FF9382
:102E4000E0910602F09107021995FF91EF91BF9171
:102E5000AF919F918F917F916F915F914F913F9132
:102E60002F910F900BBE0F900FBE0F901F901895D3
:102E70001F920F920FB60F9211240BB60F922F9341
:102E80003F934F935F936F937F938F939F93AF93F2
:102E9000BF93EF93FF93E0910402F091050219951F
:102EA000FF91EF91BF91AF919F918F917F916F9122
:102EB0005F914F913F912F910F900BBE0F900FBEDE
:102EC0000F901F9018951F920F920FB60F9211241A
:102ED0000BB60F922F933F934F935F936F937F9314
:102EE0008F939F93AF93BF93EF93FF9386E99BE0FC
:102EF0000E94AD06FF91EF91BF91AF919F918F918D
:102F00007F916F915F914F913F912F910F900BBEE9
:102F10000F900FBE0F901F9018951F920F920FB633
:102F20000F9211240BB60F922F938F939F93EF93D1
:102F3000FF93E091A60BF091A70B8081E091AC0B81
:102F4000F091AD0B82FD1DC090818091AF0B8F5F22
:102F50008F732091B00B821741F0E091AF0BF0E03E
:102F6000EA56F44F958F8093AF0BFF91EF919F91AD
:102F70008F912F910F900BBE0F900FBE0F901F904F
:102F800018958081F2CF2F923F924F925F926F926D
:102F90007F928F929F92AF92BF92CF92DF92EF92E9
:102FA000FF920F931F93CF93DF931092990B109280
:102FB000980B88EE93E0A0E0B0E080939A0B90939A
:102FC0009B0BA0939C0BB0939D0B8EE192E0909392
:102FD000970B8093960B85EC90E09093A30B8093D6
:102FE000A20B84EC90E09093A50B8093A40B80EC53
:102FF00090E09093A70B8093A60B81EC90E09093C8
:10300000A90B8093A80B82EC90E09093AB0B80937C
:10301000AA0B86EC90E09093AD0B8093AC0B1092D2
:10302000AF0B1092B00B1092B10B1092B20B10922A
:103030008A0E1092890E86E99BE09093850E80930C
:10304000840E10923B0C8CE28093870E8BE380936E
:10305000860E8FE28093880E80E48093360C8FE397
:103060008093370C1092350C1092800E10927F0EC8
:103070001092820E1092810E81E080937D0EEBE81B
:10308000FEE08FEE9EE0119211928E179F07D9F706
:1030900010923A0C65ED73E080E99BE00E943B0FD3
:1030A00066EF73E08AE89BE00E943B0F86E290E0C7
:1030B0009093E10A8093E00A6DE174E082EE9AE079
:1030C0000E943B0FCFEFDFEFD093E90AC093E80AED
:1030D0008CE290E09093EB0A8093EA0A68E274E055
:1030E0008CEE9AE00E943B0FD093F30AC093F20A51
:1030F0008DE290E09093F50A8093F40A6FE274E019
:1031000086EF9AE00E943B0FD093FD0AC093FC0A21
:103110008DE390E09093FF0A8093FE0A69E374E0E8
:1031200080E09BE00E943B0FD093070BC093060BFF
:1031300008E210E01093090B0093080B62E474E0BE
:103140008AE09BE00E943B0FD093110BC093100BC1
:1031500089E290E09093130B8093120B6DE474E07E
:1031600084E19BE00E943B0FD0931B0BC0931A0B92
:1031700088E390E090931D0B80931C0B65E574E051
:103180008EE19BE00E943B0FD093250BC093240B54
:1031900089E390E09093270B8093260B6EE574E013
:1031A00088E29BE00E943B0FD0932F0BC0932E0B25
:1031B00083E490E09093310B8093300B69E674E0E8
:1031C00082E39BE00E943B0FD093390BC093380BF6
:1031D00085E190E090933B0B80933A0B61E774E0BC
:1031E0008CE39BE00E943B0FD093430BC093420BB8
:1031F00087E190E09093450B8093440B6CE774E07B
:1032000086E49BE00E943B0FD0934D0BC0934C0B88
:1032100085E0C82ED12CD0924F0BC0924E0B63E8A4
:1032200074E080E59BE00E943B0FD093570BC09366
:10323000560B86E090E09093590B8093580B6CE806
:1032400074E08AE59BE00E943B0FD093610BC09332
:10325000600B8AE090E09093630B8093620B65E9CA
:1032600074E084E69BE00E943B0FD0936B0BC0930D
:103270006A0B88E090E090936D0B80936C0B6EE985
:1032800074E08EE69BE00E943B0FD093750BC093D9
:10329000740B88E190E09093770B8093760B67EA4C
:1032A00074E088E79BE00E943B0FD0937F0BC093B4
:1032B0007E0B8FE390E09093810B8093800B63EB08
:1032C00074E082E89BE00E943B0FD093890BC0938F
:1032D000880B6AEB74E080E89AE00E943B0F93E071
:1032E000E92EF12CF092870AE092860A22E4222E3F
:1032F000312C3092890A2092880A10938B0A00930D
:103300008A0A88248A94982C540180928C0A90927C
:103310008D0AA0928E0AB0928F0A67EC74E080E961
:103320009AE00E943B0F84E090E09093970A80938C
:10333000960A89E590E09093990A8093980A1093F1
:103340009B0A00939A0A80929C0A90929D0AA092EE
:103350009E0AB0929F0A64ED74E080EA9AE00E94AF
:103360003B0FF092A70AE092A60A3092A90A209297
:10337000A80A1093AB0A0093AA0A8092AC0A909212
:10338000AD0AA092AE0AB092AF0A6DED74E080EB88
:103390009AE00E943B0FD092B70AC092B60A8EE61E
:1033A00090E09093B90A8093B80A1093BB0A0093F7
:1033B000BA0A40EF442E48ED542E66246A94762CC7
:1033C0004092BC0A5092BD0A6092BE0A7092BF0A37
:1033D00066EE74E080EC9AE00E943B0FD092C70A40
:1033E000C092C60A8EE690E09093C90A8093C80AFC
:1033F0001093CB0A0093CA0A4092CC0A5092CD0A8D
:103400006092CE0A7092CF0A6EEE74E080ED9AE080
:103410000E943B0FF092D70AE092D60A3092D90A66
:103420002092D80A1093DB0A0093DA0A8092DC0A11
:103430009092DD0AA092DE0AB092DF0A82E390E069
:1034400090931908809318086CEF74E08AE198E073
:103450000E943B0FD0932108C093200861E972E0DD
:1034600082E298E00E943B0F6EE272E088E298E010
:103470000E943B0F6DE174E08EE298E00E943B0FEA
:103480008EE390E0909335088093340863E075E014
:1034900086E398E00E943B0FD0933D08C0933C0820
:1034A00061E972E08EE398E00E943B0F6EE272E009
:1034B00084E498E00E943B0F63EB74E08AE498E0B8
:1034C0000E943B0F81E390E0909351088093500855
:1034D00066E075E082E598E00E943B0FD0935908C2
:1034E000C09358086EE075E08AE598E00E943B0FB3
:1034F00069E075E080E698E00E943B0F68E274E0C6
:1035000086E698E00E943B0F8AE290E090936D0877
:1035100080936C0869E175E08EE698E00E943B0FAD
:10352000D0937508C09374086EE075E086E798E064
:103530000E943B0F69E075E08CE798E00E943B0F2A
:103540006FE274E082E898E00E943B0F80E490E034
:1035500090938908809388086FE175E08AE898E085
:103560000E943B0FD0939108C09390086EE075E0E5
:1035700082E998E00E943B0F69E075E088E998E0F5
:103580000E943B0F6EE272E08EE998E00E943B0FD2
:103590008BE390E09093A5088093A40862E275E025
:1035A00086EA98E00E943B0FD093AD08C093AC0828
:1035B0006EE075E08EEA98E00E943B0F69E075E0EE
:1035C00084EB98E00E943B0F6EE272E08AEB98E099
:1035D0000E943B0F8CE390E09093C1088093C00859
:1035E0006AE275E082EC98E00E943B0FD093C90834
:1035F000C093C8086EE075E08AEC98E00E943B0F2B
:1036000069E075E080ED98E00E943B0F69E374E0AB
:1036100086ED98E00E943B0F8BE290E09093DD08EE
:103620008093DC086FE275E08EED98E00E943B0F1E
:10363000D093E508C093E4086EE075E086EE98E06C
:103640000E943B0F69E075E08CEE98E00E943B0F12
:1036500062E474E082EF98E00E943B0F83E390E025
:103660009093F9088093F80866E375E08AEF98E094
:103670000E943B0FD0930109C09300096EE075E0F2
:1036800082E099E00E943B0F69E075E088E099E0F4
:103690000E943B0F6DE474E08EE099E00E943B0FC6
:1036A00087E390E090931509809314096AE375E02D
:1036B00086E199E00E943B0FD0931D09C0931C093D
:1036C0006EE075E08EE199E00E943B0F69E075E0E5
:1036D00084E299E00E943B0F65E574E08AE299E09C
:1036E0000E943B0F8AE390E0909331098093300968
:1036F0006FE375E082E399E00E943B0FD0933909B4
:10370000C09338096EE075E08AE399E00E943B0FB0
:1037100069E075E080E499E00E943B0F6EE574E09B
:1037200086E499E00E943B0F85E490E090934D0978
:1037300080934C0966E475E08EE499E00E943B0FAB
:10374000D0935509C09354096EE075E086E599E081
:103750000E943B0F69E075E08CE599E00E943B0F09
:1037600069E674E082E699E00E943B0F84E190E014
:1037700090936909809368096AE475E08AE699E0A4
:103780000E943B0FD0937109C09370096EE075E001
:1037900082E799E00E943B0F69E075E088E799E0D5
:1037A0000E943B0F61E774E08EE799E00E943B0FB7
:1037B00087E090E0909385098093840961E575E046
:1037C00086E899E00E943B0FD0938D09C0938C0945
:1037D0006EE075E08EE899E00E943B0F69E075E0CD
:1037E00084E999E00E943B0F6EE272E08AE999E079
:1037F0000E943B0F86E190E09093A1098093A0097D
:1038000069E575E082EA99E00E943B0FD093A9092F
:10381000C093A8096EE075E08AEA99E00E943B0F28
:1038200069E075E080EB99E00E943B0F6CE774E083
:1038300086EB99E00E943B0FF092BD09E092BC0933
:103840006CE575E08EEB99E00E943B0FD093C509C3
:10385000C093C4096EE075E086EC99E00E943B0FCE
:1038600069E075E08CEC99E00E943B0F63E874E03E
:1038700082ED99E00E943B0F84E090E09093D9099B
:103880008093D80961E675E08AED99E00E943B0FCC
:10389000D093E109C093E0096EE075E082EE99E013
:1038A0000E943B0F69E075E088EE99E00E943B0FB3
:1038B0006CE874E08EEE99E00E943B0F8BE090E0A4
:1038C0009093F5098093F40966E675E086EF99E038
:1038D0000E943B0FD093FD09C093FC096EE075E098
:1038E0008EEF99E00E943B0F69E075E084E09AE07A
:1038F0000E943B0F65E974E08AE09AE00E943B0F6A
:1039000089E090E09093110A8093100A6BE675E0CD
:1039100082E19AE00E943B0FD093190AC093180AE3
:103920006EE075E08AE19AE00E943B0F69E075E085
:1039300080E29AE00E943B0F6EE974E086E29AE032
:103940000E943B0F89E190E090932D0A80932C0A0E
:1039500060E775E08EE29AE00E943B0FD093350A53
:10396000C093340A61E972E086E39AE00E943B0F5B
:103970006EE272E08CE39AE00E943B0F6EE272E02E
:1039800082E49AE00E943B0F8BE190E09093490A19
:103990008093480A6AE775E08AE49AE00E943B0F48
:1039A000D093510AC093500A61E972E082E59AE02F
:1039B0000E943B0F6EE272E088E59AE00E943B0FA6
:1039C00067EA74E08EE59AE00E943B0F86E390E0A0
:1039D0009093650A8093640A62E875E086E69AE04F
:1039E0000E943B0FD0936D0AC0936C0A6EE075E0A5
:1039F0008EE69AE00E943B0F69E075E084E79AE06A
:103A00000E943B0F6EE272E08AE79AE00E943B0F51
:103A100045E364E38CE098E00E94370847E265E202
:103A200080E098E00E94370841E260E284EF97E08E
:103A30000E9437084FE06EE088EE97E00E9437085A
:103A40004CE06DE08CED97E00E9437084DE16AE1B3
:103A500080ED97E00E9437088CE0ECE0F8E0A0E110
:103A6000B7E001900D928A95E1F784E390E090939E
:103A70001D0780931C0785E390E090931F078093B8
:103A80001E0767E875E080E297E00E943B0F59E16E
:103A9000C52E5CEFD52EEE24EA94FE2CC0922607AC
:103AA000D0922707E0922807F092290763E975E092
:103AB0008AE297E00E943B0F8CE0E0E0F8E0A0E3B0
:103AC000B7E001900D928A95E1F785E290E090933E
:103AD0003D0780933C0787E290E090933F078093F7
:103AE0003E0760EA75E080E497E00E943B0FC092D9
:103AF0004607D0924707E0924807F092490763E9EA
:103B000075E08AE497E00E943B0F8CE0E4EFF7E079
:103B1000A0E5B7E001900D928A95E1F780E290E090
:103B200090935D0780935C0781E290E090935F073C
:103B300080935E076CEA75E080E697E00E943B0F99
:103B4000C0926607D0926707E0926807F092690713
:103B500063E975E08AE697E00E943B0F8CE0E8EEAF
:103B6000F7E0A0E7B7E001900D928A95E1F78EE0CB
:103B700090E090937D0780937C078FE090E0909396
:103B80007F0780937E0764EB75E080E897E00E94F2
:103B90003B0FC0928607D0928707E0928807F09289
:103BA000890763E975E08AE897E00E943B0F8CE0A3
:103BB000ECEDF7E0A0E9B7E001900D928A95E1F70E
:103BC0008DE090E090939D0780939C078CE090E0BF
:103BD00090939F0780939E076CEB75E080EA97E0D7
:103BE0000E943B0FC092A607D092A707E092A807B9
:103BF000F092A90763E975E08AEA97E00E943B0F1B
:103C00008CE0E0EDF7E0A0EBB7E001900D928A9533
:103C1000E1F78AE190E09093BD078093BC078DE1C6
:103C200090E09093BF078093BE0763EC75E080EC53
:103C300097E00E943B0FC092C607D092C707E09260
:103C4000C807F092C90763E975E08AEC97E00E9423
:103C50003B0F2FE230E040E350E06EE270E088EB93
:103C600096E00E94120C24E230E043E250E062E26F
:103C700070E080E696E00E94120C2EE130E04CE10C
:103C800050E06FE170E088E096E0DF91CF911F9106
:103C90000F91FF90EF90DF90CF90BF90AF909F90EB
:103CA0008F907F906F905F904F903F902F900C94EB
:103CB000120CCF93DF93CDB7DEB762970FB6F894AF
:103CC000DEBF0FBECDBF789484B5826084BD84B55D
:103CD000816084BD85B5826085BD85B5816085BD07
:103CE00080916E00816080936E00109281008091BF
:103CF0008100826080938100809181008160809347
:103D00008100809180008160809380008091B1006B
:103D100084608093B1008091B00081608093B00096
:103D200080919100826080939100809191008160E8
:103D300080939100809190008160809390008091A9
:103D4000A10082608093A1008091A1008160809396
:103D5000A1008091A00081608093A000809121014A
:103D600082608093210180912101816080932101F3
:103D70008091200181608093200180917A0084608D
:103D800080937A0080917A00826080937A0080919B
:103D90007A00816080937A0080917A0080688093B5
:103DA0007A001092C1000E94B1056093F7057093EC
:103DB000F8058093F9059093FA056093FB057093DD
:103DC000FC058093FD059093FE0560E8E62E6AE011
:103DD000F62E08E118E062E0D8018C910E945704A9
:103DE000045E1F4FE016F106B1F700EE1AE061E045
:103DF000F80180810E94570461E0D8018C910E94F3
:103E0000290462E370E080E090E00E947F0560E0BA
:103E1000F80180810E942904065F1F4FFBE00A38E9
:103E20001F0729F761E082E00E94570460911202A7
:103E300082E00E94290480910E0790910F071816C6
:103E4000190644F421E04CE070E060E088EB96E075
:103E50000E9492088091B6069091B706181619062E
:103E600044F421E04CE070E060E080E696E00E94DF
:103E7000920880915E0690915F061816190644F428
:103E800021E04CE070E060E088E096E00E9492085B
:103E9000E0901002F0901102B70188EB96E00E94CA
:103EA0000E09B70180E696E00E940E09B70188E08E
:103EB00096E00E940E0988E793E00E94980B88E73D
:103EC00093E00E944D0B60E070E08EE594E40E9468
:103ED000A51388E793E00E94020B88E49DED0E9401
:103EE000530A68E37BE581E090E00E945D0964EF9E
:103EF00071E080E090E00E947F0570E060E088EB78
:103F000096E00E94E30B70E060E080E696E00E949D
:103F1000E30B70E060E088E096E00E94E30BE09144
:103F2000A60BF091A70B82E08083E091A20BF091A9
:103F3000A30B1082E091A40BF091A50B80E180838C
:103F40001092AE0BE091AA0BF091AB0B86E0808350
:103F5000E091A80BF091A90B808180618083E091B2
:103F6000A80BF091A90B808188608083E091A80B59
:103F7000F091A90B808180688083E091A80BF0917B
:103F8000A90B80818F7D808360ED75E083E00E94C6
:103F9000200E85E390E190938C0E80938B0E8FE73B
:103FA0009FE09093900E80938F0E84E39EE0909319
:103FB000920E8093910E8CEA9CE09093960E8093E3
:103FC000950E80EB9CE09093980E8093970E83EC77
:103FD00094E190939A0E8093990E87ED9CE09093D4
:103FE000A20E8093A10E8DEF9CE09093A40E80937F
:103FF000A30E88E19DE09093A60E8093A50E222447
:104000002A94312C50E8452E512C30E1E32E37E034
:10401000F32ED12CC12CD7011B968C91823008F045
:1040200065C0F894C7010E94D107F7018781908588
:10403000A185B285789422E0B595A7959795879547
:104040002A95D1F746895789608D718D4817590790
:104050006A077B070CF0A2C3868B978BA08FB18F6A
:104060008091F605882349F1B6016854744FCE015A
:104070000D960E94E90EBE01635F7F4FCE01079649
:104080000E94210F68E972E0CE0107960E949F0E00
:10409000BC01CE0101960E94210FCE0101960E9423
:1040A0000910CE0101960E944C0FCE0107960E9486
:1040B0004C0FCE010D960E944C0FF4E0CF16D104A8
:1040C00009F030C380E40E940004892B09F028C461
:1040D000809112029091130240968F3F910509F052
:1040E0003CF4909313028093120206C0F8949DCF83
:1040F0003092130220921202A0901202B09013028A
:10410000C5010E9488048091F605882309F408C43B
:10411000B501CE0101960E94E90EBE016F5F7F4F8F
:104120008CE00E94540FCE0101960E944C0F8FEF3D
:10413000C81AD80A90E2E90EF11CA6E0CA16D1040A
:1041400009F069CF0E94B105C090FB05D090FC0535
:10415000E090FD05F090FE056C197D098E099F0920
:10416000653671058105910508F404C28091F60554
:10417000882309F44EC078E1C72E78E0D72EE0ED11
:10418000EE2EE7E0FE2EF60180810E9400045C0125
:10419000D60118968D919C91A816B90671F1A114BB
:1041A000B10409F05FC3B701CE0101960E94E90E88
:1041B000BE016F5F7F4FCE0107960E94210F68E915
:1041C00072E0CE0107960E949F0EBC01CE010D96B3
:1041D0000E94210FCE010D960E940910CE010D966E
:1041E0000E944C0FCE0107960E944C0FCE01019603
:1041F0000E944C0FF601B186A086FCE1CF0ED11CC7
:104200002FEFE21AF20A86EEE81687E0F80609F0C8
:10421000BACF81E30E940004892B51F58AE20E9403
:104220000004892B29F565E0E62EF12C61E08CE293
:104230000E94290461E08DE20E94290464E670E096
:1042400080E090E00E947F0560E08CE20E942904FB
:1042500060E08DE20E94290464E670E080E090E076
:104260000E947F0591E0E91AF10801F70C94000023
:1042700080E40E940004892B09F0E3C084E00E94DE
:104280000004892B09F0DDC088E793E00E94980BB9
:1042900080910E0790910F07181619065CF4A5E09F
:1042A000A093CA0625E043E070E060E088EB96E06A
:1042B0000E94920820E040E361E070E088EB96E025
:1042C0000E94200920E047E370E060E088EB96E080
:1042D0000E94200920E046E467E070E080E696E076
:1042E0000E9420098091B6069091B706181619060B
:1042F0005CF48DE1809376062DE147E070E060E0AC
:1043000080E696E00E9492088091B6069091B706EA
:10431000181619065CF4B5E0B093750625E046E082
:1043200070E060E080E696E00E94920820E045E3BD
:1043300064E070E080E696E00E94200920E040E51D
:1043400063E070E080E696E00E94200920E041E40E
:1043500062E070E080E696E00E94200920E044E4FC
:1043600061E070E080E696E00E94200920E040E2F3
:1043700070E060E080E696E00E94200920E041E3E2
:1043800067E070E088E096E00E94200920E04CE4BD
:1043900066E070E088E096E00E94200920E042E3B9
:1043A00065E070E088E096E00E94200920E040E5AA
:1043B00064E070E088E096E00E94200920E040E29E
:1043C00063E070E088E096E00E94200988E793E0CF
:1043D0000E944D0B50EEE52E5AE0F52E61E0F701FC
:1043E00080810E94290468E270E080E090E00E94F1
:1043F0007F05FAE0EF0EF11C0E151F0579F768EB4B
:104400007BE080E090E00E947F0588E793E00E94D7
:10441000980B88E793E00E944D0B60E070E08EE51A
:1044200094E40E94A51388E793E00E94020B88E4BD
:104430009DED0E94530A68E37BE581E090E00E94D5
:104440005D0980E40E940004892B91F589E00E94B7
:104450000004892B69F570E060E088EB96E00E942B
:10446000E30B70E060E080E696E00E94E30B70E012
:1044700060E088E096E00E94E30B40EEE42E4AE024
:10448000F42E60E0D7018C910E94290468E270E06C
:1044900080E090E00E947F05BAE0EB0EF11C0E1563
:1044A0001F0579F764EF71E080E090E00E947F05DE
:1044B00080E40E940004892B39F583E00E94000407
:1044C000892B11F5509213024092120280E890E07D
:1044D0000E9488048091F605882381F060E870E0EE
:1044E000CE0101960E94E90EBE016F5F7F4F8CE006
:1044F0000E94540FCE0101960E944C0F64EF71E0B0
:1045000080E090E00E947F0580E40E940004892BF7
:1045100039F58BE00E940004892B11F510921302EB
:104520001092120290E080E00E9488048091F605CB
:10453000882381F070E060E0CE0101960E94E90ED0
:10454000BE016F5F7F4F8CE00E94540FCE01019639
:104550000E944C0F64EF71E080E090E00E947F05C4
:104560000E94B1056093FB057093FC058093FD05E7
:104570009093FE050E94B105C090F705D090F80514
:10458000E090F905F090FA056C197D098E099F09F4
:10459000613E73498440910510F170E060E088EB62
:1045A00096E00E94E30B70E060E080E696E00E94F7
:1045B000E30B70E060E088E096E00E94E30B0E946D
:1045C0006D0760E082E00E9429040E94B1056093BB
:1045D000F7057093F8058093F9059093FA0580919B
:1045E0003A0C811193C18091840E9091850EDC016B
:1045F000ED91FC910084F185E02D1995892B09F44A
:1046000085C18091840E9091850EDC01ED91FC9125
:104610000084F185E02D1995A12C32E0B32E81158F
:10462000924064F48091840E9091850EDC01ED91AE
:10463000FC910084F185E02D19955C01E090840ED9
:10464000F090850E2CE7822E2CE0922E3401D12C96
:10465000C12CAC14BD0409F019C1F12CE12CAE142D
:10466000BF0409F4BCCFD4019D914D0110927C0E82
:104670003091880E2091390C9093390C931304C01B
:10468000921302C01092390C8091350CE82FF0E0A3
:104690004091860EED5CF34F94131EC1321709F45E
:1046A0001BC11186882329F0B1E0B0937C0E1092D3
:1046B000390C1092350C1092800E10927F0E1092D1
:1046C000820E1092810EE1E0E0937D0ED0907C0E80
:1046D000F1E0DF1217C10E944803882309F406C1E4
:1046E000D0927D0ED0927E0E80917F0E9091800EA2
:1046F0000E945A268093340C823308F0FCC020912B
:104700007E0E222309F4F7C0FC01FF27EE0FFF1FE6
:10471000E557F14F0190F081E02D309709F4EBC09F
:104720001995F0C025E0C216D10409F000CD80E44F
:104730000E940004892B09F005CD80911002909110
:10474000110201968031910534F590931102809306
:104750001002A0901002B0901102B50188EB96E013
:104760000E940E09B50180E696E00E940E09B5018F
:1047700088E096E00E940E098091F605882309F4EE
:10478000E1CCB501CE0101960E94E90EBE016F5F3A
:104790007F4F8BE0C6CC8FE090E0D7CF8417950792
:1047A000A607B7070CF0C3CC868B978BA08FB18F71
:1047B0008091F605882349F1B6016854744FCE0103
:1047C0000D960E94E90EBE01635F7F4FCE010796F2
:1047D0000E94210F65EE75E0CE0107960E949F0EA4
:1047E000BC01CE0101960E94210FCE0101960E94CC
:1047F0000910CE0101960E944C0FCE0107960E942F
:104800004C0FCE010D960E944C0FF4E0CF16D10450
:1048100091F480E40E940004892B09F081C080910A
:10482000120290911302409797FF5BCC10921302F3
:104830001092120261CC25E0C216D10409F077CCA7
:1048400080E40E940004892B09F07CCC8091100246
:1048500090911102019797FF78CF10921102109258
:10486000100277CFB1E0AB16B10409F0C3CCB701A9
:10487000CE0101960E94E90EBE016F5F7F4FCE010F
:1048800007960E94210F6BE972E09BCC0E94B10554
:10489000F7016087718782879387D701ED91FC913B
:1048A0000284F385E02DC701199597FF32C00E945D
:1048B000B105F7012085318542855385621B730B55
:1048C000840B950B248135814681578162177307CC
:1048D0008407950710F3C1CE91878F5F8093350CC5
:1048E0009091370C891708F0E4CEF0CE10927E0E2E
:1048F00090E080E0FFCEE091890EF0918A0E309733
:1049000009F00ECF2FEFE21AF20AA9CE0E943C075F
:104910007CCBD3018D933D01BFEFCB1ADB0A99CE3F
:1049200085E0C82ED12CE0E2EE0EF11C74CBCF93C3
:10493000DF93C0EDD7E0A097CE014A960E944C0FBE
:10494000CE0140960E944C0F87E0C031D80799F7FE
:10495000C0E8DAE06C97CE0146960E944C0FCE017B
:1049600040960E944C0FCE010A960E944C0FCE0139
:1049700002960E944C0F88E0C831D80759F7C0EE64
:10498000DAE06097CE010E944C0F8AE0C038D80769
:10499000C1F7CAE8DBE02A97CE0102960E944C0FCD
:1049A0008AE0C03ED807B9F78AE89BE00E944C0F26
:1049B00080E99BE0DF91CF910C944C0FEF920F9325
:1049C0001F93CF93DF93E80134E047FD34E1042ED9
:1049D000000C550B57FF03C0519541955109E32E2B
:1049E000022F242FAE010E94D527CE01DF91CF9157
:1049F0001F910F91EF9008958F929F92AF92BF9267
:104A0000CF92DF92EF92FF920F931F93CF93DF939A
:104A10005C017B016115710519F0DB018D939C939D
:104A200085010F5F1F4FF501D0818D2F90E00E940F
:104A30009F266C01892BB9F5DD32B9F50F5F1F4F49
:104A4000D5011196DC91C1E05801F1E0AF1AB1082F
:104A500043E050E060ED71E0C5010E94A826892B7B
:104A600069F5680182E0C80ED11C45E050E06BECAE
:104A700071E0C6010E94A826892B21F4680197E005
:104A8000C90ED11CE114F10419F0D701CD92DC92CA
:104A900060E070E080E89FEFC111FFC060E070E06F
:104AA00080E89FE7FAC05801BBCFDB3229F48501CB
:104AB0000E5F1F4FF501D181C0E0C6CF43E050E04B
:104AC00068EC71E0C5010E94A826892BE9F0F80185
:104AD00010E000E020E030E0A9015F01B0ED8B2E96
:104AE0008D0E89E08815C8F19C2E689491F88C2F62
:104AF0008870C2FF16C0811102C00F5F1F4F319630
:104B0000D501DC91C92DE9CFE114F10429F00E5F44
:104B10001F4FF7011183008360E070E080EC9FE796
:104B2000BCC0882311F001501109A5E0B0E00E943B
:104B30008A2A9B01AC01220F331F441F551F280DE9
:104B4000311D411D511D283999E93907490799E15E
:104B50005907A8F2C6609C2ED2CFAEEF8A1206C0CB
:104B6000C3FD3CC09C2E689493F8C9CFDF7DD5343B
:104B7000A9F580818D3239F4C061DF0112968181FF
:104B800062E070E006C0DF018B32C1F3119661E094
:104B900070E080535D01A61AB70A8A30F8F4E0E8A5
:104BA000CE16ECE0DE065CF4B601660F771F660FEA
:104BB000771FC60ED71ECC0CDD1CC80ED11C5D01A4
:104BC000FFEFAF1ABF0A8C9180538A30A8F1C4FF5F
:104BD00003C0D194C194D1080C0D1D1DC1FF09C0A3
:104BE000E114F10431F081E0A81AB108D701AD92C7
:104BF000BC92CA01B9010E940727C370C33009F4EF
:104C000090584B015C0120E030E0A9010E9402278E
:104C1000882309F440C0CFEFD1E017FF05C01195FC
:104C200001951109C7EED1E06E01B8E1CB1AD108A8
:104C300080E2E82EF12C0FC0D501B1CFFE01259105
:104C40003591459154910E191F09C501B4010E9477
:104C500068274B015C01D501C4010E151F0574F7CF
:104C60002497F594E794CC16DD06A9F78A2F880FD0
:104C70008B2F881F8F3F49F020E030E0A901C5014C
:104C8000B4010E940227811106C082E290E0909355
:104C9000F00E8093EF0EC501B401DF91CF911F910B
:104CA0000F91FF90EF90DF90CF90BF90AF909F90CB
:104CB0008F900895FC0188279927E894219120324C
:104CC000E9F3293010F02E30C8F32B3241F02D32A9
:104CD00039F4689404C00E94E026820F911D21914E
:104CE00020532A30C0F31EF4909581959F4F08956C
:104CF0001F93FC0199278827BC01E8941191103279
:104D0000E9F3193010F01E30C8F31B3251F01D3298
:104D100049F4689406C00E94CB26610F711D811D65
:104D2000911D119110531A30B0F33EF49095809577
:104D3000709561957F4F8F4F9F4F1F9108959111EF
:104D40000C94262A803219F089508550C8F70895AE
:104D5000FB01DC014150504088F08D9181341CF002
:104D60008B350CF4805E659161341CF06B350CF46E
:104D7000605E861B611171F3990B0895881BFCCF4F
:104D8000BB274A3031F4992322F4BDE290958195F6
:104D90009F4F0C94E926592F482F372F262F660F47
:104DA000771F881F991F660F771F881F991F620F33
:104DB000731F841F951F660F771F881F991F089503
:104DC0007AE0979F902D879F802D910D1124089553
:104DD000BB27FB015527AA27880F991FAA1FA417D5
:104DE00010F0A41B83955051B9F7A05DAA3308F0C9
:104DF000A95DA193009779F7B111B1931192CB01FD
:104E00000C94292A0E94442708F481E00895E8942C
:104E100009C097FB3EF490958095709561957F4F02
:104E20008F4F9F4F9923A9F0F92F96E9BB279395B0
:104E3000F695879577956795B795F111F8CFFAF4C0
:104E4000BB0F11F460FF1BC06F5F7F4F8F4F9F4FF1
:104E500016C0882311F096E911C0772321F09EE84F
:104E6000872F762F05C0662371F096E8862F70E0B5
:104E700060E02AF09A95660F771F881FDAF7880F8F
:104E80009695879597F90895990F0008550FAA0BE5
:104E9000E0E8FEEF16161706E807F907C0F012164D
:104EA0001306E407F50798F0621B730B840B950B50
:104EB00039F40A2661F0232B242B252B21F40895A5
:104EC0000A2609F4A140A6958FEF811D811D089542
:104ED0000E947B270C94502A0E94422A38F00E949C
:104EE000492A20F0952311F00C94392A0C943F2A7A
:104EF00011240C94842A0E94612A70F3959FC1F3B7
:104F0000950F50E0551F629FF001729FBB27F00D77
:104F1000B11D639FAA27F00DB11DAA1F649F6627CC
:104F2000B00DA11D661F829F2227B00DA11D621F1B
:104F3000739FB00DA11D621F839FA00D611D221FD5
:104F4000749F3327A00D611D231F849F600D211DB9
:104F5000822F762F6A2F11249F5750409AF0F1F03C
:104F600088234AF0EE0FFF1FBB1F661F771F881FA5
:104F700091505040A9F79E3F510580F00C94392A7A
:104F80000C94842A5F3FE4F3983ED4F3869577959A
:104F90006795B795F795E7959F5FC1F7FE2B880F4B
:104FA000911D9695879597F908958F929F92AF924C
:104FB000BF92CF92DF92EF92FF920F931F93CF9306
:104FC000DF9300D000D000D0CDB7DEB76A01F22E5B
:104FD000B02E102FFBE3AF2EA01608F41BE31F5FCB
:104FE000012F27E0AE014F5F5F4F0E944E29BC01A9
:104FF0008981982F9970913009F44EC09BE2E1FCB1
:1050000004C09E2D9170E0FC49C05E2D5071E82FC8
:10501000E87083FF55C084E0911101C083E0EF2D5B
:10502000E81B8F1508F0E0E0D6018E2F20E2552313
:10503000C9F1992329F0D6019C93C60101966C0110
:1050400096012D5F3F4FE2FE33C08EE4D6018C9374
:1050500091E411969C93119712968C93D9018E2FFF
:1050600090E281112AC0E20FF32FF11D10828EEF22
:105070009FEF29960FB6F894DEBF0FBECDBFDF912C
:10508000CF911F910F91FF90EF90DF90CF90BF9045
:10509000AF909F908F9008959DE2B7CF90E2B5CFEB
:1050A0002D9381508111FCCFCE0ED11CE0E0C1CFF9
:1050B0008EE6D6018C9391E6CCCF9D938150D1CFD3
:1050C000482F447082FF3DC084E0911101C083E00D
:1050D0008F1510F4EF2DE81BD6018E2F20E25523FB
:1050E00009F1992329F0D6019C93C60101966C0120
:1050F00096012D5F3F4FE2FE1BC089E4D6018C93E1
:105100008EE411968C93119786E412968C93D901B4
:105110008E2F90E2882309F4A6CF9D938150FACF79
:105120002D9381508111FCCFCE0ED11CE0E0D9CF60
:1051300089E6D6018C938EE611968C93119786E6BC
:10514000E4CF9B0177FF02C030E020E0A1E0B0E0B7
:10515000911102C0B0E0A0E0F9013196AE0FBF1F7F
:105160008B2C912CBB2009F461C05401EFEFAE1AD7
:10517000BE0AAA0DBB1DFA161B0619F014F04F2D1E
:105180004A1B511188C0E3FC59C07601A42FB0E23C
:10519000A1114FC0C40ED11C992309F45BC040E09B
:1051A000D6011196F60190836D01552309F448C08C
:1051B000012F060F9A81582F507184FF03C091333D
:1051C00009F4015010160CF047C0093008F008E04F
:1051D000EEE2FE2E5B01A01AB10885019194819444
:1051E00091082F3F320729F4D601FC92F60131963F
:1051F0006F016217730794F1021713077CF5DB0147
:10520000A21BB30BAA24A394B12CAC0EBD1EAA0DF5
:10521000BB1D11968C9121503109D601119628158C
:105220003905F4F0F60180836D01DBCFB12CA12CA0
:10523000A0CFF701B1937F01A150AACF9111B0CFB8
:10524000D601942F50E302C05D9391509111FCCF91
:10525000C40ED11C40E0ACCF01E0BACF80E3DBCF7D
:105260006217730731F4963388F4953311F455239C
:1052700069F0F6018083FD01842F90E2811108C05E
:10528000A40FB11D1C9290E080E0F3CE81E3F1CF3A
:1052900091938150F3CF911183CF8ACF283008F0BA
:1052A00027E03327DA01990F311D87FD91600096C1
:1052B0006105710539F432602E5F3D9330E32A9524
:1052C000E1F708959F3F30F080387105610509F0DE
:1052D0003C5F3C5F3D93913008F08068911DDF9307
:1052E000CF931F930F93FF92EF92192F987F96956C
:1052F000E92F96959695E90FFF27E35AFD4F9927D9
:105300003327EE24FF24A701E701059008940794B2
:1053100028F4360FE71EF81E491F511D660F771F30
:10532000881F991F0694A1F70590079428F4E70EAB
:10533000F81E491F561FC11D770F881F991F661F32
:105340000694A1F70590079428F4F80E491F561FFC
:10535000C71FD11D880F991F661F771F0694A1F7DD
:105360000590079420F4490F561FC71FD81F990FA7
:10537000661F771F881F0694A9F7849110951770F0
:1053800041F0D695C79557954795F794E7941A95A8
:10539000C1F7E3E0F2E068941590159135916591BD
:1053A000959105907FE27395E118F10A430B560B36
:1053B000C90BD009C0F7E10CF11E431F561FC91FCE
:1053C000D01D7EF4703311F48A95E6CFE894015035
:1053D00030F0080F0AF40027021708F4202F239555
:1053E000022F7A3328F079E37D932A95E9F710C0EC
:1053F0007D932A9589F60694979567953795179525
:105400001794E118F10A430B560BC90BD00998F019
:1054100023957E9173957A3308F070E37C93201383
:10542000B8F77E9170617D9330F0839571E37D9341
:1054300070E32A95E1F71124EF90FF900F911F91EF
:10544000CF91DF91992787FD909508959927882717
:105450000895DC01FC01672F71917723E1F7329702
:1054600004C07C916D9370836291AE17BF07C8F33F
:10547000089597F99F6780E870E060E008959FEFD6
:1054800080EC089500240A941616170618060906DB
:10549000089500240A9412161306140605060895AA
:1054A000092E0394000C11F4882352F0BB0F40F432
:1054B000BF2B11F460FF04C06F5F7F4F8F4F9F4F72
:1054C000089557FD9058440F551F59F05F3F71F0F4
:1054D0004795880F97FB991F61F09F3F79F087955B
:1054E0000895121613061406551FF2CF4695F1DFE4
:1054F00008C0161617061806991FF1CF8695710574
:10550000610508940895E894BB2766277727CB01A7
:1055100097F908950E94952AA59F900DB49F900D2C
:10552000A49F800D911D11240895A29FB001B39FE7
:10553000C001A39F700D811D1124911DB29F700D9C
:10554000811D1124911D08950E94AB2A6894B11108
:105550000C94842A08950E94692A88F09F5798F035
:10556000B92F9927B751B0F0E1F0660F771F881F68
:10557000991F1AF0BA95C9F714C0B13091F00E9482
:10558000832AB1E008950C94832A672F782F882707
:10559000B85F39F0B93FCCF3869577956795B395A9
:1055A000D9F73EF490958095709561957F4F8F4F18
:1055B0009F4F08950E94442708F48FEF08950E949A
:1055C000132B30F09F3710F40C94842A0C94EA2AA1
:1055D0000C94052B882371F4772321F09850872BA6
:1055E000762F07C0662311F499270DC09051862BA2
:1055F00070E060E02AF09A95660F771F881FDAF74F
:10560000880F9695879597F908959F3F31F09150AF
:1056100020F4879577956795B795880F911D969596
:10562000879597F908950E94692AA0F0BEE7B917F7
:1056300088F4BB279F3860F41616B11D672F782FAA
:105640008827985FF7CF869577956795B11D9395D5
:105650009639C8F3089597FB072E16F4009407D0E7
:1056600077FD09D00E94882B07FC05D03EF4909569
:1056700081959F4F0895709561957F4F0895A1E2A0
:105680001A2EAA1BBB1BFD010DC0AA1FBB1FEE1FBC
:10569000FF1FA217B307E407F50720F0A21BB30B07
:1056A000E40BF50B661F771F881F991F1A9469F783
:1056B00060957095809590959B01AC01BD01CF01DF
:1056C0000895052E97FB1EF400940E94782B57FD39
:1056D00007D00E943F2B07FC03D04EF40C94782B8C
:1056E00050954095309521953F4F4F4F5F4F08950E
:1056F00090958095709561957F4F8F4F9F4F08953E
:10570000EE0FFF1F881F8BBF0790F691E02D1994B5
:10571000AA1BBB1B51E107C0AA1FBB1FA617B707D7
:1057200010F0A61BB70B881F991F5A95A9F78095F3
:105730009095BC01CD0108950F931F93CF93DF93F4
:105740008230910510F482E090E0E091F30EF09148
:10575000F40E30E020E0B0E0A0E0309799F421159D
:10576000310509F44AC0281B390B24303105D8F51E
:105770008A819B816115710589F1FB019383828385
:10578000FE0111C0408151810281138148175907E0
:10579000E0F04817590799F4109761F012960C93AE
:1057A000129713961C933296CF01DF91CF911F91E0
:1057B0000F9108950093F30E1093F40EF4CF21157A
:1057C000310551F04217530738F0A901DB019A0166
:1057D000BD01DF01F801C1CFEF01F9CF9093F40EC5
:1057E0008093F30ECDCFFE01E20FF31F81939193CF
:1057F0002250310939832883D7CF2091F10E30917F
:10580000F20E232B41F420911602309117023093AF
:10581000F20E2093F10E2091140230911502211501
:10582000310541F42DB73EB740911802509119024D
:10583000241B350BE091F10EF091F20EE217F30705
:10584000A0F42E1B3F0B2817390778F0AC014E5FF0
:105850005F4F2417350748F04E0F5F1F5093F20E2D
:105860004093F10E819391939FCFF0E0E0E09CCFC5
:10587000CF93DF930097E9F0FC01329713821282F5
:10588000A091F30EB091F40EED0130E020E01097FE
:10589000A1F420813181820F931F2091F10E30916C
:1058A000F20E2817390709F061C0F093F20EE09369
:1058B000F10EDF91CF910895EA01CE17DF07E8F5E9
:1058C0004A815B819E0141155105B1F7E901FB83D6
:1058D000EA8349915991C40FD51FEC17FD0761F474
:1058E000808191810296840F951FE90199838883B5
:1058F000828193819B838A83F0E0E0E012968D9110
:105900009C9113970097B9F52D913C911197CD017A
:105910000296820F931F2091F10E3091F20E2817FC
:10592000390739F6309751F51092F40E1092F30EB4
:10593000B093F20EA093F10EBCCFD383C28340810B
:105940005181840F951FC817D90761F44E5F5F4FCF
:1059500088819981480F591F518340838A819B8197
:10596000938382832115310509F0B0CFF093F40EB3
:10597000E093F30E9ECFFD01DC01C0CF13821282B3
:10598000D7CF4F925F926F927F928F929F92AF92FA
:10599000BF92CF92DF92EF92FF920F931F93CF931C
:1059A000DF938C01009799F4CB01DF91CF911F9188
:1059B0000F91FF90EF90DF90CF90BF90AF909F90AE
:1059C0008F907F906F905F904F900C949C2BFC0178
:1059D000E60FF71F9C0122503109E217F30708F484
:1059E000AEC0D901CD91DC911197C617D70720F130
:1059F000C530D10578F0CE0104978617970750F08F
:105A0000C61BD70B2297C193D1936D937C93CF0183
:105A10000E94382CC801DF91CF911F910F91FF9008
:105A2000EF90DF90CF90BF90AF909F908F907F903E
:105A30006F905F904F9008955B01AC1ABD0A4C01C6
:105A40008C0E9D1EA091F30EB091F40E512C412CA2
:105A5000F12CE12C109731F58091F10E9091F20E1E
:105A60008815990509F05CC04616570608F058C01D
:105A70008091140290911502009741F48DB79EB762
:105A80004091180250911902841B950BE817F907F1
:105A900008F055C0F093F20EE093F10EF901718316
:105AA0006083B8CF8D919C91119712966C9012974C
:105AB00013967C901397A815B90559F56C0142E02F
:105AC000C40ED11CCA14DB0420F1AC014A195B09D5
:105AD000DA011296159780F06282738251834083B7
