:100000000C9491020C94A1080C947A080C94B902F7
:100010000C94B9020C94B9020C94B9020C94B90274
:100020000C94B9020C94B9020C94B9020C94B90264
:100030000C94B9020C94B9020C94B9020C94B90254
:100040000C9430080C94B9020C94FE070C94D80759
:100050000C94B9020C94B9020C94B9020C94B90234
:100060000C94B9020C94B9024E414E494E49545970
:10007000494E46CDCCCC3D0AD7233C17B7D1387773
:10008000CC2B329595E6241FB14F0A000020410089
:1000900000C84200401C4620BCBE4CCA1B0E5AAED3
:1000A000C59D7400000000240027002A0000000005
:1000B00000250028002B0000000000230026002956
:1000C0000004040404040404040202020202020301
:1000D000030303030301020408102040800102040B
:1000E000081020010204081020000000080002018E
:1000F000000003040700000000000000006C616DB8
:10010000696E61722F423733382F454649535F631A
:100110006F6E74726F6C2F6370742F6D696E696D82
:10012000756D735F646E006C616D696E61722F42F4
:100130003733382F454649535F636F6E74726F6C67
:100140002F6370742F6D696E696D756D735F757057
:10015000006C616D696E61722F423733382F4546EE
:1001600049535F636F6E74726F6C2F636170742F8D
:100170006261726F5F696E5F6870615F646E006C70
:10018000616D696E61722F423733382F454649538E
:100190005F636F6E74726F6C2F636170742F626136
:1001A000726F5F696E5F6870615F7570006C616D22
:1001B000696E61722F423733382F454649535F636A
:1001C0006F6E74726F6C2F636170742F766F723202
:1001D0005F6F66665F646E006C616D696E61722F41
:1001E000423733382F454649535F636F6E74726FE1
:1001F0006C2F636170742F766F72325F6F66665F0B
:100200007570006C616D696E61722F423733382FE3
:10021000454649535F636F6E74726F6C2F636170F4
:10022000742F766F72315F6F66665F646E006C610B
:100230006D696E61722F423733382F454649535FDF
:10024000636F6E74726F6C2F636170742F766F7250
:10025000315F6F66665F7570006C616D696E6172AB
:100260002F423733382F70696C6F742F6261726F51
:100270006D657465725F646F776E006C616D696E39
:1002800061722F423733382F70696C6F742F62613F
:10029000726F6D657465725F7570006C616D696E0B
:1002A00061722F423733382F7066642F64685F7035
:1002B000696C6F745F646E006C616D696E61722F42
:1002C000423733382F7066642F64685F70696C6FD3
:1002D000745F7570006C616D696E61722F423733A7
:1002E000382F454649535F636F6E74726F6C2F638E
:1002F0006170742F707573685F627574746F6E2FA0
:10030000746572725F7072657373006C616D696E93
:1003100061722F423733382F454649535F636F6E02
:1003200074726F6C2F636170742F707573685F6285
:100330007574746F6E2F706F735F70726573730076
:100340006C616D696E61722F423733382F454649B3
:10035000535F636F6E74726F6C2F636170742F7074
:100360007573685F627574746F6E2F646174615F1A
:100370007072657373006C616D696E61722F4237C4
:1003800033382F454649535F636F6E74726F6C2F1D
:10039000636170742F707573685F627574746F6ECB
:1003A0002F617270745F7072657373006C616D6938
:1003B0006E61722F423733382F454649535F636F62
:1003C0006E74726F6C2F636170742F707573685FD9
:1003D000627574746F6E2F7770745F70726573736B
:1003E000006C616D696E61722F423733382F45465C
:1003F00049535F636F6E74726F6C2F636170742FFB
:10040000707573685F627574746F6E2F7374615F5B
:100410007072657373006C616D696E61722F423723
:1004200033382F454649535F636F6E74726F6C2F7C
:10043000636170742F707573685F627574746F6E2A
:100440002F7778725F7072657373006C616D696E7F
:1004500061722F423733382F454649535F636F6EC1
:1004600074726F6C2F636170742F707573685F6244
:100470007574746F6E2F6670765F7072657373003B
:100480006C616D696E61722F423733382F45464972
:10049000535F636F6E74726F6C2F636170742F7033
:1004A0007573685F627574746F6E2F6D7472735FAD
:1004B0007072657373006C616D696E61722F423783
:1004C00033382F454649535F636F6E74726F6C2FDC
:1004D000636170742F707573685F627574746F6E8A
:1004E0002F7273745F7072657373006C616D696EE7
:1004F00061722F423733382F454649535F636F6E21
:1005000074726F6C2F636170742F707573685F62A3
:100510007574746F6E2F7374645F7072657373009B
:100520003C0911241FBECFEFD8E0DEBFCDBF26E0CF
:10053000A2E2B2E001C01D92AB34B207E1F712E0D3
:10054000A0E0B1E0E0EDF6E302C005900D92A2322A
:10055000B107D9F712E0C1E9D2E004C02197FE014A
:100560000E948C17C039D107C9F70E94390A0C9430
:10057000661B0C940000AF92BF92CF92DF92EF9275
:10058000FF920F931F93CF93DF936C017B018B013D
:10059000040F151FEB015E01AE18BF08C017D1078D
:1005A00059F06991D601ED91FC910190F081E02D17
:1005B000C6010995892B79F7C501DF91CF911F916C
:1005C0000F91FF90EF90DF90CF90BF90AF90089584
:1005D000FC01538D448D252F30E0842F90E0821B49
:1005E000930B541710F0CF96089501970895FC01CE
:1005F000918D828D981761F0A28DAE0FBF2FB11D26
:100600005D968C91928D9F5F9F73928F90E008957D
:100610008FEF9FEF0895FC01918D828D981731F037
:10062000828DE80FF11D858D90E008958FEF9FEF8B
:100630000895FC01918D228D892F90E0805C9F4F61
:10064000821B91098F739927089584ED92E00E948F
:10065000190321E0892B09F420E0822F089580E01E
:1006600090E0892B29F00E94250381110C94000051
:100670000895FC01A48DA80FB92FB11DA35ABF4F37
:100680002C91848D90E001968F739927848FA68991
:10069000B7892C93A089B1898C91837080648C93E5
:1006A000938D848D981306C00288F389E02D808194
:1006B0008F7D80830895EF92FF920F931F93CF93C6
:1006C000DF93EC0181E0888F9B8D8C8D98131AC08D
:1006D000E889F989808185FF15C09FB7F894EE8974
:1006E000FF896083E889F9898081837080648083D1
:1006F0009FBF81E090E0DF91CF911F910F91FF901C
:10070000EF900895F62E0B8D10E00F5F1F4F0F73C3
:100710001127E02E8C8D8E110CC00FB607FCFACF7E
:10072000E889F989808185FFF5CFCE010E943903E0
:10073000F1CFEB8DEC0FFD2FF11DE35AFF4FF0824F
:100740009FB7F8940B8FEA89FB8980818062CFCFB5
:10075000CF93DF93EC01888D8823B9F0AA89BB89F8
:10076000E889F9898C9185FD03C0808186FD0DC0E3
:100770000FB607FCF7CF8C9185FFF2CF808185FF04
:10078000EDCFCE010E943903E9CFDF91CF910895DB
:10079000833081F028F4813099F08230A9F00895F7
:1007A0008730A9F08830C9F08430B1F4809180009E
:1007B0008F7D03C0809180008F77809380000895A3
:1007C00084B58F7784BD089584B58F7DFBCF8091EC
:1007D000B0008F778093B00008958091B0008F7D36
:1007E000F9CFCF93DF93282F30E0F901E751FF4F86
:1007F0008491F901EB52FF4FD491F901EF53FF4F70
:10080000C491CC23A1F081110E94C803EC2FF0E029
:10081000EE0FFF1FE954FF4FA591B491EC91ED232A
:1008200081E090E009F480E0DF91CF91089580E0CD
:1008300090E0FACF1F93CF93DF93282F30E0F90198
:10084000E751FF4F8491F901EB52FF4FD491F90129
:10085000EF53FF4FC491CC23A9F0162F81110E94B2
:10086000C803EC2FF0E0EE0FFF1FE355FF4FA591FB
:10087000B4918FB7F894EC91111108C0D095DE2394
:10088000DC938FBFDF91CF911F910895DE2BF8CFBE
:10089000CF93DF9390E0FC01EB52FF4F24918F53F5
:1008A0009F4FFC0184918823C9F090E0880F991F25
:1008B000FC01ED55FF4FA591B491FC01E355FF4FAD
:1008C000C591D49161110DC09FB7F8948C9120957A
:1008D00082238C938881282328839FBFDF91CF9127
:1008E0000895623051F49FB7F8943C91822F80951F
:1008F00083238C93E8812E2BEFCF8FB7F894EC9164
:100900002E2B2C938FBFEACFE82FF0E0E751FF4F5B
:10091000E491E33029F150F4E130C1F0E230D9F054
:1009200060387105BCF560E00C941A04E73011F1F1
:10093000E83041F1E430A1F780918000806280933B
:10094000800070938B0060938A00089584B580685E
:1009500084BD67BD089584B5806284BD68BD089577
:1009600080918000806880938000709389006093FC
:10097000880008958091B00080688093B0006093F3
:10098000B30008958091B00080628093B0006093BE
:10099000B400089561E0C8CF2FB7F89460912B029E
:1009A00070912C0280912D0290912E022FBF0895FC
:1009B0000895EF92FF921F93CF93DF93EC0187701E
:1009C00099272091C302281711F1E82E082E000C58
:1009D000FF082091C4022E151F04C9F0C4F08093B3
:1009E000C30210E08091CD02181788F4E12FF0E0E7
:1009F000B701012E02C0759567950A94E2F7617000
:100A0000ED53FD4F82810E941A041F5FEBCFCE0190
:100A100007960F9740F485E0DF91CF911F91FF90EB
:100A2000EF900C94F103289786E02897A8F38CE0C8
:100A3000F3CFDC01ED91FD918081ED91FD919081ED
:100A4000ED91FD916C9163708E2309F064609F239A
:100A500009F06860E6E3F5E0E60FF11D6595659540
:100A60006D936D917D918D919D91099423C01AC0D4
:100A700012C016C010C01EC009C014C013C006C0EA
:100A800019C009C00DC007C00DC014C0625070402D
:100A9000804090400BC0615070408040904006C044
:100AA0006E5F01C06F5F7F4F8F4F9F4F9E938E93FE
:100AB0007E936E93089580912402909125020C9468
:100AC000190580912202909123020C941905FB01D3
:100AD00001900020E9F73197AF01461B570BDC016D
:100AE000ED91FC910280F381E02D09946BE074E0BC
:100AF00080917103909172030E946705EBE0F4E02E
:100B000001900020E9F7EC54F44041F46CE171E00D
:100B100080917103909172030C9467050895880F7A
:100B2000991FFC01E958FA4F0190F081E02D3097B0
:100B300041F18081918197FD21C01F922EE32F9377
:100B40007F936F939F938F931F928BE68F931F9248
:100B50008CE38F938EE191E09F938F938BE094E0F1
:100B60009F938F930E94C5180E9476058DB79EB7FC
:100B70000E960FB6F8949EBF0FBE8DBF90E080E03A
:100B800008958FEF9FEF089561E070E00C948F055A
:100B9000CF93DF93EC0181E090E09987888788818B
:100BA0000E94F103892B11F4198618868A810E940C
:100BB000F103892B21F482E090E0998788872885CA
:100BC00039858A859B852817390781F062E070E0B6
:100BD0008C819D810E948F05688579858E819F819A
:100BE0000E948F05888599859B878A87DF91CF91A1
:100BF000089577FD1EC01F922EE32F937F936F936E
:100C00009F938F931F928CE38F938CE291E09F933D
:100C10008F938BE094E09F938F930E94C5188DB7BC
:100C20009EB70C960FB6F8949EBF0FBE8DBF0C9466
:100C3000760508954F925F926F927F928F929F9266
:100C4000AF92BF92CF92DF92EF92FF920F931F93DA
:100C5000CF93DF93CDB7DEB762970FB6F894DEBFC0
:100C60000FBECDBF4C01742E652E2B01AA86BB860C
:100C7000CC86DD86EE86FF86088B198B2A8B89E071
:100C8000FE013A96DE01119601900D928A95E1F7E8
:100C90008FEFF401808399E0FE013196D401129622
:100CA00001900D929A95E1F791E0F4019387848782
:100CB0008587968781E090E0908B878784019801F3
:100CC00028193909F401828590E00F5F1F4F28171A
:100CD000390734F461E0F80181810E944804EFCFC4
:100CE00091E001C0990F8A95EAF79183858587FD88
:100CF0000DC0871559F09685913019F460E00E9477
:100D00001A0460E0F40185850E944804F4017586A8
:100D100066864786508A611004C060E0872D0E9475
:100D20001A04F4016685858562960FB6F894DEBFD5
:100D30000FBECDBFDF91CF911F910F91FF90EF902C
:100D4000DF90CF90BF90AF909F908F907F906F90EB
:100D50005F904F900C944804EF92FF920F931F9373
:100D6000CF93DF93C0913F06D0914006C436D105A2
:100D70000CF048C08B017C0184E290E00E94921745
:100D8000FC01DE01AA0FBB1FA155BB4FED93FC93E5
:100D9000178A168AF58AE48A82E090E09383828338
:100DA00080E090E0A0E8BFE386839783A087B187C7
:100DB0008AE090E0A0E0B0E084879587A687B787B7
:100DC00081E090E095838483118F008F128E138EC3
:100DD000148E158E13A212A28FEF9FEF9183808342
:100DE000CE0101969093400680933F0610924406F0
:100DF00010924306CE01DF91CF911F910F91FF908A
:100E0000EF900895CFEFDFEFF5CF0F931F93CF93C0
:100E1000DF93C0914106D0914206C436D1056CF5EE
:100E20008C0180E190E00E949217FC01DE01AA0F84
:100E3000BB1FA958BA4FED93FC931583048313820B
:100E400012821386128681E090E0958784878FEF67
:100E50009FEF9183808397878687CE010196909339
:100E60004206809341061092440610924306CE013A
:100E7000DF91CF911F910F910895CFEFDFEFF7CF63
:100E8000EF92FF920F931F93CF93DF93C091410690
:100E9000D0914206C436D10584F58B017C0180E1F6
:100EA00090E00E949217FC01DE01AA0FBB1FA95817
:100EB000BA4FED93FC93F582E4821382128213877A
:100EC000028781E090E0958784878FEF9FEF918381
:100ED000808397878687CE01019690934206809300
:100EE00041061092440610924306CE01DF91CF9145
:100EF0001F910F91FF90EF900895CFEFDFEFF5CFA7
:100F0000EF92FF920F931F93CF93DF93C09141060F
:100F1000D0914206C436D105C4F5072F162F7C01A7
:100F200080E190E00E949217FC01CC0FDD1FC958B0
:100F3000DA4FF983E883F582E48213821282138602
:100F4000128681E090E0958784878FEF9FEF9183F1
:100F500080831687078762E0812F0E944804809172
:100F60004106909142069C012F5F3F4F309342060D
:100F7000209341061092440610924306DF91CF91D0
:100F80001F910F91FF90EF9008958FEF9FEFF6CF95
:100F90001F93CF93DF93C1E7D3E01F811F8285E7C3
:100FA00093E00E9435131F83DF91CF911F91089525
:100FB0001F920F920FB60F9211242F933F934F93CE
:100FC0005F936F937F938F939F93AF93BF93EF93B1
:100FD000FF9384ED92E00E943903FF91EF91BF915E
:100FE000AF919F918F917F916F915F914F913F91C1
:100FF0002F910F900FBE0F901F9018951F920F9278
:101000000FB60F9211242F938F939F93EF93FF931B
:10101000E091E402F091E5028081E091EA02F09132
:10102000EB0282FD1BC090818091ED028F5F8F7378
:101030002091EE02821741F0E091ED02F0E0EC52D7
:10104000FD4F958F8093ED02FF91EF919F918F91CE
:101050002F910F900FBE0F901F9018958081F4CFA5
:101060001F920F920FB60F9211242F933F938F93DD
:101070009F93AF93BF9380912B0290912C02A091EC
:101080002D02B0912E0230912A0223E0230F2D373A
:1010900058F50196A11DB11D20932A0280932B02C1
:1010A00090932C02A0932D02B0932E0280912602E1
:1010B00090912702A0912802B09129020196A11DCA
:1010C000B11D8093260290932702A0932802B0932B
:1010D0002902BF91AF919F918F913F912F910F90D6
:1010E0000FBE0F901F90189526E8230F0296A11DA2
:1010F000B11DD2CF1F920F920FB60F9211242F93D2
:101100003F934F935F936F937F938F939F93AF938F
:10111000BF93EF93FF93E0910201F09103010995D2
:10112000FF91EF91BF91AF919F918F917F916F91BF
:101130005F914F913F912F910F900FBE0F901F9095
:1011400018951F920F920FB60F9211242F933F9371
:101150004F935F936F937F938F939F93AF93BF93BF
:10116000EF93FF93E0910001F09101010995FF9148
:10117000EF91BF91AF919F918F917F916F915F910F
:101180004F913F912F910F900FBE0F901F90189588
:10119000FB0105900020E9F7609570956E0F7F1FA9
:1011A000CB010895FA01DC012150304030F08D91DF
:1011B0000590801919F40020B9F7881B990B089540
:1011C00080E008950F931F93CF93DF93EC01062FD8
:1011D000142F62E0802F0E94480462E0812F0E9459
:1011E0004804802F90E0FC01EF53FF4FE491F0E0C2
:1011F000EE0FFF1FE954FF4FA591B491B983A88367
:10120000FC01EB52FF4F24912C83812F90E0FC01D5
:10121000EF53FF4FE491F0E0EE0FFF1FE954FF4F53
:10122000459154915B834A83FC01EB52FF4FE4915B
:10123000ED831F82188619861A868BE39FE101973A
:10124000F1F78C91282391E009F490E0DA018C9178
:10125000E82309F092609E83BE01802F0E94E0087F
:10126000082FBE01812F0E94E008800F8B87DF913D
:10127000CF911F910F9108958F929F92AF92BF923D
:10128000CF92DF92EF92FF920F931F93CF93DF9352
:10129000CDB7DEB729970FB6F894DEBF0FBECDBF2E
:1012A0001092D7021092D6028EE091E09093D50270
:1012B0008093D40285EC90E09093E1028093E00269
:1012C00084EC90E09093E3028093E20280EC90E063
:1012D0009093E5028093E40281EC90E09093E70222
:1012E0008093E60282EC90E09093E9028093E8021A
:1012F00086EC90E09093EB028093EA021092ED026C
:101300001092EE021092EF021092F00284ED92E041
:10131000909372038093710384EF91E0A0E0B0E0BA
:101320008093D8029093D902A093DA02B093DB02A3
:1013300082E0898383E08A8384E08B838FEF8C83D0
:101340008D838E838F838887FE01319690E080E0C5
:101350004F01219127FF78C08987A980BA80CB806F
:10136000DC80ED80FE800F811885298545E050E006
:1013700061E070E083EC92E00E941A0682E08983CB
:1013800083E08A8384E08B838FEF8C838D838E83CD
:101390008F838887F40190E080E0219127FF5BC074
:1013A0008987A980BA80CB80DC80ED80FE800F81A8
:1013B0001885298546E050E061E070E082EB92E01C
:1013C0000E941A0682E0898383E08A8384E08B830B
:1013D0008FEF8C838D838E838F838887F40190E0D9
:1013E00080E0219127FF3EC08987A980BA80CB8009
:1013F000DC80ED80FE800F81188529854CE050E06F
:1014000061E070E081EA92E00E941A0647E068E03D
:1014100085E992E00E94E20849E06AE089E892E00A
:1014200029960FB6F894DEBF0FBECDBFDF91CF91E6
:101430001F910F91FF90EF90DF90CF90BF90AF90F2
:101440009F908F900C94E20801968830910509F0E6
:1014500080CF88E081CF01968830910509F09DCF3B
:1014600088E09ECF01968830910509F0BACF88E0D8
:10147000BBCF789484B5826084BD84B5816084BD1F
:1014800085B5826085BD85B5816085BD80916E0022
:10149000816080936E001092810080918100826053
:1014A0008093810080918100816080938100809190
:1014B00080008160809380008091B100846080937F
:1014C000B1008091B00081608093B00080917A007B
:1014D000846080937A0080917A00826080937A00A1
:1014E00080917A00816080937A0080917A00806890
:1014F00080937A001092C100F89410929C0210928E
:101500009D0210929E0210929F027894F89410927D
:10151000900210929102109292021092930278948B
:1015200080E190E090936202809361028EE090E00F
:10153000909364028093630281E190E0909356025D
:10154000809355028FE090E0909358028093570269
:1015500062E080E10E94480462E0809163020E94A0
:1015600048040FEF1FEF10936C0200936B0262E0D0
:10157000809155020E94480462E0809157020E94C7
:1015800048041093600200935F0262E082E10E94CF
:10159000480462E083E10E94480461E08BE00E941D
:1015A000480461E08BE00E94480468EC70E08BE046
:1015B0000E948404E091E402F091E50282E08083DD
:1015C000E091E002F091E1021082E091E202F091FC
:1015D000E30280E180831092EC02E091E802F09156
:1015E000E90286E08083E091E602F091E7028081E3
:1015F00080618083E091E602F091E702808188605B
:101600008083E091E602F091E70280818068808328
:10161000E091E602F091E70280818F7D808388E38C
:1016200091E09093AE048093AD041092A4041092C4
:10163000A3041092400610923F06109242061092A8
:10164000410610924406109243061092730361E51E
:1016500072E08BEE94E00E94400763E572E086EB57
:1016600094E00E94400762E170E080E894E00E940C
:10167000800763E170E08BE494E00E94800763E4FC
:1016800072E086E194E00E94400761E472E081EE3E
:1016900093E00E9440076FE372E08CEA93E00E94BF
:1016A00040076DE372E086E793E00E9440076BE33A
:1016B00072E080E493E00E94400769E372E08BE00F
:1016C00093E00E94400767E372E085ED92E00E949C
:1016D000400788EB92E00E94050790937802809380
:1016E00077028BE992E00E94050790937A0280933B
:1016F00079028BE792E00E94050790937202809333
:10170000710289E592E00E9405079093740280932C
:1017100073028EE292E00E94050790936602809326
:10172000650283E092E00E9405079093680280932F
:10173000670288ED91E00E94050790935A0280931A
:1017400059028DEA91E00E94050790935C02809314
:101750005B028FE791E00E94050790934602809319
:10176000450281E591E00E9405079093480280932D
:10177000470287E291E00E94050790934C02809314
:101780004B028DEF90E00E94050790934E028093EC
:101790004D0263E372E088E491E00E94AC066FE2E0
:1017A00072E084E791E00E94AC06C0913F06D091C0
:1017B0004006C436D105DCF584E290E00E94921721
:1017C000FC01DE01AA0FBB1FA155BB4FED93FC939B
:1017D000178A168A85E991E0958B848B81E090E0E9
:1017E0009383828382E090E09583848381E892E012
:1017F000918F808F168E178E10A211A28AE090E032
:10180000A0E0B0E084879587A687B7871682178205
:101810001086118613A212A2118300832196D09301
:101820004006C0933F061092440610924306FBE028
:101830002F2EF4E03F2E8091710390917203DC0112
:10184000ED91FC910084F185E02D099520917303C1
:10185000892B81F02C3381F0809171039091720378
:10186000DC01ED91FC910284F385E02D09958093D4
:101870007303E1CF2C33C1F5009171031091720312
:10188000E4E7EE2EE3E0FE2ED0E0C0E00E94CC04C0
:10189000F8016087718782879387D801ED91FC9169
:1018A0000284F385E02DC801099597FFABC60E941D
:1018B000CC04F80180849184A284B38468197909E6
:1018C0008A099B0984809580A680B7806815790570
:1018D0008A059B0510F3D0930A04C093090420974E
:1018E00009F069C0109273038091430690914406F9
:1018F000892B09F442C401E713E0F12CE12C8EE3BB
:10190000B82E95E6A92E2CE3922E3DE2832E8091EF
:101910003F0690914006E816F9060CF4E1C2C7E7CD
:10192000D5E010E000E08091410690914206081752
:1019300019070CF022C4E881F9818081918197FD1B
:1019400036C00E94CC04E881F981C680D780E0844B
:10195000F1846C197D098E099F096D3271408105F2
:10196000910528F18685978597FDDDC30E94F103D7
:101970007C01E881F98184859585E816F906B9F03E
:101980006081718131E0E316F10409F0C7C38AE692
:1019900090E00E94F9050E94CC04E881F9816683F9
:1019A000778380879187E881F981F586E4860F5FE8
:1019B0001F4F2296B8CFFE01EF58FC4F8EE3838372
:1019C0002296D0930A04C0930904CF58DC4F1A82A0
:1019D00090917403913609F44EC074F4933309F472
:1019E0009AC0943309F4ECC0923309F07BCF109283
:1019F000A4041092A30476CF953609F4FBC1963661
:101A000011F1943609F06ECFEFEAF4E090E080E057
:101A100041E050E020913F06309140068217930745
:101A20000CF060CFA191B19112962D913C9113973A
:101A3000225031092230310520F41B965C934E93DD
:101A40001A970196E7CF20913F0630914006EFEAC2
:101A5000F4E090E080E0821793070CF075C18436C3
:101A6000910509F471C1C191D1914881598157FD06
:101A7000FCC00196F0CF2091AD043091AE04211549
:101A80003105E1F01F928F933F932F931F9280E3D4
:101A90008F931F928CE38F938CEB91E09F938F93A6
:101AA0003F922F920E94C5180E947605EDB7FEB7AF
:101AB0003C960FB6F894FEBF0FBEEDBF81E090E0FC
:101AC0009093A4048093A304EFEAF4E090E080E014
:101AD00020913F063091400682179307A4F0E7E774
:101AE000F5E090E080E020914106309142068217B7
:101AF00093070CF0F7CEA191B1912FEF3FEF2D930B
:101B00003C930196F0CFA191B1912FEF3FEF2D9330
:101B10003C930196DDCFD0E0C0E080913F069091EC
:101B20004006C817D9070CF0DDCEFE01EE0FFF1FEF
:101B3000E155FB4F00811181D80154966D917C9144
:101B400061157105F1F0FB0101900020E9F7319773
:101B5000AF01461B570B88E793E00E94B718892B0B
:101B600071F4F80180819181019649F40E94C807BF
:101B7000D8018D939C93C0913F06D0914006219649
:101B8000CCCFF801C688D7880D2C000CEE08FF08D2
:101B9000C701B6010E94C8089C01B701A60188E7E9
:101BA00093E00E94D208892B51F7D8018D919C9126
:101BB000019629F70E94C807F80191838083DBCF43
:101BC000D0E0C0E08091410690914206C817D90745
:101BD0000CF088CEFE01EE0FFF1FE958FA4F00818E
:101BE0001181D80112966D917C9161157105F1F00A
:101BF000FB0101900020E9F73197AF01461B570B1D
:101C000088E793E00E94B718892B71F4F80180816E
:101C10009181019649F40E94C807D8018D939C9345
:101C2000C0914106D09142062196CCCFF801C480E4
:101C3000D5800D2C000CEE08FF08C701B6010E94EC
:101C4000C8089C01B701A60188E793E00E94D2086A
:101C5000892B51F7D8018D919C91019629F70E940B
:101C6000C807F80191838083DBCF0C891D898E80A2
:101C70009F80A884B98420E030E048EC52E4C5019C
:101C8000B4010E946E150E94ED16CB0164E670E06F
:101C90000E942317F82EE92EC501B4010E94ED160B
:101CA0002AA13BA18A819B810115110539F11F925F
:101CB0004EE34F931F930F93EF92FF927F936F9397
:101CC0003F932F939F938F931F9282E68F931F9240
:101CD0008CE38F9385EC91E09F938F933F922F92AB
:101CE0000E94C5182DB73EB72C5E3F4F0FB6F89433
:101CF0003EBF0FBE2DBF0E947605F4CD1F924EE36E
:101D00004F934F894F934E894F93EF92FF927F935A
:101D10006F933F932F939F938F931F9282E68F939E
:101D20001F928CE38F9381EE91E09F938F933F926C
:101D30002F920E94C5188DB79EB744960FB6F8949F
:101D40009EBF0FBE8DBFD7CFA7E7B5E090E080E084
:101D50002091410630914206821793070CF05FC430
:101D60008436910509F45BC4ED91FD9120813181A8
:101D700037FD02C00196ECCF828193810097E1F09C
:101D80001F922EE32F939F938F931F928DE68F9335
:101D90001F928CE38F938CEB91E09F938F933F92F4
:101DA0002F920E94C518ADB7BEB71C960FB6F89417
:101DB000BEBF0FBEADBF9FCF1F928EE38F938581B5
:101DC0008F9384818F931F928DE68F931F928CE364
:101DD0008F938DEF91E09F938F933F922F920E946C
:101DE000C518EDB7FEB73C960FB6F894FEBF0FBE10
:101DF000EDBF81CF0E94C8077C0190E080E0209178
:101E00003F0630914006821793070CF06BCDEC0132
:101E1000C156DF4F8E01000F111F0F581C4FD80104
:101E2000ED91FC9120813181E216F30609F056C054
:101E3000228133812D7F2130310509F04FC084810B
:101E400095810197F9F4C08CD18CB09082031092E7
:101E5000820388E793E00E945313F6016083718345
:101E600082839383B0928203D801ED91FC91A08D7F
:101E7000B18D8D919D910D90BC91A02D828F938FEE
:101E8000A48FB58FCC0FDD1FCF58DC4FE881F981CF
:101E9000848195810297F1F4008D118DD090820399
:101EA0001092820388E793E00E943113F801608367
:101EB000718382839383D0928203E881F981A08D1C
:101EC000B18D8D919D910D90BC91A02D868F978F96
:101ED000A0A3B1A380913F069091400601968FCFB9
:101EE000E801C25CDE4FE881F9818081918197FD34
:101EF0000DC0828193810297029740F4848195817D
:101F00008130910549F0029709F47AC0FFEFEF1A8A
:101F1000FF0A0E5F1F4FFBCCA08DB18D4D915D91DF
:101F20006D917C91828D938DA48DB58D4817590745
:101F30006A077B0759F30E94CC04E881F981408845
:101F4000518862887388AB01BC0144195509660940
:101F5000770984859585A685B78521E0892B8A2B0D
:101F60008B2B29F482859385892B09F420E0822F1D
:101F700090E0B0E0A0E084179507A607B70730F619
:101F80008081918197FD21C01F92BF92008CF18DBD
:101F9000E02D21812F9320812F939F938F931F9268
:101FA000AF921F929F922EE131E03F932F933F9289
:101FB0002F920E94C5180E947605ADB7BEB71E9637
:101FC0000FB6F894BEBF0FBEADBFE881F981A08DFA
:101FD000B18D8D919D910D90BC91A02D828F938F8D
:101FE000A48FB58FC880D9800E94CC04F601608B85
:101FF000718B828B938BE881F9811386128686CF51
:10200000A08DB18D268D378D40A151A16D917D910F
:102010008D919C910E940815811169C0E881F98118
:1020200082859385892B09F471CFE881F981C0807D
:10203000D180D7FC4EC0008CF18DE02D40805180C6
:10204000628073801F92BF9220E030E048EC52E43F
:10205000C301B2010E946E150E94ED16CB0164E629
:1020600070E00E94231797FF03C091958195910915
:102070009F938F93C301B2010E94ED169B0177FFDE
:1020800004C022273327261B370B3F932F93DF9261
:10209000CF921F92AF921F929F9226E032E03F9321
:1020A0002F933F922F920E94C518ADB7BEB750969E
:1020B0000FB6F894BEBF0FBEADBF20E030E0A9015F
:1020C000C301B2010E94081587FD809210040E948E
:1020D0007605E881F981A08DB18D8D919D910D904E
:1020E000BC91A02D868F978FA0A3B1A37BCF0E9418
:1020F000CC04E881F981408851886288738864192A
:102100007509860997094484558466847784461640
:1021100057066806790608F081CF87CF89E690E0F8
:102120000E94F90540CCA285B385109709F43FCCF5
:102130008D919C91248535858217930709F437CCBE
:102140006081718118161906ACF48AE690E00E944D
:10215000F905E881F981A285B3858D919C919587D8
:1021600084870E94CC04E881F98166837783808725
:1021700091871DCC89E690E0EACF8091430690914B
:102180004406892B09F49EC1C0908102D09082023E
:10219000E0908302F0908402A7019601609185028D
:1021A0007091860280918702909188020E940815A2
:1021B000882381F120E030E048E453E4C701B60110
:1021C0000E946E1520E030E0A9010E9481160E9455
:1021D000ED166B01EB0161E08BE00E94480460E0CA
:1021E000209729F0CF3FD10509F079C161E08BE05C
:1021F0000E941A048091810290918202A091830230
:10220000B09184028093850290938602A093870206
:10221000B09388028091A002823008F065C1F894E2
:1022200085E992E00E94190560919C0270919D02DF
:1022300080919E0290919F02789424E030E040E0EB
:1022400050E00E9437173093800220937F028091E4
:102250009402823008F04AC1F89489E892E00E9422
:102260001905609190027091910280919202909173
:102270009302789424E030E040E050E00E94371769
:1022800030937E0220937D0280917F0290918002A4
:1022900020917B0230917C028217930771F090931A
:1022A0007C0280937B02281739070CF021C18091B2
:1022B000790290917A020E94C40520917D023091AA
:1022C0007E0280917502909176022817390791F06D
:1022D000821793070CF011C18091730290917402E0
:1022E0000E94C40580917D0290917E0290937602B7
:1022F000809375020E94CC0400916D0210916E02D1
:1023000020916F0230917002601B710B820B930B56
:10231000653671058105910508F4D4C00E94CC048E
:1023200060936D0270936E0280936F0290937002BF
:1023300081E692E00E94C80585E592E00E94C8050A
:1023400088E090E00E94D904892B09F0DBC010924C
:10235000330210923402109235021092360290E04D
:1023600080E00E94D904892B09F0F6C010922F0258
:102370001092300210923102109232028CE090E002
:102380000E94D90490935402809353028DE090E010
:102390000E94D90490935202809351028EE090E003
:1023A0000E94D904892B91F480914F0290915002A0
:1023B000019761F080914D0290914E020E94C405F8
:1023C00081E090E09093500280934F028EE090E085
:1023D0000E94D904019781F480914F02909150029C
:1023E000892B51F080914B0290914C020E94C405C0
:1023F0001092500210924F028FE090E00E94D90498
:10240000892B91F48091490290914A02019761F0E1
:1024100080914702909148020E94C40581E090E0BB
:1024200090934A02809349028FE090E00E94D90481
:10243000019781F48091490290914A02892B51F0D1
:1024400080914502909146020E94C40510924A0272
:102450001092490280E190E00E94D90490934402D6
:102460008093430281E190E00E94D904909342025C
:102470008093410282E190E00E94D904909340024F
:1024800080933F0283E190E00E94D90490933E0242
:1024900080933D0284E190E00E94D90490933C0235
:1024A00080933B0285E190E00E94D90490933A0228
:1024B0008093390286E190E00E94D904909338021B
:1024C0008093370280E090E0892B09F4B4C90E9420
:1024D0002503882309F4ABC90E940000A8C9B601EE
:1024E0008BE00E94840486CEF8949ECEF894B9CEF8
:1024F0008091770290917802DECE80917102909166
:102500007202EECE89E090E00E94D904892B69F432
:1025100081E090E0A0E0B0E0809333029093340239
:10252000A0933502B09336021ACF8AE090E00E9461
:10253000D904892B29F482E090E0A0E0B0E0ECCF50
:102540008BE090E00E94D904892B09F008CF83E04A
:1025500090E0A0E0B0E0E0CF81E090E00E94D904FC
:10256000892B69F481E090E0A0E0B0E080932F0235
:1025700090933002A0933102B0933202FFCE82E0FA
:1025800090E00E94D904892B29F482E090E0A0E039
:10259000B0E0ECCF83E090E00E94D904892B29F4CD
:1025A00083E090E0A0E0B0E0E1CF84E090E00E9422
:1025B000D904892B29F484E090E0A0E0B0E0D6CFE4
:1025C00085E090E00E94D904892B29F485E090E011
:1025D000A0E0B0E0CBCF86E090E00E94D904892B48
:1025E00029F486E090E0A0E0B0E0C0CF87E090E082
:1025F0000E94D904892B09F0C1CE87E090E0A0E0C9
:10260000B0E0B4CF8E33910509F465C9D7018D933D
:102610007D012196C539D10509F038C95CC981E031
:1026200090E090934406809343061F928EE38F932D
:102630001F9283E68F931F928CE38F938BE192E03E
:102640009F938F933F922F920E94C5180E94760508
:10265000ADB7BEB71A960FB6F894BEBF0FBEADBFEA
:1026600041C9662777270C949713FC01882799277F
:10267000E89421912032E9F3293010F02E30C8F38C
:102680002B3241F02D3239F4689404C00E948F132C
:10269000820F911D219120532A30C0F31EF4909592
:1026A00081959F4F08951F93FC0199278827BC01AE
:1026B000E89411911032E9F3193010F01E30C8F38C
:1026C0001B3251F01D3249F4689406C00E947A13FF
:1026D000610F711D811D911D119110531A30B0F3BE
:1026E0003EF490958095709561957F4F8F4F9F4FE9
:1026F0001F910895592F482F372F262F660F771FC8
:10270000881F991F660F771F881F991F620F731FFD
:10271000841F951F660F771F881F991F08957AE001
:10272000979F902D879F802D910D11240895B0E0E3
:10273000A0E0EDE9F3E10C9440165C017B0161152A
:10274000710519F0DB018D939C9385010F5F1F4F7D
:10275000F501D0818D2F90E00E94E7146C01892B48
:10276000B9F5DD32B9F50F5F1F4FD5011196DC9138
:10277000C1E05801F1E0AF1AB10843E050E060E772
:1027800070E0C5010E94F014892B69F5680182E0B0
:10279000C80ED11C45E050E06BE670E0C6010E9417
:1027A000F014892B21F4680197E0C90ED11CE114C3
:1027B000F10419F0D701CD92DC9260E070E080E87E
:1027C0009FEFC111FFC060E070E080E89FE7FAC0B2
:1027D0005801BBCFDB3229F485010E5F1F4FF50195
:1027E000D181C0E0C6CF43E050E068E670E0C501AB
:1027F0000E94F014892BE9F0F80110E000E020E0DD
:1028000030E0A9015F01B0ED8B2E8D0E89E08815B7
:10281000C8F19C2E689491F88C2F8870C2FF16C066
:10282000811102C00F5F1F4F3196D501DC91C92D78
:10283000E9CFE114F10429F00E5F1F4FF701118376
:10284000008360E070E080EC9FE7BCC0882311F05B
:1028500001501109A5E0B0E00E942F169B01AC01C8
:10286000220F331F441F551F280D311D411D511DBF
:10287000283999E93907490799E15907A8F2C6604B
:102880009C2ED2CFAEEF8A1206C0C3FD3CC09C2E58
:10289000689493F8C9CFDF7DD534A9F580818D3256
:1028A00039F4C061DF011296818162E070E006C0F8
:1028B000DF018B32C1F3119661E070E080535D015E
:1028C000A61AB70A8A30F8F4E0E8CE16ECE0DE0685
:1028D0005CF4B601660F771F660F771FC60ED71E12
:1028E000CC0CDD1CC80ED11C5D01FFEFAF1ABF0A76
:1028F0008C9180538A30A8F1C4FF03C0D194C19455
:10290000D1080C0D1D1DC1FF09C0E114F10431F007
:1029100081E0A81AB108D701AD92BC92CA01B901F1
:102920000E940D15C370C33009F490584B015C012F
:1029300020E030E0A9010E940815882309F440C076
:10294000CFE9D0E017FF05C0119501951109C7E83F
:10295000D0E06E01B8E1CB1AD10880E2E82EF12C6C
:102960000FC0D501B1CFFE0125913591459154910C
:102970000E191F09C501B4010E946E154B015C01BF
:10298000D501C4010E151F0574F72497F594E7943B
:10299000CC16DD06A9F78A2F880F8B2F881F8F3F53
:1029A00049F020E030E0A901C501B4010E940815FA
:1029B000811106C082E290E090934606809345061E
:1029C000C501B401CDB7DEB7ECE00C945C169111F3
:1029D0000C94DB15803219F089508550C8F70895A2
:1029E000FB01DC014150504088F08D9181341CF096
:1029F0008B350CF4805E659161341CF06B350CF402
:102A0000605E861B611171F3990B0895881BFCCFE2
:102A10000E944A1508F481E00895E89409C097FBE4
:102A20003EF490958095709561957F4F8F4F9F4FA5
:102A30009923A9F0F92F96E9BB279395F6958795E9
:102A400077956795B795F111F8CFFAF4BB0F11F4AC
:102A500060FF1BC06F5F7F4F8F4F9F4F16C0882353
:102A600011F096E911C0772321F09EE8872F762F89
:102A700005C0662371F096E8862F70E060E02AF0CA
:102A80009A95660F771F881FDAF7880F96958795B6
:102A900097F90895990F0008550FAA0BE0E8FEEF8B
:102AA00016161706E807F907C0F012161306E40712
:102AB000F50798F0621B730B840B950B39F40A260B
:102AC00061F0232B242B252B21F408950A2609F4E9
:102AD000A140A6958FEF811D811D08950E9481154B
:102AE0000C94F5150E94E71538F00E94EE1520F0C1
:102AF000952311F00C94DE150C94E41511240C941C
:102B000029160E94061670F3959FC1F3950F50E0A9
:102B1000551F629FF001729FBB27F00DB11D639F8F
:102B2000AA27F00DB11DAA1F649F6627B00DA11D35
:102B3000661F829F2227B00DA11D621F739FB00DDB
:102B4000A11D621F839FA00D611D221F749F33274B
:102B5000A00D611D231F849F600D211D822F762FE4
:102B60006A2F11249F5750409AF0F1F088234AF0C1
:102B7000EE0FFF1FBB1F661F771F881F915050402D
:102B8000A9F79E3F510580F00C94DE150C94291690
:102B90005F3FE4F3983ED4F3869577956795B795B4
:102BA000F795E7959F5FC1F7FE2B880F911D9695CE
:102BB000879597F9089599278827089597F99F672A
:102BC00080E870E060E008959FEF80EC08950024B5
:102BD0000A941616170618060906089500240A9482
:102BE00012161306140605060895092E0394000C08
:102BF00011F4882352F0BB0F40F4BF2B11F460FF97
:102C000004C06F5F7F4F8F4F9F4F089557FD9058BF
:102C1000440F551F59F05F3F71F04795880F97FBA0
:102C2000991F61F09F3F79F087950895121613065A
:102C30001406551FF2CF4695F1DF08C01616170689
:102C40001806991FF1CF86957105610508940895BE
:102C5000E894BB2766277727CB0197F908950E9450
:102C60007116A59F900DB49F900DA49F800D911D8E
:102C7000112408952F923F924F925F926F927F920C
:102C80008F929F92AF92BF92CF92DF92EF92FF927C
:102C90000F931F93CF93DF93CDB7DEB7CA1BDB0B28
:102CA0000FB6F894DEBF0FBECDBF09942A883988CD
:102CB00048885F846E847D848C849B84AA84B984D4
:102CC000C884DF80EE80FD800C811B81AA81B981E0
:102CD000CE0FD11D0FB6F894DEBF0FBECDBFED01F4
:102CE0000895A29FB001B39FC001A39F700D811DE5
:102CF0001124911DB29F700D811D1124911D089505
:102D00005058BB27AA270E9498160C94F5150E94CC
:102D1000E71538F00E94EE1520F039F49F3F19F4C2
:102D200026F40C94E4150EF4E095E7FB0C94DE1504
:102D3000E92F0E94061658F3BA1762077307840733
:102D4000950720F079F4A6F50C9428160EF4E0957A
:102D50000B2EBA2FA02D0B01B90190010C01CA0155
:102D6000A0011124FF27591B99F0593F50F4503E00
:102D700068F11A16F040A22F232F342F4427585FF2
:102D8000F3CF469537952795A795F0405395C9F70A
:102D90007EF41F16BA0B620B730B840BBAF09150C2
:102DA000A1F0FF0FBB1F661F771F881FC2F70EC061
:102DB000BA0F621F731F841F48F487957795679534
:102DC000B795F7959E3F08F0B0CF9395880F08F020
:102DD0009927EE0F9795879508950E94F4166894A9
:102DE000B1110C94291608950E940E1688F09F5771
:102DF00098F0B92F9927B751B0F0E1F0660F771F1F
:102E0000881F991F1AF0BA95C9F714C0B13091F014
:102E10000E942816B1E008950C942816672F782F89
:102E20008827B85F39F0B93FCCF3869577956795D9
:102E3000B395D9F73EF490958095709561957F4F45
:102E40008F4F9F4F089597FB072E16F4009407D0DD
:102E500077FD09D00E94561707FC05D03EF49095E7
:102E600081959F4F0895709561957F4F0895052E28
:102E700097FB1EF400940E944E1757FD07D00E9446
:102E80006A1707FC03D04EF40C944E1750954095EA
:102E9000309521953F4F4F4F5F4F08959095809506
:102EA000709561957F4F8F4F9F4F0895AA1BBB1B55
:102EB00051E107C0AA1FBB1FA617B70710F0A61B3A
:102EC000B70B881F991F5A95A9F780959095BC015B
:102ED000CD010895A1E21A2EAA1BBB1BFD010DC056
:102EE000AA1FBB1FEE1FFF1FA217B307E407F507BA
:102EF00020F0A21BB30BE40BF50B661F771F881F96
:102F0000991F1A9469F760957095809590959B012B
:102F1000AC01BD01CF010895EE0FFF1F0590F491A4
:102F2000E02D09940F931F93CF93DF938230910587
:102F300010F482E090E0E0914906F0914A0630E01A
:102F400020E0B0E0A0E0309799F42115310509F4B4
:102F50004AC0281B390B24303105D8F58A819B8162
:102F60006115710589F1FB0193838283FE0111C014
:102F7000408151810281138148175907E0F04817B9
:102F8000590799F4109761F012960C9312971396C3
:102F90001C933296CF01DF91CF911F910F9108952D
:102FA0000093490610934A06F4CF2115310551F0DC
:102FB0004217530738F0A901DB019A01BD01DF0177
:102FC000F801C1CFEF01F9CF90934A0680934906EB
:102FD000CDCFFE01E20FF31F81939193225031096F
:102FE00039832883D7CF2091470630914806232B79
:102FF00041F4209106013091070130934806209357
:10300000470620910401309105012115310541F455
:103010002DB73EB74091080150910901241B350B93
:10302000E0914706F0914806E217F307A0F42E1B43
:103030003F0B2817390778F0AC014E5F5F4F24171C
:10304000350748F04E0F5F1F5093480640934706E0
:10305000819391939FCFF0E0E0E09CCFCF93DF93FB
:103060000097E9F0FC01329713821282A091490681
:10307000B0914A06ED0130E020E01097A1F42081E4
:103080003181820F931F20914706309148062817FF
:10309000390709F061C0F0934806E0934706DF91D5
:1030A000CF910895EA01CE17DF07E8F54A815B81E9
:1030B0009E0141155105B1F7E901FB83EA8349916E
:1030C0005991C40FD51FEC17FD0761F480819181E0
:1030D0000296840F951FE9019983888382819381E9
:1030E0009B838A83F0E0E0E012968D919C91139788
:1030F0000097B9F52D913C911197CD010296820F61
:10310000931F20914706309148062817390739F652
:10311000309751F510924A0610924906B09348062E
:10312000A0934706BCCFD383C28340815181840FD3
:10313000951FC817D90761F44E5F5F4F8881998149
:10314000480F591F518340838A819B8193838283D7
:103150002115310509F0B0CFF0934A06E0934906F6
:103160009ECFFD01DC01C0CF13821282D7CFFB01BD
:10317000DC014150504030F08D910190801919F4DC
:103180000020B9F7881B990B0895AEE0B0E0EBEC96
:10319000F8E10C9448160D891E8986E08C831A8309
:1031A00009838FEF9FE79E838D83AE01475E5F4F5C
:1031B0006F89788DCE0101960E94E8182F8138859D
:1031C000020F131FF80110822E96E4E00C9464168F
:1031D000ABE0B0E0EEEEF8E10C943A167C013B0176
:1031E0008A01FC0117821682838181FFC8C1CE014A
:1031F00001965C01F7019381F30193FD859193FFA3
:1032000081913F01882309F453C1853239F493FD3C
:10321000859193FF81913F01853229F4B70190E0B8
:103220000E94D81AE7CF912C212C312CFFE1F31505
:1032300038F08B3211F190F4803209F1833229F1A8
:1032400037FC3CC020ED280F2A3050F536FE20C058
:103250008AE0989E200D1124922E06C08D3291F0A6
:10326000803371F7689430F8F30193FD859193FFF3
:1032700081913F018111DACF21C0689431F86894BF
:1032800032F8F2CF689433F8EFCF689434F8ECCF8B
:10329000EAE02E9E200D1124222E689435F8E4CF0A
:1032A0008E3229F436FC04C1689436F8DDCF8C36B2
:1032B00019F4689437F8D8CF8836B1F2982F9F7DEB
:1032C00095549330E0F08336A1F18337C1F1833513
:1032D00009F063C02801F2E04F0E511CF801C080D4
:1032E000D180692D70E036FC02C06FEF7FEFC60120
:1032F0000E94C21A4C01689437F882010AC00C5F20
:103300001F4FFFE3F98388248394912C6501E8948F
:1033100037F833FE2DC0522C8114910471F55520DD
:1033200009F468CFB70180E290E00E94D81A5A945D
:10333000F6CFF801808189830E5F1F4FE4CF28010B
:10334000F2E04F0E511CF801C080D180692D70E071
:1033500036FC02C06FEF7FEFC6010E94CD1A4C0110
:103360008201D5CFB70180E290E00E94D81A2A945A
:103370002814190409F0B0F7CECFF60137FC859177
:1033800037FE81916F01B70190E00E94D81A511069
:103390005A94F1E08F1A9108BFCF843619F089361C
:1033A00009F077C0F80137FE6BC0608171818281BE
:1033B00093810C5F1F4FF32DFF763F2E97FF09C0BF
:1033C00090958095709561957F4F8F4F9F4F689432
:1033D00037F82AE030E0A5010E94081BC82ECA1861
:1033E0008C2C432C36FE0CC0E89440F8C91440F4F1
:1033F00034FE05C032FC03C0F32DFE7E4F2E892C17
:1034000044FE95C0FE01EC0DF11D8081803309F072
:1034100087C0242D297E422E842D8870582E43FC8F
:1034200095C040FE8FC09C2C821418F42C0C922C5A
:10343000981844FE91C0B70180E390E00E94D81A2A
:1034400042FE09C088E790E041FE02C088E590E0B6
:10345000B7010E94D81AC91408F48AC0CA94D12CA2
:103460009FEFC91AD90ACA0CDB1CF60182916F01C1
:10347000B70190E00E94D81AAC14BD04B1F74FCF49
:1034800060817181072E000C880B990B0E5F1F4F16
:1034900092CFD32CE894D4F82AE030E0853739F184
:1034A000232D297FD22E8F3601F148F48835A9F0DB
:1034B000F701868197812B96E2E10C9456168037AE
:1034C00049F08837A9F7D4FE02C06894D2F820E109
:1034D00030E00DC06894D4F8F6CF34FE03C0822FDC
:1034E0008660D82E20E132E002C028E030E0F8010A
:1034F000D7FE0FC060817181828193810C5F1F4F65
:10350000A5010E94081BC82ECA183D2CE89437F864
:1035100067CF6081718190E080E00E5F1F4FF0CF38
:1035200042FC02C0839478CF8394839475CF842D1A
:10353000867809F471CFF6CFB70180E290E00E945F
:10354000D81A83948214C0F3512C73CF522C58187C
:10355000821408F46ECFF8CF842D867809F47BCFDF
:103560008BE241FE80E247FC8DE2B70190E071CF33
:10357000B70180E390E00E94D81A9A946CCF8FEF45
:103580009FEF99CFFC010590615070400110D8F772
:10359000809590958E0F9F1F0895FC01615070409B
:1035A00001900110D8F7809590958E0F9F1F089578
:1035B0000F931F93CF93DF93182F092FEB018B816C
:1035C00081FD09C01FEF0FEF812F902FDF91CF9169
:1035D0001F910F91089582FF14C02E813F818C812D
:1035E0009D81281739073CF4E881F981CF010196C4
:1035F0009983888310838E819F8101969F838E8318
:10360000E3CFE885F985812F0995892BA1F3DACFDE
:10361000FA01AA27283051F1203181F1E8946F9303
:103620006E7F6E5F7F4F8F4F9F4FAF4FB1E03ED0A9
:10363000B4E03CD0670F781F891F9A1FA11D680F47
:10364000791F8A1F911DA11D6A0F711D811D911D7A
:10365000A11D20D009F468943F912AE0269F1124EF
:103660003019305D3193DEF6CF010895462F477053
:10367000405D4193B3E00FD0C9F7F6CF462F4F70AE
:10368000405D4A3318F0495D31FD4052419302D00C
:10369000A9F7EACFB4E0A6959795879577956795B2
:1036A000BA95C9F700976105710508959B01AC01B2
:1036B0000A2E06945795479537952795BA95C9F7D9
:1036C000620F731F841F951FA01D0895F894FFCFEC
:1036D000D804D80400004B068000000000005B0303
:1036E000BB02E802A8031903F7020B0320002563BD
:1036F000256325332E3369256925630025632563FA
:1037000025332E33692563004350542045464953E1
:103710002076342E312E31006C616D696E61722F0E
:10372000423733382F454649535F636F6E74726F6B
:103730006C2F636170742F6D61705F6D6F64655F76
:10374000706F73006C616D696E61722F4237333830
:103750002F454649532F636170742F6D61705F72FE
:10376000616E6765006C616D696E61722F423733FF
:10377000382F656C6563747269632F70616E656C58
:103780005F6272696768746E657373002563256391
:1037900025732563002563256325312E3169253284
:1037A0002E3269253035692E25303269257325631F
:1037B000002563256325312E316925322E32692596
:1037C0003035692E25303269255325630025632560
:1037D0006325532563002563256325332E3369252F
:1037E0003037692E2530326925630025632563252E
:0237F000630074
:00000001FF
