:100000000C94B7060C9480190C9455190C942A1969
:100010000C94FF180C94D4180C94A9180C947E1806
:100020000C9453180C94E8060C94E8060C94E8061B
:100030000C94E8060C94E8060C94E8060C94E80688
:100040000C94E8060C94E8060C94E8060C94E80678
:100050000C94E8060C94E8060C94E8060C94091835
:100060000C94E8060C94D3170C94A9170C94E8068A
:100070000C94E8060C94E8060C94E8060C94E80648
:100080000C94E8060C94E8060C94E8060C94E80638
:100090000C94E8060C94E8060C94E8060C94E80628
:1000A0000C94E8060C94E8060C94E8060C94E80618
:1000B0000C94E8060C94E8060C94E8060C94E80608
:1000C0000C94E8060C94E8060C94E8060C94E806F8
:1000D0000C94E8060C94E8060C94E8060C94E806E8
:1000E0000C94E8060C94C1090C94EA060C944D0992
:1000F0000C9461080C9448070C9445090C948007F3
:100100000C9481080C9452090C9465080C943A07DD
:100110000C9417070C94C5190C9442080C944A0AC5
:100120000C944A080C9469080C9457080C946F08B6
:100130000C9426070C94CD070C945B080C94E10AF0
:100140000C9478090C947C080C9466090C94AD0905
:100150000C94D5090C9451080C9470090C94ED0A78
:100160000C9477080C94DF090C94E70A0C943C0873
:100170000C949E250C948A090C9473080C944E08D8
:100180000C949E090C94B7090C9446080C945C09D5
:100190000C94F30A0C94CB090C9480090C947D0800
:1001A0000C9494094E414E494E495459494E46CDFE
:1001B000CCCC3D0AD7233C17B7D13877CC2B32951E
:1001C00095E6241FB14F0A000020410000C84200FC
:1001D000401C4620BCBE4CCA1B0E5AAEC59D7400C6
:1001E000002100240027002A002D003000330001E8
:1001F000010000040107010A010000220025002877
:10020000002B002E0031003400020100000501081F
:10021000010B01000020002300260029002C002FE4
:100220000032000001000003010601090105050577
:1002300005070508080808020202020A0A0808045D
:10024000040404010101010101010103030303038B
:10025000030303040707070C0C0C0C0C0C0C0C021A
:1002600002020206060606060606060B0B0B0B0B21
:100270000B0B0B010210202008081020401020401A
:10028000800201020108040201010204081020405A
:100290008080402010080402018004020180402078
:1002A00010080402010804020101020408102040A1
:1002B00080010204081020408000000A0B02090C93
:1002C0000D0E0807030401000000000000000000FC
:1002D000000000000000000000000000000000001E
:1002E00000000000001211100000000000000000DB
:1002F0000000000000000000000000000000006C92
:10030000616D696E61722F423733382F6175746F7A
:1003100070696C6F742F646973636F6E6E6563745C
:100320005F746F67676C65006C616D696E61722FD9
:10033000423733382F6175746F70696C6F742F6436
:100340006973636F6E6E6563745F746F67676C6506
:10035000006C616D696E61722F423733382F6175A1
:10036000746F70696C6F742F6175746F7468726FDD
:1003700074746C655F61726D5F746F67676C650044
:100380006C616D696E61722F423733382F617574FD
:100390006F70696C6F742F6175746F7468726F74AD
:1003A000746C655F61726D5F746F67676C65006C1C
:1003B000616D696E61722F423733382F6175746FCA
:1003C00070696C6F742F666C696768745F646972BA
:1003D0006563746F725F746F67676C65006C616DE5
:1003E000696E61722F423733382F6175746F70698F
:1003F0006C6F742F666C696768745F64697265639B
:10040000746F725F746F67676C65006C616D696EA5
:1004100061722F423733382F6175746F70696C6F5A
:10042000742F666C696768745F6469726563746F62
:10043000725F666F5F746F67676C65006C616D6992
:100440006E61722F423733382F6175746F70696C2B
:100450006F742F666C696768745F64697265637432
:100460006F725F666F5F746F67676C65006C616D5C
:10047000696E61722F423733382F6175746F7069FE
:100480006C6F742F636F757273655F70696C6F74D6
:100490005F646E006C616D696E61722F4237333834
:1004A0002F6175746F70696C6F742F636F757273E1
:1004B000655F70696C6F745F75700073696D2F6133
:1004C00075746F70696C6F742F766572746963618F
:1004D0006C5F73706565645F646F776E0073696DE0
:1004E0002F6175746F70696C6F742F7665727469A3
:1004F00063616C5F73706565645F7570006C616DDE
:10050000696E61722F423733382F6175746F70696D
:100510006C6F742F616C7469747564655F646E00D0
:100520006C616D696E61722F423733382F6175745B
:100530006F70696C6F742F616C7469747564655F3A
:100540007570006C616D696E61722F423733382FA0
:100550006175746F70696C6F742F68656164696E22
:10056000675F646E006C616D696E61722F42373334
:10057000382F6175746F70696C6F742F6865616472
:10058000696E675F75700073696D2F6175746F7048
:10059000696C6F742F61697273706565645F646FF5
:1005A000776E0073696D2F6175746F70696C6F740D
:1005B0002F61697273706565645F7570006C616D41
:1005C000696E61722F423733382F6175746F7069AD
:1005D0006C6F742F636F757273655F636F70696C96
:1005E0006F745F646E006C616D696E61722F42376B
:1005F00033382F6175746F70696C6F742F636F750A
:100600007273655F636F70696C6F745F7570006C97
:10061000616D696E61722F423733382F6175746F67
:1006200070696C6F742F7676695F6469616C5F7353
:10063000686F77006C616D696E61722F4237333875
:100640002F6175746F70696C6F742F636F7572733F
:10065000655F636F70696C6F74006C616D696E616A
:10066000722F423733382F6175746F70696C6F74F5
:100670002F61705F7676695F706F73006C616D6972
:100680006E61722F423733382F6175746F70696CE9
:100690006F742F6D63705F616C745F6469616C006F
:1006A00073696D2F636F636B7069742F6175746FFD
:1006B00070696C6F742F61697273706565645F69CE
:1006C000735F6D616368006C616D696E61722F426A
:1006D0003733382F6175746F70696C6F742F6D6369
:1006E000705F6864675F6469616C006C616D696EFE
:1006F00061722F423733382F6175746F70696C6F78
:10070000742F73686F775F696173006C616D696ED8
:1007100061722F423733382F6175746F70696C6F57
:10072000742F6D63705F73706565645F6469616C7D
:100730005F6B74735F6D616368006C616D696E619E
:10074000722F423733382F6175746F70696C6F7414
:100750002F636F757273655F70696C6F74006C6185
:100760006D696E61722F423733382F6175746F7007
:10077000696C6F742F646973636F6E6E6563745F09
:10078000746F67676C65006C616D696E61722F4292
:100790003733382F6175746F70696C6F742F6469AB
:1007A00073636F6E6E6563745F706F73006C616D01
:1007B000696E61722F423733382F737769746368BB
:1007C00065732F6175746F70696C6F742F61745FDE
:1007D00061726D006C616D696E61722F42373338E2
:1007E0002F73776974636865732F6175746F7069AF
:1007F0006C6F742F66645F666F006C616D696E610B
:10080000722F423733382F73776974636865732F9B
:100810006175746F70696C6F742F66645F636100DB
:100820006C616D696E61722F423733382F61757458
:100830006F70696C6F742F6368616E67655F6F7648
:1008400065725F7072657373006C616D696E617261
:100850002F423733382F6175746F70696C6F742F46
:10086000616C745F696E74657276006C616D696E3F
:1008700061722F423733382F6175746F70696C6FF6
:10088000742F7370645F696E74657276006C616D4D
:10089000696E61722F423733382F6175746F7069DA
:1008A0006C6F742F6377735F625F70726573730030
:1008B0006C616D696E61722F423733382F617574C8
:1008C0006F70696C6F742F6377735F615F707265AF
:1008D0007373006C616D696E61722F423733382F0C
:1008E0006175746F70696C6F742F636D645F625FA4
:1008F0007072657373006C616D696E61722F42373F
:1009000033382F6175746F70696C6F742F636D6409
:100910005F615F7072657373006C616D696E6172A7
:100920002F423733382F6175746F70696C6F742F75
:1009300076735F7072657373006C616D696E61725E
:100940002F423733382F6175746F70696C6F742F55
:10095000616C745F686C645F7072657373006C6166
:100960006D696E61722F423733382F6175746F7005
:10097000696C6F742F6170705F7072657373006C57
:10098000616D696E61722F423733382F6175746FF4
:1009900070696C6F742F766F726C6F635F707265C5
:1009A0007373006C616D696E61722F423733382F3B
:1009B0006175746F70696C6F742F6C6E61765F70A7
:1009C00072657373006C616D696E61722F423733AB
:1009D000382F6175746F70696C6F742F6864675F0E
:1009E00073656C5F7072657373006C616D696E61C5
:1009F000722F423733382F6175746F70696C6F7462
:100A00002F6C766C5F6368675F7072657373006CE0
:100A1000616D696E61722F423733382F6175746F63
:100A200070696C6F742F766E61765F707265737328
:100A3000006C616D696E61722F423733382F6175BA
:100A4000746F70696C6F742F73706565645F70721A
:100A5000657373006C616D696E61722F4237333854
:100A60002F6175746F70696C6F742F6E315F707267
:100A7000657373006C616D696E61722F4237333834
:100A80002F6175746F70696C6F742F6D617374650D
:100A9000725F666F5F737461747573006C616D690A
:100AA0006E61722F423733382F6175746F70696CC5
:100AB0006F742F6D61737465725F636170745F73BF
:100AC0007461747573006C616D696E61722F423769
:100AD00033382F6175746F70696C6F742F61757422
:100AE0006F7468726F74746C655F7374617475731E
:100AF00031006C616D696E61722F423733382F613E
:100B000075746F70696C6F742F6377735F625F7356
:100B10007461747573006C616D696E61722F423718
:100B200033382F6175746F70696C6F742F637773CE
:100B30005F615F737461747573006C616D696E6180
:100B4000722F423733382F6175746F70696C6F7410
:100B50002F636D645F625F737461747573006C61A1
:100B60006D696E61722F423733382F6175746F7003
:100B7000696C6F742F636D645F615F73746174750A
:100B800073006C616D696E61722F423733382F616B
:100B900075746F70696C6F742F76735F73746174A2
:100BA0007573006C616D696E61722F423733382F37
:100BB0006175746F70696C6F742F616C745F686CB1
:100BC000645F737461747573006C616D696E6172DA
:100BD0002F423733382F6175746F70696C6F742FC3
:100BE0006864675F73656C5F737461747573006CC0
:100BF000616D696E61722F423733382F6175746F82
:100C000070696C6F742F6170705F73746174757349
:100C1000006C616D696E61722F423733382F6175D8
:100C2000746F70696C6F742F766F726C6F635F7323
:100C30007461747573006C616D696E61722F4237F7
:100C400033382F6175746F70696C6F742F6C6E61BF
:100C5000765F737461747573006C616D696E617237
:100C60002F423733382F6175746F70696C6F742F32
:100C7000766E61765F73746174757331006C616D4B
:100C8000696E61722F423733382F6175746F7069E6
:100C90006C6F742F6C766C5F6368675F73746174DC
:100CA0007573006C616D696E61722F423733382F36
:100CB0006175746F70696C6F742F73706565645FB4
:100CC00073746174757331006C616D696E61722F3C
:100CD000423733382F6175746F70696C6F742F6E83
:100CE000315F737461747573007E306D79335B5F4F
:100CF000707F7B771F0D3D4F470000000000000014
:100D000000000000000000000000000000000000E3
:100D10000000000000800180007E306D79335B5F51
:100D2000707F7B00000000000000771F0D3D4F47E3
:100D300000370000000E0000006700000000000007
:100D400000000000000000000800771F0D3D4F4725
:100D500000370000000E00151D67000000000000B5
:100D600000000000000000000000C5199E251124AD
:100D70001FBECFEFD1E2DEBFCDBF00E00CBF29E048
:100D8000A0EEB2E001C01D92AE30B207E1F712E072
:100D9000A0E0B2E0E8EDFEE500E00BBF02C0079086
:100DA0000D92A03EB107D9F716E0C6EBD6E000E001
:100DB00006C021970109802FFE010E94222AC53B0F
:100DC000D10780E00807A9F70E943F1A0C945A2F18
:100DD0000C940000AF92BF92CF92DF92EF92FF92FD
:100DE0000F931F93CF93DF936C017B018B01040F53
:100DF000151FEB015E01AE18BF08C017D10759F0EF
:100E00006991D601ED91FC910190F081E02DC60130
:100E10001995892B79F7C501DF91CF911F910F911A
:100E2000FF90EF90DF90CF90BF90AF900895FC01BE
:100E3000538D448D252F30E0842F90E0821B930B3F
:100E4000541710F0CF96089501970895FC01918DE5
:100E5000828D981761F0A28DAE0FBF2FB11D5D96E8
:100E60008C91928D9F5F9F73928F90E008958FEF8A
:100E70009FEF0895FC01918D828D981731F0828D3E
:100E8000E80FF11D858D90E008958FEF9FEF089595
:100E9000FC01918D228D892F90E0805C9F4F821BF9
:100EA00091098F739927089587E995E00E94480773
:100EB00021E0892B09F420E0822F0895FC01A48D04
:100EC000A80FB92FB11DA35ABF4F2C91848D90E06C
:100ED00001968F739927848FA689B7892C93A0894F
:100EE000B1898C91837080648C93938D848D9813D9
:100EF00006C00288F389E02D80818F7D808308956C
:100F0000EF92FF920F931F93CF93DF93EC0181E059
:100F1000888F9B8D8C8D98131AC0E889F989808100
:100F200085FF15C09FB7F894EE89FF896083E88933
:100F3000F98980818370806480839FBF81E090E025
:100F4000DF91CF911F910F91FF90EF900895F62EB2
:100F50000B8D10E00F5F1F4F0F731127E02E8C8D4C
:100F60008E110CC00FB607FCFACFE889F989808191
:100F700085FFF5CFCE010E945E07F1CFEB8DEC0F20
:100F8000FD2FF11DE35AFF4FF0829FB7F8940B8FAE
:100F9000EA89FB8980818062CFCFCF93DF93EC0118
:100FA000888D8823B9F0AA89BB89E889F9898C9151
:100FB00085FD03C0808186FD0DC00FB607FCF7CF0D
:100FC0008C9185FFF2CF808185FFEDCFCE010E940D
:100FD0005E07E9CFDF91CF91089580E090E0892B03
:100FE00029F00E94540781110E94000080E090E0E7
:100FF000892B49F080E090E0892B29F00E940000C5
:1010000081110E94000080E090E0892B49F080E08F
:1010100090E0892B29F00E94000081110E940000BD
:1010200080E090E0892B49F080E090E0892B29F066
:101030000E94000081110C940000089581508231BB
:1010400008F05AC0E82FF0E08827E65DF74F8F4F91
:101050000C94222A4A084E083C08420846087C089C
:10106000510857085B086108650869086F0873082C
:101070007C0877087D088108809180008F778093B5
:1010800080000895809180008F7DF9CF809180004D
:10109000877FF5CF84B58F7784BD089584B58F7D24
:1010A000FBCF8091B0008F778093B000089580913E
:1010B000B0008F7DF9CF809190008F778093900062
:1010C0000895809190008F7DF9CF80919000877F67
:1010D000F5CF8091A0008F778093A0000895809134
:1010E000A0008F7DF9CF8091A000877FF5CF809100
:1010F00020018F77809320010895809120018F7DBA
:10110000F9CF80912001877FF5CFCF93DF93282FF0
:1011100030E0F901E754FD4F8491F901ED58FD4F9E
:10112000D491F901E35DFD4FC491CC23A1F081116D
:101130000E941E08EC2FF0E0EE0FFF1FED5EFD4F4A
:10114000A591B491EC91ED2381E090E009F480E069
:10115000DF91CF91089580E090E0FACF1F93CF9375
:10116000DF93282F30E0F901E754FD4F8491F90116
:10117000ED58FD4FD491F901E35DFD4FC491CC23AF
:10118000A9F0162F81110E941E08EC2FF0E0EE0F3F
:10119000FF1FE750FE4FA591B4918FB7F894EC91E3
:1011A000111108C0D095DE23DC938FBFDF91CF9162
:1011B0001F910895DE2BF8CFCF93DF9390E0FC01D1
:1011C000ED58FD4F2491835D9D4FFC018491882350
:1011D000D1F090E0880F991FFC01E152FE4FA591DC
:1011E000B491FC01E750FE4FC591D491623071F487
:1011F0009FB7F8943C91822F809583238C93E8814C
:101200002E2B28839FBFDF91CF9108958FB7F8943D
:10121000EC912E2B2C938FBFF6CF1F93CF93DF93A0
:10122000182FEB0161E00E94DC08209739F460E0A0
:10123000812FDF91CF911F910C94AE08CF3FD10544
:1012400011F461E0F5CFE12FF0E0E754FD4FE491B8
:10125000E150E23108F0B3C0F0E08827ED5CF64FD2
:101260008F4F0C94222A45094D0952095C096609E1
:10127000DF097009780980098A0994099E09AD0976
:10128000B709DF09C109CB09D50984B5806884BDD8
:10129000C7BDDF91CF911F91089584B5806284BD51
:1012A000C8BDF7CF80918000806880938000D09384
:1012B0008900C0938800EDCF809180008062809388
:1012C0008000D0938B00C0938A00E3CF8091800090
:1012D000886080938000D0938D00C0938C00D9CF1C
:1012E0008091B00080688093B000C093B300D1CFEC
:1012F0008091B00080628093B000C093B400C9CFE9
:1013000080919000806880939000D0939900C09362
:101310009800BFCF80919000806280939000D0931E
:101320009B00C0939A00B5CF809190008860809315
:101330009000D0939D00C0939C00ABCF8091A00003
:1013400080688093A0008091A0008F7B8093A00094
:10135000D093A900C093A8009CCF8091A000806288
:101360008093A000D093AB00C093AA0092CF80914D
:10137000A00088608093A000D093AD00C093AC0023
:1013800088CF80912001806880932001D09329012B
:10139000C09328017ECF809120018062809320013C
:1013A000D0932B01C0932A0174CF809120018860D3
:1013B00080932001D0932D01C0932C016ACFC038B7
:1013C000D1050CF03ECF33CF3FB7F894809139036D
:1013D00090913A03A0913B03B0913C0326B5A89BA2
:1013E00005C02F3F19F00196A11DB11D3FBFBA2FB7
:1013F000A92F982F8827BC01CD01620F711D811D77
:10140000911D42E0660F771F881F991F4A95D1F7FB
:1014100008958F929F92AF92BF92CF92DF92EF92F8
:10142000FF920E94E4094B015C018FE0C82ED12C91
:10143000E12CF12C0E94E409681979098A099B09B9
:10144000683E734081059105A8F321E0C21AD108D6
:10145000E108F10888EE880E83E0981EA11CB11CFB
:10146000C114D104E104F10429F7FF90EF90DF905B
:10147000CF90BF90AF909F908F9008952FB7F89422
:101480006091350370913603809137039091380352
:101490002FBF08950895833171F120F48231E9F16D
:1014A00080E008958431A9F08531D1F77093E50289
:1014B0006093E40283EF9AE0909305028093040224
:1014C000809169008C7F816080936900E89A81E057
:1014D00008957093E7026093E6028DEE9AE0909390
:1014E00007028093060280916900837F8460809365
:1014F0006900E99AECCF7093E9026093E80287EE05
:101500009AE09093090280930802809169008F7C91
:10151000806180936900EA9ADACF7093EB0260935E
:10152000EA0281EE9AE090930B0280930A02809186
:1015300069008F73806480936900EB9AC8CFDC01E7
:10154000ED91FD918081ED91FD919081ED91FD9165
:101550006C9163708E2309F064609F2309F06860CA
:10156000ECEBFAE0E60FF11D659565956D936D91D5
:101570007D918D919D91099423C01AC012C016C00F
:1015800010C01EC009C014C013C006C019C009C0D5
:101590000DC007C00DC014C0625070408040904024
:1015A0000BC0615070408040904006C06E5F01C02B
:1015B0006F5F7F4F8F4F9F4F9E938E937E936E935F
:1015C00008958091EA029091EB020C949F0A809119
:1015D000E8029091E9020C949F0A8091E6029091B2
:1015E000E7020C949F0A8091E4029091E5020C942A
:1015F0009F0A8091E2029091E3020C949F0A8091ED
:10160000E0029091E1020C949F0ACF93DF93EC01EA
:101610008B85823060F4F894CE010E949F0A6F811E
:10162000788589859A857894DF91CF910895F8948B
:10163000F6CF0F931F93CF93DF93EC01062F142F58
:1016400062E0802F0E94DC0862E0812F0E94DC08AB
:10165000802F90E0FC01E35DFD4FE491F0E0EE0FA0
:10166000FF1FED5EFD4FA591B491B983A883FC01E6
:10167000ED58FD4F24912C83812F90E0FC01E35D18
:10168000FD4FE491F0E0EE0FFF1FED5EFD4F459141
:1016900054915B834A83FC01ED58FD4FE491ED8347
:1016A0001F82188619861A868BE39FE10197F1F74E
:1016B0008C91282391E009F490E0DA018C91E823E1
:1016C00009F092609E83BE01802F0E944B0A8B8797
:1016D000BE01812F0E944B0A9B85890F8B87DF916A
:1016E000CF911F910F9108954F925F926F927F92C9
:1016F0008F929F92AF92BF92CF92DF92EF92FF9222
:101700000F931F93CF93DF931F921F92CDB7DEB736
:101710008C0149832A83660F771FF801EA5AFF4F2D
:10172000E080F180EE0CFF1CF801CF01801B910BD3
:101730008E159F0514F41192F8CF8981F801E60FF8
:10174000F71F81838A818083680184E5C80ED11CDC
:1017500060E0F60180810E94AE085801F2E5AF0E0C
:10176000B11C480180E5880E911C1E141F040CF565
:10177000E1E0EE1AF108F801EE0DFF1D6080F501C1
:101780005080F401408088E0782E662D661F662721
:10179000661F842D0E94AE08660C61E0852D0E94B4
:1017A000AE0860E0852D0E94AE087A947110EDCFEE
:1017B000DCCF61E0F60180810F900F90DF91CF9137
:1017C0001F910F91FF90EF90DF90CF90BF90AF905F
:1017D0009F908F907F906F905F904F900C94AE0889
:1017E0008F929F92AF92BF92CF92DF92EF92FF9231
:1017F0000F931F93CF93DF938C01D62EC72EEC014E
:10180000C05BDF4F688379834C0182E5880E911CB1
:10181000F401518340835801F4E5AF0EB11CF5018A
:10182000318320837801F6E5EF0EF11C81E090E032
:10183000F7019183808361E08D2D0E94DC0861E0D7
:10184000F40180810E94DC0861E0F50180810E9442
:10185000DC0861E0F50180810E94AE08D882C9826F
:10186000F80170965F011192EC17FD07E1F7D0E0E7
:10187000C0E0F70180819181C817D9070CF043C0FF
:1018800020E04FE0BE01C8010E94740BF701808187
:101890009181C817D90734F427E04BE0BE01C80195
:1018A0000E94740B20E049E0BE01C8010E94740B45
:1018B000F70180819181C817D907BCF44E0183E0FC
:1018C000880C991C8A95E1F78A0C9B1CDD24D39423
:1018D000F40111924F0120E04D2DBE01C8010E947C
:1018E000740BD394F9E0DF12F3CFF701808191817B
:1018F000C817D90734F420E04CE0BE01C8010E94AB
:10190000740B2196B6CFDF91CF911F910F91FF906D
:10191000EF90DF90CF90BF90AF909F908F90089501
:10192000FC01EA5AFF4F20813181121613068CF414
:10193000403178F4E42FF0E0E751F34F2491FC01BB
:10194000E60FF71F208B41E0460F70E060E00C943B
:10195000740B0895E42FDC01AA5ABF4F4D915C919E
:1019600014161506B4F4E7FDE0E20E2E000CFF0B92
:10197000E751F34FE4912111E068DC01A60FB71F96
:101980005096EC9341E0460F2E2F70E060E00C94EF
:10199000740B08958F929F92AF92BF92CF92DF9275
:1019A000EF92FF920F931F93CF93DF93C0905D034D
:1019B000D0905E03E0905F03F090600320913003CD
:1019C000309131034091320350913303C701B60186
:1019D0000E949427882309F48FC020E030E0A901F9
:1019E000C701B6010E94EA2920E030E040E05FE351
:1019F00087FD3EC3C701B6010E94D6280E94B429C4
:101A00000E949B2720E030E048EC52E40E944229EB
:101A10000E94B429162F609328037093290320E0B5
:101A200030E0A901C701B6010E94EA2920E030E0B8
:101A300040E05FE387FD21C3C701B6010E94D628BD
:101A40000E94B4290E949B2720E030E040E251E44C
:101A50000E9442290E94B429CB016AE070E00E94F2
:101A6000EF29D82F80932A0390932B0320E030E0B6
:101A7000A901C701B6010E94EA2920E030E040E058
:101A80005FE387FDFFC2C701B6010E94D6280E940E
:101A9000B4290E949B270E94B429CB016AE070E020
:101AA0000E94EF29C82F80932C0390932D03412F80
:101AB00067E070E08FE395E00E94900C4D2F66E0A8
:101AC00070E08FE395E00E94900C4C2F65E070E091
:101AD0008FE395E00E94900C80915D0390915E03EE
:101AE000A0915F03B0916003809330039093310322
:101AF000A0933203B0933303C0905903D0905A039C
:101B0000E0905B03F0905C0380904D0390904E0357
:101B1000A0904F03B09050032091240330912503EF
:101B20004091260350912703C701B6010E949427D4
:101B300081110FC0A50194016091200370912103D0
:101B400080912203909123030E949427882309F413
:101B500089C020E030E0A901C501B4010E949427AA
:101B600081119AC220E030E0A901C701B6010E94AC
:101B7000EA2920E030E040E05FE387FD88C2C7014A
:101B8000B6010E94D6280E94B429072E000C880BAB
:101B9000990B0E949B276B017C0120E030E048EC10
:101BA00052E40E9442290E94B429162F6093180320
:101BB0007093190320E030E040E251E4C701B60120
:101BC0000E9442290E94B4298AE0A82EB12CCB01A0
:101BD000B5010E94EF29D82F80931A0390931B031D
:101BE000C701B6010E94B429CB01B5010E94EF29BB
:101BF000C82F80931C0390931D03412F62E070E077
:101C00008FE395E00E94900C4D2F61E070E08FE330
:101C100095E00E94900C4C2F70E060E08FE395E01F
:101C20000E94900C8091590390915A03A0915B03FC
:101C3000B0915C038093240390932503A093260323
:101C4000B093270380914D0390914E03A0914F03D1
:101C5000B09150038093200390932103A09322031B
:101C6000B0932303C0905103D0905203E0905303EC
:101C7000F090540320911403309115034091160302
:101C800050911703C701B6010E949427882309F4D5
:101C90008FC020E030E0A901C701B6010E94EA2907
:101CA00020E030E040E05FE387FD64C2C701B60199
:101CB0000E94D6280E94B4290E949B2720E030E091
:101CC00048EC52E40E9442290E94B429162F6093E6
:101CD0000C0370930D0320E030E0A901C701B601A9
:101CE0000E94EA2920E030E040E05FE387FD47C240
:101CF000C701B6010E94D6280E94B4290E949B27E2
:101D000020E030E040E251E40E9442290E94B429E0
:101D1000CB016AE070E00E94EF29D82F80930E0378
:101D200090930F0320E030E0A901C701B6010E94A3
:101D3000EA2920E030E040E05FE387FD25C2C701EB
:101D4000B6010E94D6280E94B4290E949B270E94B7
:101D5000B429CB016AE070E00E94EF29C82F80937C
:101D6000100390931103412F67E070E087EE94E039
:101D70000E94900C4D2F66E070E087EE94E00E9488
:101D8000900C4C2F65E070E087EE94E00E94900C80
:101D90008091510390915203A0915303B091540349
:101DA0008093140390931503A0931603B093170325
:101DB000C0904903D0904A03E0904B03F0904C034D
:101DC00020E030E0A901C701B6010E9494278823D2
:101DD00009F479C020E030E0A901C701B6010E94F2
:101DE000EA2987FDD6C120E030E04AE754E4C70184
:101DF000B6010E94942787FFCCC120E030E040E08C
:101E00005FE3C701B6010E94D6280E94B4290E9450
:101E10009B276B017C0120E030E048EC52E40E94FB
:101E200042290E94B429CAE0D0E0CB01BE010E9441
:101E3000EF29082F809302039093030320E030E002
:101E400040E251E4C701B6010E9442290E94B42930
:101E5000CB01BE010E94EF29182F809304039093B9
:101E60000503C701B6010E94B429CB01BE010E943F
:101E7000EF29C82F809306039093070320E040E2E8
:101E800064E070E087EE94E00E94AA0C20E040E25B
:101E900063E070E087EE94E00E94AA0C402F62E0BD
:101EA00070E087EE94E00E94900C412F61E070E0BA
:101EB00087EE94E00E94900C4C2F70E060E087EE7B
:101EC00094E00E94900CC0904503D0904603E090AF
:101ED0004703F09048032091FE023091FF024091A9
:101EE000000350910103C701B6010E949427882383
:101EF00009F4F1C320E030E04AE754ECC701B60131
:101F00000E94942718160CF41DC320E030E0A901AC
:101F1000C701B6010E94942718160CF4F3C2A7015A
:101F2000960160E070E080E09FE30E94D5280E9467
:101F3000B4290E949B2720E030E04AE754E40E9445
:101F400042290E94B429CB016AE070E00E94EF2987
:101F5000082F8093F4029093F50220E030E0A9016D
:101F6000C701B6010E94942718160CF4D3C2A7012A
:101F7000960160E070E080E09FE30E94D5280E9417
:101F8000B4290E949B2720E030E048EC52E40E94F4
:101F900042290E94B429CB016AE070E00E94EF2937
:101FA000182F8093F6029093F70220E030E0A90109
:101FB000C701B6010E94942718160CF4B3C2A701FA
:101FC000960160E070E080E09FE30E94D5280E94C7
:101FD000B4290E949B2720E030E040E251E40E94B7
:101FE00042290E94B429CB016AE070E00E94EF29E7
:101FF000D82F8093F8029093F90220E030E0A901F5
:10200000C701B6010E94942718160CF493C2A701C9
:10201000960160E070E080E09FE30E94D5280E9476
:10202000B4290E949B270E94B429CB016AE070E08A
:102030000E94EF29C82F8093FA029093FB0220E0C0
:102040004DE267E070E08FE894E00E94AA0C20E087
:10205000402F66E070E08FE894E00E94AA0C412FC8
:1020600065E070E08FE894E00E94900C4D2FE4C290
:10207000C701B6010E94D528C1CCC701B6010E9494
:10208000D528DECCC701B6010E94D52800CDC701F6
:10209000B6010E94D52877CD20E030E040E85FE32C
:1020A000C501B4010E9494278111BCCD20E030E429
:1020B0004CE156E4C701B6010E94FA276B017C018E
:1020C00020E030E0A9010E94EA2920E030E040E071
:1020D0005FE387FD45C0C701B6010E94D6280E9474
:1020E000B4290E949B276B017C0120E030E04AE785
:1020F00054E40E9442290E94B429D62F60931A0307
:1021000070931B0320E030E048EC52E4C701B601B5
:102110000E9442296B017C0120E030E0A9010E946D
:10212000EA2920E030E040E05FE387FD1EC0C70100
:10213000B6010E94D6280E94B429CB016AE070E063
:102140000E94EF29C82F80931C0390931D0321E068
:1021500040E262E070E08FE395E00E94AA0C54CD6B
:10216000C701B6010E94D528BACFC701B6010E94A7
:10217000D528E1CFC701B6010E94D5289BCDC70164
:10218000B6010E94D528B8CDC701B6010E94D52856
:10219000DACD20E030E04AE754E4C701B6010E94FE
:1021A000EA2987FDCCC020E030E44CE156E4C701C9
:1021B000B6010E94942787FFC2C020E030E0A90149
:1021C000C701B6010E94EA2920E030E040E05FE369
:1021D00087FDA1C0C701B6010E94D6280E94B4297C
:1021E0000E949B2720E030E04AE754E40E94422905
:1021F0000E94B429CB016AE070E00E94EF29082F09
:10220000809302039093030320E030E0A901C7010B
:10221000B6010E94EA2920E030E040E05FE387FD5C
:102220007FC0C701B6010E94D6280E94B4290E942F
:102230009B2720E030E048EC52E40E9442290E94B3
:10224000B429CB016AE070E00E94EF29182F809337
:1022500004039093050320E030E0A901C701B60113
:102260000E94EA2920E030E040E05FE387FD5DC0A6
:10227000C701B6010E94D6280E94B4290E949B275C
:1022800020E030E040E251E40E9442290E94B4295B
:10229000CB016AE070E00E94EF29D82F80930603FB
:1022A0009093070320E030E0A901C701B6010E9426
:1022B000EA2920E030E040E05FE387FD3BC0C70152
:1022C000B6010E94D6280E94B4290E949B270E9432
:1022D000B429CB016AE070E00E94EF29C82F8093F7
:1022E00008039093090320E040E264E070E087EE89
:1022F00094E00E94AA0C402F63E070E087EE94E027
:102300000E94900C412F62E070E087EE94E00E9402
:10231000900C4D2FCBCDC701B6010E94D5285ECFC2
:10232000C701B6010E94D52880CFC701B6010E941F
:10233000D528A2CFC701B6010E94D528C4CF20E07E
:1023400030E44CE156E4C701B6010E94EA2987FD5A
:10235000BACD20E030E0A901C701B6010E94EA2908
:1023600020E030E040E05FE387FDB3C0C701B60185
:102370000E94D6280E94B4290E949B2720E030E4C6
:102380004CE156E40E9442290E94B429B62E609383
:1023900002037093030320E030E0A901C701B601F6
:1023A0000E94EA2920E030E040E05FE387FD96C02C
:1023B000C701B6010E94D6280E94B4290E949B271B
:1023C00020E030E04AE754E40E9442290E94B42908
:1023D000CB016AE070E00E94EF29082F809304038C
:1023E0009093050320E030E0A901C701B6010E94E7
:1023F000EA2920E030E040E05FE387FD74C0C701D8
:10240000B6010E94D6280E94B4290E949B2720E092
:1024100030E048EC52E40E9442290E94B429CB01EA
:102420006AE070E00E94EF29182F809306039093D2
:10243000070320E030E0A901C701B6010E94EA29A4
:1024400020E030E040E05FE387FD52C0C701B60105
:102450000E94D6280E94B4290E949B2720E030E0E9
:1024600040E251E40E9442290E94B429CB016AE073
:1024700070E00E94EF29D82F8093080390930903FE
:1024800020E030E0A901C701B6010E94EA2920E05E
:1024900030E040E05FE387FD30C0C701B6010E9435
:1024A000D6280E94B4290E949B270E94B429CB0100
:1024B0006AE070E00E94EF29C82F80930A0390938E
:1024C0000B034B2D64E070E087EE94E00E94900CCB
:1024D00012CFC701B6010E94D5284CCFC701B60163
:1024E0000E94D52869CFC701B6010E94D5288BCF9D
:1024F000C701B6010E94D528ADCFC701B6010E9421
:10250000D528CFCF20E030E040E05FE3C701B6013F
:1025100090580BCD20E030E040E05FE3C701B6010A
:1025200090582BCD20E030E040E05FE3C701B601DA
:1025300090584BCDC701B601905820E030E040E004
:102540005FE36BCD20E030E048E452ECC701B60118
:102550000E94942720E04DE2882309F473C120E013
:1025600030E04AE754ECC701B6010E94EA29181688
:102570000CF070C020E030E0A901C701B6010E9454
:10258000942787FF67C0A701960160E070E080E0B4
:102590009FE30E94D5280E94B4290E949B276B01CB
:1025A0007C0120E030E048EC52E40E9442290E9485
:1025B000B429CAE0D0E0CB01BE010E94EF29082F68
:1025C0008093F4029093F50220E030E040E251E481
:1025D000C701B6010E9442290E94B429CB01BE0165
:1025E0000E94EF29182F8093F6029093F702C701FB
:1025F000B6010E94B429CB01BE010E94EF29C82F69
:102600008093F8029093F90220E04DE267E070E0D9
:102610008FE894E00E94AA0C20E040E266E070E0BF
:102620008FE894E00E94AA0C402F65E070E08FE8EC
:1026300094E00E94900C412F64E070E08FE894E0F9
:102640000E94900C4C2F63E070E08FE894E00E94B1
:10265000900C31C020E030E0A901C701B6010E9412
:1026600094278111E3C020E040E267E070E08FE84A
:1026700094E00E94AA0C20E040E266E070E08FE85F
:1026800094E00E94AA0C20E040E265E070E08FE850
:1026900094E00E94AA0C20E040E264E070E08FE841
:1026A00094E00E94AA0C20E040E263E070E08FE832
:1026B00094E00E94AA0C8091450390914603A0915A
:1026C0004703B09148038093FE029093FF02A093CA
:1026D0000003B0930103C0904103D0904203E09007
:1026E0004303F090440320E030E0A901C701B601A4
:1026F0000E949427882309F48CC020E030E0A901CF
:10270000C701B6010E94EA2920E030E040E05FE323
:1027100087FDD5C1C701B6010E94D6280E94B42901
:102720000E949B2720E030E048EC52E40E944229BE
:102730000E94B429CB016AE070E00E94EF29D82FF3
:102740008093EC029093ED0220E030E0A901C701F4
:10275000B6010E94EA2920E030E040E05FE387FD17
:10276000B3C1C701B6010E94D6280E94B4290E94B5
:102770009B2720E030E040E251E40E9442290E9481
:10278000B429CB016AE070E00E94EF29C82F809342
:10279000EE029093EF0220E030E0A901C701B601FC
:1027A0000E94EA2920E030E040E05FE387FD91C12C
:1027B000C701B6010E94D6280E94B4290E949B2717
:1027C0000E94B429CB016AE070E00E94EF29F82E44
:1027D0008093F0029093F1024D2F62E070E08FE859
:1027E00094E00E94900C4C2F61E070E08FE894E040
:1027F0000E94900C4F2D70E060E08FE894E00E9402
:10280000900C1092410310924203109243031092D5
:102810004403DF91CF911F910F91FF90EF90DF90D4
:10282000CF90BF90AF909F908F90089520E030E0C0
:1028300048E452E4C701B6010E949427811123C0E5
:1028400020E040E267E070E08FE894E00E94AA0C8C
:1028500020E040E266E070E08FE894E00E94AA0C7D
:1028600020E040E265E070E08FE894E00E94AA0C6E
:1028700020E045E064E070E08FE894E00E94AA0C5C
:1028800020E040E012CF20E030E0A901C701B6010E
:102890000E94EA2920E030E04AE754E418160CF0E0
:1028A0004AC0C701B6010E94942787FF17C120E0E4
:1028B00030E040E05FE3C701B6010E94D6280E94E5
:1028C000B4290E949B276B017C0120E030E048EC9A
:1028D00052E40E9442290E94B429CAE0D0E0CB0110
:1028E000BE010E94EF29082F8093F4029093F50215
:1028F00020E030E040E251E4C701B6010E944229E5
:102900000E94B429CB01BE010E94EF29182F8093A9
:10291000F6029093F702C701B6010E94B429CB01D9
:10292000BE010E94EF29C82F8093F8029093F9020C
:1029300020E040E26BCEC701B6010E94EA2987FD84
:10294000BACE20E030E0A901C701B6010E94EA2911
:1029500087FD9DC020E030E040E05FE3C701B601A5
:102960000E94D6280E94B4290E949B2720E030E0D4
:102970004AE754E40E9442290E94B429CB016AE04C
:1029800070E00E94EF29082F8093F4029093F502E3
:1029900020E030E0A901C701B6010E94EA2920E049
:1029A00030E040E05FE387FD7BC0C701B6010E94D5
:1029B000D6280E94B4290E949B2720E030E048ECF2
:1029C00052E40E9442290E94B429CB016AE070E0DF
:1029D0000E94EF29182F8093F6029093F70220E0CF
:1029E00030E0A901C701B6010E94EA2920E030E0E9
:1029F00040E05FE387FD59C0C701B6010E94D628B9
:102A00000E94B4290E949B2720E030E040E251E47C
:102A10000E9442290E94B429CB016AE070E00E9422
:102A2000EF29D82F8093F8029093F90220E030E04C
:102A3000A901C701B6010E94EA2920E030E040E088
:102A40005FE387FD37C0C701B6010E94D6280E9408
:102A5000B4290E949B270E94B429CB016AE070E050
:102A60000E94EF29C82F8093FA029093FB0220E086
:102A700040E267E070E08FE894E00E94AA0C402FEB
:102A800066E070E08FE894E00E94900CE8CA20E0D5
:102A900030E040E05FE3C701B6010E94D52862CF75
:102AA000C701B6010E94D52884CFC701B6010E9494
:102AB000D528A6CFC701B6010E94D528C8CFC70127
:102AC000B6010E94D5282ACEC701B6010E94D5289A
:102AD0004CCEC701B6010E94D5286ECE20E030E072
:102AE0004AE754E4C701B6010E94EA2987FF32CFC2
:102AF000E2CDFC01EA5AFF4F208131811216130604
:102B00004CF46031710530F4262F4AE070E060E04B
:102B10000C94740B0895FB0101900020E9F73197A4
:102B2000AF01461B570BDC01ED91FC910280F38154
:102B3000E02D19946EEC76E0809134069091350684
:102B40000E948B15EEECF6E001900020E9F7EF50C3
:102B5000F74041F46AE272E08091340690913506C4
:102B60000C948B150895CF93DF93EC011982188292
:102B70001B821A821D821C8261E070E090E080E07E
:102B80000E94852B0097A1F0998388831B821A826B
:102B90002C813D81232B11F4FC0110821D821C82AB
:102BA0006BE272E088819981DF91CF910C946F2C58
:102BB00088819981009711F00E94FC2A198218825D
:102BC0001D821C821B821A82DF91CF910895880F8B
:102BD000991FFC01E65CF74F0190F081E02D3097E2
:102BE00049F18081918197FD22C01F922EE32F939E
:102BF0001F9221E02F939F938F931F928BE68F93C9
:102C00001F928CE38F938CE292E09F938F938EECD4
:102C100096E09F938F930E94842C0E949A158DB703
:102C20009EB70E960FB6F8949EBF0FBE8DBF90E074
:102C300080E008958FEF9FEF0895FC0186819781D2
:102C4000208531858217930761F091878087281747
:102C5000390724F4828193810C94E715848195814E
:102C6000FBCF089577FD1EC01F922EE32F937F9315
:102C70006F939F938F931F928CE38F938AE392E0DD
:102C80009F938F938EEC96E09F938F930E94842C5A
:102C90008DB79EB70C960FB6F8949EBF0FBE8DBF32
:102CA0000C949A1508950F931F93CF93DF93C091BF
:102CB0000409D0910509C436D1056CF58C0180E179
:102CC00090E00E94602AFC01DE01AA0FBB1FA65CF7
:102CD000B74FED93FC9315830483138212821386FE
:102CE000128681E090E0958784878FEF9FEF918334
:102CF000808397878687CE010196909305098093FC
:102D000004091092070910920609CE01DF91CF91B4
:102D10001F910F910895CFEFDFEFF7CF4F925F92A2
:102D20006F927F928F929F92AF92BF92CF92DF92DB
:102D3000EF92FF920F931F93CF93DF93C0910209FD
:102D4000D0910309C436D1050CF04FC047012801CA
:102D500039017A016B015C0184E290E00E94602AF3
:102D6000FC01DE01AA0FBB1FAE58B84FED93FC93D8
:102D7000B78AA68A158A148AD382C282468257826B
:102D800060867186A70170E060E04487558766879A
:102D9000778781E090E095838483918E808E128E78
:102DA000138E148E158E13A212A28FEF9FEF9183B4
:102DB0008083CE01019690930309809302091092BB
:102DC000070910920609CE01DF91CF911F910F9153
:102DD000FF90EF90DF90CF90BF90AF909F908F903B
:102DE0007F906F905F904F900895CFEFDFEFEBCF24
:102DF000EF92FF920F931F93CF93DF93C09102093D
:102E0000D0910309C436D1050CF048C08B017C0178
:102E100084E290E00E94602AFC01DE01AA0FBB1F41
:102E2000AE58B84FED93FC93F78AE68A158A148A58
:102E300081E090E09383828382E090E095838483B5
:102E4000118F008F80E090E0A0E8BFEB868F978F16
:102E5000A0A3B1A384E690E0A0E0B0E084879587CA
:102E6000A687B787168217821086118613A212A230
:102E70008FEF9FEF91838083CE010196909303099A
:102E8000809302091092070910920609CE01DF9182
:102E9000CF911F910F91FF90EF900895CFEFDFEF4B
:102EA000F5CFEF92FF920F931F93CF93DF93C091D3
:102EB0000409D0910509C436D105C4F5072F162F92
:102EC0007C0180E190E00E94602AFC01CC0FDD1FB4
:102ED000C65CD74FF983E883F582E48213821282BD
:102EE0001386128681E090E0958784878FEF9FEFAD
:102EF000918380831687078762E0812F0E94DC0818
:102F000080910409909105099C012F5F3F4F3093F8
:102F10000509209304091092070910920609DF9110
:102F2000CF911F910F91FF90EF9008958FEF9FEF3A
:102F3000F6CF1F93CF93DF93C4E3D6E01F811F82A8
:102F400088E396E00E94B3251F83DF91CF911F9104
:102F500008951F920F920FB60F9211240BB60F9285
:102F60002F933F934F935F936F937F938F939F9391
:102F7000AF93BF93EF93FF9387E995E00E945E07BD
:102F8000FF91EF91BF91AF919F918F917F916F9141
:102F90005F914F913F912F910F900BBE0F900FBEFD
:102FA0000F901F9018951F920F920FB60F92112439
:102FB0000BB60F922F938F939F93EF93FF93E09114
:102FC000A705F091A8058081E091AD05F091AE05CF
:102FD00082FD1DC090818091B0058F5F8F7320911D
:102FE000B105821741F0E091B005F0E0E956FA4FE3
:102FF000958F8093B005FF91EF919F918F912F91C5
:103000000F900BBE0F900FBE0F901F9018958081F0
:10301000F2CF1F920F920FB60F9211242F933F936E
:103020008F939F93AF93BF93809135039091360315
:10303000A0913703B09138033091340323E0230F7C
:103040002D3758F50196A11DB11D209334038093AF
:10305000350390933603A0933703B09338038091E0
:10306000390390913A03A0913B03B0913C03019640
:10307000A11DB11D8093390390933A03A0933B03A4
:10308000B0933C03BF91AF919F918F913F912F914E
:103090000F900FBE0F901F90189526E8230F0296F1
:1030A000A11DB11DD2CF1F920F920FB60F92112406
:1030B0000BB60F922F933F934F935F936F937F9332
:1030C0008F939F93AF93BF93EF93FF93E0910E0283
:1030D000F0910F021995FF91EF91BF91AF919F91E0
:1030E0008F917F916F915F914F913F912F910F90B1
:1030F0000BBE0F900FBE0F901F9018951F920F924E
:103100000FB60F9211240BB60F922F933F934F934C
:103110005F936F937F938F939F93AF93BF93EF933F
:10312000FF93E0910C02F0910D021995FF91EF9140
:10313000BF91AF919F918F917F916F915F914F91CF
:103140003F912F910F900BBE0F900FBE0F901F90CD
:1031500018951F920F920FB60F9211240BB60F9273
:103160002F933F934F935F936F937F938F939F938F
:10317000AF93BF93EF93FF93E0910202F0910302AC
:103180001995FF91EF91BF91AF919F918F917F9191
:103190006F915F914F913F912F910F900BBE0F90C8
:1031A0000FBE0F901F9018951F920F920FB60F929F
:1031B00011240BB60F922F933F934F935F936F930E
:1031C0007F938F939F93AF93BF93EF93FF93E09180
:1031D0000002F09101021995FF91EF91BF91AF911B
:1031E0009F918F917F916F915F914F913F912F911F
:1031F0000F900BBE0F900FBE0F901F9018951F924F
:103200000F920FB60F9211240BB60F922F933F938C
:103210004F935F936F937F938F939F93AF93BF93DE
:10322000EF93FF93E0910A02F0910B021995FF9141
:10323000EF91BF91AF919F918F917F916F915F912E
:103240004F913F912F910F900BBE0F900FBE0F909B
:103250001F9018951F920F920FB60F9211240BB664
:103260000F922F933F934F935F936F937F938F931F
:103270009F93AF93BF93EF93FF93E0910802F09178
:1032800009021995FF91EF91BF91AF919F918F9195
:103290007F916F915F914F913F912F910F900BBE56
:1032A0000F900FBE0F901F9018951F920F920FB6A0
:1032B0000F9211240BB60F922F933F934F935F936E
:1032C0006F937F938F939F93AF93BF93EF93FF93EE
:1032D000E0910602F09107021995FF91EF91BF91DD
:1032E000AF919F918F917F916F915F914F913F919E
:1032F0002F910F900BBE0F900FBE0F901F9018953F
:103300001F920F920FB60F9211240BB60F922F93AC
:103310003F934F935F936F937F938F939F93AF935D
:10332000BF93EF93FF93E0910402F091050219958A
:10333000FF91EF91BF91AF919F918F917F916F918D
:103340005F914F913F912F910F900BBE0F900FBE49
:103350000F901F9018958BBFFB0107900020E9F795
:10336000609570956E0F7F1FCB010895FA016BBFBA
:10337000DC012150304030F08D910790801919F414
:103380000020B9F7881B990B0895E7E9F5E013824F
:1033900012828CE192E09183808385EC90E09587A6
:1033A000848784EC90E09787868780EC90E0918B0F
:1033B000808B81EC90E0938B828B82EC90E0958BFC
:1033C000848B86EC90E0978B868B118E128E138EF9
:1033D000148EF0933506E093340684EF91E0A0E07C
:1033E000B0E084839583A683B7832FE230E040E387
:1033F00050E06EE270E08FE395E00E94F00B24E273
:1034000030E043E250E062E270E087EE94E00E9438
:10341000F00B2EE130E04CE150E06FE170E08FE81E
:1034200094E00E94F00B45E364E383E894E00E949B
:10343000190B47E265E287E794E00E94190B41E22D
:1034400060E28BE694E00E94190B4FE06EE08FE59E
:1034500094E00E94190B4DE06CE083E594E00E943B
:10346000190B4DE16AE187E494E00E94190B81E4B5
:1034700094E00E94B3158BE394E00C94B315789418
:1034800084B5826084BD84B5816084BD85B5826069
:1034900085BD85B5816085BD80916E00816080931A
:1034A0006E00109281008091810082608093810083
:1034B0008091810081608093810080918000816093
:1034C000809380008091B10084608093B1008091EE
:1034D000B00081608093B000809191008260809301
:1034E0009100809191008160809391008091900083
:1034F0008160809390008091A10082608093A10000
:103500008091A10081608093A1008091A0008160E2
:103510008093A0008091210182608093210180919D
:10352000210181608093210180912001816080933D
:10353000200180917A00846080937A0080917A00E3
:10354000826080937A0080917A00816080937A0013
:1035500080917A00806880937A001092C100F8947C
:1035600010924E0410924F04109250041092510485
:103570007894F89410927E0410927F041092800444
:10358000109281047894F89410927204109273044B
:1035900010927404109275047894F8941092660452
:1035A0001092670410926804109269047894F89459
:1035B00010925A0410925B0410925C0410925D0405
:1035C0007894F89410928A0410928B0410928C04D0
:1035D00010928D04789462E080918B030E94DC0845
:1035E000CFEFDFEFD0939403C093930362E0809119
:1035F0007D030E94DC08D0938603C093850362E0BC
:1036000080916F030E94DC08D0937803C093770306
:1036100062E0809161030E94DC08D0936A03C0934A
:10362000690380919505909196051816190644F442
:1036300021E04CE070E060E08FE395E00E94740BC5
:10364000C0911002D0911102BE018FE395E00E945B
:10365000791580913D0590913E051816190644F4A0
:1036600021E04CE070E060E087EE94E00E94740B93
:10367000BE0187EE94E00E9479158091E504909157
:10368000E6041816190644F421E04CE070E060E00E
:103690008FE894E00E94740BBE018FE894E00E94D2
:1036A00079150E94CA0C62E082E30E94DC0862E0A5
:1036B0008EE30E94DC0862E081E30E94DC0862E0A5
:1036C0008AE20E94DC0862E080E40E94DC0862E09A
:1036D0008BE30E94DC0862E08CE30E94DC0862E07D
:1036E0008BE20E94DC0862E083E30E94DC0862E077
:1036F00087E30E94DC0862E08AE30E94DC0862E063
:1037000085E40E94DC0862E084E10E94DC0862E05B
:1037100087E00E94DC0862E086E10E94DC0862E04B
:1037200083E00E94DC0862E084E00E94DC0862E042
:103730008BE00E94DC0862E089E00E94DC0862E025
:1037400089E10E94DC0862E08BE10E94DC0861E014
:1037500082E00E94DC0870E060E082E00E940D09D7
:10376000E091A705F091A80582E08083E091A30590
:10377000F091A4051082E091A505F091A60580E1E5
:1037800080831092AF05E091AB05F091AC0586E027
:103790008083E091A905F091AA05808180618083F2
:1037A000E091A905F091AA05808188608083E0916D
:1037B000A905F091AA05808180688083E091A90520
:1037C000F091AA0580818F7D808386E492E09093BA
:1037D0007107809370071092670710926607109226
:1037E000030910920209109205091092040910921F
:1037F0000709109206091092360609EDE02E03E043
:10380000F02E00E010E0980144E650E061E070E046
:1038100088EC9CE00E948E1685EDE82E83E0F82E61
:1038200000E010E0980144E650E061E070E083EAD7
:103830009CE00E948E1691EDE92E93E0F92E00E0B7
:1038400010E0980144E650E061E070E08DE79CE014
:103850000E948E162DECE22E23E0F22E00E010E006
:10386000980144E650E061E070E089E59CE00E9448
:103870008E1639ECE32E33E0F32E00E010E09801D1
:1038800044E650E061E070E086E39CE00E948E1622
:1038900045ECE42E43E0F42E00E010E0980144E60D
:1038A00050E061E070E081E19CE00E948E1651ECF6
:1038B000E52E53E0F52E00E010E0980144E650E0DC
:1038C00061E070E08FEE9BE00E948E166DEBE62EBD
:1038D00063E0F62E00E010E0980144E650E061E07D
:1038E00070E089EC9BE00E948E1679EBE72E73E086
:1038F000F72E00E010E0980144E650E061E070E04F
:1039000083EA9BE00E948E16E5EBEE2EE3E0FE2EAE
:1039100000E010E0980144E650E061E070E082E8E9
:103920009BE00E948E16F1EBEF2EF3E0FF2E00E0FD
:1039300010E0980144E650E061E070E08EE59BE025
:103940000E948E16ADEAEA2EA3E0FA2E00E010E007
:10395000980144E650E061E070E08AE39BE00E9459
:103960008E16B9EAEB2EB3E0FB2E00E010E09801D2
:1039700044E650E061E070E086E19BE00E948E1634
:10398000C5EAEC2EC3E0FC2E00E010E0980144E60E
:1039900050E061E070E082EF9AE00E948E16D1EA7A
:1039A000ED2ED3E0FD2E00E010E0980144E650E05B
:1039B00061E070E086EC9AE00E948E161DE9E12E2F
:1039C00013E0F12E00E010E0980144E650E061E0E1
:1039D00070E08CE99AE00E948E1609E9E02E03E07F
:1039E000F02E00E010E0980144E650E061E070E065
:1039F00084E79AE00E948E1661E370E084E59AE025
:103A00000E9451176AE270E081E39AE00E94511728
:103A10006CE370E08FE09AE00E9451176BE270E077
:103A20008AEE99E00E94511763E370E085EC99E01B
:103A30000E94511767E370E083EA99E00E945117F2
:103A40006AE370E08FE799E00E94511765E470E047
:103A50008EE599E00E94511764E170E089E399E0F6
:103A60000E94511766E170E089E199E00E945117C8
:103A700063E070E086EF98E00E94511764E070E028
:103A800083ED98E00E9451176BE070E080EB98E0C6
:103A90000E94511769E070E08DE898E00E9451178C
:103AA0006BE370E08BE698E00E94511767E070E0EE
:103AB00089E498E00E94511760E470E080E298E0A9
:103AC0000E94511787EEE82E83E0F82E00E010E008
:103AD00028EC32E450E040E062E070E08AEF97E0EA
:103AE0000E948E1693EEE92E93E0F92E00E010E08E
:103AF00028EC32E450E040E062E070E084ED97E0D2
:103B00000E948E162BEEE22E23E0F22E00E010E053
:103B100028EC32E450E040E062E070E08DEA97E0AB
:103B20000E948E163FEDE32E33E0F32E00E010E00E
:103B300028EC32E450E040E061E070E087E897E094
:103B40000E948E168EE597E00E9453169093DE0336
:103B50008093DD03C0910209D0910309C436D105D9
:103B6000ECF584E290E00E94602AFC01DE01AA0FDD
:103B7000BB1FAE58B84F8D939C93178A168A83E566
:103B800092E0958B848B81E090E09383828382E046
:103B900090E09583848381E394E0918F808F168EEB
:103BA000178E10A211A284E690E0A0E0B0E0848716
:103BB0009587A687B787168217821086118613A26B
:103BC00012A28FEF9FEF918380832196D0930309F8
:103BD000C093020910920709109206096DE573E07F
:103BE0008AE397E00E94F81669E573E08BE097E0BE
:103BF0000E94F81665E5E62E63E0F62E00E010E080
:103C0000980144E650E061E070E08BEE96E00E949F
:103C10008E1661E573E087EC96E00E94F8166DE47D
:103C200073E080EA96E00E94F81669E473E08CE79E
:103C300096E00E94F81665E473E08AE596E00E943B
:103C4000F81661E473E084E396E00E94F8167DE3E1
:103C5000E72E73E0F72E00E010E0980144E650E014
:103C600061E070E08FE096E00E948E1686EE95E0AF
:103C70000E94531690932804809327048DEB95E0BF
:103C80000E94531690932A048093290483EA95E0B6
:103C90000E94531690931E0480931D0487E895E0BC
:103CA0000E9453169093200480931F0485E695E0AC
:103CB0000E945316909314048093130483E495E0B8
:103CC0000E945316909316048093150480E295E0A9
:103CD0000E94531690930A04809309048DEF94E098
:103CE0000E94531690930C0480930B048DED94E086
:103CF0000E945316909300048093FF038BEB94E093
:103D00000E945316909302048093010484E994E086
:103D10000E9453169093F6038093F5038DE694E08A
:103D20000E9453169093F8038093F7038CE394E07A
:103D30000E94531690938E0380938D038BE094E042
:103D40000E9453169093900380938F038DED93E020
:103D50000E9453169093800380937F038FEA93E031
:103D60000E945316909382038093810380E893E02E
:103D70000E945316909372038093710381E593E040
:103D80000E945316909374038093730388E293E028
:103D90000E94531690936403809363038FEF92E025
:103DA0000E9453169093660380936503EEEC6E2E8B
:103DB000E6E07E2EF4E08F2E912CA12CB12C809188
:103DC000340690913506DC01ED91FC910084F1857B
:103DD000E02D199520913606892B81F02C3381F046
:103DE0008091340690913506DC01ED91FC910284BE
:103DF000F385E02D199580933606E1CF2C33C1F57C
:103E0000009134061091350657E3E52E56E0F52E65
:103E1000D0E0C0E00E943E0AF80160877187828787
:103E20009387D801ED91FC910284F385E02DC801C0
:103E3000199597FF54C60E943E0AF80120853185E6
:103E400042855385621B730B840B950B248135814E
:103E500046815781621773078407950710F3D09343
:103E6000CD06C093CC06209709F063C010923606A9
:103E70008091060990910709892B09F45DC484E3B8
:103E8000C82E86E0D82EF12CE12C80910209909169
:103E90000309E816F9060CF4E0C2CAE3D8E010E022
:103EA00000E08091040990910509081719070CF0AA
:103EB00043C4E881F9818081918197FD36C00E94D9
:103EC0003E0AE881F981C680D780E084F1846C19CC
:103ED0007D098E099F096D3271408105910528F198
:103EE0008685978597FDFEC30E9485087C01E88141
:103EF000F98184859585E816F906B9F060817181AC
:103F000081E0E816F10409F0E8C38AE690E00E9437
:103F100032160E943E0AE881F981668377838087A2
:103F20009187E881F981F586E4860F5F1F4F22961D
:103F3000B8CFFE01EC5CF94F2EE323832296D09399
:103F4000CD06C093CC06CC5CD94F1A82809137063F
:103F5000813609F44EC074F4833309F499C0843374
:103F600009F4EBC0823309F081CF109267071092F9
:103F700066077CCF853609F4FAC1863611F184369E
:103F800009F074CFE2E7F7E090E080E041E050E034
:103F90002091020930910309821793070CF066CF34
:103FA000A191B19112962D913C9113972250310914
:103FB0002230310520F41B965C934E931A9701969C
:103FC000E7CF2091020930910309E2E7F7E090E0A2
:103FD00080E0821793070CF074C18436910509F4D0
:103FE00070C1C191D1914881598157FDFBC00196A3
:103FF000F0CF80917007909171070097E1F01F92C8
:104000002F939F938F931F9280E38F931F928CE344
:104010008F938AE792E09F938F937F926F920E9493
:10402000842C0E949A15EDB7FEB73C960FB6F89413
:10403000FEBF0FBEEDBF81E090E0909367078093D5
:104040006607E2E7F7E090E080E020910209309116
:10405000030982179307A4F0EAE3F8E090E080E018
:104060002091040930910509821793070CF0FECEC8
:10407000A191B1912FEF3FEF2D933C930196F0CF9B
:10408000A191B1912FEF3FEF2D933C930196DDCF9E
:10409000D0E0C0E08091020990910309C817D907C8
:1040A0000CF0E4CEFE01EE0FFF1FEE58F84F00813A
:1040B0001181D80154966D917C9161157105F1F0D3
:1040C000FB0101900020E9F73197AF01461B570B28
:1040D0008BE396E00E94762C892B71F4F8018081A5
:1040E0009181019649F40E949917D8018D939C9370
:1040F000C0910209D09103092196CCCFF801C6885E
:10410000D7880D2C000CEE08FF08C701B6010E94ED
:10411000AB199C01B701A6018BE396E00E94B6198A
:10412000892B51F7D8018D919C91019629F70E9416
:104130009917F80191838083DBCFD0E0C0E08091B4
:10414000040990910509C817D9070CF08FCEFE011C
:10415000EE0FFF1FE65CF74F00811181D801129628
:104160006D917C9161157105F1F0FB0101900020CA
:10417000E9F73197AF01461B570B8BE396E00E949E
:10418000762C892B71F4F80180819181019649F494
:104190000E949917D8018D939C93C0910409D091E6
:1041A00005092196CCCFF801C480D5800D2C000CD8
:1041B000EE08FF08C701B6010E94AB199C01B701C8
:1041C000A6018BE396E00E94B619892B51F7D8011E
:1041D0008D919C91019629F70E949917F80191837E
:1041E0008083DBCF0C891D89CE80DF80E884F98451
:1041F00020E030E048EC52E4C701B6010E94FA2703
:104200000E94B429CB0164E670E00E94EF29582E89
:10421000492EC701B6010E94B4292AA13BA18A8177
:104220009B810115110539F11F924EE34F931F93A6
:104230000F934F925F927F936F933F932F939F9330
:104240008F931F9282E68F931F928CE38F9383E864
:1042500092E09F938F937F926F920E94842C2DB750
:104260003EB72C5E3F4F0FB6F8943EBF0FBE2DBF3A
:104270000E949A15FBCD1F924EE34F934F894F93A7
:104280004E894F934F925F927F936F933F932F93FB
:104290009F938F931F9282E68F931F928CE38F934D
:1042A0008FE992E09F938F937F926F920E94842C6C
:1042B0008DB79EB744960FB6F8949EBF0FBE8DBFC4
:1042C000D7CFAAE3B8E090E080E0209104093091D4
:1042D0000509821793070CF00FC48436910509F481
:1042E0000BC4ED91FD912081318137FD02C0019613
:1042F000ECCF828193810097E1F01F922EE32F9300
:104300009F938F931F928DE68F931F928CE38F93D1
:104310008AE792E09F938F937F926F920E94842C02
:10432000ADB7BEB71C960FB6F894BEBF0FBEADBFFB
:104330009FCF1F928EE38F9385818F9384818F937C
:104340001F928DE68F931F928CE38F938BEB92E0FD
:104350009F938F937F926F920E94842CEDB7FEB74C
:104360003C960FB6F894FEBF0FBEEDBF81CF0E9402
:1043700099177C0190E080E02091020930910309B7
:10438000821793070CF072CDEC01C156DF4F8E01FE
:10439000000F111F0C5C194FD801ED91FC91208189
:1043A0003181E216F30609F056C0228133812D7F58
:1043B0002130310509F04FC0848195810197F9F4CE
:1043C000C08CD18C50904506109245068BE396E048
:1043D0000E94D125F601608371838283938350927A
:1043E0004506D801ED91FC91A08DB18D8D919D91E7
:1043F0000D90BC91A02D828F938FA48FB58FCC0F81
:10440000DD1FCC5CD94FE881F981848195810297C9
:10441000F1F4008D118DD0904506109245068BE386
:1044200096E00E94AF25F8016083718382839383B5
:10443000D0924506E881F981A08DB18D8D919D9135
:104440000D90BC91A02D868F978FA0A3B1A38091D2
:1044500002099091030901968FCFE601C25CDE4FFD
:10446000A881B9818D919C91119797FD11C01296E9
:104470008D919C9113970297029750F414968D9109
:104480009C9115978130910551F0029709F485C0F0
:10449000FFEFEF1AFF0A22E0C20ED11CF6CC5896AD
:1044A000ED91FC91599740815181628173815A96B7
:1044B0008D919D910D90BC91A02D481759076A07C9
:1044C0007B0731F30E943E0AE881F9810089118956
:1044D00022893389AB01BC01401B510B620B730B6A
:1044E00084859585A685B78521E0892B8A2B8B2B22
:1044F00029F482859385892B09F420E0822F90E0AE
:10450000B0E0A0E084179507A607B70708F68081FA
:10451000918197FD25C01F922EE32F93008CF18D82
:10452000E02D21812F9320812F939F938F931F92B2
:1045300035E63F931F928CE38F93ACE2B2E0BF93DA
:10454000AF937F926F920E94842C0E949A152DB790
:104550003EB7225F3F4F0FB6F8943EBF0FBE2DBF50
:10456000E881F981A08DB18D8D919D910D90BC91C7
:10457000A02D828F938FA48FB58F088119810E94FF
:104580003E0AD80150966D937D938D939C935397DB
:10459000E881F981138612867BCF5896ED91FC91C4
:1045A00059975E962D913D914D915C9191976081C7
:1045B0007181828193810E949427811177C0E88163
:1045C000F98182859385892B09F462CFE881F9818D
:1045D0000081118117FD53C0008CF18DE02D2080EA
:1045E0003180428053801F92BEE3BF9320E030E0D1
:1045F00048EC52E4C201B1010E94FA270E94B4299A
:10460000CB0164E670E00E94EF2997FF03C091950B
:10461000819591099F938F93C201B1010E94B429A2
:104620009B0177FF04C022273327261B370B3F93BC
:104630002F931F930F931F92E5E6EF931F92FCE3D6
:10464000FF9324EC32E03F932F937F926F920E946E
:10465000842CADB7BEB750960FB6F894BEBF0FBE50
:10466000ADBF20E030E0A901C201B1010E94942752
:1046700087FF03C0BDE2B093D3060E949A15E8817C
:10468000F981A08DB18D8D919D910D90BC91A02D42
:10469000868F978FA0A3B1A3088119810E943E0A3B
:1046A000F801608B718B828B938B72CF0E943E0AD4
:1046B000E881F9810089118922893389601B710B96
:1046C000820B930B048515852685378506171707FA
:1046D0002807390708F073CF79CF89E690E00E9468
:1046E00032161FCCA285B385109709F41ECC8D918C
:1046F0009C91248535858217930709F416CC608137
:10470000718118161906ACF48AE690E00E94321600
:10471000E881F981A285B3858D919C9195878487E5
:104720000E943E0AE881F9816683778380879187BA
:10473000FCCB89E690E0EACF8091060990910709C9
:10474000892B09F4B5C18091390490913A04892BE1
:1047500001F1D0E0C0E0BE0182E00E940D090E949C
:10476000090A2196C11591E0D907A9F7CFEFD0E04A
:10477000BE0182E00E940D090E94090A2197C0F73C
:104780006FE770E082E00E940D0910923A041092E7
:104790003904C0903104D0903204E0903304F0909A
:1047A0003404A7019601609135047091360480911C
:1047B0003704909138040E949427882309F44EC04E
:1047C00020E030E04FE753E4C701B6010E94FA272A
:1047D00020E030E0A9010E94D6280E94B4297093FD
:1047E00011026093100282E00E940D0920E030E087
:1047F00040E850E4609131047091320480913304B8
:10480000909134040E94FA2720E030E0A9010E9430
:10481000D6280E94B4296B017093300460932F0452
:104820008FE395E00E947915B60187EE94E00E942F
:104830007915B6018FE894E00E94791580913104D2
:1048400090913204A0913304B091340480933504E4
:1048500090933604A0933704B093380487E494E02F
:104860000E94050BA50194010E94032A30932C0499
:1048700020932B0487E794E00E94050BA501940187
:104880000E94032A30932204209321048BE694E0B3
:104890000E94050BA50194010E94032A309318047D
:1048A000209317048FE594E00E94050BA501940165
:1048B0000E94032A30930E0420930D0483E594E0B4
:1048C0000E94050BA50194010E94032A3093040461
:1048D0002093030483E894E00E94050BA501940152
:1048E0000E94032A3093FA032093F90385E294E0AF
:1048F0000E941D168BE194E00E941D1681E194E058
:104900000E941D1687E094E00E941D168DEF93E033
:104910000E941D1683EF93E00E941D160E94CA0C90
:104920000E943E0A0091EF031091F0032091F103E1
:104930003091F203601B710B820B930B653671058E
:104940008105910508F4B4C00E943E0A6093EF030C
:104950007093F0038093F1039093F2038EE30E942F
:10496000850841E050E060E070E0892B19F040E0FC
:1049700050E0BA014093EB035093EC036093ED03D6
:104980007093EE0382E30E94850841E050E060E00E
:1049900070E0892B19F040E050E0BA014093E70342
:1049A0005093E8036093E9037093EA038BE10E945C
:1049B000850841E050E060E070E0892B19F040E0AC
:1049C00050E0BA014093E3035093E4036093E5039E
:1049D0007093E60389E10E948508892B09F06BC07A
:1049E0008091DF039091E003A091E103B091E20395
:1049F000892B8A2B8B2B09F05EC08091DD0390916F
:104A0000DE030E94E7156091D9038CE20E94AE0894
:104A10006091D5038DE20E94AE086091D10388E2D7
:104A20000E94AE086091CD038DE30E94AE086091B4
:104A3000C90388E30E94AE086091C50389E30E9420
:104A4000AE086091C10383E40E94AE086091BD038B
:104A500089E20E94AE086091B90385E10E94AE0828
:104A60006091B50387E10E94AE086091B10385E0D3
:104A70000E94AE086091AD0386E00E94AE0860918E
:104A8000A9038AE00E94AE086091A50388E00E9415
:104A9000AE086091A1038FE30E94AE0860919D0370
:104AA00086E20E94AE086091990388E10E94AE08F8
:104AB0000E94ED0784C989E10E948508892B09F4C9
:104AC000A2CF8091DF039091E003A091E103B09128
:104AD000E203892B8A2B8B2B09F08FCF94CF8E3357
:104AE000910509F4BCC9D7018D937D012196C53983
:104AF000D10509F08FC9B3C981E090E0909307090F
:104B0000809306091F928EE38F931F9283E68F9303
:104B10001F928CE38F9389ED92E09F938F937F9206
:104B20006F920E94842C0E949A15EDB7FEB73A96B8
:104B30000FB6F894FEBF0FBEEDBF98C980913B043D
:104B400090913C04009711F00E94FC2A809141044E
:104B500090914204009711F00C94FC2A0895662766
:104B600077270C941526FC0188279927E894219132
:104B70002032E9F3293010F02E30C8F32B3241F007
:104B80002D3239F4689404C00E940D26820F911DC5
:104B9000219120532A30C0F31EF4909581959F4FA8
:104BA00008951F93FC0199278827BC01E89411916F
:104BB0001032E9F3193010F01E30C8F31B3251F0F7
:104BC0001D3249F4689406C00E94F825610F711DDA
:104BD000811D911D119110531A30B0F33EF4909540
:104BE0008095709561957F4F8F4F9F4F1F910895CE
:104BF000592F482F372F262F660F771F881F991F91
:104C0000660F771F881F991F620F731F841F951FE0
:104C1000660F771F881F991F08957AE0979F902D40
:104C2000879F802D910D112408958F929F92AF92AE
:104C3000BF92CF92DF92EF92FF920F931F93CF9389
:104C4000DF935C017B016115710519F0DB018D9328
:104C50009C9385010F5F1F4FF501D0818D2F90E050
:104C60000E9473276C01892BB9F5DD32B9F50F5F0E
:104C70001F4FD5011196DC91C1E05801F1E0AF1A48
:104C8000B10843E050E06CEA71E0C5010E947C2766
:104C9000892B69F5680182E0C80ED11C45E050E01F
:104CA00067EA71E0C6010E947C27892B21F4680124
:104CB00097E0C90ED11CE114F10419F0D701CD928F
:104CC000DC9260E070E080E89FEFC111FFC060E01F
:104CD00070E080E89FE7FAC05801BBCFDB3229F4CF
:104CE00085010E5F1F4FF501D181C0E0C6CF43E0C3
:104CF00050E064EA71E0C5010E947C27892BE9F04D
:104D0000F80110E000E020E030E0A9015F01B0ED23
:104D10008B2E8D0E89E08815C8F19C2E689491F831
:104D20008C2F8870C2FF16C0811102C00F5F1F4F09
:104D30003196D501DC91C92DE9CFE114F10429F0B8
:104D40000E5F1F4FF7011183008360E070E080EC7D
:104D50009FE7BCC0882311F001501109A5E0B0E025
:104D60000E94BB289B01AC01220F331F441F551F1B
:104D7000280D311D411D511D283999E93907490771
:104D800099E15907A8F2C6609C2ED2CFAEEF8A12E5
:104D900006C0C3FD3CC09C2E689493F8C9CFDF7D4C
:104DA000D534A9F580818D3239F4C061DF011296C6
:104DB000818162E070E006C0DF018B32C1F31196A1
:104DC00061E070E080535D01A61AB70A8A30F8F4FA
:104DD000E0E8CE16ECE0DE065CF4B601660F771F65
:104DE000660F771FC60ED71ECC0CDD1CC80ED11C5B
:104DF0005D01FFEFAF1ABF0A8C9180538A30A8F192
:104E0000C4FF03C0D194C194D1080C0D1D1DC1FF76
:104E100009C0E114F10431F081E0A81AB108D7010A
:104E2000AD92BC92CA01B9010E949927C370C330E8
:104E300009F490584B015C0120E030E0A9010E9488
:104E40009427882309F440C0CBEDD1E017FF05C0BB
:104E5000119501951109C3ECD1E06E01B8E1CB1AAF
:104E6000D10880E2E82EF12C0FC0D501B1CFFE01B0
:104E700025913591459154910E191F09C501B40131
:104E80000E94FA274B015C01D501C4010E151F05D4
:104E900074F72497F594E794CC16DD06A9F78A2FCA
:104EA000880F8B2F881F8F3F49F020E030E0A90149
:104EB000C501B4010E949427811106C082E290E0EE
:104EC0009093090980930809C501B401DF91CF913E
:104ED0001F910F91FF90EF90DF90CF90BF90AF9018
:104EE0009F908F90089591110C946728803219F04B
:104EF00089508550C8F70895FB01DC0141505040AE
:104F000088F08D9181341CF08B350CF4805E6591B6
:104F100061341CF06B350CF4605E861B611171F31B
:104F2000990B0895881BFCCF0E94D62708F481E0D6
:104F30000895E89409C097FB3EF49095809570958C
:104F400061957F4F8F4F9F4F9923A9F0F92F96E9D5
:104F5000BB279395F695879577956795B795F1114A
:104F6000F8CFFAF4BB0F11F460FF1BC06F5F7F4FE7
:104F70008F4F9F4F16C0882311F096E911C07723F9
:104F800021F09EE8872F762F05C0662371F096E802
:104F9000862F70E060E02AF09A95660F771F881FD1
:104FA000DAF7880F9695879597F90895990F000875
:104FB000550FAA0BE0E8FEEF16161706E807F907EB
:104FC000C0F012161306E407F50798F0621B730B86
:104FD000840B950B39F40A2661F0232B242B252B07
:104FE00021F408950A2609F4A140A6958FEF811DAA
:104FF000811D08950E940D280C9481280E94732819
:1050000038F00E947A2820F0952311F00C946A2839
:105010000C94702811240C94B5280E94922870F3E7
:10502000959FC1F3950F50E0551F629FF001729F4D
:10503000BB27F00DB11D639FAA27F00DB11DAA1F5C
:10504000649F6627B00DA11D661F829F2227B00DA9
:10505000A11D621F739FB00DA11D621F839FA00D34
:10506000611D221F749F3327A00D611D231F849F84
:10507000600D211D822F762F6A2F11249F575040DB
:105080009AF0F1F088234AF0EE0FFF1FBB1F661F56
:10509000771F881F91505040A9F79E3F510580F01F
:1050A0000C946A280C94B5285F3FE4F3983ED4F33F
:1050B000869577956795B795F795E7959F5FC1F7C3
:1050C000FE2B880F911D9695879597F9089599273E
:1050D0008827089597F99F6780E870E060E0089559
:1050E0009FEF80EC089500240A9416161706180600
:1050F0000906089500240A941216130614060506DC
:105100000895092E0394000C11F4882352F0BB0F6C
:1051100040F4BF2B11F460FF04C06F5F7F4F8F4FCF
:105120009F4F089557FD9058440F551F59F05F3F0A
:1051300071F04795880F97FB991F61F09F3F79F0B9
:1051400087950895121613061406551FF2CF46953B
:10515000F1DF08C0161617061806991FF1CF8695BD
:105160007105610508940895E894BB2766277727A1
:10517000CB0197F908950E94C628A59F900DB49F72
:10518000900DA49F800D911D11240895A29FB00140
:10519000B39FC001A39F700D811D1124911DB29F6B
:1051A000700D811D1124911D08955058BB27AA2709
:1051B0000E94ED280C9481280E94732838F00E94E8
:1051C0007A2820F039F49F3F19F426F40C947028C3
:1051D0000EF4E095E7FB0C946A28E92F0E949228D0
:1051E00058F3BA17620773078407950720F079F41C
:1051F000A6F50C94B4280EF4E0950B2EBA2FA02D32
:105200000B01B90190010C01CA01A0011124FF2773
:10521000591B99F0593F50F4503E68F11A16F0406E
:10522000A22F232F342F4427585FF3CF469537956D
:105230002795A795F0405395C9F77EF41F16BA0B32
:10524000620B730B840BBAF09150A1F0FF0FBB1FE0
:10525000661F771F881FC2F70EC0BA0F621F731F29
:10526000841F48F4879577956795B795F7959E3F86
:1052700008F0B0CF9395880F08F09927EE0F979517
:10528000879508950E9456290C9481280E947A28B7
:1052900058F00E94732840F029F45F3F29F00C94E5
:1052A0006A2851110C94B5280C9470280E949228F9
:1052B00068F39923B1F3552391F3951B550BBB2745
:1052C000AA2762177307840738F09F5F5F4F220F8A
:1052D000331F441FAA1FA9F335D00E2E3AF0E0E881
:1052E00032D091505040E695001CCAF72BD0FE2FCB
:1052F00029D0660F771F881FBB1F2617370748075F
:10530000AB07B0E809F0BB0B802DBF01FF27935816
:105310005F4F3AF09E3F510578F00C946A280C9448
:10532000B5285F3FE4F3983ED4F38695779567956B
:10533000B795F7959F5FC9F7880F911D969587954B
:1053400097F90895E1E0660F771F881FBB1F62176A
:1053500073078407BA0720F0621B730B840BBA0B28
:10536000EE1F88F7E09508950E94BB296894B1115B
:105370000C94B52808950E949A2888F09F5798F0B9
:10538000B92F9927B751B0F0E1F0660F771F881F4A
:10539000991F1AF0BA95C9F714C0B13091F00E9464
:1053A000B428B1E008950C94B428672F782F88278B
:1053B000B85F39F0B93FCCF3869577956795B3958B
:1053C000D9F73EF490958095709561957F4F8F4FFA
:1053D0009F4F08950E94D62708F48FEF089597FBFA
:1053E000072E16F4009407D077FD09D00E942A2AD0
:1053F00007FC05D03EF4909581959F4F08957095D8
:1054000061957F4F0895052E97FB1EF400940E942E
:105410001A2A57FD07D00E943E2A07FC03D04EF4FB
:105420000C941A2A50954095309521953F4F4F4F37
:105430005F4F089590958095709561957F4F8F4F40
:105440009F4F0895EE0FFF1F881F8BBF0790F691A7
:10545000E02D1994AA1BBB1B51E107C0AA1FBB1F5B
:10546000A617B70710F0A61BB70B881F991F5A95F0
:10547000A9F780959095BC01CD010895A1E21A2E5F
:10548000AA1BBB1BFD010DC0AA1FBB1FEE1FFF1FE8
:10549000A217B307E407F50720F0A21BB30BE40B38
:1054A000F50B661F771F881F991F1A9469F760957F
:1054B0007095809590959B01AC01BD01CF01089539
:1054C0000F931F93CF93DF938230910510F482E006
:1054D00090E0E0910C09F0910D0930E020E0B0E09F
:1054E000A0E0309799F42115310509F44AC0281B32
:1054F000390B24303105D8F58A819B8161157105FE
:1055000089F1FB0193838283FE0111C040815181A7
:105510000281138148175907E0F04817590799F499
:10552000109761F012960C93129713961C93329673
:10553000CF01DF91CF911F910F91089500930C0936
:1055400010930D09F4CF2115310551F0421753077F
:1055500038F0A901DB019A01BD01DF01F801C1CFDB
:10556000EF01F9CF90930D0980930C09CDCFFE0187
:10557000E20FF31F819391932250310939832883DD
:10558000D7CF20910A0930910B09232B41F42091A8
:1055900014023091150230930B0920930A092091CF
:1055A0001202309113022115310541F42DB73EB797
:1055B0004091160250911702241B350BE0910A0905
:1055C000F0910B09E217F307A0F42E1B3F0B2817ED
:1055D000390778F0AC014E5F5F4F2417350748F06C
:1055E0004E0F5F1F50930B0940930A0981939193CB
:1055F0009FCFF0E0E0E09CCFCF93DF930097E9F0FE
:10560000FC01329713821282A0910C09B0910D090E
:10561000ED0130E020E01097A1F420813181820F6C
:10562000931F20910A0930910B092817390709F0B7
:1056300061C0F0930B09E0930A09DF91CF910895BF
:10564000EA01CE17DF07E8F54A815B819E0141152B
:105650005105B1F7E901FB83EA8349915991C40FE0
:10566000D51FEC17FD0761F4808191810296840FAC
:10567000951FE90199838883828193819B838A8323
:10568000F0E0E0E012968D919C9113970097B9F5A8
:105690002D913C911197CD010296820F931F20917D
:1056A0000A0930910B092817390739F6309751F557
:1056B00010920D0910920C09B0930B09A0930A09DE
:1056C000BCCFD383C28340815181840F951FC817FB
:1056D000D90761F44E5F5F4F88819981480F591F48
:1056E000518340838A819B81938382832115310575
:1056F00009F0B0CFF0930D09E0930C099ECFFD01A6
:10570000DC01C0CF13821282D7CF4F925F926F928B
:105710007F928F929F92AF92BF92CF92DF92EF9241
:10572000FF920F931F93CF93DF938C01009799F40F
:10573000CB01DF91CF911F910F91FF90EF90DF9000
:10574000CF90BF90AF909F908F907F906F905F9021
:105750004F900C94602AFC01E60FF71F9C01225029
:105760003109E217F30708F4AEC0D901CD91DC91FD
:105770001197C617D70720F1C530D10578F0CE01B3
:1057800004978617970750F0C61BD70B2297C19333
:10579000D1936D937C93CF010E94FC2AC801DF91C5
:1057A000CF911F910F91FF90EF90DF90CF90BF901E
:1057B000AF909F908F907F906F905F904F900895E3
:1057C0005B01AC1ABD0A4C018C0E9D1EA0910C0908
:1057D000B0910D09512C412CF12CE12C109731F591
:1057E00080910A0990910B098815990509F05CC010
:1057F0004616570608F058C0809112029091130285
:10580000009741F48DB79EB7409116025091170250
:10581000841B950BE817F90708F055C0F0930B09A6
:10582000E0930A09F90171836083B8CF8D919C914F
:10583000119712966C90129713967C901397A81557
:10584000B90559F56C0142E0C40ED11CCA14DB0441
:1058500020F1AC014A195B09DA011296159780F024
:105860006282738251834083D9016D937C93E114EA
:10587000F10471F0D7011396FC93EE9312978ECF3B
:1058800022968C0F9D1FF90191838083F301EFCF46
:10589000F0930D09E0930C0981CF4816590608F4DE
:1058A0002C017D01D3019ACFCB010E94602A7C019B
:1058B000009749F0AE01B8010E94662CC8010E9411
:1058C000FC2A87016BCF10E000E068CFFB01DC0110
:1058D00002C001900D9241505040D8F70895FB014D
:1058E000DC0101900D920020E1F70895FB01DC013D
:1058F0004150504030F08D910190801919F40020F2
:10590000B9F7881B990B08950F931F93CF93DF93DB
:10591000CDB7DEB72E970FB6F894DEBF0FBECDBF62
:105920000E891F8986E08C831A8309838FEF9FE796
:105930009E838D83AE01465E5F4F688D798DCE016B
:1059400001960E94B42C2F813885020F131FF80195
:1059500010822E960FB6F894DEBF0FBECDBFDF913A
:10596000CF911F910F9108952F923F924F925F9286
:105970006F927F928F929F92AF92BF92CF92DF925F
:10598000EF92FF920F931F93CF93DF9300D000D03D
:1059900000D01F921F92CDB7DEB77C013B018A0178
:1059A000FC0117821682838181FFDDC1CE01019641
:1059B0005C01F7019381F30193FD859193FF819140
:1059C0003F01882309F453C1853239F493FD859151
:1059D00093FF81913F01853229F4B70190E00E9445
:1059E000CC2EE7CF912C212C312CFFE1F31538F090
:1059F0008B3211F190F4803209F1833229F137FCB6
:105A00003CC020ED280F2A3050F536FE20C08AE039
:105A1000989E200D1124922E06C08D3291F0803375
:105A200071F7689430F8F30193FD859193FF8191AC
:105A30003F018111DACF21C0689431F8689432F8BF
:105A4000F2CF689433F8EFCF689434F8ECCFEAE003
:105A50002E9E200D1124222E689435F8E4CF8E322C
:105A600029F436FC04C1689436F8DDCF8C3619F47D
:105A7000689437F8D8CF8836B1F2982F9F7D955427
:105A80009330E0F08336A1F18337C1F1833509F01B
:105A900063C02801F2E04F0E511CF801C080D18094
:105AA000692D70E036FC02C06FEF7FEFC6010E94E7
:105AB000B62E4C01689437F882010AC00C5F1F4F64
:105AC000FFE3F98388248394912C6501E89437F8E7
:105AD00033FE2DC0522C8114910471F5552009F428
