:100000000C9415050C94DE170C94B3170C948817F8
:100010000C945D170C9432170C9407170C94DC1693
:100020000C94B1160C9446050C9446050C944605A8
:100030000C9446050C9446050C9446050C94460514
:100040000C9446050C9446050C9446050C94460504
:100050000C9446050C9446050C9446050C946716C2
:100060000C9446050C9431160C9407160C94460516
:100070000C9446050C9446050C9446050C944605D4
:100080000C9446050C9446050C9446050C944605C4
:100090000C9446050C9446050C9446050C944605B4
:1000A0000C9446050C9446050C9446050C944605A4
:1000B0000C9446050C9446050C9446050C94460594
:1000C0000C9446050C9446050C9446050C94460584
:1000D0000C9446050C9446050C9446050C94460574
:1000E0000C9446050C94DE050C94AC060C94A40606
:1000F0000C944B090C94F2070C94A3070C949805EC
:100100000C94DA060C94EC220C94A8080C94CE07FC
:100110000C9415080C94AF060C942B060C94E8076D
:100120000C94C7060C9451090C94A8060C94BA07B9
:100130000C94A6050C943D080C941F080C94B90669
:100140000C94B5060C94CD060C9433080C94AB07B4
:100150000C94DE070C94C4070C94A0060C9423188E
:100160000C94FC070C949A060C94C3060C94BF06DE
:100170000C94B0070C943F090C94DF060C942908EA
:100180000C94DB060C94D5060C940B080C94D60743
:100190000C94D1060C9484050C9475050C944509B7
:1001A0000C9448054E414E494E495459494E46CD4E
:1001B000CCCC3D0AD7233C17B7D13877CC2B32951E
:1001C00095E6241FB14F0A000020410000C84200FC
:1001D000401C4620BCBE4CCA1B0E5AAEC59D7400C6
:1001E000002100240027002A002D003000330001E8
:1001F000010000040107010A010000220025002877
:10020000002B002E0031003400020100000501081F
:10021000010B01000020002300260029002C002FE4
:100220000032000001000003010601090105050577
:1002300005070508080808020202020A0A0808045D
:10024000040404010101010101010103030303038B
:10025000030303040707070C0C0C0C0C0C0C0C021A
:1002600002020206060606060606060B0B0B0B0B21
:100270000B0B0B010210202008081020401020401A
:10028000800201020108040201010204081020405A
:100290008080402010080402018004020180402078
:1002A00010080402010804020101020408102040A1
:1002B00080010204081020408000000A0B02090C93
:1002C0000D0E0807030401000000000000000000FC
:1002D000000000000000000000000000000000001E
:1002E00000000000001211100000000000000000DB
:1002F000000000000000000000000000000000738B
:10030000696D2F6175746F70696C6F742F6175748E
:100310006F7468726F74746C655F6F666600736982
:100320006D2F6175746F70696C6F742F6175746F68
:100330007468726F74746C655F6F6E0073696D2F93
:100340006175746F70696C6F742F736572766F73FB
:100350005F66646972325F6F66660073696D2F61F4
:1003600075746F70696C6F742F66646972325F6F39
:100370006E0073696D2F6175746F70696C6F742F87
:10038000736572766F735F666469725F6F6666002D
:1003900073696D2F6175746F70696C6F742F66640B
:1003A00069725F6F6E0073696D2F726164696F733C
:1003B0002F6F62735F4853495F646F776E00736994
:1003C0006D2F726164696F732F6F62735F48534959
:1003D0005F75700073696D2F6175746F70696C6FF4
:1003E000742F766572746963616C5F7370656564A0
:1003F0005F646F776E0073696D2F6175746F7069DC
:100400006C6F742F766572746963616C5F7370656D
:1004100065645F75700073696D2F6175746F7069C5
:100420006C6F742F616C7469747564655F646F7749
:100430006E0073696D2F6175746F70696C6F742FC6
:10044000616C7469747564655F75700073696D2F94
:100450006175746F70696C6F742F68656164696E23
:10046000675F646F776E0073696D2F6175746F706D
:10047000696C6F742F68656164696E675F75700081
:1004800073696D2F6175746F70696C6F742F61691A
:100490007273706565645F646F776E0073696D2F4A
:1004A0006175746F70696C6F742F616972737065B8
:1004B00065645F75700073696D2F726164696F7335
:1004C0002F636F70696C6F745F6F62735F4853491D
:1004D0005F646F776E0073696D2F726164696F730B
:1004E0002F636F70696C6F745F6F62735F485349FD
:1004F0005F75700073696D2F636F636B7069743221
:100500002F6175746F70696C6F742F7676695F6494
:1005100069616C5F66706D0073696D2F636F636BEB
:100520007069742F726164696F732F6E6176325FC8
:100530006F62735F6465676D320073696D2F636FFF
:10054000636B7069742F6175746F70696C6F742F51
:10055000766572746963616C5F76656C6F636974EC
:10056000790073696D2F636F636B7069742F6175A8
:10057000746F70696C6F742F616C746974756465E5
:100580000073696D2F636F636B7069742F6175748D
:100590006F70696C6F742F61697273706565645FE9
:1005A00069735F6D6163680073696D2F636F636B5F
:1005B0007069742F6175746F70696C6F742F6865E2
:1005C0006164696E675F6D61670073696D2F636F4A
:1005D000636B706974322F6175746F70696C6F74BE
:1005E0002F61697273706565645F6469616C5F6BCC
:1005F00074735F6D6163680073696D2F636F636B04
:100600007069742F726164696F732F6E6176315FE8
:100610006F62735F6465676D0073696D2F617574D8
:100620006F70696C6F742F736572766F735F6F662E
:10063000665F616E790073696D2F636F636B7069BC
:1006400074322F6175746F70696C6F742F7365727B
:10065000766F735F6F6E0073696D2F636F636B707E
:100660006974322F6175746F70696C6F742F617566
:10067000746F7468726F74746C655F656E61626CC0
:1006800065640073696D2F6175746F70696C6F7448
:100690002F6B6E6F74735F6D6163685F746F6767F4
:1006A0006C650073696D2F6175746F70696C6F7420
:1006B0002F435753420073696D2F6175746F7069D2
:1006C0006C6F742F435753410073696D2F636F63D1
:1006D0006B7069742F6175746F70696C6F742F61C2
:1006E00075746F70696C6F745F6D6F6465007369AA
:1006F0006D2F6175746F70696C6F742F736572768E
:100700006F73325F6F6E0073696D2F6175746F70F8
:10071000696C6F742F736572766F735F6F6E0073A1
:10072000696D2F6175746F70696C6F742F616C7473
:100730005F76730073696D2F6175746F70696C6F8C
:10074000742F616C7469747564655F686F6C6400A4
:1007500073696D2F6175746F70696C6F742F617040
:1007600070726F6163680073696D2F6175746F706B
:10077000696C6F742F4E4156006C616D696E6172C9
:100780002F423733382F6175746F70696C6F742F17
:100790006C6E61765F70726573730073696D2F6143
:1007A00075746F70696C6F742F68656164696E67CA
:1007B0000073696D2F6175746F70696C6F742F6C45
:1007C0006576656C5F6368616E6765006C616D6915
:1007D0006E61722F423733382F6175746F70696C98
:1007E0006F742F766E61765F7072657373006C61E3
:1007F0006D696E61722F423733382F6175746F7077
:10080000696C6F742F73706565645F707265737364
:100810000073696D2F6175746F70696C6F742F61EF
:1008200075746F7468726F74746C655F6E31657027
:10083000725F746F67676C650073696D2F636F63B8
:100840006B706974322F6175746F70696C6F742F7F
:1008500068656164696E675F6D6F64650073696D7B
:100860002F636F636B706974322F6175746F706979
:100870006C6F742F617070726F6163685F73746105
:100880007475730073696D2F636F636B7069743275
:100890002F6175746F70696C6F742F6175746F74EC
:1008A00068726F74746C655F6F6E0073696D2F632F
:1008B0006F636B706974322F6175746F70696C6FE0
:1008C000742F6175746F70696C6F74325F6F6E0036
:1008D00073696D2F636F636B706974322F61757408
:1008E0006F70696C6F742F6175746F70696C6F7461
:1008F0005F6F6E0073696D2F636F636B7069743225
:100900002F6175746F70696C6F742F736572766F79
:1009100073325F6F6E0073696D2F636F636B706905
:1009200074322F6175746F70696C6F742F73657298
:10093000766F735F6F6E0073696D2F636F636B709B
:100940006974322F6175746F70696C6F742F616C8C
:100950007469747564655F686F6C645F61726D65FE
:10096000640073696D2F636F636B706974322F61FC
:1009700075746F70696C6F742F6E61765F737461DC
:100980007475730073696D2F636F636B7069743274
:100990002F6175746F70696C6F742F7676695F73F1
:1009A0007461747573007E306D79335B5F707F7B2B
:1009B000771F0D3D4F4700000000000000000000C1
:1009C0000000000000000000000000000000000027
:1009D0000000800180007E306D79335B5F707F7B2B
:1009E00000000000000000771F0D3D4F470037005A
:1009F00000000E0000006700000000000000000082
:100A000000000000000800771F0D3D4F4700370031
:100A100000000E00151D670000000000000000002F
:100A20000000000000002318EC2211241FBECFEFAD
:100A3000D1E2DEBFCDBF00E00CBF28E0A8ECB2E001
:100A400001C01D92A83AB207E1F712E0A0E0B2E0BF
:100A5000E4E7F9E500E00BBF02C007900D92A83C67
:100A6000B107D9F715E0C4E1D5E000E006C0219751
:100A70000109802FFE010E947027C331D10780E059
:100A80000807A9F70E949D180C94A82C0C9400004C
:100A9000AF92BF92CF92DF92EF92FF920F931F938C
:100AA000CF93DF936C017B018B01040F151FEB01CA
:100AB0005E01AE18BF08C017D10759F06991D60181
:100AC000ED91FC910190F081E02DC6011995892BE3
:100AD00079F7C501DF91CF911F910F91FF90EF90B2
:100AE000DF90CF90BF90AF900895FC01538D448D5F
:100AF000252F30E0842F90E0821B930B541710F0C9
:100B0000CF96089501970895FC01918D828D9817D5
:100B100061F0A28DAE0FBF2FB11D5D968C91928DAD
:100B20009F5F9F73928F90E008958FEF9FEF0895DE
:100B3000FC01918D828D981731F0828DE80FF11DA7
:100B4000858D90E008958FEF9FEF0895FC01918DC2
:100B5000228D892F90E0805C9F4F821B91098F73BB
:100B60009927089581E395E00E94A60521E0892B4D
:100B700009F420E0822F0895FC01A48DA80FB92F5D
:100B8000B11DA35ABF4F2C91848D90E001968F73B5
:100B90009927848FA689B7892C93A089B1898C91D4
:100BA000837080648C93938D848D981306C0028823
:100BB000F389E02D80818F7D80830895EF92FF92ED
:100BC0000F931F93CF93DF93EC0181E0888F9B8D70
:100BD0008C8D98131AC0E889F989808185FF15C02A
:100BE0009FB7F894EE89FF896083E889F98980814D
:100BF0008370806480839FBF81E090E0DF91CF911C
:100C00001F910F91FF90EF900895F62E0B8D10E03D
:100C10000F5F1F4F0F731127E02E8C8D8E110CC0AC
:100C20000FB607FCFACFE889F989808185FFF5CFF7
:100C3000CE010E94BC05F1CFEB8DEC0FFD2FF11D15
:100C4000E35AFF4FF0829FB7F8940B8FEA89FB8934
:100C500080818062CFCFCF93DF93EC01888D882392
:100C6000B9F0AA89BB89E889F9898C9185FD03C00F
:100C7000808186FD0DC00FB607FCF7CF8C9185FFF4
:100C8000F2CF808185FFEDCFCE010E94BC05E9CF78
:100C9000DF91CF91089580E090E0892B29F00E94A8
:100CA000B20581110E94000080E090E0892B49F09C
:100CB00080E090E0892B29F00E94000081110E94C1
:100CC000000080E090E0892B49F080E090E0892BE3
:100CD00029F00E94000081110E94000080E090E055
:100CE000892B49F080E090E0892B29F00E940000D8
:100CF00081110C94000008958150823108F05AC08F
:100D0000E82FF0E08827E857F94F8F4F0C947027B1
:100D1000A806AC069A06A006A406DA06AF06B50633
:100D2000B906BF06C306C706CD06D106DA06D50644
:100D3000DB06DF06809180008F7780938000089526
:100D4000809180008F7DF9CF80918000877FF5CFE3
:100D500084B58F7784BD089584B58F7DFBCF809156
:100D6000B0008F778093B00008958091B0008F7DA0
:100D7000F9CF809190008F778093900008958091B3
:100D800090008F7DF9CF80919000877FF5CF809183
:100D9000A0008F778093A00008958091A0008F7DA0
:100DA000F9CF8091A000877FF5CF809120018F77C8
:100DB000809320010895809120018F7DF9CF80914B
:100DC0002001877FF5CFCF93DF93282F30E0F90103
:100DD000E754FD4F8491F901ED58FD4FD491F9018D
:100DE000E35DFD4FC491CC23A1F081110E947C06EC
:100DF000EC2FF0E0EE0FFF1FED5EFD4FA591B491DB
:100E0000EC91ED2381E090E009F480E0DF91CF9157
:100E1000089580E090E0FACF1F93CF93DF93282FBF
:100E200030E0F901E754FD4F8491F901ED58FD4F91
:100E3000D491F901E35DFD4FC491CC23A9F0162FA5
:100E400081110E947C06EC2FF0E0EE0FFF1FE750AF
:100E5000FE4FA591B4918FB7F894EC91111108C091
:100E6000D095DE23DC938FBFDF91CF911F91089542
:100E7000DE2BF8CFCF93DF9390E0FC01ED58FD4FD0
:100E80002491835D9D4FFC0184918823D1F090E0F3
:100E9000880F991FFC01E152FE4FA591B491FC010E
:100EA000E750FE4FC591D491623071F49FB7F8942A
:100EB0003C91822F809583238C93E8812E2B28836D
:100EC0009FBFDF91CF9108958FB7F894EC912E2BAF
:100ED0002C938FBFF6CF1F93CF93DF93182FEB0187
:100EE00061E00E943A07209739F460E0812FDF919A
:100EF000CF911F910C940C07CF3FD10511F461E005
:100F0000F5CFE12FF0E0E754FD4FE491E150E231FD
:100F100008F0B3C0F0E08827EF56F84F8F4F0C94DD
:100F20007027A307AB07B007BA07C4073D08CE0771
:100F3000D607DE07E807F207FC070B0815083D088F
:100F40001F082908330884B5806884BDC7BDDF91B8
:100F5000CF911F91089584B5806284BDC8BDF7CF3D
:100F600080918000806880938000D0938900C09336
:100F70008800EDCF80918000806280938000D093C4
:100F80008B00C0938A00E3CF8091800088608093BB
:100F90008000D0938D00C0938C00D9CF8091B00099
:100FA00080688093B000C093B300D1CF8091B0002F
:100FB00080628093B000C093B400C9CF809190004C
:100FC000806880939000D0939900C0939800BFCF21
:100FD00080919000806280939000D0939B00C0939A
:100FE0009A00B5CF80919000886080939000D09354
:100FF0009D00C0939C00ABCF8091A000806880933F
:10100000A0008091A0008F7B8093A000D093A900C6
:10101000C093A8009CCF8091A00080628093A00024
:10102000D093AB00C093AA0092CF8091A0008860BB
:101030008093A000D093AD00C093AC0088CF809186
:101040002001806880932001D0932901C09328015A
:101050007ECF80912001806280932001D0932B016C
:10106000C0932A0174CF8091200188608093200171
:10107000D0932D01C0932C016ACFC038D1050CF05C
:101080003ECF33CF3FB7F894809121039091220354
:10109000A0912303B091240326B5A89B05C02F3F40
:1010A00019F00196A11DB11D3FBFBA2FA92F982F8E
:1010B0008827BC01CD01620F711D811D911D42E089
:1010C000660F771F881F991F4A95D1F708958F9251
:1010D0009F92AF92BF92CF92DF92EF92FF920E94C7
:1010E00042084B015C018FE0C82ED12CE12CF12C81
:1010F0000E944208681979098A099B09683E734071
:1011000081059105A8F321E0C21AD108E108F10890
:1011100088EE880E83E0981EA11CB11CC114D10476
:10112000E104F10429F7FF90EF90DF90CF90BF909A
:10113000AF909F908F9008952FB7F89460911D0302
:1011400070911E0380911F03909120032FBF08957B
:101150000895833171F120F48231E9F180E008953E
:101160008431A9F08531D1F77093CD026093CC0220
:1011700081E599E0909305028093040280916900D3
:101180008C7F816080936900E89A81E00895709374
:10119000CF026093CE028BE499E090930702809394
:1011A000060280916900837F846080936900E99AD8
:1011B000ECCF7093D1026093D00285E499E09093D4
:1011C000090280930802809169008F7C806180937E
:1011D0006900EA9ADACF7093D3026093D2028FE368
:1011E00099E090930B0280930A02809169008F73BB
:1011F000806480936900EB9AC8CFDC01ED91FD918A
:101200008081ED91FD919081ED91FD916C916370E4
:101210008E2309F064609F2309F06860EAE1F9E039
:10122000E60FF11D659565956D936D917D918D919D
:101230009D91099423C01AC012C016C010C01EC0D0
:1012400009C014C013C006C019C009C00DC007C032
:101250000DC014C062507040804090400BC061507F
:1012600070408040904006C06E5F01C06F5F7F4F4E
:101270008F4F9F4F9E938E937E936E930895809190
:10128000D2029091D3020C94FD088091D0029091EB
:10129000D1020C94FD088091CE029091CF020C9463
:1012A000FD088091CC029091CD020C94FD088091B4
:1012B000CA029091CB020C94FD088091C8029091D3
:1012C000C9020C94FD08CF93DF93EC018B8582302B
:1012D00060F4F894CE010E94FD086F8178858985BD
:1012E0009A857894DF91CF910895F894F6CF0F9373
:1012F0001F93CF93DF93EC01062F142F62E0802F12
:101300000E943A0762E0812F0E943A07802F90E006
:10131000FC01E35DFD4FE491F0E0EE0FFF1FED5E99
:10132000FD4FA591B491B983A883FC01ED58FD4F01
:1013300024912C83812F90E0FC01E35DFD4FE4912B
:10134000F0E0EE0FFF1FED5EFD4F459154915B8382
:101350004A83FC01ED58FD4FE491ED831F8218860E
:1013600019861A868BE39FE10197F1F78C91282368
:1013700091E009F490E0DA018C91E82309F09260A1
:101380009E83BE01802F0E94A9088B87BE01812FFA
:101390000E94A9089B85890F8B87DF91CF911F91B0
:1013A0000F9108954F925F926F927F928F929F92CA
:1013B000AF92BF92CF92DF92EF92FF920F931F9363
:1013C000CF93DF931F921F92CDB7DEB78C01498375
:1013D0002A83660F771FF801EA5AFF4FE080F180F9
:1013E000EE0CFF1CF801CF01801B910B8E159F05A1
:1013F00014F41192F8CF8981F801E60FF71F818369
:101400008A818083680184E5C80ED11C60E0F60102
:1014100080810E940C075801F2E5AF0EB11C480113
:1014200080E5880E911C1E141F040CF5E1E0EE1AF5
:10143000F108F801EE0DFF1D6080F5015080F40108
:10144000408088E0782E662D661F6627661F842DF3
:101450000E940C07660C61E0852D0E940C0760E07D
:10146000852D0E940C077A947110EDCFDCCF61E0DE
:10147000F60180810F900F90DF91CF911F910F9116
:10148000FF90EF90DF90CF90BF90AF909F908F90A4
:101490007F906F905F904F900C940C078F929F926B
:1014A000AF92BF92CF92DF92EF92FF920F931F9372
:1014B000CF93DF938C01D62EC72EEC01C05BDF4F9C
:1014C000688379834C0182E5880E911CF401518375
:1014D00040835801F4E5AF0EB11CF5013183208340
:1014E0007801F6E5EF0EF11C81E090E0F7019183C1
:1014F000808361E08D2D0E943A0761E0F4018081D4
:101500000E943A0761E0F50180810E943A0761E09C
:10151000F50180810E940C07D882C982F80170967B
:101520005F011192EC17FD07E1F7D0E0C0E0F70191
:1015300080819181C817D9070CF043C020E04FE0AB
:10154000BE01C8010E94D209F70180819181C817AC
:10155000D90734F427E04BE0BE01C8010E94D2094C
:1015600020E049E0BE01C8010E94D209F701808154
:101570009181C817D907BCF44E0183E0880C991CEF
:101580008A95E1F78A0C9B1CDD24D394F401119217
:101590004F0120E04D2DBE01C8010E94D209D39415
:1015A000F9E0DF12F3CFF70180819181C817D907E5
:1015B00034F420E04CE0BE01C8010E94D20921961B
:1015C000B6CFDF91CF911F910F91FF90EF90DF90F9
:1015D000CF90BF90AF909F908F900895FC01EA5AF2
:1015E000FF4F20813181121613068CF4403178F4BC
:1015F000E42FF0E0EA55F64F2491FC01E60FF71FC7
:10160000208B41E0460F70E060E00C94D209089511
:10161000E42FDC01AA5ABF4F4D915C9114161506B8
:10162000B4F4E7FDE0E20E2E000CFF0BEA55F64F96
:10163000E4912111E068DC01A60FB71F5096EC93EE
:1016400041E0460F2E2F70E060E00C94D20908951F
:101650008F929F92AF92BF92CF92DF92EF92FF92C2
:101660000F931F93CF93DF93C0904103D090420319
:10167000E0904303F0904403209118033091190344
:1016800040911A0350911B03C701B6010E94E22446
:10169000882309F48FC020E030E0A901C701B6011A
:1016A0000E94382720E030E040E05FE387FD3EC342
:1016B000C701B6010E9424260E9402270E94E92445
:1016C00020E030E048EC52E40E9490260E9402277D
:1016D000162F609310037093110320E030E0A901EE
:1016E000C701B6010E94382720E030E040E05FE308
:1016F00087FD21C3C701B6010E9424260E9402274C
:101700000E94E92420E030E040E251E40E9490266B
:101710000E940227CB016AE070E00E943D27D82F8B
:10172000809312039093130320E030E0A901C701D6
:10173000B6010E94382720E030E040E05FE387FDFB
:10174000FFC2C701B6010E9424260E9402270E9400
:10175000E9240E940227CB016AE070E00E943D2745
:10176000C82F8093140390931503412F67E070E016
:1017700089ED94E00E94EE0A4D2F66E070E089ED5D
:1017800094E00E94EE0A4C2F65E070E089ED94E051
:101790000E94EE0A8091410390914203A09143037D
:1017A000B09144038093180390931903A0931A03F4
:1017B000B0931B03C0903D03D0903E03E0903F03E5
:1017C000F09040038090350390903603A09037034B
:1017D000B090380320910C0330910D0340910E031B
:1017E00050910F03C701B6010E94E22481110FC07E
:1017F000A5019401609108037091090380910A0387
:1018000090910B030E94E224882309F489C020E010
:1018100030E0A901C501B4010E94E22481119AC2FD
:1018200020E030E0A901C701B6010E94382720E07E
:1018300030E040E05FE387FD88C2C701B6010E9447
:1018400024260E940227072E000C880B990B0E9469
:10185000E9246B017C0120E030E048EC52E40E9476
:1018600090260E940227162F6093000370930103B5
:1018700020E030E040E251E4C701B6010E9490262A
:101880000E9402278AE0A82EB12CCB01B5010E944C
:101890003D27D82F8093020390930303C701B6011D
:1018A0000E940227CB01B5010E943D27C82F8093DB
:1018B000040390930503412F62E070E089ED94E00A
:1018C0000E94EE0A4D2F61E070E089ED94E00E94E5
:1018D000EE0A4C2F70E060E089ED94E00E94EE0A81
:1018E00080913D0390913E03A0913F03B09140034E
:1018F00080930C0390930D03A0930E03B0930F03FA
:101900008091350390913603A0913703B09138034D
:101910008093080390930903A0930A03B0930B03E9
:10192000C0903903D0903A03E0903B03F0903C0321
:101930002091FC023091FD024091FE025091FF0285
:10194000C701B6010E94E224882309F48FC020E079
:1019500030E0A901C701B6010E94382720E030E03D
:1019600040E05FE387FD64C2C701B6010E94242600
:101970000E9402270E94E92420E030E048EC52E473
:101980000E9490260E940227162F6093F402709303
:10199000F50220E030E0A901C701B6010E94382716
:1019A00020E030E040E05FE387FD47C2C701B601B9
:1019B0000E9424260E9402270E94E92420E030E0B1
:1019C00040E251E40E9490260E940227CB016AE087
:1019D00070E00E943D27D82F8093F6029093F70283
:1019E00020E030E0A901C701B6010E94382720E0BD
:1019F00030E040E05FE387FD25C2C701B6010E94E9
:101A000024260E9402270E94E9240E940227CB017B
:101A10006AE070E00E943D27C82F8093F8029093FF
:101A2000F902412F67E070E081E894E00E94EE0A3D
:101A30004D2F66E070E081E894E00E94EE0A4C2FA2
:101A400065E070E081E894E00E94EE0A809139033D
:101A500090913A03A0913B03B0913C038093FC0228
:101A60009093FD02A093FE02B093FF02C090310359
:101A7000D0903203E0903303F090340320E030E064
:101A8000A901C701B6010E94E224882309F479C0A4
:101A900020E030E0A901C701B6010E94382787FD88
:101AA000D6C120E030E04AE754E4C701B6010E9405
:101AB000E22487FFCCC120E030E040E05FE3C701D3
:101AC000B6010E9424260E9402270E94E9246B018D
:101AD0007C0120E030E048EC52E40E9490260E9415
:101AE0000227CAE0D0E0CB01BE010E943D27082FAB
:101AF0008093EA029093EB0220E030E040E251E470
:101B0000C701B6010E9490260E940227CB01BE01A8
:101B10000E943D27182F8093EC029093ED02C7019D
:101B2000B6010E940227CB01BE010E943D27C82FAB
:101B30008093EE029093EF0220E040E264E070E0D8
:101B400081E894E00E94080B20E040E263E070E04E
:101B500081E894E00E94080B402F62E070E081E889
:101B600094E00E94EE0A412F61E070E081E894E089
:101B70000E94EE0A4C2F70E060E081E894E00E9441
:101B8000EE0AC0902D03D0902E03E0902F03F0902A
:101B900030032091E6023091E7024091E802509133
:101BA000E902C701B6010E94E224882309F4F1C3C7
:101BB00020E030E04AE754ECC701B6010E94E2247D
:101BC00018160CF41DC320E030E0A901C701B601CE
:101BD0000E94E22418160CF4F3C2A701960160E0FB
:101BE00070E080E09FE30E9423260E9402270E946B
:101BF000E92420E030E04AE754E40E9490260E9465
:101C00000227CB016AE070E00E943D27082F8093F5
:101C1000DC029093DD0220E030E0A901C701B601AB
:101C20000E94E22418160CF4D3C2A701960160E0CA
:101C300070E080E09FE30E9423260E9402270E941A
:101C4000E92420E030E048EC52E40E9490260E9413
:101C50000227CB016AE070E00E943D27182F809395
:101C6000DE029093DF0220E030E0A901C701B60157
:101C70000E94E22418160CF4B3C2A701960160E09A
:101C800070E080E09FE30E9423260E9402270E94CA
:101C9000E92420E030E040E251E40E9490260E94D6
:101CA0000227CB016AE070E00E943D27D82F809385
:101CB000E0029093E10220E030E0A901C701B60103
:101CC0000E94E22418160CF493C2A701960160E06A
:101CD00070E080E09FE30E9423260E9402270E947A
:101CE000E9240E940227CB016AE070E00E943D27B0
:101CF000C82F8093E2029093E30220E04DE267E078
:101D000070E089E294E00E94080B20E0402F66E03A
:101D100070E089E294E00E94080B412F65E070E0DA
:101D200089E294E00E94EE0A4D2FE4C2C701B60199
:101D30000E942326C1CCC701B6010E942326DECC17
:101D4000C701B6010E94232600CDC701B6010E943B
:101D5000232677CD20E030E040E85FE3C501B40101
:101D60000E94E2248111BCCD20E030E44CE156E435
:101D7000C701B6010E9448256B017C0120E030E0DC
:101D8000A9010E94382720E030E040E05FE387FDB2
:101D900045C0C701B6010E9424260E9402270E9466
:101DA000E9246B017C0120E030E04AE754E40E9422
:101DB00090260E940227D62F60930203709303039C
:101DC00020E030E048EC52E4C701B6010E949026C2
:101DD0006B017C0120E030E0A9010E94382720E05F
:101DE00030E040E05FE387FD1EC0C701B6010E94FE
:101DF00024260E940227CB016AE070E00E943D2762
:101E0000C82F809304039093050321E040E262E031
:101E100070E089ED94E00E94080B54CDC701B60133
:101E20000E942326BACFC701B6010E942326E1CF24
:101E3000C701B6010E9423269BCDC701B6010E94AF
:101E40002326B8CDC701B6010E942326DACD20E0B3
:101E500030E04AE754E4C701B6010E94382787FD05
:101E6000CCC020E030E44CE156E4C701B6010E944A
:101E7000E22487FFC2C020E030E0A901C701B6011B
:101E80000E94382720E030E040E05FE387FDA1C0FA
:101E9000C701B6010E9424260E9402270E94E9245D
:101EA00020E030E04AE754E40E9490260E94022796
:101EB000CB016AE070E00E943D27082F8093EA0280
:101EC0009093EB0220E030E0A901C701B6010E9427
:101ED000382720E030E040E05FE387FD7FC0C701A6
:101EE000B6010E9424260E9402270E94E92420E0D5
:101EF00030E048EC52E40E9490260E940227CB0179
:101F00006AE070E00E943D27182F8093EC029093C6
:101F1000ED0220E030E0A901C701B6010E94382798
:101F200020E030E040E05FE387FD5DC0C701B6011F
:101F30000E9424260E9402270E94E92420E030E02B
:101F400040E251E40E9490260E940227CB016AE001
:101F500070E00E943D27D82F8093EE029093EF020D
:101F600020E030E0A901C701B6010E94382720E037
:101F700030E040E05FE387FD3BC0C701B6010E944F
:101F800024260E9402270E94E9240E940227CB01F6
:101F90006AE070E00E943D27C82F8093F002909382
:101FA000F10220E040E264E070E081E894E00E9409
:101FB000080B402F63E070E081E894E00E94EE0A95
:101FC000412F62E070E081E894E00E94EE0A4D2F1C
:101FD000CBCDC701B6010E9423265ECFC701B60153
:101FE0000E94232680CFC701B6010E942326A2CFDC
:101FF000C701B6010E942326C4CF20E030E44CE1A3
:1020000056E4C701B6010E94382787FDBACD20E00B
:1020100030E0A901C701B6010E94382720E030E076
:1020200040E05FE387FDB3C0C701B6010E942426EC
:102030000E9402270E94E92420E030E44CE156E4AB
:102040000E9490260E940227B62E6093EA027093A7
:10205000EB0220E030E0A901C701B6010E94382759
:1020600020E030E040E05FE387FD96C0C701B601A5
:102070000E9424260E9402270E94E92420E030E0EA
:102080004AE754E40E9490260E940227CB016AE0AE
:1020900070E00E943D27082F8093EC029093ED02A0
:1020A00020E030E0A901C701B6010E94382720E0F6
:1020B00030E040E05FE387FD74C0C701B6010E94D5
:1020C00024260E9402270E94E92420E030E048EC08
:1020D00052E40E9490260E940227CB016AE070E041
:1020E0000E943D27182F8093EE029093EF0220E08C
:1020F00030E0A901C701B6010E94382720E030E096
:1021000040E05FE387FD52C0C701B6010E9424266C
:102110000E9402270E94E92420E030E040E251E4DE
:102120000E9490260E940227CB016AE070E00E9484
:102130003D27D82F8093F0029093F10220E030E009
:10214000A901C701B6010E94382720E030E040E035
:102150005FE387FD30C0C701B6010E9424260E94BC
:1021600002270E94E9240E940227CB016AE070E066
:102170000E943D27C82F8093F2029093F3024B2DCB
:1021800064E070E081E894E00E94EE0A12CFC7019B
:10219000B6010E9423264CCFC701B6010E94232618
:1021A00069CFC701B6010E9423268BCFC701B601B4
:1021B0000E942326ADCFC701B6010E942326CFCFB0
:1021C00020E030E040E05FE3C701B60190580BCD5E
:1021D00020E030E040E05FE3C701B60190582BCD2E
:1021E00020E030E040E05FE3C701B60190584BCDFE
:1021F000C701B601905820E030E040E05FE36BCDCE
:1022000020E030E048E452ECC701B6010E94E2242D
:1022100020E04DE2882309F473C120E030E04AE772
:1022200054ECC701B6010E94382718160CF070C094
:1022300020E030E0A901C701B6010E94E22487FF37
:1022400067C0A701960160E070E080E09FE30E9414
:1022500023260E9402270E94E9246B017C0120E0D2
:1022600030E048EC52E40E9490260E940227CAE027
:10227000D0E0CB01BE010E943D27082F8093DC02F5
:102280009093DD0220E030E040E251E4C701B60166
:102290000E9490260E940227CB01BE010E943D278A
:1022A000182F8093DE029093DF02C701B6010E94CF
:1022B0000227CB01BE010E943D27C82F8093E00278
:1022C0009093E10220E04DE267E070E089E294E063
:1022D0000E94080B20E040E266E070E089E294E0B2
:1022E0000E94080B402F65E070E089E294E00E94B4
:1022F000EE0A412F64E070E089E294E00E94EE0A69
:102300004C2F63E070E089E294E00E94EE0A31C055
:1023100020E030E0A901C701B6010E94E22481114A
:10232000E3C020E040E267E070E089E294E00E94D0
:10233000080B20E040E266E070E089E294E00E9451
:10234000080B20E040E265E070E089E294E00E9442
:10235000080B20E040E264E070E089E294E00E9433
:10236000080B20E040E263E070E089E294E00E9424
:10237000080B80912D0390912E03A0912F03B09113
:1023800030038093E6029093E702A093E802B093B3
:10239000E902C0902903D0902A03E0902B03F0902B
:1023A0002C0320E030E0A901C701B6010E94E2241D
:1023B000882309F48CC020E030E0A901C701B601F0
:1023C0000E94382720E030E040E05FE387FDD5C180
:1023D000C701B6010E9424260E9402270E94E92418
:1023E00020E030E048EC52E40E9490260E94022750
:1023F000CB016AE070E00E943D27D82F8093D40281
:102400009093D50220E030E0A901C701B6010E94F7
:10241000382720E030E040E05FE387FDB3C1C7012B
:10242000B6010E9424260E9402270E94E92420E08F
:1024300030E040E251E40E9490260E940227CB0146
:102440006AE070E00E943D27C82F8093D6029093E7
:10245000D70220E030E0A901C701B6010E94382769
:1024600020E030E040E05FE387FD91C1C701B601A5
:102470000E9424260E9402270E94E9240E9402272B
:10248000CB016AE070E00E943D27F82E8093D802CD
:102490009093D9024D2F62E070E089E294E00E94AF
:1024A000EE0A4C2F61E070E089E294E00E94EE0AAF
:1024B0004F2D70E060E089E294E00E94EE0A1092F5
:1024C000290310922A0310922B0310922C03DF9100
:1024D000CF911F910F91FF90EF90DF90CF90BF9021
:1024E000AF909F908F90089520E030E048E452E450
:1024F000C701B6010E94E224811123C020E040E21E
:1025000067E070E089E294E00E94080B20E040E27E
:1025100066E070E089E294E00E94080B20E040E26F
:1025200065E070E089E294E00E94080B20E045E05D
:1025300064E070E089E294E00E94080B20E040E053
:1025400012CF20E030E0A901C701B6010E94382770
:1025500020E030E04AE754E418160CF04AC0C70106
:10256000B6010E94E22487FF17C120E030E040E07E
:102570005FE3C701B6010E9424260E9402270E9441
:10258000E9246B017C0120E030E048EC52E40E9439
:1025900090260E940227CAE0D0E0CB01BE010E9433
:1025A0003D27082F8093DC029093DD0220E030E08D
:1025B00040E251E4C701B6010E9490260E94022722
:1025C000CB01BE010E943D27182F8093DE0290931D
:1025D000DF02C701B6010E940227CB01BE010E94A3
:1025E0003D27C82F8093E0029093E10220E040E273
:1025F0006BCEC701B6010E94382787FDBACE20E016
:1026000030E0A901C701B6010E94382787FD9DC0AF
:1026100020E030E040E05FE3C701B6010E942426DD
:102620000E9402270E94E92420E030E04AE754E4B7
:102630000E9490260E940227CB016AE070E00E946F
:102640003D27082F8093DC029093DD0220E030E0EC
:10265000A901C701B6010E94382720E030E040E020
:102660005FE387FD7BC0C701B6010E9424260E945C
:1026700002270E94E92420E030E048EC52E40E9466
:1026800090260E940227CB016AE070E00E943D275D
:10269000182F8093DE029093DF0220E030E0A90142
:1026A000C701B6010E94382720E030E040E05FE338
:1026B00087FD59C0C701B6010E9424260E94022747
:1026C0000E94E92420E030E040E251E40E9490269C
:1026D0000E940227CB016AE070E00E943D27D82FBC
:1026E0008093E0029093E10220E030E0A901C7016D
:1026F000B6010E94382720E030E040E05FE387FD2C
:1027000037C0C701B6010E9424260E9402270E94FA
:10271000E9240E940227CB016AE070E00E943D2775
:10272000C82F8093E2029093E30220E040E267E04A
:1027300070E089E294E00E94080B402F66E070E0B0
:1027400089E294E00E94EE0AE8CA20E030E040E02E
:102750005FE3C701B6010E94232662CFC701B6011D
:102760000E94232684CFC701B6010E942326A6CF4C
:10277000C701B6010E942326C8CFC701B6010E9437
:1027800023262ACEC701B6010E9423264CCEC701BC
:10279000B6010E9423266ECE20E030E04AE754E4E2
:1027A000C701B6010E94382787FF32CFE2CDFC0176
:1027B000EA5AFF4F20813181121613064CF4603122
:1027C000710530F4262F4AE070E060E00C94D209E5
:1027D0000895FB0101900020E9F73197AF01461BF6
:1027E000570BDC01ED91FC910280F381E02D1994EF
:1027F00068E676E08091CE059091CF050E94E913BE
:10280000E8E6F6E001900020E9F7E95AF64041F4E5
:1028100060E372E08091CE059091CF050C94E913AE
:102820000895CF93DF93EC01198218821B821A82DC
:102830001D821C8261E070E090E080E00E94D3285D
:102840000097A1F0998388831B821A822C813D8195
:10285000232B11F4FC0110821D821C8261E372E0C3
:1028600088819981DF91CF910C94BD2988819981CC
:10287000009711F00E944A28198218821D821C823A
:102880001B821A82DF91CF910895880F991FFC0156
:10289000EC52F84F0190F081E02D309749F18081A2
:1028A000918197FD22C01F922EE32F931F9221E06A
:1028B0002F939F938F931F928BE68F931F928CE39E
:1028C0008F9382E392E09F938F9388E696E09F93A5
:1028D0008F930E94D2290E94F8138DB79EB70E964F
:1028E0000FB6F8949EBF0FBE8DBF90E080E00895B4
:1028F0008FEF9FEF0895FC018681978120853185B8
:102900008217930761F0918780872817390724F48D
:10291000828193810C94451484819581FBCF089525
:1029200077FD1EC01F922EE32F937F936F939F938B
:102930008F931F928CE38F9380E492E09F938F9309
:1029400088E696E09F938F930E94D2298DB79EB719
:102950000C960FB6F8949EBF0FBE8DBF0C94F81363
:1029600008950F931F93CF93DF93C0919E08D0914A
:102970009F08C436D1056CF58C0180E190E00E947F
:10298000AE27FC01DE01AA0FBB1FAC52B84FED937E
:10299000FC9315830483138212821386128681E0CE
:1029A00090E0958784878FEF9FEF9183808397874F
:1029B0008687CE01019690939F0880939E0810927F
:1029C000A1081092A008CE01DF91CF911F910F9125
:1029D0000895CFEFDFEFF7CF4F925F926F927F9224
:1029E0008F929F92AF92BF92CF92DF92EF92FF921F
:1029F0000F931F93CF93DF93C0919C08D0919D08B4
:102A0000C436D1050CF04FC04701280139017A01C5
:102A10006B015C0184E290E00E94AE27FC01DE01C4
:102A2000AA0FBB1FA45FB84FED93FC93B78AA68A89
:102A3000158A148AD382C282468257826086718642
:102A4000A70170E060E0448755876687778781E05B
:102A500090E095838483918E808E128E138E148ED7
:102A6000158E13A212A28FEF9FEF91838083CE0168
:102A7000019690939D0880939C081092A108109253
:102A8000A008CE01DF91CF911F910F91FF90EF90A1
:102A9000DF90CF90BF90AF909F908F907F906F907E
:102AA0005F904F900895CFEFDFEFEBCFEF92FF9263
:102AB0000F931F93CF93DF93C0919C08D0919D08F3
:102AC000C436D1050CF048C08B017C0184E290E053
:102AD0000E94AE27FC01DE01AA0FBB1FA45FB84F06
:102AE000ED93FC93F78AE68A158A148A81E090E0D8
:102AF0009383828382E090E095838483118F008F9B
:102B000080E090E0A0E8BFEB868F978FA0A3B1A3F1
:102B100084E690E0A0E0B0E084879587A687B78739
:102B2000168217821086118613A212A28FEF9FEFD2
:102B300091838083CE01019690939D0880939C0899
:102B40001092A1081092A008CE01DF91CF911F91A1
:102B50000F91FF90EF900895CFEFDFEFF5CFEF9259
:102B6000FF920F931F93CF93DF93C0919E08D09154
:102B70009F08C436D105C4F5072F162F7C0180E1CC
:102B800090E00E94AE27FC01CC0FDD1FCC52D84F45
:102B9000F983E883F582E482138212821386128617
:102BA00081E090E0958784878FEF9FEF918380830A
:102BB0001687078762E0812F0E943A0780919E085E
:102BC00090919F089C012F5F3F4F30939F08209367
:102BD0009E081092A1081092A008DF91CF911F913A
:102BE0000F91FF90EF9008958FEF9FEFF6CF1F9317
:102BF000CF93DF93CEECD5E01F811F8282ED95E06D
:102C00000E9401231F83DF91CF911F9108951F928E
:102C10000F920FB60F9211240BB60F922F933F9382
:102C20004F935F936F937F938F939F93AF93BF93D4
:102C3000EF93FF9381E395E00E94BC05FF91EF9134
:102C4000BF91AF919F918F917F916F915F914F91C4
:102C50003F912F910F900BBE0F900FBE0F901F90C2
:102C600018951F920F920FB60F9211240BB60F9268
:102C70002F938F939F93EF93FF93E0914105F091F2
:102C800042058081E0914705F091480582FD1DC015
:102C9000908180914A058F5F8F7320914B05821739
:102CA00041F0E0914A05F0E0EF5CFA4F958F809398
:102CB0004A05FF91EF919F918F912F910F900BBE3D
:102CC0000F900FBE0F901F9018958081F2CF1F922A
:102CD0000F920FB60F9211242F933F938F939F93D0
:102CE000AF93BF9380911D0390911E03A0911F038A
:102CF000B091200330911C0323E0230F2D3758F5AA
:102D00000196A11DB11D20931C0380931D03909378
:102D10001E03A0931F03B093200380912103909181
:102D20002203A0912303B09124030196A11DB11D9C
:102D30008093210390932203A0932303B093240351
:102D4000BF91AF919F918F913F912F910F900FBEA7
:102D50000F901F90189526E8230F0296A11DB11D14
:102D6000D2CF1F920F920FB60F9211240BB60F9273
:102D70002F933F934F935F936F937F938F939F9383
:102D8000AF93BF93EF93FF93E0910E02F0910F0288
:102D90001995FF91EF91BF91AF919F918F917F9185
:102DA0006F915F914F913F912F910F900BBE0F90BC
:102DB0000FBE0F901F9018951F920F920FB60F9293
:102DC00011240BB60F922F933F934F935F936F9302
:102DD0007F938F939F93AF93BF93EF93FF93E09174
:102DE0000C02F0910D021995FF91EF91BF91AF91F7
:102DF0009F918F917F916F915F914F913F912F9113
:102E00000F900BBE0F900FBE0F901F9018951F9242
:102E10000F920FB60F9211240BB60F922F933F9380
:102E20004F935F936F937F938F939F93AF93BF93D2
:102E3000EF93FF93E0910202F09103021995FF9145
:102E4000EF91BF91AF919F918F917F916F915F9122
:102E50004F913F912F910F900BBE0F900FBE0F908F
:102E60001F9018951F920F920FB60F9211240BB658
:102E70000F922F933F934F935F936F937F938F9313
:102E80009F93AF93BF93EF93FF93E0910002F09174
:102E900001021995FF91EF91BF91AF919F918F9191
:102EA0007F916F915F914F913F912F910F900BBE4A
:102EB0000F900FBE0F901F9018951F920F920FB694
:102EC0000F9211240BB60F922F933F934F935F9362
:102ED0006F937F938F939F93AF93BF93EF93FF93E2
:102EE000E0910A02F0910B021995FF91EF91BF91C9
:102EF000AF919F918F917F916F915F914F913F9192
:102F00002F910F900BBE0F900FBE0F901F90189532
:102F10001F920F920FB60F9211240BB60F922F93A0
:102F20003F934F935F936F937F938F939F93AF9351
:102F3000BF93EF93FF93E0910802F0910902199576
:102F4000FF91EF91BF91AF919F918F917F916F9181
:102F50005F914F913F912F910F900BBE0F900FBE3D
:102F60000F901F9018951F920F920FB60F92112479
:102F70000BB60F922F933F934F935F936F937F9373
:102F80008F939F93AF93BF93EF93FF93E0910602CC
:102F9000F09107021995FF91EF91BF91AF919F9129
:102FA0008F917F916F915F914F913F912F910F90F2
:102FB0000BBE0F900FBE0F901F9018951F920F928F
:102FC0000FB60F9211240BB60F922F933F934F938E
:102FD0005F936F937F938F939F93AF93BF93EF9381
:102FE000FF93E0910402F09105021995FF91EF9192
:102FF000BF91AF919F918F917F916F915F914F9111
:103000003F912F910F900BBE0F900FBE0F901F900E
:1030100018958BBFFB0107900020E9F7609570952C
:103020006E0F7F1FCB010895FA016BBFDC012150A9
:10303000304030F08D910790801919F40020B9F7D5
:10304000881B990B0895E1E3F5E01382128282E276
:1030500092E09183808385EC90E09587848784EC6F
:1030600090E09787868780EC90E0918B808B81EC55
:1030700090E0938B828B82EC90E0958B848B86EC36
:1030800090E0978B868B118E128E138E148EF09398
:10309000CF05E093CE0584EF91E0A0E0B0E084831B
:1030A0009583A683B7832FE230E040E350E06EE2E1
:1030B00070E089ED94E00E944E0A24E230E043E2A1
:1030C00050E062E270E081E894E00E944E0A2EE156
:1030D00030E04CE150E06FE170E089E294E00E9462
:1030E0004E0A45E364E38DE194E00E94770947E2EC
:1030F00065E281E194E00E94770941E260E285E0C7
:1031000094E00E9477094FE06EE089EF93E00E941F
:1031100077094DE06CE08DEE93E00E9477094DE178
:103120006AE181EE93E00E9477098BED93E00E94C3
:10313000111485ED93E00C941114789484B5826099
:1031400084BD84B5816084BD85B5826085BD85B54B
:10315000816085BD80916E00816080936E001092C9
:103160008100809181008260809381008091810044
:1031700081608093810080918000816080938000D5
:103180008091B10084608093B1008091B000816033
:103190008093B00080919100826080939100809133
:1031A0009100816080939100809190008160809374
:1031B00090008091A10082608093A1008091A10085
:1031C00081608093A1008091A00081608093A00025
:1031D0008091210182608093210180912101816091
:1031E0008093210180912001816080932001809152
:1031F0007A00846080937A0080917A008260809364
:103200007A0080917A00816080937A0080917A00C0
:10321000806880937A001092C100F8941092E803BD
:103220001092E9031092EA031092EB037894F89459
:10323000109218041092190410921A0410921B0490
:103240007894F89410920C0410920D0410920E04CD
:1032500010920F047894F8941092000410920104D4
:1032600010920204109203047894F8941092F403DC
:103270001092F5031092F6031092F7037894F894E5
:103280001092240410922504109226041092270410
:10329000789480912F05909130051816190644F402
:1032A00021E04CE070E060E089ED94E00E94D209FA
:1032B000C0911602D0911702BE0189ED94E00E94E0
:1032C000D7138091D7049091D8041816190644F4A6
:1032D00021E04CE070E060E081E894E00E94D209D7
:1032E000BE0181E894E00E94D71380917F04909101
:1032F00080041816190644F421E04CE070E060E008
:1033000089E294E00E94D209BE0189E294E00E9421
:10331000D7130E94280B62E082E30E943A0762E022
:103320008EE30E943A0762E081E30E943A0762E07E
:103330008AE20E943A0762E080E40E943A0762E073
:103340008BE30E943A0762E08CE30E943A0762E056
:103350008BE20E943A0762E083E30E943A0762E050
:1033600087E30E943A0762E08AE30E943A0762E03C
:1033700085E40E943A0762E084E10E943A0762E035
:1033800087E00E943A0762E086E10E943A0762E025
:1033900083E00E943A0762E084E00E943A0762E01C
:1033A0008BE00E943A0762E089E00E943A0762E0FF
:1033B00089E10E943A0762E08BE10E943A0761E0EE
:1033C00082E00E943A0770E060E082E00E946B07B2
:1033D000E0914105F091420582E08083E0913D0556
:1033E000F0913E051082E0913F05F091400580E1AB
:1033F000808310924905E0914505F091460586E0ED
:103400008083E0914305F091440580818061808351
:10341000E0914305F0914405808188608083E091CC
:103420004305F0914405808180688083E0914305E5
:10343000F091440580818F7D80838CE492E09093AD
:103440000B0780930A071092010710920007109251
:103450009D0810929C0810929F0810929E0810924E
:10346000A1081092A0081092D00565E6E62E63E050
:10347000F62E00E010E0980144E650E061E070E0D4
:1034800084E899E00E94EC1475E7E72E73E0F72ECC
:1034900000E010E0980144E650E061E070E082E670
:1034A00099E00E94EC14E9E6EE2EE3E0FE2E00E047
:1034B00010E0980144E650E061E070E087E399E0B5
:1034C0000E94EC14F1E6EF2EF3E0FF2E00E010E096
:1034D000980144E650E061E070E086E199E00E94E6
:1034E000EC14ADE5EA2EA3E0FA2E00E010E098011E
:1034F00044E650E061E070E084EF98E00E94EC1454
:10350000B5E5EB2EB3E0FB2E00E010E0980144E6B9
:1035100050E061E070E080ED98E00E94EC14C1E5BD
:10352000EC2EC3E0FC2E00E010E0980144E650E0F1
:1035300061E070E08BEA98E00E94EC14D9E5ED2E92
:10354000D3E0FD2E00E010E0980144E650E061E099
:1035500070E084E898E00E94EC1411E7E12E13E09B
:10356000F12E00E010E0980144E650E061E070E0E8
:103570008DE598E00E94EC140DE6E02E03E0F02EBD
:1035800000E010E0980144E650E061E070E089E37B
:1035900098E00E94EC1461E370E081E198E00E9401
:1035A000AF156AE270E08EEE97E00E94AF156CE313
:1035B00070E08CEC97E00E94AF156BE270E081EB5D
:1035C00097E00E94AF1563E370E08BE997E00E94FB
:1035D000AF1567E370E089E797E00E94AF156AE3F3
:1035E00070E087E697E00E94AF1565E470E080E543
:1035F00097E00E94AF1564E170E084E397E00E94D9
:10360000AF1566E170E08FE197E00E94AF1563E0CF
:1036100070E087E097E00E94AF1564E070E08EEE06
:1036200096E00E94AF158DE4E82E83E0F82E00E0CE
:1036300010E028EC32E450E040E062E070E089EC19
:1036400096E00E94EC146BE070E086EB96E00E943E
:10365000AF1569E070E083EA96E00E94AF1560E480
:1036600070E083E896E00E94AF1599E4E92E93E0BC
:10367000F92E00E010E028EC32E450E040E062E097
:1036800070E087E596E00E94EC1425E4E22E23E04A
:10369000F22E00E010E028EC32E450E040E061E07F
:1036A00070E086E396E00E94EC1489E196E00E94C7
:1036B000B11490937A038093790361E473E088EF07
:1036C00095E00E9456156DE373E08AEC95E00E9448
:1036D000561569E373E088EA95E00E94561565E3A4
:1036E00073E081E895E00E94561561E373E082E69D
:1036F00095E00E9456156DE273E08AE395E00E9422
:10370000561569E273E088E195E00E94561535E2AE
:10371000E32E33E0F32E00E010E0980144E650E0A1
:1037200061E070E084EF94E00E94EC1486ED94E098
:103730000E94B1149093C6038093C50386EB94E076
:103740000E94B1149093C8038093C7038CE994E05E
:103750000E94B1149093BC038093BB0380E894E073
:103760000E94B1149093BE038093BD0387E694E05A
:103770000E94B1149093B2038093B1038CE494E05F
:103780000E94B1149093B4038093B30382E394E056
:103790000E94B1149093A8038093A70386E194E05C
:1037A0000E94B1149093AA038093A90386EF93E03B
:1037B0000E94B11490939E0380939D0384ED93E047
:1037C0000E94B1149093A00380939F038EEB93E02B
:1037D0000E94B114909394038093930386EA93E03C
:1037E0000E94B114909396038093950380E993E02F
:1037F0000E94B114909382038093810382E793E047
:103800000E94B11490938403809383038BE593E02B
:103810000E94B11490937C0380937B038CE393E02C
:103820000E94B11490937E0380937D038EE193E018
:103830000E94B11490938803809387038FEF92E0E6
:103840000E94B11490938A038093890348E6642E02
:1038500046E0742E54E0852E912CA12CB12C809141
:10386000CE059091CF05DC01ED91FC910084F185AE
:10387000E02D19952091D005892B81F02C3381F012
:103880008091CE059091CF05DC01ED91FC910284F1
:10389000F385E02D19958093D005E1CF2C33C1F548
:1038A0000091CE051091CF0551EDE52E55E0F52E96
:1038B000D0E0C0E00E949C08F80160877187828791
:1038C0009387D801ED91FC910284F385E02DC80126
:1038D000199597FF51C60E949C08F80120853185F3
:1038E00042855385621B730B840B950B24813581B4
:1038F00046815781621773078407950710F3D093A9
:103900006706C0936606209709F063C01092D00541
:103910008091A0089091A108892B09F45EC48EECD7
:10392000C82E85E0D82EF12CE12C80919C08909136
:103930009D08E816F9060CF4E1C2C4EDD7E010E0EA
:1039400000E080919E0890919F08081719070CF0DD
:1039500044C4E881F9818081918197FD36C00E943D
:103960009C08E881F981C680D780E084F1846C19D5
:103970007D098E099F096D3271408105910528F1FD
:103980008685978597FDFFC30E94E3067C01E88149
:10399000F98184859585E816F906B9F06081718111
:1039A00081E0E816F10409F0E9C38AE690E00E949C
:1039B00090140E949C08E881F98166837783808750
:1039C0009187E881F981F586E4860F5F1F4F229683
:1039D000B8CFFE01E253FA4F2EE323832296D09311
:1039E0006706C0936606C253DA4F1A828091D105EA
:1039F000813609F44EC074F4833309F499C08433DA
:103A000009F4EBC0823309F081CF109201071092C4
:103A100000077CCF853609F4FBC1863611F1843668
:103A200009F074CFECE0F7E090E080E020919C0892
:103A300030919D08821793070CF068CFA191B19146
:103A400012962D913C911397225031092230310565
:103A500030F421E030E01B963C932E931A970196A8
:103A6000E5CF20919C0830919D08ECE0F7E090E0D4
:103A700080E0821793070CF074C18436910509F435
:103A800070C1C191D1914881598157FDFBC0019608
:103A9000F0CF80910A0790910B070097E1F01F92F9
:103AA0002F939F938F931F9280E38F931F928CE3AA
:103AB0008F93E1E6F2E0FF93EF937F926F920E9483
:103AC000D2290E94F8138DB79EB70C960FB6F894C2
:103AD0009EBF0FBE8DBFA1E0B0E0B0930107A093E1
:103AE0000007ECE0F7E090E080E020919C08309146
:103AF0009D0882179307A4F0E4EDF7E090E080E0E2
:103B000020919E0830919F08821793070CF0FECEFB
:103B1000A191B1912FEF3FEF2D933C930196F0CF00
:103B2000A191B1912FEF3FEF2D933C930196DDCF03
:103B3000D0E0C0E080919C0890919D08C817D907FB
:103B40000CF0E4CEFE01EE0FFF1FE45FF84F0081A2
:103B50001181D80154966D917C9161157105F1F038
:103B6000FB0101900020E9F73197AF01461B570B8D
:103B700085ED95E00E94C429892B71F4F8018081BC
:103B80009181019649F40E94F715D8018D939C9379
:103B9000C0919C08D0919D082196CCCFF801C68891
:103BA000D7880D2C000CEE08FF08C701B6010E9453
:103BB00009189C01B701A60185ED95E00E94141833
:103BC000892B51F7D8018D919C91019629F70E947C
:103BD000F715F80191838083DBCFD0E0C0E08091BE
:103BE0009E0890919F08C817D9070CF08FCEFE0150
:103BF000EE0FFF1FEC52F84F00811181D801129691
:103C00006D917C9161157105F1F0FB01019000202F
:103C1000E9F73197AF01461B570B85ED95E00E9400
:103C2000C429892B71F4F80180819181019649F4AE
:103C30000E94F715D8018D939C93C0919E08D09156
:103C40009F082196CCCFF801C480D5800D2C000CA4
:103C5000EE08FF08C701B6010E9409189C01B701D0
:103C6000A60185ED95E00E941418892B51F7D80123
:103C70008D919C91019629F70E94F715F801918387
:103C80008083DBCF0C891D89CE80DF80E884F984B6
:103C900020E030E048EC52E4C701B6010E9448251C
:103CA0000E940227CB0164E670E00E943D27582E57
:103CB000492EC701B6010E9402272AA13BA18A8191
:103CC0009B810115110539F11F924EE34F931F930C
:103CD0000F934F925F927F936F933F932F939F9396
:103CE0008F931F9282E68F931F928CE38F938AE6C5
:103CF00092E09F938F937F926F920E94D2292DB76B
:103D00003EB72C5E3F4F0FB6F8943EBF0FBE2DBF9F
:103D10000E94F813FBCD1F924EE34F934F894F93B0
:103D20004E894F934F925F927F936F933F932F9360
:103D30009F938F931F9282E68F931F928CE38F93B2
:103D400086E892E09F938F937F926F920E94D22990
:103D50008DB79EB744960FB6F8949EBF0FBE8DBF29
:103D6000D7CFA4EDB7E090E080E020919E0830919D
:103D70009F08821793070CF00CC48436910509F450
:103D800008C4ED91FD912081318137FD02C001967B
:103D9000ECCF828193810097E9F01F922EE32F935D
:103DA0009F938F931F928DE68F931F928CE38F9337
:103DB000A1E6B2E0BF93AF937F926F920E94D229A7
:103DC0002DB73EB7245F3F4F0FB6F8943EBF0FBEEE
:103DD0002DBF9ECF1F928EE38F9385818F93848119
:103DE0008F931F928DE68F931F928CE38F9382EABD
:103DF00092E09F938F937F926F920E94D2298DB70A
:103E00009EB70C960FB6F8949EBF0FBE8DBF80CFA5
:103E10000E94F7157C0190E080E020919C08309191
:103E20009D08821793070CF071CDEC01C156DF4F4E
:103E30008E01000F111F02531A4FD801ED91FC9112
:103E400020813181E216F30609F056C022813381C8
:103E50002D7F2130310509F04FC084819581019774
:103E6000F9F4C08CD18C5090DF051092DF0585ED00
:103E700095E00E941F23F601608371838283938300
:103E80005092DF05D801ED91FC91A08DB18D8D91FF
:103E90009D910D90BC91A02D828F938FA48FB58F93
:103EA000CC0FDD1FC253DA4FE881F98184819581FF
:103EB0000297F1F4008D118DD090DF051092DF058F
:103EC00085ED95E00E94FD22F80160837183828375
:103ED0009383D092DF05E881F981A08DB18D8D911A
:103EE0009D910D90BC91A02D868F978FA0A3B1A31B
:103EF00080919C0890919D0801968FCFE601C25C4D
:103F0000DE4FA881B9818D919C91119797FD11C0C9
:103F100012968D919C9113970297029750F41496E4
:103F20008D919C9115978130910551F0029709F47C
:103F300085C0FFEFEF1AFF0A22E0C20ED11CF5CCBC
:103F40005896ED91FC91599740815181628173811E
:103F50005A968D919D910D90BC91A02D48175907AF
:103F60006A077B0731F30E949C08E881F981008988
:103F7000118922893389AB01BC01401B510B620BB3
:103F8000730B84859585A685B78521E0892B8A2BBF
:103F90008B2B29F482859385892B09F420E0822FCD
:103FA00090E0B0E0A0E084179507A607B70708F6F1
:103FB0008081918197FD25C01F923EE33F93008C45
:103FC000F18DE02D21812F9320812F939F938F934B
:103FD0001F9285E68F931F929CE39F93A2E3B2E02A
:103FE000BF93AF937F926F920E94D2290E94F813E1
:103FF0002DB73EB7225F3F4F0FB6F8943EBF0FBEBE
:104000002DBFE881F981A08DB18D8D919D910D908D
:10401000BC91A02D828F938FA48FB58F08811981B9
:104020000E949C08D80150966D937D938D939C932C
:104030005397E881F981138612867BCF5896ED91CC
:10404000FC9159975E962D913D914D915C91919780
:1040500060817181828193810E94E224811177C005
:10406000E881F98182859385892B09F462CFE88103
:10407000F9810081118117FD53C0008CF18DE02D75
:1040800020803180428053801F92BEE3BF9320E0A6
:1040900030E048EC52E4C201B1010E9448250E9480
:1040A0000227CB0164E670E00E943D2797FF03C022
:1040B0009195819591099F938F93C201B1010E94BF
:1040C00002279B0177FF04C022273327261B370BCB
:1040D0003F932F931F930F931F92E5E6EF931F9249
:1040E000FCE3FF932BEA32E03F932F937F926F9292
:1040F0000E94D229ADB7BEB750960FB6F894BEBF96
:104100000FBEADBF20E030E0A901C201B1010E94A5
:10411000E22487FF03C0BDE2B0936D060E94F8134E
:10412000E881F981A08DB18D8D919D910D90BC910B
:10413000A02D868F978FA0A3B1A3088119810E941B
:104140009C08F801608B718B828B938B72CF0E94DD
:104150009C08E881F9810089118922893389601BD3
:10416000710B820B930B0485158526853785061701
:1041700017072807390708F073CF79CF89E690E051
:104180000E9490141ECCA285B385109709F41DCC13
:104190008D919C91248535858217930709F415CC60
:1041A0006081718118161906ACF48AE690E00E94CD
:1041B0009014E881F981A285B3858D919C919587B2
:1041C00084870E949C08E881F981668377838087D1
:1041D0009187FBCB89E690E0EACF8091A00890918F
:1041E000A108892B09F4B6C18091D3039091D4031F
:1041F000892B01F1D0E0C0E0BE0182E00E946B0794
:104200000E9467082196C11591E0D907A9F7CFEF61
:10421000D0E0BE0182E00E946B070E9467082197F0
:10422000C0F76FE770E082E00E946B071092D40342
:104230001092D30320E030E0A9016091CF03709188
:10424000D0038091D1039091D2030E94E22488236D
:1042500039F1109217021092160270E060E082E0CD
:104260000E946B071092CE031092CD0370E060E0C5
:1042700089ED94E00E94D71370E060E081E894E05B
:104280000E94D71370E060E089E294E00E94D713A7
:104290001092CF031092D0031092D1031092D20348
:1042A00081EE93E00E946309A50194010E945127C9
:1042B0003093CA032093C90381E194E00E9463090B
:1042C000A50194010E9451273093C0032093BF039E
:1042D00085E094E00E946309A50194010E945127A2
:1042E0003093B6032093B50389EF93E00E946309EE
:1042F000A50194010E9451273093AC032093AB0396
:104300008DEE93E00E946309A50194010E9451275C
:104310003093A2032093A1038DE194E00E946309EE
:10432000A50194010E94512730939803209397038D
:1043300083EC93E00E947B1489EB93E00E947B1452
:104340008FEA93E00E947B1485EA93E00E947B143D
:104350008BE993E00E947B1481E993E00E947B1437
:104360000E94280B0E949C0800918D0310918E03DF
:1043700020918F0330919003601B710B820B930B84
:10438000653671058105910508F4E4C00E949C081A
:1043900060938D0370938E0380938F0390939003AB
:1043A0008EE30E94E30690938C0380938B0320910D
:1043B0001402309115028217930789F0892B09F4B2
:1043C000CCC08091890390918A030E94451480910A
:1043D0008B0390918C03909315028093140282E3D7
:1043E0000E94E30690938603809385032091120236
:1043F000309113028217930789F0892B09F4B2C018
:1044000080918303909184030E94451480918503D9
:104410009091860390931302809312028BE10E9485
:10442000E3069093800380937F03209110023091E4
:1044300011028217930789F0892B09F498C08091A3
:104440007D0390917E030E94451480917F0390919B
:104450008003909311028093100289E10E94E30689
:10446000892B31F48091790390917A030E9445144D
:1044700060E08CE20E940C0760E08DE20E940C0775
:1044800060E088E20E940C0760E08DE30E940C0768
:1044900060E088E30E940C076091750389E30E9445
:1044A0000C076091710383E40E940C0780916D03F7
:1044B00090916E03A0916F03B091700361E001973A
:1044C000A105B10509F060E089E20E940C07809126
:1044D000690390916A03A0916B03B0916C0361E052
:1044E0000197A105B10509F060E085E10E940C0784
:1044F0008091650390916603A0916703B091680372
:1045000061E00297A105B10509F060E087E10E9432
:104510000C076091610385E00E940C0760915D03C8
:1045200086E00E940C0760E08AE00E940C0760E0D1
:1045300088E00E940C07609159038FE30E940C07EA
:104540006091550386E20E940C076091510388E157
:104550000E940C070E944B0682C9809187039091AC
:10456000880333CF80918103909182034DCF809156
:104570007B0390917C0367CF8E33910509F4BFC90B
:10458000D7018D937D012196C539D10509F092C9D6
:10459000B6C9E1E0F0E0F093A108E093A0081F9213
:1045A0008EE38F931F9283E68F931F928CE38F93FA
:1045B00080EC92E09F938F937F926F920E94D2291A
:1045C0000E94F8132DB73EB7265F3F4F0FB6F89401
:1045D0003EBF0FBE2DBF9AC98091D5039091D603DF
:1045E000009711F00E944A288091DB039091DC0330
:1045F000009711F00C944A280895662777270C94A9
:104600006323FC0188279927E89421912032E9F35C
:10461000293010F02E30C8F32B3241F02D3239F40E
:10462000689404C00E945B23820F911D2191205346
:104630002A30C0F31EF4909581959F4F08951F93E3
:10464000FC0199278827BC01E89411911032E9F305
:10465000193010F01E30C8F31B3251F01D3249F4EE
:10466000689406C00E944623610F711D811D911D33
:10467000119110531A30B0F33EF4909580957095D7
:1046800061957F4F8F4F9F4F1F910895592F482F4E
:10469000372F262F660F771F881F991F660F771FEA
:1046A000881F991F620F731F841F951F660F771F46
:1046B000881F991F08957AE0979F902D879F802DDE
:1046C000910D112408958F929F92AF92BF92CF9235
:1046D000DF92EF92FF920F931F93CF93DF935C01D2
:1046E0007B016115710519F0DB018D939C938501A8
:1046F0000F5F1F4FF501D0818D2F90E00E94C124E4
:104700006C01892BB9F5DD32B9F50F5F1F4FD5016B
:104710001196DC91C1E05801F1E0AF1AB10843E015
:1047200050E06CEA71E0C5010E94CA24892B69F54A
:10473000680182E0C80ED11C45E050E067EA71E0F4
:10474000C6010E94CA24892B21F4680197E0C90E92
:10475000D11CE114F10419F0D701CD92DC9260E094
:1047600070E080E89FEFC111FFC060E070E080E87A
:104770009FE7FAC05801BBCFDB3229F485010E5FF9
:104780001F4FF501D181C0E0C6CF43E050E064EA9D
:1047900071E0C5010E94CA24892BE9F0F80110E0FC
:1047A00000E020E030E0A9015F01B0ED8B2E8D0E1E
:1047B00089E08815C8F19C2E689491F88C2F887038
:1047C000C2FF16C0811102C00F5F1F4F3196D50185
:1047D000DC91C92DE9CFE114F10429F00E5F1F4FE0
:1047E000F7011183008360E070E080EC9FE7BCC0BC
:1047F000882311F001501109A5E0B0E00E940926BC
:104800009B01AC01220F331F441F551F280D311D82
:10481000411D511D283999E93907490799E159077F
:10482000A8F2C6609C2ED2CFAEEF8A1206C0C3FD9E
:104830003CC09C2E689493F8C9CFDF7DD534A9F590
:1048400080818D3239F4C061DF011296818162E08E
:1048500070E006C0DF018B32C1F3119661E070E0B9
:1048600080535D01A61AB70A8A30F8F4E0E8CE1644
:10487000ECE0DE065CF4B601660F771F660F771F6B
:10488000C60ED71ECC0CDD1CC80ED11C5D01FFEF7F
:10489000AF1ABF0A8C9180538A30A8F1C4FF03C0BD
:1048A000D194C194D1080C0D1D1DC1FF09C0E114A4
:1048B000F10431F081E0A81AB108D701AD92BC92A1
:1048C000CA01B9010E94E724C370C33009F49058AB
:1048D0004B015C0120E030E0A9010E94E224882322
:1048E00009F440C0CBEDD1E017FF05C0119501954B
:1048F0001109C3ECD1E06E01B8E1CB1AD10880E216
:10490000E82EF12C0FC0D501B1CFFE0125913591D4
:10491000459154910E191F09C501B4010E94482503
:104920004B015C01D501C4010E151F0574F72497D6
:10493000F594E794CC16DD06A9F78A2F880F8B2F04
:10494000881F8F3F49F020E030E0A901C501B40184
:104950000E94E224811106C082E290E09093A308B5
:104960008093A208C501B401DF91CF911F910F91EF
:10497000FF90EF90DF90CF90BF90AF909F908F907F
:10498000089591110C94B525803219F08950855005
:10499000C8F70895FB01DC014150504088F08D912B
:1049A00081341CF08B350CF4805E659161341CF011
:1049B0006B350CF4605E861B611171F3990B0895E1
:1049C000881BFCCF0E94242508F481E00895E89418
:1049D00009C097FB3EF490958095709561957F4F47
:1049E0008F4F9F4F9923A9F0F92F96E9BB279395F5
:1049F000F695879577956795B795F111F8CFFAF405
:104A0000BB0F11F460FF1BC06F5F7F4F8F4F9F4F35
:104A100016C0882311F096E911C0772321F09EE893
:104A2000872F762F05C0662371F096E8862F70E0F9
:104A300060E02AF09A95660F771F881FDAF7880FD3
:104A40009695879597F90895990F0008550FAA0B29
:104A5000E0E8FEEF16161706E807F907C0F0121691
:104A60001306E407F50798F0621B730B840B950B94
:104A700039F40A2661F0232B242B252B21F40895E9
:104A80000A2609F4A140A6958FEF811D811D089586
:104A90000E945B250C94CF250E94C12538F00E940E
:104AA000C82520F0952311F00C94B8250C94BE2550
:104AB00011240C9403260E94E02570F3959FC1F306
:104AC000950F50E0551F629FF001729FBB27F00DBC
:104AD000B11D639FAA27F00DB11DAA1F649F662711
:104AE000B00DA11D661F829F2227B00DA11D621F60
:104AF000739FB00DA11D621F839FA00D611D221F1A
:104B0000749F3327A00D611D231F849F600D211DFD
:104B1000822F762F6A2F11249F5750409AF0F1F080
:104B200088234AF0EE0FFF1FBB1F661F771F881FE9
:104B300091505040A9F79E3F510580F00C94B82544
:104B40000C9403265F3FE4F3983ED4F38695779563
:104B50006795B795F795E7959F5FC1F7FE2B880F8F
:104B6000911D9695879597F9089599278827089517
:104B700097F99F6780E870E060E008959FEF80EC10
:104B8000089500240A9416161706180609060895B3
:104B900000240A9412161306140605060895092E19
:104BA0000394000C11F4882352F0BB0F40F4BF2B88
:104BB00011F460FF04C06F5F7F4F8F4F9F4F0895C8
:104BC00057FD9058440F551F59F05F3F71F04795BE
:104BD000880F97FB991F61F09F3F79F087950895A3
:104BE000121613061406551FF2CF4695F1DF08C0C2
:104BF000161617061806991FF1CF869571056105DF
:104C000008940895E894BB2766277727CB0197F986
:104C100008950E941426A59F900DB49F900DA49F07
:104C2000800D911D11240895A29FB001B39FC00172
:104C3000A39F700D811D1124911DB29F700D811DC8
:104C40001124911D08955058BB27AA270E943B2686
:104C50000C94CF250E94C12538F00E94C82520F071
:104C600039F49F3F19F426F40C94BE250EF4E09518
:104C7000E7FB0C94B825E92F0E94E02558F3BA17FA
:104C8000620773078407950720F079F4A6F50C9462
:104C900002260EF4E0950B2EBA2FA02D0B01B901C0
:104CA00090010C01CA01A0011124FF27591B99F0A2
:104CB000593F50F4503E68F11A16F040A22F232FAE
:104CC000342F4427585FF3CF469537952795A795FE
:104CD000F0405395C9F77EF41F16BA0B620B730BA5
:104CE000840BBAF09150A1F0FF0FBB1F661F771F16
:104CF000881FC2F70EC0BA0F621F731F841F48F4CB
:104D0000879577956795B795F7959E3F08F0B0CF53
:104D10009395880F08F09927EE0F9795879508953A
:104D20000E94A4260C94CF250E94C82558F00E940A
:104D3000C12540F029F45F3F29F00C94B8255111AA
:104D40000C9403260C94BE250E94E02568F3992359
:104D5000B1F3552391F3951B550BBB27AA27621777
:104D60007307840738F09F5F5F4F220F331F441F84
:104D7000AA1FA9F335D00E2E3AF0E0E832D09150B8
:104D80005040E695001CCAF72BD0FE2F29D0660FA5
:104D9000771F881FBB1F261737074807AB07B0E8E8
:104DA00009F0BB0B802DBF01FF2793585F4F3AF0EE
:104DB0009E3F510578F00C94B8250C9403265F3F74
:104DC000E4F3983ED4F3869577956795B795F79574
:104DD0009F5FC9F7880F911D9695879597F908955C
:104DE000E1E0660F771F881FBB1F621773078407F8
:104DF000BA0720F0621B730B840BBA0BEE1F88F707
:104E0000E09508950E9409276894B1110C94032637
:104E100008950E94E82588F09F5798F0B92F9927A8
:104E2000B751B0F0E1F0660F771F881F991F1AF095
:104E3000BA95C9F714C0B13091F00E940226B1E0D2
:104E400008950C940226672F782F8827B85F39F0D1
:104E5000B93FCCF3869577956795B395D9F73EF42E
:104E600090958095709561957F4F8F4F9F4F0895D6
:104E70000E94242508F48FEF089597FB072E16F45F
:104E8000009407D077FD09D00E94782707FC05D051
:104E90003EF4909581959F4F0895709561957F4F51
:104EA0000895052E97FB1EF400940E94682757FD75
:104EB00007D00E948C2707FC03D04EF40C9468277F
:104EC00050954095309521953F4F4F4F5F4F089536
:104ED00090958095709561957F4F8F4F9F4F089566
:104EE000EE0FFF1F881F8BBF0790F691E02D1994DE
:104EF000AA1BBB1B51E107C0AA1FBB1FA617B70700
:104F000010F0A61BB70B881F991F5A95A9F780951B
:104F10009095BC01CD010895A1E21A2EAA1BBB1BDE
:104F2000FD010DC0AA1FBB1FEE1FFF1FA217B30775
:104F3000E407F50720F0A21BB30BE40BF50B661F8B
:104F4000771F881F991F1A9469F76095709580954F
:104F500090959B01AC01BD01CF0108950F931F9364
:104F6000CF93DF938230910510F482E090E0E091DE
:104F7000A608F091A70830E020E0B0E0A0E030976C
:104F800099F42115310509F44AC0281B390B243046
:104F90003105D8F58A819B816115710589F1FB0185
:104FA00093838283FE0111C040815181028113816C
:104FB00048175907E0F04817590799F4109761F01E
:104FC00012960C93129713961C933296CF01DF9191
:104FD000CF911F910F9108950093A6081093A708F1
:104FE000F4CF2115310551F04217530738F0A901CC
:104FF000DB019A01BD01DF01F801C1CFEF01F9CF5B
:105000009093A7088093A608CDCFFE01E20FF31F6F
:10501000819391932250310939832883D7CF2091EE
:10502000A4083091A508232B41F420911A02309155
:105030001B023093A5082093A408209118023091F8
:1050400019022115310541F42DB73EB740911C02DC
:1050500050911D02241B350BE091A408F091A50886
:10506000E217F307A0F42E1B3F0B2817390778F03F
:10507000AC014E5F5F4F2417350748F04E0F5F1F9E
:105080005093A5084093A408819391939FCFF0E09B
:10509000E0E09CCFCF93DF930097E9F0FC013297DB
:1050A00013821282A091A608B091A708ED0130E00A
:1050B00020E01097A1F420813181820F931F20916D
:1050C000A4083091A5082817390709F061C0F093AA
:1050D000A508E093A408DF91CF910895EA01CE17C7
:1050E000DF07E8F54A815B819E0141155105B1F763
:1050F000E901FB83EA8349915991C40FD51FEC174D
:10510000FD0761F4808191810296840F951FE9016A
:1051100099838883828193819B838A83F0E0E0E096
:1051200012968D919C9113970097B9F52D913C9112
:105130001197CD010296820F931F2091A408309100
:10514000A5082817390739F6309751F51092A708A6
:105150001092A608B093A508A093A408BCCFD3834F
:10516000C28340815181840F951FC817D90761F40C
:105170004E5F5F4F88819981480F591F518340834B
:105180008A819B81938382832115310509F0B0CFF9
:10519000F093A708E093A6089ECFFD01DC01C0CFE5
:1051A00013821282D7CF4F925F926F927F928F922B
:1051B0009F92AF92BF92CF92DF92EF92FF920F93A6
:1051C0001F93CF93DF938C01009799F4CB01DF916C
:1051D000CF911F910F91FF90EF90DF90CF90BF90F4
:1051E000AF909F908F907F906F905F904F900C94B6
:1051F000AE27FC01E60FF71F9C0122503109E21790
:10520000F30708F4AEC0D901CD91DC911197C61710
:10521000D70720F1C530D10578F0CE010497861765
:10522000970750F0C61BD70B2297C193D1936D936C
:105230007C93CF010E944A28C801DF91CF911F9132
:105240000F91FF90EF90DF90CF90BF90AF909F9025
:105250008F907F906F905F904F9008955B01AC1A94
:10526000BD0A4C018C0E9D1EA091A608B091A70806
:10527000512C412CF12CE12C109731F58091A40890
:105280009091A5088815990509F05CC04616570647
:1052900008F058C08091180290911902009741F4CB
:1052A0008DB79EB740911C0250911D02841B950B37
:1052B000E817F90708F055C0F093A508E093A40893
:1052C000F90171836083B8CF8D919C9111971296EB
:1052D0006C90129713967C901397A815B90559F501
:1052E0006C0142E0C40ED11CCA14DB0420F1AC01F5
:1052F0004A195B09DA011296159780F0628273826F
:1053000051834083D9016D937C93E114F10471F0D2
:10531000D7011396FC93EE9312978ECF22968C0FA3
:105320009D1FF90191838083F301EFCFF093A708CC
:10533000E093A60881CF4816590608F42C017D0198
:10534000D3019ACFCB010E94AE277C01009749F090
:10535000AE01B8010E94B429C8010E944A28870101
:105360006BCF10E000E068CFFB01DC0102C00190D0
:105370000D9241505040D8F70895FB01DC01019097
:105380000D920020E1F70895FB01DC0141505040EF
:1053900030F08D910190801919F40020B9F7881B25
:1053A000990B08950F931F93CF93DF93CDB7DEB77B
:1053B0002E970FB6F894DEBF0FBECDBF0E891F89A2
:1053C00086E08C831A8309838FEF9FE79E838D830A
:1053D000AE01465E5F4F688D798DCE0101960E94C9
:1053E000022A2F813885020F131FF80110822E9692
:1053F0000FB6F894DEBF0FBECDBFDF91CF911F91E6
:105400000F9108952F923F924F925F926F927F92E9
:105410008F929F92AF92BF92CF92DF92EF92FF92C4
:105420000F931F93CF93DF9300D000D000D01F9233
:105430001F92CDB7DEB77C013B018A01FC011782C8
:105440001682838181FFDDC1CE0101965C01F701E7
:105450009381F30193FD859193FF81913F0188230F
:1054600009F453C1853239F493FD859193FF8191FD
:105470003F01853229F4B70190E00E941A2CE7CF52
:10548000912C212C312CFFE1F31538F08B3211F1E6
:1054900090F4803209F1833229F137FC3CC020EDD1
:1054A000280F2A3050F536FE20C08AE0989E200D45
:1054B0001124922E06C08D3291F0803371F76894DA
:1054C00030F8F30193FD859193FF81913F018111A4
:1054D000DACF21C0689431F8689432F8F2CF68943A
:1054E00033F8EFCF689434F8ECCFEAE02E9E200D2D
:1054F0001124222E689435F8E4CF8E3229F436FC3C
:1055000004C1689436F8DDCF8C3619F4689437F806
:10551000D8CF8836B1F2982F9F7D95549330E0F024
:105520008336A1F18337C1F1833509F063C02801C7
:10553000F2E04F0E511CF801C080D180692D70E05F
:1055400036FC02C06FEF7FEFC6010E94042C4C01B5
:10555000689437F882010AC00C5F1F4FFFE3F9839C
:1055600088248394912C6501E89437F833FE2DC08C
:10557000522C8114910471F5552009F468CFB701BC
:1055800080E290E00E941A2C5A94F6CFF8018081B4
:1055900089830E5F1F4FE4CF2801F2E04F0E511CAC
:1055A000F801C080D180692D70E036FC02C06FEF39
:1055B0007FEFC6010E940F2C4C018201D5CFB701AD
:1055C00080E290E00E941A2C2A942814190409F011
:1055D000B0F7CECFF60137FC859137FE81916F0190
:1055E000B70190E00E941A2C51105A94F1E08F1AE2
:1055F0009108BFCF843619F0893609F077C0F801D9
:1056000037FE6BC060817181828193810C5F1F4F77
:10561000F32DFF763F2E97FF09C0909580957095EA
:1056200061957F4F8F4F9F4F689437F82AE030E0A5
:10563000A5010E944A2CC82ECA188C2C432C36FE79
:105640000CC0E89440F8C91440F434FE05C032FCA4
:1056500003C0F32DFE7E4F2E892C44FEAAC0FE010E
:10566000EC0DF11D8081803309F09CC0242D297E32
:10567000422E842D8870582E43FCAAC040FEA4C040
:105680009C2C821418F42C0C922C981844FEA6C062
:10569000B70180E390E00E941A2C42FE09C088E71F
:1056A00090E041FE02C088E590E0B7010E941A2C0C
:1056B000C91408F49FC0CA94D12C9FEFC91AD90A03
:1056C000CA0CDB1CF60182916F01B70190E00E94C9
:1056D0001A2CAC14BD04B1F74FCF60817181072E35
:1056E000000C880B990B0E5F1F4F92CFD32CE894C0
:1056F000D4F82AE030E08537E1F1232D297FD22E3E
:105700008F36A9F1F0F4883551F1F7018681978140
:105710002B960FB6F894DEBF0FBECDBFDF91CF91B1
:105720001F910F91FF90EF90DF90CF90BF90AF90BF
:105730009F908F907F906F905F904F903F902F90B1
:105740000895803749F0883701F7D4FE02C0689485
:10575000D2F820E130E00DC06894D4F8F6CF34FEE2
:1057600003C0822F8660D82E20E132E002C028E0FC
:1057700030E0F801D7FE0FC0608171818281938192
:105780000C5F1F4FA5010E944A2CC82ECA183D2C41
:10579000E89437F852CF6081718190E080E00E5F2D
:1057A0001F4FF0CF42FC02C0839463CF8394839455
:1057B00060CF842D867809F45CCFF6CFB70180E204
:1057C00090E00E941A2C83948214C0F3512C5ECF77
:1057D000522C5818821408F459CFF8CF842D8678AB
:1057E00009F466CF8BE241FE80E247FC8DE2B7010F
:1057F00090E05CCFB70180E390E00E941A2C9A946D
:1058000057CF8FEF9FEF84CFFC0105906150704020
:105810000110D8F7809590958E0F9F1F0895FC0179
:105820006150704001900110D8F7809590958E0FCF
:105830009F1F08950F931F93CF93DF93182F092F66
:10584000EB018B8181FD09C01FEF0FEF812F902F9E
:10585000DF91CF911F910F91089582FF14C02E8187
:105860003F818C819D81281739073CF4E881F981BB
:10587000CF0101969983888310838E819F81019641
:105880009F838E83E3CFE885F985812F1995892B36
:10589000A1F3DACFFA01AA27283051F1203181F1A2
:1058A000E8946F936E7F6E5F7F4F8F4F9F4FAF4F28
:1058B000B1E03ED0B4E03CD0670F781F891F9A1F3B
:1058C000A11D680F791F8A1F911DA11D6A0F711DEF
:1058D000811D911DA11D20D009F468943F912AE0FB
:1058E000269F11243019305D3193DEF6CF010895E3
:1058F000462F4770405D4193B3E00FD0C9F7F6CF14
:10590000462F4F70405D4A3318F0495D31FD4052DB
:10591000419302D0A9F7EACFB4E0A6959795879571
:1059200077956795BA95C9F7009761057105089550
:105930009B01AC010A2E06945795479537952795FC
:10594000BA95C9F7620F731F841F951FA01D089594
:1059500015E0C4E1D5E000E006C0802FFE010E9402
:1059600070272196011DC531D10780E00807A9F7EE
:04597000F894FFCFD9
:10597400A808A808A808A808A808A808A808A808A3
:10598400FFFFFFFFFFFF04000000A80880000000E5
:105994000000DE05480575052B06A6058405980557
:1059A40020002563256325332E336925692563008B
:1059B4002563256325332E3369256300434F524500
:1059C4005F4D43505F5631375F47656E6572616C5A
:1059D400002563256325732563002563256325312D
:1059E4002E316925322E3269253035692E25303223
:1059F4006925732563002563256325312E316925C7
:105A0400322E3269253035692E25303269255325E9
:105A140063002563256325532563002563256325DA
:105A2400332E3369253037692E25303269256300DA
:085A34002563256325630000D2
:00000001FF
