:100000000C94B6060C947F190C9454190C9429196D
:100010000C94FE180C94D3180C94A8180C947D180A
:100020000C9452180C94E7060C94E7060C94E7061F
:100030000C94E7060C94E7060C94E7060C94E7068C
:100040000C94E7060C94E7060C94E7060C94E7067C
:100050000C94E7060C94E7060C94E7060C94081839
:100060000C94E7060C94D2170C94A8170C94E7068E
:100070000C94E7060C94E7060C94E7060C94E7064C
:100080000C94E7060C94E7060C94E7060C94E7063C
:100090000C94E7060C94E7060C94E7060C94E7062C
:1000A0000C94E7060C94E7060C94E7060C94E7061C
:1000B0000C94E7060C94E7060C94E7060C94E7060C
:1000C0000C94E7060C94E7060C94E7060C94E706FC
:1000D0000C94E7060C94E7060C94E7060C94E706EC
:1000E0000C94E7060C94C0090C94E9060C944C0996
:1000F0000C9460080C9447070C9444090C947F07F7
:100100000C9480080C9451090C9464080C943907E1
:100110000C9416070C94C4190C9441080C94490AC9
:100120000C9449080C9468080C9456080C946E08BA
:100130000C9425070C94CC070C945A080C94E00AF4
:100140000C9477090C947B080C9465090C94AC0909
:100150000C94D4090C9450080C946F090C94EC0A7C
:100160000C9476080C94DE090C94E60A0C943B0877
:100170000C949D250C9489090C9472080C944D08DC
:100180000C949D090C94B6090C9445080C945B09D9
:100190000C94F20A0C94CA090C947F090C947C0804
:1001A0000C9493094E414E494E495459494E46CDFF
:1001B000CCCC3D0AD7233C17B7D13877CC2B32951E
:1001C00095E6241FB14F0A000020410000C84200FC
:1001D000401C4620BCBE4CCA1B0E5AAEC59D7400C6
:1001E000002100240027002A002D003000330001E8
:1001F000010000040107010A010000220025002877
:10020000002B002E0031003400020100000501081F
:10021000010B01000020002300260029002C002FE4
:100220000032000001000003010601090105050577
:1002300005070508080808020202020A0A0808045D
:10024000040404010101010101010103030303038B
:10025000030303040707070C0C0C0C0C0C0C0C021A
:1002600002020206060606060606060B0B0B0B0B21
:100270000B0B0B010210202008081020401020401A
:10028000800201020108040201010204081020405A
:100290008080402010080402018004020180402078
:1002A00010080402010804020101020408102040A1
:1002B00080010204081020408000000A0B02090C93
:1002C0000D0E0807030401000000000000000000FC
:1002D000000000000000000000000000000000001E
:1002E00000000000001211100000000000000000DB
:1002F0000000000000000000000000000000006C92
:10030000616D696E61722F423733382F6175746F7A
:1003100070696C6F742F646973636F6E6E6563745C
:100320005F746F67676C65006C616D696E61722FD9
:10033000423733382F6175746F70696C6F742F6436
:100340006973636F6E6E6563745F746F67676C6506
:10035000006C616D696E61722F423733382F6175A1
:10036000746F70696C6F742F6175746F7468726FDD
:1003700074746C655F61726D5F746F67676C650044
:100380006C616D696E61722F423733382F617574FD
:100390006F70696C6F742F6175746F7468726F74AD
:1003A000746C655F61726D5F746F67676C65006C1C
:1003B000616D696E61722F423733382F6175746FCA
:1003C00070696C6F742F666C696768745F646972BA
:1003D0006563746F725F746F67676C65006C616DE5
:1003E000696E61722F423733382F6175746F70698F
:1003F0006C6F742F666C696768745F64697265639B
:10040000746F725F746F67676C65006C616D696EA5
:1004100061722F423733382F6175746F70696C6F5A
:10042000742F666C696768745F6469726563746F62
:10043000725F666F5F746F67676C65006C616D6992
:100440006E61722F423733382F6175746F70696C2B
:100450006F742F666C696768745F64697265637432
:100460006F725F666F5F746F67676C65006C616D5C
:10047000696E61722F423733382F6175746F7069FE
:100480006C6F742F636F757273655F70696C6F74D6
:100490005F646E006C616D696E61722F4237333834
:1004A0002F6175746F70696C6F742F636F757273E1
:1004B000655F70696C6F745F75700073696D2F6133
:1004C00075746F70696C6F742F766572746963618F
:1004D0006C5F73706565645F646F776E0073696DE0
:1004E0002F6175746F70696C6F742F7665727469A3
:1004F00063616C5F73706565645F7570006C616DDE
:10050000696E61722F423733382F6175746F70696D
:100510006C6F742F616C7469747564655F646E00D0
:100520006C616D696E61722F423733382F6175745B
:100530006F70696C6F742F616C7469747564655F3A
:100540007570006C616D696E61722F423733382FA0
:100550006175746F70696C6F742F68656164696E22
:10056000675F646E006C616D696E61722F42373334
:10057000382F6175746F70696C6F742F6865616472
:10058000696E675F75700073696D2F6175746F7048
:10059000696C6F742F61697273706565645F646FF5
:1005A000776E0073696D2F6175746F70696C6F740D
:1005B0002F61697273706565645F7570006C616D41
:1005C000696E61722F423733382F6175746F7069AD
:1005D0006C6F742F636F757273655F636F70696C96
:1005E0006F745F646E006C616D696E61722F42376B
:1005F00033382F6175746F70696C6F742F636F750A
:100600007273655F636F70696C6F745F7570006C97
:10061000616D696E61722F423733382F6175746F67
:1006200070696C6F742F7676695F6469616C5F7353
:10063000686F77006C616D696E61722F4237333875
:100640002F6175746F70696C6F742F636F7572733F
:10065000655F636F70696C6F74006C616D696E616A
:10066000722F423733382F6175746F70696C6F74F5
:100670002F61705F7676695F706F73006C616D6972
:100680006E61722F423733382F6175746F70696CE9
:100690006F742F6D63705F616C745F6469616C006F
:1006A00073696D2F636F636B7069742F6175746FFD
:1006B00070696C6F742F61697273706565645F69CE
:1006C000735F6D616368006C616D696E61722F426A
:1006D0003733382F6175746F70696C6F742F6D6369
:1006E000705F6864675F6469616C006C616D696EFE
:1006F00061722F423733382F6175746F70696C6F78
:10070000742F73686F775F696173006C616D696ED8
:1007100061722F423733382F6175746F70696C6F57
:10072000742F6D63705F73706565645F6469616C7D
:100730005F6B74735F6D616368006C616D696E619E
:10074000722F423733382F6175746F70696C6F7414
:100750002F636F757273655F70696C6F74006C6185
:100760006D696E61722F423733382F6175746F7007
:10077000696C6F742F646973636F6E6E6563745F09
:10078000746F67676C65006C616D696E61722F4292
:100790003733382F6175746F70696C6F742F6469AB
:1007A00073636F6E6E6563745F706F73006C616D01
:1007B000696E61722F423733382F737769746368BB
:1007C00065732F6175746F70696C6F742F61745FDE
:1007D00061726D006C616D696E61722F42373338E2
:1007E0002F73776974636865732F6175746F7069AF
:1007F0006C6F742F66645F666F006C616D696E610B
:10080000722F423733382F73776974636865732F9B
:100810006175746F70696C6F742F66645F636100DB
:100820006C616D696E61722F423733382F61757458
:100830006F70696C6F742F6368616E67655F6F7648
:1008400065725F7072657373006C616D696E617261
:100850002F423733382F6175746F70696C6F742F46
:10086000616C745F696E74657276006C616D696E3F
:1008700061722F423733382F6175746F70696C6FF6
:10088000742F7370645F696E74657276006C616D4D
:10089000696E61722F423733382F6175746F7069DA
:1008A0006C6F742F6377735F625F70726573730030
:1008B0006C616D696E61722F423733382F617574C8
:1008C0006F70696C6F742F6377735F615F707265AF
:1008D0007373006C616D696E61722F423733382F0C
:1008E0006175746F70696C6F742F636D645F625FA4
:1008F0007072657373006C616D696E61722F42373F
:1009000033382F6175746F70696C6F742F636D6409
:100910005F615F7072657373006C616D696E6172A7
:100920002F423733382F6175746F70696C6F742F75
:1009300076735F7072657373006C616D696E61725E
:100940002F423733382F6175746F70696C6F742F55
:10095000616C745F686C645F7072657373006C6166
:100960006D696E61722F423733382F6175746F7005
:10097000696C6F742F6170705F7072657373006C57
:10098000616D696E61722F423733382F6175746FF4
:1009900070696C6F742F766F726C6F635F707265C5
:1009A0007373006C616D696E61722F423733382F3B
:1009B0006175746F70696C6F742F6C6E61765F70A7
:1009C00072657373006C616D696E61722F423733AB
:1009D000382F6175746F70696C6F742F6864675F0E
:1009E00073656C5F7072657373006C616D696E61C5
:1009F000722F423733382F6175746F70696C6F7462
:100A00002F6C766C5F6368675F7072657373006CE0
:100A1000616D696E61722F423733382F6175746F63
:100A200070696C6F742F766E61765F707265737328
:100A3000006C616D696E61722F423733382F6175BA
:100A4000746F70696C6F742F73706565645F70721A
:100A5000657373006C616D696E61722F4237333854
:100A60002F6175746F70696C6F742F6E315F707267
:100A7000657373006C616D696E61722F4237333834
:100A80002F6175746F70696C6F742F6D617374650D
:100A9000725F666F5F737461747573006C616D690A
:100AA0006E61722F423733382F6175746F70696CC5
:100AB0006F742F6D61737465725F636170745F73BF
:100AC0007461747573006C616D696E61722F423769
:100AD00033382F6175746F70696C6F742F61757422
:100AE0006F7468726F74746C655F7374617475731E
:100AF000006C616D696E61722F423733382F6175FA
:100B0000746F70696C6F742F6377735F625F737457
:100B100061747573006C616D696E61722F42373359
:100B2000382F6175746F70696C6F742F6377735FA2
:100B3000615F737461747573006C616D696E61726D
:100B40002F423733382F6175746F70696C6F742F53
:100B5000636D645F625F737461747573006C616D63
:100B6000696E61722F423733382F6175746F706907
:100B70006C6F742F636D645F615F73746174757300
:100B8000006C616D696E61722F423733382F617569
:100B9000746F70696C6F742F76735F7374617475A2
:100BA00073006C616D696E61722F423733382F614B
:100BB00075746F70696C6F742F616C745F686C64AE
:100BC0005F737461747573006C616D696E61722F0F
:100BD000423733382F6175746F70696C6F742F688A
:100BE00064675F73656C5F737461747573006C61C7
:100BF0006D696E61722F423733382F6175746F7073
:100C0000696C6F742F6170705F73746174757300B9
:100C10006C616D696E61722F423733382F61757464
:100C20006F70696C6F742F766F726C6F635F737423
:100C300061747573006C616D696E61722F42373338
:100C4000382F6175746F70696C6F742F6C6E61767C
:100C50005F737461747573006C616D696E61722F7E
:100C6000423733382F6175746F70696C6F742F76EB
:100C70006E61765F73746174757331006C616D6958
:100C80006E61722F423733382F6175746F70696CE3
:100C90006F742F6C766C5F6368675F7374617475D3
:100CA00073006C616D696E61722F423733382F614A
:100CB00075746F70696C6F742F73706565645F73A2
:100CC000746174757331006C616D696E61722F426D
:100CD0003733382F6175746F70696C6F742F6E3194
:100CE0005F737461747573007E306D79335B5F7010
:100CF0007F7B771F0D3D4F47000000000000000084
:100D000000000000000000000000000000000000E3
:100D100000000000800180007E306D79335B5F70E1
:100D20007F7B00000000000000771F0D3D4F470053
:100D3000370000000E000000670000000000000007
:100D4000000000000000000800771F0D3D4F470025
:100D5000370000000E00151D6700000000000000B5
:100D60000000000000000000C4199D2511241FBED2
:100D7000CFEFD1E2DEBFCDBF00E00CBF29E0A2EE95
:100D8000B2E001C01D92AE30B207E1F712E0A0E080
:100D9000B2E0E6EDFEE500E00BBF02C007900D9269
:100DA000A23EB107D9F716E0C5EBD6E000E006C0D9
:100DB00021970109802FFE010E94212AC43BD107FF
:100DC00080E00807A9F70E943E1A0C94592F0C9452
:100DD0000000AF92BF92CF92DF92EF92FF920F93FB
:100DE0001F93CF93DF936C017B018B01040F151FC1
:100DF000EB015E01AE18BF08C017D10759F0699129
:100E0000D601ED91FC910190F081E02DC60119957C
:100E1000892B79F7C501DF91CF911F910F91FF9039
:100E2000EF90DF90CF90BF90AF900895FC01538D6D
:100E3000448D252F30E0842F90E0821B930B5417B4
:100E400010F0CF96089501970895FC01918D828D41
:100E5000981761F0A28DAE0FBF2FB11D5D968C91DA
:100E6000928D9F5F9F73928F90E008958FEF9FEF19
:100E70000895FC01918D828D981731F0828DE80FD5
:100E8000F11D858D90E008958FEF9FEF0895FC018F
:100E9000918D228D892F90E0805C9F4F821B91095C
:100EA0008F739927089587E995E00E94470721E00D
:100EB000892B09F420E0822F0895FC01A48DA80F4E
:100EC000B92FB11DA35ABF4F2C91848D90E001968C
:100ED0008F739927848FA689B7892C93A089B189AC
:100EE0008C91837080648C93938D848D981306C04D
:100EF0000288F389E02D80818F7D80830895EF92B1
:100F0000FF920F931F93CF93DF93EC0181E0888FC3
:100F10009B8D8C8D98131AC0E889F989808185FF93
:100F200015C09FB7F894EE89FF896083E889F98935
:100F300080818370806480839FBF81E090E0DF9137
:100F4000CF911F910F91FF90EF900895F62E0B8D8A
:100F500010E00F5F1F4F0F731127E02E8C8D8E1145
:100F60000CC00FB607FCFACFE889F989808185FFAC
:100F7000F5CFCE010E945D07F1CFEB8DEC0FFD2F79
:100F8000F11DE35AFF4FF0829FB7F8940B8FEA8967
:100F9000FB8980818062CFCFCF93DF93EC01888D76
:100FA0008823B9F0AA89BB89E889F9898C9185FDE4
:100FB00003C0808186FD0DC00FB607FCF7CF8C9172
:100FC00085FFF2CF808185FFEDCFCE010E945D07C6
:100FD000E9CFDF91CF91089580E090E0892B29F04F
:100FE0000E94530781110E94000080E090E0892B4D
:100FF00049F080E090E0892B29F00E9400008111E7
:101000000E94000080E090E0892B49F080E090E0B1
:10101000892B29F00E94000081110E94000080E0CD
:1010200090E0892B49F080E090E0892B29F00E9424
:10103000000081110C94000008958150823108F065
:101040005AC0E82FF0E08827E75DF74F8F4F0C94E8
:10105000212A49084D083B08410845087B085008EB
:1010600056085A086008640868086E0872087B0809
:1010700076087C088008809180008F7780938000BC
:101080000895809180008F7DF9CF80918000877FC7
:10109000F5CF84B58F7784BD089584B58F7DFBCF60
:1010A0008091B0008F778093B00008958091B00058
:1010B0008F7DF9CF809190008F7780939000089575
:1010C000809190008F7DF9CF80919000877FF5CF40
:1010D0008091A0008F778093A00008958091A00058
:1010E0008F7DF9CF8091A000877FF5CF809120017F
:1010F0008F77809320010895809120018F7DF9CF13
:1011000080912001877FF5CFCF93DF93282F30E0A8
:10111000F901E754FD4F8491F901ED58FD4FD49149
:10112000F901E35DFD4FC491CC23A1F081110E9430
:101130001D08EC2FF0E0EE0FFF1FED5EFD4FA591B7
:10114000B491EC91ED2381E090E009F480E0DF912F
:10115000CF91089580E090E0FACF1F93CF93DF9373
:10116000282F30E0F901E754FD4F8491F901ED5843
:10117000FD4FD491F901E35DFD4FC491CC23A9F05B
:10118000162F81110E941D08EC2FF0E0EE0FFF1FBB
:10119000E750FE4FA591B4918FB7F894EC911111DF
:1011A00008C0D095DE23DC938FBFDF91CF911F91D4
:1011B0000895DE2BF8CFCF93DF9390E0FC01ED583C
:1011C000FD4F2491835D9D4FFC0184918823D1F0D4
:1011D00090E0880F991FFC01E152FE4FA591B49158
:1011E000FC01E750FE4FC591D491623071F49FB776
:1011F000F8943C91822F809583238C93E8812E2B49
:1012000028839FBFDF91CF9108958FB7F894EC9119
:101210002E2B2C938FBFF6CF1F93CF93DF93182FD6
:10122000EB0161E00E94DB08209739F460E0812F38
:10123000DF91CF911F910C94AD08CF3FD10511F4F0
:1012400061E0F5CFE12FF0E0E754FD4FE491E1508C
:10125000E23108F0B3C0F0E08827EE5CF64F8F4F24
:101260000C94212A44094C0951095B096509DE09DE
:101270006F0977097F09890993099D09AC09B609A6
:10128000DE09C009CA09D40984B5806884BDC7BD18
:10129000DF91CF911F91089584B5806284BDC8BD50
:1012A000F7CF80918000806880938000D093890080
:1012B000C0938800EDCF8091800080628093800091
:1012C000D0938B00C0938A00E3CF80918000886028
:1012D00080938000D0938D00C0938C00D9CF8091F3
:1012E000B00080688093B000C093B300D1CF8091EC
:1012F000B00080628093B000C093B400C9CF8091E9
:101300009000806880939000D0939900C0939800DB
:10131000BFCF80919000806280939000D0939B001B
:10132000C0939A00B5CF8091900088608093900020
:10133000D0939D00C0939C00ABCF8091A0008068AB
:101340008093A0008091A0008F7B8093A000D09319
:10135000A900C093A8009CCF8091A00080628093D8
:10136000A000D093AB00C093AA0092CF8091A000C0
:1013700088608093A000D093AD00C093AC0088CF6C
:1013800080912001806880932001D0932901C0932F
:1013900028017ECF80912001806280932001D0932C
:1013A0002B01C0932A0174CF809120018860809323
:1013B0002001D0932D01C0932C016ACFC038D105F4
:1013C0000CF03ECF33CF3FB7F89480913B03909120
:1013D0003C03A0913D03B0913E0326B5A89B05C0F8
:1013E0002F3F19F00196A11DB11D3FBFBA2FA92FA4
:1013F000982F8827BC01CD01620F711D811D911DA1
:1014000042E0660F771F881F991F4A95D1F708950C
:101410008F929F92AF92BF92CF92DF92EF92FF9204
:101420000E94E3094B015C018FE0C82ED12CE12C16
:10143000F12C0E94E309681979098A099B09683E21
:10144000734081059105A8F321E0C21AD108E10893
:10145000F10888EE880E83E0981EA11CB11CC1140F
:10146000D104E104F10429F7FF90EF90DF90CF90D1
:10147000BF90AF909F908F9008952FB7F894609190
:101480003703709138038091390390913A032FBF4D
:1014900008950895833171F120F48231E9F180E0FB
:1014A00008958431A9F08531D1F77093E7026093F4
:1014B000E60282EF9AE09093050280930402809105
:1014C00069008C7F816080936900E89A81E00895CB
:1014D0007093E9026093E8028CEE9AE09093070221
:1014E0008093060280916900837F84608093690005
:1014F000E99AECCF7093EB026093EA0286EE9AE0F1
:101500009093090280930802809169008F7C80612A
:1015100080936900EA9ADACF7093ED026093EC024F
:1015200080EE9AE090930B0280930A02809169000A
:101530008F73806480936900EB9AC8CFDC01ED91D2
:10154000FD918081ED91FD919081ED91FD916C91E6
:1015500063708E2309F064609F2309F06860EBEBF1
:10156000FAE0E60FF11D659565956D936D917D919E
:101570008D919D91099423C01AC012C016C010C04D
:101580001EC009C014C013C006C019C009C00DC0D8
:1015900007C00DC014C062507040804090400BC026
:1015A000615070408040904006C06E5F01C06F5F28
:1015B0007F4F8F4F9F4F9E938E937E936E93089590
:1015C0008091EC029091ED020C949E0A8091EA02C7
:1015D0009091EB020C949E0A8091E8029091E902AE
:1015E0000C949E0A8091E6029091E7020C949E0A68
:1015F0008091E4029091E5020C949E0A8091E202AF
:101600009091E3020C949E0ACF93DF93EC018B85BB
:10161000823060F4F894CE010E949E0A6F81788532
:1016200089859A857894DF91CF910895F894F6CFC3
:101630000F931F93CF93DF93EC01062F142F62E0DB
:10164000802F0E94DB0862E0812F0E94DB08802F40
:1016500090E0FC01E35DFD4FE491F0E0EE0FFF1F31
:10166000ED5EFD4FA591B491B983A883FC01ED58BF
:10167000FD4F24912C83812F90E0FC01E35DFD4F11
:10168000E491F0E0EE0FFF1FED5EFD4F45915491A8
:101690005B834A83FC01ED58FD4FE491ED831F828B
:1016A000188619861A868BE39FE10197F1F78C91D2
:1016B000282391E009F490E0DA018C91E82309F005
:1016C00092609E83BE01802F0E944A0A8B87BE01D2
:1016D000812F0E944A0A9B85890F8B87DF91CF91CA
:1016E0001F910F9108954F925F926F927F928F9208
:1016F0009F92AF92BF92CF92DF92EF92FF920F93A1
:101700001F93CF93DF931F921F92CDB7DEB78C014B
:1017100049832A83660F771FF801EA5AFF4FE0805A
:10172000F180EE0CFF1CF801CF01801B910B8E1590
:101730009F0514F41192F8CF8981F801E60FF71F85
:1017400081838A818083680184E5C80ED11C60E0B2
:10175000F60180810E94AD085801F2E5AF0EB11C80
:10176000480180E5880E911C1E141F040CF5E1E071
:10177000EE1AF108F801EE0DFF1D6080F5015080B2
:10178000F401408088E0782E662D661F6627661F6C
:10179000842D0E94AD08660C61E0852D0E94AD0885
:1017A00060E0852D0E94AD087A947110EDCFDCCFFA
:1017B00061E0F60180810F900F90DF91CF911F9132
:1017C0000F91FF90EF90DF90CF90BF90AF909F90E0
:1017D0008F907F906F905F904F900C94AD088F9298
:1017E0009F92AF92BF92CF92DF92EF92FF920F93B0
:1017F0001F93CF93DF938C01D62EC72EEC01C05BD5
:10180000DF4F688379834C0182E5880E911CF401D7
:10181000518340835801F4E5AF0EB11CF5013183CB
:1018200020837801F6E5EF0EF11C81E090E0F701EE
:101830009183808361E08D2D0E94DB0861E0F401DB
:1018400080810E94DB0861E0F50180810E94DB0855
:1018500061E0F50180810E94AD08D882C982F8015B
:1018600070965F011192EC17FD07E1F7D0E0C0E040
:10187000F70180819181C817D9070CF043C020E09F
:101880004FE0BE01C8010E94730BF7018081918176
:10189000C817D90734F427E04BE0BE01C8010E9405
:1018A000730B20E049E0BE01C8010E94730BF701F1
:1018B00080819181C817D907BCF44E0183E0880C60
:1018C000991C8A95E1F78A0C9B1CDD24D394F401C2
:1018D00011924F0120E04D2DBE01C8010E94730BF3
:1018E000D394F9E0DF12F3CFF70180819181C8171B
:1018F000D90734F420E04CE0BE01C8010E94730B0C
:101900002196B6CFDF91CF911F910F91FF90EF906D
:10191000DF90CF90BF90AF909F908F900895FC0183
:10192000EA5AFF4F20813181121613068CF44031A0
:1019300078F4E42FF0E0E851F34F2491FC01E60F36
:10194000F71F208B41E0460F70E060E00C94730BB2
:101950000895E42FDC01AA5ABF4F4D915C911416F3
:101960001506B4F4E7FDE0E20E2E000CFF0BE85183
:10197000F34FE4912111E068DC01A60FB71F5096E8
:10198000EC9341E0460F2E2F70E060E00C94730B57
:1019900008958F929F92AF92BF92CF92DF92EF9273
:1019A000FF920F931F93CF93DF93C0905F03D0906C
:1019B0006003E0906103F090620320913203309164
:1019C00033034091340350913503C701B6010E949F
:1019D0009327882309F48FC020E030E0A901C701D4
:1019E000B6010E94E92920E030E040E05FE387FD96
:1019F0003EC3C701B6010E94D5280E94B3290E94A8
:101A00009A2720E030E048EC52E40E9441290E94ED
:101A1000B329162F60932A0370932B0320E030E044
:101A2000A901C701B6010E94E92920E030E040E0A9
:101A30005FE387FD21C3C701B6010E94D5280E943C
:101A4000B3290E949A2720E030E040E251E40E944E
:101A500041290E94B329CB016AE070E00E94EE297F
:101A6000D82F80932C0390932D0320E030E0A90120
:101A7000C701B6010E94E92920E030E040E05FE3C1
:101A800087FDFFC2C701B6010E94D5280E94B32975
:101A90000E949A270E94B329CB016AE070E00E945D
:101AA000EE29C82F80932E0390932F03412F67E0D8
:101AB00070E08FE395E00E948F0C4D2F66E070E0A0
:101AC0008FE395E00E948F0C4C2F65E070E08FE370
:101AD00095E00E948F0C80915F0390916003A0912C
:101AE0006103B09162038093320390933303A09318
:101AF0003403B0933503C0905B03D0905C03E09057
:101B00005D03F0905E0380904F0390905003A0908F
:101B10005103B09052032091260330912703409146
:101B2000280350912903C701B6010E949327811110
:101B30000FC0A5019401609122037091230380914D
:101B40002403909125030E949327882309F489C0D8
:101B500020E030E0A901C501B4010E949327811162
:101B60009AC220E030E0A901C701B6010E94E9292C
:101B700020E030E040E05FE387FD88C2C701B601A6
:101B80000E94D5280E94B329072E000C880B990BC0
:101B90000E949A276B017C0120E030E048EC52E47F
:101BA0000E9441290E94B329162F60931A03709353
:101BB0001B0320E030E040E251E4C701B6010E947F
:101BC00041290E94B3298AE0A82EB12CCB01B5018E
:101BD0000E94EE29D82F80931C0390931D03C70108
:101BE000B6010E94B329CB01B5010E94EE29C82F8E
:101BF00080931E0390931F03412F62E070E08FE3F8
:101C000095E00E948F0C4D2F61E070E08FE395E02E
:101C10000E948F0C4C2F70E060E08FE395E00E94F3
:101C20008F0C80915B0390915C03A0915D03B09158
:101C30005E038093260390932703A0932803B09319
:101C4000290380914F0390915003A0915103B091CB
:101C500052038093220390932303A0932403B09311
:101C60002503C0905303D0905403E0905503F090A7
:101C70005603209116033091170340911803509199
:101C80001903C701B6010E949327882309F48FC066
:101C900020E030E0A901C701B6010E94E92920E057
:101CA00030E040E05FE387FD64C2C701B6010E94F7
:101CB000D5280E94B3290E949A2720E030E048EC02
:101CC00052E40E9441290E94B329162F60930E030B
:101CD00070930F0320E030E0A901C701B6010E9414
:101CE000E92920E030E040E05FE387FD47C2C7011B
:101CF000B6010E94D5280E94B3290E949A2720E0AD
:101D000030E040E251E40E9441290E94B329CB0116
:101D10006AE070E00E94EE29D82F80931003909320
:101D2000110320E030E0A901C701B6010E94E929B2
:101D300020E030E040E05FE387FD25C2C701B60147
:101D40000E94D5280E94B3290E949A270E94B32995
:101D5000CB016AE070E00E94EE29C82F8093120345
:101D600090931303412F67E070E087EE94E00E94A8
:101D70008F0C4D2F66E070E087EE94E00E948F0C90
:101D80004C2F65E070E087EE94E00E948F0C80910C
:101D9000530390915403A0915503B091560380933F
:101DA000160390931703A0931803B0931903C090E0
:101DB0004B03D0904C03E0904D03F0904E0320E095
:101DC00030E0A901C701B6010E949327882309F4D6
:101DD00079C020E030E0A901C701B6010E94E929DD
:101DE00087FDD6C120E030E04AE754E4C701B601E0
:101DF0000E94932787FFCCC120E030E040E05FE302
:101E0000C701B6010E94D5280E94B3290E949A27D3
:101E10006B017C0120E030E048EC52E40E94412953
:101E20000E94B329CAE0D0E0CB01BE010E94EE2996
:101E3000082F809304039093050320E030E040E2F4
:101E400051E4C701B6010E9441290E94B329CB0188
:101E5000BE010E94EE29182F80930603909307037A
:101E6000C701B6010E94B329CB01BE010E94EE2931
:101E7000C82F809308039093090320E040E264E0B8
:101E800070E087EE94E00E94A90C20E040E263E05D
:101E900070E087EE94E00E94A90C402F62E070E0B1
:101EA00087EE94E00E948F0C412F61E070E087EE96
:101EB00094E00E948F0C4C2F70E060E087EE94E07D
:101EC0000E948F0CC0904703D0904803E0904903D4
:101ED000F0904A03209100033091010340910203E6
:101EE00050910303C701B6010E949327882309F488
:101EF000F1C320E030E04AE754ECC701B6010E948C
:101F0000932718160CF41DC320E030E0A901C70187
:101F1000B6010E94932718160CF4F3C2A70196018C
:101F200060E070E080E09FE30E94D4280E94B32923
:101F30000E949A2720E030E04AE754E40E944129B9
:101F40000E94B329CB016AE070E00E94EE29082FBD
:101F50008093F6029093F70220E030E0A901C701D8
:101F6000B6010E94932718160CF4D3C2A70196015C
:101F700060E070E080E09FE30E94D4280E94B329D3
:101F80000E949A2720E030E048EC52E40E94412968
:101F90000E94B329CB016AE070E00E94EE29182F5D
:101FA0008093F8029093F90220E030E0A901C70184
:101FB000B6010E94932718160CF4B3C2A70196012C
:101FC00060E070E080E09FE30E94D4280E94B32983
:101FD0000E949A2720E030E040E251E40E9441292B
:101FE0000E94B329CB016AE070E00E94EE29D82F4D
:101FF0008093FA029093FB0220E030E0A901C70130
:10200000B6010E94932718160CF493C2A7019601FB
:1020100060E070E080E09FE30E94D4280E94B32932
:102020000E949A270E94B329CB016AE070E00E94C7
:10203000EE29C82F8093FC029093FD0220E04DE230
:1020400067E070E08FE894E00E94A90C20E0402F48
:1020500066E070E08FE894E00E94A90C412F65E0F3
:1020600070E08FE894E00E948F0C4D2FE4C2C7010E
:10207000B6010E94D428C1CCC701B6010E94D42861
:10208000DECCC701B6010E94D42800CDC701B6013D
:102090000E94D42877CD20E030E040E85FE3C5011E
:1020A000B4010E9493278111BCCD20E030E44CE1C3
:1020B00056E4C701B6010E94F9276B017C0120E0BC
:1020C00030E0A9010E94E92920E030E040E05FE330
:1020D00087FD45C0C701B6010E94D5280E94B329DB
:1020E0000E949A276B017C0120E030E04AE754E42B
:1020F0000E9441290E94B329D62F60931C0370933C
:102100001D0320E030E048EC52E4C701B6010E9414
:1021100041296B017C0120E030E0A9010E94E929FE
:1021200020E030E040E05FE387FD1EC0C701B6015C
:102130000E94D5280E94B329CB016AE070E00E947A
:10214000EE29C82F80931E0390931F0321E040E2E5
:1021500062E070E08FE395E00E94A90C54CDC701C6
:10216000B6010E94D428BACFC701B6010E94D42874
:10217000E1CFC701B6010E94D4289BCDC701B601AB
:102180000E94D428B8CDC701B6010E94D428DACD68
:1021900020E030E04AE754E4C701B6010E94E92993
:1021A00087FDCCC020E030E44CE156E4C701B60125
:1021B0000E94932787FFC2C020E030E0A901C70139
:1021C000B6010E94E92920E030E040E05FE387FDAE
:1021D000A1C0C701B6010E94D5280E94B3290E9460
:1021E0009A2720E030E04AE754E40E9441290E9407
:1021F000B329CB016AE070E00E94EE29082F80939A
:1022000004039093050320E030E0A901C701B60163
:102210000E94E92920E030E040E05FE387FD7FC0D5
:10222000C701B6010E94D5280E94B3290E949A27AF
:1022300020E030E048EC52E40E9441290E94B3299A
:10224000CB016AE070E00E94EE29182F809306030C
:102250009093070320E030E0A901C701B6010E9476
:10226000E92920E030E040E05FE387FD5DC0C70181
:10227000B6010E94D5280E94B3290E949A2720E027
:1022800030E040E251E40E9441290E94B329CB0191
:102290006AE070E00E94EE29D82F809308039093A3
:1022A000090320E030E0A901C701B6010E94E92935
:1022B00020E030E040E05FE387FD3BC0C701B601AE
:1022C0000E94D5280E94B3290E949A270E94B32910
:1022D000CB016AE070E00E94EE29C82F80930A03C8
:1022E00090930B0320E040E264E070E087EE94E01E
:1022F0000E94A90C402F63E070E087EE94E00E94FA
:102300008F0C412F62E070E087EE94E00E948F0C0A
:102310004D2FCBCDC701B6010E94D4285ECFC70197
:10232000B6010E94D42880CFC701B6010E94D428EC
:10233000A2CFC701B6010E94D428C4CF20E030E468
:102340004CE156E4C701B6010E94E92987FDBACDE8
:1023500020E030E0A901C701B6010E94E92920E090
:1023600030E040E05FE387FDB3C0C701B6010E94E3
:10237000D5280E94B3290E949A2720E030E44CE13E
:1023800056E40E9441290E94B329B62E60930403AB
:102390007093050320E030E0A901C701B6010E9457
:1023A000E92920E030E040E05FE387FD96C0C70107
:1023B000B6010E94D5280E94B3290E949A2720E0E6
:1023C00030E04AE754E40E9441290E94B329CB013E
:1023D0006AE070E00E94EE29082F80930603909334
:1023E000070320E030E0A901C701B6010E94E929F6
:1023F00020E030E040E05FE387FD74C0C701B60134
:102400000E94D5280E94B3290E949A2720E030E03C
:1024100048EC52E40E9441290E94B329CB016AE0B2
:1024200070E00E94EE29182F80930803909309030F
:1024300020E030E0A901C701B6010E94E92920E0AF
:1024400030E040E05FE387FD52C0C701B6010E9463
:10245000D5280E94B3290E949A2720E030E040E26C
:1024600051E40E9441290E94B329CB016AE070E047
:102470000E94EE29D82F80930A0390930B0320E04B
:1024800030E0A901C701B6010E94E92920E030E04F
:1024900040E05FE387FD30C0C701B6010E94D52848
:1024A0000E94B3290E949A270E94B329CB016AE0B7
:1024B00070E00E94EE29C82F80930C0390930D03C7
:1024C0004B2D64E070E087EE94E00E948F0C12CFF9
:1024D000C701B6010E94D4284CCFC701B6010E94A3
:1024E000D42869CFC701B6010E94D4288BCFC70179
:1024F000B6010E94D428ADCFC701B6010E94D428EE
:10250000CFCF20E030E040E05FE3C701B601905854
:102510000BCD20E030E040E05FE3C701B60190580A
:102520002BCD20E030E040E05FE3C701B6019058DA
:102530004BCDC701B601905820E030E040E05FE3AA
:102540006BCD20E030E048E452ECC701B6010E94B8
:10255000932720E04DE2882309F473C120E030E0A6
:102560004AE754ECC701B6010E94E92918160CF09D
:1025700070C020E030E0A901C701B6010E94932796
:1025800087FF67C0A701960160E070E080E09FE3ED
:102590000E94D4280E94B3290E949A276B017C01D3
:1025A00020E030E048EC52E40E9441290E94B32927
:1025B000CAE0D0E0CB01BE010E94EE29082F809333
:1025C000F6029093F70220E030E040E251E4C701C8
:1025D000B6010E9441290E94B329CB01BE010E948D
:1025E000EE29182F8093F8029093F902C701B601E3
:1025F0000E94B329CB01BE010E94EE29C82F80930F
:10260000FA029093FB0220E04DE267E070E08FE871
:1026100094E00E94A90C20E040E266E070E08FE8C0
:1026200094E00E94A90C402F65E070E08FE894E0F0
:102630000E948F0C412F64E070E08FE894E00E94CC
:102640008F0C4C2F63E070E08FE894E00E948F0CB9
:1026500031C020E030E0A901C701B6010E949327F4
:102660008111E3C020E040E267E070E08FE894E091
:102670000E94A90C20E040E266E070E08FE894E060
:102680000E94A90C20E040E265E070E08FE894E051
:102690000E94A90C20E040E264E070E08FE894E042
:1026A0000E94A90C20E040E263E070E08FE894E033
:1026B0000E94A90C8091470390914803A09149037F
:1026C000B0914A038093000390930103A093020307
:1026D000B0930303C0904303D0904403E0904503BC
:1026E000F090460320E030E0A901C701B6010E9446
:1026F0009327882309F48CC020E030E0A901C701AA
:10270000B6010E94E92920E030E040E05FE387FD68
:10271000D5C1C701B6010E94D5280E94B3290E94E5
:102720009A2720E030E048EC52E40E9441290E94C0
:10273000B329CB016AE070E00E94EE29D82F809384
:10274000EE029093EF0220E030E0A901C701B6014C
:102750000E94E92920E030E040E05FE387FDB3C15B
:10276000C701B6010E94D5280E94B3290E949A276A
:1027700020E030E040E251E40E9441290E94B32968
:10278000CB016AE070E00E94EE29C82F8093F0022E
:102790009093F10220E030E0A901C701B6010E9448
:1027A000E92920E030E040E05FE387FD91C1C70107
:1027B000B6010E94D5280E94B3290E949A270E9440
:1027C000B329CB016AE070E00E94EE29F82E8093D5
:1027D000F2029093F3024D2F62E070E08FE894E0F4
:1027E0000E948F0C4C2F61E070E08FE894E00E9413
:1027F0008F0C4F2D70E060E08FE894E00E948F0C0A
:102800001092430310924403109245031092460322
:10281000DF91CF911F910F91FF90EF90DF90CF90BC
:10282000BF90AF909F908F90089520E030E048E4F3
:1028300052E4C701B6010E949327811123C020E012
:1028400040E267E070E08FE894E00E94A90C20E08D
:1028500040E266E070E08FE894E00E94A90C20E07E
:1028600040E265E070E08FE894E00E94A90C20E06F
:1028700045E064E070E08FE894E00E94A90C20E05D
:1028800040E012CF20E030E0A901C701B6010E946C
:10289000E92920E030E04AE754E418160CF04AC079
:1028A000C701B6010E94932787FF17C120E030E0DF
:1028B00040E05FE3C701B6010E94D5280E94B3291A
:1028C0000E949A276B017C0120E030E048EC52E442
:1028D0000E9441290E94B329CAE0D0E0CB01BE0189
:1028E0000E94EE29082F8093F6029093F70220E0D1
:1028F00030E040E251E4C701B6010E9441290E9444
:10290000B329CB01BE010E94EE29182F8093F80253
:102910009093F902C701B6010E94B329CB01BE0111
:102920000E94EE29C82F8093FA029093FB0220E0C8
:1029300040E26BCEC701B6010E94E92987FDBACEFD
:1029400020E030E0A901C701B6010E94E92987FD16
:102950009DC020E030E040E05FE3C701B6010E9487
:10296000D5280E94B3290E949A2720E030E04AE748
:1029700054E40E9441290E94B329CB016AE070E02F
:102980000E94EE29082F8093F6029093F70220E030
:1029900030E0A901C701B6010E94E92920E030E03A
:1029A00040E05FE387FD7BC0C701B6010E94D528E8
:1029B0000E94B3290E949A2720E030E048EC52E4BC
:1029C0000E9441290E94B329CB016AE070E00E9475
:1029D000EE29182F8093F8029093F90220E030E05E
:1029E000A901C701B6010E94E92920E030E040E0DA
:1029F0005FE387FD59C0C701B6010E94D5280E9438
:102A0000B3290E949A2720E030E040E251E40E947E
:102A100041290E94B329CB016AE070E00E94EE29AF
:102A2000D82F8093FA029093FB0220E030E0A901B6
:102A3000C701B6010E94E92920E030E040E05FE3F1
:102A400087FD37C0C701B6010E94D5280E94B3296F
:102A50000E949A270E94B329CB016AE070E00E948D
:102A6000EE29C82F8093FC029093FD0220E040E203
:102A700067E070E08FE894E00E94A90C402F66E0C8
:102A800070E08FE894E00E948F0CE8CA20E030E00C
:102A900040E05FE3C701B6010E94D42862CFC701BE
:102AA000B6010E94D42884CFC701B6010E94D42861
:102AB000A6CFC701B6010E94D428C8CFC701B6016E
:102AC0000E94D4282ACEC701B6010E94D4284CCE39
:102AD000C701B6010E94D4286ECE20E030E04AE75C
:102AE00054E4C701B6010E94E92987FF32CFE2CD45
:102AF000FC01EA5AFF4F20813181121613064CF473
:102B00006031710530F4262F4AE070E060E00C94EB
:102B1000730B0895FB0101900020E9F73197AF0195
:102B2000461B570BDC01ED91FC910280F381E02DF7
:102B300019946EEC76E080913406909135060E94EF
:102B40008A15EEECF6E001900020E9F7EF50F7402F
:102B500041F46CE272E080913406909135060C9459
:102B60008A150895CF93DF93EC01198218821B8296
:102B70001A821D821C8261E070E090E080E00E9479
:102B8000842B0097A1F0998388831B821A822C8161
:102B90003D81232B11F4FC0110821D821C826DE209
:102BA00072E088819981DF91CF910C946E2C88819D
:102BB0009981009711F00E94FB2A198218821D82C8
:102BC0001C821B821A82DF91CF910895880F991F72
:102BD000FC01E65CF74F0190F081E02D309749F160
:102BE0008081918197FD22C01F922EE32F931F9227
:102BF00021E02F939F938F931F928BE68F931F92C9
:102C00008CE38F938EE292E09F938F938EEC96E00D
:102C10009F938F930E94832C0E9499158DB79EB726
:102C20000E960FB6F8949EBF0FBE8DBF90E080E069
:102C300008958FEF9FEF0895FC018681978120858D
:102C400031858217930761F09187808728173907AC
:102C500024F4828193810C94E61584819581FBCFC5
:102C6000089577FD1EC01F922EE32F937F936F93DD
:102C70009F938F931F928CE38F938CE392E09F93AB
:102C80008F938EEC96E09F938F930E94832C8DB749
:102C90009EB70C960FB6F8949EBF0FBE8DBF0C94D6
:102CA000991508950F931F93CF93DF93C091040953
:102CB000D0910509C436D1056CF58C0180E190E016
:102CC0000E945F2AFC01DE01AA0FBB1FA65CB74F62
:102CD000ED93FC931583048313821282138612866C
:102CE00081E090E0958784878FEF9FEF91838083C9
:102CF00097878687CE0101969093050980930409F2
:102D00001092070910920609CE01DF91CF911F9111
:102D10000F910895CFEFDFEFF7CF4F925F926F9251
:102D20007F928F929F92AF92BF92CF92DF92EF925B
:102D3000FF920F931F93CF93DF93C0910209D0911D
:102D40000309C436D1050CF04FC0470128013901F1
:102D50007A016B015C0184E290E00E945F2AFC0131
:102D6000DE01AA0FBB1FAE58B84FED93FC93B78A94
:102D7000A68A158A148AD382C282468257826086C6
:102D80007186A70170E060E0448755876687778782
:102D900081E090E095838483918E808E128E138ED5
:102DA000148E158E13A212A28FEF9FEF9183808352
:102DB000CE010196909303098093020910920709AE
:102DC00010920609CE01DF91CF911F910F91FF90D4
:102DD000EF90DF90CF90BF90AF909F908F907F90BB
:102DE0006F905F904F900895CFEFDFEFEBCFEF92B2
:102DF000FF920F931F93CF93DF93C0910209D0915D
:102E00000309C436D1050CF048C08B017C0184E273
:102E100090E00E945F2AFC01DE01AA0FBB1FAE58A2
:102E2000B84FED93FC93F78AE68A158A148A81E0FD
:102E300090E09383828382E090E095838483118F76
:102E4000008F80E090E0A0E8BFEB868F978FA0A373
:102E5000B1A384E690E0A0E0B0E084879587A687E0
:102E6000B787168217821086118613A212A28FEFDF
:102E70009FEF91838083CE01019690930309809305
:102E800002091092070910920609CE01DF91CF9135
:102E90001F910F91FF90EF900895CFEFDFEFF5CFE7
:102EA000EF92FF920F931F93CF93DF93C09104098A
:102EB000D0910509C436D105C4F5072F162F7C0122
:102EC00080E190E00E945F2AFC01CC0FDD1FC65C10
:102ED000D74FF983E883F582E48213821282138646
:102EE000128681E090E0958784878FEF9FEF918332
:102EF00080831687078762E0812F0E94DB0880911C
:102F00000409909105099C012F5F3F4F30930509FB
:102F1000209304091092070910920609DF91CF91BE
:102F20001F910F91FF90EF9008958FEF9FEFF6CFD5
:102F30001F93CF93DF93C4E3D6E01F811F8288E302
:102F400096E00E94B2251F83DF91CF911F910895D3
:102F50001F920F920FB60F9211240BB60F922F9360
:102F60003F934F935F936F937F938F939F93AF9311
:102F7000BF93EF93FF9387E995E00E945D07FF9170
:102F8000EF91BF91AF919F918F917F916F915F91E1
:102F90004F913F912F910F900BBE0F900FBE0F904E
:102FA0001F9018951F920F920FB60F9211240BB617
:102FB0000F922F938F939F93EF93FF93E091A70529
:102FC000F091A8058081E091AD05F091AE0582FDFC
:102FD0001DC090818091B0058F5F8F732091B105E6
:102FE000821741F0E091B005F0E0E956FA4F958F75
:102FF0008093B005FF91EF919F918F912F910F904A
:103000000BBE0F900FBE0F901F9018958081F2CFCE
:103010001F920F920FB60F9211242F933F938F930D
:103020009F93AF93BF938091370390913803A09102
:103030003903B0913A033091360323E0230F2D3743
:1030400058F50196A11DB11D2093360380933703D7
:1030500090933803A0933903B0933A0380913B03D4
:1030600090913C03A0913D03B0913E030196A11DB8
:10307000B11D80933B0390933C03A0933D03B09319
:103080003E03BF91AF919F918F913F912F910F90F0
:103090000FBE0F901F90189526E8230F0296A11DD2
:1030A000B11DD2CF1F920F920FB60F9211240BB603
:1030B0000F922F933F934F935F936F937F938F93D1
:1030C0009F93AF93BF93EF93FF93E0910E02F09124
:1030D0000F021995FF91EF91BF91AF919F918F9141
:1030E0007F916F915F914F913F912F910F900BBE08
:1030F0000F900FBE0F901F9018951F920F920FB652
:103100000F9211240BB60F922F933F934F935F931F
:103110006F937F938F939F93AF93BF93EF93FF939F
:10312000E0910C02F0910D021995FF91EF91BF9182
:10313000AF919F918F917F916F915F914F913F914F
:103140002F910F900BBE0F900FBE0F901F901895F0
:103150001F920F920FB60F9211240BB60F922F935E
:103160003F934F935F936F937F938F939F93AF930F
:10317000BF93EF93FF93E0910202F0910302199540
:10318000FF91EF91BF91AF919F918F917F916F913F
:103190005F914F913F912F910F900BBE0F900FBEFB
:1031A0000F901F9018951F920F920FB60F92112437
:1031B0000BB60F922F933F934F935F936F937F9331
:1031C0008F939F93AF93BF93EF93FF93E091000290
:1031D000F09101021995FF91EF91BF91AF919F91ED
:1031E0008F917F916F915F914F913F912F910F90B0
:1031F0000BBE0F900FBE0F901F9018951F920F924D
:103200000FB60F9211240BB60F922F933F934F934B
:103210005F936F937F938F939F93AF93BF93EF933E
:10322000FF93E0910A02F0910B021995FF91EF9143
:10323000BF91AF919F918F917F916F915F914F91CE
:103240003F912F910F900BBE0F900FBE0F901F90CC
:1032500018951F920F920FB60F9211240BB60F9272
:103260002F933F934F935F936F937F938F939F938E
:10327000AF93BF93EF93FF93E0910802F09109029F
:103280001995FF91EF91BF91AF919F918F917F9190
:103290006F915F914F913F912F910F900BBE0F90C7
:1032A0000FBE0F901F9018951F920F920FB60F929E
:1032B00011240BB60F922F933F934F935F936F930D
:1032C0007F938F939F93AF93BF93EF93FF93E0917F
:1032D0000602F09107021995FF91EF91BF91AF910E
:1032E0009F918F917F916F915F914F913F912F911E
:1032F0000F900BBE0F900FBE0F901F9018951F924E
:103300000F920FB60F9211240BB60F922F933F938B
:103310004F935F936F937F938F939F93AF93BF93DD
:10332000EF93FF93E0910402F09105021995FF914C
:10333000EF91BF91AF919F918F917F916F915F912D
:103340004F913F912F910F900BBE0F900FBE0F909A
:103350001F9018958BBFFB0107900020E9F760953F
:1033600070956E0F7F1FCB010895FA016BBFDC01D2
:103370002150304030F08D910790801919F40020D1
:10338000B9F7881B990B0895E7E9F5E013821282DB
:103390008EE192E09183808385EC90E0958784872D
:1033A00084EC90E09787868780EC90E0918B808B0F
:1033B00081EC90E0938B828B82EC90E0958B848BF8
:1033C00086EC90E0978B868B118E128E138E148E66
:1033D000F0933506E093340684EF91E0A0E0B0E08E
:1033E00084839583A683B7832FE230E040E350E0E7
:1033F0006EE270E08FE395E00E94EF0B24E230E094
:1034000043E250E062E270E087EE94E00E94EF0B4E
:103410002EE130E04CE150E06FE170E08FE894E0A5
:103420000E94EF0B44E365E383E894E00E94180BED
:1034300045E267E287E794E00E94180B40E261E210
:103440008BE694E00E94180B4EE06FE08FE594E06D
:103450000E94180B4DE06CE083E594E00E94180B8D
:103460004AE16DE187E494E00E94180B81E494E066
:103470000E94B2158BE394E00C94B215789484B555
:10348000826084BD84B5816084BD85B5826085BD60
:1034900085B5816085BD80916E00816080936E00EE
:1034A00010928100809181008260809381008091E0
:1034B0008100816080938100809180008160809391
:1034C00080008091B10084608093B1008091B00051
:1034D00081608093B0008091910082608093910020
:1034E0008091910081608093910080919000816033
:1034F000809390008091A10082608093A1008091D0
:10350000A10081608093A1008091A00081608093E0
:10351000A00080912101826080932101809121018E
:10352000816080932101809120018160809320013E
:1035300080917A00846080937A0080917A00826022
:1035400080937A0080917A00816080937A008091E4
:103550007A00806880937A001092C100F8941092EB
:103560004E0410924F04109250041092510478941B
:10357000F89410927E0410927F04109280041092AE
:1035800081047894F894109272041092730410924B
:103590007404109275047894F89410926604109252
:1035A000670410926804109269047894F894109259
:1035B0005A0410925B0410925C0410925D0478949B
:1035C000F89410928A0410928B0410928C0410923A
:1035D0008D04789462E080918D030E94DB08CFEF28
:1035E000DFEFD0939603C093950362E080917F0351
:1035F0000E94DB08D0938803C093870362E0809128
:1036000071030E94DB08D0937A03C093790362E0D0
:10361000809163030E94DB08D0936C03C0936B031B
:1036200080919505909196051816190644F421E0AD
:103630004CE070E060E08FE395E00E94730BC09176
:103640001002D0911102BE018FE395E00E9478151F
:1036500080913D0590913E051816190644F421E02D
:103660004CE070E060E087EE94E00E94730BBE01D6
:1036700087EE94E00E9478158091E5049091E6042D
:103680001816190644F421E04CE070E060E08FE881
:1036900094E00E94730BBE018FE894E00E947815BD
:1036A0000E94C90C62E082E30E94DB0862E08EE3C4
:1036B0000E94DB0862E081E30E94DB0862E08AE2AC
:1036C0000E94DB0862E080E40E94DB0862E08BE39A
:1036D0000E94DB0862E08CE30E94DB0862E08BE280
:1036E0000E94DB0862E083E30E94DB0862E087E37C
:1036F0000E94DB0862E08AE30E94DB0862E085E466
:103700000E94DB0862E084E10E94DB0862E087E05F
:103710000E94DB0862E086E10E94DB0862E083E051
:103720000E94DB0862E084E00E94DB0862E08BE03C
:103730000E94DB0862E089E00E94DB0862E089E128
:103740000E94DB0862E08BE10E94DB0861E082E01E
:103750000E94DB0870E060E082E00E940C09E091CA
:10376000A705F091A80582E08083E091A305F09180
:10377000A4051082E091A505F091A60580E1808363
:103780001092AF05E091AB05F091AC0586E0808327
:10379000E091A905F091AA05808180618083E09184
:1037A000A905F091AA05808188608083E091A90530
:1037B000F091AA05808180688083E091A905F0914D
:1037C000AA0580818F7D808388E492E090937107C1
:1037D0008093700710926707109266071092030992
:1037E000109202091092050910920409109207091B
:1037F00010920609109236060BEDE02E03E0F02E33
:1038000000E010E098014AE050E061E070E087ECF1
:103810009CE00E948D1687EDE82E83E0F82E00E0F4
:1038200010E098014AE050E061E070E082EA9CE03C
:103830000E948D1693EDE92E93E0F92E00E010E042
:1038400098014AE050E061E070E08CE79CE00E9463
:103850008D162FECE22E23E0F22E00E010E098010E
:103860004AE050E061E070E088E59CE00E948D163F
:103870003BECE32E33E0F32E00E010E098014AE049
:1038800050E061E070E085E39CE00E948D1647EC1B
:10389000E42E43E0F42E00E010E098014AE050E00E
:1038A00061E070E080E19CE00E948D1653ECE52E13
:1038B00053E0F52E00E010E098014AE050E061E0AE
:1038C00070E08EEE9BE00E948D166FEBE62E63E0BB
:1038D000F62E00E010E098014AE050E061E070E070
:1038E00088EC9BE00E948D167BEBE72E73E0F72EB1
:1038F00000E010E098014AE050E061E070E082EA08
:103900009BE00E948D16E7EBEE2EE3E0FE2E00E03A
:1039100010E098014AE050E061E070E081E89BE04F
:103920000E948D16F3EBEF2EF3E0FF2E00E010E087
:1039300098014AE050E061E070E08DE59BE00E9474
:103940008D16AFEAEA2EA3E0FA2E00E010E098010F
:103950004AE050E061E070E089E39BE00E948D1650
:10396000BBEAEB2EB3E0FB2E00E010E098014AE04A
:1039700050E061E070E085E19BE00E948D16C7EAAF
:10398000EC2EC3E0FC2E00E010E098014AE050E08D
:1039900061E070E081EF9AE00E948D16D3EAED2E8F
:1039A000D3E0FD2E00E010E098014AE050E061E035
:1039B00070E086EC9AE00E948D161FE9E12E13E07C
:1039C000F12E00E010E098014AE050E061E070E084
:1039D0008CE99AE00E948D160BE9E02E03E0F02EB0
:1039E00000E010E098014AE050E061E070E084E718
:1039F0009AE00E948D1661E370E084E59AE00E94EF
:103A000050176AE270E081E39AE00E9450176CE37D
:103A100070E08FE09AE00E9450176BE270E08AEE4F
:103A200099E00E94501763E370E085EC99E00E94F2
:103A3000501767E370E083EA99E00E9450176AE349
:103A400070E08FE799E00E94501765E470E08EE522
:103A500099E00E94501764E170E089E399E00E94C8
:103A6000501766E170E089E199E00E94501763E029
:103A700070E086EF98E00E94501764E070E083EDFC
:103A800098E00E9450176BE070E080EB98E00E9495
:103A9000501769E070E08DE898E00E9450176BE3E2
:103AA00070E08BE698E00E94501767E070E089E4D0
:103AB00098E00E94501760E470E080E298E00E9475
:103AC000501789EEE82E83E0F82E00E010E028EC95
:103AD00032E450E040E062E070E08AEF97E00E945C
:103AE0008D1695EEE92E93E0F92E00E010E028EC1B
:103AF00032E450E040E062E070E084ED97E00E9444
:103B00008D162DEEE22E23E0F22E00E010E028ECE0
:103B100032E450E040E062E070E08DEA97E00E941D
:103B20008D1631EEE32E33E0F32E00E010E028ECAA
:103B300032E450E040E061E070E087E897E00E9406
:103B40008D168EE597E00E9452169093E0038093C5
:103B5000DF03C0910209D0910309C436D105ECF509
:103B600084E290E00E945F2AFC01DE01AA0FBB1FE5
:103B7000AE58B84F8D939C93178A168A85E592E0CC
:103B8000958B848B81E090E09383828382E090E048
:103B90009583848383E394E0918F808F168E178EB4
:103BA00010A211A28AE090E0A0E0B0E0848795879F
:103BB000A687B787168217821086118613A212A2D3
:103BC0008FEF9FEF918380832196D0930309C09359
:103BD000020910920709109206096FE573E08AE363
:103BE00097E00E94F7166BE573E08BE097E00E9488
:103BF000F71667E5E62E63E0F62E00E010E0980188
:103C000044E650E061E070E08BEE96E00E948D1695
:103C100063E573E087EC96E00E94F7166FE473E0CB
:103C200080EA96E00E94F7166BE473E08CE796E07A
:103C30000E94F71667E473E08AE596E00E94F716A3
:103C400063E473E084E396E00E94F7167FE3E72ED7
:103C500073E0F72E00E010E0980144E650E061E0E8
:103C600070E08FE096E00E948D1686EE95E00E944F
:103C7000521690932A04809329048DEB95E00E94BC
:103C8000521690932C0480932B0483EA95E00E94B3
:103C900052169093200480931F0487E895E00E94B9
:103CA0005216909322048093210485E695E00E94A9
:103CB0005216909316048093150483E495E00E94B5
:103CC0005216909318048093170480E295E00E94A6
:103CD000521690930C0480930B048DEF94E00E9495
:103CE000521690930E0480930D048DED94E00E9483
:103CF000521690930204809301048BEB94E00E948F
:103D00005216909304048093030484E994E00E9483
:103D100052169093F8038093F7038DE694E00E9487
:103D200052169093FA038093F9038CE394E00E9477
:103D300052169093900380938F038BE094E00E943F
:103D4000521690939203809391038DED93E00E941D
:103D5000521690938203809381038FEA93E00E942E
:103D60005216909384038093830380E893E00E942B
:103D70005216909374038093730381E593E00E943D
:103D80005216909376038093750388E293E00E9425
:103D9000521690936603809365038FEF92E00E9422
:103DA00052169093680380936703EEEC6E2EE6E064
:103DB0007E2EF4E08F2E912CA12CB12C8091340614
:103DC00090913506DC01ED91FC910084F185E02DA8
:103DD000199520913606892B81F02C3381F0809142
:103DE000340690913506DC01ED91FC910284F38557
:103DF000E02D199580933606E1CF2C33C1F5009163
:103E000034061091350657E3E52E56E0F52ED0E046
:103E1000C0E00E943D0AF80160877187828793871E
:103E2000D801ED91FC910284F385E02DC80119952C
:103E300097FF54C60E943D0AF801208531854285CE
:103E40005385621B730B840B950B2481358146814E
:103E50005781621773078407950710F3D093CD0637
:103E6000C093CC06209709F063C01092360680916B
:103E7000060990910709892B09F45DC484E3C82ED3
:103E800086E0D82EF12CE12C809102099091030953
:103E9000E816F9060CF4E0C2CAE3D8E010E000E04E
:103EA0008091040990910509081719070CF043C483
:103EB000E881F9818081918197FD36C00E943D0A99
:103EC000E881F981C680D780E084F1846C197D098E
:103ED0008E099F096D3271408105910528F1868513
:103EE000978597FDFEC30E9484087C01E881F981D3
:103EF00084859585E816F906B9F06081718181E0C5
:103F0000E816F10409F0E8C38AE690E00E94311651
:103F10000E943D0AE881F9816683778380879187D3
:103F2000E881F981F586E4860F5F1F4F2296B8CFAE
:103F3000FE01EC5CF94F2EE323832296D093CD064D
:103F4000C093CC06CC5CD94F1A828091370681365B
:103F500009F44EC074F4833309F499C0843309F42E
:103F6000EBC0823309F081CF109267071092660789
:103F70007CCF853609F4FAC1863611F1843609F012
:103F800074CFE2E7F7E090E080E041E050E020917C
:103F9000020930910309821793070CF066CFA191B3
:103FA000B19112962D913C911397225031092230F4
:103FB000310520F41B965C934E931A970196E7CF38
:103FC0002091020930910309E2E7F7E090E080E0F8
:103FD000821793070CF074C18436910509F470C1FF
:103FE000C191D1914881598157FDFBC00196F0CF15
:103FF00080917007909171070097E1F01F922F93C5
:104000009F938F931F9280E38F931F928CE38F93E4
:104010008CE792E09F938F937F926F920E94832C04
:104020000E949915EDB7FEB73C960FB6F894FEBF07
:104030000FBEEDBF81E090E0909367078093660725
:10404000E2E7F7E090E080E0209102093091030977
:1040500082179307A4F0EAE3F8E090E080E0209173
:10406000040930910509821793070CF0FECEA19147
:10407000B1912FEF3FEF2D933C930196F0CFA1919B
:10408000B1912FEF3FEF2D933C930196DDCFD0E020
:10409000C0E08091020990910309C817D9070CF07C
:1040A000E4CEFE01EE0FFF1FEE58F84F00811181A4
:1040B000D80154966D917C9161157105F1F0FB0169
:1040C00001900020E9F73197AF01461B570B8BE3B6
:1040D00096E00E94752C892B71F4F8018081918102
:1040E000019649F40E949817D8018D939C93C09132
:1040F0000209D09103092196CCCFF801C688D78850
:104100000D2C000CEE08FF08C701B6010E94AA1989
:104110009C01B701A6018BE396E00E94B519892B9B
:1041200051F7D8018D919C91019629F70E9498171B
:10413000F80191838083DBCFD0E0C0E08091040957
:1041400090910509C817D9070CF08FCEFE01EE0F2C
:10415000FF1FE65CF74F00811181D80112966D9127
:104160007C9161157105F1F0FB0101900020E9F7E8
:104170003197AF01461B570B8BE396E00E94752CDD
:10418000892B71F4F80180819181019649F40E9494
:104190009817D8018D939C93C0910409D09105097B
:1041A0002196CCCFF801C480D5800D2C000CEE08F0
:1041B000FF08C701B6010E94AA199C01B701A60118
:1041C0008BE396E00E94B519892B51F7D8018D91A8
:1041D0009C91019629F70E949817F801918380839A
:1041E000DBCF0C891D89CE80DF80E884F98420E054
:1041F00030E048EC52E4C701B6010E94F9270E9462
:10420000B329CB0164E670E00E94EE29582E492EB6
:10421000C701B6010E94B3292AA13BA18A819B81D3
:104220000115110539F11F924EE34F931F930F9320
:104230004F925F927F936F933F932F939F938F93B0
:104240001F9282E68F931F928CE38F9385E892E012
:104250009F938F937F926F920E94832C2DB73EB7CE
:104260002C5E3F4F0FB6F8943EBF0FBE2DBF0E948D
:104270009915FBCD1F924EE34F934F894F934E8973
:104280004F934F925F927F936F933F932F939F93A0
:104290008F931F9282E68F931F928CE38F9381EA14
:1042A00092E09F938F937F926F920E94832C8DB7A1
:1042B0009EB744960FB6F8949EBF0FBE8DBFD7CF62
:1042C000AAE3B8E090E080E020910409309105096C
:1042D000821793070CF00FC48436910509F40BC4C0
:1042E000ED91FD912081318137FD02C00196ECCF27
:1042F000828193810097E1F01F922EE32F939F9389
:104300008F931F928DE68F931F928CE38F938CE790
:1043100092E09F938F937F926F920E94832CADB710
:10432000BEB71C960FB6F894BEBF0FBEADBF9FCFF1
:104330001F928EE38F9385818F9384818F931F9239
:104340008DE68F931F928CE38F938DEB92E09F937A
:104350008F937F926F920E94832CEDB7FEB73C96AD
:104360000FB6F894FEBF0FBEEDBF81CF0E94981725
:104370007C0190E080E020910209309103098217CE
:1043800093070CF072CDEC01C156DF4F8E01000F88
:10439000111F0C5C194FD801ED91FC9120813181E6
:1043A000E216F30609F056C0228133812D7F2130B9
:1043B000310509F04FC0848195810197F9F4C08CD3
:1043C000D18C50904506109245068BE396E00E94F2
:1043D000D025F601608371838283938350924506D2
:1043E000D801ED91FC91A08DB18D8D919D910D9095
:1043F000BC91A02D828F938FA48FB58FCC0FDD1F22
:10440000CC5CD94FE881F981848195810297F1F4E0
:10441000008D118DD0904506109245068BE396E0F5
:104420000E94AE25F8016083718382839383D092CA
:104430004506E881F981A08DB18D8D919D910D90FA
:10444000BC91A02D868F978FA0A3B1A38091020964
:104450009091030901968FCFE601C25CDE4FA881DF
:10446000B9818D919C91119797FD11C012968D91F4
:104470009C9113970297029750F414968D919C91FA
:1044800015978130910551F0029709F485C0FFEF2F
:10449000EF1AFF0A22E0C20ED11CF6CC5896ED911D
:1044A000FC91599740815181628173815A968D9117
:1044B0009D910D90BC91A02D481759076A077B0765
:1044C00031F30E943D0AE881F9810089118922892E
:1044D0003389AB01BC01401B510B620B730B84850C
:1044E0009585A685B78521E0892B8A2B8B2B29F40E
:1044F00082859385892B09F420E0822F90E0B0E03B
:10450000A0E084179507A607B70708F68081918178
:1045100097FD25C01F922EE32F93008CF18DE02D87
:1045200021812F9320812F939F938F931F9235E6A4
:104530003F931F928CE38F93AEE2B2E0BF93AF93B1
:104540007F926F920E94832C0E9499152DB73EB7DF
:10455000225F3F4F0FB6F8943EBF0FBE2DBFE881DC
:10456000F981A08DB18D8D919D910D90BC91A02D63
:10457000828F938FA48FB58F088119810E943D0A85
:10458000D80150966D937D938D939C935397E881BA
:10459000F981138612867BCF5896ED91FC9159973D
:1045A0005E962D913D914D915C91919760817181C5
:1045B000828193810E949327811177C0E881F981DC
:1045C00082859385892B09F462CFE881F981008186
:1045D000118117FD53C0008CF18DE02D20803180BA
:1045E000428053801F92BEE3BF9320E030E048EC4E
:1045F00052E4C201B1010E94F9270E94B329CB0104
:1046000064E670E00E94EE2997FF03C091958195C2
:1046100091099F938F93C201B1010E94B3299B011D
:1046200077FF04C022273327261B370B3F932F9396
:104630001F930F931F92E5E6EF931F92FCE3FF9306
:1046400026EC32E03F932F937F926F920E94832C4F
:10465000ADB7BEB750960FB6F894BEBF0FBEADBF94
:1046600020E030E0A901C201B1010E94932787FF39
:1046700003C0BDE2B093D3060E949915E881F98189
:10468000A08DB18D8D919D910D90BC91A02D868FA7
:10469000978FA0A3B1A3088119810E943D0AF80158
:1046A000608B718B828B938B72CF0E943D0AE88165
:1046B000F9810089118922893389601B710B820B72
:1046C000930B048515852685378506171707280758
:1046D000390708F073CF79CF89E690E00E94311650
:1046E0001FCCA285B385109709F41ECC8D919C91A7
:1046F000248535858217930709F416CC6081718172
:1047000018161906ACF48AE690E00E943116E8818A
:10471000F981A285B3858D919C91958784870E94AC
:104720003D0AE881F9816683778380879187FCCB96
:1047300089E690E0EACF8091060990910709892BDC
:1047400009F4B5C18091120290911302892B01F1F5
:10475000D0E0C0E0BE0182E00E940C090E94080A7D
:104760002196C11591E0D907A9F7CFEFD0E0BE019E
:1047700082E00E940C090E94080A2197C0F76FE7A7
:1047800070E082E00E940C09109213021092120253
:10479000C0903304D0903404E0903504F090360497
:1047A000A701960160913704709138048091390413
:1047B00090913A040E949327882309F44EC020E088
:1047C00030E04FE753E4C701B6010E94F92720E02B
:1047D00030E0A9010E94D5280E94B32970931102EC
:1047E0006093100282E00E940C0920E030E040E873
:1047F00050E46091330470913404809135049091B9
:1048000036040E94F92720E030E0A9010E94D52853
:104810000E94B3296B0170933204609331048FE3DB
:1048200095E00E947815B60187EE94E00E94781515
:10483000B6018FE894E00E9478158091330490913E
:104840003404A0913504B0913604809337049093DA
:104850003804A0933904B0933A0487E494E00E94AA
:10486000040BA50194010E94022A30932E04209388
:104870002D0487E794E00E94040BA50194010E9497
:10488000022A30932404209323048BE694E00E94B0
:10489000040BA50194010E94022A30931A0420936C
:1048A00019048FE594E00E94040BA50194010E9475
:1048B000022A3093100420930F0483E594E00E94B1
:1048C000040BA50194010E94022A30930604209350
:1048D000050483E894E00E94040BA50194010E9462
:1048E000022A3093FC032093FB0387E294E00E94AA
:1048F0001C168DE194E00E941C1683E194E00E9456
:104900001C1689E094E00E941C168FEF93E00E9431
:104910001C1685EF93E00E941C160E94C90C0E9491
:104920003D0A0091F1031091F2032091F3033091BD
:10493000F403601B710B820B930B653671058105C7
:10494000910508F4B4C00E943D0A6093F10370938E
:10495000F2038093F3039093F4038EE30E948408A0
:1049600041E050E060E070E0892B19F040E050E059
:10497000BA014093ED035093EE036093EF037093FD
:10498000F00382E30E94840841E050E060E070E0C0
:10499000892B19F040E050E0BA014093E9035093AD
:1049A000EA036093EB037093EC038BE10E948408AD
:1049B00041E050E060E070E0892B19F040E050E009
:1049C000BA014093E5035093E6036093E7037093C5
:1049D000E80389E10E948408892B09F06BC080916B
:1049E000E1039091E203A091E303B091E403892BEA
:1049F0008A2B8B2B09F05EC08091DF039091E0033E
:104A00000E94E6156091DB038CE20E94AD08609184
:104A1000D7038DE20E94AD086091D30388E20E9423
:104A2000AD086091CF038DE30E94AD086091CB0388
:104A300088E30E94AD086091C70389E30E94AD0836
:104A40006091C30383E40E94AD086091BF0389E2D3
:104A50000E94AD086091BB0385E10E94AD086091A2
:104A6000B70387E10E94AD086091B30385E00E941F
:104A7000AD086091AF0386E00E94AD086091AB0382
:104A80008AE00E94AD086091A70388E00E94AD080B
:104A90006091A3038FE30E94AD0860919F0386E2BB
:104AA0000E94AD0860919B0388E10E94AD080E94BE
:104AB000EC0784C989E10E948408892B09F4A2CFFC
:104AC0008091E1039091E203A091E303B091E403AC
:104AD000892B8A2B8B2B09F08FCF94CF8E339105A6
:104AE00009F4BCC9D7018D937D012196C539D10543
:104AF00009F08FC9B3C981E090E0909307098093D2
:104B000006091F928EE38F931F9283E68F931F9265
:104B10008CE38F938BED92E09F938F937F926F92B4
:104B20000E94832C0E949915EDB7FEB73A960FB6F6
:104B3000F894FEBF0FBEEDBF98C980913B049091E1
:104B40003C04009711F00E94FB2A8091410490914F
:104B50004204009711F00C94FB2A089566277727EA
:104B60000C941426FC0188279927E894219120327F
:104B7000E9F3293010F02E30C8F32B3241F02D32FA
:104B800039F4689404C00E940C26820F911D219173
:104B900020532A30C0F31EF4909581959F4F0895BD
:104BA0001F93FC0199278827BC01E89411911032CA
:104BB000E9F3193010F01E30C8F31B3251F01D32EA
:104BC00049F4689406C00E94F725610F711D811D8C
:104BD000911D119110531A30B0F33EF490958095C9
:104BE000709561957F4F8F4F9F4F1F910895592F5B
:104BF000482F372F262F660F771F881F991F660FA4
:104C0000771F881F991F620F731F841F951F660FE0
:104C1000771F881F991F08957AE0979F902D879F8F
:104C2000802D910D112408958F929F92AF92BF9283
:104C3000CF92DF92EF92FF920F931F93CF93DF9368
:104C40005C017B016115710519F0DB018D939C936B
:104C500085010F5F1F4FF501D0818D2F90E00E94DD
:104C600072276C01892BB9F5DD32B9F50F5F1F4F43
:104C7000D5011196DC91C1E05801F1E0AF1AB108FD
:104C800043E050E06CEA71E0C5010E947B27892B6C
:104C900069F5680182E0C80ED11C45E050E067EA82
:104CA00071E0C6010E947B27892B21F4680197E0FF
:104CB000C90ED11CE114F10419F0D701CD92DC9298
:104CC00060E070E080E89FEFC111FFC060E070E03D
:104CD00080E89FE7FAC05801BBCFDB3229F4850199
:104CE0000E5F1F4FF501D181C0E0C6CF43E050E019
:104CF00064EA71E0C5010E947B27892BE9F0F80185
:104D000010E000E020E030E0A9015F01B0ED8B2E63
:104D10008D0E89E08815C8F19C2E689491F88C2F2F
:104D20008870C2FF16C0811102C00F5F1F4F3196FD
:104D3000D501DC91C92DE9CFE114F10429F00E5F12
:104D40001F4FF7011183008360E070E080EC9FE764
:104D5000BCC0882311F001501109A5E0B0E00E9409
:104D6000BA289B01AC01220F331F441F551F280D89
:104D7000311D411D511D283999E93907490799E12C
:104D80005907A8F2C6609C2ED2CFAEEF8A1206C099
:104D9000C3FD3CC09C2E689493F8C9CFDF7DD53409
:104DA000A9F580818D3239F4C061DF0112968181CD
:104DB00062E070E006C0DF018B32C1F3119661E062
:104DC00070E080535D01A61AB70A8A30F8F4E0E873
:104DD000CE16ECE0DE065CF4B601660F771F660FB8
:104DE000771FC60ED71ECC0CDD1CC80ED11C5D0172
:104DF000FFEFAF1ABF0A8C9180538A30A8F1C4FF2D
:104E000003C0D194C194D1080C0D1D1DC1FF09C070
:104E1000E114F10431F081E0A81AB108D701AD9294
:104E2000BC92CA01B9010E949827C370C33009F42B
:104E300090584B015C0120E030E0A9010E949327CB
:104E4000882309F440C0CBEDD1E017FF05C01195D0
:104E500001951109C3ECD1E06E01B8E1CB1AD1087C
:104E600080E2E82EF12C0FC0D501B1CFFE012591D3
:104E70003591459154910E191F09C501B4010E9445
:104E8000F9274B015C01D501C4010E151F0574F70C
:104E90002497F594E794CC16DD06A9F78A2F880F9E
:104EA0008B2F881F8F3F49F020E030E0A901C5011A
:104EB000B4010E949327811106C082E290E0909392
:104EC000090980930809C501B401DF91CF911F91B1
:104ED0000F91FF90EF90DF90CF90BF90AF909F9099
:104EE0008F90089591110C946628803219F08950A2
:104EF0008550C8F70895FB01DC014150504088F00F
:104F00008D9181341CF08B350CF4805E6591613499
:104F10001CF06B350CF4605E861B611171F3990B0C
:104F20000895881BFCCF0E94D52708F481E00895DE
:104F3000E89409C097FB3EF4909580957095619533
:104F40007F4F8F4F9F4F9923A9F0F92F96E9BB27E9
:104F50009395F695879577956795B795F111F8CF65
:104F6000FAF4BB0F11F460FF1BC06F5F7F4F8F4FD0
:104F70009F4F16C0882311F096E911C0772321F0C6
:104F80009EE8872F762F05C0662371F096E8862F5E
:104F900070E060E02AF09A95660F771F881FDAF7B5
:104FA000880F9695879597F90895990F0008550FE2
:104FB000AA0BE0E8FEEF16161706E807F907C0F09F
:104FC00012161306E407F50798F0621B730B840BA7
:104FD000950B39F40A2661F0232B242B252B21F481
:104FE00008950A2609F4A140A6958FEF811D811D21
:104FF00008950E940C280C9480280E94722838F092
:105000000E94792820F0952311F00C9469280C94C3
:105010006F2811240C94B4280E94912870F3959F56
:10502000C1F3950F50E0551F629FF001729FBB279F
:10503000F00DB11D639FAA27F00DB11DAA1F649F3B
:105040006627B00DA11D661F829F2227B00DA11DEE
:10505000621F739FB00DA11D621F839FA00D611D74
:10506000221F749F3327A00D611D231F849F600D95
:10507000211D822F762F6A2F11249F5750409AF0BE
:10508000F1F088234AF0EE0FFF1FBB1F661F771F4A
:10509000881F91505040A9F79E3F510580F00C9415
:1050A00069280C94B4285F3FE4F3983ED4F38695C6
:1050B00077956795B795F795E7959F5FC1F7FE2BB5
:1050C000880F911D9695879597F9089599278827B8
:1050D000089597F99F6780E870E060E008959FEF7A
:1050E00080EC089500240A9416161706180609067F
:1050F000089500240A94121613061406050608954E
:10510000092E0394000C11F4882352F0BB0F40F4D5
:10511000BF2B11F460FF04C06F5F7F4F8F4F9F4F15
:10512000089557FD9058440F551F59F05F3F71F097
:105130004795880F97FB991F61F09F3F79F08795FE
:105140000895121613061406551FF2CF4695F1DF87
:1051500008C0161617061806991FF1CF8695710517
:10516000610508940895E894BB2766277727CB014B
:1051700097F908950E94C528A59F900DB49F900DA2
:10518000A49F800D911D11240895A29FB001B39F8B
:10519000C001A39F700D811D1124911DB29F700D40
:1051A000811D1124911D08955058BB27AA270E94E4
:1051B000EC280C9480280E94722838F00E947928EC
:1051C00020F039F49F3F19F426F40C946F280EF464
:1051D000E095E7FB0C946928E92F0E94912858F389
:1051E000BA17620773078407950720F079F4A6F5CC
:1051F0000C94B3280EF4E0950B2EBA2FA02D0B01C2
:10520000B90190010C01CA01A0011124FF27591B0B
:1052100099F0593F50F4503E68F11A16F040A22F11
:10522000232F342F4427585FF3CF46953795279582
:10523000A795F0405395C9F77EF41F16BA0B620B81
:10524000730B840BBAF09150A1F0FF0FBB1F661FC8
:10525000771F881FC2F70EC0BA0F621F731F841F0B
:1052600048F4879577956795B795F7959E3F08F031
:10527000B0CF9395880F08F09927EE0F97958795F3
:1052800008950E9455290C9480280E94792858F08E
:105290000E94722840F029F45F3F29F00C9469289D
:1052A00051110C94B4280C946F280E94912868F333
:1052B0009923B1F3552391F3951B550BBB27AA27CF
:1052C00062177307840738F09F5F5F4F220F331F09
:1052D000441FAA1FA9F335D00E2E3AF0E0E832D0D1
:1052E00091505040E695001CCAF72BD0FE2F29D0D4
:1052F000660F771F881FBB1F261737074807AB07A6
:10530000B0E809F0BB0B802DBF01FF2793585F4F1A
:105310003AF09E3F510578F00C9469280C94B4281B
:105320005F3FE4F3983ED4F3869577956795B795FC
:10533000F7959F5FC9F7880F911D9695879597F907
:105340000895E1E0660F771F881FBB1F6217730780
:105350008407BA0720F0621B730B840BBA0BEE1F95
:1053600088F7E09508950E94BA296894B1110C94C9
:10537000B42808950E94992888F09F5798F0B92F73
:105380009927B751B0F0E1F0660F771F881F991F7A
:105390001AF0BA95C9F714C0B13091F00E94B32841
:1053A000B1E008950C94B328672F782F8827B85F51
:1053B00039F0B93FCCF3869577956795B395D9F7D2
:1053C0003EF490958095709561957F4F8F4F9F4FDC
:1053D00008950E94D52708F48FEF089597FB072EB4
:1053E00016F4009407D077FD09D00E94292A07FC03
:1053F00005D03EF4909581959F4F089570956195E5
:105400007F4F0895052E97FB1EF400940E94192AE1
:1054100057FD07D00E943D2A07FC03D04EF40C94A0
:10542000192A50954095309521953F4F4F4F5F4F2A
:10543000089590958095709561957F4F8F4F9F4F00
:105440000895EE0FFF1F881F8BBF0790F691E02D88
:105450001994AA1BBB1B51E107C0AA1FBB1FA617AB
:10546000B70710F0A61BB70B881F991F5A95A9F70D
:1054700080959095BC01CD010895A1E21A2EAA1B3A
:10548000BB1BFD010DC0AA1FBB1FEE1FFF1FA217F4
:10549000B307E407F50720F0A21BB30BE40BF50BF1
:1054A000661F771F881F991F1A9469F7609570957A
:1054B000809590959B01AC01BD01CF0108950F939C
:1054C0001F93CF93DF938230910510F482E090E038
:1054D000E0910C09F0910D0930E020E0B0E0A0E08F
:1054E000309799F42115310509F44AC0281B390B6E
:1054F00024303105D8F58A819B816115710589F1C8
:10550000FB0193838283FE0111C04081518102819E
:10551000138148175907E0F04817590799F4109775
:1055200061F012960C93129713961C933296CF014A
:10553000DF91CF911F910F91089500930C09109363
:105540000D09F4CF2115310551F04217530738F0FA
:10555000A901DB019A01BD01DF01F801C1CFEF0113
:10556000F9CF90930D0980930C09CDCFFE01E20F86
:10557000F31F819391932250310939832883D7CF28
:1055800020910A0930910B09232B41F42091160236
:105590003091170230930B0920930A0920911402CD
:1055A000309115022115310541F42DB73EB74091D8
:1055B000180250911902241B350BE0910A09F09151
:1055C0000B09E217F307A0F42E1B3F0B281739072E
:1055D00078F0AC014E5F5F4F2417350748F04E0F4F
:1055E0005F1F50930B0940930A09819391939FCFBA
:1055F000F0E0E0E09CCFCF93DF930097E9F0FC016F
:10560000329713821282A0910C09B0910D09ED011D
:1056100030E020E01097A1F420813181820F931FA8
:1056200020910A0930910B092817390709F061C048
:10563000F0930B09E0930A09DF91CF910895EA01F5
:10564000CE17DF07E8F54A815B819E0141155105C0
:10565000B1F7E901FB83EA8349915991C40FD51F42
:10566000EC17FD0761F4808191810296840F951FEC
:10567000E90199838883828193819B838A83F0E007
:10568000E0E012968D919C9113970097B9F52D91BA
:105690003C911197CD010296820F931F20910A0928
:1056A00030910B092817390739F6309751F51092C8
:1056B0000D0910920C09B0930B09A0930A09BCCFF5
:1056C000D383C28340815181840F951FC817D907A6
:1056D00061F44E5F5F4F88819981480F591F518354
:1056E00040838A819B81938382832115310509F050
:1056F000B0CFF0930D09E0930C099ECFFD01DC01C2
:10570000C0CF13821282D7CF4F925F926F927F9257
:105710008F929F92AF92BF92CF92DF92EF92FF92C1
:105720000F931F93CF93DF938C01009799F4CB01D4
:10573000DF91CF911F910F91FF90EF90DF90CF906D
:10574000BF90AF909F908F907F906F905F904F90A1
:105750000C945F2AFC01E60FF71F9C0122503109CF
:10576000E217F30708F4AEC0D901CD91DC9111978F
:10577000C617D70720F1C530D10578F0CE010497C0
:105780008617970750F0C61BD70B2297C193D1936A
:105790006D937C93CF010E94FB2AC801DF91CF91CA
:1057A0001F910F91FF90EF90DF90CF90BF90AF903F
:1057B0009F908F907F906F905F904F9008955B01C6
:1057C000AC1ABD0A4C018C0E9D1EA0910C09B09123
:1057D0000D09512C412CF12CE12C109731F58091C1
:1057E0000A0990910B098815990509F05CC04616C5
:1057F000570608F058C08091140290911502009746
:1058000041F48DB79EB74091180250911902841B44
:10581000950BE817F90708F055C0F0930B09E093D2
:105820000A09F90171836083B8CF8D919C9111971A
:1058300012966C90129713967C901397A815B90541
:1058400059F56C0142E0C40ED11CCA14DB0420F1EE
:10585000AC014A195B09DA011296159780F0628251
:10586000738251834083D9016D937C93E114F104D9
:1058700071F0D7011396FC93EE9312978ECF229678
:105880008C0F9D1FF90191838083F301EFCFF0937B
:105890000D09E0930C0981CF4816590608F42C0134
:1058A0007D01D3019ACFCB010E945F2A7C01009732
:1058B00049F0AE01B8010E94652CC8010E94FB2A84
:1058C00087016BCF10E000E068CFFB01DC0102C074
:1058D00001900D9241505040D8F70895FB01DC0132
:1058E00001900D920020E1F70895FB01DC01415089
:1058F000504030F08D910190801919F40020B9F7D3
:10590000881B990B08950F931F93CF93DF93CDB707
:10591000DEB72E970FB6F894DEBF0FBECDBF0E894F
:105920001F8986E08C831A8309838FEF9FE79E830C
:105930008D83AE01465E5F4F688D798DCE010196F5
:105940000E94B32C2F813885020F131FF80110829B
:105950002E960FB6F894DEBF0FBECDBFDF91CF916C
:105960001F910F9108952F923F924F925F926F92E5
:105970007F928F929F92AF92BF92CF92DF92EF92DF
:10598000FF920F931F93CF93DF9300D000D000D0EE
:105990001F921F92CDB7DEB77C013B018A01FC014B
:1059A00017821682838181FFDDC1CE0101965C01E1
:1059B000F7019381F30193FD859193FF81913F015D
:1059C000882309F453C1853239F493FD859193FFFF
:1059D00081913F01853229F4B70190E00E94CB2EDE
:1059E000E7CF912C212C312CFFE1F31538F08B32CD
:1059F00011F190F4803209F1833229F137FC3CC077
:105A000020ED280F2A3050F536FE20C08AE0989EFF
:105A1000200D1124922E06C08D3291F0803371F743
:105A2000689430F8F30193FD859193FF81913F01D4
:105A30008111DACF21C0689431F8689432F8F2CF3E
:105A4000689433F8EFCF689434F8ECCFEAE02E9EF8
:105A5000200D1124222E689435F8E4CF8E3229F4DB
:105A600036FC04C1689436F8DDCF8C3619F468949E
:105A700037F8D8CF8836B1F2982F9F7D9554933060
:105A8000E0F08336A1F18337C1F1833509F063C0BB
:105A90002801F2E04F0E511CF801C080D180692D21
:105AA00070E036FC02C06FEF7FEFC6010E94B52E9A
:105AB0004C01689437F882010AC00C5F1F4FFFE366
:105AC000F98388248394912C6501E89437F833FE98
:105AD0002DC0522C8114910471F5552009F468CF22
