:100000000C94B5050C941C160C94F5150C94DD0598
:100010000C94DD050C94DD050C94DD050C94DD05D8
:100020000C94DD050C94DD050C94DD050C94DD05C8
:100030000C94DD050C94DD050C94DD050C94DD05B8
:100040000C94AB150C94DD050C9479150C94531598
:100050000C94DD050C94DD050C94DD050C94DD0598
:100060000C94DD050C94DD054E414E494E49545922
:10007000494E46CDCCCC3D0AD7233C17B7D1387773
:10008000CC2B329595E6241FB14F0A000020410089
:1000900000C84200401C4620BCBE4CCA1B0E5AAED3
:1000A000C59D7400000000240027002A0000000005
:1000B00000250028002B0000000000230026002956
:1000C0000004040404040404040202020202020301
:1000D000030303030301020408102040800102040B
:1000E000081020010204081020000000080002018E
:1000F000000003040700000000000000006C616DB8
:10010000696E61722F423733382F6175746F706971
:100110006C6F742F646973636F6E6E6563745F7464
:100120006F67676C65006C616D696E61722F423735
:1001300033382F6175746F70696C6F742F646973D5
:10014000636F6E6E6563745F746F67676C65006C78
:10015000616D696E61722F423733382F6175746F2C
:1001600070696C6F742F6175746F7468726F7474DA
:100170006C655F61726D5F746F67676C65006C6161
:100180006D696E61722F423733382F6175746F70ED
:10019000696C6F742F6175746F7468726F74746CAE
:1001A000655F61726D5F746F67676C65006C616D30
:1001B000696E61722F423733382F6175746F7069C1
:1001C0006C6F742F666C696768745F6469726563CD
:1001D000746F725F746F67676C65006C616D696ED8
:1001E00061722F423733382F6175746F70696C6F8D
:1001F000742F666C696768745F6469726563746F95
:10020000725F746F67676C65006C616D696E6172B7
:100210002F423733382F6175746F70696C6F742F8C
:10022000666C696768745F6469726563746F725F36
:10023000666F5F746F67676C65006C616D696E6196
:10024000722F423733382F6175746F70696C6F7419
:100250002F666C696768745F6469726563746F7236
:100260005F666F5F746F67676C65006C616D696E68
:1002700061722F423733382F6175746F70696C6FFC
:10028000742F636F757273655F70696C6F745F64F0
:100290006E006C616D696E61722F423733382F6169
:1002A00075746F70696C6F742F636F757273655FAF
:1002B00070696C6F745F75700073696D2F61757410
:1002C0006F70696C6F742F766572746963616C5FAF
:1002D00073706565645F646F776E0073696D2F611D
:1002E00075746F70696C6F742F7665727469636171
:1002F0006C5F73706565645F7570006C616D696ECD
:1003000061722F423733382F6175746F70696C6F6B
:10031000742F616C7469747564655F646E006C61E0
:100320006D696E61722F423733382F6175746F704B
:10033000696C6F742F616C7469747564655F757036
:10034000006C616D696E61722F423733382F6175B1
:10035000746F70696C6F742F68656164696E675F34
:10036000646E006C616D696E61722F423733382F95
:100370006175746F70696C6F742F68656164696E04
:10038000675F75700073696D2F6175746F70696C4C
:100390006F742F61697273706565645F646F776EE7
:1003A0000073696D2F6175746F70696C6F742F6164
:1003B000697273706565645F7570006C616D696EFC
:1003C00061722F423733382F6175746F70696C6FAB
:1003D000742F636F757273655F636F70696C6F7490
:1003E0005F646E006C616D696E61722F42373338E5
:1003F0002F6175746F70696C6F742F636F75727392
:10040000655F636F70696C6F745F7570006C616DB0
:10041000696E61722F423733382F6175746F70695E
:100420006C6F742F7676695F6469616C5F73686F57
:1004300077006C616D696E61722F423733382F61BE
:1004400075746F70696C6F742F636F757273655F0D
:10045000636F70696C6F74006C616D696E61722F8F
:10046000423733382F6175746F70696C6F742F6108
:10047000705F7676695F706F73006C616D696E6135
:10048000722F423733382F6175746F70696C6F74D7
:100490002F6D63705F616C745F6469616C00736978
:1004A0006D2F636F636B7069742F6175746F706902
:1004B0006C6F742F61697273706565645F69735FD7
:1004C0006D616368006C616D696E61722F423733D4
:1004D000382F6175746F70696C6F742F6D63705F06
:1004E0006864675F6469616C006C616D696E6172FC
:1004F0002F423733382F6175746F70696C6F742FAA
:1005000073686F775F696173006C616D696E6172AA
:100510002F423733382F6175746F70696C6F742F89
:100520006D63705F73706565645F6469616C5F6B58
:1005300074735F6D616368006C616D696E61722FC9
:10054000423733382F6175746F70696C6F742F6325
:100550006F757273655F70696C6F74006C616D6943
:100560006E61722F423733382F6175746F70696C0A
:100570006F742F646973636F6E6E6563745F746FFD
:1005800067676C65006C616D696E61722F4237330D
:10059000382F6175746F70696C6F742F6469736341
:1005A0006F6E6E6563745F706F73006C616D696E02
:1005B00061722F423733382F7377697463686573BC
:1005C0002F6175746F70696C6F742F61745F6172E5
:1005D0006D006C616D696E61722F423733382F7315
:1005E000776974636865732F6175746F70696C6F78
:1005F000742F66645F666F006C616D696E61722F47
:10060000423733382F73776974636865732F617568
:10061000746F70696C6F742F66645F6361006C61E6
:100620006D696E61722F423733382F6175746F7048
:10063000696C6F742F6368616E67655F6F76657252
:100640005F7072657373006C616D696E61722F42C9
:100650003733382F6175746F70696C6F742F616CEC
:10066000745F696E74657276006C616D696E61723B
:100670002F423733382F6175746F70696C6F742F28
:100680007370645F696E74657276006C616D696E1B
:1006900061722F423733382F6175746F70696C6FD8
:1006A000742F6377735F625F7072657373006C6140
:1006B0006D696E61722F423733382F6175746F70B8
:1006C000696C6F742F6377735F615F7072657373AA
:1006D000006C616D696E61722F423733382F61751E
:1006E000746F70696C6F742F636D645F625F70729A
:1006F000657373006C616D696E61722F42373338B8
:100700002F6175746F70696C6F742F636D645F61B6
:100710005F7072657373006C616D696E61722F42F8
:100720003733382F6175746F70696C6F742F7673FF
:100730005F7072657373006C616D696E61722F42D8
:100740003733382F6175746F70696C6F742F616CFB
:10075000745F686C645F7072657373006C616D695F
:100760006E61722F423733382F6175746F70696C08
:100770006F742F6170705F7072657373006C616D60
:10078000696E61722F423733382F6175746F7069EB
:100790006C6F742F766F726C6F635F7072657373BA
:1007A000006C616D696E61722F423733382F61754D
:1007B000746F70696C6F742F6C6E61765F707265A8
:1007C0007373006C616D696E61722F423733382F1D
:1007D0006175746F70696C6F742F6864675F73659F
:1007E0006C5F7072657373006C616D696E61722FFE
:1007F000423733382F6175746F70696C6F742F6C6A
:10080000766C5F6368675F7072657373006C616DAF
:10081000696E61722F423733382F6175746F70695A
:100820006C6F742F766E61765F7072657373006C97
:10083000616D696E61722F423733382F6175746F45
:1008400070696C6F742F73706565645F7072657327
:1008500073006C616D696E61722F423733382F619E
:1008600075746F70696C6F742F6E315F7072657321
:1008700073006C616D696E61722F423733382F617E
:1008800075746F70696C6F742F6D61737465725FCE
:10089000666F5F737461747573006C616D696E610E
:1008A000722F423733382F6175746F70696C6F74B3
:1008B0002F6D61737465725F636170745F737461CF
:1008C000747573006C616D696E61722F42373338D5
:1008D0002F6175746F70696C6F742F6175746F74AC
:1008E00068726F74746C655F737461747573006C97
:1008F000616D696E61722F423733382F6175746F85
:1009000070696C6F742F6377735F625F7374617467
:100910007573006C616D696E61722F423733382FC9
:100920006175746F70696C6F742F6377735F615F4B
:10093000737461747573006C616D696E61722F42BE
:100940003733382F6175746F70696C6F742F636DF6
:10095000645F625F737461747573006C616D696E5E
:1009600061722F423733382F6175746F70696C6F05
:10097000742F636D645F615F737461747573006C71
:10098000616D696E61722F423733382F6175746FF4
:1009900070696C6F742F76735F7374617475730014
:1009A0006C616D696E61722F423733382F617574D7
:1009B0006F70696C6F742F616C745F686C645F73C7
:1009C0007461747573006C616D696E61722F42376A
:1009D00033382F6175746F70696C6F742F6864673A
:1009E0005F73656C5F737461747573006C616D69BE
:1009F0006E61722F423733382F6175746F70696C76
:100A00006F742F6170705F737461747573006C61C3
:100A10006D696E61722F423733382F6175746F7054
:100A2000696C6F742F766F726C6F635F737461742F
:100A30007573006C616D696E61722F423733382FA8
:100A40006175746F70696C6F742F6C6E61765F7313
:100A50007461747573006C616D696E61722F4237D9
:100A600033382F6175746F70696C6F742F766E6197
:100A7000765F73746174757331006C616D696E615A
:100A8000722F423733382F6175746F70696C6F74D1
:100A90002F6C766C5F6368675F7374617475730045
:100AA0006C616D696E61722F423733382F617574D6
:100AB0006F70696C6F742F73706565645F737461B8
:100AC00074757331006C616D696E61722F423733DA
:100AD000382F6175746F70696C6F742F6E315F732E
:100AE0007461747573007E306D79335B5F707F7BEA
:100AF000771F0D3D4F470000000000000000000080
:100B000000000000000000000000000000000000E5
:100B10000000800180007E306D79335B5F707F7BE9
:100B200000000000000000771F0D3D4F4700370018
:100B300000000E0000006700000000000000000040
:100B400000000000000800771F0D3D4F47003700F0
:100B500000000E00151D67000000000000000000EE
:100B60000000000000005B16112211241FBECFEF11
:100B7000D8E0DEBFCDBF27E0A4EDB1E001C01D92FB
:100B8000AA3FB207E1F711E0A0E0B1E0E0E5F7E548
:100B900002C005900D92A43DB107D9F715E0C4EB52
:100BA000D5E004C02197FE010E94F426C33BD10783
:100BB000C9F70E94D5160C949B2B0C940000AF92A1
:100BC000BF92CF92DF92EF92FF920F931F93CF933A
:100BD000DF936C017B018B01040F151FEB015E019C
:100BE000AE18BF08C017D10759F06991D601ED9131
:100BF000FC910190F081E02DC6010995892B79F7D0
:100C0000C501DF91CF911F910F91FF90EF90DF9081
:100C1000CF90BF90AF900895FC01538D448D252F48
:100C200030E0842F90E0821B930B541710F0CF9686
:100C3000089501970895FC01918D828D981761F0B8
:100C4000A28DAE0FBF2FB11D5D968C91928D9F5FCF
:100C50009F73928F90E008958FEF9FEF0895FC01AE
:100C6000918D828D981731F0828DE80FF11D858D61
:100C700090E008958FEF9FEF0895FC01918D228DF4
:100C8000892F90E0805C9F4F821B91098F73992779
:100C9000089583E894E00E943D0621E0892B09F441
:100CA00020E0822F089580E090E0892B29F00E94B7
:100CB000490681110C9400000895FC01A48DA80F31
:100CC000B92FB11DA35ABF4F2C91848D90E001968E
:100CD0008F739927848FA689B7892C93A089B189AE
:100CE0008C91837080648C93938D848D981306C04F
:100CF0000288F389E02D80818F7D80830895EF92B3
:100D0000FF920F931F93CF93DF93EC0181E0888FC5
:100D10009B8D8C8D98131AC0E889F989808185FF95
:100D200015C09FB7F894EE89FF896083E889F98937
:100D300080818370806480839FBF81E090E0DF9139
:100D4000CF911F910F91FF90EF900895F62E0B8D8C
:100D500010E00F5F1F4F0F731127E02E8C8D8E1147
:100D60000CC00FB607FCFACFE889F989808185FFAE
:100D7000F5CFCE010E945D06F1CFEB8DEC0FFD2F7C
:100D8000F11DE35AFF4FF0829FB7F8940B8FEA8969
:100D9000FB8980818062CFCFCF93DF93EC01888D78
:100DA0008823B9F0AA89BB89E889F9898C9185FDE6
:100DB00003C0808186FD0DC00FB607FCF7CF8C9174
:100DC00085FFF2CF808185FFEDCFCE010E945D06C9
:100DD000E9CFDF91CF910895833081F028F48130FD
:100DE00099F08230A9F008958730A9F08830C9F0D1
:100DF0008430B1F4809180008F7D03C080918000A9
:100E00008F7780938000089584B58F7784BD08958F
:100E100084B58F7DFBCF8091B0008F778093B00039
:100E200008958091B0008F7DF9CFCF93DF93282F65
:100E300030E0F901E751FF4F8491F901EB52FF4F88
:100E4000D491F901EF53FF4FC491CC23A1F081114C
:100E50000E94EC06EC2FF0E0EE0FFF1FE954FF4F6D
:100E6000A591B491EC91ED2381E090E009F480E04C
:100E7000DF91CF91089580E090E0FACF1F93CF9358
:100E8000DF93282F30E0F901E751FF4F8491F901FA
:100E9000EB52FF4FD491F901EF53FF4FC491CC2394
:100EA000A9F0162F81110E94EC06EC2FF0E0EE0F56
:100EB000FF1FE355FF4FA591B4918FB7F894EC91C4
:100EC000111108C0D095DE23DC938FBFDF91CF9145
:100ED0001F910895DE2BF8CFCF93DF9390E0FC01B4
:100EE000EB52FF4F24918F539F4FFC018491882335
:100EF000D1F090E0880F991FFC01ED55FF4FA591AF
:100F0000B491FC01E355FF4FC591D491623071F467
:100F10009FB7F8943C91822F809583238C93E8812E
:100F20002E2B28839FBFDF91CF9108958FB7F89420
:100F3000EC912E2B2C938FBFF6CF1F93CF93DF9383
:100F4000182FEB0161E00E946C07209739F460E0F4
:100F5000812FDF91CF911F910C943E07CF3FD10598
:100F600011F461E0F5CFE12FF0E0E751FF4FE4919C
:100F7000E33031F140F4E130B1F0E230E1F0C0387B
:100F8000D1057CF7E4CFE73029F1E83059F1E430BE
:100F9000B1F780918000806280938000D0938B00B5
:100FA000C0938A0004C084B5806884BDC7BDDF914A
:100FB000CF911F91089584B5806284BDC8BDF7CFDD
:100FC00080918000806880938000D0938900C093D6
:100FD0008800EDCF8091B00080688093B000C0930E
:100FE000B300E5CF8091B00080628093B000C093E1
:100FF000B400DDCF3FB7F89480912502909126028E
:10100000A0912702B091280226B5A89B05C02F3FCA
:1010100019F00196A11DB11D3FBFBA2FA92F982F1E
:101020008827BC01CD01620F711D811D911D42E019
:10103000660F771F881F991F4A95D1F708958F92E1
:101040009F92AF92BF92CF92DF92EF92FF920E9457
:10105000FA074B015C018FE0C82ED12CE12CF12C5A
:101060000E94FA07681979098A099B09683E73404A
:1010700081059105A8F321E0C21AD108E108F10821
:1010800088EE880E83E0981EA11CB11CC114D10407
:10109000E104F10429F7FF90EF90DF90CF90BF902B
:1010A000AF909F908F9008952FB7F8946091210290
:1010B0007091220280912302909124022FBF089503
:1010C0000895DC01ED91FD918081ED91FD9190817C
:1010D000ED91FD916C9163708E2309F064609F2304
:1010E00009F06860EEE7F8E0E60FF11D659565959B
:1010F0006D936D917D918D919D91099423C01AC03E
:1011000012C016C010C01EC009C014C013C006C053
:1011100019C009C00DC007C00DC014C06250704096
:10112000804090400BC0615070408040904006C0AD
:101130006E5F01C06F5F7F4F8F4F9F4F9E938E9367
:101140007E936E9308958091D6019091D7010C946F
:1011500061088091D4019091D5010C946108CF93DE
:10116000DF93EC018B85823060F4F894CE010E940D
:1011700061086F81788589859A857894DF91CF9110
:101180000895F894F6CF4F925F926F927F928F926C
:101190009F92AF92BF92CF92DF92EF92FF920F9306
:1011A0001F93CF93DF9300D0CDB7DEB78C01498377
:1011B0002A83660F771FF801EA5AFF4FE080F1801B
:1011C000EE0CFF1CF801CF01801B910B8E159F05C3
:1011D00014F41192F8CF8981F801E60FF71F81838B
:1011E0008A818083680184E5C80ED11C60E0F60125
:1011F00080810E943E075801F2E5AF0EB11C480104
:1012000080E5880E911C1E141F040CF5E1E0EE1A17
:10121000F108F801EE0DFF1D6080F5015080F4012A
:10122000408088E0782E662D661F6627661F842D15
:101230000E943E07660C61E0852D0E943E0760E03B
:10124000852D0E943E077A947110EDCFDCCF61E0CE
:10125000F60180810F900F90DF91CF911F910F9138
:10126000FF90EF90DF90CF90BF90AF909F908F90C6
:101270007F906F905F904F900C943E078F929F925B
:10128000AF92BF92CF92DF92EF92FF920F931F9394
:10129000CF93DF938C01D62EC72EEC01C05BDF4FBE
:1012A000688379834C0182E5880E911CF401518397
:1012B00040835801F4E5AF0EB11CF5013183208362
:1012C0007801F6E5EF0EF11C81E090E0F7019183E3
:1012D000808361E08D2D0E946C0761E0F4018081C4
:1012E0000E946C0761E0F50180810E946C0761E05B
:1012F000F50180810E943E07D882C982F80170966C
:101300005F011192EC17FD07E1F7D0E0C0E0F701B3
:1013100080819181C817D9070CF043C020E04FE0CD
:10132000BE01C8010E94C308F70180819181C817DE
:10133000D90734F427E04BE0BE01C8010E94C3087E
:1013400020E049E0BE01C8010E94C308F701808186
:101350009181C817D907BCF44E0183E0880C991C11
:101360008A95E1F78A0C9B1CDD24D394F401119239
:101370004F0120E04D2DBE01C8010E94C308D39447
:10138000F9E0DF12F3CFF70180819181C817D90707
:1013900034F420E04CE0BE01C8010E94C30821964D
:1013A000B6CFDF91CF911F910F91FF90EF90DF901B
:1013B000CF90BF90AF909F908F900895FC01EA5A14
:1013C000FF4F20813181121613068CF4403178F4DE
:1013D000E42FF0E0EA51F54F2491FC01E60FF71FEE
:1013E000208B41E0460F70E060E00C94C308089544
:1013F000E42FDC01AA5ABF4F4D915C9114161506DB
:10140000B4F4E7FDE0E20E2E000CFF0BEA51F54FBD
:10141000E4912111E068DC01A60FB71F5096EC9310
:1014200041E0460F2E2F70E060E00C94C308089551
:101430008F929F92AF92BF92CF92DF92EF92FF92E4
:101440000F931F93CF93DF93C0904902D0904A022D
:10145000E0904B02F0904C0220911C0230911D0252
:1014600040911E0250911F02C701B6010E94F9234C
:10147000882309F48FC020E030E0A901C701B6013C
:101480000E94862620E030E040E05FE387FD3EC317
:10149000C701B6010E9472250E9450260E940024B6
:1014A00020E030E048EC52E40E94DE250E94502605
:1014B000162F609314027093150220E030E0A9010A
:1014C000C701B6010E94862620E030E040E05FE3DD
:1014D00087FD21C3C701B6010E9472250E945026D4
:1014E0000E94002420E030E040E251E40E94DE252A
:1014F0000E945026CB016AE070E00E948B26D82F14
:10150000809316029093170220E030E0A901C701F2
:10151000B6010E94862620E030E040E05FE387FDD0
:10152000FFC2C701B6010E9472250E9450260E9488
:1015300000240E945026CB016AE070E00E948B26B6
:10154000C82F8093180290931902412F67E070E032
:101550008BE294E00E94DE094D2F66E070E08BE2A2
:1015600094E00E94DE094C2F65E070E08BE294E08D
:101570000E94DE098091490290914A02A0914B029B
:10158000B0914C0280931C0290931D02A0931E0206
:10159000B0931F02C0904502D0904602E0904702EF
:1015A000F09048028090390290903A02A0903B025D
:1015B000B0903C0220911002309111024091120231
:1015C00050911302C701B6010E94F92381110FC087
:1015D000A501940160910C0270910D0280910E02A0
:1015E00090910F020E94F923882309F489C020E01A
:1015F00030E0A901C501B4010E94F92381119AC20A
:1016000020E030E0A901C701B6010E94862620E053
:1016100030E040E05FE387FD88C2C701B6010E9469
:1016200072250E945026072E000C880B990B0E94F1
:1016300000246B017C0120E030E048EC52E40E9481
:10164000DE250E945026162F609304027093050237
:1016500020E030E040E251E4C701B6010E94DE25FF
:101660000E9450268AE0A82EB12CCB01B5010E9421
:101670008B26D82F8093060290930702C701B601EC
:101680000E945026CB01B5010E948B26C82F809363
:10169000080290930902412F62E070E08BE294E02F
:1016A0000E94DE094D2F61E070E08BE294E00E9421
:1016B000DE094C2F70E060E08BE294E00E94DE09CE
:1016C0008091450290914602A0914702B091480254
:1016D0008093100290931102A0931202B093130210
:1016E0008091390290913A02A0913B02B0913C0264
:1016F00080930C0290930D02A0930E02B0930F0200
:10170000C0903D02D0903E02E0903F02F090400237
:101710002091000230910102409102025091030297
:10172000C701B6010E94F923882309F48FC020E085
:1017300030E0A901C701B6010E94862620E030E012
:1017400040E05FE387FD64C2C701B6010E947225D5
:101750000E9450260E94002420E030E048EC52E431
:101760000E94DE250E945026162F6093F801709388
:10177000F90120E030E0A901C701B6010E948626E8
:1017800020E030E040E05FE387FD47C2C701B601DB
:101790000E9472250E9450260E94002420E030E022
:1017A00040E251E40E94DE250E945026CB016AE00F
:1017B00070E00E948B26D82F8093FA019093FB0152
:1017C00020E030E0A901C701B6010E94862620E092
:1017D00030E040E05FE387FD25C2C701B6010E940B
:1017E00072250E9450260E9400240E945026CB01A0
:1017F0006AE070E00E948B26C82F8093FC019093D2
:10180000FD01412F67E070E083ED93E00E94DE0967
:101810004D2F66E070E083ED93E00E94DE094C2FCF
:1018200065E070E083ED93E00E94DE0980913D0267
:1018300090913E02A0913F02B0914002809300023D
:1018400090930102A0930202B0930302C09035026C
:10185000D0903602E0903702F090380220E030E07D
:10186000A901C701B6010E94F923882309F479C0B0
:1018700020E030E0A901C701B6010E94862687FD5D
:10188000D6C120E030E04AE754E4C701B6010E9427
:10189000F92387FFCCC120E030E040E05FE3C701DF
:1018A000B6010E9472250E9450260E9400246B01FE
:1018B0007C0120E030E048EC52E40E94DE250E94EA
:1018C0005026CAE0D0E0CB01BE010E948B26082F33
:1018D0008093EE019093EF0120E030E040E251E48C
:1018E000C701B6010E94DE250E945026CB01BE0131
:1018F0000E948B26182F8093F0019093F101C7016D
:10190000B6010E945026CB01BE010E948B26C82F33
:101910008093F2019093F30120E040E264E070E0F4
:1019200083ED93E00E94F80920E040E263E070E07C
:1019300083ED93E00E94F809402F62E070E083EDB0
:1019400093E00E94DE09412F61E070E083ED93E0B7
:101950000E94DE094C2F70E060E083ED93E00E946E
:10196000DE09C0903102D0903202E0903302F09054
:1019700034022091EA013091EB014091EC01509149
:10198000ED01C701B6010E94F923882309F4F1C3D0
:1019900020E030E04AE754ECC701B6010E94F92389
:1019A00018160CF41DC320E030E0A901C701B601F0
:1019B0000E94F92318160CF4F3C2A701960160E007
:1019C00070E080E09FE30E9471250E9450260E94F3
:1019D000002420E030E04AE754E40E94DE250E9423
:1019E0005026CB016AE070E00E948B26082F80937E
:1019F000E0019093E10120E030E0A901C701B601C8
:101A00000E94F92318160CF4D3C2A701960160E0D6
:101A100070E080E09FE30E9471250E9450260E94A2
:101A2000002420E030E048EC52E40E94DE250E94D1
:101A30005026CB016AE070E00E948B26182F80931D
:101A4000E2019093E30120E030E0A901C701B60173
:101A50000E94F92318160CF4B3C2A701960160E0A6
:101A600070E080E09FE30E9471250E9450260E9452
:101A7000002420E030E040E251E40E94DE250E9494
:101A80005026CB016AE070E00E948B26D82F80930D
:101A9000E4019093E50120E030E0A901C701B6011F
:101AA0000E94F92318160CF493C2A701960160E076
:101AB00070E080E09FE30E9471250E9450260E9402
:101AC00000240E945026CB016AE070E00E948B2621
:101AD000C82F8093E6019093E70120E04DE267E094
:101AE00070E08BE793E00E94F80920E0402F66E069
:101AF00070E08BE793E00E94F809412F65E070E009
:101B00008BE793E00E94DE094D2FE4C2C701B601C6
:101B10000E947125C1CCC701B6010E947125DECC9F
:101B2000C701B6010E94712500CDC701B6010E9410
:101B3000712577CD20E030E040E85FE3C501B401D6
:101B40000E94F9238111BCCD20E030E44CE156E441
:101B5000C701B6010E945F246B017C0120E030E0E8
:101B6000A9010E94862620E030E040E05FE387FD87
:101B700045C0C701B6010E9472250E9450260E94EE
:101B800000246B017C0120E030E04AE754E40E942D
:101B9000DE250E945026D62F60930602709307021E
:101BA00020E030E048EC52E4C701B6010E94DE2597
:101BB0006B017C0120E030E0A9010E94862620E034
:101BC00030E040E05FE387FD1EC0C701B6010E9420
:101BD00072250E945026CB016AE070E00E948B269D
:101BE000C82F809308029093090221E040E262E04E
:101BF00070E08BE294E00E94F80954CDC701B60171
:101C00000E947125BACFC701B6010E947125E1CFAC
:101C1000C701B6010E9471259BCDC701B6010E9484
:101C20007125B8CDC701B6010E947125DACD20E03B
:101C300030E04AE754E4C701B6010E94862687FDDA
:101C4000CCC020E030E44CE156E4C701B6010E946C
:101C5000F92387FFC2C020E030E0A901C701B60127
:101C60000E94862620E030E040E05FE387FDA1C0CF
:101C7000C701B6010E9472250E9450260E940024CE
:101C800020E030E04AE754E40E94DE250E9450261E
:101C9000CB016AE070E00E948B26082F8093EE0152
:101CA0009093EF0120E030E0A901C701B6010E9446
:101CB000862620E030E040E05FE387FD7FC0C7017B
:101CC000B6010E9472250E9450260E94002420E046
:101CD00030E048EC52E40E94DE250E945026CB0101
:101CE0006AE070E00E948B26182F8093F001909399
:101CF000F10120E030E0A901C701B6010E9486266B
:101D000020E030E040E05FE387FD5DC0C701B60141
:101D10000E9472250E9450260E94002420E030E09C
:101D200040E251E40E94DE250E945026CB016AE089
:101D300070E00E948B26D82F8093F2019093F301DC
:101D400020E030E0A901C701B6010E94862620E00C
:101D500030E040E05FE387FD3BC0C701B6010E9471
:101D600072250E9450260E9400240E945026CB011A
:101D70006AE070E00E948B26C82F8093F401909354
:101D8000F50120E040E264E070E083ED93E00E9422
:101D9000F809402F63E070E083ED93E00E94DE09D4
:101DA000412F62E070E083ED93E00E94DE094D2F49
:101DB000CBCDC701B6010E9471255ECFC701B60128
:101DC0000E94712580CFC701B6010E947125A2CF64
:101DD000C701B6010E947125C4CF20E030E44CE178
:101DE00056E4C701B6010E94862687FDBACD20E0E1
:101DF00030E0A901C701B6010E94862620E030E04C
:101E000040E05FE387FDB3C0C701B6010E947225C1
:101E10000E9450260E94002420E030E44CE156E469
:101E20000E94DE250E945026B62E6093EE0170932C
:101E3000EF0120E030E0A901C701B6010E9486262B
:101E400020E030E040E05FE387FD96C0C701B601C7
:101E50000E9472250E9450260E94002420E030E05B
:101E60004AE754E40E94DE250E945026CB016AE036
:101E700070E00E948B26082F8093F0019093F1016F
:101E800020E030E0A901C701B6010E94862620E0CB
:101E900030E040E05FE387FD74C0C701B6010E94F7
:101EA00072250E9450260E94002420E030E048EC79
:101EB00052E40E94DE250E945026CB016AE070E0C9
:101EC0000E948B26182F8093F2019093F30120E05B
:101ED00030E0A901C701B6010E94862620E030E06B
:101EE00040E05FE387FD52C0C701B6010E94722542
:101EF0000E9450260E94002420E030E040E251E49D
:101F00000E94DE250E945026CB016AE070E00E940C
:101F10008B26D82F8093F4019093F50120E030E0D8
:101F2000A901C701B6010E94862620E030E040E00A
:101F30005FE387FD30C0C701B6010E9472250E9491
:101F400050260E9400240E945026CB016AE070E0D7
:101F50000E948B26C82F8093F6019093F7014B2D9A
:101F600064E070E083ED93E00E94DE0912CFC701C8
:101F7000B6010E9471254CCFC701B6010E947125A0
:101F800069CFC701B6010E9471258BCFC701B60189
:101F90000E947125ADCFC701B6010E947125CFCF38
:101FA00020E030E040E05FE3C701B60190580BCD80
:101FB00020E030E040E05FE3C701B60190582BCD50
:101FC00020E030E040E05FE3C701B60190584BCD20
:101FD000C701B601905820E030E040E05FE36BCDF0
:101FE00020E030E048E452ECC701B6010E94F9233A
:101FF00020E04DE2882309F473C120E030E04AE795
:1020000054ECC701B6010E94862618160CF070C069
:1020100020E030E0A901C701B6010E94F92387FF43
:1020200067C0A701960160E070E080E09FE30E9436
:1020300071250E9450260E9400246B017C0120E043
:1020400030E048EC52E40E94DE250E945026CAE0AF
:10205000D0E0CB01BE010E948B26082F8093E001C7
:102060009093E10120E030E040E251E4C701B60185
:102070000E94DE250E945026CB01BE010E948B26C5
:10208000182F8093E2019093E301C701B6010E94EB
:102090005026CB01BE010E948B26C82F8093E401FD
:1020A0009093E50120E04DE267E070E08BE793E07C
:1020B0000E94F80920E040E266E070E08BE793E0E0
:1020C0000E94F809402F65E070E08BE793E00E94E2
:1020D000DE09412F64E070E08BE793E00E94DE09A7
:1020E0004C2F63E070E08BE793E00E94DE0931C083
:1020F00020E030E0A901C701B6010E94F923811157
:10210000E3C020E040E267E070E08BE793E00E94EC
:10211000F80920E040E266E070E08BE793E00E947F
:10212000F80920E040E265E070E08BE793E00E9470
:10213000F80920E040E264E070E08BE793E00E9461
:10214000F80920E040E263E070E08BE793E00E9452
:10215000F8098091310290913202A0913302B0913E
:1021600034028093EA019093EB01A093EC01B093C9
:10217000ED01C0902D02D0902E02E0902F02F09041
:10218000300220E030E0A901C701B6010E94F92326
:10219000882309F48CC020E030E0A901C701B60112
:1021A0000E94862620E030E040E05FE387FDD5C155
:1021B000C701B6010E9472250E9450260E94002489
:1021C00020E030E048EC52E40E94DE250E945026D8
:1021D000CB016AE070E00E948B26D82F8093D80153
:1021E0009093D90120E030E0A901C701B6010E9417
:1021F000862620E030E040E05FE387FDB3C1C70101
:10220000B6010E9472250E9450260E94002420E000
:1022100030E040E251E40E94DE250E945026CB01CE
:102220006AE070E00E948B26C82F8093DA019093B9
:10223000DB0120E030E0A901C701B6010E9486263B
:1022400020E030E040E05FE387FD91C1C701B601C7
:102250000E9472250E9450260E9400240E9450264F
:10226000CB016AE070E00E948B26F82E8093DC019F
:102270009093DD014D2F62E070E08BE793E00E94C8
:10228000DE094C2F61E070E08BE793E00E94DE09ED
:102290004F2D70E060E08BE793E00E94DE09109222
:1022A0002D0210922E0210922F0210923002DF9116
:1022B000CF911F910F91FF90EF90DF90CF90BF9043
:1022C000AF909F908F90089520E030E048E452E472
:1022D000C701B6010E94F923811123C020E040E22A
:1022E00067E070E08BE793E00E94F80920E040E2AD
:1022F00066E070E08BE793E00E94F80920E040E29E
:1023000065E070E08BE793E00E94F80920E045E08B
:1023100064E070E08BE793E00E94F80920E040E081
:1023200012CF20E030E0A901C701B6010E94862645
:1023300020E030E04AE754E418160CF04AC0C70128
:10234000B6010E94F92387FF17C120E030E040E08A
:102350005FE3C701B6010E9472250E9450260E94C9
:1023600000246B017C0120E030E048EC52E40E9444
:10237000DE250E945026CAE0D0E0CB01BE010E94BB
:102380008B26082F8093E0019093E10120E030E05C
:1023900040E251E4C701B6010E94DE250E945026AA
:1023A000CB01BE010E948B26182F8093E2019093EF
:1023B000E301C701B6010E945026CB01BE010E9475
:1023C0008B26C82F8093E4019093E50120E040E242
:1023D0006BCEC701B6010E94862687FDBACE20E0EB
:1023E00030E0A901C701B6010E94862687FD9DC085
:1023F00020E030E040E05FE3C701B6010E947225B3
:102400000E9450260E94002420E030E04AE754E475
:102410000E94DE250E945026CB016AE070E00E94F7
:102420008B26082F8093E0019093E10120E030E0BB
:10243000A901C701B6010E94862620E030E040E0F5
:102440005FE387FD7BC0C701B6010E9472250E9431
:1024500050260E94002420E030E048EC52E40E9424
:10246000DE250E945026CB016AE070E00E948B2698
:10247000182F8093E2019093E30120E030E0A9015E
:10248000C701B6010E94862620E030E040E05FE30D
:1024900087FD59C0C701B6010E9472250E945026CF
:1024A0000E94002420E030E040E251E40E94DE255A
:1024B0000E945026CB016AE070E00E948B26D82F44
:1024C0008093E4019093E50120E030E0A901C70189
:1024D000B6010E94862620E030E040E05FE387FD01
:1024E00037C0C701B6010E9472250E9450260E9483
:1024F00000240E945026CB016AE070E00E948B26E7
:10250000C82F8093E6019093E70120E040E267E066
:1025100070E08BE793E00E94F809402F66E070E0DE
:102520008BE793E00E94DE09E8CA20E030E040E05B
:102530005FE3C701B6010E94712562CFC701B601F2
:102540000E94712584CFC701B6010E947125A6CFD4
:10255000C701B6010E947125C8CFC701B6010E940C
:1025600071252ACEC701B6010E9471254CCEC70144
:10257000B6010E9471256ECE20E030E04AE754E4B7
:10258000C701B6010E94862687FF32CFE2CDFC014B
:10259000EA5AFF4F20813181121613064CF4603144
:1025A000710530F4262F4AE070E060E00C94C30817
:1025B000089580E008950F931F93CF93DF93EC016C
:1025C000062F142F62E0802F0E946C0762E0812F9B
:1025D0000E946C07802F90E0FC01EF53FF4FE491C5
:1025E000F0E0EE0FFF1FE954FF4FA591B491B983BE
:1025F000A883FC01EB52FF4F24912C83812F90E0A4
:10260000FC01EF53FF4FE491F0E0EE0FFF1FE954A0
:10261000FF4F459154915B834A83FC01EB52FF4F7E
:10262000E491ED831F82188619861A868BE39FE159
:102630000197F1F78C91282391E009F490E0DA01F9
:102640008C91E82309F092609E83BE01802F0E9446
:10265000D912082FBE01812F0E94D912800F8B87BB
:10266000DF91CF911F910F910895FB010190002000
:10267000E9F73197AF01461B570BDC01ED91FC9157
:102680000280F381E02D09946AEB75E080912005CA
:10269000909121050E943513EAEBF5E001900020AE
:1026A000E9F7EB5FF54041F46EE171E080912005C0
:1026B000909121050C9435130895CF93DF93EC018D
:1026C000198218821B821A821D821C8261E070E0CE
:1026D00090E080E00E941F280097A1F099838883F2
:1026E0001B821A822C813D81232B11F4FC01108264
:1026F0001D821C826FE171E088819981DF91CF9109
:102700000C94E52888819981009711F00E94962702
:10271000198218821D821C821B821A82DF91CF913E
:102720000895880F991FFC01EA5DF84F0190F08130
:10273000E02D309749F18081918197FD22C01F9251
:102740002EE32F931F9221E02F939F938F931F923D
:102750008BE68F931F928CE38F9380E291E09F939F
:102760008F938AEB95E09F938F930E94FA280E94A3
:1027700044138DB79EB70E960FB6F8949EBF0FBE4A
:102780008DBF90E080E008958FEF9FEF0895FC01EA
:1027900086819781208531858217930761F0918723
:1027A00080872817390724F4828193810C94911330
:1027B00084819581FBCF089577FD1EC01F922EE383
:1027C0002F937F936F939F938F931F928CE38F939D
:1027D0008EE291E09F938F938AEB95E09F938F9386
:1027E0000E94FA288DB79EB70C960FB6F8949EBF3C
:1027F0000FBE8DBF0C94441308950F931F93CF9376
:10280000DF93C091F007D091F107C436D1056CF584
:102810008C0180E190E00E94FA26FC01DE01AA0F03
:10282000BB1FAA5DB84FED93FC93158304831382FD
:1028300012821386128681E090E0958784878FEF5D
:102840009FEF9183808397878687CE01019690932F
:10285000F1078093F0071092F3071092F207CE0170
:10286000DF91CF911F910F910895CFEFDFEFF7CF59
:102870004F925F926F927F928F929F92AF92BF9290
:10288000CF92DF92EF92FF920F931F93CF93DF933C
:10289000C091EE07D091EF07C436D1050CF04FC0C0
:1028A0004701280139017A016B015C0184E290E063
:1028B0000E94FA26FC01DE01AA0FBB1FA25AB94FE3
:1028C000ED93FC93B78AA68A158A148AD382C282B2
:1028D0004682578260867186A70170E060E0448777
:1028E00055876687778781E090E095838483918E12
:1028F000808E128E138E148E158E13A212A28FEF5D
:102900009FEF91838083CE0101969093EF07809390
:10291000EE071092F3071092F207CE01DF91CF91EC
:102920001F910F91FF90EF90DF90CF90BF90AF90ED
:102930009F908F907F906F905F904F900895CFEF12
:10294000DFEFEBCFEF92FF920F931F93CF93DF93C5
:10295000C091EE07D091EF07C436D1050CF048C006
:102960008B017C0184E290E00E94FA26FC01DE01EA
:10297000AA0FBB1FA25AB94FED93FC93F78AE68AC0
:10298000158A148A81E090E09383828382E090E04C
:1029900095838483118F008F80E090E0A0E8BFEBE7
:1029A000868F978FA0A3B1A384E690E0A0E0B0E06B
:1029B00084879587A687B787168217821086118627
:1029C00013A212A28FEF9FEF91838083CE01019615
:1029D0009093EF078093EE071092F3071092F2079F
:1029E000CE01DF91CF911F910F91FF90EF9008954D
:1029F000CFEFDFEFF5CFEF92FF920F931F93CF93BF
:102A0000DF93C091F007D091F107C436D105C4F52A
:102A1000072F162F7C0180E190E00E94FA26FC012E
:102A2000CC0FDD1FCA5DD84FF983E883F582E482BD
:102A3000138212821386128681E090E09587848744
:102A40008FEF9FEF918380831687078762E0812F46
:102A50000E946C078091F0079091F1079C012F5F15
:102A60003F4F3093F1072093F0071092F307109235
:102A7000F207DF91CF911F910F91FF90EF90089592
:102A80008FEF9FEFF6CF1F93CF93DF93C0E2D5E098
:102A90001F811F8284E295E00E9426221F83DF911E
:102AA000CF911F9108951F920F920FB60F9211248C
:102AB0002F933F934F935F936F937F938F939F9346
:102AC000AF93BF93EF93FF9383E894E00E945D067A
:102AD000FF91EF91BF91AF919F918F917F916F91F6
:102AE0005F914F913F912F910F900FBE0F901F90CC
:102AF00018951F920F920FB60F9211242F938F9358
:102B00009F93EF93FF93E0919304F091940480815D
:102B1000E0919904F0919A0482FD1BC0908180910C
:102B20009C048F5F8F7320919D04821741F0E09188
:102B30009C04F0E0ED57FB4F958F80939C04FF9130
:102B4000EF919F918F912F910F900FBE0F901F903B
:102B500018958081F4CF1F920F920FB60F92112417
:102B60002F933F938F939F93AF93BF9380912102B5
:102B700090912202A0912302B09124023091200270
:102B800023E0230F2D3758F50196A11DB11D209389
:102B900020028093210290932202A0932302B093FB
:102BA00024028091250290912602A0912702B091E3
:102BB00028020196A11DB11D809325029093260243
:102BC000A0932702B0932802BF91AF919F918F915C
:102BD0003F912F910F900FBE0F901F90189526E8F0
:102BE000230F0296A11DB11DD2CF1F920F920FB6D7
:102BF0000F9211242F933F934F935F936F937F9383
:102C00008F939F93AF93BF93EF93FF93E091020154
:102C1000F09103010995FF91EF91BF91AF919F91C1
:102C20008F917F916F915F914F913F912F910F9075
:102C30000FBE0F901F9018951F920F920FB60F9214
:102C400011242F933F934F935F936F937F938F93B1
:102C50009F93AF93BF93EF93FF93E0910001F091A7
:102C600001010995FF91EF91BF91AF919F918F91D4
:102C70007F916F915F914F913F912F910F900FBE78
:102C80000F901F901895FB0105900020E9F76095C3
:102C900070956E0F7F1FCB010895FA01DC01215062
:102CA000304030F08D910590801919F40020B9F76B
:102CB000881B990B0895E3E8F4E01382128280E107
:102CC00091E09183808385EC90E09587848784EC04
:102CD00090E09787868780EC90E0918B808B81ECE9
:102CE00090E0938B828B82EC90E0958B848B86ECCA
:102CF00090E0978B868B118E128E138E148EF0932C
:102D00002105E093200584EF91E0A0E0B0E084830A
:102D10009583A683B7832FE230E040E350E06EE274
:102D200070E08BE294E00E943E0924E230E043E24E
:102D300050E062E270E083ED93E00E943E092EE1F4
:102D400030E04CE150E06FE170E08BE793E00E94EF
:102D50003E0944E365E38FE693E00E94DB1245E21F
:102D600067E283E693E00E94DB1240E261E287E5DE
:102D700093E00E94DB124EE06FE08BE493E00E9450
:102D8000DB124DE06CE08FE393E00E94DB124AE13E
:102D90006DE183E393E00E94DB128DE293E00E94F9
:102DA0005D1387E293E00C945D13789484B58260A0
:102DB00084BD84B5816084BD85B5826085BD85B5DF
:102DC000816085BD80916E00816080936E0010925D
:102DD00081008091810082608093810080918100D8
:102DE0008160809381008091800081608093800069
:102DF0008091B10084608093B1008091B0008160C7
:102E00008093B00080917A00846080937A008091F2
:102E10007A00826080937A0080917A00816080934A
:102E20007A0080917A00806880937A001092C100C5
:102E3000F89410923A0310923B0310923C031092C4
:102E40003D037894F89410926A0310926B031092E9
:102E50006C0310926D037894F89410925E031092B4
:102E60005F0310926003109261037894F8941092BB
:102E70005203109253031092540310925503789406
:102E8000F894109246031092470310924803109250
:102E900049037894F8941092760310927703109275
:102EA000780310927903789462E0809177020E940F
:102EB0006C07CFEFDFEFD0938002C0937F0262E018
:102EC000809169020E946C07D0937202C0937102D4
:102ED00062E080915B020E946C07D0936402C09311
:102EE000630262E080914D020E946C07D09356020B
:102EF000C09355028091810490918204181619069E
:102F000044F421E04CE070E060E08BE294E00E9449
:102F1000C308C0910401D0910501BE018BE294E089
:102F20000E94C7128091290490912A04181619064C
:102F300044F421E04CE070E060E083ED93E00E9417
:102F4000C308BE0183ED93E00E94C7128091D103B4
:102F50009091D2031816190644F421E04CE070E079
:102F600060E08BE793E00E94C308BE018BE793E02B
:102F70000E94C7120E94180A62E082E30E946C0756
:102F800062E08EE30E946C0762E081E30E946C07BE
:102F900062E08AE20E946C0762E080E40E946C07B3
:102FA00062E08BE30E946C0762E08CE30E946C0796
:102FB00062E08BE20E946C0762E083E30E946C0790
:102FC00062E087E30E946C0762E08AE30E946C077C
:102FD00062E085E40E946C0762E084E10E946C0775
:102FE00062E087E00E946C0762E086E10E946C0765
:102FF00062E083E00E946C0762E084E00E946C075C
:1030000062E08BE00E946C0762E089E00E946C073E
:1030100062E089E10E946C0762E08BE10E946C072C
:1030200061E082E00E946C0770E060E082E00E9454
:103030009D07E0919304F091940482E08083E091F5
:103040008F04F09190041082E0919104F091920429
:1030500080E1808310929B04E0919704F0919804A2
:1030600086E08083E0919504F091960480818061F0
:103070008083E0919504F09196048081886080833C
:10308000E0919504F0919604808180688083E091BE
:103090009504F091960480818F7D80838AE391E08E
:1030A00090935D0680935C06109253061092520630
:1030B0001092EF071092EE071092F1071092F007AE
:1030C0001092F3071092F2071092220505ECE02E01
:1030D00002E0F02E00E010E098014AE050E061E0EC
:1030E00070E085EC9AE00E94381481ECE82E82E0D2
:1030F000F82E00E010E098014AE050E061E070E056
:1031000080EA9AE00E9438149DEBE92E92E0F92EB5
:1031100000E010E098014AE050E061E070E08AE7EA
:103120009AE00E94381429EBE22E22E0F22E00E011
:1031300010E098014AE050E061E070E086E59AE036
:103140000E94381435EBE32E32E0F32E00E010E05D
:1031500098014AE050E061E070E083E39AE00E9469
:10316000381441EBE42E42E0F42E00E010E0980128
:103170004AE050E061E070E08EE09AE00E9438148E
:103180005DEAE52E52E0F52E00E010E098014AE0FD
:1031900050E061E070E08CEE99E00E94381469EA3A
:1031A000E62E62E0F62E00E010E098014AE050E0E2
:1031B00061E070E086EC99E00E94381475EAE72E31
:1031C00072E0F72E00E010E098014AE050E061E084
:1031D00070E080EA99E00E943814E1EAEE2EE2E025
:1031E000FE2E00E010E098014AE050E061E070E05F
:1031F0008FE799E00E943814FDE9EF2EF2E0FF2EF0
:1032000000E010E098014AE050E061E070E08BE5FA
:1032100099E00E943814A9E9EA2EA2E0FA2E00E013
:1032200010E098014AE050E061E070E087E399E047
:103230000E943814B5E9EB2EB2E0FB2E00E010E05E
:1032400098014AE050E061E070E083E199E00E947B
:103250003814C1E9EC2EC2E0FC2E00E010E0980129
:103260004AE050E061E070E08FEE98E00E94381490
:10327000DDE8ED2ED2E0FD2E00E010E098014AE0FE
:1032800050E061E070E084EC98E00E94381419E8A6
:10329000E12E12E0F12E00E010E098014AE050E04B
:1032A00061E070E08AE998E00E94381405E8E02EB9
:1032B00002E0F02E00E010E098014AE050E061E00A
:1032C00070E082E798E00E94381461E370E082E5E4
:1032D00098E00E94FB146AE270E08FE298E00E949E
:1032E000FB146CE370E08DE098E00E94FB146BE24D
:1032F00070E088EE97E00E94FB1463E370E083ECDB
:1033000097E00E94FB1467E370E081EA97E00E9477
:10331000FB146AE370E08DE797E00E94FB1465E41C
:1033200070E08CE597E00E94FB1464E170E087E3B5
:1033300097E00E94FB1466E170E087E197E00E944D
:10334000FB1463E070E084EF96E00E94FB1464E0FD
:1033500070E081ED96E00E94FB146BE070E08EEA75
:1033600096E00E94FB1469E070E08BE896E00E9412
:10337000FB146BE370E089E696E00E94FB1467E0C3
:1033800070E087E496E00E94FB1460E470E08EE158
:1033900096E00E94FB1483EDE82E82E0F82E00E018
:1033A00010E028EC32E450E040E062E070E088EFAA
:1033B00095E00E9438149FECE92E92E0F92E00E08F
:1033C00010E028EC32E450E040E062E070E082ED92
:1033D00095E00E94381427EDE22E22E0F22E00E064
:1033E00010E028EC32E450E040E062E070E08BEA6C
:1033F00095E00E9438143BECE32E32E0F32E00E01F
:1034000010E028EC32E450E040E061E070E085E854
:1034100095E00E9438148CE595E00E94FD1390938E
:10342000CA028093C902C091EE07D091EF07C4365B
:10343000D105ECF584E290E00E94FA26FC01DE0161
:10344000AA0FBB1FA25AB94F8D939C93178A168A55
:1034500087E491E0958B848B81E090E09383828375
:1034600082E090E0958384838DE193E0918F808F5B
:10347000168E178E10A211A28AE090E0A0E0B0E0B4
:1034800084879587A687B78716821782108611864C
:1034900013A212A28FEF9FEF918380832196D09386
:1034A000EF07C093EE071092F3071092F20769E45A
:1034B00072E088E395E00E94A21465E472E089E07E
:1034C00095E00E94A21471E4E72E72E0F72E00E06E
:1034D00010E0980144E650E061E070E089EE94E08D
:1034E0000E9438146DE372E085EC94E00E94A2140F
:1034F00069E372E08EE994E00E94A21465E372E051
:103500008AE794E00E94A21461E372E088E594E007
:103510000E94A2146DE272E082E394E00E94A21481
:10352000E9E2EE2EE2E0FE2E00E010E0980144E633
:1035300050E061E070E08DE094E00E94381484EE89
:1035400093E00E94FD1390931403809313038BEB7D
:1035500093E00E94FD13909316038093150381EA74
:1035600093E00E94FD1390930A038093090385E87A
:1035700093E00E94FD1390930C0380930B0383E66A
:1035800093E00E94FD13909300038093FF0281E477
:1035900093E00E94FD1390930203809301038EE158
:1035A00093E00E94FD139093F6028093F5028BEF57
:1035B00092E00E94FD139093F8028093F7028BED46
:1035C00092E00E94FD139093EC028093EB0289EB52
:1035D00092E00E94FD139093EE028093ED0282E947
:1035E00092E00E94FD139093E2028093E1028BE649
:1035F00092E00E94FD139093E4028093E3028AE339
:1036000092E00E94FD1390937A028093790289E000
:1036100092E00E94FD1390937C0280937B028BEDDD
:1036200091E00E94FD1390936C0280936B028DEAEF
:1036300091E00E94FD1390936E0280936D028EE7DD
:1036400091E00E94FD1390935E0280935D028FE4EF
:1036500091E00E94FD139093600280935F0286E2E6
:1036600091E00E94FD139093500280934F028DEFE2
:1036700090E00E94FD139093520280935102F4E077
:103680008F2E912CA12CB12C6AEB662E65E0762E44
:103690008091200590912105DC01ED91FC91008441
:1036A000F185E02D099520912205892B81F02C339D
:1036B00081F08091200590912105DC01ED91FC9134
:1036C0000284F385E02D099580932205E1CF2C3308
:1036D000C1F5009120051091210553E2E52E55E03A
:1036E000F52ED0E0C0E00E945408F8016087718791
:1036F00082879387D801ED91FC910284F385E02DB8
:10370000C801099597FF5EC60E945408F8012085FC
:10371000318542855385621B730B840B950B248185
:10372000358146815781621773078407950710F327
:10373000D093B905C093B805209709F063C01092E3
:1037400022058091F2079091F307892B09F45DC45B
:1037500080E2C82E85E0D82EF12CE12C8091EE0776
:103760009091EF07E816F9060CF4E0C2C6E2D7E044
:1037700010E000E08091F0079091F1070817190719
:103780000CF043C4E881F9818081918197FD36C0B6
:103790000E945408E881F981C680D780E084F184D2
:1037A0006C197D098E099F096D3271408105910563
:1037B00028F18685978597FDFEC30E9415077C0139
:1037C000E881F98184859585E816F906B9F060816C
:1037D000718181E0E816F10409F0E8C38AE690E01F
:1037E0000E94DC130E945408E881F9816683778384
:1037F00080879187E881F981F586E4860F5F1F4F06
:103800002296B8CFFE01E05EFA4F2EE32383229684
:10381000D093B905C093B805C05EDA4F1A82809183
:103820002305813609F44EC074F4833309F499C03A
:10383000843309F4EBC0823309F081CF1092530630
:10384000109252067CCF853609F4FAC1863611F102
:10385000843609F074CFEEE5F6E090E080E041E0D8
:1038600050E02091EE073091EF07821793070CF09C
:1038700066CFA191B19112962D913C911397225050
:1038800031092230310520F41B965C934E931A9730
:103890000196E7CF2091EE073091EF07EEE5F6E0D5
:1038A00090E080E0821793070CF074C18436910594
:1038B00009F470C1C191D1914881598157FDFBC074
:1038C0000196F0CF80915C0690915D060097E1F043
:1038D0001F922F939F938F931F9280E38F931F923A
:1038E0008CE38F938EE691E09F938F937F926F92FC
:1038F0000E94FA280E944413EDB7FEB73C960FB61B
:10390000F894FEBF0FBEEDBF81E090E090935306A8
:1039100080935206EEE5F6E090E080E02091EE071D
:103920003091EF0782179307A4F0E6E2F7E090E00A
:1039300080E02091F0073091F107821793070CF097
:10394000FECEA191B1912FEF3FEF2D933C930196C5
:10395000F0CFA191B1912FEF3FEF2D933C930196C2
:10396000DDCFD0E0C0E08091EE079091EF07C8175F
:10397000D9070CF0E4CEFE01EE0FFF1FE25AF94F1B
:1039800000811181D80154966D917C91611571056A
:10399000F1F0FB0101900020E9F73197AF01461BE0
:1039A000570B87E295E00E94EC28892B71F4F8010F
:1039B00080819181019649F40E944315D8018D932D
:1039C0009C93C091EE07D091EF072196CCCFF801E0
:1039D000C688D7880D2C000CEE08FF08C701B60179
:1039E0000E9443169C01B701A60187E295E00E9460
:1039F0004D16892B51F7D8018D919C91019629F78D
:103A00000E944315F80191838083DBCFD0E0C0E0B2
:103A10008091F0079091F107C817D9070CF08FCE6D
:103A2000FE01EE0FFF1FEA5DF84F00811181D80102
:103A300012966D917C9161157105F1F0FB01019079
:103A40000020E9F73197AF01461B570B87E295E05D
:103A50000E94EC28892B71F4F801808191810196F4
:103A600049F40E944315D8018D939C93C091F007AF
:103A7000D091F1072196CCCFF801C480D5800D2CD0
:103A8000000CEE08FF08C701B6010E9443169C0116
:103A9000B701A60187E295E00E944D16892B51F7E8
:103AA000D8018D919C91019629F70E944315F80148
:103AB00091838083DBCF0C891D89CE80DF80E884F1
:103AC000F98420E030E048EC52E4C701B6010E94DE
:103AD0005F240E945026CB0164E670E00E948B2692
:103AE000582E492EC701B6010E9450262AA13BA19B
:103AF0008A819B810115110539F11F924EE34F9385
:103B00001F930F934F925F927F936F933F932F93E7
:103B10009F938F931F9282E68F931F928CE38F93D4
:103B200087E791E09F938F937F926F920E94FA288C
:103B30002DB73EB72C5E3F4F0FB6F8943EBF0FBE79
:103B40002DBF0E944413FBCD1F924EE34F934F892C
:103B50004F934E894F934F925F927F936F933F9312
:103B60002F939F938F931F9282E68F931F928CE3E4
:103B70008F9383E991E09F938F937F926F920E943E
:103B8000FA288DB79EB744960FB6F8949EBF0FBE25
:103B90008DBFD7CFA6E2B7E090E080E02091F0079C
:103BA0003091F107821793070CF019C48436910500
:103BB00009F415C4ED91FD912081318137FD02C0DA
:103BC0000196ECCF828193810097E1F01F922EE362
:103BD0002F939F938F931F928DE68F931F928CE369
:103BE0008F938EE691E09F938F937F926F920E94C6
:103BF000FA28ADB7BEB71C960FB6F894BEBF0FBE7D
:103C0000ADBF9FCF1F928EE38F9385818F93848169
:103C10008F931F928DE68F931F928CE38F938FEA81
:103C200091E09F938F937F926F920E94FA28EDB755
:103C3000FEB73C960FB6F894FEBF0FBEEDBF81CF26
:103C40000E9443157C0190E080E02091EE073091C6
:103C5000EF07821793070CF072CDEC01C156DF4FCE
:103C60008E01000F111F005E1A4FD801ED91FC91DB
:103C700020813181E216F30609F056C0228133819A
:103C80002D7F2130310509F04FC084819581019746
:103C9000F9F4C08CD18C509031051092310587E237
:103CA00095E00E944422F6016083718382839383AE
:103CB00050923105D801ED91FC91A08DB18D8D917F
:103CC0009D910D90BC91A02D828F938FA48FB58F65
:103CD000CC0FDD1FC05EDA4FE881F98184819581C8
:103CE0000297F1F4008D118DD090310510923105BD
:103CF00087E295E00E942222F8016083718382832B
:103D00009383D0923105E881F981A08DB18D8D9199
:103D10009D910D90BC91A02D868F978FA0A3B1A3EC
:103D20008091EE079091EF0701968FCFE601C25C7C
:103D3000DE4FA881B9818D919C91119797FD11C09B
:103D400012968D919C9113970297029750F41496B6
:103D50008D919C9115978130910551F0029709F44E
:103D600085C0FFEFEF1AFF0A22E0C20ED11CF6CC8D
:103D70005896ED91FC9159974081518162817381F0
:103D80005A968D919D910D90BC91A02D4817590781
:103D90006A077B0731F30E945408E881F9810089A2
:103DA000118922893389AB01BC01401B510B620B85
:103DB000730B84859585A685B78521E0892B8A2B91
:103DC0008B2B29F482859385892B09F420E0822F9F
:103DD00090E0B0E0A0E084179507A607B70708F6C3
:103DE0008081918197FD25C01F922EE32F93008C37
:103DF000F18DE02D21812F9320812F939F938F931D
:103E00001F9235E63F931F928CE38F93A0E2B1E0BF
:103E1000BF93AF937F926F920E94FA280E9444133F
:103E20002DB73EB7225F3F4F0FB6F8943EBF0FBE8F
:103E30002DBFE881F981A08DB18D8D919D910D905F
:103E4000BC91A02D828F938FA48FB58F088119818B
:103E50000E945408D80150966D937D938D939C9346
:103E60005397E881F981138612867BCF5896ED919E
:103E7000FC9159975E962D913D914D915C91919752
:103E800060817181828193810E94F923811177C0C1
:103E9000E881F98182859385892B09F462CFE881D5
:103EA000F9810081118117FD53C0008CF18DE02D47
:103EB00020803180428053801F92BEE3BF9320E078
:103EC00030E048EC52E4C201B1010E945F240E943C
:103ED0005026CB0164E670E00E948B2697FF03C05A
:103EE0009195819591099F938F93C201B1010E9491
:103EF00050269B0177FF04C022273327261B370B50
:103F00003F932F931F930F931F92E5E6EF931F921A
:103F1000FCE3FF9328EB31E03F932F937F926F9266
:103F20000E94FA28ADB7BEB750960FB6F894BEBF40
:103F30000FBEADBF20E030E0A901C201B1010E9477
:103F4000F92387FF03C0BDE2B093BF050E9444136D
:103F5000E881F981A08DB18D8D919D910D90BC91DD
:103F6000A02D868F978FA0A3B1A3088119810E94ED
:103F70005408F801608B718B828B938B72CF0E94F7
:103F80005408E881F9810089118922893389601BED
:103F9000710B820B930B04851585268537850617D3
:103FA00017072807390708F073CF79CF89E690E023
:103FB0000E94DC131FCCA285B385109709F41ECC98
:103FC0008D919C91248535858217930709F416CC31
:103FD0006081718118161906ACF48AE690E00E949F
:103FE000DC13E881F981A285B3858D919C91958739
:103FF00084870E945408E881F981668377838087EB
:104000009187FCCB89E690E0EACF8091F20790910E
:10401000F307892B09F4B5C18091250390912603FC
:10402000892B01F1D0E0C0E0BE0182E00E949D0733
:104030000E941F082196C11591E0D907A9F7CFEF7B
:10404000D0E0BE0182E00E949D070E941F082197D8
:10405000C0F76FE770E082E00E949D071092260390
:1040600010922503C0901D03D0901E03E0901F0303
:10407000F0902003A7019601609121037091220323
:1040800080912303909124030E94F923882309F44B
:104090004EC020E030E04FE753E4C701B6010E9474
:1040A0005F2420E030E0A9010E9472250E94502682
:1040B000709305016093040182E00E949D0720E057
:1040C00030E040E850E460911D0370911E03809140
:1040D0001F03909120030E945F2420E030E0A9019B
:1040E0000E9472250E9450266B0170931C036093FE
:1040F0001B038BE294E00E94C712B60183ED93E0AC
:104100000E94C712B6018BE793E00E94C71280910C
:104110001D0390911E03A0911F03B0912003809373
:10412000210390932203A0932303B093240383E3FA
:1041300093E00E94AF08A50194010E949F2630934E
:1041400018032093170383E693E00E94AF08A501AC
:1041500094010E949F2630930E0320930D0387E560
:1041600093E00E94AF08A50194010E949F2630931E
:104170000403209303038BE493E00E94AF08A5019E
:1041800094010E949F263093FA022093F9028FE354
:1041900093E00E94AF08A50194010E949F263093EE
:1041A000F0022093EF028FE693E00E94AF08A50192
:1041B00094010E949F263093E6022093E50281E15C
:1041C00093E00E94C71387E093E00E94C7138DEF2E
:1041D00092E00E94C71383EF92E00E94C71389EE1A
:1041E00092E00E94C7138FED92E00E94C7130E94D5
:1041F000180A0E9454080091DB021091DC02209101
:10420000DD023091DE02601B710B820B930B653671
:1042100071058105910508F4B4C00E9454086093AB
:10422000DB027093DC028093DD029093DE028EE36A
:104230000E94150741E050E060E070E0892B19F022
:1042400040E050E0BA014093D7025093D802609307
:10425000D9027093DA0282E30E94150741E050E030
:1042600060E070E0892B19F040E050E0BA01409323
:10427000D3025093D4026093D5027093D6028BE19F
:104280000E94150741E050E060E070E0892B19F0D2
:1042900040E050E0BA014093CF025093D0026093C7
:1042A000D1027093D20289E10E941507892B09F08F
:1042B00075C08091CB029091CC02A091CD02B091BB
:1042C000CE02892B8A2B8B2B09F068C08091C90202
:1042D0009091CA020E9491136091C5028CE20E94E3
:1042E0003E076091C1028DE20E943E076091BD02CF
:1042F00088E20E943E076091B9028DE30E943E076A
:104300006091B50288E30E943E076091B10289E3A3
:104310000E943E076091AD0283E40E943E076091D7
:10432000A90289E20E943E076091A50285E10E94F0
:104330003E076091A10287E10E943E0760919D02C5
:1043400085E00E943E076091990286E00E943E0748
:10435000609195028AE00E943E076091910288E098
:104360000E943E0760918D028FE30E943E0760919C
:10437000890286E20E943E076091850288E10E94E0
:104380003E0780E090E0892B09F482C90E9449062B
:10439000882309F479C90E94000076C989E10E9446
:1043A0001507892B09F498CF8091CB029091CC020C
:1043B000A091CD02B091CE02892B8A2B8B2B09F0D4
:1043C00085CF8ACF8E33910509F4B2C9D7018D9379
:1043D0007D012196C539D10509F085C9A9C981E0BA
:1043E00090E09093F3078093F2071F928EE38F93F0
:1043F0001F9283E68F931F928CE38F938DEC91E055
:104400009F938F937F926F920E94FA280E94441389
:10441000EDB7FEB73A960FB6F894FEBF0FBEEDBFEC
:104420008EC98091270390912803009711F00E9474
:10443000962780912D0390912E03009711F00C94F4
:1044400096270895662777270C948822FC018827F1
:104450009927E89421912032E9F3293010F02E3089
:10446000C8F32B3241F02D3239F4689404C00E9415
:104470008022820F911D219120532A30C0F31EF417
:10448000909581959F4F08951F93FC019927882748
:10449000BC01E89411911032E9F3193010F01E308C
:1044A000C8F31B3251F01D3249F4689406C00E94D3
:1044B0006B22610F711D811D911D119110531A30D6
:1044C000B0F33EF490958095709561957F4F8F4F36
:1044D0009F4F1F910895592F482F372F262F660F72
:1044E000771F881F991F660F771F881F991F620FFC
:1044F000731F841F951F660F771F881F991F0895CC
:104500007AE0979F902D879F802D910D112408951B
:10451000B0E0A0E0EEE8F2E20C9431255C017B0112
:104520006115710519F0DB018D939C9385010F5F77
:104530001F4FF501D0818D2F90E00E94D8236C0190
:10454000892BB9F5DD32B9F50F5F1F4FD5011196F3
:10455000DC91C1E05801F1E0AF1AB10843E050E04E
:1045600060E770E0C5010E94E123892B69F56801CD
:1045700082E0C80ED11C45E050E06BE670E0C60159
:104580000E94E123892B21F4680197E0C90ED11C18
:10459000E114F10419F0D701CD92DC9260E070E0F3
:1045A00080E89FEFC111FFC060E070E080E89FE706
:1045B000FAC05801BBCFDB3229F485010E5F1F4FD3
:1045C000F501D181C0E0C6CF43E050E068E670E07D
:1045D000C5010E94E123892BE9F0F80110E000E019
:1045E00020E030E0A9015F01B0ED8B2E8D0E89E057
:1045F0008815C8F19C2E689491F88C2F8870C2FFA2
:1046000016C0811102C00F5F1F4F3196D501DC919A
:10461000C92DE9CFE114F10429F00E5F1F4FF70116
:104620001183008360E070E080EC9FE7BCC08823CA
:1046300011F001501109A5E0B0E00E9420259B0176
:10464000AC01220F331F441F551F280D311D411D82
:10465000511D283999E93907490799E15907A8F205
:10466000C6609C2ED2CFAEEF8A1206C0C3FD3CC0FE
:104670009C2E689493F8C9CFDF7DD534A9F580814D
:104680008D3239F4C061DF011296818162E070E001
:1046900006C0DF018B32C1F3119661E070E08053F8
:1046A0005D01A61AB70A8A30F8F4E0E8CE16ECE00D
:1046B000DE065CF4B601660F771F660F771FC60E25
:1046C000D71ECC0CDD1CC80ED11C5D01FFEFAF1A4C
:1046D000BF0A8C9180538A30A8F1C4FF03C0D194E3
:1046E000C194D1080C0D1D1DC1FF09C0E114F104D6
:1046F00031F081E0A81AB108D701AD92BC92CA018D
:10470000B9010E94FE23C370C33009F490584B01D5
:104710005C0120E030E0A9010E94F923882309F41C
:1047200040C0CFE9D0E017FF05C0119501951109F0
:10473000C7E8D0E06E01B8E1CB1AD10880E2E82EDC
:10474000F12C0FC0D501B1CFFE01259135914591D6
:1047500054910E191F09C501B4010E945F244B0139
:104760005C01D501C4010E151F0574F72497F5945B
:10477000E794CC16DD06A9F78A2F880F8B2F881FA8
:104780008F3F49F020E030E0A901C501B4010E944B
:10479000F923811106C082E290E09093F50780939F
:1047A000F407C501B401CDB7DEB7ECE00C944D259C
:1047B00091110C94CC24803219F089508550C8F79F
:1047C0000895FB01DC014150504088F08D91813407
:1047D0001CF08B350CF4805E659161341CF06B35F8
:1047E0000CF4605E861B611171F3990B0895881BB0
:1047F000FCCF0E943B2408F481E00895E89409C0AE
:1048000097FB3EF490958095709561957F4F8F4F03
:104810009F4F9923A9F0F92F96E9BB279395F69519
:10482000879577956795B795F111F8CFFAF4BB0F97
:1048300011F460FF1BC06F5F7F4F8F4F9F4F16C0FB
:10484000882311F096E911C0772321F09EE8872F85
:10485000762F05C0662371F096E8862F70E060E041
:104860002AF09A95660F771F881FDAF7880F9695BA
:10487000879597F90895990F0008550FAA0BE0E85E
:10488000FEEF16161706E807F907C0F01216130612
:10489000E407F50798F0621B730B840B950B39F452
:1048A0000A2661F0232B242B252B21F408950A26B8
:1048B00009F4A140A6958FEF811D811D08950E94E6
:1048C00072240C94E6240E94D82438F00E94DF243D
:1048D00020F0952311F00C94CF240C94D5241124AE
:1048E0000C941A250E94F72470F3959FC1F3950F3D
:1048F00050E0551F629FF001729FBB27F00DB11D64
:10490000639FAA27F00DB11DAA1F649F6627B00DF3
:10491000A11D661F829F2227B00DA11D621F739FDC
:10492000B00DA11D621F839FA00D611D221F749FEA
:104930003327A00D611D231F849F600D211D822F31
:10494000762F6A2F11249F5750409AF0F1F0882358
:104950004AF0EE0FFF1FBB1F661F771F881F915085
:104960005040A9F79E3F510580F00C94CF240C9441
:104970001A255F3FE4F3983ED4F3869577956795C3
:10498000B795F795E7959F5FC1F7FE2B880F911DAF
:104990009695879597F9089599278827089597F907
:1049A0009F6780E870E060E008959FEF80EC0895D5
:1049B00000240A94161617061806090608950024FE
:1049C0000A9412161306140605060895092E039478
:1049D000000C11F4882352F0BB0F40F4BF2B11F4EC
:1049E00060FF04C06F5F7F4F8F4F9F4F089557FD4B
:1049F0009058440F551F59F05F3F71F04795880F4D
:104A000097FB991F61F09F3F79F0879508951216E3
:104A100013061406551FF2CF4695F1DF08C016168F
:104A200017061806991FF1CF869571056105089440
:104A30000895E894BB2766277727CB0197F9089557
:104A40000E946225A59F900DB49F900DA49F800D9C
:104A5000911D112408952F923F924F925F926F9271
:104A60007F928F929F92AF92BF92CF92DF92EF92FE
:104A7000FF920F931F93CF93DF93CDB7DEB7CA1B7F
:104A8000DB0B0FB6F894DEBF0FBECDBF09942A88AA
:104A9000398848885F846E847D848C849B84AA8452
:104AA000B984C884DF80EE80FD800C811B81AA81DF
:104AB000B981CE0FD11D0FB6F894DEBF0FBECDBFAA
:104AC000ED010895A29FB001B39FC001A39F700D97
:104AD000811D1124911DB29F700D811D1124911D06
:104AE00008955058BB27AA270E9489250C94E624D4
:104AF0000E94D82438F00E94DF2420F039F49F3F30
:104B000019F426F40C94D5240EF4E095E7FB0C94EC
:104B1000CF24E92F0E94F72458F3BA1762077307CE
:104B20008407950720F079F4A6F50C9419250EF466
:104B3000E0950B2EBA2FA02D0B01B90190010C01AD
:104B4000CA01A0011124FF27591B99F0593F50F4C5
:104B5000503E68F11A16F040A22F232F342F44271D
:104B6000585FF3CF469537952795A795F040539515
:104B7000C9F77EF41F16BA0B620B730B840BBAF0E5
:104B80009150A1F0FF0FBB1F661F771F881FC2F750
:104B90000EC0BA0F621F731F841F48F48795779564
:104BA0006795B795F7959E3F08F0B0CF9395880F1E
:104BB00008F09927EE0F9795879508950E94F225A2
:104BC0000C94E6240E94DF2458F00E94D82440F080
:104BD00029F45F3F29F00C94CF2451110C941A252D
:104BE0000C94D5240E94F72468F39923B1F355233C
:104BF00091F3951B550BBB27AA27621773078407F0
:104C000038F09F5F5F4F220F331F441FAA1FA9F385
:104C100035D00E2E3AF0E0E832D091505040E69573
:104C2000001CCAF72BD0FE2F29D0660F771F881FD4
:104C3000BB1F261737074807AB07B0E809F0BB0BC7
:104C4000802DBF01FF2793585F4F3AF09E3F5105DB
:104C500078F00C94CF240C941A255F3FE4F3983E2F
:104C6000D4F3869577956795B795F7959F5FC9F7C4
:104C7000880F911D9695879597F90895E1E0660F45
:104C8000771F881FBB1F621773078407BA0720F0BE
:104C9000621B730B840BBA0BEE1F88F7E095089527
:104CA0000E9457266894B1110C941A2508950E9409
:104CB000FF2488F09F5798F0B92F9927B751B0F08B
:104CC000E1F0660F771F881F991F1AF0BA95C9F790
:104CD00014C0B13091F00E941925B1E008950C94F0
:104CE0001925672F782F8827B85F39F0B93FCCF3A3
:104CF000869577956795B395D9F73EF4909580950D
:104D0000709561957F4F8F4F9F4F08950E943B2470
:104D100008F48FEF089597FB072E16F4009407D040
:104D200077FD09D00E94BE2607FC05D03EF4909581
:104D300081959F4F0895709561957F4F0895052E39
:104D400097FB1EF400940E94B62657FD07D00E94E0
:104D5000D22607FC03D04EF40C94B626509540950D
:104D6000309521953F4F4F4F5F4F08959095809517
:104D7000709561957F4F8F4F9F4F0895AA1BBB1B66
:104D800051E107C0AA1FBB1FA617B70710F0A61B4B
:104D9000B70B881F991F5A95A9F780959095BC016C
:104DA000CD010895A1E21A2EAA1BBB1BFD010DC067
:104DB000AA1FBB1FEE1FFF1FA217B307E407F507CB
:104DC00020F0A21BB30BE40BF50B661F771F881FA7
:104DD000991F1A9469F760957095809590959B013D
:104DE000AC01BD01CF010895EE0FFF1F0590F491B6
:104DF000E02D09940F931F93CF93DF938230910599
:104E000010F482E090E0E091F807F091F90730E0CB
:104E100020E0B0E0A0E0309799F42115310509F4C5
:104E20004AC0281B390B24303105D8F58A819B8173
:104E30006115710589F1FB0193838283FE0111C025
:104E4000408151810281138148175907E0F04817CA
:104E5000590799F4109761F012960C9312971396D4
:104E60001C933296CF01DF91CF911F910F9108953E
:104E70000093F8071093F907F4CF2115310551F08D
:104E80004217530738F0A901DB019A01BD01DF0188
:104E9000F801C1CFEF01F9CF9093F9078093F8079C
:104EA000CDCFFE01E20FF31F819391932250310980
:104EB00039832883D7CF2091F6073091F707232B2A
:104EC00041F420910801309109013093F7072093B4
:104ED000F60720910601309107012115310541F4B3
:104EE0002DB73EB740910A0150910B01241B350BA1
:104EF000E091F607F091F707E217F307A0F42E1BF5
:104F00003F0B2817390778F0AC014E5F5F4F24172D
:104F1000350748F04E0F5F1F5093F7074093F60791
:104F2000819391939FCFF0E0E0E09CCFCF93DF930C
:104F30000097E9F0FC01329713821282A091F807E2
:104F4000B091F907ED0130E020E01097A1F4208145
:104F50003181820F931F2091F6073091F7072817B0
:104F6000390709F061C0F093F707E093F607DF9186
:104F7000CF910895EA01CE17DF07E8F54A815B81FA
:104F80009E0141155105B1F7E901FB83EA8349917F
:104F90005991C40FD51FEC17FD0761F480819181F1
:104FA0000296840F951FE9019983888382819381FA
:104FB0009B838A83F0E0E0E012968D919C91139799
:104FC0000097B9F52D913C911197CD010296820F72
:104FD000931F2091F6073091F7072817390739F604
:104FE000309751F51092F9071092F807B093F70730
:104FF000A093F607BCCFD383C28340815181840F35
:10500000951FC817D90761F44E5F5F4F888199815A
:10501000480F591F518340838A819B8193838283E8
:105020002115310509F0B0CFF093F907E093F807A7
:105030009ECFFD01DC01C0CF13821282D7CFB0E03A
:10504000A0E0E5E2F8E20C942D258C01009751F4E4
:10505000CB010E94FA268C01C801CDB7DEB7E0E192
:105060000C944925FC01E60FF71F9C0122503109E1
:10507000E217F30708F49DC0D901CD91DC91119797
:10508000C617D70798F0C530D10530F3CE01049785
:105090008617970708F3C61BD70B2297C193D193A6
:1050A0006D937C93CF010E949627D6CF5B01AC1AFB
:1050B000BD0A4C018C0E9D1EA091F807B091F90716
:1050C000512C412CF12CE12C109731F58091F607F1
:1050D0009091F7078815990509F05CC046165706A8
:1050E00008F058C08091060190910701009741F4A3
:1050F0008DB79EB740910A0150910B01841B950B0F
:10510000E817F90708F055C0F093F707E093F607A2
:10511000F90171836083A0CF8D919C9111971296B4
:105120006C90129713967C901397A815B90559F5B2
:105130006C0142E0C40ED11CCA14DB0420F1AC01A6
:105140004A195B09DA011296159780F06282738220
:1051500051834083D9016D937C93E114F10471F084
:10516000D7011396FC93EE93129776CF22968C0F6D
:105170009D1FF90191838083F301EFCFF093F9072D
:10518000E093F80769CF4816590608F42C017D0111
:10519000D3019ACFCB010E94FA267C01009749F0F7
:1051A000AE01B8010E94DC28C8010E949627870141
:1051B00053CF10E000E050CFFB01DC0102C00190B2
:1051C0000D9241505040D8F70895FB01DC01019049
:1051D0000D920020E1F70895FB01DC0141505040A1
:1051E00030F08D910190801919F40020B9F7881BD7
:1051F000990B0895AEE0B0E0E0E0F9E20C943925B7
:105200000D891E8986E08C831A8309838FEF9FE7BF
:105210009E838D83AE01475E5F4F6F89788DCE018F
:1052200001960E941D292F813885020F131FF80156
:1052300010822E96E4E00C945525ABE0B0E0E3E25A
:10524000F9E20C942B257C013B018A01FC011782B9
:105250001682838181FFC8C1CE0101965C01F701EE
:105260009381F30193FD859193FF81913F01882301
:1052700009F453C1853239F493FD859193FF8191EF
:105280003F01853229F4B70190E00E940D2BE7CF52
:10529000912C212C312CFFE1F31538F08B3211F1D8
:1052A00090F4803209F1833229F137FC3CC020EDC3
:1052B000280F2A3050F536FE20C08AE0989E200D37
:1052C0001124922E06C08D3291F0803371F76894CC
:1052D00030F8F30193FD859193FF81913F01811196
:1052E000DACF21C0689431F8689432F8F2CF68942C
:1052F00033F8EFCF689434F8ECCFEAE02E9E200D1F
:105300001124222E689435F8E4CF8E3229F436FC2D
:1053100004C1689436F8DDCF8C3619F4689437F8F8
:10532000D8CF8836B1F2982F9F7D95549330E0F016
:105330008336A1F18337C1F1833509F063C02801B9
:10534000F2E04F0E511CF801C080D180692D70E051
:1053500036FC02C06FEF7FEFC6010E94F72A4C01B6
:10536000689437F882010AC00C5F1F4FFFE3F9838E
:1053700088248394912C6501E89437F833FE2DC07E
:10538000522C8114910471F5552009F468CFB701AE
:1053900080E290E00E940D2B5A94F6CFF8018081B4
:1053A00089830E5F1F4FE4CF2801F2E04F0E511C9E
:1053B000F801C080D180692D70E036FC02C06FEF2B
:1053C0007FEFC6010E94022B4C018201D5CFB701AD
:1053D00080E290E00E940D2B2A942814190409F011
:1053E000B0F7CECFF60137FC859137FE81916F0182
:1053F000B70190E00E940D2B51105A94F1E08F1AE2
:105400009108BFCF843619F0893609F077C0F801CA
:1054100037FE6BC060817181828193810C5F1F4F69
:10542000F32DFF763F2E97FF09C0909580957095DC
:1054300061957F4F8F4F9F4F689437F82AE030E097
:10544000A5010E943D2BC82ECA188C2C432C36FE79
:105450000CC0E89440F8C91440F434FE05C032FC96
:1054600003C0F32DFE7E4F2E892C44FE95C0FE0115
:10547000EC0DF11D8081803309F087C0242D297E39
:10548000422E842D8870582E43FC95C040FE8FC05C
:105490009C2C821418F42C0C922C981844FE91C069
:1054A000B70180E390E00E940D2B42FE09C088E71F
:1054B00090E041FE02C088E590E0B7010E940D2B0C
:1054C000C91408F48AC0CA94D12C9FEFC91AD90A0A
:1054D000CA0CDB1CF60182916F01B70190E00E94BB
:1054E0000D2BAC14BD04B1F74FCF60817181072E35
:1054F000000C880B990B0E5F1F4F92CFD32CE894B2
:10550000D4F82AE030E0853739F1232D297FD22ED7
:105510008F3601F148F48835A9F0F701868197812B
:105520002B96E2E10C944725803749F08837A9F79C
:10553000D4FE02C06894D2F820E130E00DC0689437
:10554000D4F8F6CF34FE03C0822F8660D82E20E137
:1055500032E002C028E030E0F801D7FE0FC06081E1
:105560007181828193810C5F1F4FA5010E943D2BA9
:10557000C82ECA183D2CE89437F867CF6081718136
:1055800090E080E00E5F1F4FF0CF42FC02C083949A
:1055900078CF8394839475CF842D867809F471CF66
:1055A000F6CFB70180E290E00E940D2B8394821425
:1055B000C0F3512C73CF522C5818821408F46ECFBC
:1055C000F8CF842D867809F47BCF8BE241FE80E210
:1055D00047FC8DE2B70190E071CFB70180E390E026
:1055E0000E940D2B9A946CCF8FEF9FEF99CFFC0107
:1055F0000590615070400110D8F7809590958E0FFE
:105600009F1F0895FC016150704001900110D8F770
:10561000809590958E0F9F1F08950F931F93CF93A2
:10562000DF93182F092FEB018B8181FD09C01FEF3C
:105630000FEF812F902FDF91CF911F910F91089540
:1056400082FF14C02E813F818C819D8128173907EC
:105650003CF4E881F981CF01019699838883108316
:105660008E819F8101969F838E83E3CFE885F985A4
:10567000812F0995892BA1F3DACFFA01AA272830C7
:1056800051F1203181F1E8946F936E7F6E5F7F4F0F
:105690008F4F9F4FAF4FB1E03ED0B4E03CD0670F8B
:1056A000781F891F9A1FA11D680F791F8A1F911DDE
:1056B000A11D6A0F711D811D911DA11D20D009F42E
:1056C00068943F912AE0269F11243019305D319370
:1056D000DEF6CF010895462F4770405D4193B3E059
:1056E0000FD0C9F7F6CF462F4F70405D4A3318F000
:1056F000495D31FD4052419302D0A9F7EACFB4E0B1
:10570000A6959795879577956795BA95C9F7009768
:105710006105710508959B01AC010A2E0694579509
:10572000479537952795BA95C9F7620F731F841F60
:10573000951FA01D089515E0C4EBD5E004C0FE013F
:105740000E94F4262196C53BD107C9F7F894FFCFF4
:105750006008600804000000FA07800000000000F4
:105760007F06DF050C06CC063D061B062F06200033
:105770002563256325332E33692569256300256359
:10578000256325332E3369256300434F52455F4D12
:1057900043505F563137006C616D696E61722F4204
:1057A0003733382F656C6563747269632F70616E6F
:1057B000656C5F6272696768746E657373002563F8
:1057C000256325732563002563256325312E316903
:1057D00025322E3269253035692E25303269257300
:1057E0002563002563256325312E316925322E324C
:1057F00069253035692E253032692553256300250A
:1058000063256325532563002563256325332E33E4
:1058100069253037692E25303269256300256325D7
:045820006325630099
:00000001FF
