:100000000C94EC060C94B5190C948A190C945F1995
:100010000C9434190C9409190C94DE180C94B31830
:100020000C9488180C941D070C941D070C941D0744
:100030000C941D070C941D070C941D070C941D07B0
:100040000C941D070C941D070C941D070C941D07A0
:100050000C941D070C941D070C941D070C943E185E
:100060000C941D070C9408180C94DE170C941D07B3
:100070000C941D070C941D070C941D070C941D0770
:100080000C941D070C941D070C941D070C941D0760
:100090000C941D070C941D070C941D070C941D0750
:1000A0000C941D070C941D070C941D070C941D0740
:1000B0000C941D070C941D070C941D070C941D0730
:1000C0000C941D070C941D070C941D070C941D0720
:1000D0000C941D070C941D070C941D070C941D0710
:1000E0000C941D070C940A0A0C948C080C94B60806
:1000F0000C9483080C94220B0C94E2090C944C078A
:100100000C94B5090C9486080C9487090C945B0731
:100110000C941F070C94160B0C949E080C94AC08BE
:100120000C94F6090C94AD090C946F070C94B50768
:100130000C9471080C94FA190C94D3090C9482094C
:100140000C949A080C94A8080C949B090C94BF0971
:100150000C9490080C947B080C947D070C947F0AF7
:100160000C9402080C94EC090C94C9090C94140A20
:100170000C94A4080C94B1080C94000A0C94280B5D
:100180000C94EF250C9491090C947A090C9477083F
:100190000C947F080C941C0B0C94A5090C949608E5
:1001A0000C94B2084E414E494E495459494E46CDE1
:1001B000CCCC3D0AD7233C17B7D13877CC2B32951E
:1001C00095E6241FB14F0A000020410000C84200FC
:1001D000401C4620BCBE4CCA1B0E5AAEC59D7400C6
:1001E000002100240027002A002D003000330001E8
:1001F000010000040107010A010000220025002877
:10020000002B002E0031003400020100000501081F
:10021000010B01000020002300260029002C002FE4
:100220000032000001000003010601090105050577
:1002300005070508080808020202020A0A0808045D
:10024000040404010101010101010103030303038B
:10025000030303040707070C0C0C0C0C0C0C0C021A
:1002600002020206060606060606060B0B0B0B0B21
:100270000B0B0B010210202008081020401020401A
:10028000800201020108040201010204081020405A
:100290008080402010080402018004020180402078
:1002A00010080402010804020101020408102040A1
:1002B00080010204081020408000000A0B02090C93
:1002C0000D0E0807030401000000000000000000FC
:1002D000000000000000000000000000000000001E
:1002E00000000000001211100000000000000000DB
:1002F0000000000000000000000000000000006C92
:10030000616D696E61722F423733382F6175746F7A
:1003100070696C6F742F646973636F6E6E6563745C
:100320005F746F67676C65006C616D696E61722FD9
:10033000423733382F6175746F70696C6F742F6436
:100340006973636F6E6E6563745F746F67676C6506
:10035000006C616D696E61722F423733382F6175A1
:10036000746F70696C6F742F6175746F7468726FDD
:1003700074746C655F61726D5F746F67676C650044
:100380006C616D696E61722F423733382F617574FD
:100390006F70696C6F742F6175746F7468726F74AD
:1003A000746C655F61726D5F746F67676C65006C1C
:1003B000616D696E61722F423733382F6175746FCA
:1003C00070696C6F742F666C696768745F646972BA
:1003D0006563746F725F746F67676C65006C616DE5
:1003E000696E61722F423733382F6175746F70698F
:1003F0006C6F742F666C696768745F64697265639B
:10040000746F725F746F67676C65006C616D696EA5
:1004100061722F423733382F6175746F70696C6F5A
:10042000742F666C696768745F6469726563746F62
:10043000725F666F5F746F67676C65006C616D6992
:100440006E61722F423733382F6175746F70696C2B
:100450006F742F666C696768745F64697265637432
:100460006F725F666F5F746F67676C65006C616D5C
:10047000696E61722F423733382F6175746F7069FE
:100480006C6F742F636F757273655F70696C6F74D6
:100490005F646E006C616D696E61722F4237333834
:1004A0002F6175746F70696C6F742F636F757273E1
:1004B000655F70696C6F745F75700073696D2F6133
:1004C00075746F70696C6F742F766572746963618F
:1004D0006C5F73706565645F646F776E0073696DE0
:1004E0002F6175746F70696C6F742F7665727469A3
:1004F00063616C5F73706565645F7570006C616DDE
:10050000696E61722F423733382F6175746F70696D
:100510006C6F742F616C7469747564655F646E00D0
:100520006C616D696E61722F423733382F6175745B
:100530006F70696C6F742F616C7469747564655F3A
:100540007570006C616D696E61722F423733382FA0
:100550006175746F70696C6F742F68656164696E22
:10056000675F646E006C616D696E61722F42373334
:10057000382F6175746F70696C6F742F6865616472
:10058000696E675F75700073696D2F6175746F7048
:10059000696C6F742F61697273706565645F646FF5
:1005A000776E0073696D2F6175746F70696C6F740D
:1005B0002F61697273706565645F7570006C616D41
:1005C000696E61722F423733382F6175746F7069AD
:1005D0006C6F742F636F757273655F636F70696C96
:1005E0006F745F646E006C616D696E61722F42376B
:1005F00033382F6175746F70696C6F742F636F750A
:100600007273655F636F70696C6F745F7570006C97
:10061000616D696E61722F423733382F6175746F67
:1006200070696C6F742F7676695F6469616C5F7353
:10063000686F77006C616D696E61722F4237333875
:100640002F6175746F70696C6F742F636F7572733F
:10065000655F636F70696C6F74006C616D696E616A
:10066000722F423733382F6175746F70696C6F74F5
:100670002F61705F7676695F706F73006C616D6972
:100680006E61722F423733382F6175746F70696CE9
:100690006F742F6D63705F616C745F6469616C006F
:1006A00073696D2F636F636B7069742F6175746FFD
:1006B00070696C6F742F61697273706565645F69CE
:1006C000735F6D616368006C616D696E61722F426A
:1006D0003733382F6175746F70696C6F742F6D6369
:1006E000705F6864675F6469616C006C616D696EFE
:1006F00061722F423733382F6175746F70696C6F78
:10070000742F73686F775F696173006C616D696ED8
:1007100061722F423733382F6175746F70696C6F57
:10072000742F6D63705F73706565645F6469616C7D
:100730005F6B74735F6D616368006C616D696E619E
:10074000722F423733382F6175746F70696C6F7414
:100750002F636F757273655F70696C6F74006C6185
:100760006D696E61722F423733382F6175746F7007
:10077000696C6F742F646973636F6E6E6563745F09
:10078000746F67676C65006C616D696E61722F4292
:100790003733382F6175746F70696C6F742F6469AB
:1007A00073636F6E6E6563745F706F73006C616D01
:1007B000696E61722F423733382F6175746F7069BB
:1007C0006C6F742F62616E6B5F616E676C65006C3D
:1007D000616D696E61722F423733382F7377697498
:1007E000636865732F6175746F70696C6F742F61C6
:1007F000745F61726D006C616D696E61722F42375A
:1008000033382F73776974636865732F6175746FFC
:1008100070696C6F742F66645F666F006C616D69E0
:100820006E61722F423733382F737769746368654E
:10083000732F6175746F70696C6F742F66645F637A
:1008400061006C616D696E61722F423733382F61C0
:1008500075746F70696C6F742F62616E6B5F616E1F
:10086000676C655F646E006C616D696E61722F42CA
:100870003733382F6175746F70696C6F742F6261D4
:100880006E6B5F616E676C655F7570006C616D6942
:100890006E61722F423733382F6175746F70696CD7
:1008A0006F742F6368616E67655F6F7665725F70E6
:1008B00072657373006C616D696E61722F423733BC
:1008C000382F6175746F70696C6F742F616C745F11
:1008D000696E74657276006C616D696E61722F422B
:1008E0003733382F6175746F70696C6F742F737044
:1008F000645F696E74657276006C616D696E6172B9
:100900002F423733382F6175746F70696C6F742F95
:100910006377735F625F7072657373006C616D699A
:100920006E61722F423733382F6175746F70696C46
:100930006F742F6377735F615F7072657373006CA0
:10094000616D696E61722F423733382F6175746F34
:1009500070696C6F742F636D645F625F7072657332
:1009600073006C616D696E61722F423733382F618D
:1009700075746F70696C6F742F636D645F615F7005
:1009800072657373006C616D696E61722F423733EB
:10099000382F6175746F70696C6F742F76735F7028
:1009A00072657373006C616D696E61722F423733CB
:1009B000382F6175746F70696C6F742F616C745F20
:1009C000686C645F7072657373006C616D696E61F1
:1009D000722F423733382F6175746F70696C6F7482
:1009E0002F6170705F7072657373006C616D696EFA
:1009F00061722F423733382F6175746F70696C6F75
:100A0000742F766F726C6F635F7072657373006CB6
:100A1000616D696E61722F423733382F6175746F63
:100A200070696C6F742F6C6E61765F707265737332
:100A3000006C616D696E61722F423733382F6175BA
:100A4000746F70696C6F742F6864675F73656C5F37
:100A50007072657373006C616D696E61722F4237DD
:100A600033382F6175746F70696C6F742F6C766C8E
:100A70005F6368675F7072657373006C616D696E48
:100A800061722F423733382F6175746F70696C6FE4
:100A9000742F766E61765F7072657373006C616D32
:100AA000696E61722F423733382F6175746F7069C8
:100AB0006C6F742F73706565645F7072657373001B
:100AC0006C616D696E61722F423733382F617574B6
:100AD0006F70696C6F742F6E315F70726573730025
:100AE0006C616D696E61722F423733382F61757496
:100AF0006F70696C6F742F6D61737465725F666F70
:100B00005F737461747573006C616D696E61722FCF
:100B1000423733382F6175746F70696C6F742F6D45
:100B200061737465725F636170745F73746174750F
:100B300073006C616D696E61722F423733382F61BB
:100B400075746F70696C6F742F6175746F746872EF
:100B50006F74746C655F737461747573006C616D30
:100B6000696E61722F423733382F6175746F706907
:100B70006C6F742F6377735F625F737461747573E6
:100B8000006C616D696E61722F423733382F617569
:100B9000746F70696C6F742F6377735F615F7374C8
:100BA00061747573006C616D696E61722F423733C9
:100BB000382F6175746F70696C6F742F636D645F2B
:100BC000625F737461747573006C616D696E6172DC
:100BD0002F423733382F6175746F70696C6F742FC3
:100BE000636D645F615F737461747573006C616DD4
:100BF000696E61722F423733382F6175746F706977
:100C00006C6F742F76735F737461747573006C61AD
:100C10006D696E61722F423733382F6175746F7052
:100C2000696C6F742F616C745F686C645F7374615E
:100C3000747573006C616D696E61722F4237333861
:100C40002F6175746F70696C6F742F6864675F7360
:100C5000656C5F737461747573006C616D696E614E
:100C6000722F423733382F6175746F70696C6F74EF
:100C70002F6170705F737461747573006C616D695E
:100C80006E61722F423733382F6175746F70696CE3
:100C90006F742F766F726C6F635F737461747573AA
:100CA000006C616D696E61722F423733382F617548
:100CB000746F70696C6F742F6C6E61765F737461A2
:100CC000747573006C616D696E61722F42373338D1
:100CD0002F6175746F70696C6F742F766E61765FBB
:100CE00073746174757331006C616D696E61722F1C
:100CF000423733382F6175746F70696C6F742F6C65
:100D0000766C5F6368675F737461747573006C61A0
:100D10006D696E61722F423733382F6175746F7051
:100D2000696C6F742F7066645F7370645F6D6F645D
:100D300065006C616D696E61722F423733382F61C7
:100D400075746F70696C6F742F6E315F737461743A
:100D50007573007E306D79335B5F707F7B771F0D1D
:100D60003D4F4700000000000000000000000000B0
:100D700000000000000000000000000000000080F3
:100D80000180007E306D79335B5F707F7B000000F7
:100D900000000000771F0D3D4F4700370000000E98
:100DA00000000067000000000000000000000000DC
:100DB00000000800771F0D3D4F4700370000000E70
:100DC00000151D670000000000000000000000008A
:100DD00000000000FA19EF2511241FBECFEFD1E269
:100DE000DEBFCDBF00E00CBF29E0A2EEB2E001C043
:100DF0001D92A231B207E1F712E0A0E0B2E0EAE70B
:100E0000FFE500E00BBF02C007900D92A23EB107C4
:100E1000D9F716E0CBEED6E000E006C02197010935
:100E2000802FFE010E94732ACA3ED10780E0080786
:100E3000A9F70E94741A0C94AB2F0C940000AF9287
:100E4000BF92CF92DF92EF92FF920F931F93CF93B7
:100E5000DF936C017B018B01040F151FEB015E0119
:100E6000AE18BF08C017D10759F06991D601ED91AE
:100E7000FC910190F081E02DC6011995892B79F73D
:100E8000C501DF91CF911F910F91FF90EF90DF90FF
:100E9000CF90BF90AF900895FC01538D448D252FC6
:100EA00030E0842F90E0821B930B541710F0CF9604
:100EB000089501970895FC01918D828D981761F036
:100EC000A28DAE0FBF2FB11D5D968C91928D9F5F4D
:100ED0009F73928F90E008958FEF9FEF0895FC012C
:100EE000918D828D981731F0828DE80FF11D858DDF
:100EF00090E008958FEF9FEF0895FC01918D228D72
:100F0000892F90E0805C9F4F821B91098F739927F6
:100F100008958BE995E00E947D0721E0892B09F473
:100F200020E0822F0895FC01A48DA80FB92FB11DD8
:100F3000A35ABF4F2C91848D90E001968F7399270F
:100F4000848FA689B7892C93A089B1898C918370ED
:100F500080648C93938D848D981306C00288F389E6
:100F6000E02D80818F7D80830895EF92FF920F9313
:100F70001F93CF93DF93EC0181E0888F9B8D8C8D45
:100F800098131AC0E889F989808185FF15C09FB739
:100F9000F894EE89FF896083E889F98980818370FC
:100FA000806480839FBF81E090E0DF91CF911F91AB
:100FB0000F91FF90EF900895F62E0B8D10E00F5FCC
:100FC0001F4F0F731127E02E8C8D8E110CC00FB6A2
:100FD00007FCFACFE889F989808185FFF5CFCE013A
:100FE0000E949307F1CFEB8DEC0FFD2FF11DE35A1B
:100FF000FF4FF0829FB7F8940B8FEA89FB898081BD
:101000008062CFCFCF93DF93EC01888D8823B9F036
:10101000AA89BB89E889F9898C9185FD03C0808103
:1010200086FD0DC00FB607FCF7CF8C9185FFF2CF80
:10103000808185FFEDCFCE010E949307E9CFDF913C
:10104000CF91089580E090E0892B29F00E948907D4
:1010500081110E94000080E090E0892B49F080E03F
:1010600090E0892B29F00E94000081110E9400006D
:1010700080E090E0892B49F080E090E0892B29F016
:101080000E94000081110E94000080E090E0892B06
:1010900049F080E090E0892B29F00E940000811146
:1010A0000C94000008958150823108F05AC0E82F56
:1010B000F0E08827E15AF74F8F4F0C94732A7F088E
:1010C0008308710877087B08B10886088C089008A7
:1010D00096089A089E08A408A808B108AC08B208A7
:1010E000B608809180008F7780938000089580916A
:1010F00080008F7DF9CF80918000877FF5CF84B508
:101100008F7784BD089584B58F7DFBCF8091B0002B
:101110008F778093B00008958091B0008F7DF9CFD4
:10112000809190008F778093900008958091900037
:101130008F7DF9CF80919000877FF5CF8091A000BF
:101140008F778093A00008958091A0008F7DF9CFC4
:101150008091A000877FF5CF809120018F778093C9
:1011600020010895809120018F7DF9CF8091200189
:10117000877FF5CFCF93DF93282F30E0F901E75435
:10118000FD4F8491F901ED58FD4FD491F901E35DD4
:10119000FD4FC491CC23A1F081110E945308EC2F84
:1011A000F0E0EE0FFF1FED5EFD4FA591B491EC91C5
:1011B000ED2381E090E009F480E0DF91CF91089584
:1011C00080E090E0FACF1F93CF93DF93282F30E099
:1011D000F901E754FD4F8491F901ED58FD4FD49189
:1011E000F901E35DFD4FC491CC23A9F0162F8111C5
:1011F0000E945308EC2FF0E0EE0FFF1FE750FE4F68
:10120000A591B4918FB7F894EC91111108C0D095C5
:10121000DE23DC938FBFDF91CF911F910895DE2BEA
:10122000F8CFCF93DF9390E0FC01ED58FD4F249170
:10123000835D9D4FFC0184918823D1F090E0880F5D
:10124000991FFC01E152FE4FA591B491FC01E750BA
:10125000FE4FC591D491623071F49FB7F8943C91E0
:10126000822F809583238C93E8812E2B28839FBF28
:10127000DF91CF9108958FB7F894EC912E2B2C939A
:101280008FBFF6CF1F93CF93DF93182FEB0161E051
:101290000E941109209739F460E0812FDF91CF91EE
:1012A0001F910C94E308CF3FD10511F461E0F5CF15
:1012B000E12FF0E0E754FD4FE491E150E23108F016
:1012C000B3C0F0E08827E859F64F8F4F0C94732A8B
:1012D0007A098209870991099B09140AA509AD09B0
:1012E000B509BF09C909D309E209EC09140AF609CD
:1012F000000A0A0A84B5806884BDC7BDDF91CF911A
:101300001F91089584B5806284BDC8BDF7CF8091D8
:101310008000806880938000D0938900C09388000B
:10132000EDCF80918000806280938000D0938B000D
:10133000C0938A00E3CF8091800088608093800012
:10134000D0938D00C0938C00D9CF8091B00080687D
:101350008093B000C093B300D1CF8091B000806281
:101360008093B000C093B400C9CF80919000806892
:1013700080939000D0939900C0939800BFCF809144
:101380009000806280939000D0939B00C0939A005D
:10139000B5CF80919000886080939000D0939D009D
:1013A000C0939C00ABCF8091A00080688093A00088
:1013B0008091A0008F7B8093A000D093A900C09360
:1013C000A8009CCF8091A00080628093A000D09361
:1013D000AB00C093AA0092CF8091A0008860809358
:1013E000A000D093AD00C093AC0088CF80912001C5
:1013F000806880932001D0932901C09328017ECF7B
:1014000080912001806280932001D0932B01C093B2
:101410002A0174CF80912001886080932001D093AD
:101420002D01C0932C016ACFC038D1050CF03ECFFE
:1014300033CF3FB7F89480913B0390913C03A09148
:101440003D03B0913E0326B5A89B05C02F3F19F080
:101450000196A11DB11D3FBFBA2FA92F982F882734
:10146000BC01CD01620F711D811D911D42E0660F0F
:10147000771F881F991F4A95D1F708958F929F92E1
:10148000AF92BF92CF92DF92EF92FF920E94190A21
:101490004B015C018FE0C82ED12CE12CF12C0E9475
:1014A000190A681979098A099B09683E7340810500
:1014B0009105A8F321E0C21AD108E108F10888EEED
:1014C000880E83E0981EA11CB11CC114D104E10454
:1014D000F10429F7FF90EF90DF90CF90BF90AF908D
:1014E0009F908F9008952FB7F89460913703709173
:1014F00038038091390390913A032FBF08950895DE
:10150000833171F120F48231E9F180E00895843172
:10151000A9F08531D1F77093E7026093E60288E283
:101520009BE09093050280930402809169008C7F78
:10153000816080936900E89A81E008957093E902E0
:101540006093E80282E29BE0909307028093060298
:1015500080916900837F846080936900E99AECCF71
:101560007093EB026093EA028CE19BE09093090296
:1015700080930802809169008F7C8061809369006C
:10158000EA9ADACF7093ED026093EC0286E19BE079
:1015900090930B0280930A02809169008F7380649C
:1015A00080936900EB9AC8CFDC01ED91FD918081B9
:1015B000ED91FD919081ED91FD916C9163708E2381
:1015C00009F064609F2309F06860E1EFFAE0E60F3C
:1015D000F11D659565956D936D917D918D919D91B1
:1015E000099423C01AC012C016C010C01EC009C082
:1015F00014C013C006C019C009C00DC007C00DC07B
:1016000014C062507040804090400BC061507040E8
:101610008040904006C06E5F01C06F5F7F4F8F4F6C
:101620009F4F9E938E937E936E9308958091EC02CC
:101630009091ED020C94D40A8091EA029091EB0211
:101640000C94D40A8091E8029091E9020C94D40A97
:101650008091E6029091E7020C94D40A8091E40212
:101660009091E5020C94D40A8091E2029091E302F9
:101670000C94D40ACF93DF93EC018B85823060F415
:10168000F894CE010E94D40A6F81788589859A8565
:101690007894DF91CF910895F894F6CF0F931F932C
:1016A000CF93DF93EC01062F142F62E0802F0E946E
:1016B000110962E0812F0E941109802F90E0FC0146
:1016C000E35DFD4FE491F0E0EE0FFF1FED5EFD4F97
:1016D000A591B491B983A883FC01ED58FD4F2491E5
:1016E0002C83812F90E0FC01E35DFD4FE491F0E05D
:1016F000EE0FFF1FED5EFD4F459154915B834A83D2
:10170000FC01ED58FD4FE491ED831F821886198688
:101710001A868BE39FE10197F1F78C91282391E0E2
:1017200009F490E0DA018C91E82309F092609E833D
:10173000BE01802F0E94800A8B87BE01812F0E94EC
:10174000800A9B85890F8B87DF91CF911F910F9125
:1017500008954F925F926F927F928F929F92AF9275
:10176000BF92CF92DF92EF92FF920F931F93CF938E
:10177000DF931F921F92CDB7DEB78C0149832A8376
:10178000660F771FF801EA5AFF4FE080F180EE0CF8
:10179000FF1CF801CF01801B910B8E159F0514F4DF
:1017A0001192F8CF8981F801E60FF71F81838A81B2
:1017B0008083680184E5C80ED11C60E0F601808159
:1017C0000E94E3085801F2E5AF0EB11C480180E524
:1017D000880E911C1E141F040CF5E1E0EE1AF108AE
:1017E000F801EE0DFF1D6080F5015080F40140808E
:1017F00088E0782E662D661F6627661F842D0E945E
:10180000E308660C61E0852D0E94E30860E0852D09
:101810000E94E3087A947110EDCFDCCF61E0F6010D
:1018200080810F900F90DF91CF911F910F91FF90CA
:10183000EF90DF90CF90BF90AF909F908F907F9070
:101840006F905F904F900C94E3088F929F92AF92AD
:10185000BF92CF92DF92EF92FF920F931F93CF939D
:10186000DF938C01D62EC72EEC01C05BDF4F68835F
:1018700079834C0182E5880E911CF40151834083E9
:101880005801F4E5AF0EB11CF501318320837801D6
:10189000F6E5EF0EF11C81E090E0F7019183808383
:1018A00061E08D2D0E94110961E0F40180810E94A8
:1018B000110961E0F50180810E94110961E0F501E3
:1018C00080810E94E308D882C982F80170965F0186
:1018D0001192EC17FD07E1F7D0E0C0E0F70180813D
:1018E0009181C817D9070CF043C020E04FE0BE013A
:1018F000C8010E94A90BF70180819181C817D907FF
:1019000034F427E04BE0BE01C8010E94A90B20E09F
:1019100049E0BE01C8010E94A90BF70180819181B5
:10192000C817D907BCF44E0183E0880C991C8A952E
:10193000E1F78A0C9B1CDD24D394F40111924F0132
:1019400020E04D2DBE01C8010E94A90BD394F9E0FF
:10195000DF12F3CFF70180819181C817D90734F4E2
:1019600020E04CE0BE01C8010E94A90B2196B6CF31
:10197000DF91CF911F910F91FF90EF90DF90CF906B
:10198000BF90AF909F908F900895FC01EA5AFF4F4F
:1019900020813181121613068CF4403178F4E42F43
:1019A000F0E0ED5AF24F2491FC01E60FF71F208B77
:1019B00041E0460F70E060E00C94A90B0895E42F1D
:1019C000DC01AA5ABF4F4D915C9114161506B4F470
:1019D000E7FDE0E20E2E000CFF0BED5AF24FE49112
:1019E0002111E068DC01A60FB71F5096EC9341E08F
:1019F000460F2E2F70E060E00C94A90B08958F9293
:101A00009F92AF92BF92CF92DF92EF92FF920F938D
:101A10001F93CF93DF93C0905F03D0906003E0905B
:101A20006103F090620320913203309133034091BF
:101A3000340350913503C701B6010E94E52788237E
:101A400009F48FC020E030E0A901C701B6010E946F
:101A50003B2A20E030E040E05FE387FD3EC3C70162
:101A6000B6010E9427290E94052A0E94EC2720E047
:101A700030E048EC52E40E9493290E94052A162F78
:101A800060932A0370932B0320E030E0A901C70183
:101A9000B6010E943B2A20E030E040E05FE387FD92
:101AA00021C3C701B6010E9427290E94052A0E946E
:101AB000EC2720E030E040E251E40E9493290E94AC
:101AC000052ACB016AE070E00E94402AD82F80935B
:101AD0002C0390932D0320E030E0A901C701B6014B
:101AE0000E943B2A20E030E040E05FE387FDFFC238
:101AF000C701B6010E9427290E94052A0E94EC27EF
:101B00000E94052ACB016AE070E00E94402AC82F9B
:101B100080932E0390932F03412F67E070E083E4BE
:101B200095E00E94C50C4D2F66E070E083E495E0DF
:101B30000E94C50C4C2F65E070E083E495E00E94A4
:101B4000C50C80915F0390916003A0916103B091F7
:101B500062038093320390933303A0933403B093D2
:101B60003503C0905B03D0905C03E0905D03F09080
:101B70005E0380904F0390905003A0905103B0906B
:101B8000520320912603309127034091280350915E
:101B90002903C701B6010E94E52781110FC0A501E5
:101BA000940160912203709123038091240390910A
:101BB00025030E94E527882309F489C020E030E04E
:101BC000A901C501B4010E94E52781119AC220E054
:101BD00030E0A901C701B6010E943B2A20E030E0B5
:101BE00040E05FE387FD88C2C701B6010E94272954
:101BF0000E94052A072E000C880B990B0E94EC27E7
:101C00006B017C0120E030E048EC52E40E94932913
:101C10000E94052A162F60931A0370931B0320E07D
:101C200030E040E251E4C701B6010E9493290E94CE
:101C3000052A8AE0A82EB12CCB01B5010E94402ACA
:101C4000D82F80931C0390931D03C701B6010E94F7
:101C5000052ACB01B5010E94402AC82F80931E039C
:101C600090931F03412F62E070E083E495E00E94AF
:101C7000C50C4D2F61E070E083E495E00E94C50C37
:101C80004C2F70E060E083E495E00E94C50C8091E9
:101C90005B0390915C03A0915D03B0915E03809320
:101CA000260390932703A0932803B09329038091E0
:101CB0004F0390915003A0915103B0915203809330
:101CC000220390932303A0932403B0932503C09091
:101CD0005303D0905403E0905503F09056032091A5
:101CE0001603309117034091180350911903C7014F
:101CF000B6010E94E527882309F48FC020E030E078
:101D0000A901C701B6010E943B2A20E030E040E073
:101D10005FE387FD64C2C701B6010E9427290E94C4
:101D2000052A0E94EC2720E030E048EC52E40E94B3
:101D300093290E94052A162F60930E0370930F03B8
:101D400020E030E0A901C701B6010E943B2A20E053
:101D500030E040E05FE387FD47C2C701B6010E9463
:101D600027290E94052A0E94EC2720E030E040E26B
:101D700051E40E9493290E94052ACB016AE070E099
:101D80000E94402AD82F809310039093110320E0E3
:101D900030E0A901C701B6010E943B2A20E030E0F3
:101DA00040E05FE387FD25C2C701B6010E942729F5
:101DB0000E94052A0E94EC270E94052ACB016AE0B6
:101DC00070E00E94402AC82F80931203909313035F
:101DD000412F67E070E08BEE94E00E94C50C4D2F20
:101DE00066E070E08BEE94E00E94C50C4C2F65E03D
:101DF00070E08BEE94E00E94C50C809153039091AB
:101E00005403A0915503B091560380931603909309
:101E10001703A0931803B0931903C0904B03D090FD
:101E20004C03E0904D03F0904E0320E030E0A90118
:101E3000C701B6010E94E527882309F479C020E094
:101E400030E0A901C701B6010E943B2A87FDD6C137
:101E500020E030E04AE754E4C701B6010E94E527DC
:101E600087FFCCC120E030E040E05FE3C701B6016E
:101E70000E9427290E94052A0E94EC276B017C0101
:101E800020E030E048EC52E40E9493290E94052AA9
:101E9000CAE0D0E0CB01BE010E94402A082F809307
:101EA00004039093050320E030E040E251E4C701D1
:101EB000B6010E9493290E94052ACB01BE010E940F
:101EC000402A182F8093060390930703C701B60199
:101ED0000E94052ACB01BE010E94402AC82F809390
:101EE00008039093090320E040E264E070E08BEE89
:101EF00094E00E94DF0C20E040E263E070E08BEEB3
:101F000094E00E94DF0C402F62E070E08BEE94E0E2
:101F10000E94C50C412F61E070E08BEE94E00E94BE
:101F2000C50C4C2F70E060E08BEE94E00E94C50C75
:101F3000C0904703D0904803E0904903F0904A03D3
:101F4000209100033091010340910203509103035B
:101F5000C701B6010E94E527882309F4F1C320E0F8
:101F600030E04AE754ECC701B6010E94E527181695
:101F70000CF41DC320E030E0A901C701B6010E94A6
:101F8000E52718160CF4F3C2A701960160E070E093
:101F900080E09FE30E9426290E94052A0E94EC27E8
:101FA00020E030E04AE754E40E9493290E94052A89
:101FB000CB016AE070E00E94402A082F8093F6026D
:101FC0009093F70220E030E0A901C701B6010E941A
:101FD000E52718160CF4D3C2A701960160E070E063
:101FE00080E09FE30E9426290E94052A0E94EC2798
:101FF00020E030E048EC52E40E9493290E94052A38
:10200000CB016AE070E00E94402A182F8093F8020A
:102010009093F90220E030E0A901C701B6010E94C7
:10202000E52718160CF4B3C2A701960160E070E032
:1020300080E09FE30E9426290E94052A0E94EC2747
:1020400020E030E040E251E40E9493290E94052AFA
:10205000CB016AE070E00E94402AD82F8093FA02F8
:102060009093FB0220E030E0A901C701B6010E9475
:10207000E52718160CF493C2A701960160E070E002
:1020800080E09FE30E9426290E94052A0E94EC27F7
:102090000E94052ACB016AE070E00E94402AC82F06
:1020A0008093FC029093FD0220E04DE267E070E037
:1020B00083E994E00E94DF0C20E0402F66E070E0AE
:1020C00083E994E00E94DF0C412F65E070E083E932
:1020D00094E00E94C50C4D2FE4C2C701B6010E94D6
:1020E0002629C1CCC701B6010E942629DECCC70132
:1020F000B6010E94262900CDC701B6010E942629FB
:1021000077CD20E030E040E85FE3C501B4010E94F4
:10211000E5278111BCCD20E030E44CE156E4C70155
:10212000B6010E944B286B017C0120E030E0A90140
:102130000E943B2A20E030E040E05FE387FD45C09D
:10214000C701B6010E9427290E94052A0E94EC2798
:102150006B017C0120E030E04AE754E40E949329BF
:102160000E94052AD62F60931C0370931D0320E064
:1021700030E048EC52E4C701B6010E9493296B019C
:102180007C0120E030E0A9010E943B2A20E030E001
:1021900040E05FE387FD1EC0C701B6010E9427290A
:1021A0000E94052ACB016AE070E00E94402AC82FF5
:1021B00080931E0390931F0321E040E262E070E0F1
:1021C00083E495E00E94DF0C54CDC701B6010E9464
:1021D0002629BACFC701B6010E942629E1CFC7013F
:1021E000B6010E9426299BCDC701B6010E9426296F
:1021F000B8CDC701B6010E942629DACD20E030E033
:102200004AE754E4C701B6010E943B2A87FDCCC0CF
:1022100020E030E44CE156E4C701B6010E94E52716
:1022200087FFC2C020E030E0A901C701B6010E94CB
:102230003B2A20E030E040E05FE387FDA1C0C7011A
:10224000B6010E9427290E94052A0E94EC2720E05F
:1022500030E04AE754E40E9493290E94052ACB010A
:102260006AE070E00E94402A082F80930403909354
:10227000050320E030E0A901C701B6010E943B2A16
:1022800020E030E040E05FE387FD7FC0C701B6019A
:102290000E9427290E94052A0E94EC2720E030E0B6
:1022A00048EC52E40E9493290E94052ACB016AE07F
:1022B00070E00E94402A182F809306039093070332
:1022C00020E030E0A901C701B6010E943B2A20E0CE
:1022D00030E040E05FE387FD5DC0C701B6010E94CA
:1022E00027290E94052A0E94EC2720E030E040E2E6
:1022F00051E40E9493290E94052ACB016AE070E014
:102300000E94402AD82F809308039093090320E06D
:1023100030E0A901C701B6010E943B2A20E030E06D
:1023200040E05FE387FD3BC0C701B6010E9427295B
:102330000E94052A0E94EC270E94052ACB016AE030
:1023400070E00E94402AC82F80930A0390930B03E9
:1023500020E040E264E070E08BEE94E00E94DF0C4D
:10236000402F63E070E08BEE94E00E94C50C412F9B
:1023700062E070E08BEE94E00E94C50C4D2FCBCD57
:10238000C701B6010E9426295ECFC701B6010E948F
:10239000262980CFC701B6010E942629A2CFC701F6
:1023A000B6010E942629C4CF20E030E44CE156E477
:1023B000C701B6010E943B2A87FDBACD20E030E07C
:1023C000A901C701B6010E943B2A20E030E040E0AD
:1023D0005FE387FDB3C0C701B6010E9427290E94B1
:1023E000052A0E94EC2720E030E44CE156E40E94EC
:1023F00093290E94052AB62E609304037093050367
:1024000020E030E0A901C701B6010E943B2A20E08C
:1024100030E040E05FE387FD96C0C701B6010E944F
:1024200027290E94052A0E94EC2720E030E04AE795
:1024300054E40E9493290E94052ACB016AE070E0CF
:102440000E94402A082F809306039093070320E000
:1024500030E0A901C701B6010E943B2A20E030E02C
:1024600040E05FE387FD74C0C701B6010E942729E1
:102470000E94052A0E94EC2720E030E048EC52E45C
:102480000E9493290E94052ACB016AE070E00E9415
:10249000402A182F809308039093090320E030E02E
:1024A000A901C701B6010E943B2A20E030E040E0CC
:1024B0005FE387FD52C0C701B6010E9427290E9431
:1024C000052A0E94EC2720E030E040E251E40E941F
:1024D00093290E94052ACB016AE070E00E94402AFD
:1024E000D82F80930A0390930B0320E030E0A901DA
:1024F000C701B6010E943B2A20E030E040E05FE3E4
:1025000087FD30C0C701B6010E9427290E94052A15
:102510000E94EC270E94052ACB016AE070E00E942D
:10252000402AC82F80930C0390930D034B2D64E039
:1025300070E08BEE94E00E94C50C12CFC701B6018B
:102540000E9426294CCFC701B6010E94262969CFD7
:10255000C701B6010E9426298BCFC701B6010E9490
:102560002629ADCFC701B6010E942629CFCF20E092
:1025700030E040E05FE3C701B60190580BCD20E0AA
:1025800030E040E05FE3C701B60190582BCD20E07A
:1025900030E040E05FE3C701B60190584BCDC70182
:1025A000B601905820E030E040E05FE36BCD20E0E2
:1025B00030E048E452ECC701B6010E94E52720E074
:1025C0004DE2882309F473C120E030E04AE754EC7F
:1025D000C701B6010E943B2A18160CF070C020E01B
:1025E00030E0A901C701B6010E94E52787FF67C057
:1025F000A701960160E070E080E09FE30E94262939
:102600000E94052A0E94EC276B017C0120E030E04B
:1026100048EC52E40E9493290E94052ACAE0D0E0C7
:10262000CB01BE010E94402A082F8093F6029093AE
:10263000F70220E030E040E251E4C701B6010E9419
:1026400093290E94052ACB01BE010E94402A182F1F
:102650008093F8029093F902C701B6010E94052AFF
:10266000CB01BE010E94402AC82F8093FA029093AA
:10267000FB0220E04DE267E070E083E994E00E9415
:10268000DF0C20E040E266E070E083E994E00E9425
:10269000DF0C402F65E070E083E994E00E94C50CF8
:1026A000412F64E070E083E994E00E94C50C4C2F58
:1026B00063E070E083E994E00E94C50C31C020E043
:1026C00030E0A901C701B6010E94E5278111E3C0EE
:1026D00020E040E267E070E083E994E00E94DF0CD4
:1026E00020E040E266E070E083E994E00E94DF0CC5
:1026F00020E040E265E070E083E994E00E94DF0CB6
:1027000020E040E264E070E083E994E00E94DF0CA6
:1027100020E040E263E070E083E994E00E94DF0C97
:102720008091470390914803A0914903B0914A03D7
:102730008093000390930103A0930203B0930303DB
:10274000C0904303D0904403E0904503F0904603CB
:1027500020E030E0A901C701B6010E94E5278823E7
:1027600009F48CC020E030E0A901C701B6010E9445
:102770003B2A20E030E040E05FE387FDD5C1C701A0
:10278000B6010E9427290E94052A0E94EC2720E01A
:1027900030E048EC52E40E9493290E94052ACB01C4
:1027A0006AE070E00E94402AD82F8093EE02909356
:1027B000EF0220E030E0A901C701B6010E943B2AE8
:1027C00020E030E040E05FE387FDB3C1C701B60120
:1027D0000E9427290E94052A0E94EC2720E030E071
:1027E00040E251E40E9493290E94052ACB016AE04D
:1027F00070E00E94402AC82F8093F0029093F1026B
:1028000020E030E0A901C701B6010E943B2A20E088
:1028100030E040E05FE387FD91C1C701B6010E944F
:1028200027290E94052A0E94EC270E94052ACB0135
:102830006AE070E00E94402AF82E8093F2029093A2
:10284000F3024D2F62E070E083E994E00E94C50C32
:102850004C2F61E070E083E994E00E94C50C4F2D9D
:1028600070E060E083E994E00E94C50C109243039D
:10287000109244031092450310924603DF91CF91CA
:102880001F910F91FF90EF90DF90CF90BF90AF908E
:102890009F908F90089520E030E048E452E4C70113
:1028A000B6010E94E527811123C020E040E267E0E5
:1028B00070E083E994E00E94DF0C20E040E266E0F3
:1028C00070E083E994E00E94DF0C20E040E265E0E4
:1028D00070E083E994E00E94DF0C20E045E064E0D2
:1028E00070E083E994E00E94DF0C20E040E012CF2A
:1028F00020E030E0A901C701B6010E943B2A20E098
:1029000030E04AE754E418160CF04AC0C701B6019B
:102910000E94E52787FF17C120E030E040E05FE339
:10292000C701B6010E9427290E94052A0E94EC27B0
:102930006B017C0120E030E048EC52E40E949329D6
:102940000E94052ACAE0D0E0CB01BE010E94402AC5
:10295000082F8093F6029093F70220E030E040E2E7
:1029600051E4C701B6010E9493290E94052ACB01B8
:10297000BE010E94402A182F8093F8029093F9021A
:10298000C701B6010E94052ACB01BE010E94402A60
:10299000C82F8093FA029093FB0220E040E26BCEB6
:1029A000C701B6010E943B2A87FDBACE20E030E085
:1029B000A901C701B6010E943B2A87FD9DC020E006
:1029C00030E040E05FE3C701B6010E9427290E9482
:1029D000052A0E94EC2720E030E04AE754E40E94F8
:1029E00093290E94052ACB016AE070E00E94402AE8
:1029F000082F8093F6029093F70220E030E0A901BF
:102A0000C701B6010E943B2A20E030E040E05FE3CE
:102A100087FD7BC0C701B6010E9427290E94052AB5
:102A20000E94EC2720E030E048EC52E40E94932919
:102A30000E94052ACB016AE070E00E94402A182F0C
:102A40008093F8029093F90220E030E0A901C701D9
:102A5000B6010E943B2A20E030E040E05FE387FDC2
:102A600059C0C701B6010E9427290E94052A0E9469
:102A7000EC2720E030E040E251E40E9493290E94DC
:102A8000052ACB016AE070E00E94402AD82F80938B
:102A9000FA029093FB0220E030E0A901C701B601E1
:102AA0000E943B2A20E030E040E05FE387FD37C032
:102AB000C701B6010E9427290E94052A0E94EC271F
:102AC0000E94052ACB016AE070E00E94402AC82FCC
:102AD0008093FC029093FD0220E040E267E070E00A
:102AE00083E994E00E94DF0C402F66E070E083E908
:102AF00094E00E94C50CE8CA20E030E040E05FE3CB
:102B0000C701B6010E94262962CFC701B6010E9403
:102B1000262984CFC701B6010E942629A6CFC70166
:102B2000B6010E942629C8CFC701B6010E942629F6
:102B30002ACEC701B6010E9426294CCEC701B60194
:102B40000E9426296ECE20E030E04AE754E4C70117
:102B5000B6010E943B2A87FF32CFE2CDFC01EA5A40
:102B6000FF4F20813181121613064CF4603171053C
:102B700030F4262F4AE070E060E00C94A90B089531
:102B8000FB0101900020E9F73197AF01461B570B7D
:102B9000DC01ED91FC910280F381E02D199462ED4E
:102BA00076E080913806909139060E94C015E2EDDA
:102BB000F6E001900020E9F7E351F74041F46CE2C0
:102BC00072E080913806909139060C94C0150895F2
:102BD000CF93DF93EC01198218821B821A821D8227
:102BE0001C8261E070E090E080E00E94D62B0097AC
:102BF000A1F0998388831B821A822C813D81232B2B
:102C000011F4FC0110821D821C826DE272E0888149
:102C10009981DF91CF910C94C02C88819981009784
:102C200011F00E944D2B198218821D821C821B827A
:102C30001A82DF91CF910895880F991FFC01E25C01
:102C4000F74F0190F081E02D309749F1808191811B
:102C500097FD22C01F922EE32F931F9221E02F9306
:102C60009F938F931F928BE68F931F928CE38F938A
:102C70008EE292E09F938F9382ED96E09F938F93E5
:102C80000E94D52C0E94CF158DB79EB70E960FB619
:102C9000F8949EBF0FBE8DBF90E080E008958FEF47
:102CA0009FEF0895FC0186819781208531858217E9
:102CB000930761F0918780872817390724F4828170
:102CC00093810C941C1684819581FBCF089577FD28
:102CD0001EC01F922EE32F937F936F939F938F932A
:102CE0001F928CE38F938CE392E09F938F9382EDFE
:102CF00096E09F938F930E94D52C8DB79EB70C962C
:102D00000FB6F8949EBF0FBE8DBF0C94CF150895DB
:102D10000F931F93CF93DF93C0910809D0910909B6
:102D2000C436D1056CF58C0180E190E00E94B12A97
:102D3000FC01DE01AA0FBB1FA25CB74FED93FC9311
:102D400015830483138212821386128681E090E039
:102D5000958784878FEF9FEF9183808397878687FE
:102D6000CE010196909309098093080910920B09EE
:102D700010920A09CE01DF91CF911F910F91089512
:102D8000CFEFDFEFF7CF4F925F926F927F928F92EC
:102D90009F92AF92BF92CF92DF92EF92FF920F93EA
:102DA0001F93CF93DF93C0910609D0910709C436D2
:102DB000D1050CF04FC04701280139017A016B01A0
:102DC0005C0184E290E00E94B12AFC01DE01AA0FBE
:102DD000BB1FAA58B84FED93FC93B78AA68A158AF1
:102DE000148AD382C2824682578260867186A70186
:102DF00070E060E0448755876687778781E090E0E0
:102E000095838483918E808E128E138E148E158EF0
:102E100013A212A28FEF9FEF91838083CE010196C0
:102E2000909307098093060910920B0910920A09E2
:102E3000CE01DF91CF911F910F91FF90EF90DF9026
:102E4000CF90BF90AF909F908F907F906F905F904A
:102E50004F900895CFEFDFEFEBCFEF92FF920F93FC
:102E60001F93CF93DF93C0910609D0910709C43611
:102E7000D1050CF048C08B017C0184E290E00E94F7
:102E8000B12AFC01DE01AA0FBB1FAA58B84FED936F
:102E9000FC93F78AE68A158A148A81E090E093838E
:102EA000828382E090E095838483118F008F80E09D
:102EB00090E0A0E8BFEB868F978FA0A3B1A384E634
:102EC00090E0A0E0B0E084879587A687B787168258
:102ED00017821086118613A212A28FEF9FEF9183A3
:102EE0008083CE0101969093070980930609109282
:102EF0000B0910920A09CE01DF91CF911F910F911A
:102F0000FF90EF900895CFEFDFEFF5CFEF92FF92B4
:102F10000F931F93CF93DF93C0910809D0910909B4
:102F2000C436D105C4F5072F162F7C0180E190E04F
:102F30000E94B12AFC01CC0FDD1FC25CD74FF98380
:102F4000E883F582E482138212821386128681E07E
:102F500090E0958784878FEF9FEF9183808316871A
:102F6000078762E0812F0E941109809108099091E2
:102F700009099C012F5F3F4F3093090920930809ED
:102F800010920B0910920A09DF91CF911F910F91B6
:102F9000FF90EF9008958FEF9FEFF6CF1F93CF93A1
:102FA000DF93C8E3D6E01F811F828CE396E00E9486
:102FB00004261F83DF91CF911F9108951F920F92D6
:102FC0000FB60F9211240BB60F922F933F934F938E
:102FD0005F936F937F938F939F93AF93BF93EF9381
:102FE000FF938BE995E00E949307FF91EF91BF91CA
:102FF000AF919F918F917F916F915F914F913F9191
:103000002F910F900BBE0F900FBE0F901F90189531
:103010001F920F920FB60F9211240BB60F922F939F
:103020008F939F93EF93FF93E091AB05F091AC05E5
:103030008081E091B105F091B20582FD1DC09081C3
:103040008091B4058F5F8F732091B505821741F091
:10305000E091B405F0E0E556FA4F958F8093B40502
:10306000FF91EF919F918F912F910F900BBE0F9039
:103070000FBE0F901F9018958081F2CF1F920F9274
:103080000FB60F9211242F933F938F939F93AF937B
:10309000BF938091370390913803A0913903B09189
:1030A0003A033091360323E0230F2D3758F501966C
:1030B000A11DB11D209336038093370390933803ED
:1030C000A0933903B0933A0380913B0390913C0362
:1030D000A0913D03B0913E030196A11DB11D8093C7
:1030E0003B0390933C03A0933D03B0933E03BF91F9
:1030F000AF919F918F913F912F910F900FBE0F90A5
:103100001F90189526E8230F0296A11DB11DD2CF5E
:103110001F920F920FB60F9211240BB60F922F939E
:103120003F934F935F936F937F938F939F93AF934F
:10313000BF93EF93FF93E0910E02F0910F02199568
:10314000FF91EF91BF91AF919F918F917F916F917F
:103150005F914F913F912F910F900BBE0F900FBE3B
:103160000F901F9018951F920F920FB60F92112477
:103170000BB60F922F933F934F935F936F937F9371
:103180008F939F93AF93BF93EF93FF93E0910C02C4
:10319000F0910D021995FF91EF91BF91AF919F9121
:1031A0008F917F916F915F914F913F912F910F90F0
:1031B0000BBE0F900FBE0F901F9018951F920F928D
:1031C0000FB60F9211240BB60F922F933F934F938C
:1031D0005F936F937F938F939F93AF93BF93EF937F
:1031E000FF93E0910202F09103021995FF91EF9194
:1031F000BF91AF919F918F917F916F915F914F910F
:103200003F912F910F900BBE0F900FBE0F901F900C
:1032100018951F920F920FB60F9211240BB60F92B2
:103220002F933F934F935F936F937F938F939F93CE
:10323000AF93BF93EF93FF93E0910002F0910102EF
:103240001995FF91EF91BF91AF919F918F917F91D0
:103250006F915F914F913F912F910F900BBE0F9007
:103260000FBE0F901F9018951F920F920FB60F92DE
:1032700011240BB60F922F933F934F935F936F934D
:103280007F938F939F93AF93BF93EF93FF93E091BF
:103290000A02F0910B021995FF91EF91BF91AF9146
:1032A0009F918F917F916F915F914F913F912F915E
:1032B0000F900BBE0F900FBE0F901F9018951F928E
:1032C0000F920FB60F9211240BB60F922F933F93CC
:1032D0004F935F936F937F938F939F93AF93BF931E
:1032E000EF93FF93E0910802F09109021995FF9185
:1032F000EF91BF91AF919F918F917F916F915F916E
:103300004F913F912F910F900BBE0F900FBE0F90DA
:103310001F9018951F920F920FB60F9211240BB6A3
:103320000F922F933F934F935F936F937F938F935E
:103330009F93AF93BF93EF93FF93E0910602F091B9
:1033400007021995FF91EF91BF91AF919F918F91D6
:103350007F916F915F914F913F912F910F900BBE95
:103360000F900FBE0F901F9018951F920F920FB6DF
:103370000F9211240BB60F922F933F934F935F93AD
:103380006F937F938F939F93AF93BF93EF93FF932D
:10339000E0910402F09105021995FF91EF91BF9120
:1033A000AF919F918F917F916F915F914F913F91DD
:1033B0002F910F900BBE0F900FBE0F901F9018957E
:1033C0008BBFFB0107900020E9F7609570956E0FA9
:1033D0007F1FCB010895FA016BBFDC012150304003
:1033E00030F08D910790801919F40020B9F7881BEF
:1033F000990B0895EBE9F5E0138212828EE192E0D9
:103400009183808385EC90E09587848784EC90E0BD
:103410009787868780EC90E0918B808B81EC90E0A1
:10342000938B828B82EC90E0958B848B86EC90E082
:10343000978B868B118E128E138E148EF093390615
:10344000E093380684EF91E0A0E0B0E084839583B8
:10345000A683B7832FE230E040E350E06EE270E0F5
:1034600083E495E00E94250C24E230E043E250E042
:1034700062E270E08BEE94E00E94250C2EE130E0D9
:103480004CE150E06FE170E083E994E00E94250C8C
:1034900044E365E387E894E00E944E0B45E267E26F
:1034A0008BE794E00E944E0B40E261E28FE694E0ED
:1034B0000E944E0B4EE06FE083E694E00E944E0BBC
:1034C0004DE06CE087E594E00E944E0B4AE16DE12F
:1034D0008BE494E00E944E0B85E494E00E94E81592
:1034E0008FE394E00C94E815789484B5826084BDF1
:1034F00084B5816084BD85B5826085BD85B58160F8
:1035000085BD80916E00816080936E001092810075
:103510008091810082608093810080918100816030
:1035200080938100809180008160809380008091F1
:10353000B10084608093B1008091B000816080937D
:10354000B000809191008260809391008091910001
:1035500081608093910080919000816080939000C1
:103560008091A10082608093A1008091A100816080
:103570008093A1008091A00081608093A000809141
:1035800021018260809321018091210181608093DB
:1035900021018091200181608093200180917A0037
:1035A000846080937A0080917A00826080937A00B0
:1035B00080917A00816080937A0080917A0080689F
:1035C00080937A001092C100F894109252041092E5
:1035D000530410925404109255047894F894109265
:1035E00082041092830410928404109285047894CB
:1035F000F894109276041092770410927804109246
:1036000079047894F89410926A0410926B041092E2
:103610006C0410926D047894F89410925E041092E9
:103620005F0410926004109261047894F8941092F0
:103630008E0410928F04109290041092910478944A
:1036400062E0809191030E941109CFEFDFEFD093E8
:103650009A03C093990362E0809183030E94110949
:10366000D0938C03C0938B0362E0809175030E941A
:103670001109D0937E03C0937D0362E080916703BC
:103680000E941109D0937003C0936F038091990534
:1036900090919A051816190644F421E04CE070E068
:1036A00060E083E495E00E94A90BC0911002D091E4
:1036B0001102BE0183E495E00E94AE1580914105A0
:1036C000909142051816190644F421E04CE070E090
:1036D00060E08BEE94E00E94A90BBE018BEE94E0BB
:1036E0000E94AE158091E9049091EA04181619061B
:1036F00044F421E04CE070E060E083E994E00E9453
:10370000A90BBE0183E994E00E94AE150E94FF0C54
:1037100062E086E30E94110962E082E30E941109DF
:1037200062E08EE30E94110962E081E30E941109C8
:1037300062E08AE20E94110962E080E40E941109BD
:1037400062E08BE30E94110962E08CE30E941109A0
:1037500062E08BE20E94110962E083E30E9411099A
:1037600062E087E30E94110962E08AE30E94110986
:1037700062E085E40E94110962E084E10E9411097F
:1037800062E087E00E94110962E086E10E9411096F
:1037900062E083E00E94110962E084E00E94110966
:1037A00062E08BE00E94110962E089E00E94110949
:1037B00062E089E10E94110962E08BE10E94110937
:1037C00061E082E00E94110970E060E082E00E9406
:1037D0004209E091AB05F091AC0582E08083E09175
:1037E000A705F091A8051082E091A905F091AA051E
:1037F00080E180831092B305E091AF05F091B005B0
:1038000086E08083E091AD05F091AE058081806116
:103810008083E091AD05F091AE0580818860808362
:10382000E091AD05F091AE05808180688083E091E4
:10383000AD05F091AE0580818F7D808388E492E0B4
:10384000909375078093740710926B0710926A0724
:10385000109207091092060910920909109208099E
:1038600010920B0910920A0910923A060FEDE02E01
:1038700003E0F02E00E010E098014AE050E061E043
:1038800070E082E39DE00E94C3168BEDE82E83E09A
:10389000F82E00E010E098014AE050E061E070E0AE
:1038A0008EE09DE00E94C31697EDE92E93E0F92E7D
:1038B00000E010E098014AE050E061E070E088EE3E
:1038C0009CE00E94C31623EDE22E23E0F22E00E0DE
:1038D00010E098014AE050E061E070E084EC9CE088
:1038E0000E94C3163FECE32E33E0F32E00E010E01D
:1038F00098014AE050E061E070E081EA9CE00E94BB
:10390000C3164BECE42E43E0F42E00E010E09801E7
:103910004AE050E061E070E08CE79CE00E94C31652
:1039200057ECE52E53E0F52E00E010E098014AE058
:1039300050E061E070E08AE59CE00E94C31663EC11
:10394000E62E63E0F62E00E010E098014AE050E039
:1039500061E070E084E39CE00E94C3167FEBE72EF9
:1039600073E0F72E00E010E098014AE050E061E0DB
:1039700070E08EE09CE00E94C316EBEBEE2EE3E0DD
:10398000FE2E00E010E098014AE050E061E070E0B7
:103990008DEE9BE00E94C316F7EBEF2EF3E0FF2EB7
:1039A00000E010E098014AE050E061E070E089EC4E
:1039B0009BE00E94C316A3EBEA2EA3E0FA2E00E0E0
:1039C00010E098014AE050E061E070E085EA9BE099
:1039D0000E94C316BFEAEB2EB3E0FB2E00E010E01E
:1039E00098014AE050E061E070E081E89BE00E94CD
:1039F000C316CBEAEC2EC3E0FC2E00E010E09801E9
:103A00004AE050E061E070E08DE59BE00E94C31663
:103A1000D7EAED2ED3E0FD2E00E010E098014AE059
:103A200050E061E070E082E39BE00E94C31613EA7D
:103A3000E12E13E0F12E00E010E098014AE050E0A2
:103A400061E070E088E09BE00E94C3160FE9E02E81
:103A500003E0F02E00E010E098014AE050E061E061
:103A600070E080EE9AE00E94C31661E370E080ECA3
:103A70009AE00E9486176AE270E08DE99AE00E945F
:103A800086176CE370E08BE79AE00E9486176BE282
:103A900070E086E59AE00E94861763E370E081E3B8
:103AA0009AE00E94861767E370E08FE09AE00E9438
:103AB00086176AE370E08BEE99E00E94861765E452
:103AC00070E08AEC99E00E94861764E170E085EA74
:103AD00099E00E94861766E170E085E899E00E940F
:103AE000861763E070E082E699E00E94861764E042
:103AF00070E08FE399E00E9486176BE070E08CE144
:103B000099E00E94861769E070E089EF98E00E94D2
:103B100086176BE370E087ED98E00E94861767E0F8
:103B200070E085EB98E00E94861760E470E08CE816
:103B300098E00E94861787E698E00E94881682E443
:103B400098E00E9488168DEEE82E83E0F82E00E0C3
:103B500010E028EC32E450E040E062E070E08CE1FC
:103B600098E00E94C31699EEE92E93E0F92E00E04A
:103B700010E028EC32E450E040E062E070E086EFD4
:103B800097E00E94C31621EFE22E23E0F22E00E020
:103B900010E028EC32E450E040E062E070E08FECAE
:103BA00097E00E94C31633E6E32E33E0F32E00E0E5
:103BB00010E028EC32E450E040E061E070E08DEA93
:103BC00097E00E94C31645EEE42E43E0F42E00E099
:103BD00010E028EC32E450E040E061E070E087E87B
:103BE00097E00E94C3168EE597E00E948816909396
:103BF000E4038093E303C0910609D0910709C4361A
:103C0000D105ECF584E290E00E94B12AFC01DE01CE
:103C1000AA0FBB1FAA58B84F8D939C93178A168A78
:103C200085E592E0958B848B81E090E0938382839D
:103C300082E090E09583848387E394E0918F808F86
:103C4000168E178E10A211A28AE090E0A0E0B0E0DC
:103C500084879587A687B787168217821086118674
:103C600013A212A28FEF9FEF918380832196D093AE
:103C70000709C093060910920B0910920A096FE513
:103C800073E08AE397E00E942D176BE573E08BE009
:103C900097E00E942D1767E5E62E63E0F62E00E020
:103CA00010E0980144E650E061E070E08BEE96E0B1
:103CB0000E94C31663E573E087EC96E00E942D171F
:103CC0006FE473E080EA96E00E942D176BE473E0E6
:103CD0008CE796E00E942D1767E473E08AE596E092
:103CE0000E942D1763E473E084E396E00E942D1791
:103CF0007FE3E72E73E0F72E00E010E0980144E642
:103D000050E061E070E08FE096E00E94C31686EE1E
:103D100095E00E94881690932E0480932D048DEBDD
:103D200095E00E9488169093300480932F0483EAD4
:103D300095E00E948816909324048093230487E8DA
:103D400095E00E948816909326048093250485E6CA
:103D500095E00E94881690931A048093190483E4D6
:103D600095E00E94881690931C0480931B0480E2C7
:103D700095E00E9488169093100480930F048DEFB5
:103D800094E00E94881690931204809311048DEDA4
:103D900094E00E94881690930604809305048BEBB0
:103DA00094E00E948816909308048093070484E9A5
:103DB00094E00E9488169093FC038093FB038DE6A9
:103DC00094E00E9488169093FE038093FD038CE399
:103DD00094E00E94881690939403809393038BE061
:103DE00094E00E94881690939603809395038DED3E
:103DF00093E00E94881690938603809385038FEA50
:103E000093E00E948816909388038093870380E84C
:103E100093E00E948816909378038093770381E55E
:103E200093E00E94881690937A038093790388E246
:103E300093E00E94881690936A03809369038FEF42
:103E400092E00E94881690936C0380936B03E2EDDE
:103E50006E2EE6E07E2EF4E08F2E912CA12CB12C5C
:103E60008091380690913906DC01ED91FC91008437
:103E7000F185E02D199520913A06892B81F02C339C
:103E800081F08091380690913906DC01ED91FC912A
:103E90000284F385E02D199580933A06E1CF2C3307
:103EA000C1F500913806109139065BE3E52E56E026
:103EB000F52ED0E0C0E00E94730AF8016087718798
:103EC00082879387D801ED91FC910284F385E02DE0
:103ED000C801199597FF54C60E94730AF8012085FE
:103EE000318542855385621B730B840B950B2481AE
:103EF000358146815781621773078407950710F350
:103F0000D093D106C093D006209709F063C01092D9
:103F10003A0680910A0990910B09892B09F45DC436
:103F200088E3C82E86E0D82EF12CE12C809106097A
:103F300090910709E816F9060CF4E0C2CEE3D8E048
:103F400010E000E08091080990910909081719070D
:103F50000CF043C4E881F9818081918197FD36C0DE
:103F60000E94730AE881F981C680D780E084F184D9
:103F70006C197D098E099F096D327140810591058B
:103F800028F18685978597FDFEC30E94BA087C01BB
:103F9000E881F98184859585E816F906B9F0608194
:103FA000718181E0E816F10409F0E8C38AE690E047
:103FB0000E9467160E94730AE881F98166837783FD
:103FC00080879187E881F981F586E4860F5F1F4F2E
:103FD0002296B8CFFE01E85CF94F2EE323832296A8
:103FE000D093D106C093D006C85CD94F1A82809175
:103FF0003B06813609F44EC074F4833309F499C04A
:10400000843309F4EBC0823309F081CF10926B073F
:1040100010926A077CCF853609F4FAC1863611F111
:10402000843609F074CFE6E7F7E090E080E041E005
:1040300050E02091060930910709821793070CF090
:1040400066CFA191B19112962D913C911397225078
:1040500031092230310520F41B965C934E931A9758
:104060000196E7CF2091060930910709E6E7F7E0CE
:1040700090E080E0821793070CF074C184369105BC
:1040800009F470C1C191D1914881598157FDFBC09C
:104090000196F0CF80917407909175070097E1F039
:1040A0001F922F939F938F931F9280E38F931F9262
:1040B0008CE38F938CE792E09F938F937F926F9224
:1040C0000E94D52C0E94CF15EDB7FEB73C960FB6D7
:1040D000F894FEBF0FBEEDBF81E090E090936B07B8
:1040E00080936A07E6E7F7E090E080E02091060918
:1040F0003091070982179307A4F0EEE3F8E090E00F
:1041000080E02091080930910909821793070CF08B
:10411000FECEA191B1912FEF3FEF2D933C930196ED
:10412000F0CFA191B1912FEF3FEF2D933C930196EA
:10413000DDCFD0E0C0E08091060990910709C81753
:10414000D9070CF0E4CEFE01EE0FFF1FEA58F84F3E
:1041500000811181D80154966D917C916115710592
:10416000F1F0FB0101900020E9F73197AF01461B08
:10417000570B8FE396E00E94C72C892B71F4F8014E
:1041800080819181019649F40E94CE17D8018D93C8
:104190009C93C0910609D09107092196CCCFF801D4
:1041A000C688D7880D2C000CEE08FF08C701B601A1
:1041B0000E94E0199C01B701A6018FE396E00E94DE
:1041C000EB19892B51F7D8018D919C91019629F714
:1041D0000E94CE17F80191838083DBCFD0E0C0E04E
:1041E0008091080990910909C817D9070CF08FCE62
:1041F000FE01EE0FFF1FE25CF74F00811181D80135
:1042000012966D917C9161157105F1F0FB010190A1
:104210000020E9F73197AF01461B570B8FE396E07B
:104220000E94C72C892B71F4F8018081918101963D
:1042300049F40E94CE17D8018D939C93C091080930
:10424000D09109092196CCCFF801C480D5800D2CDE
:10425000000CEE08FF08C701B6010E94E0199C019E
:10426000B701A6018FE396E00E94EB19892B51F765
:10427000D8018D919C91019629F70E94CE17F801E3
:1042800091838083DBCF0C891D89CE80DF80E88419
:10429000F98420E030E048EC52E4C701B6010E9406
:1042A0004B280E94052ACB0164E670E00E94402A58
:1042B000582E492EC701B6010E94052A2AA13BA10A
:1042C0008A819B810115110539F11F924EE34F93AD
:1042D0001F930F934F925F927F936F933F932F9310
:1042E0009F938F931F9282E68F931F928CE38F93FD
:1042F00085E892E09F938F937F926F920E94D52CD6
:104300002DB73EB72C5E3F4F0FB6F8943EBF0FBEA1
:104310002DBF0E94CF15FBCD1F924EE34F934F89C7
:104320004F934E894F934F925F927F936F933F933A
:104330002F939F938F931F9282E68F931F928CE30C
:104340008F9381EA92E09F938F937F926F920E9466
:10435000D52C8DB79EB744960FB6F8949EBF0FBE6E
:104360008DBFD7CFAEE3B8E090E080E020910809A0
:1043700030910909821793070CF00FC48436910518
:1043800009F40BC4ED91FD912081318137FD02C00C
:104390000196ECCF828193810097E1F01F922EE38A
:1043A0002F939F938F931F928DE68F931F928CE391
:1043B0008F938CE792E09F938F937F926F920E94EE
:1043C000D52CADB7BEB71C960FB6F894BEBF0FBEC6
:1043D000ADBF9FCF1F928EE38F9385818F93848192
:1043E0008F931F928DE68F931F928CE38F938DEBAB
:1043F00092E09F938F937F926F920E94D52CEDB79E
:10440000FEB73C960FB6F894FEBF0FBEEDBF81CF4E
:104410000E94CE177C0190E080E020910609309147
:104420000709821793070CF072CDEC01C156DF4FDC
:104430008E01000F111F085C194FD801ED91FC91FE
:1044400020813181E216F30609F056C022813381C2
:104450002D7F2130310509F04FC08481958101976E
:10446000F9F4C08CD18C50904906109249068FE324
:1044700096E00E942226F6016083718382839383F3
:1044800050924906D801ED91FC91A08DB18D8D918E
:104490009D910D90BC91A02D828F938FA48FB58F8D
:1044A000CC0FDD1FC85CD94FE881F98184819581EB
:1044B0000297F1F4008D118DD090490610924906B3
:1044C0008FE396E00E940026F80160837183828367
:1044D0009383D0924906E881F981A08DB18D8D91A9
:1044E0009D910D90BC91A02D868F978FA0A3B1A315
:1044F000809106099091070901968FCFE601C25C71
:10450000DE4FA881B9818D919C91119797FD11C0C3
:1045100012968D919C9113970297029750F41496DE
:104520008D919C9115978130910551F0029709F476
:1045300085C0FFEFEF1AFF0A22E0C20ED11CF6CCB5
:104540005896ED91FC915997408151816281738118
:104550005A968D919D910D90BC91A02D48175907A9
:104560006A077B0731F30E94730AE881F9810089A9
:10457000118922893389AB01BC01401B510B620BAD
:10458000730B84859585A685B78521E0892B8A2BB9
:104590008B2B29F482859385892B09F420E0822FC7
:1045A00090E0B0E0A0E084179507A607B70708F6EB
:1045B0008081918197FD25C01F922EE32F93008C5F
:1045C000F18DE02D21812F9320812F939F938F9345
:1045D0001F9235E63F931F928CE38F93AEE2B2E0D9
:1045E000BF93AF937F926F920E94D52C0E94CF15FC
:1045F0002DB73EB7225F3F4F0FB6F8943EBF0FBEB8
:104600002DBFE881F981A08DB18D8D919D910D9087
:10461000BC91A02D828F938FA48FB58F08811981B3
:104620000E94730AD80150966D937D938D939C934D
:104630005397E881F981138612867BCF5896ED91C6
:10464000FC9159975E962D913D914D915C9191977A
:1046500060817181828193810E94E527811177C0F9
:10466000E881F98182859385892B09F462CFE881FD
:10467000F9810081118117FD53C0008CF18DE02D6F
:1046800020803180428053801F92BEE3BF9320E0A0
:1046900030E048EC52E4C201B1010E944B280E9474
:1046A000052ACB0164E670E00E94402A97FF03C010
:1046B0009195819591099F938F93C201B1010E94B9
:1046C000052A9B0177FF04C022273327261B370BBF
:1046D0003F932F931F930F931F92E5E6EF931F9243
:1046E000FCE3FF9326EC32E03F932F937F926F928F
:1046F0000E94D52CADB7BEB750960FB6F894BEBF8A
:104700000FBEADBF20E030E0A901C201B1010E949F
:10471000E52787FF03C0BDE2B093D7060E94CF15FF
:10472000E881F981A08DB18D8D919D910D90BC9105
:10473000A02D868F978FA0A3B1A3088119810E9415
:10474000730AF801608B718B828B938B72CF0E94FE
:10475000730AE881F9810089118922893389601BF4
:10476000710B820B930B04851585268537850617FB
:1047700017072807390708F073CF79CF89E690E04B
:104780000E9467161FCCA285B385109709F41ECC32
:104790008D919C91248535858217930709F416CC59
:1047A0006081718118161906ACF48AE690E00E94C7
:1047B0006716E881F981A285B3858D919C919587D3
:1047C00084870E94730AE881F981668377838087F2
:1047D0009187FCCB89E690E0EACF80910A0990911D
:1047E0000B09892B09F4B5C1809112029091130233
:1047F000892B01F1D0E0C0E0BE0182E00E944209B5
:104800000E943E0A2196C11591E0D907A9F7CFEF82
:10481000D0E0BE0182E00E9442090E943E0A219738
:10482000C0F76FE770E082E00E9442091092130225
:1048300010921202C0903704D0903804E0903904EE
:10484000F0903A04A701960160913B0470913C04FA
:1048500080913D0490913E040E94E527882309F44D
:104860004EC020E030E04FE753E4C701B6010E949C
:104870004B2820E030E0A9010E9427290E94052A48
:10488000709311026093100282E00E94420920E0BE
:1048900030E040E850E46091370470913804809132
:1048A000390490913A040E944B2820E030E0A9019D
:1048B0000E9427290E94052A6B0170933604609399
:1048C000350483E495E00E94AE15B6018BEE94E0CA
:1048D0000E94AE15B60183E994E00E94AE15809166
:1048E000370490913804A0913904B0913A04809330
:1048F0003B0490933C04A0933D04B0933E048BE4AE
:1049000094E00E943A0BA50194010E94542A30932E
:104910003204209331048BE794E00E943A0BA50106
:1049200094010E94542A30932804209327048FE690
:1049300094E00E943A0BA50194010E94542A3093FE
:104940001E0420931D0483E694E00E943A0BA50107
:1049500094010E94542A309314042093130487E591
:1049600094E00E943A0BA50194010E94542A3093CE
:104970000A042093090487E894E00E943A0BA501F9
:1049800094010E94542A309300042093FF038BE289
:1049900094E00E94521681E294E00E94521687E150
:1049A00094E00E9452168DE094E00E94521683E03B
:1049B00094E00E94521689EF93E00E9452160E94E2
:1049C000FF0C0E94730A0091F5031091F6032091E9
:1049D000F7033091F803601B710B820B930B653664
:1049E00071058105910508F4B4C00E94730A6093B3
:1049F000F5037093F6038093F7039093F8038EE327
:104A00000E94BA0841E050E060E070E0892B19F0A4
:104A100040E050E0BA014093F1035093F2036093F9
:104A2000F3037093F40382E30E94BA0841E050E07C
:104A300060E070E0892B19F040E050E0BA0140934B
:104A4000ED035093EE036093EF037093F0038BE15B
:104A50000E94BA0841E050E060E070E0892B19F054
:104A600040E050E0BA014093E9035093EA036093B9
:104A7000EB037093EC0389E10E94BA08892B09F0DB
:104A80006BC08091E5039091E603A091E703B0919C
:104A9000E803892B8A2B8B2B09F05EC08091E303FE
:104AA0009091E4030E941C166091DF038CE20E9447
:104AB000E3086091DB038DE20E94E3086091D70375
:104AC00088E20E94E3086091D3038DE30E94E3082B
:104AD0006091CF0388E30E94E3086091CB0389E3F0
:104AE0000E94E3086091C70383E40E94E308609199
:104AF000C30389E20E94E3086091BF0385E10E943D
:104B0000E3086091BB0387E10E94E3086091B7036B
:104B100085E00E94E3086091B30386E00E94E30809
:104B20006091AF038AE00E94E3086091AB0388E0E4
:104B30000E94E3086091A7038FE30E94E30860915D
:104B4000A30386E20E94E30860919F0388E10E942C
:104B5000E3080E94220884C989E10E94BA08892BCF
:104B600009F4A2CF8091E5039091E603A091E703B9
:104B7000B091E803892B8A2B8B2B09F08FCF94CF30
:104B80008E33910509F4BCC9D7018D937D0121961F
:104B9000C539D10509F08FC9B3C981E090E0909380
:104BA0000B0980930A091F928EE38F931F9283E66D
:104BB0008F931F928CE38F938BED92E09F938F9353
:104BC0007F926F920E94D52C0E94CF15EDB7FEB751
:104BD0003A960FB6F894FEBF0FBEEDBF98C980910C
:104BE0003F0490914004009711F00E944D2B80915A
:104BF000450490914604009711F00C944D2B0895B4
:104C0000662777270C946626FC0188279927E89465
:104C100021912032E9F3293010F02E30C8F32B32E5
:104C200041F02D3239F4689404C00E945E26820F50
:104C3000911D219120532A30C0F31EF49095819547
:104C40009F4F08951F93FC0199278827BC01E89482
:104C500011911032E9F3193010F01E30C8F31B32F5
:104C600051F01D3249F4689406C00E944926610F34
:104C7000711D811D911D119110531A30B0F33EF436
:104C800090958095709561957F4F8F4F9F4F1F91A5
:104C90000895592F482F372F262F660F771F881F0B
:104CA000991F660F771F881F991F620F731F841F3C
:104CB000951F660F771F881F991F08957AE0979FA9
:104CC000902D879F802D910D112408958F929F9292
:104CD000AF92BF92CF92DF92EF92FF920F931F930A
:104CE000CF93DF935C017B016115710519F0DB0146
:104CF0008D939C9385010F5F1F4FF501D0818D2F00
:104D000090E00E94C4276C01892BB9F5DD32B9F51A
:104D10000F5F1F4FD5011196DC91C1E05801F1E002
:104D2000AF1AB10843E050E06CEA71E0C5010E949F
:104D3000CD27892B69F5680182E0C80ED11C45E0BA
:104D400050E067EA71E0C6010E94CD27892B21F46B
:104D5000680197E0C90ED11CE114F10419F0D701E4
:104D6000CD92DC9260E070E080E89FEFC111FFC05F
:104D700060E070E080E89FE7FAC05801BBCFDB320B
:104D800029F485010E5F1F4FF501D181C0E0C6CF28
:104D900043E050E064EA71E0C5010E94CD27892B11
:104DA000E9F0F80110E000E020E030E0A9015F0147
:104DB000B0ED8B2E8D0E89E08815C8F19C2E68947D
:104DC00091F88C2F8870C2FF16C0811102C00F5F4E
:104DD0001F4F3196D501DC91C92DE9CFE114F104C3
:104DE00029F00E5F1F4FF7011183008360E070E030
:104DF00080EC9FE7BCC0882311F001501109A5E0A9
:104E0000B0E00E940C299B01AC01220F331F441F0C
:104E1000551F280D311D411D511D283999E93907AC
:104E2000490799E15907A8F2C6609C2ED2CFAEEF90
:104E30008A1206C0C3FD3CC09C2E689493F8C9CF6B
:104E4000DF7DD534A9F580818D3239F4C061DF0171
:104E50001296818162E070E006C0DF018B32C1F3FF
:104E6000119661E070E080535D01A61AB70A8A309E
:104E7000F8F4E0E8CE16ECE0DE065CF4B601660F6E
:104E8000771F660F771FC60ED71ECC0CDD1CC80E11
:104E9000D11C5D01FFEFAF1ABF0A8C9180538A309D
:104EA000A8F1C4FF03C0D194C194D1080C0D1D1DFD
:104EB000C1FF09C0E114F10431F081E0A81AB10882
:104EC000D701AD92BC92CA01B9010E94EA27C37012
:104ED000C33009F490584B015C0120E030E0A90197
:104EE0000E94E527882309F440C0CBEDD1E017FFED
:104EF00005C0119501951109C3ECD1E06E01B8E12F
:104F0000CB1AD10880E2E82EF12C0FC0D501B1CF29
:104F1000FE0125913591459154910E191F09C50146
:104F2000B4010E944B284B015C01D501C4010E1550
:104F30001F0574F72497F594E794CC16DD06A9F7BE
:104F40008A2F880F8B2F881F8F3F49F020E030E099
:104F5000A901C501B4010E94E527811106C082E2C2
:104F600090E090930D0980930C09C501B401DF9185
:104F7000CF911F910F91FF90EF90DF90CF90BF9056
:104F8000AF909F908F90089591110C94B828803223
:104F900019F089508550C8F70895FB01DC01415094
:104FA000504088F08D9181341CF08B350CF4805E7C
:104FB000659161341CF06B350CF4605E861B6111E9
:104FC00071F3990B0895881BFCCF0E94272808F4E1
:104FD00081E00895E89409C097FB3EF49095809590
:104FE000709561957F4F8F4F9F4F9923A9F0F92FAF
:104FF00096E9BB279395F695879577956795B7952D
:10500000F111F8CFFAF4BB0F11F460FF1BC06F5F12
:105010007F4F8F4F9F4F16C0882311F096E911C024
:10502000772321F09EE8872F762F05C0662371F045
:1050300096E8862F70E060E02AF09A95660F771F59
:10504000881FDAF7880F9695879597F90895990F35
:105050000008550FAA0BE0E8FEEF16161706E80742
:10506000F907C0F012161306E407F50798F0621B63
:10507000730B840B950B39F40A2661F0232B242B38
:10508000252B21F408950A2609F4A140A6958FEF57
:10509000811D811D08950E945E280C94D2280E94D3
:1050A000C42838F00E94CB2820F0952311F00C94EE
:1050B000BB280C94C12811240C9406290E94E328D3
:1050C00070F3959FC1F3950F50E0551F629FF0015B
:1050D000729FBB27F00DB11D639FAA27F00DB11D74
:1050E000AA1F649F6627B00DA11D661F829F2227FD
:1050F000B00DA11D621F739FB00DA11D621F839F84
:10510000A00D611D221F749F3327A00D611D231F59
:10511000849F600D211D822F762F6A2F11249F57A7
:1051200050409AF0F1F088234AF0EE0FFF1FBB1FAA
:10513000661F771F881F91505040A9F79E3F510569
:1051400080F00C94BB280C9406295F3FE4F3983E52
:10515000D4F3869577956795B795F795E7959F5F13
:10516000C1F7FE2B880F911D9695879597F90895A5
:1051700099278827089597F99F6780E870E060E095
:1051800008959FEF80EC089500240A9416161706E0
:1051900018060906089500240A9412161306140628
:1051A00005060895092E0394000C11F4882352F08B
:1051B000BB0F40F4BF2B11F460FF04C06F5F7F4F43
:1051C0008F4F9F4F089557FD9058440F551F59F02A
:1051D0005F3F71F04795880F97FB991F61F09F3FE4
:1051E00079F087950895121613061406551FF2CF0D
:1051F0004695F1DF08C0161617061806991FF1CF5D
:1052000086957105610508940895E894BB27662783
:105210007727CB0197F908950E941729A59F900D34
:10522000B49F900DA49F800D911D11240895A29FFD
:10523000B001B39FC001A39F700D811D1124911D6A
:10524000B29F700D811D1124911D08955058BB27E8
:10525000AA270E943E290C94D2280E94C42838F024
:105260000E94CB2820F039F49F3F19F426F40C94C7
:10527000C1280EF4E095E7FB0C94BB28E92F0E94AF
:10528000E32858F3BA17620773078407950720F0DD
:1052900079F4A6F50C9405290EF4E0950B2EBA2F9F
:1052A000A02D0B01B90190010C01CA01A00111242C
:1052B000FF27591B99F0593F50F4503E68F11A16D8
:1052C000F040A22F232F342F4427585FF3CF469569
:1052D00037952795A795F0405395C9F77EF41F168B
:1052E000BA0B620B730B840BBAF09150A1F0FF0F55
:1052F000BB1F661F771F881FC2F70EC0BA0F621F41
:10530000731F841F48F4879577956795B795F79530
:105310009E3F08F0B0CF9395880F08F09927EE0FC5
:105320009795879508950E94A7290C94D2280E94EA
:10533000CB2858F00E94C42840F029F45F3F29F0A0
:105340000C94BB2851110C9406290C94C1280E947E
:10535000E32868F39923B1F3552391F3951B550B7B
:10536000BB27AA2762177307840738F09F5F5F4F38
:10537000220F331F441FAA1FA9F335D00E2E3AF077
:10538000E0E832D091505040E695001CCAF72BD08F
:10539000FE2F29D0660F771F881FBB1F26173707E0
:1053A0004807AB07B0E809F0BB0B802DBF01FF2712
:1053B00093585F4F3AF09E3F510578F00C94BB280C
:1053C0000C9406295F3FE4F3983ED4F386957795D5
:1053D0006795B795F7959F5FC9F7880F911D9695CB
:1053E000879597F90895E1E0660F771F881FBB1F27
:1053F000621773078407BA0720F0621B730B840BD4
:10540000BA0BEE1F88F7E09508950E940C2A689465
:10541000B1110C94062908950E94EB2888F09F573B
:1054200098F0B92F9927B751B0F0E1F0660F771FC8
:10543000881F991F1AF0BA95C9F714C0B13091F0BE
:105440000E940529B1E008950C940529672F782F53
:105450008827B85F39F0B93FCCF386957795679583
:10546000B395D9F73EF490958095709561957F4FEF
:105470008F4F9F4F08950E94272808F48FEF0895BB
:1054800097FB072E16F4009407D077FD09D00E94F1
:105490007B2A07FC05D03EF4909581959F4F089597
:1054A000709561957F4F0895052E97FB1EF400942B
:1054B0000E946B2A57FD07D00E948F2A07FC03D059
:1054C0004EF40C946B2A50954095309521953F4FA2
:1054D0004F4F5F4F089590958095709561957F4FE0
:1054E0008F4F9F4F0895EE0FFF1F881F8BBF0790B0
:1054F000F691E02D1994AA1BBB1B51E107C0AA1F0E
:10550000BB1FA617B70710F0A61BB70B881F991F64
:105510005A95A9F780959095BC01CD010895A1E217
:105520001A2EAA1BBB1BFD010DC0AA1FBB1FEE1F1D
:10553000FF1FA217B307E407F50720F0A21BB30B68
:10554000E40BF50B661F771F881F991F1A9469F7E4
:1055500060957095809590959B01AC01BD01CF0140
:1055600008950F931F93CF93DF938230910510F42A
:1055700082E090E0E0911009F091110930E020E024
:10558000B0E0A0E0309799F42115310509F44AC044
:10559000281B390B24303105D8F58A819B81611590
:1055A000710589F1FB0193838283FE0111C0408163
:1055B00051810281138148175907E0F048175907B4
:1055C00099F4109761F012960C93129713961C930E
:1055D0003296CF01DF91CF911F910F9108950093E3
:1055E000100910931109F4CF2115310551F042171C
:1055F000530738F0A901DB019A01BD01DF01F80171
:10560000C1CFEF01F9CF9093110980931009CDCF4D
:10561000FE01E20FF31F81939193225031093983E8
:105620002883D7CF20910E0930910F09232B41F405
:10563000209116023091170230930F0920930E0922
:1056400020911402309115022115310541F42DB736
:105650003EB74091180250911902241B350BE0917E
:105660000E09F0910F09E217F307A0F42E1B3F0B70
:105670002817390778F0AC014E5F5F4F24173507C4
:1056800048F04E0F5F1F50930F0940930E0981930E
:1056900091939FCFF0E0E0E09CCFCF93DF93009712
:1056A000E9F0FC01329713821282A0911009B091A7
:1056B0001109ED0130E020E01097A1F42081318143
:1056C000820F931F20910E0930910F092817390777
:1056D00009F061C0F0930F09E0930E09DF91CF91BB
:1056E0000895EA01CE17DF07E8F54A815B819E0144
:1056F00041155105B1F7E901FB83EA8349915991BD
:10570000C40FD51FEC17FD0761F4808191810296CB
:10571000840F951FE90199838883828193819B83FC
:105720008A83F0E0E0E012968D919C9113970097A8
:10573000B9F52D913C911197CD010296820F931FDF
:1057400020910E0930910F092817390739F6309743
:1057500051F51092110910921009B0930F09A093FE
:105760000E09BCCFD383C28340815181840F951F22
:10577000C817D90761F44E5F5F4F88819981480F40
:10578000591F518340838A819B8193838283211592
:10579000310509F0B0CFF0931109E09310099ECFC5
:1057A000FD01DC01C0CF13821282D7CF4F925F92EE
:1057B0006F927F928F929F92AF92BF92CF92DF9221
:1057C000EF92FF920F931F93CF93DF938C0100977B
:1057D00099F4CB01DF91CF911F910F91FF90EF9042
:1057E000DF90CF90BF90AF909F908F907F906F9001
:1057F0005F904F900C94B12AFC01E60FF71F9C01BB
:1058000022503109E217F30708F4AEC0D901CD9157
:10581000DC911197C617D70720F1C530D10578F074
:10582000CE0104978617970750F0C61BD70B229717
:10583000C193D1936D937C93CF010E944D2BC801EE
:10584000DF91CF911F910F91FF90EF90DF90CF905C
:10585000BF90AF909F908F907F906F905F904F9090
:1058600008955B01AC1ABD0A4C018C0E9D1EA091DF
:105870001009B0911109512C412CF12CE12C1097F9
:1058800031F580910E0990910F098815990509F05D
:105890005CC04616570608F058C0809114029091DB
:1058A0001502009741F48DB79EB7409118025091B0
:1058B0001902841B950BE817F90708F055C0F093FF
:1058C0000F09E0930E09F90171836083B8CF8D91C0
:1058D0009C91119712966C90129713967C90139747
:1058E000A815B90559F56C0142E0C40ED11CCA14C3
:1058F000DB0420F1AC014A195B09DA011296159715
:1059000080F06282738251834083D9016D937C93CE
:10591000E114F10471F0D7011396FC93EE93129702
:105920008ECF22968C0F9D1FF90191838083F30106
:10593000EFCFF0931109E093100981CF4816590673
:1059400008F42C017D01D3019ACFCB010E94B12A2A
:105950007C01009749F0AE01B8010E94B72CC80144
:105960000E944D2B87016BCF10E000E068CFFB0158
:10597000DC0102C001900D9241505040D8F70895CB
:10598000FB01DC0101900D920020E1F70895FB017D
:10599000DC014150504030F08D910190801919F494
:1059A0000020B9F7881B990B08950F931F93CF938D
:1059B000DF93CDB7DEB72E970FB6F894DEBF0FBEDC
:1059C000CDBF0E891F8986E08C831A8309838FEFF0
:1059D0009FE79E838D83AE01465E5F4F688D798D14
:1059E000CE0101960E94052D2F813885020F131FCD
:1059F000F80110822E960FB6F894DEBF0FBECDBF11
:105A0000DF91CF911F910F9108952F923F924F9266
:105A10005F926F927F928F929F92AF92BF92CF923E
:105A2000DF92EF92FF920F931F93CF93DF9300D0FB
:105A300000D000D01F921F92CDB7DEB77C013B0192
:105A40008A01FC0117821682838181FFDDC1CE01AC
:105A500001965C01F7019381F30193FD859193FF1A
:105A600081913F01882309F453C1853239F493FDB4
:105A7000859193FF81913F01853229F4B70190E030
:105A80000E941D2FE7CF912C212C312CFFE1F31523
:105A900038F08B3211F190F4803209F1833229F120
:105AA00037FC3CC020ED280F2A3050F536FE20C0D0
:105AB0008AE0989E200D1124922E06C08D3291F01E
:105AC000803371F7689430F8F30193FD859193FF6B
:105AD00081913F018111DACF21C0689431F8689437
