:100000000C94B7060C94C8190C949D190C94721991
:100010000C9447190C941C190C94F1180C94C618E4
:100020000C949B180C94E8060C94E8060C94E806D3
:100030000C94E8060C94E8060C94E8060C94E80688
:100040000C94E8060C94E8060C94E8060C94E80678
:100050000C94E8060C94E8060C94E8060C945118ED
:100060000C94E8060C941B180C94F1170C94E806F9
:100070000C94E8060C94E8060C94E8060C94E80648
:100080000C94E8060C94E8060C94E8060C94E80638
:100090000C94E8060C94E8060C94E8060C94E80628
:1000A0000C94E8060C94E8060C94E8060C94E80618
:1000B0000C94E8060C94E8060C94E8060C94E80608
:1000C0000C94E8060C94E8060C94E8060C94E806F8
:1000D0000C94E8060C94E8060C94E8060C94E806E8
:1000E0000C94E8060C94C1090C94EA060C944D0992
:1000F0000C9461080C9448070C9445090C948007F3
:100100000C9481080C9452090C9465080C943A07DD
:100110000C9417070C940D1A0C9442080C944A0A7C
:100120000C944A080C9469080C9457080C946F08B6
:100130000C9426070C94CD070C945B080C94E10AF0
:100140000C9478090C947C080C9466090C94AD0905
:100150000C94D5090C9451080C9470090C94ED0A78
:100160000C9477080C94DF090C94E70A0C943C0873
:100170000C94E6250C948A090C9473080C944E0890
:100180000C949E090C94B7090C9446080C945C09D5
:100190000C94F30A0C94CB090C9480090C947D0800
:1001A0000C9494094E414E494E495459494E46CDFE
:1001B000CCCC3D0AD7233C17B7D13877CC2B32951E
:1001C00095E6241FB14F0A000020410000C84200FC
:1001D000401C4620BCBE4CCA1B0E5AAEC59D7400C6
:1001E000002100240027002A002D003000330001E8
:1001F000010000040107010A010000220025002877
:10020000002B002E0031003400020100000501081F
:10021000010B01000020002300260029002C002FE4
:100220000032000001000003010601090105050577
:1002300005070508080808020202020A0A0808045D
:10024000040404010101010101010103030303038B
:10025000030303040707070C0C0C0C0C0C0C0C021A
:1002600002020206060606060606060B0B0B0B0B21
:100270000B0B0B010210202008081020401020401A
:10028000800201020108040201010204081020405A
:100290008080402010080402018004020180402078
:1002A00010080402010804020101020408102040A1
:1002B00080010204081020408000000A0B02090C93
:1002C0000D0E0807030401000000000000000000FC
:1002D000000000000000000000000000000000001E
:1002E00000000000001211100000000000000000DB
:1002F0000000000000000000000000000000006C92
:10030000616D696E61722F423733382F6175746F7A
:1003100070696C6F742F646973636F6E6E6563745C
:100320005F746F67676C65006C616D696E61722FD9
:10033000423733382F6175746F70696C6F742F6436
:100340006973636F6E6E6563745F746F67676C6506
:10035000006C616D696E61722F423733382F6175A1
:10036000746F70696C6F742F6175746F7468726FDD
:1003700074746C655F61726D5F746F67676C650044
:100380006C616D696E61722F423733382F617574FD
:100390006F70696C6F742F6175746F7468726F74AD
:1003A000746C655F61726D5F746F67676C65006C1C
:1003B000616D696E61722F423733382F6175746FCA
:1003C00070696C6F742F666C696768745F646972BA
:1003D0006563746F725F746F67676C65006C616DE5
:1003E000696E61722F423733382F6175746F70698F
:1003F0006C6F742F666C696768745F64697265639B
:10040000746F725F746F67676C65006C616D696EA5
:1004100061722F423733382F6175746F70696C6F5A
:10042000742F666C696768745F6469726563746F62
:10043000725F666F5F746F67676C65006C616D6992
:100440006E61722F423733382F6175746F70696C2B
:100450006F742F666C696768745F64697265637432
:100460006F725F666F5F746F67676C65006C616D5C
:10047000696E61722F423733382F6175746F7069FE
:100480006C6F742F636F757273655F70696C6F74D6
:100490005F646E006C616D696E61722F4237333834
:1004A0002F6175746F70696C6F742F636F757273E1
:1004B000655F70696C6F745F75700073696D2F6133
:1004C00075746F70696C6F742F766572746963618F
:1004D0006C5F73706565645F646F776E0073696DE0
:1004E0002F6175746F70696C6F742F7665727469A3
:1004F00063616C5F73706565645F7570006C616DDE
:10050000696E61722F423733382F6175746F70696D
:100510006C6F742F616C7469747564655F646E00D0
:100520006C616D696E61722F423733382F6175745B
:100530006F70696C6F742F616C7469747564655F3A
:100540007570006C616D696E61722F423733382FA0
:100550006175746F70696C6F742F68656164696E22
:10056000675F646E006C616D696E61722F42373334
:10057000382F6175746F70696C6F742F6865616472
:10058000696E675F75700073696D2F6175746F7048
:10059000696C6F742F61697273706565645F646FF5
:1005A000776E0073696D2F6175746F70696C6F740D
:1005B0002F61697273706565645F7570006C616D41
:1005C000696E61722F423733382F6175746F7069AD
:1005D0006C6F742F636F757273655F636F70696C96
:1005E0006F745F646E006C616D696E61722F42376B
:1005F00033382F6175746F70696C6F742F636F750A
:100600007273655F636F70696C6F745F7570006C97
:10061000616D696E61722F423733382F6175746F67
:1006200070696C6F742F7676695F6469616C5F7353
:10063000686F77006C616D696E61722F4237333875
:100640002F6175746F70696C6F742F636F7572733F
:10065000655F636F70696C6F74006C616D696E616A
:10066000722F423733382F6175746F70696C6F74F5
:100670002F61705F7676695F706F73006C616D6972
:100680006E61722F423733382F6175746F70696CE9
:100690006F742F6D63705F616C745F6469616C006F
:1006A00073696D2F636F636B7069742F6175746FFD
:1006B00070696C6F742F61697273706565645F69CE
:1006C000735F6D616368006C616D696E61722F426A
:1006D0003733382F6175746F70696C6F742F6D6369
:1006E000705F6864675F6469616C006C616D696EFE
:1006F00061722F423733382F6175746F70696C6F78
:10070000742F73686F775F696173006C616D696ED8
:1007100061722F423733382F6175746F70696C6F57
:10072000742F6D63705F73706565645F6469616C7D
:100730005F6B74735F6D616368006C616D696E619E
:10074000722F423733382F6175746F70696C6F7414
:100750002F636F757273655F70696C6F74006C6185
:100760006D696E61722F423733382F6175746F7007
:10077000696C6F742F646973636F6E6E6563745F09
:10078000746F67676C65006C616D696E61722F4292
:100790003733382F6175746F70696C6F742F6469AB
:1007A00073636F6E6E6563745F706F73006C616D01
:1007B000696E61722F423733382F737769746368BB
:1007C00065732F6175746F70696C6F742F61745FDE
:1007D00061726D006C616D696E61722F42373338E2
:1007E0002F73776974636865732F6175746F7069AF
:1007F0006C6F742F66645F666F006C616D696E610B
:10080000722F423733382F73776974636865732F9B
:100810006175746F70696C6F742F66645F636100DB
:100820006C616D696E61722F423733382F61757458
:100830006F70696C6F742F6368616E67655F6F7648
:1008400065725F7072657373006C616D696E617261
:100850002F423733382F6175746F70696C6F742F46
:10086000616C745F696E74657276006C616D696E3F
:1008700061722F423733382F6175746F70696C6FF6
:10088000742F7370645F696E74657276006C616D4D
:10089000696E61722F423733382F6175746F7069DA
:1008A0006C6F742F6377735F625F70726573730030
:1008B0006C616D696E61722F423733382F617574C8
:1008C0006F70696C6F742F6377735F615F707265AF
:1008D0007373006C616D696E61722F423733382F0C
:1008E0006175746F70696C6F742F636D645F625FA4
:1008F0007072657373006C616D696E61722F42373F
:1009000033382F6175746F70696C6F742F636D6409
:100910005F615F7072657373006C616D696E6172A7
:100920002F423733382F6175746F70696C6F742F75
:1009300076735F7072657373006C616D696E61725E
:100940002F423733382F6175746F70696C6F742F55
:10095000616C745F686C645F7072657373006C6166
:100960006D696E61722F423733382F6175746F7005
:10097000696C6F742F6170705F7072657373006C57
:10098000616D696E61722F423733382F6175746FF4
:1009900070696C6F742F766F726C6F635F707265C5
:1009A0007373006C616D696E61722F423733382F3B
:1009B0006175746F70696C6F742F6C6E61765F70A7
:1009C00072657373006C616D696E61722F423733AB
:1009D000382F6175746F70696C6F742F6864675F0E
:1009E00073656C5F7072657373006C616D696E61C5
:1009F000722F423733382F6175746F70696C6F7462
:100A00002F6C766C5F6368675F7072657373006CE0
:100A1000616D696E61722F423733382F6175746F63
:100A200070696C6F742F766E61765F707265737328
:100A3000006C616D696E61722F423733382F6175BA
:100A4000746F70696C6F742F73706565645F70721A
:100A5000657373006C616D696E61722F4237333854
:100A60002F6175746F70696C6F742F6E315F707267
:100A7000657373006C616D696E61722F4237333834
:100A80002F6175746F70696C6F742F6D617374650D
:100A9000725F666F5F737461747573006C616D690A
:100AA0006E61722F423733382F6175746F70696CC5
:100AB0006F742F6D61737465725F636170745F73BF
:100AC0007461747573006C616D696E61722F423769
:100AD00033382F6175746F70696C6F742F61757422
:100AE0006F7468726F74746C655F7374617475731E
:100AF00031006C616D696E61722F423733382F613E
:100B000075746F70696C6F742F6377735F625F7356
:100B10007461747573006C616D696E61722F423718
:100B200033382F6175746F70696C6F742F637773CE
:100B30005F615F737461747573006C616D696E6180
:100B4000722F423733382F6175746F70696C6F7410
:100B50002F636D645F625F737461747573006C61A1
:100B60006D696E61722F423733382F6175746F7003
:100B7000696C6F742F636D645F615F73746174750A
:100B800073006C616D696E61722F423733382F616B
:100B900075746F70696C6F742F76735F73746174A2
:100BA0007573006C616D696E61722F423733382F37
:100BB0006175746F70696C6F742F616C745F686CB1
:100BC000645F737461747573006C616D696E6172DA
:100BD0002F423733382F6175746F70696C6F742FC3
:100BE0006864675F73656C5F737461747573006CC0
:100BF000616D696E61722F423733382F6175746F82
:100C000070696C6F742F6170705F73746174757349
:100C1000006C616D696E61722F423733382F6175D8
:100C2000746F70696C6F742F766F726C6F635F7323
:100C30007461747573006C616D696E61722F4237F7
:100C400033382F6175746F70696C6F742F6C6E61BF
:100C5000765F737461747573006C616D696E617237
:100C60002F423733382F6175746F70696C6F742F32
:100C7000766E61765F73746174757331006C616D4B
:100C8000696E61722F423733382F6175746F7069E6
:100C90006C6F742F6C766C5F6368675F73746174DC
:100CA0007573006C616D696E61722F423733382F36
:100CB0006175746F70696C6F742F73706565645FB4
:100CC00073746174757331006C616D696E61722F3C
:100CD000423733382F6175746F70696C6F742F6E83
:100CE000315F737461747573007E306D79335B5F4F
:100CF000707F7B771F0D3D4F470000000000000014
:100D000000000000000000000000000000000000E3
:100D10000000000000800180007E306D79335B5F51
:100D2000707F7B00000000000000771F0D3D4F47E3
:100D300000370000000E0000006700000000000007
:100D400000000000000000000800771F0D3D4F4725
:100D500000370000000E00151D67000000000000B5
:100D6000000000000000000000000D1AE62511241C
:100D70001FBECFEFD1E2DEBFCDBF00E00CBF29E048
:100D8000A0EEB2E001C01D92A231B207E1F712E07D
:100D9000A0E0B2E0E8E6FFE500E00BBF02C007908C
:100DA0000D92A03EB107D9F716E0C6EBD6E000E001
:100DB00006C021970109802FFE010E946A2AC53BC7
:100DC000D10780E00807A9F70E94871A0C94A22F88
:100DD0000C940000AF92BF92CF92DF92EF92FF92FD
:100DE0000F931F93CF93DF936C017B018B01040F53
:100DF000151FEB015E01AE18BF08C017D10759F0EF
:100E00006991D601ED91FC910190F081E02DC60130
:100E10001995892B79F7C501DF91CF911F910F911A
:100E2000FF90EF90DF90CF90BF90AF900895FC01BE
:100E3000538D448D252F30E0842F90E0821B930B3F
:100E4000541710F0CF96089501970895FC01918DE5
:100E5000828D981761F0A28DAE0FBF2FB11D5D96E8
:100E60008C91928D9F5F9F73928F90E008958FEF8A
:100E70009FEF0895FC01918D828D981731F0828D3E
:100E8000E80FF11D858D90E008958FEF9FEF089595
:100E9000FC01918D228D892F90E0805C9F4F821BF9
:100EA00091098F73992708958BE995E00E9448076F
:100EB00021E0892B09F420E0822F0895FC01A48D04
:100EC000A80FB92FB11DA35ABF4F2C91848D90E06C
:100ED00001968F739927848FA689B7892C93A0894F
:100EE000B1898C91837080648C93938D848D9813D9
:100EF00006C00288F389E02D80818F7D808308956C
:100F0000EF92FF920F931F93CF93DF93EC0181E059
:100F1000888F9B8D8C8D98131AC0E889F989808100
:100F200085FF15C09FB7F894EE89FF896083E88933
:100F3000F98980818370806480839FBF81E090E025
:100F4000DF91CF911F910F91FF90EF900895F62EB2
:100F50000B8D10E00F5F1F4F0F731127E02E8C8D4C
:100F60008E110CC00FB607FCFACFE889F989808191
:100F700085FFF5CFCE010E945E07F1CFEB8DEC0F20
:100F8000FD2FF11DE35AFF4FF0829FB7F8940B8FAE
:100F9000EA89FB8980818062CFCFCF93DF93EC0118
:100FA000888D8823B9F0AA89BB89E889F9898C9151
:100FB00085FD03C0808186FD0DC00FB607FCF7CF0D
:100FC0008C9185FFF2CF808185FFEDCFCE010E940D
:100FD0005E07E9CFDF91CF91089580E090E0892B03
:100FE00029F00E94540781110E94000080E090E0E7
:100FF000892B49F080E090E0892B29F00E940000C5
:1010000081110E94000080E090E0892B49F080E08F
:1010100090E0892B29F00E94000081110E940000BD
:1010200080E090E0892B49F080E090E0892B29F066
:101030000E94000081110C940000089581508231BB
:1010400008F05AC0E82FF0E08827E65DF74F8F4F91
:101050000C946A2A4A084E083C08420846087C0854
:10106000510857085B086108650869086F0873082C
:101070007C0877087D088108809180008F778093B5
:1010800080000895809180008F7DF9CF809180004D
:10109000877FF5CF84B58F7784BD089584B58F7D24
:1010A000FBCF8091B0008F778093B000089580913E
:1010B000B0008F7DF9CF809190008F778093900062
:1010C0000895809190008F7DF9CF80919000877F67
:1010D000F5CF8091A0008F778093A0000895809134
:1010E000A0008F7DF9CF8091A000877FF5CF809100
:1010F00020018F77809320010895809120018F7DBA
:10110000F9CF80912001877FF5CFCF93DF93282FF0
:1011100030E0F901E754FD4F8491F901ED58FD4F9E
:10112000D491F901E35DFD4FC491CC23A1F081116D
:101130000E941E08EC2FF0E0EE0FFF1FED5EFD4F4A
:10114000A591B491EC91ED2381E090E009F480E069
:10115000DF91CF91089580E090E0FACF1F93CF9375
:10116000DF93282F30E0F901E754FD4F8491F90116
:10117000ED58FD4FD491F901E35DFD4FC491CC23AF
:10118000A9F0162F81110E941E08EC2FF0E0EE0F3F
:10119000FF1FE750FE4FA591B4918FB7F894EC91E3
:1011A000111108C0D095DE23DC938FBFDF91CF9162
:1011B0001F910895DE2BF8CFCF93DF9390E0FC01D1
:1011C000ED58FD4F2491835D9D4FFC018491882350
:1011D000D1F090E0880F991FFC01E152FE4FA591DC
:1011E000B491FC01E750FE4FC591D491623071F487
:1011F0009FB7F8943C91822F809583238C93E8814C
:101200002E2B28839FBFDF91CF9108958FB7F8943D
:10121000EC912E2B2C938FBFF6CF1F93CF93DF93A0
:10122000182FEB0161E00E94DC08209739F460E0A0
:10123000812FDF91CF911F910C94AE08CF3FD10544
:1012400011F461E0F5CFE12FF0E0E754FD4FE491B8
:10125000E150E23108F0B3C0F0E08827ED5CF64FD2
:101260008F4F0C946A2A45094D0952095C09660999
:10127000DF097009780980098A0994099E09AD0976
:10128000B709DF09C109CB09D50984B5806884BDD8
:10129000C7BDDF91CF911F91089584B5806284BD51
:1012A000C8BDF7CF80918000806880938000D09384
:1012B0008900C0938800EDCF809180008062809388
:1012C0008000D0938B00C0938A00E3CF8091800090
:1012D000886080938000D0938D00C0938C00D9CF1C
:1012E0008091B00080688093B000C093B300D1CFEC
:1012F0008091B00080628093B000C093B400C9CFE9
:1013000080919000806880939000D0939900C09362
:101310009800BFCF80919000806280939000D0931E
:101320009B00C0939A00B5CF809190008860809315
:101330009000D0939D00C0939C00ABCF8091A00003
:1013400080688093A0008091A0008F7B8093A00094
:10135000D093A900C093A8009CCF8091A000806288
:101360008093A000D093AB00C093AA0092CF80914D
:10137000A00088608093A000D093AD00C093AC0023
:1013800088CF80912001806880932001D09329012B
:10139000C09328017ECF809120018062809320013C
:1013A000D0932B01C0932A0174CF809120018860D3
:1013B00080932001D0932D01C0932C016ACFC038B7
:1013C000D1050CF03ECF33CF3FB7F89480913D0369
:1013D00090913E03A0913F03B091400326B5A89B96
:1013E00005C02F3F19F00196A11DB11D3FBFBA2FB7
:1013F000A92F982F8827BC01CD01620F711D811D77
:10140000911D42E0660F771F881F991F4A95D1F7FB
:1014100008958F929F92AF92BF92CF92DF92EF92F8
:10142000FF920E94E4094B015C018FE0C82ED12C91
:10143000E12CF12C0E94E409681979098A099B09B9
:10144000683E734081059105A8F321E0C21AD108D6
:10145000E108F10888EE880E83E0981EA11CB11CFB
:10146000C114D104E104F10429F7FF90EF90DF905B
:10147000CF90BF90AF909F908F9008952FB7F89422
:101480006091390370913A0380913B0390913C0342
:101490002FBF08950895833171F120F48231E9F16D
:1014A00080E008958431A9F08531D1F77093E50289
:1014B0006093E40283EF9AE0909305028093040224
:1014C000809169008C7F816080936900E89A81E057
:1014D00008957093E7026093E6028DEE9AE0909390
:1014E00007028093060280916900837F8460809365
:1014F0006900E99AECCF7093E9026093E80287EE05
:101500009AE09093090280930802809169008F7C91
:10151000806180936900EA9ADACF7093EB0260935E
:10152000EA0281EE9AE090930B0280930A02809186
:1015300069008F73806480936900EB9AC8CFDC01E7
:10154000ED91FD918081ED91FD919081ED91FD9165
:101550006C9163708E2309F064609F2309F06860CA
:10156000ECEBFAE0E60FF11D659565956D936D91D5
:101570007D918D919D91099423C01AC012C016C00F
:1015800010C01EC009C014C013C006C019C009C0D5
:101590000DC007C00DC014C0625070408040904024
:1015A0000BC0615070408040904006C06E5F01C02B
:1015B0006F5F7F4F8F4F9F4F9E938E937E936E935F
:1015C00008958091EA029091EB020C949F0A809119
:1015D000E8029091E9020C949F0A8091E6029091B2
:1015E000E7020C949F0A8091E4029091E5020C942A
:1015F0009F0A8091E2029091E3020C949F0A8091ED
:10160000E0029091E1020C949F0ACF93DF93EC01EA
:101610008B85823060F4F894CE010E949F0A6F811E
:10162000788589859A857894DF91CF910895F8948B
:10163000F6CF0F931F93CF93DF93EC01062F142F58
:1016400062E0802F0E94DC0862E0812F0E94DC08AB
:10165000802F90E0FC01E35DFD4FE491F0E0EE0FA0
:10166000FF1FED5EFD4FA591B491B983A883FC01E6
:10167000ED58FD4F24912C83812F90E0FC01E35D18
:10168000FD4FE491F0E0EE0FFF1FED5EFD4F459141
:1016900054915B834A83FC01ED58FD4FE491ED8347
:1016A0001F82188619861A868BE39FE10197F1F74E
:1016B0008C91282391E009F490E0DA018C91E823E1
:1016C00009F092609E83BE01802F0E944B0A8B8797
:1016D000BE01812F0E944B0A9B85890F8B87DF916A
:1016E000CF911F910F9108954F925F926F927F92C9
:1016F0008F929F92AF92BF92CF92DF92EF92FF9222
:101700000F931F93CF93DF931F921F92CDB7DEB736
:101710008C0149832A83660F771FF801EA5AFF4F2D
:10172000E080F180EE0CFF1CF801CF01801B910BD3
:101730008E159F0514F41192F8CF8981F801E60FF8
:10174000F71F81838A818083680184E5C80ED11CDC
:1017500060E0F60180810E94AE085801F2E5AF0E0C
:10176000B11C480180E5880E911C1E141F040CF565
:10177000E1E0EE1AF108F801EE0DFF1D6080F501C1
:101780005080F401408088E0782E662D661F662721
:10179000661F842D0E94AE08660C61E0852D0E94B4
:1017A000AE0860E0852D0E94AE087A947110EDCFEE
:1017B000DCCF61E0F60180810F900F90DF91CF9137
:1017C0001F910F91FF90EF90DF90CF90BF90AF905F
:1017D0009F908F907F906F905F904F900C94AE0889
:1017E0008F929F92AF92BF92CF92DF92EF92FF9231
:1017F0000F931F93CF93DF938C01D62EC72EEC014E
:10180000C05BDF4F688379834C0182E5880E911CB1
:10181000F401518340835801F4E5AF0EB11CF5018A
:10182000318320837801F6E5EF0EF11C81E090E032
:10183000F7019183808361E08D2D0E94DC0861E0D7
:10184000F40180810E94DC0861E0F50180810E9442
:10185000DC0861E0F50180810E94AE08D882C9826F
:10186000F80170965F011192EC17FD07E1F7D0E0E7
:10187000C0E0F70180819181C817D9070CF043C0FF
:1018800020E04FE0BE01C8010E94740BF701808187
:101890009181C817D90734F427E04BE0BE01C80195
:1018A0000E94740B20E049E0BE01C8010E94740B45
:1018B000F70180819181C817D907BCF44E0183E0FC
:1018C000880C991C8A95E1F78A0C9B1CDD24D39423
:1018D000F40111924F0120E04D2DBE01C8010E947C
:1018E000740BD394F9E0DF12F3CFF701808191817B
:1018F000C817D90734F420E04CE0BE01C8010E94AB
:10190000740B2196B6CFDF91CF911F910F91FF906D
:10191000EF90DF90CF90BF90AF909F908F90089501
:10192000FC01EA5AFF4F20813181121613068CF414
:10193000403178F4E42FF0E0E751F34F2491FC01BB
:10194000E60FF71F208B41E0460F70E060E00C943B
:10195000740B0895E42FDC01AA5ABF4F4D915C919E
:1019600014161506B4F4E7FDE0E20E2E000CFF0B92
:10197000E751F34FE4912111E068DC01A60FB71F96
:101980005096EC9341E0460F2E2F70E060E00C94EF
:10199000740B08958F929F92AF92BF92CF92DF9275
:1019A000EF92FF920F931F93CF93DF93C090610349
:1019B000D0906203E0906303F090640320913403BD
:1019C000309135034091360350913703C701B6017A
:1019D0000E94DC27882309F48FC020E030E0A901B1
:1019E000C701B6010E94322A20E030E040E05FE308
:1019F00087FD0BC3C701B6010E941E290E94FC2966
:101A00000E94E32720E030E048EC52E40E948A295B
:101A10000E94FC29162F60932C0370932D0320E065
:101A200030E0A901C701B6010E94322A20E030E06F
:101A300040E05FE387FDEEC2C701B6010E941E29A8
:101A40000E94FC290E94E32720E030E040E251E4BC
:101A50000E948A290E94FC29CB016AE070E00E9462
:101A6000372AD82F80932E0390932F0320E030E065
:101A7000A901C701B6010E94322A20E030E040E00F
:101A80005FE387FDCCC2C701B6010E941E290E94F8
:101A9000FC290E94E3270E94FC29CB016AE070E048
:101AA0000E94372AC82F8093300390933103412F2F
:101AB00067E070E083E495E00E94900C4D2F66E0B3
:101AC00070E083E495E00E94900C4C2F65E070E09C
:101AD00083E495E00E94900C8091610390916203F1
:101AE000A0916303B0916403809334039093350312
:101AF000A0933603B0933703C0905D03D0905E038C
:101B0000E0905F03F0906003809051039090520347
:101B1000A0905303B09054032091280330912903DF
:101B200040912A0350912B03C701B6010E94DC2784
:101B300081110FC0A50194016091240370912503C8
:101B400080912603909127030E94DC27882309F4C3
:101B500089C020E030E0A901C501B4010E94DC2762
:101B6000811167C220E030E0A901C701B6010E94DF
:101B7000322A20E030E040E05FE387FD55C2C70134
:101B8000B6010E941E290E94FC29072E000C880B1A
:101B9000990B0E94E3276B017C0120E030E048ECC8
:101BA00052E40E948A290E94FC29162F60931C038C
:101BB00070931D0320E030E040E251E4C701B6011C
:101BC0000E948A290E94FC298AE0A82EB12CCB0110
:101BD000B5010E94372AD82F80931E0390931F03CC
:101BE000C701B6010E94FC29CB01B5010E94372A2A
:101BF000C82F8093200390932103412F62E070E06F
:101C000083E495E00E94900C4D2F61E070E083E446
:101C100095E00E94900C4C2F70E060E083E495E02A
:101C20000E94900C80915D0390915E03A0915F03F0
:101C3000B09160038093280390932903A0932A0313
:101C4000B0932B038091510390915203A0915303C1
:101C5000B09154038093240390932503A09326030B
:101C6000B0932703C0905503D0905603E0905703DC
:101C7000F0905803209118033091190340911A03F2
:101C800050911B03C701B6010E94DC27882309F489
:101C90008FC020E030E0A901C701B6010E94322ABE
:101CA00020E030E040E05FE387FD31C2C701B601CC
:101CB0000E941E290E94FC290E94E32720E030E0B8
:101CC00048EC52E40E948A290E94FC29162F609356
:101CD00010037093110320E030E0A901C701B601A1
:101CE0000E94322A20E030E040E05FE387FD14C22A
:101CF000C701B6010E941E290E94FC290E94E32709
:101D000020E030E040E251E40E948A290E94FC2950
:101D1000CB016AE070E00E94372AD82F809312032B
:101D20009093130320E030E0A901C701B6010E949F
:101D3000322A20E030E040E05FE387FDF2C1C701D6
:101D4000B6010E941E290E94FC290E94E3270E94DE
:101D5000FC29CB016AE070E00E94372AC82F8093EB
:101D6000140390931503412F67E070E08BEE94E02D
:101D70000E94900C4D2F66E070E08BEE94E00E9484
:101D8000900C4C2F65E070E08BEE94E00E94900C7C
:101D90008091550390915603A0915703B091580339
:101DA0008093180390931903A0931A03B0931B0315
:101DB000C0904D03D0904E03E0904F03F09050033D
:101DC00020910C0330910D0340910E0350910F03AD
:101DD000C701B6010E94DC27882309F441C020E036
:101DE00030E0A901C701B6010E94DC2781119EC124
:101DF00020E040E264E070E08BEE94E00E94AA0CE8
:101E000020E040E363E070E08BEE94E00E94AA0CD7
:101E100020E040E362E070E08BEE94E00E94AA0CC8
:101E200020E040E361E070E08BEE94E00E94AA0CB9
:101E300020E040E370E060E08BEE94E00E94AA0CAA
:101E400080914D0390914E03A0914F03B0915003A8
:101E500080930C0390930D03A0930E03B0930F0394
:101E6000C0904903D0904A03E0904B03F0904C039C
:101E70002091FE023091FF02409100035091010336
:101E8000C701B6010E94DC27882309F46CC420E056
:101E900030E04AE754ECC701B6010E94DC2718166F
:101EA0000CF498C320E030E0A901C701B6010E94FC
:101EB000DC2718160CF46EC3A701960160E070E0F1
:101EC00080E09FE30E941D290E94FC290E94E327D5
:101ED00020E030E04AE754E40E948A290E94FC296D
:101EE000CB016AE070E00E94372A082F8093F40249
:101EF0009093F50220E030E0A901C701B6010E94ED
:101F0000DC2718160CF44EC3A701960160E070E0C0
:101F100080E09FE30E941D290E94FC290E94E32784
:101F200020E030E048EC52E40E948A290E94FC291B
:101F3000CB016AE070E00E94372A182F8093F602E6
:101F40009093F70220E030E0A901C701B6010E949A
:101F5000DC2718160CF42EC3A701960160E070E090
:101F600080E09FE30E941D290E94FC290E94E32734
:101F700020E030E040E251E40E948A290E94FC29DE
:101F8000CB016AE070E00E94372AD82F8093F802D4
:101F90009093F90220E030E0A901C701B6010E9448
:101FA000DC2718160CF40EC3A701960160E070E060
:101FB00080E09FE30E941D290E94FC290E94E327E4
:101FC0000E94FC29CB016AE070E00E94372AC82FEA
:101FD0008093FA029093FB0220E04DE267E070E00C
:101FE00083E994E00E94AA0C20E0402F66E070E0B4
:101FF00083E994E00E94AA0C412F65E070E083E938
:1020000094E00E94900C4D2F5FC3C701B6010E945F
:102010001D29F4CCC701B6010E941D2911CDC701AD
:10202000B6010E941D2933CDC701B6010E941D29AA
:10203000AACD20E030E040E85FE3C501B4010E9492
:10204000DC278111EFCD20E030E44CE156E4C701FC
:10205000B6010E9442286B017C0120E030E0A9011A
:102060000E94322A20E030E040E05FE387FD45C077
:10207000C701B6010E941E290E94FC290E94E32785
:102080006B017C0120E030E04AE754E40E948A2999
:102090000E94FC29D62F60931E0370931F0320E03B
:1020A00030E048EC52E4C701B6010E948A296B0176
:1020B0007C0120E030E0A9010E94322A20E030E0DB
:1020C00040E05FE387FD1EC0C701B6010E941E29E4
:1020D0000E94FC29CB016AE070E00E94372AC82FD9
:1020E000809320039093210321E040E262E070E0BE
:1020F00083E495E00E94AA0C87CDC701B6010E9437
:102100001D29BACFC701B6010E941D29E1CFC70121
:10211000B6010E941D29CECDC701B6010E941D291E
:10212000EBCDC701B6010E941D290DCE20E030E0A5
:10213000A901C701B6010E94322A18160CF071C01D
:1021400020E030E04AE754E4C701B6010E94DC27F2
:1021500087FF67C020E030E040E05FE3C701B601E1
:102160000E941E290E94FC290E94E3276B017C012A
:1021700020E030E048EC52E40E948A290E94FC29C9
:10218000CAE0D0E0CB01BE010E94372A082F80931D
:1021900002039093030320E030E040E251E4C701E2
:1021A000B6010E948A290E94FC29CB01BE010E942F
:1021B000372A182F8093040390930503C701B601B3
:1021C0000E94FC29CB01BE010E94372AC82F8093B0
:1021D00006039093070320E040E264E070E08BEE9A
:1021E00094E00E94AA0C20E040E263E070E08BEEF5
:1021F00094E00E94AA0C402F62E070E08BEE94E025
:102200000E94900C412F61E070E08BEE94E00E9400
:10221000900C4C2F70E060E08BEE94E00E94900CEC
:102220000FCE20E030E04AE754E4C701B6010E9437
:10223000322A87FDCCC020E030E44CE156E4C701EF
:10224000B6010E94DC2787FFC2C020E030E0A90170
:10225000C701B6010E94322A20E030E040E05FE38F
:1022600087FDA1C0C701B6010E941E290E94FC295A
:102270000E94E32720E030E04AE754E40E948A29E4
:102280000E94FC29CB016AE070E00E94372A082FE7
:10229000809302039093030320E030E0A901C7017B
:1022A000B6010E94322A20E030E040E05FE387FD83
:1022B0007FC0C701B6010E941E290E94FC290E940E
:1022C000E32720E030E048EC52E40E948A290E9493
:1022D000FC29CB016AE070E00E94372A182F809316
:1022E00004039093050320E030E0A901C701B60183
:1022F0000E94322A20E030E040E05FE387FD5DC0CD
:10230000C701B6010E941E290E94FC290E94E327F2
:1023100020E030E040E251E40E948A290E94FC293A
:10232000CB016AE070E00E94372AD82F8093060321
:102330009093070320E030E0A901C701B6010E9495
:10234000322A20E030E040E05FE387FD3BC0C70178
:10235000B6010E941E290E94FC290E94E3270E94C8
:10236000FC29CB016AE070E00E94372AC82F8093D5
:1023700008039093090320E040E264E070E08BEEF4
:1023800094E00E94AA0C402F63E070E08BEE94E092
:102390000E94900C412F62E070E08BEE94E00E946E
:1023A000900C4D2F30CFC701B6010E941D295ECF82
:1023B000C701B6010E941D2980CFC701B6010E9446
:1023C0001D29A2CFC701B6010E941D29C4CF20E05C
:1023D00030E44CE156E4C701B6010E94322A87FD81
:1023E0002FCD20E030E0A901C701B6010E94322ABA
:1023F00020E030E040E05FE387FDB3C0C701B601F5
:102400000E941E290E94FC290E94E32720E030E45C
:102410004CE156E40E948A290E94FC29B62E609362
:1024200002037093030320E030E0A901C701B60165
:102430000E94322A20E030E040E05FE387FD96C052
:10244000C701B6010E941E290E94FC290E94E327B1
:1024500020E030E04AE754E40E948A290E94FC29E7
:10246000CB016AE070E00E94372A082F80930403B2
:102470009093050320E030E0A901C701B6010E9456
:10248000322A20E030E040E05FE387FD74C0C701FE
:10249000B6010E941E290E94FC290E94E32720E029
:1024A00030E048EC52E40E948A290E94FC29CB01CA
:1024B0006AE070E00E94372A182F809306039093F9
:1024C000070320E030E0A901C701B6010E94322ACB
:1024D00020E030E040E05FE387FD52C0C701B60175
:1024E0000E941E290E94FC290E94E32720E030E080
:1024F00040E251E40E948A290E94FC29CB016AE053
:1025000070E00E94372AD82F809308039093090324
:1025100020E030E0A901C701B6010E94322A20E084
:1025200030E040E05FE387FD30C0C701B6010E94A4
:102530001E290E94FC290E94E3270E94FC29CB014E
:102540006AE070E00E94372AC82F80930A039093B4
:102550000B034B2D64E070E08BEE94E00E94900C36
:1025600012CFC701B6010E941D294CCFC701B60189
:102570000E941D2969CFC701B6010E941D298BCF7A
:10258000C701B6010E941D29ADCFC701B6010E9447
:102590001D29CFCF20E030E040E05FE3C701B60166
:1025A000905890CC20E030E040E05FE3C701B601F6
:1025B0009058B0CC20E030E040E05FE3C701B601C6
:1025C0009058D0CCC701B601905820E030E040E0F0
:1025D0005FE3F0CC20E030E048E452ECC701B60104
:1025E0000E94DC2720E04DE2882309F473C120E03B
:1025F00030E04AE754ECC701B6010E94322A1816AF
:102600000CF070C020E030E0A901C701B6010E94C3
:10261000DC2787FF67C0A701960160E070E080E0DB
:102620009FE30E941D290E94FC290E94E3276B0161
:102630007C0120E030E048EC52E40E948A290E94AC
:10264000FC29CAE0D0E0CB01BE010E94372A082F46
:102650008093F4029093F50220E030E040E251E4F0
:10266000C701B6010E948A290E94FC29CB01BE0144
:102670000E94372A182F8093F6029093F702C70121
:10268000B6010E94FC29CB01BE010E94372AC82F47
:102690008093F8029093F90220E04DE267E070E049
:1026A00083E994E00E94AA0C20E040E266E070E03A
:1026B00083E994E00E94AA0C402F65E070E083E972
:1026C00094E00E94900C412F64E070E083E994E074
:1026D0000E94900C4C2F63E070E083E994E00E942C
:1026E000900C31C020E030E0A901C701B6010E9482
:1026F000DC278111E3C020E040E267E070E083E97D
:1027000094E00E94AA0C20E040E266E070E083E9D9
:1027100094E00E94AA0C20E040E265E070E083E9CA
:1027200094E00E94AA0C20E040E264E070E083E9BB
:1027300094E00E94AA0C20E040E263E070E083E9AC
:1027400094E00E94AA0C8091490390914A03A091C1
:102750004B03B0914C038093FE029093FF02A09331
:102760000003B0930103C0904503D0904603E0906E
:102770004703F090480320E030E0A901C701B6010B
:102780000E94DC27882309F48CC020E030E0A901F6
:10279000C701B6010E94322A20E030E040E05FE34A
:1027A00087FDD5C1C701B6010E941E290E94FC29E0
:1027B0000E94E32720E030E048EC52E40E948A299E
:1027C0000E94FC29CB016AE070E00E94372AD82FD2
:1027D0008093EC029093ED0220E030E0A901C70164
:1027E000B6010E94322A20E030E040E05FE387FD3E
:1027F000B3C1C701B6010E941E290E94FC290E9494
:10280000E32720E030E040E251E40E948A290E9460
:10281000FC29CB016AE070E00E94372AC82F809320
:10282000EE029093EF0220E030E0A901C701B6016B
:102830000E94322A20E030E040E05FE387FD91C152
:10284000C701B6010E941E290E94FC290E94E327AD
:102850000E94FC29CB016AE070E00E94372AF82E22
:102860008093F0029093F1024D2F62E070E083E9D3
:1028700094E00E94900C4C2F61E070E083E994E0BA
:102880000E94900C4F2D70E060E083E994E00E947C
:10289000900C109245031092460310924703109239
:1028A0004803DF91CF911F910F91FF90EF90DF9040
:1028B000CF90BF90AF909F908F90089520E030E030
:1028C00048E452E4C701B6010E94DC27811123C00D
:1028D00020E040E267E070E083E994E00E94AA0C07
:1028E00020E040E266E070E083E994E00E94AA0CF8
:1028F00020E040E265E070E083E994E00E94AA0CE9
:1029000020E045E064E070E083E994E00E94AA0CD6
:1029100020E040E012CF20E030E0A901C701B6017D
:102920000E94322A20E030E04AE754E418160CF006
:102930004AC0C701B6010E94DC2787FF17C120E00B
:1029400030E040E05FE3C701B6010E941E290E940B
:10295000FC290E94E3276B017C0120E030E048EC79
:1029600052E40E948A290E94FC29CAE0D0E0CB01EF
:10297000BE010E94372A082F8093F4029093F5023B
:1029800020E030E040E251E4C701B6010E948A290C
:102990000E94FC29CB01BE010E94372A182F809388
:1029A000F6029093F702C701B6010E94FC29CB0101
:1029B000BE010E94372AC82F8093F8029093F90233
:1029C00020E040E26BCEC701B6010E94322A87FDAB
:1029D000BACE20E030E0A901C701B6010E94322A38
:1029E00087FD9DC020E030E040E05FE3C701B60115
:1029F0000E941E290E94FC290E94E32720E030E06B
:102A00004AE754E40E948A290E94FC29CB016AE02B
:102A100070E00E94372A082F8093F4029093F50209
:102A200020E030E0A901C701B6010E94322A20E06F
:102A300030E040E05FE387FD7BC0C701B6010E9444
:102A40001E290E94FC290E94E32720E030E048EC88
:102A500052E40E948A290E94FC29CB016AE070E0BE
:102A60000E94372A182F8093F6029093F70220E0F5
:102A700030E0A901C701B6010E94322A20E030E00F
:102A800040E05FE387FD59C0C701B6010E941E29DF
:102A90000E94FC290E94E32720E030E040E251E45C
:102AA0000E948A290E94FC29CB016AE070E00E9402
:102AB000372AD82F8093F8029093F90220E030E073
:102AC000A901C701B6010E94322A20E030E040E0AF
:102AD0005FE387FD37C0C701B6010E941E290E942F
:102AE000FC290E94E3270E94FC29CB016AE070E0E8
:102AF0000E94372AC82F8093FA029093FB0220E0AD
:102B000040E267E070E083E994E00E94AA0C402F65
:102B100066E070E083E994E00E94900C6DCA20E0CA
:102B200030E040E05FE3C701B6010E941D2962CF9B
:102B3000C701B6010E941D2984CFC701B6010E94BA
:102B40001D29A6CFC701B6010E941D29C8CFC70104
:102B5000B6010E941D292ACEC701B6010E941D2977
:102B60004CCEC701B6010E941D296ECE20E030E098
:102B70004AE754E4C701B6010E94322A87FF32CFE8
:102B8000E2CDFC01EA5AFF4F208131811216130673
:102B90004CF46031710530F4262F4AE070E060E0BB
:102BA0000C94740B0895FB0101900020E9F7319714
:102BB000AF01461B570BDC01ED91FC910280F381C4
:102BC000E02D199462ED76E08091380690913906F7
:102BD0000E94D315E2EDF6E001900020E9F7E35101
:102BE000F74041F46AE272E080913806909139062C
:102BF0000C94D3150895CF93DF93EC0119821882BA
:102C00001B821A821D821C8261E070E090E080E0ED
:102C10000E94CD2B0097A1F0998388831B821A8292
:102C20002C813D81232B11F4FC0110821D821C821A
:102C30006BE272E088819981DF91CF910C94B72C7F
:102C400088819981009711F00E94442B1982188283
:102C50001D821C821B821A82DF91CF910895880FFA
:102C6000991FFC01E25CF74F0190F081E02D309755
:102C700049F18081918197FD22C01F922EE32F930D
:102C80001F9221E02F939F938F931F928BE68F9338
:102C90001F928CE38F938CE292E09F938F9382ED4F
:102CA00096E09F938F930E94CC2C0E94E2158DB7E3
:102CB0009EB70E960FB6F8949EBF0FBE8DBF90E0E4
:102CC00080E008958FEF9FEF0895FC018681978142
:102CD000208531858217930761F0918780872817B7
:102CE000390724F4828193810C942F168481958175
:102CF000FBCF089577FD1EC01F922EE32F937F9385
:102D00006F939F938F931F928CE38F938AE392E04C
:102D10009F938F9382ED96E09F938F930E94CC2C8C
:102D20008DB79EB70C960FB6F8949EBF0FBE8DBFA1
:102D30000C94E21508950F931F93CF93DF93C091E6
:102D40000809D0910909C436D1056CF58C0180E1E0
:102D500090E00E94A82AFC01DE01AA0FBB1FA25C22
:102D6000B74FED93FC93158304831382128213866D
:102D7000128681E090E0958784878FEF9FEF9183A3
:102D8000808397878687CE01019690930909809367
:102D9000080910920B0910920A09CE01DF91CF9118
:102DA0001F910F910895CFEFDFEFF7CF4F925F9212
:102DB0006F927F928F929F92AF92BF92CF92DF924B
:102DC000EF92FF920F931F93CF93DF93C091060969
:102DD000D0910709C436D1050CF04FC04701280136
:102DE00039017A016B015C0184E290E00E94A82A1B
:102DF000FC01DE01AA0FBB1FAA58B84FED93FC934C
:102E0000B78AA68A158A148AD382C28246825782DA
:102E100060867186A70170E060E044875587668709
:102E2000778781E090E095838483918E808E128EE7
:102E3000138E148E158E13A212A28FEF9FEF918323
:102E40008083CE0101969093070980930609109222
:102E50000B0910920A09CE01DF91CF911F910F91BA
:102E6000FF90EF90DF90CF90BF90AF909F908F90AA
:102E70007F906F905F904F900895CFEFDFEFEBCF93
:102E8000EF92FF920F931F93CF93DF93C0910609A8
:102E9000D0910709C436D1050CF048C08B017C01E4
:102EA00084E290E00E94A82AFC01DE01AA0FBB1F69
:102EB000AA58B84FED93FC93F78AE68A158A148ACC
:102EC00081E090E09383828382E090E09583848325
:102ED000118F008F80E090E0A0E8BFEB868F978F86
:102EE000A0A3B1A384E690E0A0E0B0E0848795873A
:102EF000A687B787168217821086118613A212A2A0
:102F00008FEF9FEF91838083CE0101969093070905
:102F10008093060910920B0910920A09CE01DF91E5
:102F2000CF911F910F91FF90EF900895CFEFDFEFBA
:102F3000F5CFEF92FF920F931F93CF93DF93C09142
:102F40000809D0910909C436D105C4F5072F162FF9
:102F50007C0180E190E00E94A82AFC01CC0FDD1FDB
:102F6000C25CD74FF983E883F582E4821382128230
:102F70001386128681E090E0958784878FEF9FEF1C
:102F8000918380831687078762E0812F0E94DC0887
:102F900080910809909109099C012F5F3F4F309360
:102FA00009092093080910920B0910920A09DF9170
:102FB000CF911F910F91FF90EF9008958FEF9FEFAA
:102FC000F6CF1F93CF93DF93C8E3D6E01F811F8214
:102FD0008CE396E00E94FB251F83DF91CF911F9128
:102FE00008951F920F920FB60F9211240BB60F92F5
:102FF0002F933F934F935F936F937F938F939F9301
:10300000AF93BF93EF93FF938BE995E00E945E0728
:10301000FF91EF91BF91AF919F918F917F916F91B0
:103020005F914F913F912F910F900BBE0F900FBE6C
:103030000F901F9018951F920F920FB60F921124A8
:103040000BB60F922F938F939F93EF93FF93E09183
:10305000AB05F091AC058081E091B105F091B2052E
:1030600082FD1DC090818091B4058F5F8F73209188
:10307000B505821741F0E091B405F0E0E556FA4F4E
:10308000958F8093B405FF91EF919F918F912F9130
:103090000F900BBE0F900FBE0F901F901895808160
:1030A000F2CF1F920F920FB60F9211242F933F93DE
:1030B0008F939F93AF93BF938091390390913A037D
:1030C000A0913B03B0913C033091380323E0230FE0
:1030D0002D3758F50196A11DB11D2093380380931B
:1030E000390390933A03A0933B03B0933C03809140
:1030F0003D0390913E03A0913F03B09140030196A0
:10310000A11DB11D80933D0390933E03A0933F0307
:10311000B0934003BF91AF919F918F913F912F91B9
:103120000F900FBE0F901F90189526E8230F029660
:10313000A11DB11DD2CF1F920F920FB60F92112475
:103140000BB60F922F933F934F935F936F937F93A1
:103150008F939F93AF93BF93EF93FF93E0910E02F2
:10316000F0910F021995FF91EF91BF91AF919F914F
:103170008F917F916F915F914F913F912F910F9020
:103180000BBE0F900FBE0F901F9018951F920F92BD
:103190000FB60F9211240BB60F922F933F934F93BC
:1031A0005F936F937F938F939F93AF93BF93EF93AF
:1031B000FF93E0910C02F0910D021995FF91EF91B0
:1031C000BF91AF919F918F917F916F915F914F913F
:1031D0003F912F910F900BBE0F900FBE0F901F903D
:1031E00018951F920F920FB60F9211240BB60F92E3
:1031F0002F933F934F935F936F937F938F939F93FF
:10320000AF93BF93EF93FF93E0910202F09103021B
:103210001995FF91EF91BF91AF919F918F917F9100
:103220006F915F914F913F912F910F900BBE0F9037
:103230000FBE0F901F9018951F920F920FB60F920E
:1032400011240BB60F922F933F934F935F936F937D
:103250007F938F939F93AF93BF93EF93FF93E091EF
:103260000002F09101021995FF91EF91BF91AF918A
:103270009F918F917F916F915F914F913F912F918E
:103280000F900BBE0F900FBE0F901F9018951F92BE
:103290000F920FB60F9211240BB60F922F933F93FC
:1032A0004F935F936F937F938F939F93AF93BF934E
:1032B000EF93FF93E0910A02F0910B021995FF91B1
:1032C000EF91BF91AF919F918F917F916F915F919E
:1032D0004F913F912F910F900BBE0F900FBE0F900B
:1032E0001F9018951F920F920FB60F9211240BB6D4
:1032F0000F922F933F934F935F936F937F938F938F
:103300009F93AF93BF93EF93FF93E0910802F091E7
:1033100009021995FF91EF91BF91AF919F918F9104
:103320007F916F915F914F913F912F910F900BBEC5
:103330000F900FBE0F901F9018951F920F920FB60F
:103340000F9211240BB60F922F933F934F935F93DD
:103350006F937F938F939F93AF93BF93EF93FF935D
:10336000E0910602F09107021995FF91EF91BF914C
:10337000AF919F918F917F916F915F914F913F910D
:103380002F910F900BBE0F900FBE0F901F901895AE
:103390001F920F920FB60F9211240BB60F922F931C
:1033A0003F934F935F936F937F938F939F93AF93CD
:1033B000BF93EF93FF93E0910402F09105021995FA
:1033C000FF91EF91BF91AF919F918F917F916F91FD
:1033D0005F914F913F912F910F900BBE0F900FBEB9
:1033E0000F901F9018958BBFFB0107900020E9F705
:1033F000609570956E0F7F1FCB010895FA016BBF2A
:10340000DC012150304030F08D910790801919F483
:103410000020B9F7881B990B0895EBE9F5E01382BA
:1034200012828CE192E09183808385EC90E0958715
:10343000848784EC90E09787868780EC90E0918B7E
:10344000808B81EC90E0938B828B82EC90E0958B6B
:10345000848B86EC90E0978B868B118E128E138E68
:10346000148EF0933906E093380684EF91E0A0E0E3
:10347000B0E084839583A683B7832FE230E040E3F6
:1034800050E06EE270E083E495E00E94F00B24E2ED
:1034900030E043E250E062E270E08BEE94E00E94A4
:1034A000F00B2EE130E04CE150E06FE170E083E999
:1034B00094E00E94F00B45E364E387E894E00E9407
:1034C000190B47E265E28BE794E00E94190B41E299
:1034D00060E28FE694E00E94190B4FE06EE083E615
:1034E00094E00E94190B4DE06CE087E594E00E94A7
:1034F000190B4DE16AE18BE494E00E94190B85E41D
:1035000094E00E94FB158FE394E00C94FB157894F3
:1035100084B5826084BD84B5816084BD85B58260D8
:1035200085BD85B5816085BD80916E008160809389
:103530006E001092810080918100826080938100F2
:103540008091810081608093810080918000816002
:10355000809380008091B10084608093B10080915D
:10356000B00081608093B000809191008260809370
:1035700091008091910081608093910080919000F2
:103580008160809390008091A10082608093A1006F
:103590008091A10081608093A1008091A000816052
:1035A0008093A0008091210182608093210180910D
:1035B00021018160809321018091200181608093AD
:1035C000200180917A00846080937A0080917A0053
:1035D000826080937A0080917A00816080937A0083
:1035E00080917A00806880937A001092C100F894EC
:1035F00010925204109253041092540410925504E5
:103600007894F894109282041092830410928404A7
:10361000109285047894F8941092760410927704AE
:1036200010927804109279047894F89410926A04B5
:1036300010926B0410926C0410926D047894F894BC
:1036400010925E0410925F04109260041092610464
:103650007894F89410928E0410928F041092900433
:1036600010929104789462E080918F030E94DC08AC
:10367000CFEFDFEFD0939803C093970362E0809180
:1036800081030E94DC08D0938A03C093890362E01F
:10369000809173030E94DC08D0937C03C0937B036A
:1036A00062E0809165030E94DC08D0936E03C093B2
:1036B0006D038091990590919A051816190644F4A6
:1036C00021E04CE070E060E083E495E00E94740B40
:1036D000C0911002D0911102BE0183E495E00E94D6
:1036E000C11580914105909142051816190644F4C0
:1036F00021E04CE070E060E08BEE94E00E94740BFF
:10370000BE018BEE94E00E94C1158091E904909176
:10371000EA041816190644F421E04CE070E060E079
:1037200083E994E00E94740BBE0183E994E00E9457
:10373000C1150E94CA0C62E082E30E94DC0862E0CC
:103740008EE30E94DC0862E081E30E94DC0862E014
:103750008AE20E94DC0862E080E40E94DC0862E009
:103760008BE30E94DC0862E08CE30E94DC0862E0EC
:103770008BE20E94DC0862E083E30E94DC0862E0E6
:1037800087E30E94DC0862E08AE30E94DC0862E0D2
:1037900085E40E94DC0862E084E10E94DC0862E0CB
:1037A00087E00E94DC0862E086E10E94DC0862E0BB
:1037B00083E00E94DC0862E084E00E94DC0862E0B2
:1037C0008BE00E94DC0862E089E00E94DC0862E095
:1037D00089E10E94DC0862E08BE10E94DC0861E084
:1037E00082E00E94DC0870E060E082E00E940D0947
:1037F000E091AB05F091AC0582E08083E091A705F4
:10380000F091A8051082E091A905F091AA0580E148
:1038100080831092B305E091AF05F091B00586E08A
:103820008083E091AD05F091AE0580818061808359
:10383000E091AD05F091AE05808188608083E091D4
:10384000AD05F091AE05808180688083E091AD0583
:10385000F091AE0580818F7D808386E492E0909325
:1038600075078093740710926B0710926A07109285
:10387000070910920609109209091092080910927E
:103880000B0910920A0910923A060DEDE02E03E0A2
:10389000F02E00E010E0980144E650E061E070E0B6
:1038A00088EC9CE00E94D61689EDE82E83E0F82E85
:1038B00000E010E0980144E650E061E070E083EA47
:1038C0009CE00E94D61695EDE92E93E0F92E00E0DB
:1038D00010E0980144E650E061E070E08DE79CE084
:1038E0000E94D61621EDE22E23E0F22E00E010E039
:1038F000980144E650E061E070E089E59CE00E94B8
:10390000D6163DECE32E33E0F32E00E010E09801F4
:1039100044E650E061E070E086E39CE00E94D61649
:1039200049ECE42E43E0F42E00E010E0980144E678
:1039300050E061E070E081E19CE00E94D61655EC19
:10394000E52E53E0F52E00E010E0980144E650E04B
:1039500061E070E08FEE9BE00E94D61661ECE62EEF
:1039600063E0F62E00E010E0980144E650E061E0EC
:1039700070E089EC9BE00E94D6167DEBE72E73E0A9
:10398000F72E00E010E0980144E650E061E070E0BE
:1039900083EA9BE00E94D616E9EBEE2EE3E0FE2ED2
:1039A00000E010E0980144E650E061E070E082E859
:1039B0009BE00E94D616F5EBEF2EF3E0FF2E00E021
:1039C00010E0980144E650E061E070E08EE59BE095
:1039D0000E94D616A1EBEA2EA3E0FA2E00E010E03A
:1039E000980144E650E061E070E08AE39BE00E94C9
:1039F000D616BDEAEB2EB3E0FB2E00E010E09801F6
:103A000044E650E061E070E086E19BE00E94D6165B
:103A1000C9EAEC2EC3E0FC2E00E010E0980144E679
:103A200050E061E070E082EF9AE00E94D616D5EA9D
:103A3000ED2ED3E0FD2E00E010E0980144E650E0CA
:103A400061E070E086EC9AE00E94D61611EAE12E61
:103A500013E0F12E00E010E0980144E650E061E050
:103A600070E08CE99AE00E94D6160DE9E02E03E0A2
:103A7000F02E00E010E0980144E650E061E070E0D4
:103A800084E79AE00E94D61661E370E084E59AE04C
:103A90000E9499176AE270E081E39AE00E94991708
:103AA0006CE370E08FE09AE00E9499176BE270E09F
:103AB0008AEE99E00E94991763E370E085EC99E043
:103AC0000E94991767E370E083EA99E00E949917D2
:103AD0006AE370E08FE799E00E94991765E470E06F
:103AE0008EE599E00E94991764E170E089E399E01E
:103AF0000E94991766E170E089E199E00E949917A8
:103B000063E070E086EF98E00E94991764E070E04F
:103B100083ED98E00E9499176BE070E080EB98E0ED
:103B20000E94991769E070E08DE898E00E9499176B
:103B30006BE370E08BE698E00E94991767E070E015
:103B400089E498E00E94991760E470E080E298E0D0
:103B50000E9499178BEEE82E83E0F82E00E010E02B
:103B600028EC32E450E040E062E070E08AEF97E059
:103B70000E94D61697EEE92E93E0F92E00E010E0B1
:103B800028EC32E450E040E062E070E084ED97E041
:103B90000E94D6162FEEE22E23E0F22E00E010E077
:103BA00028EC32E450E040E062E070E08DEA97E01B
:103BB0000E94D61633EEE32E33E0F32E00E010E041
:103BC00028EC32E450E040E061E070E087E897E004
:103BD0000E94D6168EE597E00E949B169093E20312
:103BE0008093E103C0910609D0910709C436D1053D
:103BF000ECF584E290E00E94A82AFC01DE01AA0F05
:103C0000BB1FAA58B84F8D939C93178A168A83E5D9
:103C100092E0958B848B81E090E09383828382E0B5
:103C200090E09583848385E394E0918F808F168E56
:103C3000178E10A211A284E690E0A0E0B0E0848785
:103C40009587A687B787168217821086118613A2DA
:103C500012A28FEF9FEF918380832196D093070963
:103C6000C093060910920B0910920A0961E673E0ED
:103C70008AE397E00E9440176DE573E08BE097E0E0
:103C80000E94401769E5E62E63E0F62E00E010E0A2
:103C9000980144E650E061E070E08BEE96E00E940F
:103CA000D61665E573E087EC96E00E94401761E563
:103CB00073E080EA96E00E9440176DE473E08CE7C1
:103CC00096E00E94401769E473E08AE596E00E945E
:103CD000401765E473E084E396E00E94401771E4C6
:103CE000E72E73E0F72E00E010E0980144E650E084
:103CF00061E070E08FE096E00E94D61686EE95E0D7
:103D00000E949B1690932C0480932B048DEB95E0DE
:103D10000E949B1690932E0480932D0483EA95E0D5
:103D20000E949B16909322048093210487E895E0DB
:103D30000E949B16909324048093230485E695E0CB
:103D40000E949B16909318048093170483E495E0D7
:103D50000E949B1690931A048093190480E295E0C8
:103D60000E949B1690930E0480930D048DEF94E0B7
:103D70000E949B169093100480930F048DED94E0A5
:103D80000E949B1690930404809303048BEB94E0B1
:103D90000E949B16909306048093050484E994E0A6
:103DA0000E949B169093FA038093F9038DE694E0AA
:103DB0000E949B169093FC038093FB038CE394E09A
:103DC0000E949B1690939203809391038BE094E062
:103DD0000E949B1690939403809393038DED93E040
:103DE0000E949B1690938403809383038FEA93E051
:103DF0000E949B16909386038093850380E893E04E
:103E00000E949B16909376038093750381E593E05F
:103E10000E949B16909378038093770388E293E047
:103E20000E949B1690936803809367038FEF92E044
:103E30000E949B1690936A0380936903E2ED6E2EB5
:103E4000E6E07E2EF4E08F2E912CA12CB12C8091F7
:103E5000380690913906DC01ED91FC910084F185E2
:103E6000E02D199520913A06892B81F02C3381F0B1
:103E70008091380690913906DC01ED91FC91028425
:103E8000F385E02D199580933A06E1CF2C33C1F5E7
:103E900000913806109139065BE3E52E56E0F52EC9
:103EA000D0E0C0E00E943E0AF801608771878287F7
:103EB0009387D801ED91FC910284F385E02DC80130
:103EC000199597FF54C60E943E0AF8012085318556
:103ED00042855385621B730B840B950B24813581BE
:103EE00046815781621773078407950710F3D093B3
:103EF000D106C093D006209709F063C010923A060D
:103F000080910A0990910B09892B09F45DC488E31B
:103F1000C82E86E0D82EF12CE12C809106099091D4
:103F20000709E816F9060CF4E0C2CEE3D8E010E089
:103F300000E08091080990910909081719070CF011
:103F400043C4E881F9818081918197FD36C00E9448
:103F50003E0AE881F981C680D780E084F1846C193B
:103F60007D098E099F096D3271408105910528F107
:103F70008685978597FDFEC30E9485087C01E881B0
:103F8000F98184859585E816F906B9F0608171811B
:103F900081E0E816F10409F0E8C38AE690E00E94A7
:103FA0007A160E943E0AE881F981668377838087CA
:103FB0009187E881F981F586E4860F5F1F4F22968D
:103FC000B8CFFE01E85CF94F2EE323832296D0930D
:103FD000D106C093D006C85CD94F1A8280913B06A7
:103FE000813609F44EC074F4833309F499C08433E4
:103FF00009F4EBC0823309F081CF10926B07109265
:104000006A077CCF853609F4FAC1863611F1843609
:1040100009F074CFE6E7F7E090E080E041E050E09F
:104020002091060930910709821793070CF066CF9B
:10403000A191B19112962D913C9113972250310983
:104040002230310520F41B965C934E931A9701960B
:10405000E7CF2091060930910709E6E7F7E090E005
:1040600080E0821793070CF074C18436910509F43F
:1040700070C1C191D1914881598157FDFBC0019612
:10408000F0CF80917407909175070097E1F01F922F
:104090002F939F938F931F9280E38F931F928CE3B4
:1040A0008F938AE792E09F938F937F926F920E9403
:1040B000CC2C0E94E215EDB7FEB73C960FB6F894F3
:1040C000FEBF0FBEEDBF81E090E090936B07809341
:1040D0006A07E6E7F7E090E080E02091060930917A
:1040E000070982179307A4F0EEE3F8E090E080E080
:1040F0002091080930910909821793070CF0FECE30
:10410000A191B1912FEF3FEF2D933C930196F0CF0A
:10411000A191B1912FEF3FEF2D933C930196DDCF0D
:10412000D0E0C0E08091060990910709C817D9072F
:104130000CF0E4CEFE01EE0FFF1FEA58F84F0081AD
:104140001181D80154966D917C9161157105F1F042
:10415000FB0101900020E9F73197AF01461B570B97
:104160008FE396E00E94BE2C892B71F4F8018081C8
:104170009181019649F40E94E117D8018D939C9397
:10418000C0910609D09107092196CCCFF801C688C5
:10419000D7880D2C000CEE08FF08C701B6010E945D
:1041A000F3199C01B701A6018FE396E00E94FE1966
:1041B000892B51F7D8018D919C91019629F70E9486
:1041C000E117F80191838083DBCFD0E0C0E08091DC
:1041D000080990910909C817D9070CF08FCEFE0184
:1041E000EE0FFF1FE25CF74F00811181D80112969C
:1041F0006D917C9161157105F1F0FB01019000203A
:10420000E9F73197AF01461B570B8FE396E00E9409
:10421000BE2C892B71F4F80180819181019649F4BB
:104220000E94E117D8018D939C93C0910809D09109
:1042300009092196CCCFF801C480D5800D2C000C43
:10424000EE08FF08C701B6010E94F3199C01B701EF
:10425000A6018FE396E00E94FE19892B51F7D80141
:104260008D919C91019629F70E94E117F8019183A5
:104270008083DBCF0C891D89CE80DF80E884F984C0
:1042800020E030E048EC52E4C701B6010E94422829
:104290000E94FC29CB0164E670E00E94372A582E68
:1042A000492EC701B6010E94FC292AA13BA18A819F
:1042B0009B810115110539F11F924EE34F931F9316
:1042C0000F934F925F927F936F933F932F939F93A0
:1042D0008F931F9282E68F931F928CE38F9383E8D4
:1042E00092E09F938F937F926F920E94CC2C2DB778
:1042F0003EB72C5E3F4F0FB6F8943EBF0FBE2DBFAA
:104300000E94E215FBCD1F924EE34F934F894F93CE
:104310004E894F934F925F927F936F933F932F936A
:104320009F938F931F9282E68F931F928CE38F93BC
:104330008FE992E09F938F937F926F920E94CC2C93
:104340008DB79EB744960FB6F8949EBF0FBE8DBF33
:10435000D7CFAEE3B8E090E080E02091080930913B
:104360000909821793070CF00FC48436910509F4EC
:104370000BC4ED91FD912081318137FD02C0019682
:10438000ECCF828193810097E1F01F922EE32F936F
:104390009F938F931F928DE68F931F928CE38F9341
:1043A0008AE792E09F938F937F926F920E94CC2C2A
:1043B000ADB7BEB71C960FB6F894BEBF0FBEADBF6B
:1043C0009FCF1F928EE38F9385818F9384818F93EC
:1043D0001F928DE68F931F928CE38F938BEB92E06D
:1043E0009F938F937F926F920E94CC2CEDB7FEB774
:1043F0003C960FB6F894FEBF0FBEEDBF81CF0E9472
:10440000E1177C0190E080E02091060930910709D6
:10441000821793070CF072CDEC01C156DF4F8E016D
:10442000000F111F085C194FD801ED91FC912081FC
:104430003181E216F30609F056C0228133812D7FC7
:104440002130310509F04FC0848195810197F9F43D
:10445000C08CD18C50904906109249068FE396E0AB
:104460000E941926F60160837183828393835092A0
:104470004906D801ED91FC91A08DB18D8D919D9152
:104480000D90BC91A02D828F938FA48FB58FCC0FF0
:10449000DD1FC85CD94FE881F9818481958102973D
:1044A000F1F4008D118DD0904906109249068FE3EA
:1044B00096E00E94F725F8016083718382839383DD
:1044C000D0924906E881F981A08DB18D8D919D91A1
:1044D0000D90BC91A02D868F978FA0A3B1A3809142
:1044E00006099091070901968FCFE601C25CDE4F65
:1044F000A881B9818D919C91119797FD11C0129659
:104500008D919C9113970297029750F414968D9178
:104510009C9115978130910551F0029709F485C05F
:10452000FFEFEF1AFF0A22E0C20ED11CF6CC58961C
:10453000ED91FC91599740815181628173815A9626
:104540008D919D910D90BC91A02D481759076A0738
:104550007B0731F30E943E0AE881F98100891189C5
:1045600022893389AB01BC01401B510B620B730BD9
:1045700084859585A685B78521E0892B8A2B8B2B91
:1045800029F482859385892B09F420E0822F90E01D
:10459000B0E0A0E084179507A607B70708F680816A
:1045A000918197FD25C01F922EE32F93008CF18DF2
:1045B000E02D21812F9320812F939F938F931F9222
:1045C00035E63F931F928CE38F93ACE2B2E0BF934A
:1045D000AF937F926F920E94CC2C0E94E2152DB770
:1045E0003EB7225F3F4F0FB6F8943EBF0FBE2DBFC0
:1045F000E881F981A08DB18D8D919D910D90BC9137
:10460000A02D828F938FA48FB58F088119810E946E
:104610003E0AD80150966D937D938D939C9353974A
:10462000E881F981138612867BCF5896ED91FC9133
:1046300059975E962D913D914D915C919197608136
:104640007181828193810E94DC27811177C0E8818A
:10465000F98182859385892B09F462CFE881F981FC
:104660000081118117FD53C0008CF18DE02D208059
:104670003180428053801F92BEE3BF9320E030E040
:1046800048EC52E4C201B1010E9442280E94FC2978
:10469000CB0164E670E00E94372A97FF03C0919532
:1046A000819591099F938F93C201B1010E94FC29CA
:1046B0009B0177FF04C022273327261B370B3F932C
:1046C0002F931F930F931F92E5E6EF931F92FCE346
:1046D000FF9324EC32E03F932F937F926F920E94DE
:1046E000CC2CADB7BEB750960FB6F894BEBF0FBE78
:1046F000ADBF20E030E0A901C201B1010E94DC277A
:1047000087FF03C0BDE2B093D7060E94E215E8819F
:10471000F981A08DB18D8D919D910D90BC91A02DB1
:10472000868F978FA0A3B1A3088119810E943E0AAA
:10473000F801608B718B828B938B72CF0E943E0A43
:10474000E881F9810089118922893389601B710B05
:10475000820B930B04851585268537850617170769
:104760002807390708F073CF79CF89E690E00E94D7
:104770007A161FCCA285B385109709F41ECC8D91B3
:104780009C91248535858217930709F416CC6081A6
:10479000718118161906ACF48AE690E00E947A1628
:1047A000E881F981A285B3858D919C919587848755
:1047B0000E943E0AE881F98166837783808791872A
:1047C000FCCB89E690E0EACF80910A0990910B0931
:1047D000892B09F4B5C180913D0490913E04892B49
:1047E00001F1D0E0C0E0BE0182E00E940D090E940C
:1047F000090A2196C11591E0D907A9F7CFEFD0E0BA
:10480000BE0182E00E940D090E94090A2197C0F7AB
:104810006FE770E082E00E940D0910923E04109252
:104820003D04C0903504D0903604E0903704F090F9
:104830003804A70196016091390470913A0480917F
:104840003B0490913C040E94DC27882309F44EC06D
:1048500020E030E04FE753E4C701B6010E94422850
:1048600020E030E0A9010E941E290E94FC297093DB
:1048700011026093100282E00E940D0920E030E0F6
:1048800040E850E46091350470913604809137041B
:10489000909138040E94422820E030E0A9010E9453
:1048A0001E290E94FC296B01709334046093330429
:1048B00083E495E00E94C115B6018BEE94E00E945E
:1048C000C115B60183E994E00E94C11580913504B9
:1048D00090913604A0913704B09138048093390444
:1048E00090933A04A0933B04B0933C048BE494E08F
:1048F0000E94050BA50194010E944B2A30933004BD
:1049000020932F048BE794E00E94050BA5019401EE
:104910000E944B2A30932604209325048FE694E0CE
:104920000E94050BA50194010E944B2A30931C04A0
:1049300020931B0483E694E00E94050BA5019401DB
:104940000E944B2A309312042093110487E594E0CF
:104950000E94050BA50194010E944B2A3093080484
:104960002093070487E894E00E94050BA5019401B9
:104970000E944B2A3093FE032093FD0389E294E0CA
:104980000E9465168FE194E00E94651685E194E02F
:104990000E9465168BE094E00E94651681E094E029
:1049A0000E94651687EF93E00E9465160E94CA0C6C
:1049B0000E943E0A0091F3031091F4032091F50345
:1049C0003091F603601B710B820B930B65367105FA
:1049D0008105910508F4B4C00E943E0A6093F30378
:1049E0007093F4038093F5039093F6038EE30E9493
:1049F000850841E050E060E070E0892B19F040E06C
:104A000050E0BA014093EF035093F0036093F10339
:104A10007093F20382E30E94850841E050E060E079
:104A200070E0892B19F040E050E0BA014093EB03AD
:104A30005093EC036093ED037093EE038BE10E94BF
:104A4000850841E050E060E070E0892B19F040E01B
:104A500050E0BA014093E7035093E8036093E90301
:104A60007093EA0389E10E948508892B09F06BC0E5
:104A70008091E3039091E403A091E503B091E603F4
:104A8000892B8A2B8B2B09F05EC08091E1039091DA
:104A9000E2030E942F166091DD038CE20E94AE08B3
:104AA0006091D9038DE20E94AE086091D50388E23F
:104AB0000E94AE086091D1038DE30E94AE08609120
:104AC000CD0388E30E94AE086091C90389E30E9488
:104AD000AE086091C50383E40E94AE086091C103F3
:104AE00089E20E94AE086091BD0385E10E94AE0894
:104AF0006091B90387E10E94AE086091B50385E03B
:104B00000E94AE086091B10386E00E94AE086091F9
:104B1000AD038AE00E94AE086091A90388E00E947C
:104B2000AE086091A5038FE30E94AE086091A103D7
:104B300086E20E94AE0860919D0388E10E94AE0863
:104B40000E94ED0784C989E10E948508892B09F438
:104B5000A2CF8091E3039091E403A091E503B0918B
:104B6000E603892B8A2B8B2B09F08FCF94CF8E33C2
:104B7000910509F4BCC9D7018D937D012196C539F2
:104B8000D10509F08FC9B3C981E090E090930B097A
:104B900080930A091F928EE38F931F9283E68F936F
:104BA0001F928CE38F9389ED92E09F938F937F9276
:104BB0006F920E94CC2C0E94E215EDB7FEB73A9698
:104BC0000FB6F894FEBF0FBEEDBF98C980913F04A9
:104BD00090914004009711F00E94442B809145046D
:104BE00090914604009711F00C94442B0895662789
:104BF00077270C945D26FC0188279927E89421915A
:104C00002032E9F3293010F02E30C8F32B3241F076
:104C10002D3239F4689404C00E945526820F911DEC
:104C2000219120532A30C0F31EF4909581959F4F17
:104C300008951F93FC0199278827BC01E8941191DE
:104C40001032E9F3193010F01E30C8F31B3251F066
:104C50001D3249F4689406C00E944026610F711D00
:104C6000811D911D119110531A30B0F33EF49095AF
:104C70008095709561957F4F8F4F9F4F1F9108953D
:104C8000592F482F372F262F660F771F881F991F00
:104C9000660F771F881F991F620F731F841F951F50
:104CA000660F771F881F991F08957AE0979F902DB0
:104CB000879F802D910D112408958F929F92AF921E
:104CC000BF92CF92DF92EF92FF920F931F93CF93F9
:104CD000DF935C017B016115710519F0DB018D9398
:104CE0009C9385010F5F1F4FF501D0818D2F90E0C0
:104CF0000E94BB276C01892BB9F5DD32B9F50F5F36
:104D00001F4FD5011196DC91C1E05801F1E0AF1AB7
:104D1000B10843E050E06CEA71E0C5010E94C4278D
:104D2000892B69F5680182E0C80ED11C45E050E08E
:104D300067EA71E0C6010E94C427892B21F468014B
:104D400097E0C90ED11CE114F10419F0D701CD92FE
:104D5000DC9260E070E080E89FEFC111FFC060E08E
:104D600070E080E89FE7FAC05801BBCFDB3229F43E
:104D700085010E5F1F4FF501D181C0E0C6CF43E032
:104D800050E064EA71E0C5010E94C427892BE9F074
:104D9000F80110E000E020E030E0A9015F01B0ED93
:104DA0008B2E8D0E89E08815C8F19C2E689491F8A1
:104DB0008C2F8870C2FF16C0811102C00F5F1F4F79
:104DC0003196D501DC91C92DE9CFE114F10429F028
:104DD0000E5F1F4FF7011183008360E070E080ECED
:104DE0009FE7BCC0882311F001501109A5E0B0E095
:104DF0000E9403299B01AC01220F331F441F551F42
:104E0000280D311D411D511D283999E939074907E0
:104E100099E15907A8F2C6609C2ED2CFAEEF8A1254
:104E200006C0C3FD3CC09C2E689493F8C9CFDF7DBB
:104E3000D534A9F580818D3239F4C061DF01129635
:104E4000818162E070E006C0DF018B32C1F3119610
:104E500061E070E080535D01A61AB70A8A30F8F469
:104E6000E0E8CE16ECE0DE065CF4B601660F771FD4
:104E7000660F771FC60ED71ECC0CDD1CC80ED11CCA
:104E80005D01FFEFAF1ABF0A8C9180538A30A8F101
:104E9000C4FF03C0D194C194D1080C0D1D1DC1FFE6
:104EA00009C0E114F10431F081E0A81AB108D7017A
:104EB000AD92BC92CA01B9010E94E127C370C33010
:104EC00009F490584B015C0120E030E0A9010E94F8
:104ED000DC27882309F440C0CBEDD1E017FF05C0E3
:104EE000119501951109C3ECD1E06E01B8E1CB1A1F
:104EF000D10880E2E82EF12C0FC0D501B1CFFE0120
:104F000025913591459154910E191F09C501B401A0
:104F10000E9442284B015C01D501C4010E151F05FA
:104F200074F72497F594E794CC16DD06A9F78A2F39
:104F3000880F8B2F881F8F3F49F020E030E0A901B8
:104F4000C501B4010E94DC27811106C082E290E015
:104F500090930D0980930C09C501B401DF91CF91A5
:104F60001F910F91FF90EF90DF90CF90BF90AF9087
:104F70009F908F90089591110C94AF28803219F072
:104F800089508550C8F70895FB01DC01415050401D
:104F900088F08D9181341CF08B350CF4805E659126
:104FA00061341CF06B350CF4605E861B611171F38B
:104FB000990B0895881BFCCF0E941E2808F481E0FD
:104FC0000895E89409C097FB3EF4909580957095FC
:104FD00061957F4F8F4F9F4F9923A9F0F92F96E945
:104FE000BB279395F695879577956795B795F111BA
:104FF000F8CFFAF4BB0F11F460FF1BC06F5F7F4F57
:105000008F4F9F4F16C0882311F096E911C0772368
:1050100021F09EE8872F762F05C0662371F096E871
:10502000862F70E060E02AF09A95660F771F881F40
:10503000DAF7880F9695879597F90895990F0008E4
:10504000550FAA0BE0E8FEEF16161706E807F9075A
:10505000C0F012161306E407F50798F0621B730BF5
:10506000840B950B39F40A2661F0232B242B252B76
:1050700021F408950A2609F4A140A6958FEF811D19
:10508000811D08950E9455280C94C9280E94BB28B0
:1050900038F00E94C22820F0952311F00C94B22819
:1050A0000C94B82811240C94FD280E94DA2870F37F
:1050B000959FC1F3950F50E0551F629FF001729FBD
:1050C000BB27F00DB11D639FAA27F00DB11DAA1FCC
:1050D000649F6627B00DA11D661F829F2227B00D19
:1050E000A11D621F739FB00DA11D621F839FA00DA4
:1050F000611D221F749F3327A00D611D231F849FF4
:10510000600D211D822F762F6A2F11249F5750404A
:105110009AF0F1F088234AF0EE0FFF1FBB1F661FC5
:10512000771F881F91505040A9F79E3F510580F08E
:105130000C94B2280C94FD285F3FE4F3983ED4F31E
:10514000869577956795B795F795E7959F5FC1F732
:10515000FE2B880F911D9695879597F908959927AD
:105160008827089597F99F6780E870E060E00895C8
:105170009FEF80EC089500240A941616170618066F
:105180000906089500240A9412161306140605064B
:105190000895092E0394000C11F4882352F0BB0FDC
:1051A00040F4BF2B11F460FF04C06F5F7F4F8F4F3F
:1051B0009F4F089557FD9058440F551F59F05F3F7A
:1051C00071F04795880F97FB991F61F09F3F79F029
:1051D00087950895121613061406551FF2CF4695AB
:1051E000F1DF08C0161617061806991FF1CF86952D
:1051F0007105610508940895E894BB276627772711
:10520000CB0197F908950E940E29A59F900DB49F98
:10521000900DA49F800D911D11240895A29FB001AF
:10522000B39FC001A39F700D811D1124911DB29FDA
:10523000700D811D1124911D08955058BB27AA2778
:105240000E9435290C94C9280E94BB2838F00E947E
:10525000C22820F039F49F3F19F426F40C94B828A2
:105260000EF4E095E7FB0C94B228E92F0E94DA28AF
:1052700058F3BA17620773078407950720F079F48B
:10528000A6F50C94FC280EF4E0950B2EBA2FA02D59
:105290000B01B90190010C01CA01A0011124FF27E3
:1052A000591B99F0593F50F4503E68F11A16F040DE
:1052B000A22F232F342F4427585FF3CF46953795DD
:1052C0002795A795F0405395C9F77EF41F16BA0BA2
:1052D000620B730B840BBAF09150A1F0FF0FBB1F50
:1052E000661F771F881FC2F70EC0BA0F621F731F99
:1052F000841F48F4879577956795B795F7959E3FF6
:1053000008F0B0CF9395880F08F09927EE0F979586
:10531000879508950E949E290C94C9280E94C2284E
:1053200058F00E94BB2840F029F45F3F29F00C940C
:10533000B22851110C94FD280C94B8280E94DA2848
:1053400068F39923B1F3552391F3951B550BBB27B4
:10535000AA2762177307840738F09F5F5F4F220FF9
:10536000331F441FAA1FA9F335D00E2E3AF0E0E8F0
:1053700032D091505040E695001CCAF72BD0FE2F3A
:1053800029D0660F771F881FBB1F261737074807CE
:10539000AB07B0E809F0BB0B802DBF01FF27935886
:1053A0005F4F3AF09E3F510578F00C94B2280C9470
:1053B000FD285F3FE4F3983ED4F386957795679593
:1053C000B795F7959F5FC9F7880F911D96958795BB
:1053D00097F90895E1E0660F771F881FBB1F6217DA
:1053E00073078407BA0720F0621B730B840BBA0B98
:1053F000EE1F88F7E09508950E94032A6894B11182
:105400000C94FD2808950E94E22888F09F5798F098
:10541000B92F9927B751B0F0E1F0660F771F881FB9
:10542000991F1AF0BA95C9F714C0B13091F00E94D3
:10543000FC28B1E008950C94FC28672F782F88276A
:10544000B85F39F0B93FCCF3869577956795B395FA
:10545000D9F73EF490958095709561957F4F8F4F69
:105460009F4F08950E941E2808F48FEF089597FB20
:10547000072E16F4009407D077FD09D00E94722AF7
:1054800007FC05D03EF4909581959F4F0895709547
:1054900061957F4F0895052E97FB1EF400940E949E
:1054A000622A57FD07D00E94862A07FC03D04EF4DB
:1054B0000C94622A50954095309521953F4F4F4F5F
:1054C0005F4F089590958095709561957F4F8F4FB0
:1054D0009F4F0895EE0FFF1F881F8BBF0790F69117
:1054E000E02D1994AA1BBB1B51E107C0AA1FBB1FCB
:1054F000A617B70710F0A61BB70B881F991F5A9560
:10550000A9F780959095BC01CD010895A1E21A2ECE
:10551000AA1BBB1BFD010DC0AA1FBB1FEE1FFF1F57
:10552000A217B307E407F50720F0A21BB30BE40BA7
:10553000F50B661F771F881F991F1A9469F76095EE
:105540007095809590959B01AC01BD01CF010895A8
:105550000F931F93CF93DF938230910510F482E075
:1055600090E0E0911009F091110930E020E0B0E006
:10557000A0E0309799F42115310509F44AC0281BA1
:10558000390B24303105D8F58A819B81611571056D
:1055900089F1FB0193838283FE0111C04081518117
:1055A0000281138148175907E0F04817590799F409
:1055B000109761F012960C93129713961C933296E3
:1055C000CF01DF91CF911F910F91089500931009A2
:1055D00010931109F4CF2115310551F042175307EB
:1055E00038F0A901DB019A01BD01DF01F801C1CF4B
:1055F000EF01F9CF9093110980931009CDCFFE01EF
:10560000E20FF31F8193919322503109398328834C
:10561000D7CF20910E0930910F09232B41F420910F
:1056200014023091150230930F0920930E09209136
:105630001202309113022115310541F42DB73EB706
:105640004091160250911702241B350BE0910E0970
:10565000F0910F09E217F307A0F42E1B3F0B281758
:10566000390778F0AC014E5F5F4F2417350748F0DB
:105670004E0F5F1F50930F0940930E098193919332
:105680009FCFF0E0E0E09CCFCF93DF930097E9F06D
:10569000FC01329713821282A0911009B091110976
:1056A000ED0130E020E01097A1F420813181820FDC
:1056B000931F20910E0930910F092817390709F01F
:1056C00061C0F0930F09E0930E09DF91CF91089527
:1056D000EA01CE17DF07E8F54A815B819E0141159B
:1056E0005105B1F7E901FB83EA8349915991C40F50
:1056F000D51FEC17FD0761F4808191810296840F1C
:10570000951FE90199838883828193819B838A8392
:10571000F0E0E0E012968D919C9113970097B9F517
:105720002D913C911197CD010296820F931F2091EC
:105730000E0930910F092817390739F6309751F5BE
:105740001092110910921009B0930F09A0930E093D
:10575000BCCFD383C28340815181840F951FC8176A
:10576000D90761F44E5F5F4F88819981480F591FB7
:10577000518340838A819B819383828321153105E4
:1057800009F0B0CFF0931109E09310099ECFFD010D
:10579000DC01C0CF13821282D7CF4F925F926F92FB
:1057A0007F928F929F92AF92BF92CF92DF92EF92B1
:1057B000FF920F931F93CF93DF938C01009799F47F
:1057C000CB01DF91CF911F910F91FF90EF90DF9070
:1057D000CF90BF90AF909F908F907F906F905F9091
:1057E0004F900C94A82AFC01E60FF71F9C01225051
:1057F0003109E217F30708F4AEC0D901CD91DC916D
:105800001197C617D70720F1C530D10578F0CE0122
:1058100004978617970750F0C61BD70B2297C193A2
:10582000D1936D937C93CF010E94442BC801DF91EB
:10583000CF911F910F91FF90EF90DF90CF90BF908D
:10584000AF909F908F907F906F905F904F90089552
:105850005B01AC1ABD0A4C018C0E9D1EA091100973
:10586000B0911109512C412CF12CE12C109731F5FC
:1058700080910E0990910F098815990509F05CC077
:105880004616570608F058C08091120290911302F4
:10589000009741F48DB79EB74091160250911702C0
:1058A000841B950BE817F90708F055C0F0930F0912
:1058B000E0930E09F90171836083B8CF8D919C91BB
:1058C000119712966C90129713967C901397A815C7
:1058D000B90559F56C0142E0C40ED11CCA14DB04B1
:1058E00020F1AC014A195B09DA011296159780F094
:1058F0006282738251834083D9016D937C93E1145A
:10590000F10471F0D7011396FC93EE9312978ECFAA
:1059100022968C0F9D1FF90191838083F301EFCFB5
:10592000F0931109E093100981CF4816590608F445
:105930002C017D01D3019ACFCB010E94A82A7C01C2
:10594000009749F0AE01B8010E94AE2CC8010E9438
:10595000442B87016BCF10E000E068CFFB01DC0136
:1059600002C001900D9241505040D8F70895FB01BC
:10597000DC0101900D920020E1F70895FB01DC01AC
:105980004150504030F08D910190801919F4002061
:10599000B9F7881B990B08950F931F93CF93DF934B
:1059A000CDB7DEB72E970FB6F894DEBF0FBECDBFD2
:1059B0000E891F8986E08C831A8309838FEF9FE706
:1059C0009E838D83AE01465E5F4F688D798DCE01DB
:1059D00001960E94FC2C2F813885020F131FF801BD
:1059E00010822E960FB6F894DEBF0FBECDBFDF91AA
:1059F000CF911F910F9108952F923F924F925F92F6
:105A00006F927F928F929F92AF92BF92CF92DF92CE
:105A1000EF92FF920F931F93CF93DF9300D000D0AC
:105A200000D01F921F92CDB7DEB77C013B018A01E7
:105A3000FC0117821682838181FFDDC1CE010196B0
:105A40005C01F7019381F30193FD859193FF8191AF
:105A50003F01882309F453C1853239F493FD8591C0
:105A600093FF81913F01853229F4B70190E00E94B4
:105A7000142FE7CF912C212C312CFFE1F31538F0B6
:105A80008B3211F190F4803209F1833229F137FC25
:105A90003CC020ED280F2A3050F536FE20C08AE0A9
:105AA000989E200D1124922E06C08D3291F08033E5
:105AB00071F7689430F8F30193FD859193FF81911C
:105AC0003F018111DACF21C0689431F8689432F82F
:105AD000F2CF689433F8EFCF689434F8ECCFEAE073
