:1000000056C600000C9488180C945D180C94321895
:100010000C9407180C94DC170C94B1170C948617E9
:100020000C945B1775C6000073C6000071C6000013
:100030006FC600006DC600006BC6000069C60000F8
:1000400067C6000065C6000063C6000061C6000008
:100050005FC600005DC600005BC600000C9411176F
:1000600057C600000C94DB160C94B11651C6000064
:100070004FC600004DC600004BC6000049C6000038
:1000800047C6000045C6000043C6000041C6000048
:100090003FC600003DC600003BC6000039C6000058
:1000A00037C6000035C6000033C6000031C6000068
:1000B0002FC600002DC600002BC6000029C6000078
:1000C00027C6000025C6000023C6000021C6000088
:1000D0001FC600001DC600001BC6000019C6000098
:1000E00017C600004E414E494E495459494E46CD1F
:1000F000CCCC3D0AD7233C17B7D13877CC2B3295DF
:1001000095E6241FB14F0A000020410000C84200BC
:10011000401C4620BCBE4CCA1B0E5AAEC59D740086
:10012000002100240027002A002D003000330001A8
:10013000010000040107010A010000220025002837
:10014000002B002E003100340002010000050108E0
:10015000010B01000020002300260029002C002FA5
:100160000032000001000003010601090105050538
:1001700005070508080808020202020A0A0808041E
:10018000040404010101010101010103030303034C
:10019000030303040707070C0C0C0C0C0C0C0C02DB
:1001A00002020206060606060606060B0B0B0B0BE2
:1001B0000B0B0B01021020200808102040102040DB
:1001C000800201020108040201010204081020401B
:1001D0008080402010080402018004020180402039
:1001E0001008040201080402010102040810204062
:1001F00080010204081020408000000A0B02090C54
:100200000D0E0807030401000000000000000000BC
:1002100000000000000000000000000000000000DE
:10022000000000000012111000000000000000009B
:100230000000000000000000000000000000006C52
:10024000616D696E61722F423733382F6175746F3B
:1002500070696C6F742F646973636F6E6E6563741D
:100260005F746F67676C65006C616D696E61722F9A
:10027000423733382F6175746F70696C6F742F64F7
:100280006973636F6E6E6563745F746F67676C65C7
:10029000006C616D696E61722F423733382F617562
:1002A000746F70696C6F742F6175746F7468726F9E
:1002B00074746C655F61726D5F746F67676C650005
:1002C0006C616D696E61722F423733382F617574BE
:1002D0006F70696C6F742F6175746F7468726F746E
:1002E000746C655F61726D5F746F67676C65006CDD
:1002F000616D696E61722F423733382F6175746F8B
:1003000070696C6F742F666C696768745F6469727A
:100310006563746F725F746F67676C65006C616DA5
:10032000696E61722F423733382F6175746F70694F
:100330006C6F742F666C696768745F64697265635B
:10034000746F725F746F67676C65006C616D696E66
:1003500061722F423733382F6175746F70696C6F1B
:10036000742F666C696768745F6469726563746F23
:10037000725F666F5F746F67676C65006C616D6953
:100380006E61722F423733382F6175746F70696CEC
:100390006F742F666C696768745F646972656374F3
:1003A0006F725F666F5F746F67676C65006C616D1D
:1003B000696E61722F423733382F6175746F7069BF
:1003C0006C6F742F636F757273655F70696C6F7497
:1003D0005F646E006C616D696E61722F42373338F5
:1003E0002F6175746F70696C6F742F636F757273A2
:1003F000655F70696C6F745F75700073696D2F61F4
:1004000075746F70696C6F742F766572746963614F
:100410006C5F73706565645F646F776E0073696DA0
:100420002F6175746F70696C6F742F766572746963
:1004300063616C5F73706565645F7570006C616D9E
:10044000696E61722F423733382F6175746F70692E
:100450006C6F742F616C7469747564655F646E0091
:100460006C616D696E61722F423733382F6175741C
:100470006F70696C6F742F616C7469747564655FFB
:100480007570006C616D696E61722F423733382F61
:100490006175746F70696C6F742F68656164696EE3
:1004A000675F646E006C616D696E61722F423733F5
:1004B000382F6175746F70696C6F742F6865616433
:1004C000696E675F75700073696D2F6175746F7009
:1004D000696C6F742F61697273706565645F646FB6
:1004E000776E0073696D2F6175746F70696C6F74CE
:1004F0002F61697273706565645F7570006C616D02
:10050000696E61722F423733382F6175746F70696D
:100510006C6F742F636F757273655F636F70696C56
:100520006F745F646E006C616D696E61722F42372B
:1005300033382F6175746F70696C6F742F636F75CA
:100540007273655F636F70696C6F745F7570006C58
:10055000616D696E61722F423733382F6175746F28
:1005600070696C6F742F7676695F6469616C5F7314
:10057000686F77006C616D696E61722F4237333836
:100580002F6175746F70696C6F742F636F75727300
:10059000655F636F70696C6F74006C616D696E612B
:1005A000722F423733382F6175746F70696C6F74B6
:1005B0002F61705F7676695F706F73006C616D6933
:1005C0006E61722F423733382F6175746F70696CAA
:1005D0006F742F6D63705F616C745F6469616C0030
:1005E00073696D2F636F636B7069742F6175746FBE
:1005F00070696C6F742F61697273706565645F698F
:10060000735F6D616368006C616D696E61722F422A
:100610003733382F6175746F70696C6F742F6D6329
:10062000705F6864675F6469616C006C616D696EBE
:1006300061722F423733382F6175746F70696C6F38
:10064000742F73686F775F696173006C616D696E99
:1006500061722F423733382F6175746F70696C6F18
:10066000742F6D63705F73706565645F6469616C3E
:100670005F6B74735F6D616368006C616D696E615F
:10068000722F423733382F6175746F70696C6F74D5
:100690002F636F757273655F70696C6F74006C6146
:1006A0006D696E61722F423733382F6175746F70C8
:1006B000696C6F742F646973636F6E6E6563745FCA
:1006C000746F67676C65006C616D696E61722F4253
:1006D0003733382F6175746F70696C6F742F64696C
:1006E00073636F6E6E6563745F706F73006C616DC2
:1006F000696E61722F423733382F7377697463687C
:1007000065732F6175746F70696C6F742F61745F9E
:1007100061726D006C616D696E61722F42373338A2
:100720002F73776974636865732F6175746F70696F
:100730006C6F742F66645F666F006C616D696E61CB
:10074000722F423733382F73776974636865732F5C
:100750006175746F70696C6F742F66645F6361009C
:100760006C616D696E61722F423733382F61757419
:100770006F70696C6F742F6368616E67655F6F7609
:1007800065725F7072657373006C616D696E617222
:100790002F423733382F6175746F70696C6F742F07
:1007A000616C745F696E74657276006C616D696E00
:1007B00061722F423733382F6175746F70696C6FB7
:1007C000742F7370645F696E74657276006C616D0E
:1007D000696E61722F423733382F6175746F70699B
:1007E0006C6F742F6377735F625F707265737300F1
:1007F0006C616D696E61722F423733382F61757489
:100800006F70696C6F742F6377735F615F7072656F
:100810007373006C616D696E61722F423733382FCC
:100820006175746F70696C6F742F636D645F625F64
:100830007072657373006C616D696E61722F4237FF
:1008400033382F6175746F70696C6F742F636D64CA
:100850005F615F7072657373006C616D696E617268
:100860002F423733382F6175746F70696C6F742F36
:1008700076735F7072657373006C616D696E61721F
:100880002F423733382F6175746F70696C6F742F16
:10089000616C745F686C645F7072657373006C6127
:1008A0006D696E61722F423733382F6175746F70C6
:1008B000696C6F742F6170705F7072657373006C18
:1008C000616D696E61722F423733382F6175746FB5
:1008D00070696C6F742F766F726C6F635F70726586
:1008E0007373006C616D696E61722F423733382FFC
:1008F0006175746F70696C6F742F6C6E61765F7068
:1009000072657373006C616D696E61722F4237336B
:10091000382F6175746F70696C6F742F6864675FCE
:1009200073656C5F7072657373006C616D696E6185
:10093000722F423733382F6175746F70696C6F7422
:100940002F6C766C5F6368675F7072657373006CA1
:10095000616D696E61722F423733382F6175746F24
:1009600070696C6F742F766E61765F7072657373E9
:10097000006C616D696E61722F423733382F61757B
:10098000746F70696C6F742F73706565645F7072DB
:10099000657373006C616D696E61722F4237333815
:1009A0002F6175746F70696C6F742F6E315F707228
:1009B000657373006C616D696E61722F42373338F5
:1009C0002F6175746F70696C6F742F6D61737465CE
:1009D000725F666F5F737461747573006C616D69CB
:1009E0006E61722F423733382F6175746F70696C86
:1009F0006F742F6D61737465725F636170745F7380
:100A00007461747573006C616D696E61722F423729
:100A100033382F6175746F70696C6F742F617574E2
:100A20006F7468726F74746C655F737461747573DE
:100A300031006C616D696E61722F423733382F61FE
:100A400075746F70696C6F742F6377735F625F7317
:100A50007461747573006C616D696E61722F4237D9
:100A600033382F6175746F70696C6F742F6377738F
:100A70005F615F737461747573006C616D696E6141
:100A8000722F423733382F6175746F70696C6F74D1
:100A90002F636D645F625F737461747573006C6162
:100AA0006D696E61722F423733382F6175746F70C4
:100AB000696C6F742F636D645F615F7374617475CB
:100AC00073006C616D696E61722F423733382F612C
:100AD00075746F70696C6F742F76735F7374617463
:100AE0007573006C616D696E61722F423733382FF8
:100AF0006175746F70696C6F742F616C745F686C72
:100B0000645F737461747573006C616D696E61729A
:100B10002F423733382F6175746F70696C6F742F83
:100B20006864675F73656C5F737461747573006C80
:100B3000616D696E61722F423733382F6175746F42
:100B400070696C6F742F6170705F7374617475730A
:100B5000006C616D696E61722F423733382F617599
:100B6000746F70696C6F742F766F726C6F635F73E4
:100B70007461747573006C616D696E61722F4237B8
:100B800033382F6175746F70696C6F742F6C6E6180
:100B9000765F737461747573006C616D696E6172F8
:100BA0002F423733382F6175746F70696C6F742FF3
:100BB000766E61765F73746174757331006C616D0C
:100BC000696E61722F423733382F6175746F7069A7
:100BD0006C6F742F6C766C5F6368675F737461749D
:100BE0007573006C616D696E61722F423733382FF7
:100BF0006175746F70696C6F742F73706565645F75
:100C000073746174757331006C616D696E61722FFC
:100C1000423733382F6175746F70696C6F742F6E43
:100C2000315F73746174757331007E306D79335B3D
:100C30005F707F7B771F0D3D4F4700000000000075
:100C400000000000000000000000000000000000A4
:100C5000000000000000800180007E306D79335B71
:100C60005F707F7B00000000000000771F0D3D4F8C
:100C70004700370000000E00000067000000000081
:100C80000000000000000000000800771F0D3D4F2D
:100C90004700370000000E00151D6700000000002F
:100CA00000000000000000000000CD1855241124B1
:100CB0001FBECFEFD1E2DEBFCDBF00E00CBF29E009
:100CC000AAE6B3E001C01D92A239B207E1F713E032
:100CD000A0E0B2E0E0EBFBE500E00BBF02C0079054
:100CE0000D92AA36B107D9F716E0C6E5D6E000E0C6
:100CF00006C021970109802FFE010E94A228C53558
:100D0000D10780E00807A9F70E9491190C94C72D1C
:100D100077C9AF92BF92CF92DF92EF92FF920F937B
:100D20001F93CF93DF936C017B018B01040F151F81
:100D3000EB015E01AE18BF08C017D10759F06991E9
:100D4000D601ED91FC910190F081E02DC60119953D
:100D5000892B79F7C501DF91CF911F910F91FF90FA
:100D6000EF90DF90CF90BF90AF900895FC01538D2E
:100D7000448D252F30E0842F90E0821B930B541775
:100D800010F0CF96089501970895FC01918D828D02
:100D9000981761F0A28DAE0FBF2FB11D5D968C919B
:100DA000928D9F5F9F73928F90E008958FEF9FEFDA
:100DB0000895FC01918D828D981731F0828DE80F96
:100DC000F11D858D90E008958FEF9FEF0895FC0150
:100DD000918D228D892F90E0805C9F4F821B91091D
:100DE0008F73992708958BE196E0F1DF21E0892B3D
:100DF00009F420E0822F0895FC01A48DA80FB92FDB
:100E0000B11DA35ABF4F2C91848D90E001968F7332
:100E10009927848FA689B7892C93A089B1898C9151
:100E2000837080648C93938D848D981306C00288A0
:100E3000F389E02D80818F7D80830895EF92FF926A
:100E40000F931F93CF93DF93EC0181E0888F9B8DED
:100E50008C8D98131AC0E889F989808185FF15C0A7
:100E60009FB7F894EE89FF896083E889F9898081CA
:100E70008370806480839FBF81E090E0DF91CF9199
:100E80001F910F91FF90EF900895F62E0B8D10E0BB
:100E90000F5F1F4F0F731127E02E8C8D8E110BC02B
:100EA0000FB607FCFACFE889F989808185FFF5CF75
:100EB000CE01A2DFF2CFEB8DEC0FFD2FF11DE35A37
:100EC000FF4FF0829FB7F8940B8FEA89FB898081EE
:100ED0008062D0CFCF93DF93EC01888D8823B1F06F
:100EE000AA89BB89E889F9898C9185FD03C0808135
:100EF00086FD0CC00FB607FCF7CF8C9185FFF2CFB3
:100F0000808185FFEDCFCE0177DFEACFDF91CF91F2
:100F1000089580E090E0892B21F065DF81110E9427
:100F2000000080E090E0892B49F080E090E0892B80
:100F300029F00E94000081110E94000080E090E0F2
:100F4000892B49F080E090E0892B29F00E94000075
:100F500081110E94000080E090E0892B49F080E040
:100F600090E0892B29F00E94000081110C94000070
:100F700008958150823108F05AC0E82FF0E08827A8
:100F8000EB53F84F8F4F0C94A228E507E907D707DA
:100F9000DD07E1071708EC07F207F607FC07000872
:100FA00004080A080E081708120818081C0880917F
:100FB00080008F77809380000895809180008F7DDE
:100FC000F9CF80918000877FF5CF84B58F7784BD7E
:100FD000089584B58F7DFBCF8091B0008F7780938B
:100FE000B00008958091B0008F7DF9CF809190007E
:100FF0008F77809390000895809190008F7DF9CF36
:1010000080919000877FF5CF8091A0008F778093AB
:10101000A00008958091A0008F7DF9CF8091A0005D
:10102000877FF5CF809120018F77809320010895ED
:10103000809120018F7DF9CF80912001877FF5CFAE
:10104000CF93DF93282F30E0F901E750FE4F8491D2
:10105000F901ED54FE4FD491F901E359FE4FC491CB
:10106000CC2399F0811185DFEC2FF0E0EE0FFF1F0C
:10107000ED5AFE4FA591B491EC91ED2381E090E003
:1010800009F480E0DF91CF91089580E090E0FACFFD
:101090001F93CF93DF93282F30E0F901E750FE4FE5
:1010A0008491F901ED54FE4FD491F901E359FE4FBB
:1010B000C491CC23A1F0162F81115BDFEC2FF0E05F
:1010C000EE0FFF1FE75CFE4FA591B4918FB7F89428
:1010D000EC91111108C0D095DE23DC938FBFDF9116
:1010E000CF911F910895DE2BF8CFCF93DF9390E03F
:1010F000FC01ED54FE4F249183599E4FFC018491D5
:101100008823D1F090E0880F991FFC01E15EFE4F2B
:10111000A591B491FC01E75CFE4FC591D49162307A
:1011200071F49FB7F8943C91822F809583238C9320
:10113000E8812E2B28839FBFDF91CF9108958FB731
:10114000F894EC912E2B2C938FBFF6CF2FB7F894F9
:101150006091C7037091C8038091C9039091CA033D
:101160002FBF08950895EF92FF920F931F93CF938F
:10117000DF938C01EC01CF70DD2783E0CC0FDD1F06
:101180008A95E1F7C85EDD4F91E1E92E96E0F92EF0
:101190006881F70180817CDF6A81F701828178DFD5
:1011A0006C81F701848174DF6E81F701868170DFC5
:1011B000C80124E0959587952A95E1F7805FDF9136
:1011C000CF911F910F91FF90EF903ACF823021F095
:1011D0008330A9F080E0089570936B0360936A03F5
:1011E0008CE699E0909303028093020280916A005A
:1011F0008C7F816080936A00EC9A81E008957093FF
:101200006D0360936C0387E699E0909305028093E9
:10121000040280916A00837F846080936A00ED9A63
:10122000ECCFDC01ED91FD918081ED91FD919081FC
:10123000ED91FD916C9163708E2309F064609F23A2
:1012400009F06860EEE2F9E0E60FF11D659565953D
:101250006D936D917D918D919D91099423C01AC0DC
:1012600012C016C010C01EC009C014C013C006C0F2
:1012700019C009C00DC007C00DC014C06250704035
:10128000804090400BC0615070408040904006C04C
:101290006E5F01C06F5F7F4F8F4F9F4F9E938E9306
:1012A0007E936E9308958091740390917503B9CFE6
:1012B0008091720390917303B4CF809170039091E9
:1012C0007103AFCF80916E0390916F03AACF80918D
:1012D0006C0390916D03A5CF80916A0390916B038D
:1012E000A0CFCF93DF93EC018B85823058F4F89434
:1012F000CE0197DF6F81788589859A857894DF9113
:10130000CF910895F894F6CF0F931F93CF93DF9367
:10131000EC01062F142F62E0802FE7DE62E0812FC0
:10132000E4DE802F90E0FC01E359FE4FE491F0E011
:10133000EE0FFF1FED5AFE4FA591B491B983A8831C
:10134000FC01ED54FE4F24912C83812F90E0FC0191
:10135000E359FE4FE491F0E0EE0FFF1FED5AFE4F10
:10136000459154915B834A83FC01ED54FE4FE49117
:10137000ED831F82188619861A868BE39FE10197F9
:10138000F1F78C91282391E009F490E0DA018C9137
:10139000E82309F092609E83BE01802F17DF8B87C0
:1013A000BE01812F13DF9B85890F8B87DF91CF9142
:1013B0001F910F9108950F931F93CF93DF93C091C7
:1013C0008809D0918909C436D1056CF58C0180E17A
:1013D00090E00E94E028FC01DE01AA0FBB1FA2548E
:1013E000B74FED93FC931583048313821282138607
:1013F000128681E090E0958784878FEF9FEF91833D
:10140000808397878687CE01019690938909809380
:10141000880910928B0910928A09CE01DF91CF9131
:101420001F910F910895CFEFDFEFF7CF4F925F92AB
:101430006F927F928F929F92AF92BF92CF92DF92E4
:10144000EF92FF920F931F93CF93DF93C091860982
:10145000D0918709C436D1050CF04FC0470128014F
:1014600039017A016B015C0184E290E00E94E0287E
:10147000FC01DE01AA0FBB1FAA50B84FED93FC93ED
:10148000B78AA68A158A148AD382C2824682578274
:1014900060867186A70170E060E0448755876687A3
:1014A000778781E090E095838483918E808E128E81
:1014B000138E148E158E13A212A28FEF9FEF9183BD
:1014C0008083CE01019690938709809386091092BC
:1014D0008B0910928A09CE01DF91CF911F910F9154
:1014E000FF90EF90DF90CF90BF90AF909F908F9044
:1014F0007F906F905F904F900895CFEFDFEFEBCF2D
:10150000EF92FF920F931F93CF93DF93C0918609C1
:10151000D0918709C436D1050CF048C08B017C01FD
:1015200084E290E00E94E028FC01DE01AA0FBB1FCC
:10153000AA50B84FED93FC93F78AE68A158A148A6D
:1015400081E090E09383828382E090E095838483BE
:10155000118F008F80E090E0A0E8BFEB868F978F1F
:10156000A0A3B1A384E690E0A0E0B0E084879587D3
:10157000A687B787168217821086118613A212A239
:101580008FEF9FEF91838083CE010196909387091F
:101590008093860910928B0910928A09CE01DF91FF
:1015A000CF911F910F91FF90EF900895CFEFDFEF54
:1015B000F5CFEF92FF920F931F93CF93DF93C091DC
:1015C0008809D0918909C436D10584F58B017C0145
:1015D00080E190E00E94E028FC01DE01AA0FBB1F21
:1015E000A254B74FED93FC93F582E48213821282EA
:1015F0001387028781E090E0958784878FEF9FEFC4
:101600009183808397878687CE010196909389097D
:101610008093880910928B0910928A09CE01DF917C
:10162000CF911F910F91FF90EF900895CFEFDFEFD3
:10163000F5CFEF92FF920F931F93CF93DF93E82E96
:10164000F62EC7E0D0E0042F10E0B8010C2E02C047
:10165000759567950A94E2F761708E2D19DD61E04A
:101660008F2D16DD60E08F2D13DD219770F7DF9150
:10167000CF911F910F91FF90EF900895CF93DF933B
:10168000C0910706D09108062197D7FD0DC0E091C3
:101690000F06F0911006EC0FFD1F408160910906C6
:1016A00080910B06C6DFF0CF61E080910D06F0DC83
:1016B00060E080910D06DF91CF91EACC9C0143E080
:1016C000359527954A95E1F7E0910F06F0911006C0
:1016D000E20FF31F2081AC014770552781E090E0B5
:1016E00001C0880F4A95EAF7613019F4822B808394
:1016F000C5CF80958223FBCF8F929F92AF92BF92EE
:10170000CF92DF92EF92FF920F931F93CF93DF93CD
:101710001F921F92CDB7DEB78C0149832A83660FD3
:10172000771FF801EA5AFF4FE080F180EE0CFF1CB2
:10173000F801CF01801B910B8E159F0514F41192B7
:10174000F8CF8981F801E60FF71F81838A818083B2
:10175000680184E5C80ED11C60E0F601808198DC48
:101760004801F2E58F0E911C580180E5A80EB11CCE
:101770001E141F046CF4E1E0EE1AF108F801EE0DFE
:10178000FF1D4081F4016081F501808152DFF0CFBF
:1017900061E0F60180810F900F90DF91CF911F9152
:1017A0000F91FF90EF90DF90CF90BF90AF909F9000
:1017B0008F906ECCFC01EA5AFF4F208131811216C6
:1017C000130684F4403170F4E42FF0E0E65DF34F4B
:1017D0002491FC01E60FF71F208B41E0460F70E0DB
:1017E00060E08ACF0895E42FDC01AA5ABF4F4D91E3
:1017F0005C9114161506ACF4E7FDE0E20E2E000C29
:10180000FF0BE65DF34FE4912111E068DC01A60FC8
:10181000B71F5096EC9341E0460F2E2F70E060E02A
:101820006BCF0895FC01EA5AFF4F208131811216D7
:10183000130644F46031710528F4262F4AE070E065
:1018400060E05ACF08958F929F92AF92BF92CF924D
:10185000DF92EF92FF920F931F93CF93DF93C0908D
:10186000EF03D090F003E090F103F090F2032091A9
:10187000BE033091BF034091C0035091C103C70123
:10188000B6010E943C26882379F120E030E040E751
:1018900051E4C701B6010E94A12620E030E0A90171
:1018A0000E9472270E943E286B0170930102609390
:1018B00000028FEA95E0B6DFB60187E595E0B2DF7A
:1018C000B6018FEF94E0AEDF8091EF039091F003CB
:1018D000A091F103B091F2038093BE039093BF03F4
:1018E000A093C003B093C103C090EB03D090EC036E
:1018F000E090ED03F090EE032091BA033091BB032A
:101900004091BC035091BD03C701B6010E943C2623
:10191000882309F48CC020E030E0A901C701B6019A
:101920000E946F2820E030E040E05FE387FD3AC38B
:10193000C701B6010E9472270E943E280E944226DB
:1019400020E030E048EC52E40E94D6270E943E2876
:10195000162F6093B2037093B30320E030E0A90127
:10196000C701B6010E946F2820E030E040E05FE34D
:1019700087FD1DC3C701B6010E9472270E943E2841
:101980000E94422620E030E040E251E40E94D62747
:101990000E943E28CB016AE070E00E947328D82F95
:1019A0008093B4039093B50320E030E0A901C70110
:1019B000B6010E946F2820E030E040E05FE387FD41
:1019C000FBC2C701B6010E9472270E943E280E94F6
:1019D00042260E943E28CB016AE070E00E947328F4
:1019E000C82F8093B6039093B703412F67E070E050
:1019F0008FEA95E0DFDE4D2F66E070E08FEA95E03C
:101A0000D9DE4C2F65E070E08FEA95E0D3DE80915F
:101A1000EB039091EC03A091ED03B091EE03809362
:101A2000BA039093BB03A093BC03B093BD03C090D3
:101A3000E703D090E803E090E903F090EA03809098
:101A4000DB039090DC03A090DD03B090DE032091D7
:101A5000AE033091AF034091B0035091B103C70181
:101A6000B6010E943C2681110FC0A501940160912E
:101A7000AA037091AB038091AC039091AD030E94D7
:101A80003C26882309F486C020E030E0A901C50186
:101A9000B4010E943C26811199C220E030E0A901E6
:101AA000C701B6010E946F2820E030E040E05FE30C
:101AB00087FD87C2C701B6010E9472270E943E2897
:101AC000072E000C880B990B0E9442266B017C01AB
:101AD00020E030E048EC52E40E94D6270E943E28E5
:101AE000162F6093A2037093A30320E030E040E23E
:101AF00051E4C701B6010E94D6270E943E288AE021
:101B0000A82EB12CCB01B5010E947328D82F809349
:101B1000A4039093A503C701B6010E943E28CB0100
:101B2000B5010E947328C82F8093A6039093A70342
:101B3000412F62E070E08FEA95E03CDE4D2F61E0DE
:101B400070E08FEA95E036DE4C2F70E060E08FEABF
:101B500095E030DE8091E7039091E803A091E903DE
:101B6000B091EA038093AE039093AF03A093B003C8
:101B7000B093B1038091DB039091DC03A091DD036E
:101B8000B091DE038093AA039093AB03A093AC03C0
:101B9000B093AD03C090DF03D090E003E090E10389
:101BA000F090E20320919E0330919F034091A003A7
:101BB0005091A103C701B6010E943C26882309F475
:101BC0008CC020E030E0A901C701B6010E946F2857
:101BD00020E030E040E05FE387FD65C2C701B60169
:101BE0000E9472270E943E280E94422620E030E098
:101BF00048EC52E40E94D6270E943E28162F60939C
:101C000096037093970320E030E0A901C701B60165
:101C10000E946F2820E030E040E05FE387FD48C28B
:101C2000C701B6010E9472270E943E280E944226E8
:101C300020E030E040E251E40E94D6270E943E2896
:101C4000CB016AE070E00E947328D82F809398033C
:101C50009093990320E030E0A901C701B6010E94EA
:101C60006F2820E030E040E05FE387FD26C2C70137
:101C7000B6010E9472270E943E280E9442260E94BE
:101C80003E28CB016AE070E00E947328C82F809341
:101C90009A0390939B03412F67E070E087E595E0FE
:101CA00089DD4D2F66E070E087E595E083DD4C2F00
:101CB00065E070E087E595E07DDD8091DF03909140
:101CC000E003A091E103B091E20380939E0390931F
:101CD0009F03A093A003B093A103C090D703D0901B
:101CE000D803E090D903F090DA0320E030E0A901B6
:101CF000C701B6010E943C26882309F474C020E085
:101D000030E0A901C701B6010E946F2887FDDAC142
:101D100020E030E04AE754E4C701B6010E943C26C7
:101D200087FFD0C120E030E040E05FE3C701B601AB
:101D30000E9472270E943E280E9442266B017C016D
:101D400020E030E048EC52E40E94D6270E943E2872
:101D5000CAE0D0E0CB01BE010E947328082F809317
:101D60008C0390938D0320E030E040E251E4C70102
:101D7000B6010E94D6270E943E28CB01BE010E94D8
:101D80007328182F80938E0390938F03C701B60199
:101D90000E943E28CB01BE010E947328C82F809369
:101DA00090039093910320E040E264E070E087E5C7
:101DB00095E019DD20E040E263E070E087E595E022
:101DC00012DD402F62E070E087E595E0F3DC412F03
:101DD00061E070E087E595E0EDDC4C2F70E060E0BD
:101DE00087E595E0E7DCC090D303D090D403E09082
:101DF000D503F090D6032091880330918903409158
:101E00008A0350918B03C701B6010E943C268823A8
:101E100009F4ECC38091CB039091CC03A091CD0346
:101E2000B091CE030197A105B10509F0DFC320E011
:101E300030E04AE754ECC701B6010E943C26181670
:101E40000CF415C320E030E0A901C701B6010E94DF
:101E50003C2618160CF4EBC2A701960160E070E076
:101E600080E09FE30E9471270E943E280E94422644
:101E700020E030E04AE754E40E94D6270E943E2842
:101E8000CB016AE070E00E947328082F80937E03E4
:101E900090937F0320E030E0A901C701B6010E94C2
:101EA0003C2618160CF4CBC2A701960160E070E046
:101EB00080E09FE30E9471270E943E280E944226F4
:101EC00020E030E048EC52E40E94D6270E943E28F1
:101ED000CB016AE070E00E947328182F8093800382
:101EE0009093810320E030E0A901C701B6010E9470
:101EF0003C2618160CF4ABC2A701960160E070E016
:101F000080E09FE30E9471270E943E280E944226A3
:101F100020E030E040E251E40E94D6270E943E28B3
:101F2000CB016AE070E00E947328D82F809382036F
:101F30009093830320E030E0A901C701B6010E941D
:101F40003C2618160CF48BC2A701960160E070E0E5
:101F500080E09FE30E9471270E943E280E94422653
:101F60000E943E28CB016AE070E00E947328C82FCF
:101F7000809384039093850320E04DE267E070E056
:101F80008FEF94E030DC20E0402F66E070E08FEFD0
:101F900094E029DC412F65E070E08FEF94E00ADCEB
:101FA0004D2FDCC2C701B6010E947127C5CCC70105
:101FB000B6010E947127E2CCC701B6010E947127C9
:101FC00004CDC701B6010E94712778CD20E030E032
:101FD00040E85FE3C501B4010E943C268111BACDFF
:101FE00020E030E44CE156E4C701B6010E94A1268E
:101FF0006B017C0120E030E0A9010E946F2820E005
:1020000030E040E05FE387FD44C0C701B6010E94B5
:1020100072270E943E280E9442266B017C0120E02C
:1020200030E04AE754E40E94D6270E943E28D62F8B
:102030006093A4037093A50320E030E048EC52E4E1
:10204000C701B6010E94D6276B017C0120E030E079
:10205000A9010E946F2820E030E040E05FE387FDA7
:102060001DC0C701B6010E9472270E943E28CB0105
:102070006AE070E00E947328C82F8093A6039093B3
:10208000A70321E040E262E070E08FEA95E0ABDB7D
:1020900055CDC701B6010E947127BBCFC701B6015C
:1020A0000E947127E2CFC701B6010E9471279ACD25
:1020B000C701B6010E947127B7CDC701B6010E94C2
:1020C0007127D9CD20E030E04AE754E4C701B601DA
:1020D0000E946F2887FDC9C020E030E44CE156E43F
:1020E000C701B6010E943C2687FFBFC020E030E058
:1020F000A901C701B6010E946F2820E030E040E04E
:102100005FE387FD9EC0C701B6010E9472270E944F
:102110003E280E94422620E030E04AE754E40E9434
:10212000D6270E943E28CB016AE070E00E94732807
:10213000082F80938C0390938D0320E030E0A90159
:10214000C701B6010E946F2820E030E040E05FE365
:1021500087FD7CC0C701B6010E9472270E943E28FD
:102160000E94422620E030E048EC52E40E94D6274C
:102170000E943E28CB016AE070E00E947328182F6D
:1021800080938E0390938F0320E030E0A901C70174
:10219000B6010E946F2820E030E040E05FE387FD59
:1021A0005AC0C701B6010E9472270E943E280E94B1
:1021B000422620E030E040E251E40E94D6270E940F
:1021C0003E28CB016AE070E00E947328D82F8093EC
:1021D00090039093910320E030E0A901C701B6017C
:1021E0000E946F2820E030E040E05FE387FD38C0C8
:1021F000C701B6010E9472270E943E280E94422613
:102200000E943E28CB016AE070E00E947328C82F2C
:10221000809392039093930320E040E264E070E0A7
:1022200087E595E0E0DA402F63E070E087E595E030
:10223000C1DA412F62E070E087E595E0BBDA4D2F0F
:10224000C7CDC701B6010E94712761CFC701B60192
:102250000E94712783CFC701B6010E947127A5CFC5
:10226000C701B6010E947127C7CF20E030E44CE1DE
:1022700056E4C701B6010E946F2887FDB4CD20E067
:1022800030E0A901C701B6010E946F2820E030E0CC
:1022900040E05FE387FDB2C0C701B6010E9472272C
:1022A0000E943E280E94422620E030E44CE156E4A1
:1022B0000E94D6270E943E28B62E60938C0370930E
:1022C0008D0320E030E0A901C701B6010E946F280C
:1022D00020E030E040E05FE387FD95C0C701B60134
:1022E0000E9472270E943E280E94422620E030E091
:1022F0004AE754E40E94D6270E943E28CB016AE0B8
:1023000070E00E947328082F80938E0390938F03B0
:1023100020E030E0A901C701B6010E946F2820E04B
:1023200030E040E05FE387FD73C0C701B6010E9463
:1023300072270E943E280E94422620E030E048ECAE
:1023400052E40E94D6270E943E28CB016AE070E04A
:102350000E947328182F809390039093910320E09C
:1023600030E0A901C701B6010E946F2820E030E0EB
:1023700040E05FE387FD51C0C701B6010E947227AC
:102380000E943E280E94422620E030E040E251E4D4
:102390000E94D6270E943E28CB016AE070E00E948E
:1023A0007328D82F809392039093930320E030E01A
:1023B000A901C701B6010E946F2820E030E040E08B
:1023C0005FE387FD2FC0C701B6010E9472270E94FC
:1023D0003E280E9442260E943E28CB016AE070E01F
:1023E0000E947328C82F80939403909395034B2DDC
:1023F00064E070E087E595E0DDD915CFC701B6014F
:102400000E9471274DCFC701B6010E9471276ACF84
:10241000C701B6010E9471278CCFC701B6010E9487
:102420007127AECFC701B6010E947127D0CF20E03F
:1024300030E040E05FE3C701B601905813CD20E0E3
:1024400030E040E05FE3C701B601905833CD20E0B3
:1024500030E040E05FE3C701B601905853CDC701BB
:10246000B601905820E030E040E05FE373CD20E01B
:1024700030E048E452ECC701B6010E943C2620E05F
:102480004DE2882309F4A9C120E030E04AE754EC8A
:10249000C701B6010E946F2818160CF06BC020E02F
:1024A00030E0A901C701B6010E943C2687FF62C047
:1024B000A701960160E070E080E09FE30E94712731
:1024C0000E943E280E9442266B017C0120E030E001
:1024D00048EC52E40E94D6270E943E28CAE0D0E091
:1024E000CB01BE010E947328082F80937E03909336
:1024F0007F0320E030E040E251E4C701B6010E94D2
:10250000D6270E943E28CB01BE010E947328182FB7
:102510008093800390938103C701B6010E943E28F7
:10252000CB01BE010E947328C82F80938203909331
:10253000830320E04DE267E070E08FEF94E053D931
:1025400020E040E266E070E08FEF94E04CD9402F4D
:1025500065E070E08FEF94E02DD9412F64E070E0EA
:102560008FEF94E027D94C2F63E070E08FEF94E079
:1025700021D92CC020E030E0A901C701B6010E949A
:102580003C2681111EC120E040E267E070E08FEF41
:1025900094E029D920E040E266E070E08FEF94E01B
:1025A00022D920E040E265E070E08FEF94E01BD993
:1025B00020E040E264E070E08FEF94E014D920E086
:1025C00040E063E070E08FEF94E00DD98091D30399
:1025D0009091D403A091D503B091D6038093880342
:1025E00090938903A0938A03B0938B038091CB03CC
:1025F0009091CC03A091CD03B091CE03892B8A2B6F
:102600008B2BB9F520E040E267E070E08FEF94E0BB
:10261000EAD820E040E266E070E08FEF94E0E3D893
:1026200020E040E265E070E08FEF94E0DCD820E04D
:1026300040E264E070E08FEF94E0D5D820E040E223
:1026400063E070E08FEF94E0CED880E090E0A0E40B
:10265000B0EC8093880390938903A0938A03B0938E
:102660008B031092D3031092D4031092D5031092CF
:10267000D603C090CF03D090D003E090D103F09068
:10268000D20320E030E0A901C701B6010E943C2638
:10269000882309F489C020E030E0A901C701B60110
:1026A0000E946F2820E030E040E05FE387FDC9C171
:1026B000C701B6010E9472270E943E280E9442264E
:1026C00020E030E048EC52E40E94D6270E943E28E9
:1026D000CB016AE070E00E947328D82F80937603C4
:1026E0009093770320E030E0A901C701B6010E9472
:1026F0006F2820E030E040E05FE387FDA7C1C7011D
:10270000B6010E9472270E943E280E94422620E0C5
:1027100030E040E251E40E94D6270E943E28CB01DF
:102720006AE070E00E947328C82F8093780390932A
:10273000790320E030E0A901C701B6010E946F28AB
:1027400020E030E040E05FE387FD85C1C701B601CE
:102750000E9472270E943E280E9442260E943E2824
:10276000CB016AE070E00E947328F82E80937A0310
:1027700090937B034D2F62E070E08FEF94E01AD8C6
:102780004C2F61E070E08FEF94E014D84F2D70E093
:1027900060E08FEF94E00ED81092CF031092D00338
:1027A0001092D1031092D203DF91CF911F910F911C
:1027B000FF90EF90DF90CF90BF90AF909F908F9061
:1027C000089520E030E048E452E4C701B6010E94D9
:1027D0003C2681111AC020E040E267E070E08FEFF4
:1027E00094E001D820E040E266E070E08FEF94E0F2
:1027F0000E94F30B20E040E265E070E08FEF94E090
:102800000E94F30B20E045E0D5CE20E030E0A901A6
:10281000C701B6010E946F2820E030E04AE754E487
:1028200018160CF04AC0C701B6010E943C2687FF6B
:1028300017C120E030E040E05FE3C701B6010E942D
:1028400072270E943E280E9442266B017C0120E0F4
:1028500030E048EC52E40E94D6270E943E28CAE0AD
:10286000D0E0CB01BE010E947328082F80937E0325
:1028700090937F0320E030E040E251E4C701B601CD
:102880000E94D6270E943E28CB01BE010E947328D9
:10289000182F8093800390938103C701B6010E9493
:1028A0003E28CB01BE010E947328C82F809382036B
:1028B0009093830320E040E23ECEC701B6010E9420
:1028C0006F2887FD83CE20E030E0A901C701B60163
:1028D0000E946F2887FD9DC020E030E040E05FE36C
:1028E000C701B6010E9472270E943E280E9442261C
:1028F00020E030E04AE754E40E94D6270E943E28B8
:10290000CB016AE070E00E947328082F80937E0359
:1029100090937F0320E030E0A901C701B6010E9437
:102920006F2820E030E040E05FE387FD7BC0C70117
:10293000B6010E9472270E943E280E94422620E093
:1029400030E048EC52E40E94D6270E943E28CB019A
:102950006AE070E00E947328182F809380039093A0
:10296000810320E030E0A901C701B6010E946F2871
:1029700020E030E040E05FE387FD59C0C701B601C9
:102980000E9472270E943E280E94422620E030E0EA
:1029900040E251E40E94D6270E943E28CB016AE023
:1029A00070E00E947328D82F809382039093830352
:1029B00020E030E0A901C701B6010E946F2820E0A5
:1029C00030E040E05FE387FD37C0C701B6010E94F9
:1029D00072270E943E280E9442260E943E28CB0178
:1029E0006AE070E00E947328C82F8093840390935C
:1029F000850320E040E267E070E08FEF94E00E9402
:102A0000F30B402F66E070E08FEF94E00E94DA0B4A
:102A1000C1CA20E030E040E05FE3C701B6010E9498
:102A2000712762CFC701B6010E94712784CFC70109
:102A3000B6010E947127A6CFC701B6010E94712777
:102A4000C8CFC701B6010E94712736CEC701B601B3
:102A50000E94712758CEC701B6010E9471277ACE15
:102A600020E030E04AE754E4C701B6010E946F2835
:102A700087FF32CFABCD8F929F92AF92BF92CF9212
:102A8000DF92EF92FF920F931F93CF93DF938C010E
:102A9000EC01C05BDF4F9CE1892E912C99828882EA
:102AA000680182E5C80ED11CF6017183608358016C
:102AB000F4E5AF0EB11C8BE190E0F50191838083CA
:102AC0007801F6E5EF0EF11C81E090E0F7019183CB
:102AD000808361E08CE10E94750861E0F6018081ED
:102AE0000E94750861E0F50180810E94750861E02F
:102AF000F50180810E94480899828882F8017096C9
:102B00004F011192EC17FD07E1F7D0E0C0E0F701AB
:102B100080819181C817D9070CF043C020E04FE0B5
:102B2000BE01C8010E947C0BF70180819181C8170A
:102B3000D90734F427E04BE0BE01C8010E947C0BAA
:102B400020E049E0BE01C8010E947C0BF7018081B2
:102B50009181C817D907BCF45E0183E0AA0CBB1CA5
:102B60008A95E1F7A80CB91CDD24D394F5011192E4
:102B70005F0120E04D2DBE01C8010E947C0BD39463
:102B8000F9E0DF12F3CFF70180819181C817D907EF
:102B900034F420E04CE0BE01C8010E947C0B219679
:102BA000B6CFDF91CF911F910F91FF90EF90DF9003
:102BB000CF90BF90AF909F908F900895FB010190B0
:102BC0000020E9F73197AF01461B570BDC01ED916F
:102BD000FC910280F381E02D199462E577E0809109
:102BE000B8069091B906EADFE2E5F7E0019000202F
:102BF000E9F7E359F74039F46AEA72E08091B806E0
:102C00009091B906DBCF0895CF93DF93EC01198241
:102C100018821B821A821D821C8261E070E090E0A3
:102C200080E00E94052A0097A1F0998388831B8287
:102C30001A822C813D81232B11F4FC0110821D820C
:102C40001C826BEA72E088819981DF91CF910C94AC
:102C5000EA2A88819981009711F00E947C291982C3
:102C600018821D821C821B821A82DF91CF910895E7
:102C7000880F991FFC01E254F74F0190F081E02D7D
:102C8000309741F18081918197FD21C01F922EE301
:102C90002F931F9221E02F939F938F931F928BE688
:102CA0008F931F928CE38F938CEA92E09F938F9384
:102CB00082E597E09F938F930E94FF2A8EDF8DB766
:102CC0009EB70E960FB6F8949EBF0FBE8DBF90E0D4
:102CD00080E008958FEF9FEF0895FC018681978132
:102CE000208531858217930759F0918780872817AF
:102CF00039071CF482819381BBCF84819581FCCFFD
:102D0000089577FD1DC01F922EE32F937F936F933D
:102D10009F938F931F928CE38F938AEB92E09F9304
:102D20008F9382E597E09F938F930E94FF2A8DB740
:102D30009EB70C960FB6F8949EBF0FBE8DBF4DCFB9
:102D400008951F93CF93DF93C8EBD6E01F811F82B6
:102D50008CEB96E00E9467241F83DF91CF911F9137
:102D600008951F920F920FB60F9211240BB60F9277
:102D70002F933F934F935F936F937F938F939F9383
:102D8000AF93BF93EF93FF938BE196E00E94FC0615
:102D9000FF91EF91BF91AF919F918F917F916F9133
:102DA0005F914F913F912F910F900BBE0F900FBEEF
:102DB0000F901F9018951F920F920FB60F9211242B
:102DC0000BB60F922F938F939F93EF93FF93E09106
:102DD0002B06F0912C068081E0913106F0913206AD
:102DE00082FD1DC09081809134068F5F8F7320918A
:102DF0003506821741F0E0913406F0E0E55EF94FC8
:102E0000958F80933406FF91EF919F918F912F9131
:102E10000F900BBE0F900FBE0F901F9018958081E2
:102E2000F2CF1F920F920FB60F9211242F933F9360
:102E30008F939F93AF93BF938091C7039091C803E3
:102E4000A091C903B091CA033091C60323E0230FB8
:102E50002D3758F50196A11DB11D2093C60380930F
:102E6000C7039093C803A093C903B093CA0380918A
:102E7000C2039091C303A091C403B091C50301960E
:102E8000A11DB11D8093C2039093C303A093C403FB
:102E9000B093C503BF91AF919F918F913F912F91B7
:102EA0000F900FBE0F901F90189526E8230F0296E3
:102EB000A11DB11DD2CF1F920F920FB60F921124F8
:102EC0000BB60F922F933F934F935F936F937F9324
:102ED0008F939F93AF93BF93EF93FF93E091100273
:102EE000F09111021995FF91EF91BF91AF919F91D0
:102EF0008F917F916F915F914F913F912F910F90A3
:102F00000BBE0F900FBE0F901F9018951F920F923F
:102F10000FB60F9211240BB60F922F933F934F933E
:102F20005F936F937F938F939F93AF93BF93EF9331
:102F3000FF93E0910E02F0910F021995FF91EF912E
:102F4000BF91AF919F918F917F916F915F914F91C1
:102F50003F912F910F900BBE0F900FBE0F901F90BF
:102F600018951F920F920FB60F9211240BB60F9265
:102F70002F933F934F935F936F937F938F939F9381
:102F8000AF93BF93EF93FF93E0910402F09105029A
:102F90001995FF91EF91BF91AF919F918F917F9183
:102FA0006F915F914F913F912F910F900BBE0F90BA
:102FB0000FBE0F901F9018951F920F920FB60F9291
:102FC00011240BB60F922F933F934F935F936F9300
:102FD0007F938F939F93AF93BF93EF93FF93E09172
:102FE0000202F09103021995FF91EF91BF91AF9109
:102FF0009F918F917F916F915F914F913F912F9111
:103000000F900BBE0F900FBE0F901F9018951F9240
:103010000F920FB60F9211240BB60F922F933F937E
:103020004F935F936F937F938F939F93AF93BF93D0
:10303000EF93FF93E0910C02F0910D021995FF912F
:10304000EF91BF91AF919F918F917F916F915F9120
:103050004F913F912F910F900BBE0F900FBE0F908D
:103060001F9018951F920F920FB60F9211240BB656
:103070000F922F933F934F935F936F937F938F9311
:103080009F93AF93BF93EF93FF93E0910A02F09168
:103090000B021995FF91EF91BF91AF919F918F9185
:1030A0007F916F915F914F913F912F910F900BBE48
:1030B0000F900FBE0F901F9018951F920F920FB692
:1030C0000F9211240BB60F922F933F934F935F9360
:1030D0006F937F938F939F93AF93BF93EF93FF93E0
:1030E000E0910802F09109021995FF91EF91BF91CB
:1030F000AF919F918F917F916F915F914F913F9190
:103100002F910F900BBE0F900FBE0F901F90189530
:103110001F920F920FB60F9211240BB60F922F939E
:103120003F934F935F936F937F938F939F93AF934F
:10313000BF93EF93FF93E0910602F0910702199578
:10314000FF91EF91BF91AF919F918F917F916F917F
:103150005F914F913F912F910F900BBE0F900FBE3B
:103160000F901F9018958BBFFB0107900020E9F787
:10317000609570956E0F7F1FCB010895FA016BBFAC
:10318000DC012150304030F08D910790801919F406
:103190000020B9F7881B990B0895CF93DF93EBE1DB
:1031A000F6E0138212828CE992E09183808385ECB1
:1031B00090E09587848784EC90E09787868780EC01
:1031C00090E0918B808B81EC90E0938B828B82ECF2
:1031D00090E0958B848B86EC90E0978B868B118E9C
:1031E000128E138E148EF093B906E093B80684EF16
:1031F00091E0A0E0B0E084839583A683B78361E08B
:1032000086E10E94750861E087E10E94750861E02F
:1032100088E10E94750861E089E10E947508E1E19A
:10322000F6E086E190E09183808387E190E09383EC
:10323000828388E190E09583848389E190E097839D
:103240008683C7E0D6E082E090E09983888381E2BC
:1032500090E09B838A838CE190E09D838C838BE15B
:1032600090E09F838E8361E081E20E94750861E0B7
:103270008CE10E94750861E08BE10E94750860E0B6
:1032800081E20E94480860E08CE10E94480860E00A
:103290008BE10E94480882E090E00E94E028998734
:1032A0008887FC01118210820E943E0B6EE170E063
:1032B0008FEA95E0E0DB6FE170E087E595E0DBDB2E
:1032C00060E270E08FEF94E0D6DB43E062E083EFF2
:1032D00094E00E94840945E064E087EE94E00E9457
:1032E000840949E068E08BED94E00E9484094FE096
:1032F0006EE08FEC94E00E9484094BE06AE083EC7E
:1033000094E00E94840947E066E087EB94E00E9425
:10331000840981EB94E078DC8BEA94E0DF91CF9133
:1033200073CC789484B5826084BD84B5816084BD9B
:1033300085B5826085BD85B5816085BD80916E0053
:10334000816080936E001092810080918100826084
:1033500080938100809181008160809381008091C1
:1033600080008160809380008091B10084608093B0
:10337000B1008091B00081608093B0008091910095
:103380008260809391008091910081608093910090
:10339000809190008160809390008091A100826074
:1033A0008093A1008091A10081608093A100809111
:1033B000A00081608093A0008091210182608093B1
:1033C0002101809121018160809321018091200160
:1033D00081608093200180917A00846080937A00DC
:1033E00080917A00826080937A0080917A00816077
:1033F00080937A0080917A00806880937A0010929E
:10340000C100F8941092BE041092BF041092C00440
:103410001092C1047894F8941092EE041092EF0484
:103420001092F0041092F1047894F8941092E2044F
:103430001092E3041092E4041092E5047894F89456
:103440001092D6041092D7041092D8041092D90486
:103450007894F8941092CA041092CB041092CC0481
:103460001092CD047894F8941092FA041092FB0410
:103470001092FC041092FD047894809105069091BE
:1034800006061816190644F421E04CE070E060E0EE
:103490008FEA95E00E947C0B65E070E08FEA95E092
:1034A0000E94120C8091AD059091AE051816190678
:1034B00044F421E04CE070E060E087E595E00E9494
:1034C0007C0B65E070E087E595E00E94120C80912E
:1034D0005505909156051816190644F421E04CE064
:1034E00070E060E08FEF94E00E947C0B65E070E09C
:1034F0008FEF94E00E94120C0E94230C62E080E1A6
:103500000E94750862E081E10E94750861E085E132
:103510000E947508E0912B06F0912C0682E08083D2
:10352000E0912706F09128061082E0912906F0919B
:103530002A0680E1808310923306E0912F06F091F5
:10354000300686E08083E0912D06F0912E06808182
:1035500080618083E0912D06F0912E068081886045
:103560008083E0912D06F0912E0680818068808313
:10357000E0912D06F0912E0680818F7D808386EC70
:1035800092E09093F5078093F4071092EB07109266
:10359000EA07109287091092860910928909109201
:1035A000880910928B0910928A091092BA060BE2D0
:1035B000E02E04E0F02E00E010E098014AE050E038
:1035C00061E070E088E09CE00E94160A8FE1E82E3E
:1035D00084E0F82E00E010E098014AE050E061E05D
:1035E00070E083EE9BE00E94160A97E1E92E94E0DA
:1035F000F92E00E010E098014AE050E061E070E050
:103600008DEB9BE00E94160A23E2E22E24E0F22ECC
:1036100000E010E098014AE050E061E070E089E9E4
:103620009BE00E94160A3FE0E32E34E0F32E00E018
:1036300010E098014AE050E061E070E086E79BE02E
:103640000E94160A43E1E42E44E0F42E00E010E06C
:1036500098014AE050E061E070E081E59BE00E9463
:10366000160A57E0E52E54E0F52E00E010E0980130
:103670004AE050E061E070E08FE29BE00E94160AB1
:103680006BE1E62E64E0F62E00E010E098014AE0DF
:1036900050E061E070E089E09BE00E94160A7BE068
:1036A000E72E74E0F72E00E010E098014AE050E0C9
:1036B00061E070E083EE9AE00E94160AEFEFEE2ED2
:1036C000E3E0FE2E00E010E098014AE050E061E007
:1036D00070E082EC9AE00E94160AF7EFEF2EF3E01A
:1036E000FF2E00E010E098014AE050E061E070E059
:1036F0008EE99AE00E94160AA3E3EA2EA4E0FA2ECD
:1037000000E010E098014AE050E061E070E08AE7F4
:103710009AE00E94160AB3E0EB2EB4E0FB2E00E024
:1037200010E098014AE050E061E070E086E59AE040
:103730000E94160ACBEFEC2EC3E0FC2E00E010E056
:1037400098014AE050E061E070E082E39AE00E9474
:10375000160AD7E2ED2ED4E0FD2E00E010E098012D
:103760004AE050E061E070E086E09AE00E94160ACC
:103770001FE2E12E14E0F12E00E010E098014AE093
:1037800050E061E070E08CED99E00E94160A03EFD2
:10379000E02E03E0F02E00E010E098014AE050E057
:1037A00061E070E084EB99E00E94160A6FE574E036
:1037B00084E999E00E94D90A6DE574E081E799E017
:1037C0000E94D90A6FE374E08FE499E00E94D90A5D
:1037D00065E474E08AE299E00E94D90A61E474E049
:1037E00085E099E00E94D90A67E474E083EE98E0EE
:1037F0000E94D90A6BE374E08FEB98E00E94D90A2B
:103800006DE374E08EE998E00E94D90A67E374E002
:1038100089E798E00E94D90A69E374E089E598E0B5
:103820000E94D90A6DE474E086E398E00E94D90A08
:103830006BE574E083E198E00E94D90A6BE474E0E0
:1038400080EF97E00E94D90A6FE474E08DEC97E076
:103850000E94D90A63E474E08BEA97E00E94D90AD7
:1038600069E474E089E897E00E94D90A65E674E0AB
:1038700080E697E00E94D90A81E6E82E84E0F82EDF
:1038800000E010E028EC32E450E040E062E070E05C
:103890008AE397E00E94160A97E5E92E94E0F92E54
:1038A00000E010E028EC32E450E040E062E070E03C
:1038B00084E197E00E94160A27E6E22E24E0F22E29
:1038C00000E010E028EC32E450E040E062E070E01C
:1038D0008DEE96E00E94160A33E5E32E34E0F32ED7
:1038E00000E010E028EC32E450E040E061E070E0FD
:1038F00087EC96E00E94160A8EE996E00E94DB09AA
:103900009093520480935104C0918609D091870905
:10391000C436D105ECF584E290E00E94E028FC0179
:10392000DE01AA0FBB1FAA50B84F8D939C93178A34
:10393000168A8DED92E0958B848B81E090E09383E5
:10394000828382E090E0958384838FEE93E0918F71
:10395000808F168E178E10A211A284E690E0A0E050
:10396000B0E084879587A687B7871682178210866E
:10397000118613A212A28FEF9FEF9183808321966D
:10398000D0938709C093860910928B0910928A09F7
:103990006BEE73E08AE796E00E94800A67EE73E0C0
:1039A0008BE496E00E94800A63EEE62E63E0F62E3A
:1039B00000E010E0980144E650E061E070E08BE246
:1039C00096E00E94160A6FED73E087E096E00E9491
:1039D000800A6BED73E080EE95E00E94800A67ED4F
:1039E00073E08CEB95E00E94800A63ED73E08AE956
:1039F00095E00E94800A6FEC73E084E795E00E94F6
:103A0000800A7BECE72E73E0F72E00E010E09801CF
:103A100044E650E061E070E08FE495E00E94160A11
:103A200086E295E00E94DB099093A4048093A304AE
:103A30008DEF94E00E94DB099093A6048093A50487
:103A400083EE94E00E94DB0990939A04809399049A
:103A500087EC94E00E94DB0990939C0480939B0484
:103A600085EA94E00E94DB099093900480938F0490
:103A700083E894E00E94DB09909392048093910480
:103A800080E694E00E94DB0990938604809385048D
:103A90008DE394E00E94DB0990938804809387046F
:103AA0008DE194E00E94DB0990937C0480937B0479
:103AB0008BEF93E00E94DB0990937E0480937D045A
:103AC00084ED93E00E94DB0990937204809371046B
:103AD0008DEA93E00E94DB09909374048093730451
:103AE0008CE793E00E94DB098BE493E00E94DB0902
:103AF0008DE193E00E94DB098FEE92E00E94DB09EA
:103B000080EC92E00E94DB0981E992E00E94DB09EF
:103B100088E692E00E94DB098FE392E00E94DB09D5
:103B2000E2E56E2EE7E07E2EF4E08F2E912CA12CA4
:103B3000B12C8091B8069091B906DC01ED91FC9111
:103B40000084F185E02D19952091BA06892B81F02A
:103B50002C3381F08091B8069091B906DC01ED918B
:103B6000FC910284F385E02D19958093BA06E1CF8C
:103B70002C33C1F50091B8061091B9065BEBE52E28
:103B800056E0F52ED0E0C0E00E94A608F80160875C
:103B9000718782879387D801ED91FC910284F38528
:103BA000E02DC801199597FF52C60E94A608F8019A
:103BB0002085318542855385621B730B840B950BE1
:103BC00024813581468157816217730784079507E1
:103BD00010F3D0935107C0935007209709F062C0AB
:103BE0001092BA0680918A0990918B09892B09F469
:103BF0004FC488EBC82E86E0D82EF12CE12C8091A2
:103C0000860990918709E816F9060CF4D8C2CEEB24
:103C1000D8E010E000E080918809909189090817A8
:103C200019070CF035C4E881F9818081918197FDF5
:103C300035C00E94A608E881F981C680D780E0845B
:103C4000F1846C197D098E099F096D3271408105DF
:103C5000910520F18685978597FDF0C30E94200885
:103C60007C01E881F98184859585E816F906B1F033
:103C70006081718181E0E816F10409F0DAC38AE617
:103C800090E03FD80E94A608E881F9816683778397
:103C900080879187E881F981F586E4860F5F1F4F61
:103CA0002296B9CFFE01E854F94F2EE323832296E2
:103CB000D0935107C0935007C854D94F1A828091AE
:103CC000BB06813609F44EC074F4833309F499C0FD
:103CD000843309F4E9C0823309F082CF1092EB07F4
:103CE0001092EA077DCF853609F4F5C1863611F1C9
:103CF000843609F075CFE6EFF7E090E080E041E030
:103D000050E02091860930918709821793070CF0C3
:103D100067CFA191B19112962D913C9113972250AA
:103D200031092230310520F41B965C934E931A978B
:103D30000196E7CF2091860930918709E6EFF7E0F9
:103D400090E080E0821793070CF06FC184369105F4
:103D500009F46BC1C191D1914881598157FDF7C0D8
:103D60000196F0CF8091F4079091F5070097E1F06C
:103D70001F922F939F938F931F9280E38F931F9295
:103D80008CE38F9384E093E09F938F937F926F9265
:103D90000E94FF2A0E94ED15EDB7FEB73C960FB6C4
:103DA000F894FEBF0FBEEDBF81E090E09093EB076B
:103DB0008093EA07E6EFF7E090E080E02091860943
:103DC0003091870982179307A4F0EEEBF8E090E0BA
:103DD00080E02091880930918909821793070CF0BF
:103DE000FFCEA191B1912FEF3FEF2D933C93019620
:103DF000F0CFA191B1912FEF3FEF2D933C9301961E
:103E0000DDCFD0E0C0E08091860990918709C81786
:103E1000D9070CF0E5CEFE01EE0FFF1FEA50F84F78
:103E200000811181D80154966D917C9161157105C5
:103E3000F1F0FB0101900020E9F73197AF01461B3B
:103E4000570B8FEB96E00E94F12A892B71F4F80151
:103E500080819181019649F40E94A116D8018D9329
:103E60009C93C0918609D09187092196CCCFF80107
:103E7000C688D7880D2C000CEE08FF08C701B601D4
:103E800072D99C01B701A6018FEB96E077D9892BF7
:103E900061F7D8018D919C91019639F70E94A11686
:103EA000F80191838083DDCFD0E0C0E08091880964
:103EB00090918909C817D9070CF092CEFE01EE0F38
:103EC000FF1FE254F74F00811181D80112966D91C6
:103ED0007C9161157105F1F0FB0101900020E9F77B
:103EE0003197AF01461B570B8FEB96E00E94F12AEA
:103EF000892B71F4F80180819181019649F40E9427
:103F0000A116D8018D939C93C0918809D0918909FD
:103F10002196CCCFF801C480D5800D2C000CEE0882
:103F2000FF08C701B6011FD99C01B701A6018FEB9D
:103F300096E024D9892B61F7D8018D919C91019647
:103F400039F70E94A116F80191838083DDCF0C8997
:103F50001D89CE80DF80E884F98420E030E048ECE1
:103F600052E4C701B601EDD60E943E28CB0164E6BB
:103F700070E00E947328582E492EC701B6010E9496
:103F80003E282AA13BA18A819B810115110539F1A7
:103F90001F924EE34F931F930F934F925F927F9325
:103FA0006F933F932F939F938F931F9282E68F93EC
:103FB0001F928CE38F938DE093E09F938F937F927A
:103FC0006F920E94FF2A2DB73EB72C5E3F4F0FB66F
:103FD000F8943EBF0FBE2DBF0E94ED1501CE1F927B
:103FE0004EE34F934F894F934E894F934F925F9279
:103FF0007F936F933F932F939F938F931F9282E6AC
:104000008F931F928CE38F9389E293E09F938F931A
:104010007F926F920E94FF2A8DB79EB744960FB68B
:10402000F8949EBF0FBE8DBFD7CFAEEBB8E090E047
:1040300080E02091880930918909821793070CF05C
:1040400013C48436910509F40FC4ED91FD912081CC
:10405000318137FD02C00196ECCF828193810097B8
:10406000E1F01F922EE32F939F938F931F928DE683
:104070008F931F928CE38F9384E093E09F938F93B1
:104080007F926F920E94FF2AADB7BEB71C960FB603
:10409000F894BEBF0FBEADBF9FCF1F928EE38F932C
:1040A00085818F9384818F931F928DE68F931F92CA
:1040B0008CE38F9385E493E09F938F937F926F922D
:1040C0000E94FF2AEDB7FEB73C960FB6F894FEBFEC
:1040D0000FBEEDBF81CF0E94A1167C0190E080E071
:1040E0002091860930918709821793070CF078CDCB
:1040F000EC01C156DF4F8E01000F111F0854194FFC
:10410000D801ED91FC9120813181E216F30609F08E
:1041100054C0228133812D7F2130310509F04DC0FB
:10412000848195810197F1F4C08CD18C5090C9069F
:104130001092C9068FEB96E0E7D3F6016083718396
:10414000828393835092C906D801ED91FC91A08D92
:10415000B18D8D919D910D90BC91A02D828F938FEB
:10416000A48FB58FCC0FDD1FC854D94FE881F981DA
:10417000848195810297E9F4008D118DD090C90654
:104180001092C9068FEB96E09FD3F801608371838C
:1041900082839383D092C906E881F981A08DB18D85
:1041A0008D919D910D90BC91A02D868F978FA0A38E
:1041B000B1A38091860990918709019691CFE6017C
:1041C000C25CDE4FA881B9818D919C91119797FDBA
:1041D00011C012968D919C9113970297029750F4FB
:1041E00014968D919C9115978130910551F002970D
:1041F00009F485C0FFEFEF1AFF0A22E0C20ED11CBE
:10420000FECC5896ED91FC91599740815181628185
:1042100073815A968D919D910D90BC91A02D481758
:1042200059076A077B0731F30E94A608E881F981E4
:104230000089118922893389AB01BC01401B510BD4
:10424000620B730B84859585A685B78521E0892B44
:104250008A2B8B2B29F482859385892B09F420E006
:10426000822F90E0B0E0A0E084179507A607B7077B
:1042700008F68081918197FD25C01F922EE32F9330
:10428000008CF18DE02D21812F9320812F939F931E
:104290008F931F9235E63F931F928CE38F93ACEA86
:1042A000B2E0BF93AF937F926F920E94FF2A0E9469
:1042B000ED152DB73EB7225F3F4F0FB6F8943EBFC6
:1042C0000FBE2DBFE881F981A08DB18D8D919D919B
:1042D0000D90BC91A02D828F938FA48FB58F0881F4
:1042E00019810E94A608D80150966D937D938D93F5
:1042F0009C935397E881F981138612867BCF589659
:10430000ED91FC9159975E962D913D914D915C9167
:1043100091976081718182819381AED4811172C045
:10432000E881F98182859385892B09F463CFE8813F
:10433000F9810081118117FD4EC0008CF18DE02DB7
:1043400020803180428053801F92BEE3BF9320E0E3
:1043500030E048EC52E4C201B101F3D48FD6CB0176
:1043600064E670E0C0D697FF03C0919581959109EE
:104370009F938F93C201B10181D69B0177FF04C047
:1043800022273327261B370B3F932F931F930F931F
:104390001F92E5E6EF931F92FCE3FF932EE433E0D8
:1043A0003F932F937F926F920E94FF2AADB7BEB7C3
:1043B00050960FB6F894BEBF0FBEADBF20E030E000
:1043C000A901C201B10158D487FF03C0BDE2B09377
:1043D00057070E94ED15E881F981A08DB18D8D916F
:1043E0009D910D90BC91A02D868F978FA0A3B1A316
:1043F000088119810E94A608F801608B718B828B5D
:10440000938B78CF0E94A608E881F98100891189F1
:1044100022893389601B710B820B930B04851585F0
:1044200026853785061717072807390708F078CF3C
:104430007ECF89E690E00E9481162CCCA285B385C0
:10444000109709F42BCC8D919C912485358582178A
:10445000930709F423CC6081718118161906ACF416
:104460008AE690E00E948116E881F981A285B385F1
:104470008D919C91958784870E94A608E881F98197
:10448000668377838087918709CC89E690E0EACFBD
:1044900080918A0990918B09892B09F4C0C187EB1F
:1044A00094E00E947109A501940130D63093A804CC
:1044B0002093A70487EE94E00E947109A50194015E
:1044C00025D630939E0420939D048BED94E00E94AA
:1044D0007109A50194011AD6309394042093930492
:1044E0008FEC94E00E947109A50194010FD63093DE
:1044F0008A042093890483EC94E00E947109A50149
:10450000940104D63093800420937F0483EF94E0D9
:104510000E947109A5019401F9D530937604209386
:10452000750481EA94E00E946D1687E994E00E9488
:104530006D168DE894E00E946D1683E894E00E9469
:104540006D1689E794E00E946D168FE694E00E9454
:104550006D160E94230C0E94A60800916B04109116
:104560006C0420916D0430916E04601B710B820B02
:10457000930B653671058105910508F450C10E94C1
:10458000A60860936B0470936C0480936D04909301
:104590006E0490E080E00E94B30841E050E060E0EB
:1045A00070E0892B19F040E050E0BA0140936704B5
:1045B000509368046093690470936A0481E090E00A
:1045C0000E94B308909366048093650482E090E0B3
:1045D0000E94B30841E050E060E070E0892B19F0E0
:1045E00040E050E0BA01409361045093620460934C
:1045F00063047093640483E090E00E94B308909396
:10460000600480935F0484E090E00E94B30890937C
:104610005E0480935D0480E190E00E94B308909373
:104620005C0480935B0481E190E00E94B30841E068
:1046300050E060E070E0892B19F040E050E0BA01F2
:1046400040935704509358046093590470935A044C
:1046500082E190E00E94B308892B09F0E3C08091C9
:10466000530490915404A0915504B0915604892BA1
:104670008A2B8B2B09F0D6C0809151049091520463
:104680000E94381683E190E00E94B3089093500492
:1046900080934F0484E190E00E94B30890934E040D
:1046A00080934D0485E190E00E94B30890934C0400
:1046B00080934B0486E190E00E94B30890934A04F3
:1046C0008093490487E190E00E94B30890934804E6
:1046D0008093470488E190E00E94B30890934604D9
:1046E0008093450489E190E00E94B30890934404CC
:1046F000809343048AE190E00E94B30890934204BF
:10470000809341048BE190E00E94B30890934004B1
:1047100080933F048CE190E00E94B30890933E04A4
:1047200080933D048DE190E00E94B30890933C0497
:1047300080933B048EE190E00E94B30890933A048A
:10474000809339048FE190E00E94B308909338047D
:10475000809337046091330485E10E94480860919A
:104760002F0490E080E00E945E0B60912B0481E0BA
:1047700090E00E945E0B6091270482E090E00E942E
:104780005E0B6091230483E090E00E945E0B6091D9
:104790001F0484E090E00E945E0B60911B0485E0A2
:1047A00090E00E945E0B6091170486E090E00E940A
:1047B0005E0B6091130487E090E00E945E0B6091B5
:1047C0000F0488E090E00E945E0B60910B0489E08A
:1047D00090E00E945E0B609107048AE090E00E94E6
:1047E0005E0B609103048BE090E00E945E0B609191
:1047F000FF038CE090E00E945E0B6091FB038DE074
:1048000090E00E945E0B6091F7038EE090E00E94C2
:104810005E0B6091F3038FE090E00E945E0B0E94BC
:10482000890787C982E190E00E94B308892B09F4C7
:1048300029CF8091530490915404A0915504B091D4
:104840005604892B8A2B8B2B09F016CF1BCF8E3366
:10485000910509F4BEC9D7018D937D012196C53913
:10486000D10509F091C9B5C981E090E090938B0919
:1048700080938A091F928EE38F931F9283E68F9312
:104880001F928CE38F9383E693E09F938F937F92A5
:104890006F92B5D60E94ED15ADB7BEB71A960FB69A
:1048A000F894BEBF0FBEADBF9BC98091AB04909181
:1048B000AC0422D58091B1049091B2041DD58091B1
:1048C0000F069091100618C56627772760C0FC0177
:1048D00088279927E89421912032E9F3293010F0B4
:1048E0002E30C8F32B3239F02D3231F4689403C0E6
:1048F00046D0820F911D219120532A30C8F31EF417
:10490000909581959F4F08951F93FC0199278827C3
:10491000BC01E89411911032E9F3193010F01E3007
:10492000C8F31B3249F01D3241F4689405C012D01F
:10493000610F711D811D911D119110531A30B8F333
:104940003EF490958095709561957F4F8F4F9F4F66
:104950001F910895592F482F372F262F660F771F45
:10496000881F991F660F771F881F991F620F731F7B
:10497000841F951F660F771F881F991F08957AE07F
:10498000979F902D879F802D910D112408958F92D0
:104990009F92AF92BF92CF92DF92EF92FF920F93CE
:1049A0001F93CF93DF935C017B016115710519F0B3
:1049B000DB018D939C9385010F5F1F4FF501D08123
:1049C0008D2F90E039D16C01892BA9F5DD32A9F545
:1049D0000F5F1F4FD5011196DC91C1E05801F1E046
:1049E000AF1AB10843E050E06CEE70E0C5012CD185
:1049F000892B61F5680182E0C80ED11C45E050E0CA
:104A000067EE70E0C60120D1892B21F4680197E0A0
:104A1000C90ED11CE114F10419F0D701CD92DC923A
:104A200060E070E080E89FEFC111F9C060E070E0E5
:104A300080E89FE7F4C05801BECFDB3229F485013E
:104A40000E5F1F4FF501D181C0E0C8CF43E050E0B9
:104A500064EE70E0C501F8D0892BE9F0F80110E0B0
:104A600000E020E030E0A9015F01B0ED8B2E8D0E5B
:104A700089E08815C0F19C2E689491F88C2F88707D
:104A8000C2FF16C0811102C00F5F1F4F3196D501C2
:104A9000DC91C92DE9CFE114F10429F00E5F1F4F1D
:104AA000F7011183008360E070E080EC9FE7B7C0FE
:104AB000882311F001501109A5E0B0E0F9D19B0164
:104AC000AC01220F331F441F551F280D311D411DFE
:104AD000511D283999E93907490799E15907B0F279
:104AE000C6609C2ED3CFAEEF8A1206C0C3FD3CC079
:104AF0009C2E689493F8CACFDF7DD534A9F58081C8
:104B00008D3239F4C061DF011296818162E070E07C
:104B100006C0DF018B32C1F3119661E070E0805373
:104B20005D01A61AB70A8A30F8F4E0E8CE16ECE088
:104B3000DE065CF4B601660F771F660F771FC60EA0
:104B4000D71ECC0CDD1CC80ED11C5D01FFEFAF1AC7
:104B5000BF0A8C9180538A3098F1C4FF03C0D1946E
:104B6000C194D1080C0D1D1DC1FF09C0E114F10451
:104B700031F081E0A81AB108D701AD92BC92CA0108
:104B8000B9017ED0C370C33009F490584B015C0169
:104B900020E030E0A90170D0882309F43EC0CBE1C9
:104BA000D1E017FF05C0119501951109C3E0D1E0CF
:104BB0006E01B8E1CB1AD10880E2E82EF12C0EC0CC
:104BC000D501B3CFFE0125913591459154910E1930
:104BD0001F09C501B401B5D04B015C01D501C40169
:104BE0000E151F057CF72497F594E794CC16DD0687
:104BF000A9F78A2F880F8B2F881F8F3F41F020E065
:104C000030E0A901C501B40137D0811106C082E2AC
:104C100090E090938D0980938C09C501B401DF91D8
:104C2000CF911F910F91FF90EF90DF90CF90BF90A9
:104C3000AF909F908F9008959111E6C0803219F047
:104C400089508550D0F70895FB01DC014150504058
:104C500088F08D9181341CF08B350CF4805E659169
:104C600061341CF06B350CF4605E861B611171F3CE
:104C7000990B0895881BFCCF40D008F481E008957B
:104C8000E89409C097FB3EF49095809570956195E6
:104C90007F4F8F4F9F4F9923A9F0F92F96E9BB279C
:104CA0009395F695879577956795B795F111F8CF18
:104CB000FAF4BB0F11F460FF1BC06F5F7F4F8F4F83
:104CC0009F4F16C0882311F096E911C0772321F079
:104CD0009EE8872F762F05C0662371F096E8862F11
:104CE00070E060E02AF09A95660F771F881FDAF768
:104CF000880F9695879597F90895990F0008550F95
:104D0000AA0BE0E8FEEF16161706E807F907C0F051
:104D100012161306E407F50798F0621B730B840B59
:104D2000950B39F40A2661F0232B242B252B21F433
:104D300008950A2609F4A140A6958FEF811D811DD3
:104D400008950BD07BC06CD028F071D018F095235B
:104D500009F05DC062C01124A5C081D0A0F3959F69
:104D6000D1F3950F50E0551F629FF001729FBB2752
:104D7000F00DB11D639FAA27F00DB11DAA1F649FFE
:104D80006627B00DA11D661F829F2227B00DA11DB1
:104D9000621F739FB00DA11D621F839FA00D611D37
:104DA000221F749F3327A00D611D231F849F600D58
:104DB000211D822F762F6A2F11249F5750408AF091
:104DC000E1F088234AF0EE0FFF1FBB1F661F771F1D
:104DD000881F91505040A9F79E3F510570F017C0B1
:104DE00061C05F3FECF3983EDCF38695779567955D
:104DF000B795F795E7959F5FC1F7FE2B880F911D3B
:104E00009695879597F9089599278827089597F992
:104E10009F6780E870E060E008959FEF80EC089560
:104E200000240A9416161706180609060895002489
:104E30000A9412161306140605060895092E039403
:104E4000000C11F4882352F0BB0F40F4BF2B11F477
:104E500060FF04C06F5F7F4F8F4F9F4F089557FDD6
:104E60009058440F551F59F05F3F71F04795880FD8
:104E700097FB991F61F09F3F79F08795089512166F
:104E800013061406551FF2CF4695F1DF08C016161B
:104E900017061806991FF1CF8695710561050894CC
:104EA0000895E894BB2766277727CB0197F90895E3
:104EB00009D0A59F900DB49F900DA49F800D911DCA
:104EC00011240895A29FB001B39FC001A39F700D4C
:104ED000811D1124911DB29F700D811D1124911D02
:104EE00008955058BB27AA270ED0A8CF99DF30F0DD
:104EF0009EDF20F031F49F3F11F41EF48ECF0EF4AC
:104F0000E095E7FB84CFE92FAADF80F3BA176207A9
:104F100073078407950718F071F49EF5C2CF0EF45D
:104F2000E0950B2EBA2FA02D0B01B90190010C01B9
:104F3000CA01A0011124FF27591B99F0593F50F4D1
:104F4000503E68F11A16F040A22F232F342F442729
:104F5000585FF3CF469537952795A795F040539521
:104F6000C9F77EF41F16BA0B620B730B840BBAF0F1
:104F70009150A1F0FF0FBB1F661F771F881FC2F75C
:104F80000EC0BA0F621F731F841F48F48795779570
:104F90006795B795F7959E3F08F0B3CF9395880F27
:104FA00008F09927EE0F9795879508950CD046CF76
:104FB0003EDF40F035DF30F021F45F3F19F027CFBE
:104FC000511170CF2ACF4BDF98F39923C9F35523A2
:104FD000B1F3951B550BBB27AA27621773078407EC
:104FE00038F09F5F5F4F220F331F441FAA1FA9F3A2
:104FF00033D00E2E3AF0E0E830D091505040E69594
:10500000001CCAF729D0FE2F27D0660F771F881FF4
:10501000BB1F261737074807AB07B0E809F0BB0BE3
:10502000802DBF01FF2793585F4F2AF09E3F510507
:1050300068F0EDCE37CF5F3FECF3983EDCF386951A
:1050400077956795B795F7959F5FC9F7880F911D7D
:105050009695879597F90895E1E0660F771F881F69
:10506000BB1F621773078407BA0720F0621B730B1C
:10507000840BBA0BEE1F88F7E095089504D068946E
:10508000B11110CF0895F3DE88F09F5790F0B92F3B
:105090009927B751A0F0D1F0660F771F881F991F8D
:1050A0001AF0BA95C9F712C0B13081F0FADEB1E05A
:1050B0000895F7CE672F782F8827B85F39F0B93F6A
:1050C000CCF3869577956795B395D9F73EF490958F
:1050D0008095709561957F4F8F4F9F4F08950DDE9E
:1050E00008F48FEF089597FB072E16F4009406D06E
:1050F00077FD08D02FD007FC05D03EF49095819520
:105100009F4F0895709561957F4F0895052E97FBE9
:1051100016F400940FD057FD05D030D007FC02D014
:1051200046F408C050954095309521953F4F4F4F1C
:105130005F4F089590958095709561957F4F8F4F43
:105140009F4F0895EE0FFF1F881F8BBF0790F691AA
:10515000E02D1994AA1BBB1B51E107C0AA1FBB1F5E
:10516000A617B70710F0A61BB70B881F991F5A95F3
:10517000A9F780959095BC01CD010895A1E21A2E62
:10518000AA1BBB1BFD010DC0AA1FBB1FEE1FFF1FEB
:10519000A217B307E407F50720F0A21BB30BE40B3B
:1051A000F50B661F771F881F991F1A9469F7609582
:1051B0007095809590959B01AC01BD01CF0108953C
:1051C0000F931F93CF93DF938230910510F482E009
:1051D00090E0E0919009F091910930E020E0B0E09A
:1051E000A0E0309799F42115310509F44AC0281B35
:1051F000390B24303105D8F58A819B816115710501
:1052000089F1FB0193838283FE0111C040815181AA
:105210000281138148175907E0F04817590799F49C
:10522000109761F012960C93129713961C93329676
:10523000CF01DF91CF911F910F91089500939009B5
:1052400010939109F4CF2115310551F042175307FE
:1052500038F0A901DB019A01BD01DF01F801C1CFDE
:10526000EF01F9CF9093910980939009CDCFFE0182
:10527000E20FF31F819391932250310939832883E0
:10528000D7CF20918E0930918F09232B41F42091A3
:1052900014023091150230938F0920938E092091CA
:1052A0001202309113022115310541F42DB73EB79A
:1052B0004091160250911702241B350BE0918E0984
:1052C000F0918F09E217F307A0F42E1B3F0B28176C
:1052D000390778F0AC014E5F5F4F2417350748F06F
:1052E0004E0F5F1F50938F0940938E0981939193C6
:1052F0009FCFF0E0E0E09CCFCF93DF930097E9F001
:10530000FC01329713821282A0919009B091910909
:10531000ED0130E020E01097A1F420813181820F6F
:10532000931F20918E0930918F092817390709F0B2
:1053300061C0F0938F09E0938E09DF91CF910895BA
:10534000EA01CE17DF07E8F54A815B819E0141152E
:105350005105B1F7E901FB83EA8349915991C40FE3
:10536000D51FEC17FD0761F4808191810296840FAF
:10537000951FE90199838883828193819B838A8326
:10538000F0E0E0E012968D919C9113970097B9F5AB
:105390002D913C911197CD010296820F931F209180
:1053A0008E0930918F092817390739F6309751F552
:1053B0001092910910929009B0938F09A0938E09D1
:1053C000BCCFD383C28340815181840F951FC817FE
:1053D000D90761F44E5F5F4F88819981480F591F4B
:1053E000518340838A819B81938382832115310578
:1053F00009F0B0CFF0939109E09390099ECFFD01A1
:10540000DC01C0CF13821282D7CF4F925F926F928E
:105410007F928F929F92AF92BF92CF92DF92EF9244
:10542000FF920F931F93CF93DF938C01009791F41A
:10543000CB01DF91CF911F910F91FF90EF90DF9003
:10544000CF90BF90AF909F908F907F906F905F9024
:105450004F90B6CEFC01E60FF71F9C012250310998
:10546000E217F30708F4AAC0D901CD91DC91119796
:10547000C617D70718F1C530D10570F0CE010497D3
:105480008617970748F0C61BD70B2297C193D19375
:105490006D937C93CF0130DFC801DF91CF911F91D5
:1054A0000F91FF90EF90DF90CF90BF90AF909F90C3
:1054B0008F907F906F905F904F9008955B01AC1A32
:1054C000BD0A4C018C0E9D1EA0919009B0919109CE
:1054D000512C412CF12CE12C109731F580918E0943
:1054E00090918F098815990509F05CC046165706FA
:1054F00008F058C08091120290911302009741F475
:105500008DB79EB74091160250911702841B950BE0
:10551000E817F90708F052C0F0938F09E0938E095D
:10552000F90171836083B8CF8D919C911197129688
:105530006C90129713967C901397A815B90559F59E
:105540006C0142E0C40ED11CCA14DB0420F1AC0192
:105550004A195B09DA011296159780F0628273820C
:1055600051834083D9016D937C93E114F10471F070
:10557000D7011396FC93EE9312978ECF22968C0F41
:105580009D1FF90191838083F301EFCFF09391097F
:10559000E093900981CF4816590608F42C017D014B
:1055A000D3019ACFCB010CDE7C01009739F0AE011C
:1055B000B80107D0C801A0DE87016ECF10E000E07F
:1055C0006BCFFB01DC0102C001900D9241505040B5
:1055D000D8F70895FB01DC0101900D920020E1F75E
:1055E0000895FB01DC014150504030F08D91019055
:1055F000801919F40020B9F7881B990B08950F93AF
:105600001F93CF93DF93CDB7DEB72E970FB6F894E5
:10561000DEBF0FBECDBF0E891F8986E08C831A8343
:1056200009838FEF9FE79E838D83AE01465E5F4FB8
:10563000688D798DCE01019611D02F813885020FAA
:10564000131FF80110822E960FB6F894DEBF0FBE1E
:10565000CDBFDF91CF911F910F9108952F923F926F
:105660004F925F926F927F928F929F92AF92BF9272
:10567000CF92DF92EF92FF920F931F93CF93DF931E
:1056800000D000D000D01F921F92CDB7DEB77C01B2
:105690003B018A01FC0117821682838181FFD0C100
:1056A000CE0101965C01F7019381F30193FD859191
:1056B00093FF81913F01882309F449C1853239F470
:1056C00093FD859193FF81913F01853221F4B701CC
:1056D00090E0CFD1E8CF912C212C312CFFE1F315B4
:1056E00038F08B3211F190F4803209F1833229F1D4
:1056F00037FC3CC020ED280F2A3050F536FE20C084
:105700008AE0989E200D1124922E06C08D3291F0D1
:10571000803371F7689430F8F30193FD859193FF1E
:1057200081913F018111DACF21C0689431F86894EA
:1057300032F8F2CF689433F8EFCF689434F8ECCFB6
:10574000EAE02E9E200D1124222E689435F8E4CF35
:105750008E3229F436FCFBC0689436F8DDCF8C36E7
:1057600019F4689437F8D8CF8836B1F2982F9F7D16
:1057700095549330D8F0833691F18337B1F1833566
:1057800009F05EC02801F2E04F0E511CF801C08004
:10579000D180692D70E036FC02C06FEF7FEFC6014B
:1057A00052D14C01689437F882010AC00C5F1F4F38
:1057B000FFE3F98388248394912C6501E89437F8FA
:1057C00033FE2AC0522C8114910459F5552009F456
:1057D0006ACFB70180E290E04CD15A94F7CFF8013C
:1057E000808189830E5F1F4FE5CF2801F2E04F0EC5
:1057F000511CF801C080D180692D70E036FC02C0D8
:105800006FEF7FEFC6012AD14C018201D7CFB701DC
:1058100080E290E02ED12A942814190409F0B8F7F8
:10582000D1CFF60137FC859137FE81916F01B70129
:1058300090E01FD151105A94F1E08F1A9108C3CF14
:10584000843619F0893609F073C0F80137FE67C055
:1058500060817181828193810C5F1F4FF32DFF76F0
:105860003F2E97FF09C090958095709561957F4F69
:105870008F4F9F4F689437F82AE030E0A50129D177
:10588000C82ECA188C2C432C36FE0CC0E89440F865
:10589000C91440F434FE05C032FC03C0F32DFE7E73
:1058A0004F2E892C44FEA6C0FE01EC0DF11D808117
:1058B000803309F098C0242D297E422E842D8870D3
:1058C000582E43FCA5C040FE9FC09C2C821418F4A7
:1058D0002C0C922C981844FEA1C0B70180E390E0F4
:1058E000C8D042FE08C088E790E041FE02C088E5CB
:1058F00090E0B701BED0C91408F49CC0CA94D12C62
:105900009FEFC91AD90ACA0CDB1CF60182916F01FC
:10591000B70190E0AED0AC14BD04B9F757CF6081A9
:105920007181072E000C880B990B0E5F1F4F96CFCD
:10593000D32CE894D4F82AE030E08537E1F1232D28
:10594000297FD22E8F36A9F1F0F4883551F1F70175
:10595000868197812B960FB6F894DEBF0FBECDBF20
:10596000DF91CF911F910F91FF90EF90DF90CF903B
:10597000BF90AF909F908F907F906F905F904F906F
:105980003F902F900895803749F0883701F7D4FE73
:1059900002C06894D2F820E130E00DC06894D4F8D9
:1059A000F6CF34FE03C0822F8660D82E20E132E08D
:1059B00002C028E030E0F801D7FE0EC0608171819E
:1059C000828193810C5F1F4FA50183D0C82ECA1816
:1059D0003D2CE89437F856CF6081718190E080E0EB
:1059E0000E5F1F4FF1CF42FC02C0839467CF8394B8
:1059F000839464CF842D867809F460CFF6CFB70105
:105A000080E290E036D083948214C8F3512C63CFA7
:105A1000522C5818821408F45ECFF8CF842D867863
:105A200009F469CF8BE241FE80E247FC8DE2B701C9
:105A300090E060CFB70180E390E01BD09A945BCFF9
:105A40008FEF9FEF87CFFC010590615070400110F0
:105A5000D8F7809590958E0F9F1F0895FC01615097
:105A6000704001900110D8F7809590958E0F9F1F80
:105A700008950F931F93CF93DF93182F092FEB01F6
:105A80008B8181FD09C01FEF0FEF812F902FDF91D8
:105A9000CF911F910F91089582FF14C02E813F81F5
:105AA0008C819D81281739073CF4E881F981CF0169
:105AB00001969983888310838E819F8101969F83AD
:105AC0008E83E3CFE885F985812F1995892BA1F382
:105AD000DACFFA01AA27283051F1203181F1E89478
